{
  "_format": "hh-sol-artifact-1",
  "contractName": "GroupPool",
  "sourceName": "contracts/GroupPool.sol",
  "abi": [
    {
      "inputs": [
        {
          "internalType": "address",
          "name": "_celoToken",
          "type": "address"
        },
        {
          "internalType": "address",
          "name": "_cusdToken",
          "type": "address"
        },
        {
          "internalType": "address",
          "name": "_treasury",
          "type": "address"
        }
      ],
      "stateMutability": "nonpayable",
      "type": "constructor"
    },
    {
      "inputs": [
        {
          "internalType": "address",
          "name": "owner",
          "type": "address"
        }
      ],
      "name": "OwnableInvalidOwner",
      "type": "error"
    },
    {
      "inputs": [
        {
          "internalType": "address",
          "name": "account",
          "type": "address"
        }
      ],
      "name": "OwnableUnauthorizedAccount",
      "type": "error"
    },
    {
      "inputs": [],
      "name": "ReentrancyGuardReentrantCall",
      "type": "error"
    },
    {
      "anonymous": false,
      "inputs": [
        {
          "indexed": true,
          "internalType": "uint256",
          "name": "poolId",
          "type": "uint256"
        },
        {
          "indexed": true,
          "internalType": "address",
          "name": "member",
          "type": "address"
        },
        {
          "indexed": false,
          "internalType": "uint256",
          "name": "amount",
          "type": "uint256"
        }
      ],
      "name": "ContributionMade",
      "type": "event"
    },
    {
      "anonymous": false,
      "inputs": [
        {
          "indexed": true,
          "internalType": "uint256",
          "name": "poolId",
          "type": "uint256"
        },
        {
          "indexed": true,
          "internalType": "address",
          "name": "member",
          "type": "address"
        },
        {
          "indexed": false,
          "internalType": "uint256",
          "name": "amount",
          "type": "uint256"
        }
      ],
      "name": "FundsDistributed",
      "type": "event"
    },
    {
      "anonymous": false,
      "inputs": [
        {
          "indexed": true,
          "internalType": "uint256",
          "name": "poolId",
          "type": "uint256"
        },
        {
          "indexed": true,
          "internalType": "address",
          "name": "member",
          "type": "address"
        },
        {
          "indexed": false,
          "internalType": "uint256",
          "name": "contribution",
          "type": "uint256"
        }
      ],
      "name": "MemberJoined",
      "type": "event"
    },
    {
      "anonymous": false,
      "inputs": [
        {
          "indexed": true,
          "internalType": "address",
          "name": "previousOwner",
          "type": "address"
        },
        {
          "indexed": true,
          "internalType": "address",
          "name": "newOwner",
          "type": "address"
        }
      ],
      "name": "OwnershipTransferred",
      "type": "event"
    },
    {
      "anonymous": false,
      "inputs": [
        {
          "indexed": true,
          "internalType": "uint256",
          "name": "poolId",
          "type": "uint256"
        },
        {
          "indexed": false,
          "internalType": "uint256",
          "name": "totalAmount",
          "type": "uint256"
        },
        {
          "indexed": false,
          "internalType": "uint256",
          "name": "yieldEarned",
          "type": "uint256"
        }
      ],
      "name": "PoolCompleted",
      "type": "event"
    },
    {
      "anonymous": false,
      "inputs": [
        {
          "indexed": true,
          "internalType": "uint256",
          "name": "poolId",
          "type": "uint256"
        },
        {
          "indexed": true,
          "internalType": "address",
          "name": "creator",
          "type": "address"
        },
        {
          "indexed": false,
          "internalType": "string",
          "name": "name",
          "type": "string"
        },
        {
          "indexed": false,
          "internalType": "uint256",
          "name": "targetAmount",
          "type": "uint256"
        },
        {
          "indexed": false,
          "internalType": "uint256",
          "name": "maxMembers",
          "type": "uint256"
        },
        {
          "indexed": false,
          "internalType": "uint256",
          "name": "lockDuration",
          "type": "uint256"
        }
      ],
      "name": "PoolCreated",
      "type": "event"
    },
    {
      "anonymous": false,
      "inputs": [
        {
          "indexed": true,
          "internalType": "uint256",
          "name": "poolId",
          "type": "uint256"
        },
        {
          "indexed": true,
          "internalType": "address",
          "name": "referrer",
          "type": "address"
        },
        {
          "indexed": false,
          "internalType": "uint256",
          "name": "bonus",
          "type": "uint256"
        }
      ],
      "name": "ReferralBonusPaid",
      "type": "event"
    },
    {
      "inputs": [],
      "name": "CREATOR_BONUS_PERCENTAGE",
      "outputs": [
        {
          "internalType": "uint256",
          "name": "",
          "type": "uint256"
        }
      ],
      "stateMutability": "view",
      "type": "function"
    },
    {
      "inputs": [],
      "name": "DEFAULT_APY",
      "outputs": [
        {
          "internalType": "uint256",
          "name": "",
          "type": "uint256"
        }
      ],
      "stateMutability": "view",
      "type": "function"
    },
    {
      "inputs": [],
      "name": "MAX_LOCK_DURATION",
      "outputs": [
        {
          "internalType": "uint256",
          "name": "",
          "type": "uint256"
        }
      ],
      "stateMutability": "view",
      "type": "function"
    },
    {
      "inputs": [],
      "name": "MAX_MEMBERS",
      "outputs": [
        {
          "internalType": "uint256",
          "name": "",
          "type": "uint256"
        }
      ],
      "stateMutability": "view",
      "type": "function"
    },
    {
      "inputs": [],
      "name": "MAX_TARGET_AMOUNT",
      "outputs": [
        {
          "internalType": "uint256",
          "name": "",
          "type": "uint256"
        }
      ],
      "stateMutability": "view",
      "type": "function"
    },
    {
      "inputs": [],
      "name": "MIN_LOCK_DURATION",
      "outputs": [
        {
          "internalType": "uint256",
          "name": "",
          "type": "uint256"
        }
      ],
      "stateMutability": "view",
      "type": "function"
    },
    {
      "inputs": [],
      "name": "MIN_MEMBERS",
      "outputs": [
        {
          "internalType": "uint256",
          "name": "",
          "type": "uint256"
        }
      ],
      "stateMutability": "view",
      "type": "function"
    },
    {
      "inputs": [],
      "name": "MIN_TARGET_AMOUNT",
      "outputs": [
        {
          "internalType": "uint256",
          "name": "",
          "type": "uint256"
        }
      ],
      "stateMutability": "view",
      "type": "function"
    },
    {
      "inputs": [],
      "name": "REFERRAL_BONUS_PERCENTAGE",
      "outputs": [
        {
          "internalType": "uint256",
          "name": "",
          "type": "uint256"
        }
      ],
      "stateMutability": "view",
      "type": "function"
    },
    {
      "inputs": [],
      "name": "YIELD_FEE_PERCENTAGE",
      "outputs": [
        {
          "internalType": "uint256",
          "name": "",
          "type": "uint256"
        }
      ],
      "stateMutability": "view",
      "type": "function"
    },
    {
      "inputs": [],
      "name": "celoToken",
      "outputs": [
        {
          "internalType": "contract IERC20",
          "name": "",
          "type": "address"
        }
      ],
      "stateMutability": "view",
      "type": "function"
    },
    {
      "inputs": [
        {
          "internalType": "uint256",
          "name": "poolId",
          "type": "uint256"
        },
        {
          "internalType": "uint256",
          "name": "amount",
          "type": "uint256"
        },
        {
          "internalType": "bool",
          "name": "useCUSD",
          "type": "bool"
        }
      ],
      "name": "contributeToPool",
      "outputs": [],
      "stateMutability": "nonpayable",
      "type": "function"
    },
    {
      "inputs": [
        {
          "internalType": "string",
          "name": "name",
          "type": "string"
        },
        {
          "internalType": "string",
          "name": "description",
          "type": "string"
        },
        {
          "internalType": "uint256",
          "name": "targetAmount",
          "type": "uint256"
        },
        {
          "internalType": "uint256",
          "name": "maxMembers",
          "type": "uint256"
        },
        {
          "internalType": "uint256",
          "name": "lockDuration",
          "type": "uint256"
        },
        {
          "internalType": "bool",
          "name": "useCUSD",
          "type": "bool"
        }
      ],
      "name": "createPool",
      "outputs": [],
      "stateMutability": "nonpayable",
      "type": "function"
    },
    {
      "inputs": [],
      "name": "cusdToken",
      "outputs": [
        {
          "internalType": "contract IERC20",
          "name": "",
          "type": "address"
        }
      ],
      "stateMutability": "view",
      "type": "function"
    },
    {
      "inputs": [
        {
          "internalType": "uint256",
          "name": "poolId",
          "type": "uint256"
        },
        {
          "internalType": "address",
          "name": "member",
          "type": "address"
        }
      ],
      "name": "getMemberInfo",
      "outputs": [
        {
          "internalType": "uint256",
          "name": "contribution",
          "type": "uint256"
        },
        {
          "internalType": "uint256",
          "name": "share",
          "type": "uint256"
        },
        {
          "internalType": "bool",
          "name": "hasWithdrawn",
          "type": "bool"
        }
      ],
      "stateMutability": "view",
      "type": "function"
    },
    {
      "inputs": [
        {
          "internalType": "uint256",
          "name": "poolId",
          "type": "uint256"
        }
      ],
      "name": "getPool",
      "outputs": [
        {
          "internalType": "uint256",
          "name": "poolId_",
          "type": "uint256"
        },
        {
          "internalType": "address",
          "name": "creator",
          "type": "address"
        },
        {
          "internalType": "string",
          "name": "name",
          "type": "string"
        },
        {
          "internalType": "string",
          "name": "description",
          "type": "string"
        },
        {
          "internalType": "uint256",
          "name": "targetAmount",
          "type": "uint256"
        },
        {
          "internalType": "uint256",
          "name": "currentAmount",
          "type": "uint256"
        },
        {
          "internalType": "uint256",
          "name": "maxMembers",
          "type": "uint256"
        },
        {
          "internalType": "uint256",
          "name": "currentMembers",
          "type": "uint256"
        },
        {
          "internalType": "uint256",
          "name": "lockDuration",
          "type": "uint256"
        },
        {
          "internalType": "uint256",
          "name": "startTime",
          "type": "uint256"
        },
        {
          "internalType": "uint256",
          "name": "endTime",
          "type": "uint256"
        },
        {
          "internalType": "bool",
          "name": "isCompleted",
          "type": "bool"
        },
        {
          "internalType": "bool",
          "name": "isActive",
          "type": "bool"
        },
        {
          "internalType": "uint256",
          "name": "yieldEarned",
          "type": "uint256"
        },
        {
          "internalType": "uint256",
          "name": "apy",
          "type": "uint256"
        }
      ],
      "stateMutability": "view",
      "type": "function"
    },
    {
      "inputs": [
        {
          "internalType": "uint256",
          "name": "poolId",
          "type": "uint256"
        }
      ],
      "name": "getPoolMembers",
      "outputs": [
        {
          "internalType": "address[]",
          "name": "",
          "type": "address[]"
        }
      ],
      "stateMutability": "view",
      "type": "function"
    },
    {
      "inputs": [],
      "name": "getStats",
      "outputs": [
        {
          "internalType": "uint256",
          "name": "totalPools",
          "type": "uint256"
        },
        {
          "internalType": "uint256",
          "name": "totalVolume",
          "type": "uint256"
        },
        {
          "internalType": "uint256",
          "name": "contractBalance",
          "type": "uint256"
        },
        {
          "internalType": "uint256",
          "name": "cusdBalance",
          "type": "uint256"
        }
      ],
      "stateMutability": "view",
      "type": "function"
    },
    {
      "inputs": [
        {
          "internalType": "address",
          "name": "user",
          "type": "address"
        }
      ],
      "name": "getUserCreatedPools",
      "outputs": [
        {
          "internalType": "uint256[]",
          "name": "",
          "type": "uint256[]"
        }
      ],
      "stateMutability": "view",
      "type": "function"
    },
    {
      "inputs": [
        {
          "internalType": "address",
          "name": "user",
          "type": "address"
        }
      ],
      "name": "getUserPools",
      "outputs": [
        {
          "internalType": "uint256[]",
          "name": "",
          "type": "uint256[]"
        }
      ],
      "stateMutability": "view",
      "type": "function"
    },
    {
      "inputs": [
        {
          "internalType": "uint256",
          "name": "poolId",
          "type": "uint256"
        },
        {
          "internalType": "uint256",
          "name": "amount",
          "type": "uint256"
        },
        {
          "internalType": "bool",
          "name": "useCUSD",
          "type": "bool"
        },
        {
          "internalType": "address",
          "name": "referrer",
          "type": "address"
        }
      ],
      "name": "joinPool",
      "outputs": [],
      "stateMutability": "nonpayable",
      "type": "function"
    },
    {
      "inputs": [],
      "name": "nextPoolId",
      "outputs": [
        {
          "internalType": "uint256",
          "name": "",
          "type": "uint256"
        }
      ],
      "stateMutability": "view",
      "type": "function"
    },
    {
      "inputs": [],
      "name": "owner",
      "outputs": [
        {
          "internalType": "address",
          "name": "",
          "type": "address"
        }
      ],
      "stateMutability": "view",
      "type": "function"
    },
    {
      "inputs": [
        {
          "internalType": "uint256",
          "name": "",
          "type": "uint256"
        }
      ],
      "name": "pools",
      "outputs": [
        {
          "internalType": "uint256",
          "name": "poolId",
          "type": "uint256"
        },
        {
          "internalType": "address",
          "name": "creator",
          "type": "address"
        },
        {
          "internalType": "string",
          "name": "name",
          "type": "string"
        },
        {
          "internalType": "string",
          "name": "description",
          "type": "string"
        },
        {
          "internalType": "uint256",
          "name": "targetAmount",
          "type": "uint256"
        },
        {
          "internalType": "uint256",
          "name": "currentAmount",
          "type": "uint256"
        },
        {
          "internalType": "uint256",
          "name": "maxMembers",
          "type": "uint256"
        },
        {
          "internalType": "uint256",
          "name": "currentMembers",
          "type": "uint256"
        },
        {
          "internalType": "uint256",
          "name": "lockDuration",
          "type": "uint256"
        },
        {
          "internalType": "uint256",
          "name": "startTime",
          "type": "uint256"
        },
        {
          "internalType": "uint256",
          "name": "endTime",
          "type": "uint256"
        },
        {
          "internalType": "bool",
          "name": "isCompleted",
          "type": "bool"
        },
        {
          "internalType": "bool",
          "name": "isActive",
          "type": "bool"
        },
        {
          "internalType": "uint256",
          "name": "yieldEarned",
          "type": "uint256"
        },
        {
          "internalType": "uint256",
          "name": "apy",
          "type": "uint256"
        }
      ],
      "stateMutability": "view",
      "type": "function"
    },
    {
      "inputs": [],
      "name": "renounceOwnership",
      "outputs": [],
      "stateMutability": "nonpayable",
      "type": "function"
    },
    {
      "inputs": [],
      "name": "totalPoolsCreated",
      "outputs": [
        {
          "internalType": "uint256",
          "name": "",
          "type": "uint256"
        }
      ],
      "stateMutability": "view",
      "type": "function"
    },
    {
      "inputs": [],
      "name": "totalVolumeLocked",
      "outputs": [
        {
          "internalType": "uint256",
          "name": "",
          "type": "uint256"
        }
      ],
      "stateMutability": "view",
      "type": "function"
    },
    {
      "inputs": [
        {
          "internalType": "address",
          "name": "newOwner",
          "type": "address"
        }
      ],
      "name": "transferOwnership",
      "outputs": [],
      "stateMutability": "nonpayable",
      "type": "function"
    },
    {
      "inputs": [],
      "name": "treasury",
      "outputs": [
        {
          "internalType": "address",
          "name": "",
          "type": "address"
        }
      ],
      "stateMutability": "view",
      "type": "function"
    },
    {
      "inputs": [
        {
          "internalType": "uint256",
          "name": "newAPY",
          "type": "uint256"
        }
      ],
      "name": "updateAPY",
      "outputs": [],
      "stateMutability": "nonpayable",
      "type": "function"
    },
    {
      "inputs": [
        {
          "internalType": "address",
          "name": "newTreasury",
          "type": "address"
        }
      ],
      "name": "updateTreasury",
      "outputs": [],
      "stateMutability": "nonpayable",
      "type": "function"
    },
    {
      "inputs": [
        {
          "internalType": "address",
          "name": "",
          "type": "address"
        },
        {
          "internalType": "uint256",
          "name": "",
          "type": "uint256"
        }
      ],
      "name": "userCreatedPools",
      "outputs": [
        {
          "internalType": "uint256",
          "name": "",
          "type": "uint256"
        }
      ],
      "stateMutability": "view",
      "type": "function"
    },
    {
      "inputs": [
        {
          "internalType": "address",
          "name": "",
          "type": "address"
        },
        {
          "internalType": "uint256",
          "name": "",
          "type": "uint256"
        }
      ],
      "name": "userPools",
      "outputs": [
        {
          "internalType": "uint256",
          "name": "",
          "type": "uint256"
        }
      ],
      "stateMutability": "view",
      "type": "function"
    },
    {
      "inputs": [
        {
          "internalType": "uint256",
          "name": "poolId",
          "type": "uint256"
        },
        {
          "internalType": "bool",
          "name": "useCUSD",
          "type": "bool"
        }
      ],
      "name": "withdrawFromPool",
      "outputs": [],
      "stateMutability": "nonpayable",
      "type": "function"
    }
  ],
  "bytecode": "0x6080346200011a57601f6200242238819003918201601f19168301916001600160401b038311848410176200011f578084926060946040528339810103126200011a576200004d8162000135565b620000696040620000616020850162000135565b930162000135565b90600160005533156200010157600180546001600160a01b0319808216339081179093556040519590946001600160a01b0394909385938492919083167f8be0079c531659141344cd1fd0a4f28419497f9722a3daafe3b4186f6b6457e0600080a360016007556103e86008551685600554161760055516836006541617600655169060095416176009556122d790816200014b8239f35b604051631e4fbdf760e01b815260006004820152602490fd5b600080fd5b634e487b7160e01b600052604160045260246000fd5b51906001600160a01b03821682036200011a5756fe608080604052600436101561001357600080fd5b60003560e01c9081630455311114611c0b57508063068bcd8d14611b495780630c5e72c014610da45780631064aa5514611af057806318e5613114611ad25780631e67939e146119ff5780632d380cca146119875780633dc55b711461136f5780634f1bfc9e14611350578063506f7f5e14610f6157806361d027b314610f3857806362d4f29a14610f1c578063715018a614610ebf57806378b4330f14610ea15780637d29391614610e7e5780637dbb687614610e605780637f51bb1f14610dc75780637fea355b14610da95780637fee9d2614610da45780638161d781146108cc5780638da5cb5b146108a35780639816af581461081f578063ac4afa3814610779578063b1219e73146106a1578063b73238811461067c578063bbef6f9014610624578063c59d484714610527578063cae07843146104fe578063d9a67220146104e2578063e22d551a146104b9578063ea0e35b11461049d578063f2b907d314610292578063f2fde38b146102095763fae728cd1461019557600080fd5b34610204576020366003190112610204576004356101b1611ef6565b6107d081116101bf57600855005b60405162461bcd60e51b815260206004820152601760248201527f47726f7570506f6f6c3a2041505920746f6f20686967680000000000000000006044820152606490fd5b600080fd5b3461020457602036600319011261020457610222611d0f565b61022a611ef6565b6001600160a01b0390811690811561027957600154826001600160601b0360a01b821617600155167f8be0079c531659141344cd1fd0a4f28419497f9722a3daafe3b4186f6b6457e0600080a3005b604051631e4fbdf760e01b815260006004820152602490fd5b34610204576060366003190112610204576004356024356102b1611e07565b9082151580610492575b6102c490611f73565b82600052602090600282526102e660ff600b6040600020015460081c16611fbf565b836000526002825261030360ff600b60406000200154161561200b565b61030b6121a0565b836000526002825260406000203360005260108101835261033360ff604060002054166121c3565b61033e821515612061565b600581019261034e838554611f31565b946103606004840196875410156120be565b15610480576006546001600160a01b0316905b6040516323b872dd60e01b815233600482015230602482015260448101859052918190839060649082906000906001600160a01b03165af180156104745787936103e9600f927f0a4a91237423e0a1766a761c7cb029311d8b95d6b1b81db1b949a70c98b4e08e95600091610447575b50612121565b336000520181526040600020610400858254611f31565b905561040d848654611f31565b855561041b84600b54611f31565b600b556040519384523393a35490541115610438575b6001600055005b6104419061221c565b80610431565b6104679150853d871161046d575b61045f8183611d8e565b810190612109565b8b6103e3565b503d610455565b6040513d6000823e3d90fd5b6005546001600160a01b031690610373565b5060075483106102bb565b3461020457600036600319011261020457602060405160328152f35b34610204576000366003190112610204576005546040516001600160a01b039091168152602090f35b3461020457600036600319011261020457602060405160028152f35b34610204576000366003190112610204576006546040516001600160a01b039091168152602090f35b3461020457600036600319011261020457600a54600b546005546040516370a0823160e01b80825230600483015293926020926001600160a01b03929084908290602490829087165afa9283156104745784916000946105f3575b50600654169560246040518098819382523060048301525afa928315610474576000936105c3575b6080955060405194855284015260408301526060820152f35b80935085813d83116105ec575b6105da8183611d8e565b810103126102045760809451926105aa565b503d6105d0565b8281939295503d831161061d575b61060b8183611d8e565b81010312610204578390519287610582565b503d610601565b346102045760403660031901126102045761063d611d0f565b6001600160a01b03166000908152600460205260409020805460243591908210156102045760209161066e91611d25565b90546040519160031b1c8152f35b3461020457600036600319011261020457602060405169021e19e0c9bab24000008152f35b3461020457602080600319360112610204576004358015158061076e575b6106c890611f73565b60005260028152600e60406000200160405190818382549182815201908192600052846000209060005b8682821061075157868661070882880383611d8e565b604051928392818401908285525180915260408401929160005b82811061073157505050500390f35b83516001600160a01b031685528695509381019392810192600101610722565b83546001600160a01b0316855290930192600192830192016106f2565b5060075481106106bf565b3461020457602036600319011261020457600435600052600260205260406000208054600160a01b60019003600183015416600283016107b890611e50565b916107c560038501611e50565b93600481015491600582015490600683015460078401546008850154600986015491600a87015493600b88015496600c89015498600d0154996040519d8e9d8e9d8b60081c60ff169b60ff169a61081b9f611c66565b0390f35b3461020457602080600319360112610204576001600160a01b03610841611d0f565b1660005260038152604060002090604051908181845491828152019360005281600020916000905b82821061088c5761081b8561088081890382611d8e565b60405191829182611d53565b835486529485019460019384019390910190610869565b34610204576000366003190112610204576001546040516001600160a01b039091168152602090f35b34610204576080366003190112610204576108e5611e07565b6064356001600160a01b038116900361020457600435151580610d97575b61090c90611f73565b600435600052600260205261092e60ff600b6040600020015460081c16611fbf565b600435600052600260205261094e60ff600b60406000200154161561200b565b6109566121a0565b6004356000526002602052604060002090336000526010820160205260ff60406000205416610d5257600782015460068301541115610d0d5761099c6024351515612061565b6109bb6109af6024356005850154611f31565b600484015410156120be565b15610cfc576006546001600160a01b03165b6040516323b872dd60e01b81523360048201523060248083019190915235604482015260208160648160006001600160a01b0387165af1801561047457610a1b91600091610cdd5750612121565b600e820154600160401b811015610cc757806001610a429201600e850155600e8401611d25565b81549060031b9033821b9160018060a01b03901b191617905533600052601082016020526040600020600160ff19825416179055600f8201602052602435604060002055610a936007830154611f22565b6007830155610aa86024356005840154611f31565b6005830155610abb602435600b54611f31565b600b55336000526003602052610ad76004356040600020611f3e565b604051602435815233907ff4f82575ee84a81aac4be52b6a368e9ba9df524b4f5cf8177d7cfbabe861820c602060043592a36064356001600160a01b0316151580610ca1575b80610c8c575b610b50575b50600460058201549101541115610b40576001600055005b610b4b60043561221c565b610431565b6064602435026024358104606414602435151715610c765761271090049081610b7a575b50610b28565b60405163a9059cbb60e01b81526001600160a01b0360643516600482015260248101839052906020908290816000816044810103926001600160a01b03165af190811561047457600091610c57575b5015610c13576040519081526064356001600160a01b031690600435907fe0570289ea25f3ae6cf39fb322bd2ba4e8f84491cad47be0ca30085550b80c8f90602090a38180610b74565b606460405162461bcd60e51b815260206004820152602060248201527f47726f7570506f6f6c3a20526566657272616c20626f6e7573206661696c65646044820152fd5b610c70915060203d60201161046d5761045f8183611d8e565b83610bc9565b634e487b7160e01b600052601160045260246000fd5b506064356001600160a01b0316331415610b23565b506064356001600160a01b0316600090815260108301602052604090205460ff16610b1d565b634e487b7160e01b600052604160045260246000fd5b610cf6915060203d60201161046d5761045f8183611d8e565b846103e3565b6005546001600160a01b03166109cd565b60405162461bcd60e51b815260206004820152601760248201527f47726f7570506f6f6c3a20506f6f6c2069732066756c6c0000000000000000006044820152606490fd5b60405162461bcd60e51b815260206004820152601b60248201527f47726f7570506f6f6c3a20416c72656164792061206d656d62657200000000006044820152606490fd5b5060075460043510610903565b611cf3565b34610204576000366003190112610204576020600b54604051908152f35b3461020457602036600319011261020457610de0611d0f565b610de8611ef6565b6001600160a01b03168015610e0f576001600160601b0360a01b6009541617600955600080f35b60405162461bcd60e51b815260206004820152602360248201527f47726f7570506f6f6c3a20496e76616c6964207472656173757279206164647260448201526265737360e81b6064820152608490fd5b34610204576000366003190112610204576020600a54604051908152f35b3461020457600036600319011261020457602060405167016345785d8a00008152f35b3461020457600036600319011261020457602060405162093a808152f35b3461020457600036600319011261020457610ed8611ef6565b600180546001600160a01b031981169091556000906001600160a01b03167f8be0079c531659141344cd1fd0a4f28419497f9722a3daafe3b4186f6b6457e08280a3005b3461020457600036600319011261020457602060405160648152f35b34610204576000366003190112610204576009546040516001600160a01b039091168152602090f35b346102045760403660031901126102045760043560249081359182151583036102045781151580611345575b610f9690611f73565b8160005260209060028252600a60406000200154421061130457610fb86121a0565b826000526002825260406000209033600052601082018352610fe160ff604060002054166121c3565b60118201903360005281845260ff604060002054166112c15760ff600b840154161561127e5733600052600f8301845260406000205492670de0b6b3a76400008085028581048214861517156112695761104361104d91600585015490612180565b600c84015461216d565b0460c8810281810460c814821517156112695760019161271061109b92049384600091858060a01b039586910154163314611261575b61109161109692938a611f31565b61220f565b611f31565b971561125557878180600654165b60405163a9059cbb60e01b80825233600483015260248201949094529116929088816044816000885af190811561047457600091611238575b50156111f45783611148575b89897f9f5926601e7fc353505f05fae61282ae5d67b716f95656849456e6aa7bbbbb5f8a6111358b8b3360005283526040600020600160ff19825416179055600b5461220f565b600b556040519384523393a36001600055005b600954604051928352166001600160a01b0316600482015260248101929092528590829060449082906000905af1908115610474576000916111d7575b501561119457808080806110ee565b83601e6064926040519262461bcd60e51b845260048401528201527f47726f7570506f6f6c3a20466565207472616e73666572206661696c656400006044820152fd5b6111ee9150853d871161046d5761045f8183611d8e565b87611185565b60405162461bcd60e51b815260048101899052601c818701527f47726f7570506f6f6c3a205769746864726177616c206661696c6564000000006044820152606490fd5b61124f9150893d8b1161046d5761045f8183611d8e565b8b6110e2565b878180600554166110a9565b905080611083565b83634e487b7160e01b60005260116004526000fd5b83601d6064926040519262461bcd60e51b845260048401528201527f47726f7570506f6f6c3a20506f6f6c206e6f7420636f6d706c657465640000006044820152fd5b83601c6064926040519262461bcd60e51b845260048401528201527f47726f7570506f6f6c3a20416c72656164792077697468647261776e000000006044820152fd5b6064916040519162461bcd60e51b83528160048401528201527f47726f7570506f6f6c3a204c6f636b20706572696f64206e6f7420656e6465646044820152fd5b506007548210610f8d565b346102045760003660031901126102045760206040516301e133808152f35b346102045760c03660031901126102045760043567ffffffffffffffff8111610204576113a0903690600401611db0565b60243567ffffffffffffffff8111610204576113c0903690600401611db0565b60a43580151503610204578151156119425760449167016345785d8a00008335106118fe5769021e19e0c9bab24000008335116118b05760026064351061186c576032606435116118285762093a80608435106117d9576301e133806084351161178b576007549161143183611f22565b60075582600052600260205260406000209083825560018201336001600160601b0360a01b825416179055825167ffffffffffffffff8111610cc75761147a6002840154611e16565b601f8111611744575b50806020601f82116001146116d7576000916116cc575b508160011b916000199060031b1c19161760028301555b80519067ffffffffffffffff8211610cc7576114d06003840154611e16565b601f8111611681575b50602090601f83116001146115ee577f80eb862b1ebf91ef46e8085c1e47b348af9ad8f1248fb18302612a57ad3a2b5594939291600091836115e3575b50508160011b916000199060031b1c19161760038201555b8435600482015560006005820155606435600682015560006007820155608435600882015542600982015561156560843542611f31565b600a820155600b810161010061ffff198254161790556000600c820155600d600854910155611595600a54611f22565b600a553360005260046020526115af836040600020611f3e565b6115c460405191608083526080830190611c26565b93356020820152606435604082015260843560608201528033940390a3005b015190508780611516565b906003840160005260206000209160005b601f198516811061166957509183916001937f80eb862b1ebf91ef46e8085c1e47b348af9ad8f1248fb18302612a57ad3a2b55979695601f19811610611650575b505050811b01600382015561152e565b015160001960f88460031b161c19169055878080611640565b919260206001819286850151815501940192016115ff565b600384016000526020600020601f840160051c810191602085106116c2575b601f0160051c01905b8181106116b657506114d9565b600081556001016116a9565b90915081906116a0565b90508401518761149a565b91506002840160005260206000206000925b601f198316841061172c576001935082601f19811610611713575b5050811b0160028301556114b1565b86015160001960f88460031b161c191690558780611704565b868101518255602093840193600190920191016116e9565b600284016000526020600020601f830160051c810160208410611784575b601f830160051c82018110611778575050611483565b60008155600101611762565b5080611762565b60405162461bcd60e51b815260206004820152602160248201527f47726f7570506f6f6c3a204c6f636b206475726174696f6e20746f6f206c6f6e81850152606760f81b6064820152608490fd5b60405162461bcd60e51b815260206004820152602260248201527f47726f7570506f6f6c3a204c6f636b206475726174696f6e20746f6f2073686f81850152611c9d60f21b6064820152608490fd5b60405162461bcd60e51b815260206004820152601b60248201527f47726f7570506f6f6c3a20546f6f206d616e79206d656d62657273000000000081850152606490fd5b60405162461bcd60e51b815260206004820152601a60248201527f47726f7570506f6f6c3a20546f6f20666577206d656d6265727300000000000081850152606490fd5b60405162461bcd60e51b815260206004820152602160248201527f47726f7570506f6f6c3a2054617267657420616d6f756e7420746f6f2068696781850152600d60fb1b6064820152608490fd5b60405162461bcd60e51b815260206004820181905260248201527f47726f7570506f6f6c3a2054617267657420616d6f756e7420746f6f206c6f7781850152606490fd5b60405162461bcd60e51b815260206004820152601860248201527f47726f7570506f6f6c3a204e616d6520726571756972656400000000000000006044820152606490fd5b3461020457602080600319360112610204576001600160a01b036119a9611d0f565b1660005260048152604060002090604051908181845491828152019360005281600020916000905b8282106119e85761081b8561088081890382611d8e565b8354865294850194600193840193909101906119d1565b34610204576040366003190112610204576024356001600160a01b03811690600435908290036102045780151580611ac7575b611a3b90611f73565b600052600260205260406000209080600052600f8201602052604060002054906005830154801515600014611ab957670de0b6b3a764000093848402948486041484151715610c7657611a92601192606096612180565b925b6000520160205260ff6040600020541690604051928352602083015215156040820152f35b506011606093600092611a94565b506007548110611a32565b34610204576000366003190112610204576020600754604051908152f35b3461020457604036600319011261020457611b09611d0f565b6001600160a01b031660009081526003602052604090208054602435919082101561020457602091611b3a91611d25565b90549060031b1c604051908152f35b346102045760203660031901126102045760043580151580611c00575b611b6f90611f73565b60005260026020526040600020805490600160a01b6001900360018201541660048201549260058301549060068401549060078501549060088601546009870154600a88015491600b89015494600c8a015496600d8b01549860028c01611bd590611e50565b9b600301611be290611e50565b9c6040519d8e9d8e9d8b60081c60ff169b60ff169a61081b9f611c66565b506007548110611b66565b34610204576000366003190112610204576020906008548152f35b919082519283825260005b848110611c52575050826000602080949584010152601f8019910116010190565b602081830181015184830182015201611c31565b9b989592949f9e9d9a9794611ca4908d6101c09f9c999693611cb295602091835260018060a01b03169101528d6101e0908160408201520190611c26565b8c810360608e015290611c26565b9d60808b015260a08a015260c089015260e0880152610100870152610120860152610140850152151561016084015215156101808301526101a08201520152565b3461020457600036600319011261020457602060405160c88152f35b600435906001600160a01b038216820361020457565b8054821015611d3d5760005260206000200190600090565b634e487b7160e01b600052603260045260246000fd5b6020908160408183019282815285518094520193019160005b828110611d7a575050505090565b835185529381019392810192600101611d6c565b90601f8019910116810190811067ffffffffffffffff821117610cc757604052565b81601f820112156102045780359067ffffffffffffffff8211610cc75760405192611de5601f8401601f191660200185611d8e565b8284526020838301011161020457816000926020809301838601378301015290565b60443590811515820361020457565b90600182811c92168015611e46575b6020831014611e3057565b634e487b7160e01b600052602260045260246000fd5b91607f1691611e25565b9060405191826000825492611e6484611e16565b908184526001948581169081600014611ed35750600114611e90575b5050611e8e92500383611d8e565b565b9093915060005260209081600020936000915b818310611ebb575050611e8e93508201013880611e80565b85548884018501529485019487945091830191611ea3565b915050611e8e94506020925060ff191682840152151560051b8201013880611e80565b6001546001600160a01b03163303611f0a57565b60405163118cdaa760e01b8152336004820152602490fd5b6000198114610c765760010190565b91908201809211610c7657565b8054600160401b811015610cc757611f5b91600182018155611d25565b819291549060031b91821b91600019901b1916179055565b15611f7a57565b60405162461bcd60e51b815260206004820152601e60248201527f47726f7570506f6f6c3a20506f6f6c20646f6573206e6f7420657869737400006044820152606490fd5b15611fc657565b60405162461bcd60e51b815260206004820152601a60248201527f47726f7570506f6f6c3a20506f6f6c206e6f74206163746976650000000000006044820152606490fd5b1561201257565b60405162461bcd60e51b815260206004820152602160248201527f47726f7570506f6f6c3a20506f6f6c20616c726561647920636f6d706c6574656044820152601960fa1b6064820152608490fd5b1561206857565b60405162461bcd60e51b815260206004820152602860248201527f47726f7570506f6f6c3a20416d6f756e74206d75737420626520677265617465604482015267072207468616e20360c41b6064820152608490fd5b156120c557565b606460405162461bcd60e51b815260206004820152602060248201527f47726f7570506f6f6c3a20457863656564732074617267657420616d6f756e746044820152fd5b90816020910312610204575180151581036102045790565b1561212857565b60405162461bcd60e51b815260206004820152601a60248201527f47726f7570506f6f6c3a205472616e73666572206661696c65640000000000006044820152606490fd5b81810292918115918404141715610c7657565b811561218a570490565b634e487b7160e01b600052601260045260246000fd5b6002600054146121b1576002600055565b604051633ee5aeb560e01b8152600490fd5b156121ca57565b60405162461bcd60e51b815260206004820152601760248201527f47726f7570506f6f6c3a204e6f742061206d656d6265720000000000000000006044820152606490fd5b91908203918211610c7657565b8060005260026020527f88d91b760dadb6520acbf85b0c896f73884d30ab8e465c348c74f093ef57eb3d604080600020600b8101600160ff19825416179055600c61226b60098301544261220f565b9164496cebb80061228e600583015494612289600d8501548761216d565b61216d565b04918291015582519182526020820152a256fea2646970667358221220fd5d7b5e9a6734555b9a47935b42e05e376ce32c569042ee3f35a2468779c03364736f6c63430008140033",
  "linkReferences": {},
  "deployedLinkReferences": {}
}