{"contracts/SavingsGoal.sol":{"SavingsGoal":{"abi":[{"inputs":[{"internalType":"address","name":"_celoToken","type":"address"},{"internalType":"address","name":"_cusdToken","type":"address"},{"internalType":"address","name":"_treasury","type":"address"}],"stateMutability":"nonpayable","type":"constructor"},{"inputs":[{"internalType":"address","name":"owner","type":"address"}],"name":"OwnableInvalidOwner","type":"error"},{"inputs":[{"internalType":"address","name":"account","type":"address"}],"name":"OwnableUnauthorizedAccount","type":"error"},{"inputs":[],"name":"ReentrancyGuardReentrantCall","type":"error"},{"anonymous":false,"inputs":[{"indexed":true,"internalType":"address","name":"depositor","type":"address"},{"indexed":false,"internalType":"uint256","name":"amount","type":"uint256"},{"indexed":false,"internalType":"uint256","name":"totalDeposited","type":"uint256"}],"name":"DepositMade","type":"event"},{"anonymous":false,"inputs":[{"indexed":true,"internalType":"address","name":"withdrawer","type":"address"},{"indexed":false,"internalType":"uint256","name":"amount","type":"uint256"}],"name":"EmergencyWithdraw","type":"event"},{"anonymous":false,"inputs":[{"indexed":true,"internalType":"address","name":"withdrawer","type":"address"},{"indexed":false,"internalType":"uint256","name":"amount","type":"uint256"}],"name":"FundsWithdrawn","type":"event"},{"anonymous":false,"inputs":[{"indexed":true,"internalType":"address","name":"creator","type":"address"},{"indexed":false,"internalType":"uint256","name":"totalAmount","type":"uint256"},{"indexed":false,"internalType":"uint256","name":"yieldEarned","type":"uint256"}],"name":"GoalCompleted","type":"event"},{"anonymous":false,"inputs":[{"indexed":true,"internalType":"address","name":"creator","type":"address"},{"indexed":false,"internalType":"uint256","name":"targetAmount","type":"uint256"},{"indexed":false,"internalType":"uint256","name":"lockDuration","type":"uint256"}],"name":"GoalCreated","type":"event"},{"anonymous":false,"inputs":[{"indexed":true,"internalType":"address","name":"previousOwner","type":"address"},{"indexed":true,"internalType":"address","name":"newOwner","type":"address"}],"name":"OwnershipTransferred","type":"event"},{"inputs":[],"name":"DEFAULT_APY","outputs":[{"internalType":"uint256","name":"","type":"uint256"}],"stateMutability":"view","type":"function"},{"inputs":[],"name":"MAX_LOCK_DURATION","outputs":[{"internalType":"uint256","name":"","type":"uint256"}],"stateMutability":"view","type":"function"},{"inputs":[],"name":"MAX_TARGET_AMOUNT","outputs":[{"internalType":"uint256","name":"","type":"uint256"}],"stateMutability":"view","type":"function"},{"inputs":[],"name":"MIN_LOCK_DURATION","outputs":[{"internalType":"uint256","name":"","type":"uint256"}],"stateMutability":"view","type":"function"},{"inputs":[],"name":"MIN_TARGET_AMOUNT","outputs":[{"internalType":"uint256","name":"","type":"uint256"}],"stateMutability":"view","type":"function"},{"inputs":[],"name":"YIELD_FEE_PERCENTAGE","outputs":[{"internalType":"uint256","name":"","type":"uint256"}],"stateMutability":"view","type":"function"},{"inputs":[],"name":"celoToken","outputs":[{"internalType":"contract IERC20","name":"","type":"address"}],"stateMutability":"view","type":"function"},{"inputs":[{"internalType":"uint256","name":"targetAmount","type":"uint256"},{"internalType":"uint256","name":"lockDuration","type":"uint256"},{"internalType":"bool","name":"useCUSD","type":"bool"}],"name":"createGoal","outputs":[],"stateMutability":"nonpayable","type":"function"},{"inputs":[],"name":"cusdToken","outputs":[{"internalType":"contract IERC20","name":"","type":"address"}],"stateMutability":"view","type":"function"},{"inputs":[{"internalType":"uint256","name":"amount","type":"uint256"},{"internalType":"bool","name":"useCUSD","type":"bool"}],"name":"deposit","outputs":[],"stateMutability":"nonpayable","type":"function"},{"inputs":[{"internalType":"bool","name":"useCUSD","type":"bool"}],"name":"emergencyWithdraw","outputs":[],"stateMutability":"nonpayable","type":"function"},{"inputs":[{"internalType":"address","name":"user","type":"address"}],"name":"getGoal","outputs":[{"components":[{"internalType":"address","name":"creator","type":"address"},{"internalType":"uint256","name":"targetAmount","type":"uint256"},{"internalType":"uint256","name":"currentAmount","type":"uint256"},{"internalType":"uint256","name":"lockDuration","type":"uint256"},{"internalType":"uint256","name":"startTime","type":"uint256"},{"internalType":"uint256","name":"endTime","type":"uint256"},{"internalType":"bool","name":"isCompleted","type":"bool"},{"internalType":"bool","name":"isActive","type":"bool"},{"internalType":"uint256","name":"yieldEarned","type":"uint256"},{"internalType":"uint256","name":"apy","type":"uint256"}],"internalType":"struct SavingsGoal.Goal","name":"","type":"tuple"}],"stateMutability":"view","type":"function"},{"inputs":[],"name":"getStats","outputs":[{"internalType":"uint256","name":"totalGoals","type":"uint256"},{"internalType":"uint256","name":"totalVolume","type":"uint256"},{"internalType":"uint256","name":"contractBalance","type":"uint256"},{"internalType":"uint256","name":"cusdBalance","type":"uint256"}],"stateMutability":"view","type":"function"},{"inputs":[{"internalType":"address","name":"","type":"address"}],"name":"goals","outputs":[{"internalType":"address","name":"creator","type":"address"},{"internalType":"uint256","name":"targetAmount","type":"uint256"},{"internalType":"uint256","name":"currentAmount","type":"uint256"},{"internalType":"uint256","name":"lockDuration","type":"uint256"},{"internalType":"uint256","name":"startTime","type":"uint256"},{"internalType":"uint256","name":"endTime","type":"uint256"},{"internalType":"bool","name":"isCompleted","type":"bool"},{"internalType":"bool","name":"isActive","type":"bool"},{"internalType":"uint256","name":"yieldEarned","type":"uint256"},{"internalType":"uint256","name":"apy","type":"uint256"}],"stateMutability":"view","type":"function"},{"inputs":[{"internalType":"address","name":"user","type":"address"}],"name":"hasActiveGoal","outputs":[{"internalType":"bool","name":"","type":"bool"}],"stateMutability":"view","type":"function"},{"inputs":[{"internalType":"address","name":"","type":"address"}],"name":"hasGoal","outputs":[{"internalType":"bool","name":"","type":"bool"}],"stateMutability":"view","type":"function"},{"inputs":[],"name":"owner","outputs":[{"internalType":"address","name":"","type":"address"}],"stateMutability":"view","type":"function"},{"inputs":[],"name":"renounceOwnership","outputs":[],"stateMutability":"nonpayable","type":"function"},{"inputs":[],"name":"totalGoalsCreated","outputs":[{"internalType":"uint256","name":"","type":"uint256"}],"stateMutability":"view","type":"function"},{"inputs":[],"name":"totalVolumeLocked","outputs":[{"internalType":"uint256","name":"","type":"uint256"}],"stateMutability":"view","type":"function"},{"inputs":[{"internalType":"address","name":"newOwner","type":"address"}],"name":"transferOwnership","outputs":[],"stateMutability":"nonpayable","type":"function"},{"inputs":[],"name":"treasury","outputs":[{"internalType":"address","name":"","type":"address"}],"stateMutability":"view","type":"function"},{"inputs":[{"internalType":"uint256","name":"newAPY","type":"uint256"}],"name":"updateAPY","outputs":[],"stateMutability":"nonpayable","type":"function"},{"inputs":[{"internalType":"address","name":"newTreasury","type":"address"}],"name":"updateTreasury","outputs":[],"stateMutability":"nonpayable","type":"function"},{"inputs":[{"internalType":"bool","name":"useCUSD","type":"bool"}],"name":"withdraw","outputs":[],"stateMutability":"nonpayable","type":"function"}],"evm":{"bytecode":{"linkReferences":{},"object":"6080346200011557601f6200180c38819003918201601f19168301916001600160401b038311848410176200011a5780849260609460405283398101031262000115576200004d8162000130565b620000696040620000616020850162000130565b930162000130565b9060016000553315620000fc57600180546001600160a01b0319808216339081179093556040519590946001600160a01b0394909385938492919083167f8be0079c531659141344cd1fd0a4f28419497f9722a3daafe3b4186f6b6457e0600080a36103526006551685600454161760045516836005541617600555169060075416176007556116c69081620001468239f35b604051631e4fbdf760e01b815260006004820152602490fd5b600080fd5b634e487b7160e01b600052604160045260246000fd5b51906001600160a01b0382168203620001155756fe6080604081815260048036101561001557600080fd5b600092833560e01c90816304553111146114c9575080630c5e72c0146114ad5780631a02859f146114055780631f6d28bc146113a457806336f472ca146113855780634f1bfc9e146113665780635c12f0401461104457806361d027b31461101b57806370a6031114610d6e578063715018a614610d1157806378b4330f14610cf35780637d29391614610cd15780637f51bb1f14610c2f5780637fea355b14610c105780638d017bb114610bd25780638da5cb5b14610ba95780639a408321146108515780639db48bbb14610707578063a810a54c146103ca578063b7323881146103a6578063c59d484714610290578063cae0784314610263578063e22d551a1461023c578063f2fde38b146101aa5763fae728cd1461013657600080fd5b346101a65760203660031901126101a6578035916101526114f9565b6107d0831161016357505060065580f35b906020606492519162461bcd60e51b8352820152601960248201527f536176696e6773476f616c3a2041505920746f6f2068696768000000000000006044820152fd5b8280fd5b5090346101a65760203660031901126101a6576001600160a01b03823581811693919290849003610238576101dd6114f9565b8315610222575050600154826001600160601b0360a01b821617600155167f8be0079c531659141344cd1fd0a4f28419497f9722a3daafe3b4186f6b6457e08380a380f35b51631e4fbdf760e01b8152908101849052602490fd5b8480fd5b50346101a657826003193601126101a6575490516001600160a01b03909116815260209150f35b50503461028c578160031936011261028c5760055490516001600160a01b039091168152602090f35b5080fd5b5090346101a657826003193601126101a657600854916009549160018060a01b0392838354169382519384916370a0823160e01b96878452308385015283602460209586935afa95861561039c578996610366575b509060248392600554169786519889938492835230908301525afa94851561035c578795610325575b506080965082519586528501528301526060820152f35b9080955081813d8311610355575b61033d8183611613565b81010312610351576080965051933861030e565b8680fd5b503d610333565b83513d89823e3d90fd5b919095508282813d8311610395575b61037f8183611613565b810103126103915790519460246102e5565b8880fd5b503d610375565b85513d8b823e3d90fd5b50503461028c578160031936011261028c5760209051683635c9adc5dea000008152f35b5091903461028c576020806003193601126101a6576103e76114e5565b91338452600382526103fe60ff8286205416611548565b338452600282526005818520015442106106b95761041a61164d565b3384526002825280842094600686019060ff8254161561067657600287019661044a600789549201548092611525565b9060c881029080820460c814901517156106635761271061046d91048092611670565b9515610653576005546001600160a01b03165b845163a9059cbb60e01b80825233858301908152602081018a90526001600160a01b039384169391929089908290819003604001818e885af1908115610649578b9161062c575b50156105e95783610522575b50505050506105087feaff4b37086828766ad3268786972c0cd24259d4c87a80f9d3963a3c3d999b0d94959654600954611670565b600955805461ff0019169055519283523392a26001815580f35b6007548751928352166001600160a01b03168482019081526020810193909352918691839182908b90829060400103925af19081156105df5787916105b2575b501561057157808080806104d3565b606490848085519262461bcd60e51b845283015260248201527f536176696e6773476f616c3a20466565207472616e73666572206661696c65646044820152fd5b6105d29150853d87116105d8575b6105ca8183611613565b810190611635565b38610562565b503d6105c0565b84513d89823e3d90fd5b865162461bcd60e51b8152808601899052601e60248201527f536176696e6773476f616c3a205769746864726177616c206661696c656400006044820152606490fd5b6106439150893d8b116105d8576105ca8183611613565b386104c7565b88513d8d823e3d90fd5b81546001600160a01b0316610480565b634e487b7160e01b885260118352602488fd5b825162461bcd60e51b8152908101849052601f60248201527f536176696e6773476f616c3a20476f616c206e6f7420636f6d706c65746564006044820152606490fd5b5162461bcd60e51b815280850191909152602260248201527f536176696e6773476f616c3a204c6f636b20706572696f64206e6f7420656e64604482015261195960f21b6064820152608490fd5b50823461084e57602036600319011261084e576001600160a01b03928235848116908190036101a6576101409482805194610741866115e0565b80865280602087015280828701528060608701528060808701528060a08701528060c08701528060e087015261010093818588015281610120809801528152600260205220928051938492610795846115e0565b815416968784526001820154926020850193845260028301549181860192835260038401549060608701918252840154916080870192835260058501549360a088019485526006860154968b600860c08b019860ff8b1615158a5260ff60e08d019b831c1615158b528c60078201549c019b8c5201549b019a8b5282519c8d525160208d015251908b01525160608a01525160808901525160a088015251151560c087015251151560e086015251908401525190820152f35b80fd5b50346101a657816003193601126101a6578035916024918235938415158503610ba5573386526020936003855261088d60ff8589205416611548565b33875260029586865260ff6006868a20015416610b57573388528686526108bf60ff6006878b20015460081c16611594565b6108c761164d565b8215610b0257338852868652848820918783019160016108e8868554611525565b940193845410610ab55715610aa157600554899088906001600160a01b03165b88516323b872dd60e01b8152338982015230858201526044810188905292839160649183916001600160a01b03165af1908115610a97578a91610a7a575b5015610a395750610958838254611525565b815561096683600954611525565b6009555491845190815282868201527f0b05f0d1cd0819f155b8a61f60baf7767c1ee49d04aeaab701df236140eb93f9853392a25411156109aa575b846001815580f35b7f5fdb120e2225930f6b50914ed30f8f8b37a0a6c7b6df7b1f0f7f235791bfc34192600791338752858252670de0b6b3a7640000610a1f64496cebb800610a13610a09888c209560068701600160ff1982541617905586015442611670565b600886015461167d565b0497830154978861167d565b04928391015582519485528401523392a2388080806109a2565b84601c6064928989519362461bcd60e51b85528401528201527f536176696e6773476f616c3a205472616e73666572206661696c6564000000006044820152fd5b610a919150883d8a116105d8576105ca8183611613565b38610946565b87513d8c823e3d90fd5b8454899088906001600160a01b0316610908565b865162461bcd60e51b81528087018990526022818401527f536176696e6773476f616c3a20457863656564732074617267657420616d6f756044820152611b9d60f21b6064820152608490fd5b845162461bcd60e51b8152808501879052602a818401527f536176696e6773476f616c3a20416d6f756e74206d75737420626520677265616044820152690746572207468616e20360b41b6064820152608490fd5b845162461bcd60e51b81528085018790526023818401527f536176696e6773476f616c3a20476f616c20616c726561647920636f6d706c656044820152621d195960ea1b6064820152608490fd5b8580fd5b50503461028c578160031936011261028c5760015490516001600160a01b039091168152602090f35b50346101a65760203660031901126101a657356001600160a01b038116908190036101a657818360ff92602095526003855220541690519015158152f35b50503461028c578160031936011261028c576020906009549051908152f35b50346101a65760203660031901126101a65780356001600160a01b0381169290839003610ccd57610c5e6114f9565b8215610c7c5750506001600160601b0360a01b600754161760075580f35b906020608492519162461bcd60e51b8352820152602560248201527f536176696e6773476f616c3a20496e76616c6964207472656173757279206164604482015264647265737360d81b6064820152fd5b8380fd5b50503461028c578160031936011261028c5760209051662386f26fc100008152f35b50503461028c578160031936011261028c576020905162093a808152f35b833461084e578060031936011261084e57610d2a6114f9565b600180546001600160a01b0319811690915581906001600160a01b03167f8be0079c531659141344cd1fd0a4f28419497f9722a3daafe3b4186f6b6457e08280a380f35b5091903461028c57606036600319011261028c578235906024803590604490813580151503610ba5573386526020916003835260ff8588205416610fdc57662386f26fc100008610610f9157683635c9adc5dea000008611610f455762093a808410610ef9576301e133808411610ead575033865260028252838620336001600160601b0360a01b8254161781558560018201558660028201558360038201554288820155610e1d8442611525565b60058201556006808201805461ffff1916610100179055600782018890555460089182015533875260038352848720805460ff1916600117905554966000198814610e9c57505060017f585021382a707927ff376ee2d95481c8ae02449a616bbff2c6d68fff56cfb15b9495960160085582519485528401523392a280f35b634e487b7160e01b87526011905285fd5b7f536176696e6773476f616c3a204c6f636b206475726174696f6e20746f6f206c906023899360849588519562461bcd60e51b8752860152840152820152626f6e6760e81b6064820152fd5b7f536176696e6773476f616c3a204c6f636b206475726174696f6e20746f6f207390889260849487519462461bcd60e51b865285015280840152820152631a1bdc9d60e21b6064820152fd5b7f536176696e6773476f616c3a2054617267657420616d6f756e7420746f6f2068906023899360849588519562461bcd60e51b8752860152840152820152620d2ced60eb1b6064820152fd5b7f536176696e6773476f616c3a2054617267657420616d6f756e7420746f6f206c906022899360849588519562461bcd60e51b8752860152840152820152616f7760f01b6064820152fd5b7f536176696e6773476f616c3a20476f616c20616c7265616479206578697374739083899360649588519562461bcd60e51b8752860152840152820152fd5b50503461028c578160031936011261028c5760075490516001600160a01b039091168152602090f35b5090346101a65760209081600319360112610ccd576110616114e5565b923385526003835261107860ff8387205416611548565b3385526002835261109460ff6006848820015460081c16611594565b61109c61164d565b3385526002835281852090600582015442101561130c57600282019081546101f48082029082820414821517156112f9576127106110dc91048092611670565b96156112e9576005546001600160a01b03165b855163a9059cbb60e01b80825233858301908152602081018b90526001600160a01b03938416939192908a908290819003604001818f885af19081156112df578c916112c2575b501561126e578a90846111a7575b50897f5fafa99d0643513820be26656b45130b01e1c03062e1266bf36f88cbd3bd96958a8a60068b6111798c54600954611670565b60095501805461ff00191690553380865260038352818620805460ff19169055905193845292a26001815580f35b60075489519384526001600160a01b039116168583019081526020810194909452909288928492918390036040019183915af1908115611264578891611247575b50156111f8578080808981611144565b835162461bcd60e51b81529081018590526024808201527f536176696e6773476f616c3a2050656e616c7479207472616e736665722066616044820152631a5b195960e21b6064820152608490fd5b61125e9150863d88116105d8576105ca8183611613565b386111e8565b85513d8a823e3d90fd5b875162461bcd60e51b81528086018a9052602860248201527f536176696e6773476f616c3a20456d657267656e6379207769746864726177616044820152671b0819985a5b195960c21b6064820152608490fd5b6112d991508a3d8c116105d8576105ca8183611613565b38611136565b89513d8e823e3d90fd5b81546001600160a01b03166110ef565b634e487b7160e01b895260118352602489fd5b825162461bcd60e51b8152908101849052602e60248201527f536176696e6773476f616c3a204c6f636b20706572696f6420656e6465642c2060448201526d757365207769746864726177282960901b6064820152608490fd5b50503461028c578160031936011261028c57602090516301e133808152f35b50503461028c578160031936011261028c576020906008549051908152f35b5082903461028c57602036600319011261028c57356001600160a01b038116929083900361028c5760209282526003835260ff818320541691826113ec575b50519015158152f35b600284528190206006015460081c60ff169150836113e3565b50346101a65760203660031901126101a6576001600160a01b0381358181169081900361023857838560ff926101409752600260205220918254169360018301549360028401549060038501549085015490600586015492600687015494600860078901549801549881519a8b5260208b01528901526060880152608087015260a0860152818116151560c086015260081c16151560e0840152610100830152610120820152f35b50503461028c578160031936011261028c576020905160c88152f35b84903461028c578160031936011261028c576020906006548152f35b6004359081151582036114f457565b600080fd5b6001546001600160a01b0316330361150d57565b60405163118cdaa760e01b8152336004820152602490fd5b9190820180921161153257565b634e487b7160e01b600052601160045260246000fd5b1561154f57565b60405162461bcd60e51b815260206004820152601b60248201527f536176696e6773476f616c3a204e6f2061637469766520676f616c00000000006044820152606490fd5b1561159b57565b60405162461bcd60e51b815260206004820152601c60248201527f536176696e6773476f616c3a20476f616c206e6f7420616374697665000000006044820152606490fd5b610140810190811067ffffffffffffffff8211176115fd57604052565b634e487b7160e01b600052604160045260246000fd5b90601f8019910116810190811067ffffffffffffffff8211176115fd57604052565b908160209103126114f4575180151581036114f45790565b60026000541461165e576002600055565b604051633ee5aeb560e01b8152600490fd5b9190820391821161153257565b818102929181159184041417156115325756fea2646970667358221220068c3244abbf90e61387a978f1055e67ce81461ab9909152cb9fe3ad36220cf664736f6c63430008140033","opcodes":"PUSH1 0x80 CALLVALUE PUSH3 0x115 JUMPI PUSH1 0x1F PUSH3 0x180C CODESIZE DUP2 SWAP1 SUB SWAP2 DUP3 ADD PUSH1 0x1F NOT AND DUP4 ADD SWAP2 PUSH1 0x1 PUSH1 0x1 PUSH1 0x40 SHL SUB DUP4 GT DUP5 DUP5 LT OR PUSH3 0x11A JUMPI DUP1 DUP5 SWAP3 PUSH1 0x60 SWAP5 PUSH1 0x40 MSTORE DUP4 CODECOPY DUP2 ADD SUB SLT PUSH3 0x115 JUMPI PUSH3 0x4D DUP2 PUSH3 0x130 JUMP JUMPDEST PUSH3 0x69 PUSH1 0x40 PUSH3 0x61 PUSH1 0x20 DUP6 ADD PUSH3 0x130 JUMP JUMPDEST SWAP4 ADD PUSH3 0x130 JUMP JUMPDEST SWAP1 PUSH1 0x1 PUSH1 0x0 SSTORE CALLER ISZERO PUSH3 0xFC JUMPI PUSH1 0x1 DUP1 SLOAD PUSH1 0x1 PUSH1 0x1 PUSH1 0xA0 SHL SUB NOT DUP1 DUP3 AND CALLER SWAP1 DUP2 OR SWAP1 SWAP4 SSTORE PUSH1 0x40 MLOAD SWAP6 SWAP1 SWAP5 PUSH1 0x1 PUSH1 0x1 PUSH1 0xA0 SHL SUB SWAP5 SWAP1 SWAP4 DUP6 SWAP4 DUP5 SWAP3 SWAP2 SWAP1 DUP4 AND PUSH32 0x8BE0079C531659141344CD1FD0A4F28419497F9722A3DAAFE3B4186F6B6457E0 PUSH1 0x0 DUP1 LOG3 PUSH2 0x352 PUSH1 0x6 SSTORE AND DUP6 PUSH1 0x4 SLOAD AND OR PUSH1 0x4 SSTORE AND DUP4 PUSH1 0x5 SLOAD AND OR PUSH1 0x5 SSTORE AND SWAP1 PUSH1 0x7 SLOAD AND OR PUSH1 0x7 SSTORE PUSH2 0x16C6 SWAP1 DUP2 PUSH3 0x146 DUP3 CODECOPY RETURN JUMPDEST PUSH1 0x40 MLOAD PUSH4 0x1E4FBDF7 PUSH1 0xE0 SHL DUP2 MSTORE PUSH1 0x0 PUSH1 0x4 DUP3 ADD MSTORE PUSH1 0x24 SWAP1 REVERT JUMPDEST PUSH1 0x0 DUP1 REVERT JUMPDEST PUSH4 0x4E487B71 PUSH1 0xE0 SHL PUSH1 0x0 MSTORE PUSH1 0x41 PUSH1 0x4 MSTORE PUSH1 0x24 PUSH1 0x0 REVERT JUMPDEST MLOAD SWAP1 PUSH1 0x1 PUSH1 0x1 PUSH1 0xA0 SHL SUB DUP3 AND DUP3 SUB PUSH3 0x115 JUMPI JUMP INVALID PUSH1 0x80 PUSH1 0x40 DUP2 DUP2 MSTORE PUSH1 0x4 DUP1 CALLDATASIZE LT ISZERO PUSH2 0x15 JUMPI PUSH1 0x0 DUP1 REVERT JUMPDEST PUSH1 0x0 SWAP3 DUP4 CALLDATALOAD PUSH1 0xE0 SHR SWAP1 DUP2 PUSH4 0x4553111 EQ PUSH2 0x14C9 JUMPI POP DUP1 PUSH4 0xC5E72C0 EQ PUSH2 0x14AD JUMPI DUP1 PUSH4 0x1A02859F EQ PUSH2 0x1405 JUMPI DUP1 PUSH4 0x1F6D28BC EQ PUSH2 0x13A4 JUMPI DUP1 PUSH4 0x36F472CA EQ PUSH2 0x1385 JUMPI DUP1 PUSH4 0x4F1BFC9E EQ PUSH2 0x1366 JUMPI DUP1 PUSH4 0x5C12F040 EQ PUSH2 0x1044 JUMPI DUP1 PUSH4 0x61D027B3 EQ PUSH2 0x101B JUMPI DUP1 PUSH4 0x70A60311 EQ PUSH2 0xD6E JUMPI DUP1 PUSH4 0x715018A6 EQ PUSH2 0xD11 JUMPI DUP1 PUSH4 0x78B4330F EQ PUSH2 0xCF3 JUMPI DUP1 PUSH4 0x7D293916 EQ PUSH2 0xCD1 JUMPI DUP1 PUSH4 0x7F51BB1F EQ PUSH2 0xC2F JUMPI DUP1 PUSH4 0x7FEA355B EQ PUSH2 0xC10 JUMPI DUP1 PUSH4 0x8D017BB1 EQ PUSH2 0xBD2 JUMPI DUP1 PUSH4 0x8DA5CB5B EQ PUSH2 0xBA9 JUMPI DUP1 PUSH4 0x9A408321 EQ PUSH2 0x851 JUMPI DUP1 PUSH4 0x9DB48BBB EQ PUSH2 0x707 JUMPI DUP1 PUSH4 0xA810A54C EQ PUSH2 0x3CA JUMPI DUP1 PUSH4 0xB7323881 EQ PUSH2 0x3A6 JUMPI DUP1 PUSH4 0xC59D4847 EQ PUSH2 0x290 JUMPI DUP1 PUSH4 0xCAE07843 EQ PUSH2 0x263 JUMPI DUP1 PUSH4 0xE22D551A EQ PUSH2 0x23C JUMPI DUP1 PUSH4 0xF2FDE38B EQ PUSH2 0x1AA JUMPI PUSH4 0xFAE728CD EQ PUSH2 0x136 JUMPI PUSH1 0x0 DUP1 REVERT JUMPDEST CALLVALUE PUSH2 0x1A6 JUMPI PUSH1 0x20 CALLDATASIZE PUSH1 0x3 NOT ADD SLT PUSH2 0x1A6 JUMPI DUP1 CALLDATALOAD SWAP2 PUSH2 0x152 PUSH2 0x14F9 JUMP JUMPDEST PUSH2 0x7D0 DUP4 GT PUSH2 0x163 JUMPI POP POP PUSH1 0x6 SSTORE DUP1 RETURN JUMPDEST SWAP1 PUSH1 0x20 PUSH1 0x64 SWAP3 MLOAD SWAP2 PUSH3 0x461BCD PUSH1 0xE5 SHL DUP4 MSTORE DUP3 ADD MSTORE PUSH1 0x19 PUSH1 0x24 DUP3 ADD MSTORE PUSH32 0x536176696E6773476F616C3A2041505920746F6F206869676800000000000000 PUSH1 0x44 DUP3 ADD MSTORE REVERT JUMPDEST DUP3 DUP1 REVERT JUMPDEST POP SWAP1 CALLVALUE PUSH2 0x1A6 JUMPI PUSH1 0x20 CALLDATASIZE PUSH1 0x3 NOT ADD SLT PUSH2 0x1A6 JUMPI PUSH1 0x1 PUSH1 0x1 PUSH1 0xA0 SHL SUB DUP3 CALLDATALOAD DUP2 DUP2 AND SWAP4 SWAP2 SWAP3 SWAP1 DUP5 SWAP1 SUB PUSH2 0x238 JUMPI PUSH2 0x1DD PUSH2 0x14F9 JUMP JUMPDEST DUP4 ISZERO PUSH2 0x222 JUMPI POP POP PUSH1 0x1 SLOAD DUP3 PUSH1 0x1 PUSH1 0x1 PUSH1 0x60 SHL SUB PUSH1 0xA0 SHL DUP3 AND OR PUSH1 0x1 SSTORE AND PUSH32 0x8BE0079C531659141344CD1FD0A4F28419497F9722A3DAAFE3B4186F6B6457E0 DUP4 DUP1 LOG3 DUP1 RETURN JUMPDEST MLOAD PUSH4 0x1E4FBDF7 PUSH1 0xE0 SHL DUP2 MSTORE SWAP1 DUP2 ADD DUP5 SWAP1 MSTORE PUSH1 0x24 SWAP1 REVERT JUMPDEST DUP5 DUP1 REVERT JUMPDEST POP CALLVALUE PUSH2 0x1A6 JUMPI DUP3 PUSH1 0x3 NOT CALLDATASIZE ADD SLT PUSH2 0x1A6 JUMPI SLOAD SWAP1 MLOAD PUSH1 0x1 PUSH1 0x1 PUSH1 0xA0 SHL SUB SWAP1 SWAP2 AND DUP2 MSTORE PUSH1 0x20 SWAP2 POP RETURN JUMPDEST POP POP CALLVALUE PUSH2 0x28C JUMPI DUP2 PUSH1 0x3 NOT CALLDATASIZE ADD SLT PUSH2 0x28C JUMPI PUSH1 0x5 SLOAD SWAP1 MLOAD PUSH1 0x1 PUSH1 0x1 PUSH1 0xA0 SHL SUB SWAP1 SWAP2 AND DUP2 MSTORE PUSH1 0x20 SWAP1 RETURN JUMPDEST POP DUP1 REVERT JUMPDEST POP SWAP1 CALLVALUE PUSH2 0x1A6 JUMPI DUP3 PUSH1 0x3 NOT CALLDATASIZE ADD SLT PUSH2 0x1A6 JUMPI PUSH1 0x8 SLOAD SWAP2 PUSH1 0x9 SLOAD SWAP2 PUSH1 0x1 DUP1 PUSH1 0xA0 SHL SUB SWAP3 DUP4 DUP4 SLOAD AND SWAP4 DUP3 MLOAD SWAP4 DUP5 SWAP2 PUSH4 0x70A08231 PUSH1 0xE0 SHL SWAP7 DUP8 DUP5 MSTORE ADDRESS DUP4 DUP6 ADD MSTORE DUP4 PUSH1 0x24 PUSH1 0x20 SWAP6 DUP7 SWAP4 GAS STATICCALL SWAP6 DUP7 ISZERO PUSH2 0x39C JUMPI DUP10 SWAP7 PUSH2 0x366 JUMPI JUMPDEST POP SWAP1 PUSH1 0x24 DUP4 SWAP3 PUSH1 0x5 SLOAD AND SWAP8 DUP7 MLOAD SWAP9 DUP10 SWAP4 DUP5 SWAP3 DUP4 MSTORE ADDRESS SWAP1 DUP4 ADD MSTORE GAS STATICCALL SWAP5 DUP6 ISZERO PUSH2 0x35C JUMPI DUP8 SWAP6 PUSH2 0x325 JUMPI JUMPDEST POP PUSH1 0x80 SWAP7 POP DUP3 MLOAD SWAP6 DUP7 MSTORE DUP6 ADD MSTORE DUP4 ADD MSTORE PUSH1 0x60 DUP3 ADD MSTORE RETURN JUMPDEST SWAP1 DUP1 SWAP6 POP DUP2 DUP2 RETURNDATASIZE DUP4 GT PUSH2 0x355 JUMPI JUMPDEST PUSH2 0x33D DUP2 DUP4 PUSH2 0x1613 JUMP JUMPDEST DUP2 ADD SUB SLT PUSH2 0x351 JUMPI PUSH1 0x80 SWAP7 POP MLOAD SWAP4 CODESIZE PUSH2 0x30E JUMP JUMPDEST DUP7 DUP1 REVERT JUMPDEST POP RETURNDATASIZE PUSH2 0x333 JUMP JUMPDEST DUP4 MLOAD RETURNDATASIZE DUP10 DUP3 RETURNDATACOPY RETURNDATASIZE SWAP1 REVERT JUMPDEST SWAP2 SWAP1 SWAP6 POP DUP3 DUP3 DUP2 RETURNDATASIZE DUP4 GT PUSH2 0x395 JUMPI JUMPDEST PUSH2 0x37F DUP2 DUP4 PUSH2 0x1613 JUMP JUMPDEST DUP2 ADD SUB SLT PUSH2 0x391 JUMPI SWAP1 MLOAD SWAP5 PUSH1 0x24 PUSH2 0x2E5 JUMP JUMPDEST DUP9 DUP1 REVERT JUMPDEST POP RETURNDATASIZE PUSH2 0x375 JUMP JUMPDEST DUP6 MLOAD RETURNDATASIZE DUP12 DUP3 RETURNDATACOPY RETURNDATASIZE SWAP1 REVERT JUMPDEST POP POP CALLVALUE PUSH2 0x28C JUMPI DUP2 PUSH1 0x3 NOT CALLDATASIZE ADD SLT PUSH2 0x28C JUMPI PUSH1 0x20 SWAP1 MLOAD PUSH9 0x3635C9ADC5DEA00000 DUP2 MSTORE RETURN JUMPDEST POP SWAP2 SWAP1 CALLVALUE PUSH2 0x28C JUMPI PUSH1 0x20 DUP1 PUSH1 0x3 NOT CALLDATASIZE ADD SLT PUSH2 0x1A6 JUMPI PUSH2 0x3E7 PUSH2 0x14E5 JUMP JUMPDEST SWAP2 CALLER DUP5 MSTORE PUSH1 0x3 DUP3 MSTORE PUSH2 0x3FE PUSH1 0xFF DUP3 DUP7 KECCAK256 SLOAD AND PUSH2 0x1548 JUMP JUMPDEST CALLER DUP5 MSTORE PUSH1 0x2 DUP3 MSTORE PUSH1 0x5 DUP2 DUP6 KECCAK256 ADD SLOAD TIMESTAMP LT PUSH2 0x6B9 JUMPI PUSH2 0x41A PUSH2 0x164D JUMP JUMPDEST CALLER DUP5 MSTORE PUSH1 0x2 DUP3 MSTORE DUP1 DUP5 KECCAK256 SWAP5 PUSH1 0x6 DUP7 ADD SWAP1 PUSH1 0xFF DUP3 SLOAD AND ISZERO PUSH2 0x676 JUMPI PUSH1 0x2 DUP8 ADD SWAP7 PUSH2 0x44A PUSH1 0x7 DUP10 SLOAD SWAP3 ADD SLOAD DUP1 SWAP3 PUSH2 0x1525 JUMP JUMPDEST SWAP1 PUSH1 0xC8 DUP2 MUL SWAP1 DUP1 DUP3 DIV PUSH1 0xC8 EQ SWAP1 ISZERO OR ISZERO PUSH2 0x663 JUMPI PUSH2 0x2710 PUSH2 0x46D SWAP2 DIV DUP1 SWAP3 PUSH2 0x1670 JUMP JUMPDEST SWAP6 ISZERO PUSH2 0x653 JUMPI PUSH1 0x5 SLOAD PUSH1 0x1 PUSH1 0x1 PUSH1 0xA0 SHL SUB AND JUMPDEST DUP5 MLOAD PUSH4 0xA9059CBB PUSH1 0xE0 SHL DUP1 DUP3 MSTORE CALLER DUP6 DUP4 ADD SWAP1 DUP2 MSTORE PUSH1 0x20 DUP2 ADD DUP11 SWAP1 MSTORE PUSH1 0x1 PUSH1 0x1 PUSH1 0xA0 SHL SUB SWAP4 DUP5 AND SWAP4 SWAP2 SWAP3 SWAP1 DUP10 SWAP1 DUP3 SWAP1 DUP2 SWAP1 SUB PUSH1 0x40 ADD DUP2 DUP15 DUP9 GAS CALL SWAP1 DUP2 ISZERO PUSH2 0x649 JUMPI DUP12 SWAP2 PUSH2 0x62C JUMPI JUMPDEST POP ISZERO PUSH2 0x5E9 JUMPI DUP4 PUSH2 0x522 JUMPI JUMPDEST POP POP POP POP POP PUSH2 0x508 PUSH32 0xEAFF4B37086828766AD3268786972C0CD24259D4C87A80F9D3963A3C3D999B0D SWAP5 SWAP6 SWAP7 SLOAD PUSH1 0x9 SLOAD PUSH2 0x1670 JUMP JUMPDEST PUSH1 0x9 SSTORE DUP1 SLOAD PUSH2 0xFF00 NOT AND SWAP1 SSTORE MLOAD SWAP3 DUP4 MSTORE CALLER SWAP3 LOG2 PUSH1 0x1 DUP2 SSTORE DUP1 RETURN JUMPDEST PUSH1 0x7 SLOAD DUP8 MLOAD SWAP3 DUP4 MSTORE AND PUSH1 0x1 PUSH1 0x1 PUSH1 0xA0 SHL SUB AND DUP5 DUP3 ADD SWAP1 DUP2 MSTORE PUSH1 0x20 DUP2 ADD SWAP4 SWAP1 SWAP4 MSTORE SWAP2 DUP7 SWAP2 DUP4 SWAP2 DUP3 SWAP1 DUP12 SWAP1 DUP3 SWAP1 PUSH1 0x40 ADD SUB SWAP3 GAS CALL SWAP1 DUP2 ISZERO PUSH2 0x5DF JUMPI DUP8 SWAP2 PUSH2 0x5B2 JUMPI JUMPDEST POP ISZERO PUSH2 0x571 JUMPI DUP1 DUP1 DUP1 DUP1 PUSH2 0x4D3 JUMP JUMPDEST PUSH1 0x64 SWAP1 DUP5 DUP1 DUP6 MLOAD SWAP3 PUSH3 0x461BCD PUSH1 0xE5 SHL DUP5 MSTORE DUP4 ADD MSTORE PUSH1 0x24 DUP3 ADD MSTORE PUSH32 0x536176696E6773476F616C3A20466565207472616E73666572206661696C6564 PUSH1 0x44 DUP3 ADD MSTORE REVERT JUMPDEST PUSH2 0x5D2 SWAP2 POP DUP6 RETURNDATASIZE DUP8 GT PUSH2 0x5D8 JUMPI JUMPDEST PUSH2 0x5CA DUP2 DUP4 PUSH2 0x1613 JUMP JUMPDEST DUP2 ADD SWAP1 PUSH2 0x1635 JUMP JUMPDEST CODESIZE PUSH2 0x562 JUMP JUMPDEST POP RETURNDATASIZE PUSH2 0x5C0 JUMP JUMPDEST DUP5 MLOAD RETURNDATASIZE DUP10 DUP3 RETURNDATACOPY RETURNDATASIZE SWAP1 REVERT JUMPDEST DUP7 MLOAD PUSH3 0x461BCD PUSH1 0xE5 SHL DUP2 MSTORE DUP1 DUP7 ADD DUP10 SWAP1 MSTORE PUSH1 0x1E PUSH1 0x24 DUP3 ADD MSTORE PUSH32 0x536176696E6773476F616C3A205769746864726177616C206661696C65640000 PUSH1 0x44 DUP3 ADD MSTORE PUSH1 0x64 SWAP1 REVERT JUMPDEST PUSH2 0x643 SWAP2 POP DUP10 RETURNDATASIZE DUP12 GT PUSH2 0x5D8 JUMPI PUSH2 0x5CA DUP2 DUP4 PUSH2 0x1613 JUMP JUMPDEST CODESIZE PUSH2 0x4C7 JUMP JUMPDEST DUP9 MLOAD RETURNDATASIZE DUP14 DUP3 RETURNDATACOPY RETURNDATASIZE SWAP1 REVERT JUMPDEST DUP2 SLOAD PUSH1 0x1 PUSH1 0x1 PUSH1 0xA0 SHL SUB AND PUSH2 0x480 JUMP JUMPDEST PUSH4 0x4E487B71 PUSH1 0xE0 SHL DUP9 MSTORE PUSH1 0x11 DUP4 MSTORE PUSH1 0x24 DUP9 REVERT JUMPDEST DUP3 MLOAD PUSH3 0x461BCD PUSH1 0xE5 SHL DUP2 MSTORE SWAP1 DUP2 ADD DUP5 SWAP1 MSTORE PUSH1 0x1F PUSH1 0x24 DUP3 ADD MSTORE PUSH32 0x536176696E6773476F616C3A20476F616C206E6F7420636F6D706C6574656400 PUSH1 0x44 DUP3 ADD MSTORE PUSH1 0x64 SWAP1 REVERT JUMPDEST MLOAD PUSH3 0x461BCD PUSH1 0xE5 SHL DUP2 MSTORE DUP1 DUP6 ADD SWAP2 SWAP1 SWAP2 MSTORE PUSH1 0x22 PUSH1 0x24 DUP3 ADD MSTORE PUSH32 0x536176696E6773476F616C3A204C6F636B20706572696F64206E6F7420656E64 PUSH1 0x44 DUP3 ADD MSTORE PUSH2 0x1959 PUSH1 0xF2 SHL PUSH1 0x64 DUP3 ADD MSTORE PUSH1 0x84 SWAP1 REVERT JUMPDEST POP DUP3 CALLVALUE PUSH2 0x84E JUMPI PUSH1 0x20 CALLDATASIZE PUSH1 0x3 NOT ADD SLT PUSH2 0x84E JUMPI PUSH1 0x1 PUSH1 0x1 PUSH1 0xA0 SHL SUB SWAP3 DUP3 CALLDATALOAD DUP5 DUP2 AND SWAP1 DUP2 SWAP1 SUB PUSH2 0x1A6 JUMPI PUSH2 0x140 SWAP5 DUP3 DUP1 MLOAD SWAP5 PUSH2 0x741 DUP7 PUSH2 0x15E0 JUMP JUMPDEST DUP1 DUP7 MSTORE DUP1 PUSH1 0x20 DUP8 ADD MSTORE DUP1 DUP3 DUP8 ADD MSTORE DUP1 PUSH1 0x60 DUP8 ADD MSTORE DUP1 PUSH1 0x80 DUP8 ADD MSTORE DUP1 PUSH1 0xA0 DUP8 ADD MSTORE DUP1 PUSH1 0xC0 DUP8 ADD MSTORE DUP1 PUSH1 0xE0 DUP8 ADD MSTORE PUSH2 0x100 SWAP4 DUP2 DUP6 DUP9 ADD MSTORE DUP2 PUSH2 0x120 DUP1 SWAP9 ADD MSTORE DUP2 MSTORE PUSH1 0x2 PUSH1 0x20 MSTORE KECCAK256 SWAP3 DUP1 MLOAD SWAP4 DUP5 SWAP3 PUSH2 0x795 DUP5 PUSH2 0x15E0 JUMP JUMPDEST DUP2 SLOAD AND SWAP7 DUP8 DUP5 MSTORE PUSH1 0x1 DUP3 ADD SLOAD SWAP3 PUSH1 0x20 DUP6 ADD SWAP4 DUP5 MSTORE PUSH1 0x2 DUP4 ADD SLOAD SWAP2 DUP2 DUP7 ADD SWAP3 DUP4 MSTORE PUSH1 0x3 DUP5 ADD SLOAD SWAP1 PUSH1 0x60 DUP8 ADD SWAP2 DUP3 MSTORE DUP5 ADD SLOAD SWAP2 PUSH1 0x80 DUP8 ADD SWAP3 DUP4 MSTORE PUSH1 0x5 DUP6 ADD SLOAD SWAP4 PUSH1 0xA0 DUP9 ADD SWAP5 DUP6 MSTORE PUSH1 0x6 DUP7 ADD SLOAD SWAP7 DUP12 PUSH1 0x8 PUSH1 0xC0 DUP12 ADD SWAP9 PUSH1 0xFF DUP12 AND ISZERO ISZERO DUP11 MSTORE PUSH1 0xFF PUSH1 0xE0 DUP14 ADD SWAP12 DUP4 SHR AND ISZERO ISZERO DUP12 MSTORE DUP13 PUSH1 0x7 DUP3 ADD SLOAD SWAP13 ADD SWAP12 DUP13 MSTORE ADD SLOAD SWAP12 ADD SWAP11 DUP12 MSTORE DUP3 MLOAD SWAP13 DUP14 MSTORE MLOAD PUSH1 0x20 DUP14 ADD MSTORE MLOAD SWAP1 DUP12 ADD MSTORE MLOAD PUSH1 0x60 DUP11 ADD MSTORE MLOAD PUSH1 0x80 DUP10 ADD MSTORE MLOAD PUSH1 0xA0 DUP9 ADD MSTORE MLOAD ISZERO ISZERO PUSH1 0xC0 DUP8 ADD MSTORE MLOAD ISZERO ISZERO PUSH1 0xE0 DUP7 ADD MSTORE MLOAD SWAP1 DUP5 ADD MSTORE MLOAD SWAP1 DUP3 ADD MSTORE RETURN JUMPDEST DUP1 REVERT JUMPDEST POP CALLVALUE PUSH2 0x1A6 JUMPI DUP2 PUSH1 0x3 NOT CALLDATASIZE ADD SLT PUSH2 0x1A6 JUMPI DUP1 CALLDATALOAD SWAP2 PUSH1 0x24 SWAP2 DUP3 CALLDATALOAD SWAP4 DUP5 ISZERO ISZERO DUP6 SUB PUSH2 0xBA5 JUMPI CALLER DUP7 MSTORE PUSH1 0x20 SWAP4 PUSH1 0x3 DUP6 MSTORE PUSH2 0x88D PUSH1 0xFF DUP6 DUP10 KECCAK256 SLOAD AND PUSH2 0x1548 JUMP JUMPDEST CALLER DUP8 MSTORE PUSH1 0x2 SWAP6 DUP7 DUP7 MSTORE PUSH1 0xFF PUSH1 0x6 DUP7 DUP11 KECCAK256 ADD SLOAD AND PUSH2 0xB57 JUMPI CALLER DUP9 MSTORE DUP7 DUP7 MSTORE PUSH2 0x8BF PUSH1 0xFF PUSH1 0x6 DUP8 DUP12 KECCAK256 ADD SLOAD PUSH1 0x8 SHR AND PUSH2 0x1594 JUMP JUMPDEST PUSH2 0x8C7 PUSH2 0x164D JUMP JUMPDEST DUP3 ISZERO PUSH2 0xB02 JUMPI CALLER DUP9 MSTORE DUP7 DUP7 MSTORE DUP5 DUP9 KECCAK256 SWAP2 DUP8 DUP4 ADD SWAP2 PUSH1 0x1 PUSH2 0x8E8 DUP7 DUP6 SLOAD PUSH2 0x1525 JUMP JUMPDEST SWAP5 ADD SWAP4 DUP5 SLOAD LT PUSH2 0xAB5 JUMPI ISZERO PUSH2 0xAA1 JUMPI PUSH1 0x5 SLOAD DUP10 SWAP1 DUP9 SWAP1 PUSH1 0x1 PUSH1 0x1 PUSH1 0xA0 SHL SUB AND JUMPDEST DUP9 MLOAD PUSH4 0x23B872DD PUSH1 0xE0 SHL DUP2 MSTORE CALLER DUP10 DUP3 ADD MSTORE ADDRESS DUP6 DUP3 ADD MSTORE PUSH1 0x44 DUP2 ADD DUP9 SWAP1 MSTORE SWAP3 DUP4 SWAP2 PUSH1 0x64 SWAP2 DUP4 SWAP2 PUSH1 0x1 PUSH1 0x1 PUSH1 0xA0 SHL SUB AND GAS CALL SWAP1 DUP2 ISZERO PUSH2 0xA97 JUMPI DUP11 SWAP2 PUSH2 0xA7A JUMPI JUMPDEST POP ISZERO PUSH2 0xA39 JUMPI POP PUSH2 0x958 DUP4 DUP3 SLOAD PUSH2 0x1525 JUMP JUMPDEST DUP2 SSTORE PUSH2 0x966 DUP4 PUSH1 0x9 SLOAD PUSH2 0x1525 JUMP JUMPDEST PUSH1 0x9 SSTORE SLOAD SWAP2 DUP5 MLOAD SWAP1 DUP2 MSTORE DUP3 DUP7 DUP3 ADD MSTORE PUSH32 0xB05F0D1CD0819F155B8A61F60BAF7767C1EE49D04AEAAB701DF236140EB93F9 DUP6 CALLER SWAP3 LOG2 SLOAD GT ISZERO PUSH2 0x9AA JUMPI JUMPDEST DUP5 PUSH1 0x1 DUP2 SSTORE DUP1 RETURN JUMPDEST PUSH32 0x5FDB120E2225930F6B50914ED30F8F8B37A0A6C7B6DF7B1F0F7F235791BFC341 SWAP3 PUSH1 0x7 SWAP2 CALLER DUP8 MSTORE DUP6 DUP3 MSTORE PUSH8 0xDE0B6B3A7640000 PUSH2 0xA1F PUSH5 0x496CEBB800 PUSH2 0xA13 PUSH2 0xA09 DUP9 DUP13 KECCAK256 SWAP6 PUSH1 0x6 DUP8 ADD PUSH1 0x1 PUSH1 0xFF NOT DUP3 SLOAD AND OR SWAP1 SSTORE DUP7 ADD SLOAD TIMESTAMP PUSH2 0x1670 JUMP JUMPDEST PUSH1 0x8 DUP7 ADD SLOAD PUSH2 0x167D JUMP JUMPDEST DIV SWAP8 DUP4 ADD SLOAD SWAP8 DUP9 PUSH2 0x167D JUMP JUMPDEST DIV SWAP3 DUP4 SWAP2 ADD SSTORE DUP3 MLOAD SWAP5 DUP6 MSTORE DUP5 ADD MSTORE CALLER SWAP3 LOG2 CODESIZE DUP1 DUP1 DUP1 PUSH2 0x9A2 JUMP JUMPDEST DUP5 PUSH1 0x1C PUSH1 0x64 SWAP3 DUP10 DUP10 MLOAD SWAP4 PUSH3 0x461BCD PUSH1 0xE5 SHL DUP6 MSTORE DUP5 ADD MSTORE DUP3 ADD MSTORE PUSH32 0x536176696E6773476F616C3A205472616E73666572206661696C656400000000 PUSH1 0x44 DUP3 ADD MSTORE REVERT JUMPDEST PUSH2 0xA91 SWAP2 POP DUP9 RETURNDATASIZE DUP11 GT PUSH2 0x5D8 JUMPI PUSH2 0x5CA DUP2 DUP4 PUSH2 0x1613 JUMP JUMPDEST CODESIZE PUSH2 0x946 JUMP JUMPDEST DUP8 MLOAD RETURNDATASIZE DUP13 DUP3 RETURNDATACOPY RETURNDATASIZE SWAP1 REVERT JUMPDEST DUP5 SLOAD DUP10 SWAP1 DUP9 SWAP1 PUSH1 0x1 PUSH1 0x1 PUSH1 0xA0 SHL SUB AND PUSH2 0x908 JUMP JUMPDEST DUP7 MLOAD PUSH3 0x461BCD PUSH1 0xE5 SHL DUP2 MSTORE DUP1 DUP8 ADD DUP10 SWAP1 MSTORE PUSH1 0x22 DUP2 DUP5 ADD MSTORE PUSH32 0x536176696E6773476F616C3A20457863656564732074617267657420616D6F75 PUSH1 0x44 DUP3 ADD MSTORE PUSH2 0x1B9D PUSH1 0xF2 SHL PUSH1 0x64 DUP3 ADD MSTORE PUSH1 0x84 SWAP1 REVERT JUMPDEST DUP5 MLOAD PUSH3 0x461BCD PUSH1 0xE5 SHL DUP2 MSTORE DUP1 DUP6 ADD DUP8 SWAP1 MSTORE PUSH1 0x2A DUP2 DUP5 ADD MSTORE PUSH32 0x536176696E6773476F616C3A20416D6F756E74206D7573742062652067726561 PUSH1 0x44 DUP3 ADD MSTORE PUSH10 0x746572207468616E203 PUSH1 0xB4 SHL PUSH1 0x64 DUP3 ADD MSTORE PUSH1 0x84 SWAP1 REVERT JUMPDEST DUP5 MLOAD PUSH3 0x461BCD PUSH1 0xE5 SHL DUP2 MSTORE DUP1 DUP6 ADD DUP8 SWAP1 MSTORE PUSH1 0x23 DUP2 DUP5 ADD MSTORE PUSH32 0x536176696E6773476F616C3A20476F616C20616C726561647920636F6D706C65 PUSH1 0x44 DUP3 ADD MSTORE PUSH3 0x1D1959 PUSH1 0xEA SHL PUSH1 0x64 DUP3 ADD MSTORE PUSH1 0x84 SWAP1 REVERT JUMPDEST DUP6 DUP1 REVERT JUMPDEST POP POP CALLVALUE PUSH2 0x28C JUMPI DUP2 PUSH1 0x3 NOT CALLDATASIZE ADD SLT PUSH2 0x28C JUMPI PUSH1 0x1 SLOAD SWAP1 MLOAD PUSH1 0x1 PUSH1 0x1 PUSH1 0xA0 SHL SUB SWAP1 SWAP2 AND DUP2 MSTORE PUSH1 0x20 SWAP1 RETURN JUMPDEST POP CALLVALUE PUSH2 0x1A6 JUMPI PUSH1 0x20 CALLDATASIZE PUSH1 0x3 NOT ADD SLT PUSH2 0x1A6 JUMPI CALLDATALOAD PUSH1 0x1 PUSH1 0x1 PUSH1 0xA0 SHL SUB DUP2 AND SWAP1 DUP2 SWAP1 SUB PUSH2 0x1A6 JUMPI DUP2 DUP4 PUSH1 0xFF SWAP3 PUSH1 0x20 SWAP6 MSTORE PUSH1 0x3 DUP6 MSTORE KECCAK256 SLOAD AND SWAP1 MLOAD SWAP1 ISZERO ISZERO DUP2 MSTORE RETURN JUMPDEST POP POP CALLVALUE PUSH2 0x28C JUMPI DUP2 PUSH1 0x3 NOT CALLDATASIZE ADD SLT PUSH2 0x28C JUMPI PUSH1 0x20 SWAP1 PUSH1 0x9 SLOAD SWAP1 MLOAD SWAP1 DUP2 MSTORE RETURN JUMPDEST POP CALLVALUE PUSH2 0x1A6 JUMPI PUSH1 0x20 CALLDATASIZE PUSH1 0x3 NOT ADD SLT PUSH2 0x1A6 JUMPI DUP1 CALLDATALOAD PUSH1 0x1 PUSH1 0x1 PUSH1 0xA0 SHL SUB DUP2 AND SWAP3 SWAP1 DUP4 SWAP1 SUB PUSH2 0xCCD JUMPI PUSH2 0xC5E PUSH2 0x14F9 JUMP JUMPDEST DUP3 ISZERO PUSH2 0xC7C JUMPI POP POP PUSH1 0x1 PUSH1 0x1 PUSH1 0x60 SHL SUB PUSH1 0xA0 SHL PUSH1 0x7 SLOAD AND OR PUSH1 0x7 SSTORE DUP1 RETURN JUMPDEST SWAP1 PUSH1 0x20 PUSH1 0x84 SWAP3 MLOAD SWAP2 PUSH3 0x461BCD PUSH1 0xE5 SHL DUP4 MSTORE DUP3 ADD MSTORE PUSH1 0x25 PUSH1 0x24 DUP3 ADD MSTORE PUSH32 0x536176696E6773476F616C3A20496E76616C6964207472656173757279206164 PUSH1 0x44 DUP3 ADD MSTORE PUSH5 0x6472657373 PUSH1 0xD8 SHL PUSH1 0x64 DUP3 ADD MSTORE REVERT JUMPDEST DUP4 DUP1 REVERT JUMPDEST POP POP CALLVALUE PUSH2 0x28C JUMPI DUP2 PUSH1 0x3 NOT CALLDATASIZE ADD SLT PUSH2 0x28C JUMPI PUSH1 0x20 SWAP1 MLOAD PUSH7 0x2386F26FC10000 DUP2 MSTORE RETURN JUMPDEST POP POP CALLVALUE PUSH2 0x28C JUMPI DUP2 PUSH1 0x3 NOT CALLDATASIZE ADD SLT PUSH2 0x28C JUMPI PUSH1 0x20 SWAP1 MLOAD PUSH3 0x93A80 DUP2 MSTORE RETURN JUMPDEST DUP4 CALLVALUE PUSH2 0x84E JUMPI DUP1 PUSH1 0x3 NOT CALLDATASIZE ADD SLT PUSH2 0x84E JUMPI PUSH2 0xD2A PUSH2 0x14F9 JUMP JUMPDEST PUSH1 0x1 DUP1 SLOAD PUSH1 0x1 PUSH1 0x1 PUSH1 0xA0 SHL SUB NOT DUP2 AND SWAP1 SWAP2 SSTORE DUP2 SWAP1 PUSH1 0x1 PUSH1 0x1 PUSH1 0xA0 SHL SUB AND PUSH32 0x8BE0079C531659141344CD1FD0A4F28419497F9722A3DAAFE3B4186F6B6457E0 DUP3 DUP1 LOG3 DUP1 RETURN JUMPDEST POP SWAP2 SWAP1 CALLVALUE PUSH2 0x28C JUMPI PUSH1 0x60 CALLDATASIZE PUSH1 0x3 NOT ADD SLT PUSH2 0x28C JUMPI DUP3 CALLDATALOAD SWAP1 PUSH1 0x24 DUP1 CALLDATALOAD SWAP1 PUSH1 0x44 SWAP1 DUP2 CALLDATALOAD DUP1 ISZERO ISZERO SUB PUSH2 0xBA5 JUMPI CALLER DUP7 MSTORE PUSH1 0x20 SWAP2 PUSH1 0x3 DUP4 MSTORE PUSH1 0xFF DUP6 DUP9 KECCAK256 SLOAD AND PUSH2 0xFDC JUMPI PUSH7 0x2386F26FC10000 DUP7 LT PUSH2 0xF91 JUMPI PUSH9 0x3635C9ADC5DEA00000 DUP7 GT PUSH2 0xF45 JUMPI PUSH3 0x93A80 DUP5 LT PUSH2 0xEF9 JUMPI PUSH4 0x1E13380 DUP5 GT PUSH2 0xEAD JUMPI POP CALLER DUP7 MSTORE PUSH1 0x2 DUP3 MSTORE DUP4 DUP7 KECCAK256 CALLER PUSH1 0x1 PUSH1 0x1 PUSH1 0x60 SHL SUB PUSH1 0xA0 SHL DUP3 SLOAD AND OR DUP2 SSTORE DUP6 PUSH1 0x1 DUP3 ADD SSTORE DUP7 PUSH1 0x2 DUP3 ADD SSTORE DUP4 PUSH1 0x3 DUP3 ADD SSTORE TIMESTAMP DUP9 DUP3 ADD SSTORE PUSH2 0xE1D DUP5 TIMESTAMP PUSH2 0x1525 JUMP JUMPDEST PUSH1 0x5 DUP3 ADD SSTORE PUSH1 0x6 DUP1 DUP3 ADD DUP1 SLOAD PUSH2 0xFFFF NOT AND PUSH2 0x100 OR SWAP1 SSTORE PUSH1 0x7 DUP3 ADD DUP9 SWAP1 SSTORE SLOAD PUSH1 0x8 SWAP2 DUP3 ADD SSTORE CALLER DUP8 MSTORE PUSH1 0x3 DUP4 MSTORE DUP5 DUP8 KECCAK256 DUP1 SLOAD PUSH1 0xFF NOT AND PUSH1 0x1 OR SWAP1 SSTORE SLOAD SWAP7 PUSH1 0x0 NOT DUP9 EQ PUSH2 0xE9C JUMPI POP POP PUSH1 0x1 PUSH32 0x585021382A707927FF376EE2D95481C8AE02449A616BBFF2C6D68FFF56CFB15B SWAP5 SWAP6 SWAP7 ADD PUSH1 0x8 SSTORE DUP3 MLOAD SWAP5 DUP6 MSTORE DUP5 ADD MSTORE CALLER SWAP3 LOG2 DUP1 RETURN JUMPDEST PUSH4 0x4E487B71 PUSH1 0xE0 SHL DUP8 MSTORE PUSH1 0x11 SWAP1 MSTORE DUP6 REVERT JUMPDEST PUSH32 0x536176696E6773476F616C3A204C6F636B206475726174696F6E20746F6F206C SWAP1 PUSH1 0x23 DUP10 SWAP4 PUSH1 0x84 SWAP6 DUP9 MLOAD SWAP6 PUSH3 0x461BCD PUSH1 0xE5 SHL DUP8 MSTORE DUP7 ADD MSTORE DUP5 ADD MSTORE DUP3 ADD MSTORE PUSH3 0x6F6E67 PUSH1 0xE8 SHL PUSH1 0x64 DUP3 ADD MSTORE REVERT JUMPDEST PUSH32 0x536176696E6773476F616C3A204C6F636B206475726174696F6E20746F6F2073 SWAP1 DUP9 SWAP3 PUSH1 0x84 SWAP5 DUP8 MLOAD SWAP5 PUSH3 0x461BCD PUSH1 0xE5 SHL DUP7 MSTORE DUP6 ADD MSTORE DUP1 DUP5 ADD MSTORE DUP3 ADD MSTORE PUSH4 0x1A1BDC9D PUSH1 0xE2 SHL PUSH1 0x64 DUP3 ADD MSTORE REVERT JUMPDEST PUSH32 0x536176696E6773476F616C3A2054617267657420616D6F756E7420746F6F2068 SWAP1 PUSH1 0x23 DUP10 SWAP4 PUSH1 0x84 SWAP6 DUP9 MLOAD SWAP6 PUSH3 0x461BCD PUSH1 0xE5 SHL DUP8 MSTORE DUP7 ADD MSTORE DUP5 ADD MSTORE DUP3 ADD MSTORE PUSH3 0xD2CED PUSH1 0xEB SHL PUSH1 0x64 DUP3 ADD MSTORE REVERT JUMPDEST PUSH32 0x536176696E6773476F616C3A2054617267657420616D6F756E7420746F6F206C SWAP1 PUSH1 0x22 DUP10 SWAP4 PUSH1 0x84 SWAP6 DUP9 MLOAD SWAP6 PUSH3 0x461BCD PUSH1 0xE5 SHL DUP8 MSTORE DUP7 ADD MSTORE DUP5 ADD MSTORE DUP3 ADD MSTORE PUSH2 0x6F77 PUSH1 0xF0 SHL PUSH1 0x64 DUP3 ADD MSTORE REVERT JUMPDEST PUSH32 0x536176696E6773476F616C3A20476F616C20616C726561647920657869737473 SWAP1 DUP4 DUP10 SWAP4 PUSH1 0x64 SWAP6 DUP9 MLOAD SWAP6 PUSH3 0x461BCD PUSH1 0xE5 SHL DUP8 MSTORE DUP7 ADD MSTORE DUP5 ADD MSTORE DUP3 ADD MSTORE REVERT JUMPDEST POP POP CALLVALUE PUSH2 0x28C JUMPI DUP2 PUSH1 0x3 NOT CALLDATASIZE ADD SLT PUSH2 0x28C JUMPI PUSH1 0x7 SLOAD SWAP1 MLOAD PUSH1 0x1 PUSH1 0x1 PUSH1 0xA0 SHL SUB SWAP1 SWAP2 AND DUP2 MSTORE PUSH1 0x20 SWAP1 RETURN JUMPDEST POP SWAP1 CALLVALUE PUSH2 0x1A6 JUMPI PUSH1 0x20 SWAP1 DUP2 PUSH1 0x3 NOT CALLDATASIZE ADD SLT PUSH2 0xCCD JUMPI PUSH2 0x1061 PUSH2 0x14E5 JUMP JUMPDEST SWAP3 CALLER DUP6 MSTORE PUSH1 0x3 DUP4 MSTORE PUSH2 0x1078 PUSH1 0xFF DUP4 DUP8 KECCAK256 SLOAD AND PUSH2 0x1548 JUMP JUMPDEST CALLER DUP6 MSTORE PUSH1 0x2 DUP4 MSTORE PUSH2 0x1094 PUSH1 0xFF PUSH1 0x6 DUP5 DUP9 KECCAK256 ADD SLOAD PUSH1 0x8 SHR AND PUSH2 0x1594 JUMP JUMPDEST PUSH2 0x109C PUSH2 0x164D JUMP JUMPDEST CALLER DUP6 MSTORE PUSH1 0x2 DUP4 MSTORE DUP2 DUP6 KECCAK256 SWAP1 PUSH1 0x5 DUP3 ADD SLOAD TIMESTAMP LT ISZERO PUSH2 0x130C JUMPI PUSH1 0x2 DUP3 ADD SWAP1 DUP2 SLOAD PUSH2 0x1F4 DUP1 DUP3 MUL SWAP1 DUP3 DUP3 DIV EQ DUP3 ISZERO OR ISZERO PUSH2 0x12F9 JUMPI PUSH2 0x2710 PUSH2 0x10DC SWAP2 DIV DUP1 SWAP3 PUSH2 0x1670 JUMP JUMPDEST SWAP7 ISZERO PUSH2 0x12E9 JUMPI PUSH1 0x5 SLOAD PUSH1 0x1 PUSH1 0x1 PUSH1 0xA0 SHL SUB AND JUMPDEST DUP6 MLOAD PUSH4 0xA9059CBB PUSH1 0xE0 SHL DUP1 DUP3 MSTORE CALLER DUP6 DUP4 ADD SWAP1 DUP2 MSTORE PUSH1 0x20 DUP2 ADD DUP12 SWAP1 MSTORE PUSH1 0x1 PUSH1 0x1 PUSH1 0xA0 SHL SUB SWAP4 DUP5 AND SWAP4 SWAP2 SWAP3 SWAP1 DUP11 SWAP1 DUP3 SWAP1 DUP2 SWAP1 SUB PUSH1 0x40 ADD DUP2 DUP16 DUP9 GAS CALL SWAP1 DUP2 ISZERO PUSH2 0x12DF JUMPI DUP13 SWAP2 PUSH2 0x12C2 JUMPI JUMPDEST POP ISZERO PUSH2 0x126E JUMPI DUP11 SWAP1 DUP5 PUSH2 0x11A7 JUMPI JUMPDEST POP DUP10 PUSH32 0x5FAFA99D0643513820BE26656B45130B01E1C03062E1266BF36F88CBD3BD9695 DUP11 DUP11 PUSH1 0x6 DUP12 PUSH2 0x1179 DUP13 SLOAD PUSH1 0x9 SLOAD PUSH2 0x1670 JUMP JUMPDEST PUSH1 0x9 SSTORE ADD DUP1 SLOAD PUSH2 0xFF00 NOT AND SWAP1 SSTORE CALLER DUP1 DUP7 MSTORE PUSH1 0x3 DUP4 MSTORE DUP2 DUP7 KECCAK256 DUP1 SLOAD PUSH1 0xFF NOT AND SWAP1 SSTORE SWAP1 MLOAD SWAP4 DUP5 MSTORE SWAP3 LOG2 PUSH1 0x1 DUP2 SSTORE DUP1 RETURN JUMPDEST PUSH1 0x7 SLOAD DUP10 MLOAD SWAP4 DUP5 MSTORE PUSH1 0x1 PUSH1 0x1 PUSH1 0xA0 SHL SUB SWAP2 AND AND DUP6 DUP4 ADD SWAP1 DUP2 MSTORE PUSH1 0x20 DUP2 ADD SWAP5 SWAP1 SWAP5 MSTORE SWAP1 SWAP3 DUP9 SWAP3 DUP5 SWAP3 SWAP2 DUP4 SWAP1 SUB PUSH1 0x40 ADD SWAP2 DUP4 SWAP2 GAS CALL SWAP1 DUP2 ISZERO PUSH2 0x1264 JUMPI DUP9 SWAP2 PUSH2 0x1247 JUMPI JUMPDEST POP ISZERO PUSH2 0x11F8 JUMPI DUP1 DUP1 DUP1 DUP10 DUP2 PUSH2 0x1144 JUMP JUMPDEST DUP4 MLOAD PUSH3 0x461BCD PUSH1 0xE5 SHL DUP2 MSTORE SWAP1 DUP2 ADD DUP6 SWAP1 MSTORE PUSH1 0x24 DUP1 DUP3 ADD MSTORE PUSH32 0x536176696E6773476F616C3A2050656E616C7479207472616E73666572206661 PUSH1 0x44 DUP3 ADD MSTORE PUSH4 0x1A5B1959 PUSH1 0xE2 SHL PUSH1 0x64 DUP3 ADD MSTORE PUSH1 0x84 SWAP1 REVERT JUMPDEST PUSH2 0x125E SWAP2 POP DUP7 RETURNDATASIZE DUP9 GT PUSH2 0x5D8 JUMPI PUSH2 0x5CA DUP2 DUP4 PUSH2 0x1613 JUMP JUMPDEST CODESIZE PUSH2 0x11E8 JUMP JUMPDEST DUP6 MLOAD RETURNDATASIZE DUP11 DUP3 RETURNDATACOPY RETURNDATASIZE SWAP1 REVERT JUMPDEST DUP8 MLOAD PUSH3 0x461BCD PUSH1 0xE5 SHL DUP2 MSTORE DUP1 DUP7 ADD DUP11 SWAP1 MSTORE PUSH1 0x28 PUSH1 0x24 DUP3 ADD MSTORE PUSH32 0x536176696E6773476F616C3A20456D657267656E637920776974686472617761 PUSH1 0x44 DUP3 ADD MSTORE PUSH8 0x1B0819985A5B1959 PUSH1 0xC2 SHL PUSH1 0x64 DUP3 ADD MSTORE PUSH1 0x84 SWAP1 REVERT JUMPDEST PUSH2 0x12D9 SWAP2 POP DUP11 RETURNDATASIZE DUP13 GT PUSH2 0x5D8 JUMPI PUSH2 0x5CA DUP2 DUP4 PUSH2 0x1613 JUMP JUMPDEST CODESIZE PUSH2 0x1136 JUMP JUMPDEST DUP10 MLOAD RETURNDATASIZE DUP15 DUP3 RETURNDATACOPY RETURNDATASIZE SWAP1 REVERT JUMPDEST DUP2 SLOAD PUSH1 0x1 PUSH1 0x1 PUSH1 0xA0 SHL SUB AND PUSH2 0x10EF JUMP JUMPDEST PUSH4 0x4E487B71 PUSH1 0xE0 SHL DUP10 MSTORE PUSH1 0x11 DUP4 MSTORE PUSH1 0x24 DUP10 REVERT JUMPDEST DUP3 MLOAD PUSH3 0x461BCD PUSH1 0xE5 SHL DUP2 MSTORE SWAP1 DUP2 ADD DUP5 SWAP1 MSTORE PUSH1 0x2E PUSH1 0x24 DUP3 ADD MSTORE PUSH32 0x536176696E6773476F616C3A204C6F636B20706572696F6420656E6465642C20 PUSH1 0x44 DUP3 ADD MSTORE PUSH14 0x7573652077697468647261772829 PUSH1 0x90 SHL PUSH1 0x64 DUP3 ADD MSTORE PUSH1 0x84 SWAP1 REVERT JUMPDEST POP POP CALLVALUE PUSH2 0x28C JUMPI DUP2 PUSH1 0x3 NOT CALLDATASIZE ADD SLT PUSH2 0x28C JUMPI PUSH1 0x20 SWAP1 MLOAD PUSH4 0x1E13380 DUP2 MSTORE RETURN JUMPDEST POP POP CALLVALUE PUSH2 0x28C JUMPI DUP2 PUSH1 0x3 NOT CALLDATASIZE ADD SLT PUSH2 0x28C JUMPI PUSH1 0x20 SWAP1 PUSH1 0x8 SLOAD SWAP1 MLOAD SWAP1 DUP2 MSTORE RETURN JUMPDEST POP DUP3 SWAP1 CALLVALUE PUSH2 0x28C JUMPI PUSH1 0x20 CALLDATASIZE PUSH1 0x3 NOT ADD SLT PUSH2 0x28C JUMPI CALLDATALOAD PUSH1 0x1 PUSH1 0x1 PUSH1 0xA0 SHL SUB DUP2 AND SWAP3 SWAP1 DUP4 SWAP1 SUB PUSH2 0x28C JUMPI PUSH1 0x20 SWAP3 DUP3 MSTORE PUSH1 0x3 DUP4 MSTORE PUSH1 0xFF DUP2 DUP4 KECCAK256 SLOAD AND SWAP2 DUP3 PUSH2 0x13EC JUMPI JUMPDEST POP MLOAD SWAP1 ISZERO ISZERO DUP2 MSTORE RETURN JUMPDEST PUSH1 0x2 DUP5 MSTORE DUP2 SWAP1 KECCAK256 PUSH1 0x6 ADD SLOAD PUSH1 0x8 SHR PUSH1 0xFF AND SWAP2 POP DUP4 PUSH2 0x13E3 JUMP JUMPDEST POP CALLVALUE PUSH2 0x1A6 JUMPI PUSH1 0x20 CALLDATASIZE PUSH1 0x3 NOT ADD SLT PUSH2 0x1A6 JUMPI PUSH1 0x1 PUSH1 0x1 PUSH1 0xA0 SHL SUB DUP2 CALLDATALOAD DUP2 DUP2 AND SWAP1 DUP2 SWAP1 SUB PUSH2 0x238 JUMPI DUP4 DUP6 PUSH1 0xFF SWAP3 PUSH2 0x140 SWAP8 MSTORE PUSH1 0x2 PUSH1 0x20 MSTORE KECCAK256 SWAP2 DUP3 SLOAD AND SWAP4 PUSH1 0x1 DUP4 ADD SLOAD SWAP4 PUSH1 0x2 DUP5 ADD SLOAD SWAP1 PUSH1 0x3 DUP6 ADD SLOAD SWAP1 DUP6 ADD SLOAD SWAP1 PUSH1 0x5 DUP7 ADD SLOAD SWAP3 PUSH1 0x6 DUP8 ADD SLOAD SWAP5 PUSH1 0x8 PUSH1 0x7 DUP10 ADD SLOAD SWAP9 ADD SLOAD SWAP9 DUP2 MLOAD SWAP11 DUP12 MSTORE PUSH1 0x20 DUP12 ADD MSTORE DUP10 ADD MSTORE PUSH1 0x60 DUP9 ADD MSTORE PUSH1 0x80 DUP8 ADD MSTORE PUSH1 0xA0 DUP7 ADD MSTORE DUP2 DUP2 AND ISZERO ISZERO PUSH1 0xC0 DUP7 ADD MSTORE PUSH1 0x8 SHR AND ISZERO ISZERO PUSH1 0xE0 DUP5 ADD MSTORE PUSH2 0x100 DUP4 ADD MSTORE PUSH2 0x120 DUP3 ADD MSTORE RETURN JUMPDEST POP POP CALLVALUE PUSH2 0x28C JUMPI DUP2 PUSH1 0x3 NOT CALLDATASIZE ADD SLT PUSH2 0x28C JUMPI PUSH1 0x20 SWAP1 MLOAD PUSH1 0xC8 DUP2 MSTORE RETURN JUMPDEST DUP5 SWAP1 CALLVALUE PUSH2 0x28C JUMPI DUP2 PUSH1 0x3 NOT CALLDATASIZE ADD SLT PUSH2 0x28C JUMPI PUSH1 0x20 SWAP1 PUSH1 0x6 SLOAD DUP2 MSTORE RETURN JUMPDEST PUSH1 0x4 CALLDATALOAD SWAP1 DUP2 ISZERO ISZERO DUP3 SUB PUSH2 0x14F4 JUMPI JUMP JUMPDEST PUSH1 0x0 DUP1 REVERT JUMPDEST PUSH1 0x1 SLOAD PUSH1 0x1 PUSH1 0x1 PUSH1 0xA0 SHL SUB AND CALLER SUB PUSH2 0x150D JUMPI JUMP JUMPDEST PUSH1 0x40 MLOAD PUSH4 0x118CDAA7 PUSH1 0xE0 SHL DUP2 MSTORE CALLER PUSH1 0x4 DUP3 ADD MSTORE PUSH1 0x24 SWAP1 REVERT JUMPDEST SWAP2 SWAP1 DUP3 ADD DUP1 SWAP3 GT PUSH2 0x1532 JUMPI JUMP JUMPDEST PUSH4 0x4E487B71 PUSH1 0xE0 SHL PUSH1 0x0 MSTORE PUSH1 0x11 PUSH1 0x4 MSTORE PUSH1 0x24 PUSH1 0x0 REVERT JUMPDEST ISZERO PUSH2 0x154F JUMPI JUMP JUMPDEST PUSH1 0x40 MLOAD PUSH3 0x461BCD PUSH1 0xE5 SHL DUP2 MSTORE PUSH1 0x20 PUSH1 0x4 DUP3 ADD MSTORE PUSH1 0x1B PUSH1 0x24 DUP3 ADD MSTORE PUSH32 0x536176696E6773476F616C3A204E6F2061637469766520676F616C0000000000 PUSH1 0x44 DUP3 ADD MSTORE PUSH1 0x64 SWAP1 REVERT JUMPDEST ISZERO PUSH2 0x159B JUMPI JUMP JUMPDEST PUSH1 0x40 MLOAD PUSH3 0x461BCD PUSH1 0xE5 SHL DUP2 MSTORE PUSH1 0x20 PUSH1 0x4 DUP3 ADD MSTORE PUSH1 0x1C PUSH1 0x24 DUP3 ADD MSTORE PUSH32 0x536176696E6773476F616C3A20476F616C206E6F742061637469766500000000 PUSH1 0x44 DUP3 ADD MSTORE PUSH1 0x64 SWAP1 REVERT JUMPDEST PUSH2 0x140 DUP2 ADD SWAP1 DUP2 LT PUSH8 0xFFFFFFFFFFFFFFFF DUP3 GT OR PUSH2 0x15FD JUMPI PUSH1 0x40 MSTORE JUMP JUMPDEST PUSH4 0x4E487B71 PUSH1 0xE0 SHL PUSH1 0x0 MSTORE PUSH1 0x41 PUSH1 0x4 MSTORE PUSH1 0x24 PUSH1 0x0 REVERT JUMPDEST SWAP1 PUSH1 0x1F DUP1 NOT SWAP2 ADD AND DUP2 ADD SWAP1 DUP2 LT PUSH8 0xFFFFFFFFFFFFFFFF DUP3 GT OR PUSH2 0x15FD JUMPI PUSH1 0x40 MSTORE JUMP JUMPDEST SWAP1 DUP2 PUSH1 0x20 SWAP2 SUB SLT PUSH2 0x14F4 JUMPI MLOAD DUP1 ISZERO ISZERO DUP2 SUB PUSH2 0x14F4 JUMPI SWAP1 JUMP JUMPDEST PUSH1 0x2 PUSH1 0x0 SLOAD EQ PUSH2 0x165E JUMPI PUSH1 0x2 PUSH1 0x0 SSTORE JUMP JUMPDEST PUSH1 0x40 MLOAD PUSH4 0x3EE5AEB5 PUSH1 0xE0 SHL DUP2 MSTORE PUSH1 0x4 SWAP1 REVERT JUMPDEST SWAP2 SWAP1 DUP3 SUB SWAP2 DUP3 GT PUSH2 0x1532 JUMPI JUMP JUMPDEST DUP2 DUP2 MUL SWAP3 SWAP2 DUP2 ISZERO SWAP2 DUP5 DIV EQ OR ISZERO PUSH2 0x1532 JUMPI JUMP INVALID LOG2 PUSH5 0x6970667358 0x22 SLT KECCAK256 MOD DUP13 ORIGIN PREVRANDAO 0xAB 0xBF SWAP1 0xE6 SGT DUP8 0xA9 PUSH25 0xF1055E67CE81461AB9909152CB9FE3AD36220CF664736F6C63 NUMBER STOP ADDMOD EQ STOP CALLER "},"methodIdentifiers":{"DEFAULT_APY()":"04553111","MAX_LOCK_DURATION()":"4f1bfc9e","MAX_TARGET_AMOUNT()":"b7323881","MIN_LOCK_DURATION()":"78b4330f","MIN_TARGET_AMOUNT()":"7d293916","YIELD_FEE_PERCENTAGE()":"0c5e72c0","celoToken()":"e22d551a","createGoal(uint256,uint256,bool)":"70a60311","cusdToken()":"cae07843","deposit(uint256,bool)":"9a408321","emergencyWithdraw(bool)":"5c12f040","getGoal(address)":"9db48bbb","getStats()":"c59d4847","goals(address)":"1a02859f","hasActiveGoal(address)":"1f6d28bc","hasGoal(address)":"8d017bb1","owner()":"8da5cb5b","renounceOwnership()":"715018a6","totalGoalsCreated()":"36f472ca","totalVolumeLocked()":"7fea355b","transferOwnership(address)":"f2fde38b","treasury()":"61d027b3","updateAPY(uint256)":"fae728cd","updateTreasury(address)":"7f51bb1f","withdraw(bool)":"a810a54c"}}}}}