{"contracts/SavingsBadgeNFT.sol":{"SavingsBadgeNFT":{"abi":[{"inputs":[],"stateMutability":"nonpayable","type":"constructor"},{"inputs":[{"internalType":"address","name":"sender","type":"address"},{"internalType":"uint256","name":"tokenId","type":"uint256"},{"internalType":"address","name":"owner","type":"address"}],"name":"ERC721IncorrectOwner","type":"error"},{"inputs":[{"internalType":"address","name":"operator","type":"address"},{"internalType":"uint256","name":"tokenId","type":"uint256"}],"name":"ERC721InsufficientApproval","type":"error"},{"inputs":[{"internalType":"address","name":"approver","type":"address"}],"name":"ERC721InvalidApprover","type":"error"},{"inputs":[{"internalType":"address","name":"operator","type":"address"}],"name":"ERC721InvalidOperator","type":"error"},{"inputs":[{"internalType":"address","name":"owner","type":"address"}],"name":"ERC721InvalidOwner","type":"error"},{"inputs":[{"internalType":"address","name":"receiver","type":"address"}],"name":"ERC721InvalidReceiver","type":"error"},{"inputs":[{"internalType":"address","name":"sender","type":"address"}],"name":"ERC721InvalidSender","type":"error"},{"inputs":[{"internalType":"uint256","name":"tokenId","type":"uint256"}],"name":"ERC721NonexistentToken","type":"error"},{"inputs":[{"internalType":"address","name":"owner","type":"address"}],"name":"OwnableInvalidOwner","type":"error"},{"inputs":[{"internalType":"address","name":"account","type":"address"}],"name":"OwnableUnauthorizedAccount","type":"error"},{"inputs":[],"name":"ReentrancyGuardReentrantCall","type":"error"},{"anonymous":false,"inputs":[{"indexed":true,"internalType":"address","name":"owner","type":"address"},{"indexed":true,"internalType":"address","name":"approved","type":"address"},{"indexed":true,"internalType":"uint256","name":"tokenId","type":"uint256"}],"name":"Approval","type":"event"},{"anonymous":false,"inputs":[{"indexed":true,"internalType":"address","name":"owner","type":"address"},{"indexed":true,"internalType":"address","name":"operator","type":"address"},{"indexed":false,"internalType":"bool","name":"approved","type":"bool"}],"name":"ApprovalForAll","type":"event"},{"anonymous":false,"inputs":[{"indexed":true,"internalType":"address","name":"to","type":"address"},{"indexed":true,"internalType":"uint256","name":"tokenId","type":"uint256"},{"indexed":false,"internalType":"enum SavingsBadgeNFT.BadgeType","name":"badgeType","type":"uint8"},{"indexed":false,"internalType":"uint256","name":"milestone","type":"uint256"}],"name":"BadgeMinted","type":"event"},{"anonymous":false,"inputs":[{"indexed":true,"internalType":"address","name":"to","type":"address"},{"indexed":true,"internalType":"uint256","name":"tokenId","type":"uint256"},{"indexed":false,"internalType":"enum SavingsBadgeNFT.BadgeType","name":"fromType","type":"uint8"},{"indexed":false,"internalType":"enum SavingsBadgeNFT.BadgeType","name":"toType","type":"uint8"}],"name":"BadgeUpgraded","type":"event"},{"anonymous":false,"inputs":[{"indexed":false,"internalType":"uint256","name":"_fromTokenId","type":"uint256"},{"indexed":false,"internalType":"uint256","name":"_toTokenId","type":"uint256"}],"name":"BatchMetadataUpdate","type":"event"},{"anonymous":false,"inputs":[{"indexed":false,"internalType":"uint256","name":"_tokenId","type":"uint256"}],"name":"MetadataUpdate","type":"event"},{"anonymous":false,"inputs":[{"indexed":true,"internalType":"address","name":"previousOwner","type":"address"},{"indexed":true,"internalType":"address","name":"newOwner","type":"address"}],"name":"OwnershipTransferred","type":"event"},{"anonymous":false,"inputs":[{"indexed":true,"internalType":"address","name":"from","type":"address"},{"indexed":true,"internalType":"address","name":"to","type":"address"},{"indexed":true,"internalType":"uint256","name":"tokenId","type":"uint256"}],"name":"Transfer","type":"event"},{"inputs":[],"name":"MAX_SUPPLY","outputs":[{"internalType":"uint256","name":"","type":"uint256"}],"stateMutability":"view","type":"function"},{"inputs":[{"internalType":"address","name":"minter","type":"address"}],"name":"addAuthorizedMinter","outputs":[],"stateMutability":"nonpayable","type":"function"},{"inputs":[{"internalType":"address","name":"to","type":"address"},{"internalType":"uint256","name":"tokenId","type":"uint256"}],"name":"approve","outputs":[],"stateMutability":"nonpayable","type":"function"},{"inputs":[{"internalType":"uint256","name":"","type":"uint256"}],"name":"badgeInfo","outputs":[{"internalType":"enum SavingsBadgeNFT.BadgeType","name":"badgeType","type":"uint8"},{"internalType":"uint256","name":"milestone","type":"uint256"},{"internalType":"uint256","name":"mintedAt","type":"uint256"},{"internalType":"string","name":"metadataURI","type":"string"}],"stateMutability":"view","type":"function"},{"inputs":[{"internalType":"enum SavingsBadgeNFT.BadgeType","name":"","type":"uint8"}],"name":"badgeURIs","outputs":[{"internalType":"string","name":"","type":"string"}],"stateMutability":"view","type":"function"},{"inputs":[{"internalType":"address","name":"owner","type":"address"}],"name":"balanceOf","outputs":[{"internalType":"uint256","name":"","type":"uint256"}],"stateMutability":"view","type":"function"},{"inputs":[{"internalType":"uint256","name":"tokenId","type":"uint256"}],"name":"getApproved","outputs":[{"internalType":"address","name":"","type":"address"}],"stateMutability":"view","type":"function"},{"inputs":[{"internalType":"enum SavingsBadgeNFT.BadgeType","name":"badgeType","type":"uint8"}],"name":"getBadgeDescription","outputs":[{"internalType":"string","name":"","type":"string"}],"stateMutability":"pure","type":"function"},{"inputs":[{"internalType":"uint256","name":"tokenId","type":"uint256"}],"name":"getBadgeInfo","outputs":[{"components":[{"internalType":"enum SavingsBadgeNFT.BadgeType","name":"badgeType","type":"uint8"},{"internalType":"uint256","name":"milestone","type":"uint256"},{"internalType":"uint256","name":"mintedAt","type":"uint256"},{"internalType":"string","name":"metadataURI","type":"string"}],"internalType":"struct SavingsBadgeNFT.BadgeInfo","name":"","type":"tuple"}],"stateMutability":"view","type":"function"},{"inputs":[{"internalType":"enum SavingsBadgeNFT.BadgeType","name":"badgeType","type":"uint8"}],"name":"getBadgeName","outputs":[{"internalType":"string","name":"","type":"string"}],"stateMutability":"pure","type":"function"},{"inputs":[{"internalType":"address","name":"user","type":"address"}],"name":"getUserBadges","outputs":[{"internalType":"enum SavingsBadgeNFT.BadgeType[]","name":"","type":"uint8[]"}],"stateMutability":"view","type":"function"},{"inputs":[{"internalType":"address","name":"user","type":"address"}],"name":"getUserTokenIds","outputs":[{"internalType":"uint256[]","name":"","type":"uint256[]"}],"stateMutability":"view","type":"function"},{"inputs":[{"internalType":"address","name":"user","type":"address"},{"internalType":"enum SavingsBadgeNFT.BadgeType","name":"badgeType","type":"uint8"}],"name":"hasBadge","outputs":[{"internalType":"bool","name":"","type":"bool"}],"stateMutability":"view","type":"function"},{"inputs":[{"internalType":"address","name":"owner","type":"address"},{"internalType":"address","name":"operator","type":"address"}],"name":"isApprovedForAll","outputs":[{"internalType":"bool","name":"","type":"bool"}],"stateMutability":"view","type":"function"},{"inputs":[{"internalType":"address","name":"minter","type":"address"}],"name":"isAuthorizedMinter","outputs":[{"internalType":"bool","name":"","type":"bool"}],"stateMutability":"view","type":"function"},{"inputs":[{"internalType":"enum SavingsBadgeNFT.BadgeType","name":"","type":"uint8"}],"name":"milestoneThresholds","outputs":[{"internalType":"uint256","name":"","type":"uint256"}],"stateMutability":"view","type":"function"},{"inputs":[{"internalType":"address","name":"to","type":"address"},{"internalType":"enum SavingsBadgeNFT.BadgeType","name":"badgeType","type":"uint8"},{"internalType":"uint256","name":"milestone","type":"uint256"},{"internalType":"string","name":"metadataURI","type":"string"}],"name":"mintBadge","outputs":[],"stateMutability":"nonpayable","type":"function"},{"inputs":[],"name":"name","outputs":[{"internalType":"string","name":"","type":"string"}],"stateMutability":"view","type":"function"},{"inputs":[],"name":"owner","outputs":[{"internalType":"address","name":"","type":"address"}],"stateMutability":"view","type":"function"},{"inputs":[{"internalType":"uint256","name":"tokenId","type":"uint256"}],"name":"ownerOf","outputs":[{"internalType":"address","name":"","type":"address"}],"stateMutability":"view","type":"function"},{"inputs":[],"name":"renounceOwnership","outputs":[],"stateMutability":"nonpayable","type":"function"},{"inputs":[{"internalType":"address","name":"from","type":"address"},{"internalType":"address","name":"to","type":"address"},{"internalType":"uint256","name":"tokenId","type":"uint256"}],"name":"safeTransferFrom","outputs":[],"stateMutability":"nonpayable","type":"function"},{"inputs":[{"internalType":"address","name":"from","type":"address"},{"internalType":"address","name":"to","type":"address"},{"internalType":"uint256","name":"tokenId","type":"uint256"},{"internalType":"bytes","name":"data","type":"bytes"}],"name":"safeTransferFrom","outputs":[],"stateMutability":"nonpayable","type":"function"},{"inputs":[{"internalType":"address","name":"operator","type":"address"},{"internalType":"bool","name":"approved","type":"bool"}],"name":"setApprovalForAll","outputs":[],"stateMutability":"nonpayable","type":"function"},{"inputs":[{"internalType":"bytes4","name":"interfaceId","type":"bytes4"}],"name":"supportsInterface","outputs":[{"internalType":"bool","name":"","type":"bool"}],"stateMutability":"view","type":"function"},{"inputs":[],"name":"symbol","outputs":[{"internalType":"string","name":"","type":"string"}],"stateMutability":"view","type":"function"},{"inputs":[{"internalType":"uint256","name":"tokenId","type":"uint256"}],"name":"tokenURI","outputs":[{"internalType":"string","name":"","type":"string"}],"stateMutability":"view","type":"function"},{"inputs":[{"internalType":"address","name":"from","type":"address"},{"internalType":"address","name":"to","type":"address"},{"internalType":"uint256","name":"tokenId","type":"uint256"}],"name":"transferFrom","outputs":[],"stateMutability":"nonpayable","type":"function"},{"inputs":[{"internalType":"address","name":"newOwner","type":"address"}],"name":"transferOwnership","outputs":[],"stateMutability":"nonpayable","type":"function"},{"inputs":[{"internalType":"address","name":"to","type":"address"},{"internalType":"enum SavingsBadgeNFT.BadgeType","name":"oldBadgeType","type":"uint8"},{"internalType":"enum SavingsBadgeNFT.BadgeType","name":"newBadgeType","type":"uint8"},{"internalType":"uint256","name":"milestone","type":"uint256"},{"internalType":"string","name":"metadataURI","type":"string"}],"name":"upgradeBadge","outputs":[],"stateMutability":"nonpayable","type":"function"},{"inputs":[{"internalType":"address","name":"","type":"address"},{"internalType":"enum SavingsBadgeNFT.BadgeType","name":"","type":"uint8"}],"name":"userBadges","outputs":[{"internalType":"bool","name":"","type":"bool"}],"stateMutability":"view","type":"function"},{"inputs":[{"internalType":"address","name":"","type":"address"},{"internalType":"uint256","name":"","type":"uint256"}],"name":"userTokenIds","outputs":[{"internalType":"uint256","name":"","type":"uint256"}],"stateMutability":"view","type":"function"}],"evm":{"bytecode":{"linkReferences":{},"object":"608034620006a2576040906001600160401b03818301818111838210176200068c5783526015825260207f4c6f6f70466920536176696e677320426164676573000000000000000000000081840152835191848301838110828211176200068c57855260088352674c5046424144474560c01b828401528351938185116200068c5760009480620000918754620006a7565b92601f938481116200065c575b508590848311600114620005f4578892620005e8575b50508160011b916000199060031b1c19161785555b8351918211620005d4578190600194620000e48654620006a7565b82811162000599575b50849183116001146200053557869262000529575b5050600019600383901b1c191690831b1782555b3315620005115760078054336001600160a01b031982168117909255683635c9adc5dea0000094869490939092600e926001600160a01b03167f8be0079c531659141344cd1fd0a4f28419497f9722a3daafe3b4186f6b6457e08680a38260085582600c55828452600d8082528585206200019d620001968254620006a7565b82620006fd565b6055815585526930b93a32b9173539b7b760b11b848387207f68747470733a2f2f6170692e6c6f6f7066692e6170702f6261646765732f73748155015560028552808252858520620001f4620001968254620006a7565b605b815585526c3739b4b9ba32b73a173539b7b760991b848387207f68747470733a2f2f6170692e6c6f6f7066692e6170702f6261646765732f636f81550155600385528082528585206200024e620001968254620006a7565b6059815585526b3234b1b0ba32b2173539b7b760a11b848387207f68747470733a2f2f6170692e6c6f6f7066692e6170702f6261646765732f64658155015560048552808252858520620002a7620001968254620006a7565b6053815585526839ba32b9173539b7b760b91b848387207f68747470733a2f2f6170692e6c6f6f7066692e6170702f6261646765732f6d618155015560058552808252858520620002fd620001968254620006a7565b6053815585526833b2b732173539b7b760b91b848387207f68747470733a2f2f6170692e6c6f6f7066692e6170702f6261646765732f6c65815501556006855280825285852062000353620001968254620006a7565b605f815585526e37bab816b632b0b232b9173539b7b760891b848387207f68747470733a2f2f6170692e6c6f6f7066692e6170702f6261646765732f67728155015560078552808252858520620003af620001968254620006a7565b605f815585526e31b4b0b616b9b0bb32b9173539b7b760891b848387207f68747470733a2f2f6170692e6c6f6f7066692e6170702f6261646765732f736f81550155600885528082528585206200040b620001968254620006a7565b605f815585526e32b63216b43ab73a32b9173539b7b760891b848387207f68747470733a2f2f6170692e6c6f6f7066692e6170702f6261646765732f79698155015560098552815284842062000466620001968254620006a7565b605d815584526d363634b7b730b4b932973539b7b760911b838286207f68747470733a2f2f6170692e6c6f6f7066692e6170702f6261646765732f6d698155015582845252828220556002815260058282205560038152600a8282205560048152601982822055600581526032828220556006815260058282205560078152600a828220556008815268056bc75e2d6310000082822055600981522055516127d090816200072e8239f35b8351631e4fbdf760e01b815260048101849052602490fd5b01519050388062000102565b8587528487208694509190601f198416885b8782821062000582575050841162000568575b505050811b01825562000116565b015160001960f88460031b161c191690553880806200055a565b838501518655899790950194938401930162000547565b620005c3908789528689208480870160051c820192898810620005ca575b0160051c0190620006e4565b38620000ed565b92508192620005b7565b634e487b7160e01b85526041600452602485fd5b015190503880620000b4565b8880528689209250601f198416895b88828210620006455750509084600195949392106200062b575b505050811b018555620000c9565b015160001960f88460031b161c191690553880806200061d565b600185968293968601518155019501930162000603565b6200068590898052878a208680860160051c8201928a8710620005ca570160051c0190620006e4565b386200009e565b634e487b7160e01b600052604160045260246000fd5b600080fd5b90600182811c92168015620006d9575b6020831014620006c357565b634e487b7160e01b600052602260045260246000fd5b91607f1691620006b7565b818110620006f0575050565b60008155600101620006e4565b90601f81116200070b575050565b6200072b916000526002601f6020600020920160051c82019101620006e4565b56fe6080604052600436101561001257600080fd5b60003560e01c806301874ed31461148057806301ffc9a7146113f857806306fdde0314611355578063081812fc14611317578063095ea7b31461123057806323b872dd1461121957806332cb6b0c146111fc57806337c245fe146110785780633af0c68814610e7157806342842e0e1461104a5780635f710f5c146110285780636352211e14610ff857806366e9082d14610fcf57806370a0823114610f76578063715018a614610f19578063831d147b14610ee4578063842392c214610eaf5780638b93bf1814610e715780638da5cb5b14610e4857806392ddf23c14610d9457806393aaf6a814610d6b57806395d89b4114610c8c578063a22cb46514610be7578063b88d4fde14610b7a578063c87b56dd14610b21578063cc17e15d14610ac9578063e2045b5e146109a0578063e2d52e1d14610930578063e351d43714610296578063e635ae7514610265578063e985e9c51461020f5763f2fde38b1461017c57600080fd5b3461020a57602036600319011261020a5761019561194b565b61019d611c49565b6001600160a01b039081169081156101f157600754826bffffffffffffffffffffffff60a01b821617600755167f8be0079c531659141344cd1fd0a4f28419497f9722a3daafe3b4186f6b6457e0600080a3005b604051631e4fbdf760e01b815260006004820152602490fd5b600080fd5b3461020a57604036600319011261020a5761022861194b565b610230611961565b9060018060a01b03809116600052600560205260406000209116600052602052602060ff604060002054166040519015158152f35b3461020a57602036600319011261020a57600435600a81101561020a5761028d602091611b0a565b54604051908152f35b3461020a57608036600319011261020a576102af61194b565b600a602435101561020a576064356001600160401b03811161020a576102d9903690600401611a3b565b906102f560018060a01b03600754163314801561092b57611f84565b6102fd6121d1565b602435156108da5760018060a01b038116600052600a60205260ff6103286024356040600020611b23565b541661088957600c5491612710831161083857610354610349602435611b0a565b546044351015611fd0565b61035d8361202b565b600c5560405161036c81611977565b61037860243582612050565b6044356020820152426040820152816060820152836000526009602052604060002090805190600a8210156108225760609160ff80198554169116178355602081015160018401556040810151600284015501518051906001600160401b03821161074b576103ea6003840154611b3b565b601f81116107db575b50602090601f831160011461076c576003929160009183610761575b50508160011b9160001990841b1c1916179101555b60018060a01b038216600052600a6020526104456024356040600020611b23565b805460ff191660011790556001600160a01b0382166000908152600b6020526040902080546801000000000000000081101561074b5761048a91600182018155611c1b565b9080549160031b600019928387831b921b1916179055604051906104ad82611992565b600082526001600160a01b03841615610732576000858152600260205260409020546001600160a01b031680151591869190836106fc575b506001600160a01b0386166000818152600360209081526040808320805460010190558583526002909152812080546001600160a01b031916831790559091907fddf252ad1be2c89b69c2b068fc378daa952ba7f163c4a11628f55a4df523b3ef9080a46106e357823b6105ab575b5061055f908361205c565b7ff6b70dedb47bc6e8680e80b2d7055aedd55e5598da29758ae2b17b4b13342239604080519261059184602435611ace565b60443560208501526001600160a01b031692a36001600855005b604051602081806105e5630a85bd0160e11b9586835233600484015260006024840152896044840152608060648401526084830190611a59565b038160006001600160a01b0389165af16000918161069e575b5061066657833d1561065e573d90610615826119e9565b9161062360405193846119c8565b82523d6000602084013e5b8151918261065757604051633250574960e11b81526001600160a01b0383166004820152602490fd5b6020915001fd5b60609061062e565b6001600160e01b0319160361067d5761055f610554565b604051633250574960e11b81526001600160a01b0383166004820152602490fd5b9091506020813d6020116106db575b816106ba602093836119c8565b8101031261020a57516001600160e01b03198116810361020a5790866105fe565b3d91506106ad565b6040516339e3563760e11b815260006004820152602490fd5b600083815260046020526040902080546001600160a01b03191690558160005260036020526040600020908154019055876104e5565b604051633250574960e11b815260006004820152602490fd5b634e487b7160e01b600052604160045260246000fd5b01519050878061040f565b906003840160005260206000209160005b601f19851681106107c35750918391600193600395601f198116106107ab575b505050811b01910155610424565b015160001983861b60f8161c1916905587808061079d565b9192602060018192868501518155019401920161077d565b600384016000526020600020601f840160051c81016020851061081b575b601f830160051c8201811061080f5750506103f3565b600081556001016107f9565b50806107f9565b634e487b7160e01b600052602160045260246000fd5b60405162461bcd60e51b815260206004820152602360248201527f536176696e677342616467654e46543a204d617820737570706c7920726561636044820152621a195960ea1b6064820152608490fd5b60405162461bcd60e51b8152602060048201526024808201527f536176696e677342616467654e46543a20426164676520616c7265616479206f6044820152631ddb995960e21b6064820152608490fd5b60405162461bcd60e51b815260206004820152602360248201527f536176696e677342616467654e46543a20496e76616c6964206261646765207460448201526279706560e81b6064820152608490fd5b611f84565b3461020a57602036600319011261020a576004356000526009602052610981604060002061099c60ff82541691600181015490610974600360028301549201611b75565b9160405195868096611ace565b60208501526040840152608060608401526080830190611a59565b0390f35b3461020a5760208060031936011261020a576004356060806040516109c481611977565b6000808252858201819052604082015201526001600160a01b036109e782611dfb565b1615610a76576000526009815260406000209061099c60405192610a0a84611977565b610a1860ff82541685612050565b600181015490838501918252610a3c60036002830154926040880193845201611b75565b9160608601928352610a5960405196868897885287019051611ace565b5160408501525160608401525160808084015260a0830190611a59565b60405162461bcd60e51b815260048101839052602560248201527f536176696e677342616467654e46543a20546f6b656e20646f6573206e6f7420604482015264195e1a5cdd60da1b6064820152608490fd5b3461020a57604036600319011261020a57610ae261194b565b6001600160a01b03166000908152600b602052604090208054602435919082101561020a57602091610b1391611c1b565b90546040519160031b1c8152f35b3461020a57602036600319011261020a57600435610b3e81611dfb565b50600052600660205261099c610b576040600020611b75565b6000604051610b6581611992565b52604051918291602083526020830190611a59565b3461020a57608036600319011261020a57610b9361194b565b610b9b611961565b90604435606435926001600160401b03841161020a573660238501121561020a57610bd3610be5943690602481600401359101611a04565b92610bdf838383611c75565b33611e36565b005b3461020a57604036600319011261020a57610c0061194b565b6024359081151580920361020a576001600160a01b0316908115610c7357336000526005602052604060002082600052602052604060002060ff1981541660ff83161790556040519081527f17307eab39ab6107e8899845ad3d59bd9653f200f220920489ca2b5937696c3160203392a3005b604051630b61174360e31b815260048101839052602490fd5b3461020a57600036600319011261020a5760405160006001805490610cb082611b3b565b80855291818116908115610d445750600114610ceb575b61099c84610cd7818603826119c8565b604051918291602083526020830190611a59565b600081815292507fb10e2d527612073b26eecdfd717e6a320cf44b4afac2b0732d9fcbe2b7fa0cf65b828410610d2c575050508101602001610cd782610cc7565b80546020858701810191909152909301928101610d14565b60ff191660208087019190915292151560051b85019092019250610cd79150839050610cc7565b3461020a57602036600319011261020a57600435600a81101561020a57610cd761099c91612415565b3461020a5760208060031936011261020a576001600160a01b03610db661194b565b16600052600b8152604060002060405190818382549182815201908192600052846000209060005b86828210610e34578686610df4828803836119c8565b604051928392818401908285525180915260408401929160005b828110610e1d57505050500390f35b835185528695509381019392810192600101610e0e565b835485529093019260019283019201610dde565b3461020a57600036600319011261020a576007546040516001600160a01b039091168152602090f35b3461020a57602060ff610ea3610e8636611adb565b6001600160a01b039091166000908152600a855260409020611b23565b54166040519015158152f35b3461020a57602036600319011261020a576020610eca61194b565b6007546040516001600160a01b0392831691909216148152f35b3461020a57602036600319011261020a57600435600a81101561020a57600052600d60205261099c610cd76040600020611b75565b3461020a57600036600319011261020a57610f32611c49565b600780546001600160a01b031981169091556000906001600160a01b03167f8be0079c531659141344cd1fd0a4f28419497f9722a3daafe3b4186f6b6457e08280a3005b3461020a57602036600319011261020a576001600160a01b03610f9761194b565b168015610fb65760005260036020526020604060002054604051908152f35b6040516322718ad960e21b815260006004820152602490fd5b3461020a57602036600319011261020a57600435600a81101561020a57610cd761099c9161221f565b3461020a57602036600319011261020a576020611016600435611dfb565b6040516001600160a01b039091168152f35b3461020a57602036600319011261020a5761104161194b565b50610be5611c49565b3461020a57610be561105b36611a99565b906040519261106984611992565b60008452610bdf838383611c75565b3461020a5760208060031936011261020a5761109261194b565b9060405161016081018181106001600160401b0382111761074b57604093919352600a9182845261014036828601376000926001926001600160a01b0316835b8281111561119e5750506110e5846121f4565b936110f360405195866119c8565b8085526110ff816121f4565b8584019690601f190136883760005b82811061115e575050505060405192818401908285525180915260408401949160005b82811061113e5785870386f35b90919293828088611151849a8951611ace565b0197950193929101611131565b61116e818399979998969861220b565b5190848210156108225761118e61119392611189838961220b565b612050565b61202b565b96949695939561110e565b82819795979694961015610822578160005282865260ff6111c3826040600020611b23565b54166111de575b6111d39061202b565b9593959492946110d2565b926111f48161118e866111896111d3958a61220b565b9390506111ca565b3461020a57600036600319011261020a5760206040516127108152f35b3461020a57610be561122a36611a99565b91611c75565b3461020a57604036600319011261020a5761124961194b565b60243561125581611dfb565b33151580611304575b806112d7575b6112bf576001600160a01b039283169282918491167f8c5be1e5ebec7d5bd14f71427d1e84f3dd0314c0f7b2291e5b200ac8c7c3b925600080a4600090815260046020526040902080546001600160a01b0319169091179055005b60405163a9fbf51f60e01b8152336004820152602490fd5b5060018060a01b038116600052600560205260406000203360005260205260ff6040600020541615611264565b506001600160a01b03811633141561125e565b3461020a57602036600319011261020a5760043561133481611dfb565b506000526004602052602060018060a01b0360406000205416604051908152f35b3461020a57600036600319011261020a576040516000805461137681611b3b565b80845290600190818116908115610d44575060011461139f5761099c84610cd7818603826119c8565b600080805292507f290decd9548b62a8d60345a988386fc84ba6bc95484008f6362f93160ef3e5635b8284106113e0575050508101602001610cd782610cc7565b805460208587018101919091529093019281016113c8565b3461020a57602036600319011261020a5760043563ffffffff60e01b811680910361020a57602090632483248360e11b811490811561143d575b506040519015158152f35b6380ac58cd60e01b81149150811561146f575b811561145e575b5082611432565b6301ffc9a760e01b14905082611457565b635b5e139f60e01b81149150611450565b3461020a5760a036600319011261020a5761149961194b565b600a602435101561020a576044600a8135101561020a576064918235906084356001600160401b03811161020a576114d5903690600401611a3b565b6007546001600160a01b0393906114f59085163314801561092b57611f84565b6114fd6121d1565b602435156118f8578435156118a557838316600052600a60205260ff6115296024356040600020611b23565b54161561185657838316600052600a60205260ff61154c86356040600020611b23565b54166118025761156861155f8635611b0a565b54821015611fd0565b611574602435846126b0565b9586156117c157506040519061158982611977565b611594863583612050565b6020820190815260408201428152606083019184835288600052600960205260406000209351600a8110156108225760ff80198654169116178455516001840155516002830155518051906001600160401b03821161074b576115fa6003840154611b3b565b601f8111611776575b50602090601f83116001146116dd57926003836116ab947f9646b9e2ccd35c2c07eb1846f9957def62d7ab5eb71ae4b72ba4221894e61e2b999794604099976000926116d2575b50508160011b9160001990841b1c1916179101555b838316600052600a60205261167960243586600020611b23565b60ff198154169055838316600052600a60205261169a873586600020611b23565b805460ff191660011790558761205c565b6116c88351956116bd87602435611ace565b602087019035611ace565b1692a36001600855005b015190508c8061164a565b906003840160005260206000209160005b601f198516811061175e57506001847f9646b9e2ccd35c2c07eb1846f9957def62d7ab5eb71ae4b72ba4221894e61e2b99979460409997946003946116ab98601f19811610611746575b505050811b0191015561165f565b015160001983861b60f8161c191690558c8080611738565b919260206001819286850151815501940192016116ee565b600384016000526020600020601f840160051c810191602085106117b7575b601f0160051c01905b8181106117ab5750611603565b6000815560010161179e565b9091508190611795565b60405162461bcd60e51b815260206004820181905260248201527f536176696e677342616467654e46543a20546f6b656e206e6f7420666f756e6481880152fd5b60405162461bcd60e51b815260206004820152602860248201527f536176696e677342616467654e46543a204e657720626164676520616c7265618187015267191e481bdddb995960c21b81880152608490fd5b60405162461bcd60e51b8152602060048201526024808201527f536176696e677342616467654e46543a204f6c64206261646765206e6f74206f81870152631ddb995960e21b81880152608490fd5b60405162461bcd60e51b815260206004820152602760248201527f536176696e677342616467654e46543a20496e76616c6964206e65772062616481870152666765207479706560c81b81880152608490fd5b60405162461bcd60e51b815260206004820152602760248201527f536176696e677342616467654e46543a20496e76616c6964206f6c642062616481870152666765207479706560c81b81880152608490fd5b600435906001600160a01b038216820361020a57565b602435906001600160a01b038216820361020a57565b608081019081106001600160401b0382111761074b57604052565b602081019081106001600160401b0382111761074b57604052565b604081019081106001600160401b0382111761074b57604052565b90601f801991011681019081106001600160401b0382111761074b57604052565b6001600160401b03811161074b57601f01601f191660200190565b929192611a10826119e9565b91611a1e60405193846119c8565b82948184528183011161020a578281602093846000960137010152565b9080601f8301121561020a57816020611a5693359101611a04565b90565b919082519283825260005b848110611a85575050826000602080949584010152601f8019910116010190565b602081830181015184830182015201611a64565b606090600319011261020a576001600160a01b0390600435828116810361020a5791602435908116810361020a579060443590565b90600a8210156108225752565b604090600319011261020a576004356001600160a01b038116810361020a5790602435600a81101561020a5790565b600a81101561082257600052600e602052604060002090565b90600a81101561082257600052602052604060002090565b90600182811c92168015611b6b575b6020831014611b5557565b634e487b7160e01b600052602260045260246000fd5b91607f1691611b4a565b9060405191826000825492611b8984611b3b565b908184526001948581169081600014611bf85750600114611bb5575b5050611bb3925003836119c8565b565b9093915060005260209081600020936000915b818310611be0575050611bb393508201013880611ba5565b85548884018501529485019487945091830191611bc8565b915050611bb394506020925060ff191682840152151560051b8201013880611ba5565b8054821015611c335760005260206000200190600090565b634e487b7160e01b600052603260045260246000fd5b6007546001600160a01b03163303611c5d57565b60405163118cdaa760e01b8152336004820152602490fd5b6001600160a01b03918216929091831561073257600092828452826020956002875260409684888820541696879133151580611d65575b509060027fddf252ad1be2c89b69c2b068fc378daa952ba7f163c4a11628f55a4df523b3ef9284611d32575b858352600381528b8320805460010190558683525289812080546001600160a01b0319168517905580a41692838303611d115750505050565b6064945051926364283d7b60e01b8452600484015260248301526044820152fd5b600087815260046020526040902080546001600160a01b0319169055848352600381528b83208054600019019055611cd8565b91939450915080611dba575b15611d8157859291879138611cac565b878688611d9e576024915190637e27328960e01b82526004820152fd5b604491519063177e802f60e01b82523360048301526024820152fd5b503387148015611ddf575b80611d715750858252600481523385898420541614611d71565b5086825260058152878220338352815260ff8883205416611dc5565b6000818152600260205260409020546001600160a01b0316908115611e1e575090565b60249060405190637e27328960e01b82526004820152fd5b90939192833b611e48575b5050505050565b604051630a85bd0160e11b8082526001600160a01b039384166004830152958316602482015260448101919091526080606482015294921692602092918590611e95906084830190611a59565b039483816000978189895af1869181611f40575b50611f0a575050503d600014611f01573d611ec3816119e9565b90611ed160405192836119c8565b81528093823d92013e5b82519283611efc57604051633250574960e11b815260048101849052602490fd5b019050fd5b60609250611edb565b919450915063ffffffff60e01b1603611f2857503880808080611e41565b60249060405190633250574960e11b82526004820152fd5b9091508481813d8311611f7d575b611f5881836119c8565b81010312611f7957516001600160e01b031981168103611f79579038611ea9565b8680fd5b503d611f4e565b15611f8b57565b60405162461bcd60e51b815260206004820152601f60248201527f536176696e677342616467654e46543a204e6f7420617574686f72697a6564006044820152606490fd5b15611fd757565b60405162461bcd60e51b815260206004820152602660248201527f536176696e677342616467654e46543a204d696c6573746f6e65206e6f742072604482015265195858da195960d21b6064820152608490fd5b600019811461203a5760010190565b634e487b7160e01b600052601160045260246000fd5b600a8210156108225752565b9190916000908082526020916006835260408120908551906001600160401b0382116121bd5761208c8354611b3b565b601f811161217a575b508490601f83116001146120f657907ff8e1a15aba9398e019f0b49df1a4fde98ee17ae345cb5f6b5e2c27f5033e8ce79697836120eb575b50508160011b916000199060031b1c19161790555b604051908152a1565b0151905038806120cd565b9196601f198816848452868420935b81811061216357509160019391897ff8e1a15aba9398e019f0b49df1a4fde98ee17ae345cb5f6b5e2c27f5033e8ce7999a941061214a575b505050811b0190556120e2565b015160001960f88460031b161c1916905538808061213d565b929387600181928786015181550195019301612105565b838252858220601f840160051c8101918785106121b3575b601f0160051c01905b8181106121a85750612095565b82815560010161219b565b9091508190612192565b634e487b7160e01b81526041600452602490fd5b6002600854146121e2576002600855565b604051633ee5aeb560e01b8152600490fd5b6001600160401b03811161074b5760051b60200190565b8051821015611c335760209160051b010190565b600a81101561082257600181146123eb57600281146123be576003811461239257600481146123695760058114612340576006811461231757600781146122ee57600881146122c5576009146122985760405161227b816119ad565b600d81526c556e6b6e6f776e20426164676560981b602082015290565b6040516122a4816119ad565b601181527026b4b63634b7b730b4b9329029b0bb32b960791b602082015290565b506040516122d2816119ad565b600c81526b2cb4b2b63210243ab73a32b960a11b602082015290565b506040516122fb816119ad565b600c81526b29b7b1b4b0b61029b0bb32b960a11b602082015290565b50604051612324816119ad565b600c81526b23b937bab8102632b0b232b960a11b602082015290565b5060405161234d816119ad565b600c81526b2632b3b2b7321029b0bb32b960a11b602082015290565b50604051612376816119ad565b600c81526b26b0b9ba32b91029b0bb32b960a11b602082015290565b5060405161239f816119ad565b600f81526e2232b234b1b0ba32b21029b0bb32b960891b602082015290565b506040516123cb816119ad565b601081526f21b7b739b4b9ba32b73a1029b0bb32b960811b602082015290565b506040516123f8816119ad565b600d81526c29ba30b93a32b91029b0bb32b960991b602082015290565b600a811015610822576001811461265b576002811461262157600381146125e757600481146125ad5760058114612573576006811461253957600781146124ff57600881146124c55760091461249457604051612471816119ad565b6013815272155b9adb9bdddb881858da1a595d995b595b9d606a1b602082015290565b6040516124a0816119ad565b601581527414d85d9959080c4c0c0c0810d15313c81d1bdd185b605a1b602082015290565b506040516124d2816119ad565b601881527f4561726e6564203130302043454c4f20696e207969656c640000000000000000602082015290565b5060405161250c816119ad565b601d81527f4a6f696e65642031302067726f757020736176696e677320706f6f6c73000000602082015290565b50604051612546816119ad565b601d81527f4372656174656420352067726f757020736176696e677320706f6f6c73000000602082015290565b50604051612580816119ad565b601a81527f436f6d706c6574656420353020736176696e677320676f616c73000000000000602082015290565b506040516125ba816119ad565b601a81527f436f6d706c6574656420323520736176696e677320676f616c73000000000000602082015290565b506040516125f4816119ad565b601a81527f436f6d706c6574656420313020736176696e677320676f616c73000000000000602082015290565b5060405161262e816119ad565b601981527f436f6d706c65746564203520736176696e677320676f616c7300000000000000602082015290565b50604051606081018181106001600160401b0382111761074b57604052602281527f436f6d706c6574656420796f757220666972737420736176696e677320676f616020820152616c2160f01b604082015290565b60009060018060a01b03168152602091600b8352604091828120928051808587829754938481520190855287852092855b89828210612784575050506126f8925003856119c8565b815b845181101561277b5761270d818661220b565b5183526009865260ff8284205416600a80861015612767578110156127535784146127405761273b9061202b565b6126fa565b939250505061274f925061220b565b5190565b634e487b7160e01b84526021600452602484fd5b634e487b7160e01b85526021600452602485fd5b50509250505090565b855484526001958601958a9550930192016126e156fea264697066735822122079dc9c64e3450b41477a3188f7ac04b6a3a115e22bcc1c9ead6780a6ea4c8d5164736f6c63430008140033","opcodes":"PUSH1 0x80 CALLVALUE PUSH3 0x6A2 JUMPI PUSH1 0x40 SWAP1 PUSH1 0x1 PUSH1 0x1 PUSH1 0x40 SHL SUB DUP2 DUP4 ADD DUP2 DUP2 GT DUP4 DUP3 LT OR PUSH3 0x68C JUMPI DUP4 MSTORE PUSH1 0x15 DUP3 MSTORE PUSH1 0x20 PUSH32 0x4C6F6F70466920536176696E6773204261646765730000000000000000000000 DUP2 DUP5 ADD MSTORE DUP4 MLOAD SWAP2 DUP5 DUP4 ADD DUP4 DUP2 LT DUP3 DUP3 GT OR PUSH3 0x68C JUMPI DUP6 MSTORE PUSH1 0x8 DUP4 MSTORE PUSH8 0x4C50464241444745 PUSH1 0xC0 SHL DUP3 DUP5 ADD MSTORE DUP4 MLOAD SWAP4 DUP2 DUP6 GT PUSH3 0x68C JUMPI PUSH1 0x0 SWAP5 DUP1 PUSH3 0x91 DUP8 SLOAD PUSH3 0x6A7 JUMP JUMPDEST SWAP3 PUSH1 0x1F SWAP4 DUP5 DUP2 GT PUSH3 0x65C JUMPI JUMPDEST POP DUP6 SWAP1 DUP5 DUP4 GT PUSH1 0x1 EQ PUSH3 0x5F4 JUMPI DUP9 SWAP3 PUSH3 0x5E8 JUMPI JUMPDEST POP POP DUP2 PUSH1 0x1 SHL SWAP2 PUSH1 0x0 NOT SWAP1 PUSH1 0x3 SHL SHR NOT AND OR DUP6 SSTORE JUMPDEST DUP4 MLOAD SWAP2 DUP3 GT PUSH3 0x5D4 JUMPI DUP2 SWAP1 PUSH1 0x1 SWAP5 PUSH3 0xE4 DUP7 SLOAD PUSH3 0x6A7 JUMP JUMPDEST DUP3 DUP2 GT PUSH3 0x599 JUMPI JUMPDEST POP DUP5 SWAP2 DUP4 GT PUSH1 0x1 EQ PUSH3 0x535 JUMPI DUP7 SWAP3 PUSH3 0x529 JUMPI JUMPDEST POP POP PUSH1 0x0 NOT PUSH1 0x3 DUP4 SWAP1 SHL SHR NOT AND SWAP1 DUP4 SHL OR DUP3 SSTORE JUMPDEST CALLER ISZERO PUSH3 0x511 JUMPI PUSH1 0x7 DUP1 SLOAD CALLER PUSH1 0x1 PUSH1 0x1 PUSH1 0xA0 SHL SUB NOT DUP3 AND DUP2 OR SWAP1 SWAP3 SSTORE PUSH9 0x3635C9ADC5DEA00000 SWAP5 DUP7 SWAP5 SWAP1 SWAP4 SWAP1 SWAP3 PUSH1 0xE SWAP3 PUSH1 0x1 PUSH1 0x1 PUSH1 0xA0 SHL SUB AND PUSH32 0x8BE0079C531659141344CD1FD0A4F28419497F9722A3DAAFE3B4186F6B6457E0 DUP7 DUP1 LOG3 DUP3 PUSH1 0x8 SSTORE DUP3 PUSH1 0xC SSTORE DUP3 DUP5 MSTORE PUSH1 0xD DUP1 DUP3 MSTORE DUP6 DUP6 KECCAK256 PUSH3 0x19D PUSH3 0x196 DUP3 SLOAD PUSH3 0x6A7 JUMP JUMPDEST DUP3 PUSH3 0x6FD JUMP JUMPDEST PUSH1 0x55 DUP2 SSTORE DUP6 MSTORE PUSH10 0x30B93A32B9173539B7B7 PUSH1 0xB1 SHL DUP5 DUP4 DUP8 KECCAK256 PUSH32 0x68747470733A2F2F6170692E6C6F6F7066692E6170702F6261646765732F7374 DUP2 SSTORE ADD SSTORE PUSH1 0x2 DUP6 MSTORE DUP1 DUP3 MSTORE DUP6 DUP6 KECCAK256 PUSH3 0x1F4 PUSH3 0x196 DUP3 SLOAD PUSH3 0x6A7 JUMP JUMPDEST PUSH1 0x5B DUP2 SSTORE DUP6 MSTORE PUSH13 0x3739B4B9BA32B73A173539B7B7 PUSH1 0x99 SHL DUP5 DUP4 DUP8 KECCAK256 PUSH32 0x68747470733A2F2F6170692E6C6F6F7066692E6170702F6261646765732F636F DUP2 SSTORE ADD SSTORE PUSH1 0x3 DUP6 MSTORE DUP1 DUP3 MSTORE DUP6 DUP6 KECCAK256 PUSH3 0x24E PUSH3 0x196 DUP3 SLOAD PUSH3 0x6A7 JUMP JUMPDEST PUSH1 0x59 DUP2 SSTORE DUP6 MSTORE PUSH12 0x3234B1B0BA32B2173539B7B7 PUSH1 0xA1 SHL DUP5 DUP4 DUP8 KECCAK256 PUSH32 0x68747470733A2F2F6170692E6C6F6F7066692E6170702F6261646765732F6465 DUP2 SSTORE ADD SSTORE PUSH1 0x4 DUP6 MSTORE DUP1 DUP3 MSTORE DUP6 DUP6 KECCAK256 PUSH3 0x2A7 PUSH3 0x196 DUP3 SLOAD PUSH3 0x6A7 JUMP JUMPDEST PUSH1 0x53 DUP2 SSTORE DUP6 MSTORE PUSH9 0x39BA32B9173539B7B7 PUSH1 0xB9 SHL DUP5 DUP4 DUP8 KECCAK256 PUSH32 0x68747470733A2F2F6170692E6C6F6F7066692E6170702F6261646765732F6D61 DUP2 SSTORE ADD SSTORE PUSH1 0x5 DUP6 MSTORE DUP1 DUP3 MSTORE DUP6 DUP6 KECCAK256 PUSH3 0x2FD PUSH3 0x196 DUP3 SLOAD PUSH3 0x6A7 JUMP JUMPDEST PUSH1 0x53 DUP2 SSTORE DUP6 MSTORE PUSH9 0x33B2B732173539B7B7 PUSH1 0xB9 SHL DUP5 DUP4 DUP8 KECCAK256 PUSH32 0x68747470733A2F2F6170692E6C6F6F7066692E6170702F6261646765732F6C65 DUP2 SSTORE ADD SSTORE PUSH1 0x6 DUP6 MSTORE DUP1 DUP3 MSTORE DUP6 DUP6 KECCAK256 PUSH3 0x353 PUSH3 0x196 DUP3 SLOAD PUSH3 0x6A7 JUMP JUMPDEST PUSH1 0x5F DUP2 SSTORE DUP6 MSTORE PUSH15 0x37BAB816B632B0B232B9173539B7B7 PUSH1 0x89 SHL DUP5 DUP4 DUP8 KECCAK256 PUSH32 0x68747470733A2F2F6170692E6C6F6F7066692E6170702F6261646765732F6772 DUP2 SSTORE ADD SSTORE PUSH1 0x7 DUP6 MSTORE DUP1 DUP3 MSTORE DUP6 DUP6 KECCAK256 PUSH3 0x3AF PUSH3 0x196 DUP3 SLOAD PUSH3 0x6A7 JUMP JUMPDEST PUSH1 0x5F DUP2 SSTORE DUP6 MSTORE PUSH15 0x31B4B0B616B9B0BB32B9173539B7B7 PUSH1 0x89 SHL DUP5 DUP4 DUP8 KECCAK256 PUSH32 0x68747470733A2F2F6170692E6C6F6F7066692E6170702F6261646765732F736F DUP2 SSTORE ADD SSTORE PUSH1 0x8 DUP6 MSTORE DUP1 DUP3 MSTORE DUP6 DUP6 KECCAK256 PUSH3 0x40B PUSH3 0x196 DUP3 SLOAD PUSH3 0x6A7 JUMP JUMPDEST PUSH1 0x5F DUP2 SSTORE DUP6 MSTORE PUSH15 0x32B63216B43AB73A32B9173539B7B7 PUSH1 0x89 SHL DUP5 DUP4 DUP8 KECCAK256 PUSH32 0x68747470733A2F2F6170692E6C6F6F7066692E6170702F6261646765732F7969 DUP2 SSTORE ADD SSTORE PUSH1 0x9 DUP6 MSTORE DUP2 MSTORE DUP5 DUP5 KECCAK256 PUSH3 0x466 PUSH3 0x196 DUP3 SLOAD PUSH3 0x6A7 JUMP JUMPDEST PUSH1 0x5D DUP2 SSTORE DUP5 MSTORE PUSH14 0x363634B7B730B4B932973539B7B7 PUSH1 0x91 SHL DUP4 DUP3 DUP7 KECCAK256 PUSH32 0x68747470733A2F2F6170692E6C6F6F7066692E6170702F6261646765732F6D69 DUP2 SSTORE ADD SSTORE DUP3 DUP5 MSTORE MSTORE DUP3 DUP3 KECCAK256 SSTORE PUSH1 0x2 DUP2 MSTORE PUSH1 0x5 DUP3 DUP3 KECCAK256 SSTORE PUSH1 0x3 DUP2 MSTORE PUSH1 0xA DUP3 DUP3 KECCAK256 SSTORE PUSH1 0x4 DUP2 MSTORE PUSH1 0x19 DUP3 DUP3 KECCAK256 SSTORE PUSH1 0x5 DUP2 MSTORE PUSH1 0x32 DUP3 DUP3 KECCAK256 SSTORE PUSH1 0x6 DUP2 MSTORE PUSH1 0x5 DUP3 DUP3 KECCAK256 SSTORE PUSH1 0x7 DUP2 MSTORE PUSH1 0xA DUP3 DUP3 KECCAK256 SSTORE PUSH1 0x8 DUP2 MSTORE PUSH9 0x56BC75E2D63100000 DUP3 DUP3 KECCAK256 SSTORE PUSH1 0x9 DUP2 MSTORE KECCAK256 SSTORE MLOAD PUSH2 0x27D0 SWAP1 DUP2 PUSH3 0x72E DUP3 CODECOPY RETURN JUMPDEST DUP4 MLOAD PUSH4 0x1E4FBDF7 PUSH1 0xE0 SHL DUP2 MSTORE PUSH1 0x4 DUP2 ADD DUP5 SWAP1 MSTORE PUSH1 0x24 SWAP1 REVERT JUMPDEST ADD MLOAD SWAP1 POP CODESIZE DUP1 PUSH3 0x102 JUMP JUMPDEST DUP6 DUP8 MSTORE DUP5 DUP8 KECCAK256 DUP7 SWAP5 POP SWAP2 SWAP1 PUSH1 0x1F NOT DUP5 AND DUP9 JUMPDEST DUP8 DUP3 DUP3 LT PUSH3 0x582 JUMPI POP POP DUP5 GT PUSH3 0x568 JUMPI JUMPDEST POP POP POP DUP2 SHL ADD DUP3 SSTORE PUSH3 0x116 JUMP JUMPDEST ADD MLOAD PUSH1 0x0 NOT PUSH1 0xF8 DUP5 PUSH1 0x3 SHL AND SHR NOT AND SWAP1 SSTORE CODESIZE DUP1 DUP1 PUSH3 0x55A JUMP JUMPDEST DUP4 DUP6 ADD MLOAD DUP7 SSTORE DUP10 SWAP8 SWAP1 SWAP6 ADD SWAP5 SWAP4 DUP5 ADD SWAP4 ADD PUSH3 0x547 JUMP JUMPDEST PUSH3 0x5C3 SWAP1 DUP8 DUP10 MSTORE DUP7 DUP10 KECCAK256 DUP5 DUP1 DUP8 ADD PUSH1 0x5 SHR DUP3 ADD SWAP3 DUP10 DUP9 LT PUSH3 0x5CA JUMPI JUMPDEST ADD PUSH1 0x5 SHR ADD SWAP1 PUSH3 0x6E4 JUMP JUMPDEST CODESIZE PUSH3 0xED JUMP JUMPDEST SWAP3 POP DUP2 SWAP3 PUSH3 0x5B7 JUMP JUMPDEST PUSH4 0x4E487B71 PUSH1 0xE0 SHL DUP6 MSTORE PUSH1 0x41 PUSH1 0x4 MSTORE PUSH1 0x24 DUP6 REVERT JUMPDEST ADD MLOAD SWAP1 POP CODESIZE DUP1 PUSH3 0xB4 JUMP JUMPDEST DUP9 DUP1 MSTORE DUP7 DUP10 KECCAK256 SWAP3 POP PUSH1 0x1F NOT DUP5 AND DUP10 JUMPDEST DUP9 DUP3 DUP3 LT PUSH3 0x645 JUMPI POP POP SWAP1 DUP5 PUSH1 0x1 SWAP6 SWAP5 SWAP4 SWAP3 LT PUSH3 0x62B JUMPI JUMPDEST POP POP POP DUP2 SHL ADD DUP6 SSTORE PUSH3 0xC9 JUMP JUMPDEST ADD MLOAD PUSH1 0x0 NOT PUSH1 0xF8 DUP5 PUSH1 0x3 SHL AND SHR NOT AND SWAP1 SSTORE CODESIZE DUP1 DUP1 PUSH3 0x61D JUMP JUMPDEST PUSH1 0x1 DUP6 SWAP7 DUP3 SWAP4 SWAP7 DUP7 ADD MLOAD DUP2 SSTORE ADD SWAP6 ADD SWAP4 ADD PUSH3 0x603 JUMP JUMPDEST PUSH3 0x685 SWAP1 DUP10 DUP1 MSTORE DUP8 DUP11 KECCAK256 DUP7 DUP1 DUP7 ADD PUSH1 0x5 SHR DUP3 ADD SWAP3 DUP11 DUP8 LT PUSH3 0x5CA JUMPI ADD PUSH1 0x5 SHR ADD SWAP1 PUSH3 0x6E4 JUMP JUMPDEST CODESIZE PUSH3 0x9E JUMP JUMPDEST PUSH4 0x4E487B71 PUSH1 0xE0 SHL PUSH1 0x0 MSTORE PUSH1 0x41 PUSH1 0x4 MSTORE PUSH1 0x24 PUSH1 0x0 REVERT JUMPDEST PUSH1 0x0 DUP1 REVERT JUMPDEST SWAP1 PUSH1 0x1 DUP3 DUP2 SHR SWAP3 AND DUP1 ISZERO PUSH3 0x6D9 JUMPI JUMPDEST PUSH1 0x20 DUP4 LT EQ PUSH3 0x6C3 JUMPI JUMP JUMPDEST PUSH4 0x4E487B71 PUSH1 0xE0 SHL PUSH1 0x0 MSTORE PUSH1 0x22 PUSH1 0x4 MSTORE PUSH1 0x24 PUSH1 0x0 REVERT JUMPDEST SWAP2 PUSH1 0x7F AND SWAP2 PUSH3 0x6B7 JUMP JUMPDEST DUP2 DUP2 LT PUSH3 0x6F0 JUMPI POP POP JUMP JUMPDEST PUSH1 0x0 DUP2 SSTORE PUSH1 0x1 ADD PUSH3 0x6E4 JUMP JUMPDEST SWAP1 PUSH1 0x1F DUP2 GT PUSH3 0x70B JUMPI POP POP JUMP JUMPDEST PUSH3 0x72B SWAP2 PUSH1 0x0 MSTORE PUSH1 0x2 PUSH1 0x1F PUSH1 0x20 PUSH1 0x0 KECCAK256 SWAP3 ADD PUSH1 0x5 SHR DUP3 ADD SWAP2 ADD PUSH3 0x6E4 JUMP JUMPDEST JUMP INVALID PUSH1 0x80 PUSH1 0x40 MSTORE PUSH1 0x4 CALLDATASIZE LT ISZERO PUSH2 0x12 JUMPI PUSH1 0x0 DUP1 REVERT JUMPDEST PUSH1 0x0 CALLDATALOAD PUSH1 0xE0 SHR DUP1 PUSH4 0x1874ED3 EQ PUSH2 0x1480 JUMPI DUP1 PUSH4 0x1FFC9A7 EQ PUSH2 0x13F8 JUMPI DUP1 PUSH4 0x6FDDE03 EQ PUSH2 0x1355 JUMPI DUP1 PUSH4 0x81812FC EQ PUSH2 0x1317 JUMPI DUP1 PUSH4 0x95EA7B3 EQ PUSH2 0x1230 JUMPI DUP1 PUSH4 0x23B872DD EQ PUSH2 0x1219 JUMPI DUP1 PUSH4 0x32CB6B0C EQ PUSH2 0x11FC JUMPI DUP1 PUSH4 0x37C245FE EQ PUSH2 0x1078 JUMPI DUP1 PUSH4 0x3AF0C688 EQ PUSH2 0xE71 JUMPI DUP1 PUSH4 0x42842E0E EQ PUSH2 0x104A JUMPI DUP1 PUSH4 0x5F710F5C EQ PUSH2 0x1028 JUMPI DUP1 PUSH4 0x6352211E EQ PUSH2 0xFF8 JUMPI DUP1 PUSH4 0x66E9082D EQ PUSH2 0xFCF JUMPI DUP1 PUSH4 0x70A08231 EQ PUSH2 0xF76 JUMPI DUP1 PUSH4 0x715018A6 EQ PUSH2 0xF19 JUMPI DUP1 PUSH4 0x831D147B EQ PUSH2 0xEE4 JUMPI DUP1 PUSH4 0x842392C2 EQ PUSH2 0xEAF JUMPI DUP1 PUSH4 0x8B93BF18 EQ PUSH2 0xE71 JUMPI DUP1 PUSH4 0x8DA5CB5B EQ PUSH2 0xE48 JUMPI DUP1 PUSH4 0x92DDF23C EQ PUSH2 0xD94 JUMPI DUP1 PUSH4 0x93AAF6A8 EQ PUSH2 0xD6B JUMPI DUP1 PUSH4 0x95D89B41 EQ PUSH2 0xC8C JUMPI DUP1 PUSH4 0xA22CB465 EQ PUSH2 0xBE7 JUMPI DUP1 PUSH4 0xB88D4FDE EQ PUSH2 0xB7A JUMPI DUP1 PUSH4 0xC87B56DD EQ PUSH2 0xB21 JUMPI DUP1 PUSH4 0xCC17E15D EQ PUSH2 0xAC9 JUMPI DUP1 PUSH4 0xE2045B5E EQ PUSH2 0x9A0 JUMPI DUP1 PUSH4 0xE2D52E1D EQ PUSH2 0x930 JUMPI DUP1 PUSH4 0xE351D437 EQ PUSH2 0x296 JUMPI DUP1 PUSH4 0xE635AE75 EQ PUSH2 0x265 JUMPI DUP1 PUSH4 0xE985E9C5 EQ PUSH2 0x20F JUMPI PUSH4 0xF2FDE38B EQ PUSH2 0x17C JUMPI PUSH1 0x0 DUP1 REVERT JUMPDEST CALLVALUE PUSH2 0x20A JUMPI PUSH1 0x20 CALLDATASIZE PUSH1 0x3 NOT ADD SLT PUSH2 0x20A JUMPI PUSH2 0x195 PUSH2 0x194B JUMP JUMPDEST PUSH2 0x19D PUSH2 0x1C49 JUMP JUMPDEST PUSH1 0x1 PUSH1 0x1 PUSH1 0xA0 SHL SUB SWAP1 DUP2 AND SWAP1 DUP2 ISZERO PUSH2 0x1F1 JUMPI PUSH1 0x7 SLOAD DUP3 PUSH12 0xFFFFFFFFFFFFFFFFFFFFFFFF PUSH1 0xA0 SHL DUP3 AND OR PUSH1 0x7 SSTORE AND PUSH32 0x8BE0079C531659141344CD1FD0A4F28419497F9722A3DAAFE3B4186F6B6457E0 PUSH1 0x0 DUP1 LOG3 STOP JUMPDEST PUSH1 0x40 MLOAD PUSH4 0x1E4FBDF7 PUSH1 0xE0 SHL DUP2 MSTORE PUSH1 0x0 PUSH1 0x4 DUP3 ADD MSTORE PUSH1 0x24 SWAP1 REVERT JUMPDEST PUSH1 0x0 DUP1 REVERT JUMPDEST CALLVALUE PUSH2 0x20A JUMPI PUSH1 0x40 CALLDATASIZE PUSH1 0x3 NOT ADD SLT PUSH2 0x20A JUMPI PUSH2 0x228 PUSH2 0x194B JUMP JUMPDEST PUSH2 0x230 PUSH2 0x1961 JUMP JUMPDEST SWAP1 PUSH1 0x1 DUP1 PUSH1 0xA0 SHL SUB DUP1 SWAP2 AND PUSH1 0x0 MSTORE PUSH1 0x5 PUSH1 0x20 MSTORE PUSH1 0x40 PUSH1 0x0 KECCAK256 SWAP2 AND PUSH1 0x0 MSTORE PUSH1 0x20 MSTORE PUSH1 0x20 PUSH1 0xFF PUSH1 0x40 PUSH1 0x0 KECCAK256 SLOAD AND PUSH1 0x40 MLOAD SWAP1 ISZERO ISZERO DUP2 MSTORE RETURN JUMPDEST CALLVALUE PUSH2 0x20A JUMPI PUSH1 0x20 CALLDATASIZE PUSH1 0x3 NOT ADD SLT PUSH2 0x20A JUMPI PUSH1 0x4 CALLDATALOAD PUSH1 0xA DUP2 LT ISZERO PUSH2 0x20A JUMPI PUSH2 0x28D PUSH1 0x20 SWAP2 PUSH2 0x1B0A JUMP JUMPDEST SLOAD PUSH1 0x40 MLOAD SWAP1 DUP2 MSTORE RETURN JUMPDEST CALLVALUE PUSH2 0x20A JUMPI PUSH1 0x80 CALLDATASIZE PUSH1 0x3 NOT ADD SLT PUSH2 0x20A JUMPI PUSH2 0x2AF PUSH2 0x194B JUMP JUMPDEST PUSH1 0xA PUSH1 0x24 CALLDATALOAD LT ISZERO PUSH2 0x20A JUMPI PUSH1 0x64 CALLDATALOAD PUSH1 0x1 PUSH1 0x1 PUSH1 0x40 SHL SUB DUP2 GT PUSH2 0x20A JUMPI PUSH2 0x2D9 SWAP1 CALLDATASIZE SWAP1 PUSH1 0x4 ADD PUSH2 0x1A3B JUMP JUMPDEST SWAP1 PUSH2 0x2F5 PUSH1 0x1 DUP1 PUSH1 0xA0 SHL SUB PUSH1 0x7 SLOAD AND CALLER EQ DUP1 ISZERO PUSH2 0x92B JUMPI PUSH2 0x1F84 JUMP JUMPDEST PUSH2 0x2FD PUSH2 0x21D1 JUMP JUMPDEST PUSH1 0x24 CALLDATALOAD ISZERO PUSH2 0x8DA JUMPI PUSH1 0x1 DUP1 PUSH1 0xA0 SHL SUB DUP2 AND PUSH1 0x0 MSTORE PUSH1 0xA PUSH1 0x20 MSTORE PUSH1 0xFF PUSH2 0x328 PUSH1 0x24 CALLDATALOAD PUSH1 0x40 PUSH1 0x0 KECCAK256 PUSH2 0x1B23 JUMP JUMPDEST SLOAD AND PUSH2 0x889 JUMPI PUSH1 0xC SLOAD SWAP2 PUSH2 0x2710 DUP4 GT PUSH2 0x838 JUMPI PUSH2 0x354 PUSH2 0x349 PUSH1 0x24 CALLDATALOAD PUSH2 0x1B0A JUMP JUMPDEST SLOAD PUSH1 0x44 CALLDATALOAD LT ISZERO PUSH2 0x1FD0 JUMP JUMPDEST PUSH2 0x35D DUP4 PUSH2 0x202B JUMP JUMPDEST PUSH1 0xC SSTORE PUSH1 0x40 MLOAD PUSH2 0x36C DUP2 PUSH2 0x1977 JUMP JUMPDEST PUSH2 0x378 PUSH1 0x24 CALLDATALOAD DUP3 PUSH2 0x2050 JUMP JUMPDEST PUSH1 0x44 CALLDATALOAD PUSH1 0x20 DUP3 ADD MSTORE TIMESTAMP PUSH1 0x40 DUP3 ADD MSTORE DUP2 PUSH1 0x60 DUP3 ADD MSTORE DUP4 PUSH1 0x0 MSTORE PUSH1 0x9 PUSH1 0x20 MSTORE PUSH1 0x40 PUSH1 0x0 KECCAK256 SWAP1 DUP1 MLOAD SWAP1 PUSH1 0xA DUP3 LT ISZERO PUSH2 0x822 JUMPI PUSH1 0x60 SWAP2 PUSH1 0xFF DUP1 NOT DUP6 SLOAD AND SWAP2 AND OR DUP4 SSTORE PUSH1 0x20 DUP2 ADD MLOAD PUSH1 0x1 DUP5 ADD SSTORE PUSH1 0x40 DUP2 ADD MLOAD PUSH1 0x2 DUP5 ADD SSTORE ADD MLOAD DUP1 MLOAD SWAP1 PUSH1 0x1 PUSH1 0x1 PUSH1 0x40 SHL SUB DUP3 GT PUSH2 0x74B JUMPI PUSH2 0x3EA PUSH1 0x3 DUP5 ADD SLOAD PUSH2 0x1B3B JUMP JUMPDEST PUSH1 0x1F DUP2 GT PUSH2 0x7DB JUMPI JUMPDEST POP PUSH1 0x20 SWAP1 PUSH1 0x1F DUP4 GT PUSH1 0x1 EQ PUSH2 0x76C JUMPI PUSH1 0x3 SWAP3 SWAP2 PUSH1 0x0 SWAP2 DUP4 PUSH2 0x761 JUMPI JUMPDEST POP POP DUP2 PUSH1 0x1 SHL SWAP2 PUSH1 0x0 NOT SWAP1 DUP5 SHL SHR NOT AND OR SWAP2 ADD SSTORE JUMPDEST PUSH1 0x1 DUP1 PUSH1 0xA0 SHL SUB DUP3 AND PUSH1 0x0 MSTORE PUSH1 0xA PUSH1 0x20 MSTORE PUSH2 0x445 PUSH1 0x24 CALLDATALOAD PUSH1 0x40 PUSH1 0x0 KECCAK256 PUSH2 0x1B23 JUMP JUMPDEST DUP1 SLOAD PUSH1 0xFF NOT AND PUSH1 0x1 OR SWAP1 SSTORE PUSH1 0x1 PUSH1 0x1 PUSH1 0xA0 SHL SUB DUP3 AND PUSH1 0x0 SWAP1 DUP2 MSTORE PUSH1 0xB PUSH1 0x20 MSTORE PUSH1 0x40 SWAP1 KECCAK256 DUP1 SLOAD PUSH9 0x10000000000000000 DUP2 LT ISZERO PUSH2 0x74B JUMPI PUSH2 0x48A SWAP2 PUSH1 0x1 DUP3 ADD DUP2 SSTORE PUSH2 0x1C1B JUMP JUMPDEST SWAP1 DUP1 SLOAD SWAP2 PUSH1 0x3 SHL PUSH1 0x0 NOT SWAP3 DUP4 DUP8 DUP4 SHL SWAP3 SHL NOT AND OR SWAP1 SSTORE PUSH1 0x40 MLOAD SWAP1 PUSH2 0x4AD DUP3 PUSH2 0x1992 JUMP JUMPDEST PUSH1 0x0 DUP3 MSTORE PUSH1 0x1 PUSH1 0x1 PUSH1 0xA0 SHL SUB DUP5 AND ISZERO PUSH2 0x732 JUMPI PUSH1 0x0 DUP6 DUP2 MSTORE PUSH1 0x2 PUSH1 0x20 MSTORE PUSH1 0x40 SWAP1 KECCAK256 SLOAD PUSH1 0x1 PUSH1 0x1 PUSH1 0xA0 SHL SUB AND DUP1 ISZERO ISZERO SWAP2 DUP7 SWAP2 SWAP1 DUP4 PUSH2 0x6FC JUMPI JUMPDEST POP PUSH1 0x1 PUSH1 0x1 PUSH1 0xA0 SHL SUB DUP7 AND PUSH1 0x0 DUP2 DUP2 MSTORE PUSH1 0x3 PUSH1 0x20 SWAP1 DUP2 MSTORE PUSH1 0x40 DUP1 DUP4 KECCAK256 DUP1 SLOAD PUSH1 0x1 ADD SWAP1 SSTORE DUP6 DUP4 MSTORE PUSH1 0x2 SWAP1 SWAP2 MSTORE DUP2 KECCAK256 DUP1 SLOAD PUSH1 0x1 PUSH1 0x1 PUSH1 0xA0 SHL SUB NOT AND DUP4 OR SWAP1 SSTORE SWAP1 SWAP2 SWAP1 PUSH32 0xDDF252AD1BE2C89B69C2B068FC378DAA952BA7F163C4A11628F55A4DF523B3EF SWAP1 DUP1 LOG4 PUSH2 0x6E3 JUMPI DUP3 EXTCODESIZE PUSH2 0x5AB JUMPI JUMPDEST POP PUSH2 0x55F SWAP1 DUP4 PUSH2 0x205C JUMP JUMPDEST PUSH32 0xF6B70DEDB47BC6E8680E80B2D7055AEDD55E5598DA29758AE2B17B4B13342239 PUSH1 0x40 DUP1 MLOAD SWAP3 PUSH2 0x591 DUP5 PUSH1 0x24 CALLDATALOAD PUSH2 0x1ACE JUMP JUMPDEST PUSH1 0x44 CALLDATALOAD PUSH1 0x20 DUP6 ADD MSTORE PUSH1 0x1 PUSH1 0x1 PUSH1 0xA0 SHL SUB AND SWAP3 LOG3 PUSH1 0x1 PUSH1 0x8 SSTORE STOP JUMPDEST PUSH1 0x40 MLOAD PUSH1 0x20 DUP2 DUP1 PUSH2 0x5E5 PUSH4 0xA85BD01 PUSH1 0xE1 SHL SWAP6 DUP7 DUP4 MSTORE CALLER PUSH1 0x4 DUP5 ADD MSTORE PUSH1 0x0 PUSH1 0x24 DUP5 ADD MSTORE DUP10 PUSH1 0x44 DUP5 ADD MSTORE PUSH1 0x80 PUSH1 0x64 DUP5 ADD MSTORE PUSH1 0x84 DUP4 ADD SWAP1 PUSH2 0x1A59 JUMP JUMPDEST SUB DUP2 PUSH1 0x0 PUSH1 0x1 PUSH1 0x1 PUSH1 0xA0 SHL SUB DUP10 AND GAS CALL PUSH1 0x0 SWAP2 DUP2 PUSH2 0x69E JUMPI JUMPDEST POP PUSH2 0x666 JUMPI DUP4 RETURNDATASIZE ISZERO PUSH2 0x65E JUMPI RETURNDATASIZE SWAP1 PUSH2 0x615 DUP3 PUSH2 0x19E9 JUMP JUMPDEST SWAP2 PUSH2 0x623 PUSH1 0x40 MLOAD SWAP4 DUP5 PUSH2 0x19C8 JUMP JUMPDEST DUP3 MSTORE RETURNDATASIZE PUSH1 0x0 PUSH1 0x20 DUP5 ADD RETURNDATACOPY JUMPDEST DUP2 MLOAD SWAP2 DUP3 PUSH2 0x657 JUMPI PUSH1 0x40 MLOAD PUSH4 0x32505749 PUSH1 0xE1 SHL DUP2 MSTORE PUSH1 0x1 PUSH1 0x1 PUSH1 0xA0 SHL SUB DUP4 AND PUSH1 0x4 DUP3 ADD MSTORE PUSH1 0x24 SWAP1 REVERT JUMPDEST PUSH1 0x20 SWAP2 POP ADD REVERT JUMPDEST PUSH1 0x60 SWAP1 PUSH2 0x62E JUMP JUMPDEST PUSH1 0x1 PUSH1 0x1 PUSH1 0xE0 SHL SUB NOT AND SUB PUSH2 0x67D JUMPI PUSH2 0x55F PUSH2 0x554 JUMP JUMPDEST PUSH1 0x40 MLOAD PUSH4 0x32505749 PUSH1 0xE1 SHL DUP2 MSTORE PUSH1 0x1 PUSH1 0x1 PUSH1 0xA0 SHL SUB DUP4 AND PUSH1 0x4 DUP3 ADD MSTORE PUSH1 0x24 SWAP1 REVERT JUMPDEST SWAP1 SWAP2 POP PUSH1 0x20 DUP2 RETURNDATASIZE PUSH1 0x20 GT PUSH2 0x6DB JUMPI JUMPDEST DUP2 PUSH2 0x6BA PUSH1 0x20 SWAP4 DUP4 PUSH2 0x19C8 JUMP JUMPDEST DUP2 ADD SUB SLT PUSH2 0x20A JUMPI MLOAD PUSH1 0x1 PUSH1 0x1 PUSH1 0xE0 SHL SUB NOT DUP2 AND DUP2 SUB PUSH2 0x20A JUMPI SWAP1 DUP7 PUSH2 0x5FE JUMP JUMPDEST RETURNDATASIZE SWAP2 POP PUSH2 0x6AD JUMP JUMPDEST PUSH1 0x40 MLOAD PUSH4 0x39E35637 PUSH1 0xE1 SHL DUP2 MSTORE PUSH1 0x0 PUSH1 0x4 DUP3 ADD MSTORE PUSH1 0x24 SWAP1 REVERT JUMPDEST PUSH1 0x0 DUP4 DUP2 MSTORE PUSH1 0x4 PUSH1 0x20 MSTORE PUSH1 0x40 SWAP1 KECCAK256 DUP1 SLOAD PUSH1 0x1 PUSH1 0x1 PUSH1 0xA0 SHL SUB NOT AND SWAP1 SSTORE DUP2 PUSH1 0x0 MSTORE PUSH1 0x3 PUSH1 0x20 MSTORE PUSH1 0x40 PUSH1 0x0 KECCAK256 SWAP1 DUP2 SLOAD ADD SWAP1 SSTORE DUP8 PUSH2 0x4E5 JUMP JUMPDEST PUSH1 0x40 MLOAD PUSH4 0x32505749 PUSH1 0xE1 SHL DUP2 MSTORE PUSH1 0x0 PUSH1 0x4 DUP3 ADD MSTORE PUSH1 0x24 SWAP1 REVERT JUMPDEST PUSH4 0x4E487B71 PUSH1 0xE0 SHL PUSH1 0x0 MSTORE PUSH1 0x41 PUSH1 0x4 MSTORE PUSH1 0x24 PUSH1 0x0 REVERT JUMPDEST ADD MLOAD SWAP1 POP DUP8 DUP1 PUSH2 0x40F JUMP JUMPDEST SWAP1 PUSH1 0x3 DUP5 ADD PUSH1 0x0 MSTORE PUSH1 0x20 PUSH1 0x0 KECCAK256 SWAP2 PUSH1 0x0 JUMPDEST PUSH1 0x1F NOT DUP6 AND DUP2 LT PUSH2 0x7C3 JUMPI POP SWAP2 DUP4 SWAP2 PUSH1 0x1 SWAP4 PUSH1 0x3 SWAP6 PUSH1 0x1F NOT DUP2 AND LT PUSH2 0x7AB JUMPI JUMPDEST POP POP POP DUP2 SHL ADD SWAP2 ADD SSTORE PUSH2 0x424 JUMP JUMPDEST ADD MLOAD PUSH1 0x0 NOT DUP4 DUP7 SHL PUSH1 0xF8 AND SHR NOT AND SWAP1 SSTORE DUP8 DUP1 DUP1 PUSH2 0x79D JUMP JUMPDEST SWAP2 SWAP3 PUSH1 0x20 PUSH1 0x1 DUP2 SWAP3 DUP7 DUP6 ADD MLOAD DUP2 SSTORE ADD SWAP5 ADD SWAP3 ADD PUSH2 0x77D JUMP JUMPDEST PUSH1 0x3 DUP5 ADD PUSH1 0x0 MSTORE PUSH1 0x20 PUSH1 0x0 KECCAK256 PUSH1 0x1F DUP5 ADD PUSH1 0x5 SHR DUP2 ADD PUSH1 0x20 DUP6 LT PUSH2 0x81B JUMPI JUMPDEST PUSH1 0x1F DUP4 ADD PUSH1 0x5 SHR DUP3 ADD DUP2 LT PUSH2 0x80F JUMPI POP POP PUSH2 0x3F3 JUMP JUMPDEST PUSH1 0x0 DUP2 SSTORE PUSH1 0x1 ADD PUSH2 0x7F9 JUMP JUMPDEST POP DUP1 PUSH2 0x7F9 JUMP JUMPDEST PUSH4 0x4E487B71 PUSH1 0xE0 SHL PUSH1 0x0 MSTORE PUSH1 0x21 PUSH1 0x4 MSTORE PUSH1 0x24 PUSH1 0x0 REVERT JUMPDEST PUSH1 0x40 MLOAD PUSH3 0x461BCD PUSH1 0xE5 SHL DUP2 MSTORE PUSH1 0x20 PUSH1 0x4 DUP3 ADD MSTORE PUSH1 0x23 PUSH1 0x24 DUP3 ADD MSTORE PUSH32 0x536176696E677342616467654E46543A204D617820737570706C792072656163 PUSH1 0x44 DUP3 ADD MSTORE PUSH3 0x1A1959 PUSH1 0xEA SHL PUSH1 0x64 DUP3 ADD MSTORE PUSH1 0x84 SWAP1 REVERT JUMPDEST PUSH1 0x40 MLOAD PUSH3 0x461BCD PUSH1 0xE5 SHL DUP2 MSTORE PUSH1 0x20 PUSH1 0x4 DUP3 ADD MSTORE PUSH1 0x24 DUP1 DUP3 ADD MSTORE PUSH32 0x536176696E677342616467654E46543A20426164676520616C7265616479206F PUSH1 0x44 DUP3 ADD MSTORE PUSH4 0x1DDB9959 PUSH1 0xE2 SHL PUSH1 0x64 DUP3 ADD MSTORE PUSH1 0x84 SWAP1 REVERT JUMPDEST PUSH1 0x40 MLOAD PUSH3 0x461BCD PUSH1 0xE5 SHL DUP2 MSTORE PUSH1 0x20 PUSH1 0x4 DUP3 ADD MSTORE PUSH1 0x23 PUSH1 0x24 DUP3 ADD MSTORE PUSH32 0x536176696E677342616467654E46543A20496E76616C69642062616467652074 PUSH1 0x44 DUP3 ADD MSTORE PUSH3 0x797065 PUSH1 0xE8 SHL PUSH1 0x64 DUP3 ADD MSTORE PUSH1 0x84 SWAP1 REVERT JUMPDEST PUSH2 0x1F84 JUMP JUMPDEST CALLVALUE PUSH2 0x20A JUMPI PUSH1 0x20 CALLDATASIZE PUSH1 0x3 NOT ADD SLT PUSH2 0x20A JUMPI PUSH1 0x4 CALLDATALOAD PUSH1 0x0 MSTORE PUSH1 0x9 PUSH1 0x20 MSTORE PUSH2 0x981 PUSH1 0x40 PUSH1 0x0 KECCAK256 PUSH2 0x99C PUSH1 0xFF DUP3 SLOAD AND SWAP2 PUSH1 0x1 DUP2 ADD SLOAD SWAP1 PUSH2 0x974 PUSH1 0x3 PUSH1 0x2 DUP4 ADD SLOAD SWAP3 ADD PUSH2 0x1B75 JUMP JUMPDEST SWAP2 PUSH1 0x40 MLOAD SWAP6 DUP7 DUP1 SWAP7 PUSH2 0x1ACE JUMP JUMPDEST PUSH1 0x20 DUP6 ADD MSTORE PUSH1 0x40 DUP5 ADD MSTORE PUSH1 0x80 PUSH1 0x60 DUP5 ADD MSTORE PUSH1 0x80 DUP4 ADD SWAP1 PUSH2 0x1A59 JUMP JUMPDEST SUB SWAP1 RETURN JUMPDEST CALLVALUE PUSH2 0x20A JUMPI PUSH1 0x20 DUP1 PUSH1 0x3 NOT CALLDATASIZE ADD SLT PUSH2 0x20A JUMPI PUSH1 0x4 CALLDATALOAD PUSH1 0x60 DUP1 PUSH1 0x40 MLOAD PUSH2 0x9C4 DUP2 PUSH2 0x1977 JUMP JUMPDEST PUSH1 0x0 DUP1 DUP3 MSTORE DUP6 DUP3 ADD DUP2 SWAP1 MSTORE PUSH1 0x40 DUP3 ADD MSTORE ADD MSTORE PUSH1 0x1 PUSH1 0x1 PUSH1 0xA0 SHL SUB PUSH2 0x9E7 DUP3 PUSH2 0x1DFB JUMP JUMPDEST AND ISZERO PUSH2 0xA76 JUMPI PUSH1 0x0 MSTORE PUSH1 0x9 DUP2 MSTORE PUSH1 0x40 PUSH1 0x0 KECCAK256 SWAP1 PUSH2 0x99C PUSH1 0x40 MLOAD SWAP3 PUSH2 0xA0A DUP5 PUSH2 0x1977 JUMP JUMPDEST PUSH2 0xA18 PUSH1 0xFF DUP3 SLOAD AND DUP6 PUSH2 0x2050 JUMP JUMPDEST PUSH1 0x1 DUP2 ADD SLOAD SWAP1 DUP4 DUP6 ADD SWAP2 DUP3 MSTORE PUSH2 0xA3C PUSH1 0x3 PUSH1 0x2 DUP4 ADD SLOAD SWAP3 PUSH1 0x40 DUP9 ADD SWAP4 DUP5 MSTORE ADD PUSH2 0x1B75 JUMP JUMPDEST SWAP2 PUSH1 0x60 DUP7 ADD SWAP3 DUP4 MSTORE PUSH2 0xA59 PUSH1 0x40 MLOAD SWAP7 DUP7 DUP9 SWAP8 DUP9 MSTORE DUP8 ADD SWAP1 MLOAD PUSH2 0x1ACE JUMP JUMPDEST MLOAD PUSH1 0x40 DUP6 ADD MSTORE MLOAD PUSH1 0x60 DUP5 ADD MSTORE MLOAD PUSH1 0x80 DUP1 DUP5 ADD MSTORE PUSH1 0xA0 DUP4 ADD SWAP1 PUSH2 0x1A59 JUMP JUMPDEST PUSH1 0x40 MLOAD PUSH3 0x461BCD PUSH1 0xE5 SHL DUP2 MSTORE PUSH1 0x4 DUP2 ADD DUP4 SWAP1 MSTORE PUSH1 0x25 PUSH1 0x24 DUP3 ADD MSTORE PUSH32 0x536176696E677342616467654E46543A20546F6B656E20646F6573206E6F7420 PUSH1 0x44 DUP3 ADD MSTORE PUSH5 0x195E1A5CDD PUSH1 0xDA SHL PUSH1 0x64 DUP3 ADD MSTORE PUSH1 0x84 SWAP1 REVERT JUMPDEST CALLVALUE PUSH2 0x20A JUMPI PUSH1 0x40 CALLDATASIZE PUSH1 0x3 NOT ADD SLT PUSH2 0x20A JUMPI PUSH2 0xAE2 PUSH2 0x194B JUMP JUMPDEST PUSH1 0x1 PUSH1 0x1 PUSH1 0xA0 SHL SUB AND PUSH1 0x0 SWAP1 DUP2 MSTORE PUSH1 0xB PUSH1 0x20 MSTORE PUSH1 0x40 SWAP1 KECCAK256 DUP1 SLOAD PUSH1 0x24 CALLDATALOAD SWAP2 SWAP1 DUP3 LT ISZERO PUSH2 0x20A JUMPI PUSH1 0x20 SWAP2 PUSH2 0xB13 SWAP2 PUSH2 0x1C1B JUMP JUMPDEST SWAP1 SLOAD PUSH1 0x40 MLOAD SWAP2 PUSH1 0x3 SHL SHR DUP2 MSTORE RETURN JUMPDEST CALLVALUE PUSH2 0x20A JUMPI PUSH1 0x20 CALLDATASIZE PUSH1 0x3 NOT ADD SLT PUSH2 0x20A JUMPI PUSH1 0x4 CALLDATALOAD PUSH2 0xB3E DUP2 PUSH2 0x1DFB JUMP JUMPDEST POP PUSH1 0x0 MSTORE PUSH1 0x6 PUSH1 0x20 MSTORE PUSH2 0x99C PUSH2 0xB57 PUSH1 0x40 PUSH1 0x0 KECCAK256 PUSH2 0x1B75 JUMP JUMPDEST PUSH1 0x0 PUSH1 0x40 MLOAD PUSH2 0xB65 DUP2 PUSH2 0x1992 JUMP JUMPDEST MSTORE PUSH1 0x40 MLOAD SWAP2 DUP3 SWAP2 PUSH1 0x20 DUP4 MSTORE PUSH1 0x20 DUP4 ADD SWAP1 PUSH2 0x1A59 JUMP JUMPDEST CALLVALUE PUSH2 0x20A JUMPI PUSH1 0x80 CALLDATASIZE PUSH1 0x3 NOT ADD SLT PUSH2 0x20A JUMPI PUSH2 0xB93 PUSH2 0x194B JUMP JUMPDEST PUSH2 0xB9B PUSH2 0x1961 JUMP JUMPDEST SWAP1 PUSH1 0x44 CALLDATALOAD PUSH1 0x64 CALLDATALOAD SWAP3 PUSH1 0x1 PUSH1 0x1 PUSH1 0x40 SHL SUB DUP5 GT PUSH2 0x20A JUMPI CALLDATASIZE PUSH1 0x23 DUP6 ADD SLT ISZERO PUSH2 0x20A JUMPI PUSH2 0xBD3 PUSH2 0xBE5 SWAP5 CALLDATASIZE SWAP1 PUSH1 0x24 DUP2 PUSH1 0x4 ADD CALLDATALOAD SWAP2 ADD PUSH2 0x1A04 JUMP JUMPDEST SWAP3 PUSH2 0xBDF DUP4 DUP4 DUP4 PUSH2 0x1C75 JUMP JUMPDEST CALLER PUSH2 0x1E36 JUMP JUMPDEST STOP JUMPDEST CALLVALUE PUSH2 0x20A JUMPI PUSH1 0x40 CALLDATASIZE PUSH1 0x3 NOT ADD SLT PUSH2 0x20A JUMPI PUSH2 0xC00 PUSH2 0x194B JUMP JUMPDEST PUSH1 0x24 CALLDATALOAD SWAP1 DUP2 ISZERO ISZERO DUP1 SWAP3 SUB PUSH2 0x20A JUMPI PUSH1 0x1 PUSH1 0x1 PUSH1 0xA0 SHL SUB AND SWAP1 DUP2 ISZERO PUSH2 0xC73 JUMPI CALLER PUSH1 0x0 MSTORE PUSH1 0x5 PUSH1 0x20 MSTORE PUSH1 0x40 PUSH1 0x0 KECCAK256 DUP3 PUSH1 0x0 MSTORE PUSH1 0x20 MSTORE PUSH1 0x40 PUSH1 0x0 KECCAK256 PUSH1 0xFF NOT DUP2 SLOAD AND PUSH1 0xFF DUP4 AND OR SWAP1 SSTORE PUSH1 0x40 MLOAD SWAP1 DUP2 MSTORE PUSH32 0x17307EAB39AB6107E8899845AD3D59BD9653F200F220920489CA2B5937696C31 PUSH1 0x20 CALLER SWAP3 LOG3 STOP JUMPDEST PUSH1 0x40 MLOAD PUSH4 0xB611743 PUSH1 0xE3 SHL DUP2 MSTORE PUSH1 0x4 DUP2 ADD DUP4 SWAP1 MSTORE PUSH1 0x24 SWAP1 REVERT JUMPDEST CALLVALUE PUSH2 0x20A JUMPI PUSH1 0x0 CALLDATASIZE PUSH1 0x3 NOT ADD SLT PUSH2 0x20A JUMPI PUSH1 0x40 MLOAD PUSH1 0x0 PUSH1 0x1 DUP1 SLOAD SWAP1 PUSH2 0xCB0 DUP3 PUSH2 0x1B3B JUMP JUMPDEST DUP1 DUP6 MSTORE SWAP2 DUP2 DUP2 AND SWAP1 DUP2 ISZERO PUSH2 0xD44 JUMPI POP PUSH1 0x1 EQ PUSH2 0xCEB JUMPI JUMPDEST PUSH2 0x99C DUP5 PUSH2 0xCD7 DUP2 DUP7 SUB DUP3 PUSH2 0x19C8 JUMP JUMPDEST PUSH1 0x40 MLOAD SWAP2 DUP3 SWAP2 PUSH1 0x20 DUP4 MSTORE PUSH1 0x20 DUP4 ADD SWAP1 PUSH2 0x1A59 JUMP JUMPDEST PUSH1 0x0 DUP2 DUP2 MSTORE SWAP3 POP PUSH32 0xB10E2D527612073B26EECDFD717E6A320CF44B4AFAC2B0732D9FCBE2B7FA0CF6 JUMPDEST DUP3 DUP5 LT PUSH2 0xD2C JUMPI POP POP POP DUP2 ADD PUSH1 0x20 ADD PUSH2 0xCD7 DUP3 PUSH2 0xCC7 JUMP JUMPDEST DUP1 SLOAD PUSH1 0x20 DUP6 DUP8 ADD DUP2 ADD SWAP2 SWAP1 SWAP2 MSTORE SWAP1 SWAP4 ADD SWAP3 DUP2 ADD PUSH2 0xD14 JUMP JUMPDEST PUSH1 0xFF NOT AND PUSH1 0x20 DUP1 DUP8 ADD SWAP2 SWAP1 SWAP2 MSTORE SWAP3 ISZERO ISZERO PUSH1 0x5 SHL DUP6 ADD SWAP1 SWAP3 ADD SWAP3 POP PUSH2 0xCD7 SWAP2 POP DUP4 SWAP1 POP PUSH2 0xCC7 JUMP JUMPDEST CALLVALUE PUSH2 0x20A JUMPI PUSH1 0x20 CALLDATASIZE PUSH1 0x3 NOT ADD SLT PUSH2 0x20A JUMPI PUSH1 0x4 CALLDATALOAD PUSH1 0xA DUP2 LT ISZERO PUSH2 0x20A JUMPI PUSH2 0xCD7 PUSH2 0x99C SWAP2 PUSH2 0x2415 JUMP JUMPDEST CALLVALUE PUSH2 0x20A JUMPI PUSH1 0x20 DUP1 PUSH1 0x3 NOT CALLDATASIZE ADD SLT PUSH2 0x20A JUMPI PUSH1 0x1 PUSH1 0x1 PUSH1 0xA0 SHL SUB PUSH2 0xDB6 PUSH2 0x194B JUMP JUMPDEST AND PUSH1 0x0 MSTORE PUSH1 0xB DUP2 MSTORE PUSH1 0x40 PUSH1 0x0 KECCAK256 PUSH1 0x40 MLOAD SWAP1 DUP2 DUP4 DUP3 SLOAD SWAP2 DUP3 DUP2 MSTORE ADD SWAP1 DUP2 SWAP3 PUSH1 0x0 MSTORE DUP5 PUSH1 0x0 KECCAK256 SWAP1 PUSH1 0x0 JUMPDEST DUP7 DUP3 DUP3 LT PUSH2 0xE34 JUMPI DUP7 DUP7 PUSH2 0xDF4 DUP3 DUP9 SUB DUP4 PUSH2 0x19C8 JUMP JUMPDEST PUSH1 0x40 MLOAD SWAP3 DUP4 SWAP3 DUP2 DUP5 ADD SWAP1 DUP3 DUP6 MSTORE MLOAD DUP1 SWAP2 MSTORE PUSH1 0x40 DUP5 ADD SWAP3 SWAP2 PUSH1 0x0 JUMPDEST DUP3 DUP2 LT PUSH2 0xE1D JUMPI POP POP POP POP SUB SWAP1 RETURN JUMPDEST DUP4 MLOAD DUP6 MSTORE DUP7 SWAP6 POP SWAP4 DUP2 ADD SWAP4 SWAP3 DUP2 ADD SWAP3 PUSH1 0x1 ADD PUSH2 0xE0E JUMP JUMPDEST DUP4 SLOAD DUP6 MSTORE SWAP1 SWAP4 ADD SWAP3 PUSH1 0x1 SWAP3 DUP4 ADD SWAP3 ADD PUSH2 0xDDE JUMP JUMPDEST CALLVALUE PUSH2 0x20A JUMPI PUSH1 0x0 CALLDATASIZE PUSH1 0x3 NOT ADD SLT PUSH2 0x20A JUMPI PUSH1 0x7 SLOAD PUSH1 0x40 MLOAD PUSH1 0x1 PUSH1 0x1 PUSH1 0xA0 SHL SUB SWAP1 SWAP2 AND DUP2 MSTORE PUSH1 0x20 SWAP1 RETURN JUMPDEST CALLVALUE PUSH2 0x20A JUMPI PUSH1 0x20 PUSH1 0xFF PUSH2 0xEA3 PUSH2 0xE86 CALLDATASIZE PUSH2 0x1ADB JUMP JUMPDEST PUSH1 0x1 PUSH1 0x1 PUSH1 0xA0 SHL SUB SWAP1 SWAP2 AND PUSH1 0x0 SWAP1 DUP2 MSTORE PUSH1 0xA DUP6 MSTORE PUSH1 0x40 SWAP1 KECCAK256 PUSH2 0x1B23 JUMP JUMPDEST SLOAD AND PUSH1 0x40 MLOAD SWAP1 ISZERO ISZERO DUP2 MSTORE RETURN JUMPDEST CALLVALUE PUSH2 0x20A JUMPI PUSH1 0x20 CALLDATASIZE PUSH1 0x3 NOT ADD SLT PUSH2 0x20A JUMPI PUSH1 0x20 PUSH2 0xECA PUSH2 0x194B JUMP JUMPDEST PUSH1 0x7 SLOAD PUSH1 0x40 MLOAD PUSH1 0x1 PUSH1 0x1 PUSH1 0xA0 SHL SUB SWAP3 DUP4 AND SWAP2 SWAP1 SWAP3 AND EQ DUP2 MSTORE RETURN JUMPDEST CALLVALUE PUSH2 0x20A JUMPI PUSH1 0x20 CALLDATASIZE PUSH1 0x3 NOT ADD SLT PUSH2 0x20A JUMPI PUSH1 0x4 CALLDATALOAD PUSH1 0xA DUP2 LT ISZERO PUSH2 0x20A JUMPI PUSH1 0x0 MSTORE PUSH1 0xD PUSH1 0x20 MSTORE PUSH2 0x99C PUSH2 0xCD7 PUSH1 0x40 PUSH1 0x0 KECCAK256 PUSH2 0x1B75 JUMP JUMPDEST CALLVALUE PUSH2 0x20A JUMPI PUSH1 0x0 CALLDATASIZE PUSH1 0x3 NOT ADD SLT PUSH2 0x20A JUMPI PUSH2 0xF32 PUSH2 0x1C49 JUMP JUMPDEST PUSH1 0x7 DUP1 SLOAD PUSH1 0x1 PUSH1 0x1 PUSH1 0xA0 SHL SUB NOT DUP2 AND SWAP1 SWAP2 SSTORE PUSH1 0x0 SWAP1 PUSH1 0x1 PUSH1 0x1 PUSH1 0xA0 SHL SUB AND PUSH32 0x8BE0079C531659141344CD1FD0A4F28419497F9722A3DAAFE3B4186F6B6457E0 DUP3 DUP1 LOG3 STOP JUMPDEST CALLVALUE PUSH2 0x20A JUMPI PUSH1 0x20 CALLDATASIZE PUSH1 0x3 NOT ADD SLT PUSH2 0x20A JUMPI PUSH1 0x1 PUSH1 0x1 PUSH1 0xA0 SHL SUB PUSH2 0xF97 PUSH2 0x194B JUMP JUMPDEST AND DUP1 ISZERO PUSH2 0xFB6 JUMPI PUSH1 0x0 MSTORE PUSH1 0x3 PUSH1 0x20 MSTORE PUSH1 0x20 PUSH1 0x40 PUSH1 0x0 KECCAK256 SLOAD PUSH1 0x40 MLOAD SWAP1 DUP2 MSTORE RETURN JUMPDEST PUSH1 0x40 MLOAD PUSH4 0x22718AD9 PUSH1 0xE2 SHL DUP2 MSTORE PUSH1 0x0 PUSH1 0x4 DUP3 ADD MSTORE PUSH1 0x24 SWAP1 REVERT JUMPDEST CALLVALUE PUSH2 0x20A JUMPI PUSH1 0x20 CALLDATASIZE PUSH1 0x3 NOT ADD SLT PUSH2 0x20A JUMPI PUSH1 0x4 CALLDATALOAD PUSH1 0xA DUP2 LT ISZERO PUSH2 0x20A JUMPI PUSH2 0xCD7 PUSH2 0x99C SWAP2 PUSH2 0x221F JUMP JUMPDEST CALLVALUE PUSH2 0x20A JUMPI PUSH1 0x20 CALLDATASIZE PUSH1 0x3 NOT ADD SLT PUSH2 0x20A JUMPI PUSH1 0x20 PUSH2 0x1016 PUSH1 0x4 CALLDATALOAD PUSH2 0x1DFB JUMP JUMPDEST PUSH1 0x40 MLOAD PUSH1 0x1 PUSH1 0x1 PUSH1 0xA0 SHL SUB SWAP1 SWAP2 AND DUP2 MSTORE RETURN JUMPDEST CALLVALUE PUSH2 0x20A JUMPI PUSH1 0x20 CALLDATASIZE PUSH1 0x3 NOT ADD SLT PUSH2 0x20A JUMPI PUSH2 0x1041 PUSH2 0x194B JUMP JUMPDEST POP PUSH2 0xBE5 PUSH2 0x1C49 JUMP JUMPDEST CALLVALUE PUSH2 0x20A JUMPI PUSH2 0xBE5 PUSH2 0x105B CALLDATASIZE PUSH2 0x1A99 JUMP JUMPDEST SWAP1 PUSH1 0x40 MLOAD SWAP3 PUSH2 0x1069 DUP5 PUSH2 0x1992 JUMP JUMPDEST PUSH1 0x0 DUP5 MSTORE PUSH2 0xBDF DUP4 DUP4 DUP4 PUSH2 0x1C75 JUMP JUMPDEST CALLVALUE PUSH2 0x20A JUMPI PUSH1 0x20 DUP1 PUSH1 0x3 NOT CALLDATASIZE ADD SLT PUSH2 0x20A JUMPI PUSH2 0x1092 PUSH2 0x194B JUMP JUMPDEST SWAP1 PUSH1 0x40 MLOAD PUSH2 0x160 DUP2 ADD DUP2 DUP2 LT PUSH1 0x1 PUSH1 0x1 PUSH1 0x40 SHL SUB DUP3 GT OR PUSH2 0x74B JUMPI PUSH1 0x40 SWAP4 SWAP2 SWAP4 MSTORE PUSH1 0xA SWAP2 DUP3 DUP5 MSTORE PUSH2 0x140 CALLDATASIZE DUP3 DUP7 ADD CALLDATACOPY PUSH1 0x0 SWAP3 PUSH1 0x1 SWAP3 PUSH1 0x1 PUSH1 0x1 PUSH1 0xA0 SHL SUB AND DUP4 JUMPDEST DUP3 DUP2 GT ISZERO PUSH2 0x119E JUMPI POP POP PUSH2 0x10E5 DUP5 PUSH2 0x21F4 JUMP JUMPDEST SWAP4 PUSH2 0x10F3 PUSH1 0x40 MLOAD SWAP6 DUP7 PUSH2 0x19C8 JUMP JUMPDEST DUP1 DUP6 MSTORE PUSH2 0x10FF DUP2 PUSH2 0x21F4 JUMP JUMPDEST DUP6 DUP5 ADD SWAP7 SWAP1 PUSH1 0x1F NOT ADD CALLDATASIZE DUP9 CALLDATACOPY PUSH1 0x0 JUMPDEST DUP3 DUP2 LT PUSH2 0x115E JUMPI POP POP POP POP PUSH1 0x40 MLOAD SWAP3 DUP2 DUP5 ADD SWAP1 DUP3 DUP6 MSTORE MLOAD DUP1 SWAP2 MSTORE PUSH1 0x40 DUP5 ADD SWAP5 SWAP2 PUSH1 0x0 JUMPDEST DUP3 DUP2 LT PUSH2 0x113E JUMPI DUP6 DUP8 SUB DUP7 RETURN JUMPDEST SWAP1 SWAP2 SWAP3 SWAP4 DUP3 DUP1 DUP9 PUSH2 0x1151 DUP5 SWAP11 DUP10 MLOAD PUSH2 0x1ACE JUMP JUMPDEST ADD SWAP8 SWAP6 ADD SWAP4 SWAP3 SWAP2 ADD PUSH2 0x1131 JUMP JUMPDEST PUSH2 0x116E DUP2 DUP4 SWAP10 SWAP8 SWAP10 SWAP9 SWAP7 SWAP9 PUSH2 0x220B JUMP JUMPDEST MLOAD SWAP1 DUP5 DUP3 LT ISZERO PUSH2 0x822 JUMPI PUSH2 0x118E PUSH2 0x1193 SWAP3 PUSH2 0x1189 DUP4 DUP10 PUSH2 0x220B JUMP JUMPDEST PUSH2 0x2050 JUMP JUMPDEST PUSH2 0x202B JUMP JUMPDEST SWAP7 SWAP5 SWAP7 SWAP6 SWAP4 SWAP6 PUSH2 0x110E JUMP JUMPDEST DUP3 DUP2 SWAP8 SWAP6 SWAP8 SWAP7 SWAP5 SWAP7 LT ISZERO PUSH2 0x822 JUMPI DUP2 PUSH1 0x0 MSTORE DUP3 DUP7 MSTORE PUSH1 0xFF PUSH2 0x11C3 DUP3 PUSH1 0x40 PUSH1 0x0 KECCAK256 PUSH2 0x1B23 JUMP JUMPDEST SLOAD AND PUSH2 0x11DE JUMPI JUMPDEST PUSH2 0x11D3 SWAP1 PUSH2 0x202B JUMP JUMPDEST SWAP6 SWAP4 SWAP6 SWAP5 SWAP3 SWAP5 PUSH2 0x10D2 JUMP JUMPDEST SWAP3 PUSH2 0x11F4 DUP2 PUSH2 0x118E DUP7 PUSH2 0x1189 PUSH2 0x11D3 SWAP6 DUP11 PUSH2 0x220B JUMP JUMPDEST SWAP4 SWAP1 POP PUSH2 0x11CA JUMP JUMPDEST CALLVALUE PUSH2 0x20A JUMPI PUSH1 0x0 CALLDATASIZE PUSH1 0x3 NOT ADD SLT PUSH2 0x20A JUMPI PUSH1 0x20 PUSH1 0x40 MLOAD PUSH2 0x2710 DUP2 MSTORE RETURN JUMPDEST CALLVALUE PUSH2 0x20A JUMPI PUSH2 0xBE5 PUSH2 0x122A CALLDATASIZE PUSH2 0x1A99 JUMP JUMPDEST SWAP2 PUSH2 0x1C75 JUMP JUMPDEST CALLVALUE PUSH2 0x20A JUMPI PUSH1 0x40 CALLDATASIZE PUSH1 0x3 NOT ADD SLT PUSH2 0x20A JUMPI PUSH2 0x1249 PUSH2 0x194B JUMP JUMPDEST PUSH1 0x24 CALLDATALOAD PUSH2 0x1255 DUP2 PUSH2 0x1DFB JUMP JUMPDEST CALLER ISZERO ISZERO DUP1 PUSH2 0x1304 JUMPI JUMPDEST DUP1 PUSH2 0x12D7 JUMPI JUMPDEST PUSH2 0x12BF JUMPI PUSH1 0x1 PUSH1 0x1 PUSH1 0xA0 SHL SUB SWAP3 DUP4 AND SWAP3 DUP3 SWAP2 DUP5 SWAP2 AND PUSH32 0x8C5BE1E5EBEC7D5BD14F71427D1E84F3DD0314C0F7B2291E5B200AC8C7C3B925 PUSH1 0x0 DUP1 LOG4 PUSH1 0x0 SWAP1 DUP2 MSTORE PUSH1 0x4 PUSH1 0x20 MSTORE PUSH1 0x40 SWAP1 KECCAK256 DUP1 SLOAD PUSH1 0x1 PUSH1 0x1 PUSH1 0xA0 SHL SUB NOT AND SWAP1 SWAP2 OR SWAP1 SSTORE STOP JUMPDEST PUSH1 0x40 MLOAD PUSH4 0xA9FBF51F PUSH1 0xE0 SHL DUP2 MSTORE CALLER PUSH1 0x4 DUP3 ADD MSTORE PUSH1 0x24 SWAP1 REVERT JUMPDEST POP PUSH1 0x1 DUP1 PUSH1 0xA0 SHL SUB DUP2 AND PUSH1 0x0 MSTORE PUSH1 0x5 PUSH1 0x20 MSTORE PUSH1 0x40 PUSH1 0x0 KECCAK256 CALLER PUSH1 0x0 MSTORE PUSH1 0x20 MSTORE PUSH1 0xFF PUSH1 0x40 PUSH1 0x0 KECCAK256 SLOAD AND ISZERO PUSH2 0x1264 JUMP JUMPDEST POP PUSH1 0x1 PUSH1 0x1 PUSH1 0xA0 SHL SUB DUP2 AND CALLER EQ ISZERO PUSH2 0x125E JUMP JUMPDEST CALLVALUE PUSH2 0x20A JUMPI PUSH1 0x20 CALLDATASIZE PUSH1 0x3 NOT ADD SLT PUSH2 0x20A JUMPI PUSH1 0x4 CALLDATALOAD PUSH2 0x1334 DUP2 PUSH2 0x1DFB JUMP JUMPDEST POP PUSH1 0x0 MSTORE PUSH1 0x4 PUSH1 0x20 MSTORE PUSH1 0x20 PUSH1 0x1 DUP1 PUSH1 0xA0 SHL SUB PUSH1 0x40 PUSH1 0x0 KECCAK256 SLOAD AND PUSH1 0x40 MLOAD SWAP1 DUP2 MSTORE RETURN JUMPDEST CALLVALUE PUSH2 0x20A JUMPI PUSH1 0x0 CALLDATASIZE PUSH1 0x3 NOT ADD SLT PUSH2 0x20A JUMPI PUSH1 0x40 MLOAD PUSH1 0x0 DUP1 SLOAD PUSH2 0x1376 DUP2 PUSH2 0x1B3B JUMP JUMPDEST DUP1 DUP5 MSTORE SWAP1 PUSH1 0x1 SWAP1 DUP2 DUP2 AND SWAP1 DUP2 ISZERO PUSH2 0xD44 JUMPI POP PUSH1 0x1 EQ PUSH2 0x139F JUMPI PUSH2 0x99C DUP5 PUSH2 0xCD7 DUP2 DUP7 SUB DUP3 PUSH2 0x19C8 JUMP JUMPDEST PUSH1 0x0 DUP1 DUP1 MSTORE SWAP3 POP PUSH32 0x290DECD9548B62A8D60345A988386FC84BA6BC95484008F6362F93160EF3E563 JUMPDEST DUP3 DUP5 LT PUSH2 0x13E0 JUMPI POP POP POP DUP2 ADD PUSH1 0x20 ADD PUSH2 0xCD7 DUP3 PUSH2 0xCC7 JUMP JUMPDEST DUP1 SLOAD PUSH1 0x20 DUP6 DUP8 ADD DUP2 ADD SWAP2 SWAP1 SWAP2 MSTORE SWAP1 SWAP4 ADD SWAP3 DUP2 ADD PUSH2 0x13C8 JUMP JUMPDEST CALLVALUE PUSH2 0x20A JUMPI PUSH1 0x20 CALLDATASIZE PUSH1 0x3 NOT ADD SLT PUSH2 0x20A JUMPI PUSH1 0x4 CALLDATALOAD PUSH4 0xFFFFFFFF PUSH1 0xE0 SHL DUP2 AND DUP1 SWAP2 SUB PUSH2 0x20A JUMPI PUSH1 0x20 SWAP1 PUSH4 0x24832483 PUSH1 0xE1 SHL DUP2 EQ SWAP1 DUP2 ISZERO PUSH2 0x143D JUMPI JUMPDEST POP PUSH1 0x40 MLOAD SWAP1 ISZERO ISZERO DUP2 MSTORE RETURN JUMPDEST PUSH4 0x80AC58CD PUSH1 0xE0 SHL DUP2 EQ SWAP2 POP DUP2 ISZERO PUSH2 0x146F JUMPI JUMPDEST DUP2 ISZERO PUSH2 0x145E JUMPI JUMPDEST POP DUP3 PUSH2 0x1432 JUMP JUMPDEST PUSH4 0x1FFC9A7 PUSH1 0xE0 SHL EQ SWAP1 POP DUP3 PUSH2 0x1457 JUMP JUMPDEST PUSH4 0x5B5E139F PUSH1 0xE0 SHL DUP2 EQ SWAP2 POP PUSH2 0x1450 JUMP JUMPDEST CALLVALUE PUSH2 0x20A JUMPI PUSH1 0xA0 CALLDATASIZE PUSH1 0x3 NOT ADD SLT PUSH2 0x20A JUMPI PUSH2 0x1499 PUSH2 0x194B JUMP JUMPDEST PUSH1 0xA PUSH1 0x24 CALLDATALOAD LT ISZERO PUSH2 0x20A JUMPI PUSH1 0x44 PUSH1 0xA DUP2 CALLDATALOAD LT ISZERO PUSH2 0x20A JUMPI PUSH1 0x64 SWAP2 DUP3 CALLDATALOAD SWAP1 PUSH1 0x84 CALLDATALOAD PUSH1 0x1 PUSH1 0x1 PUSH1 0x40 SHL SUB DUP2 GT PUSH2 0x20A JUMPI PUSH2 0x14D5 SWAP1 CALLDATASIZE SWAP1 PUSH1 0x4 ADD PUSH2 0x1A3B JUMP JUMPDEST PUSH1 0x7 SLOAD PUSH1 0x1 PUSH1 0x1 PUSH1 0xA0 SHL SUB SWAP4 SWAP1 PUSH2 0x14F5 SWAP1 DUP6 AND CALLER EQ DUP1 ISZERO PUSH2 0x92B JUMPI PUSH2 0x1F84 JUMP JUMPDEST PUSH2 0x14FD PUSH2 0x21D1 JUMP JUMPDEST PUSH1 0x24 CALLDATALOAD ISZERO PUSH2 0x18F8 JUMPI DUP5 CALLDATALOAD ISZERO PUSH2 0x18A5 JUMPI DUP4 DUP4 AND PUSH1 0x0 MSTORE PUSH1 0xA PUSH1 0x20 MSTORE PUSH1 0xFF PUSH2 0x1529 PUSH1 0x24 CALLDATALOAD PUSH1 0x40 PUSH1 0x0 KECCAK256 PUSH2 0x1B23 JUMP JUMPDEST SLOAD AND ISZERO PUSH2 0x1856 JUMPI DUP4 DUP4 AND PUSH1 0x0 MSTORE PUSH1 0xA PUSH1 0x20 MSTORE PUSH1 0xFF PUSH2 0x154C DUP7 CALLDATALOAD PUSH1 0x40 PUSH1 0x0 KECCAK256 PUSH2 0x1B23 JUMP JUMPDEST SLOAD AND PUSH2 0x1802 JUMPI PUSH2 0x1568 PUSH2 0x155F DUP7 CALLDATALOAD PUSH2 0x1B0A JUMP JUMPDEST SLOAD DUP3 LT ISZERO PUSH2 0x1FD0 JUMP JUMPDEST PUSH2 0x1574 PUSH1 0x24 CALLDATALOAD DUP5 PUSH2 0x26B0 JUMP JUMPDEST SWAP6 DUP7 ISZERO PUSH2 0x17C1 JUMPI POP PUSH1 0x40 MLOAD SWAP1 PUSH2 0x1589 DUP3 PUSH2 0x1977 JUMP JUMPDEST PUSH2 0x1594 DUP7 CALLDATALOAD DUP4 PUSH2 0x2050 JUMP JUMPDEST PUSH1 0x20 DUP3 ADD SWAP1 DUP2 MSTORE PUSH1 0x40 DUP3 ADD TIMESTAMP DUP2 MSTORE PUSH1 0x60 DUP4 ADD SWAP2 DUP5 DUP4 MSTORE DUP9 PUSH1 0x0 MSTORE PUSH1 0x9 PUSH1 0x20 MSTORE PUSH1 0x40 PUSH1 0x0 KECCAK256 SWAP4 MLOAD PUSH1 0xA DUP2 LT ISZERO PUSH2 0x822 JUMPI PUSH1 0xFF DUP1 NOT DUP7 SLOAD AND SWAP2 AND OR DUP5 SSTORE MLOAD PUSH1 0x1 DUP5 ADD SSTORE MLOAD PUSH1 0x2 DUP4 ADD SSTORE MLOAD DUP1 MLOAD SWAP1 PUSH1 0x1 PUSH1 0x1 PUSH1 0x40 SHL SUB DUP3 GT PUSH2 0x74B JUMPI PUSH2 0x15FA PUSH1 0x3 DUP5 ADD SLOAD PUSH2 0x1B3B JUMP JUMPDEST PUSH1 0x1F DUP2 GT PUSH2 0x1776 JUMPI JUMPDEST POP PUSH1 0x20 SWAP1 PUSH1 0x1F DUP4 GT PUSH1 0x1 EQ PUSH2 0x16DD JUMPI SWAP3 PUSH1 0x3 DUP4 PUSH2 0x16AB SWAP5 PUSH32 0x9646B9E2CCD35C2C07EB1846F9957DEF62D7AB5EB71AE4B72BA4221894E61E2B SWAP10 SWAP8 SWAP5 PUSH1 0x40 SWAP10 SWAP8 PUSH1 0x0 SWAP3 PUSH2 0x16D2 JUMPI JUMPDEST POP POP DUP2 PUSH1 0x1 SHL SWAP2 PUSH1 0x0 NOT SWAP1 DUP5 SHL SHR NOT AND OR SWAP2 ADD SSTORE JUMPDEST DUP4 DUP4 AND PUSH1 0x0 MSTORE PUSH1 0xA PUSH1 0x20 MSTORE PUSH2 0x1679 PUSH1 0x24 CALLDATALOAD DUP7 PUSH1 0x0 KECCAK256 PUSH2 0x1B23 JUMP JUMPDEST PUSH1 0xFF NOT DUP2 SLOAD AND SWAP1 SSTORE DUP4 DUP4 AND PUSH1 0x0 MSTORE PUSH1 0xA PUSH1 0x20 MSTORE PUSH2 0x169A DUP8 CALLDATALOAD DUP7 PUSH1 0x0 KECCAK256 PUSH2 0x1B23 JUMP JUMPDEST DUP1 SLOAD PUSH1 0xFF NOT AND PUSH1 0x1 OR SWAP1 SSTORE DUP8 PUSH2 0x205C JUMP JUMPDEST PUSH2 0x16C8 DUP4 MLOAD SWAP6 PUSH2 0x16BD DUP8 PUSH1 0x24 CALLDATALOAD PUSH2 0x1ACE JUMP JUMPDEST PUSH1 0x20 DUP8 ADD SWAP1 CALLDATALOAD PUSH2 0x1ACE JUMP JUMPDEST AND SWAP3 LOG3 PUSH1 0x1 PUSH1 0x8 SSTORE STOP JUMPDEST ADD MLOAD SWAP1 POP DUP13 DUP1 PUSH2 0x164A JUMP JUMPDEST SWAP1 PUSH1 0x3 DUP5 ADD PUSH1 0x0 MSTORE PUSH1 0x20 PUSH1 0x0 KECCAK256 SWAP2 PUSH1 0x0 JUMPDEST PUSH1 0x1F NOT DUP6 AND DUP2 LT PUSH2 0x175E JUMPI POP PUSH1 0x1 DUP5 PUSH32 0x9646B9E2CCD35C2C07EB1846F9957DEF62D7AB5EB71AE4B72BA4221894E61E2B SWAP10 SWAP8 SWAP5 PUSH1 0x40 SWAP10 SWAP8 SWAP5 PUSH1 0x3 SWAP5 PUSH2 0x16AB SWAP9 PUSH1 0x1F NOT DUP2 AND LT PUSH2 0x1746 JUMPI JUMPDEST POP POP POP DUP2 SHL ADD SWAP2 ADD SSTORE PUSH2 0x165F JUMP JUMPDEST ADD MLOAD PUSH1 0x0 NOT DUP4 DUP7 SHL PUSH1 0xF8 AND SHR NOT AND SWAP1 SSTORE DUP13 DUP1 DUP1 PUSH2 0x1738 JUMP JUMPDEST SWAP2 SWAP3 PUSH1 0x20 PUSH1 0x1 DUP2 SWAP3 DUP7 DUP6 ADD MLOAD DUP2 SSTORE ADD SWAP5 ADD SWAP3 ADD PUSH2 0x16EE JUMP JUMPDEST PUSH1 0x3 DUP5 ADD PUSH1 0x0 MSTORE PUSH1 0x20 PUSH1 0x0 KECCAK256 PUSH1 0x1F DUP5 ADD PUSH1 0x5 SHR DUP2 ADD SWAP2 PUSH1 0x20 DUP6 LT PUSH2 0x17B7 JUMPI JUMPDEST PUSH1 0x1F ADD PUSH1 0x5 SHR ADD SWAP1 JUMPDEST DUP2 DUP2 LT PUSH2 0x17AB JUMPI POP PUSH2 0x1603 JUMP JUMPDEST PUSH1 0x0 DUP2 SSTORE PUSH1 0x1 ADD PUSH2 0x179E JUMP JUMPDEST SWAP1 SWAP2 POP DUP2 SWAP1 PUSH2 0x1795 JUMP JUMPDEST PUSH1 0x40 MLOAD PUSH3 0x461BCD PUSH1 0xE5 SHL DUP2 MSTORE PUSH1 0x20 PUSH1 0x4 DUP3 ADD DUP2 SWAP1 MSTORE PUSH1 0x24 DUP3 ADD MSTORE PUSH32 0x536176696E677342616467654E46543A20546F6B656E206E6F7420666F756E64 DUP2 DUP9 ADD MSTORE REVERT JUMPDEST PUSH1 0x40 MLOAD PUSH3 0x461BCD PUSH1 0xE5 SHL DUP2 MSTORE PUSH1 0x20 PUSH1 0x4 DUP3 ADD MSTORE PUSH1 0x28 PUSH1 0x24 DUP3 ADD MSTORE PUSH32 0x536176696E677342616467654E46543A204E657720626164676520616C726561 DUP2 DUP8 ADD MSTORE PUSH8 0x191E481BDDDB9959 PUSH1 0xC2 SHL DUP2 DUP9 ADD MSTORE PUSH1 0x84 SWAP1 REVERT JUMPDEST PUSH1 0x40 MLOAD PUSH3 0x461BCD PUSH1 0xE5 SHL DUP2 MSTORE PUSH1 0x20 PUSH1 0x4 DUP3 ADD MSTORE PUSH1 0x24 DUP1 DUP3 ADD MSTORE PUSH32 0x536176696E677342616467654E46543A204F6C64206261646765206E6F74206F DUP2 DUP8 ADD MSTORE PUSH4 0x1DDB9959 PUSH1 0xE2 SHL DUP2 DUP9 ADD MSTORE PUSH1 0x84 SWAP1 REVERT JUMPDEST PUSH1 0x40 MLOAD PUSH3 0x461BCD PUSH1 0xE5 SHL DUP2 MSTORE PUSH1 0x20 PUSH1 0x4 DUP3 ADD MSTORE PUSH1 0x27 PUSH1 0x24 DUP3 ADD MSTORE PUSH32 0x536176696E677342616467654E46543A20496E76616C6964206E657720626164 DUP2 DUP8 ADD MSTORE PUSH7 0x67652074797065 PUSH1 0xC8 SHL DUP2 DUP9 ADD MSTORE PUSH1 0x84 SWAP1 REVERT JUMPDEST PUSH1 0x40 MLOAD PUSH3 0x461BCD PUSH1 0xE5 SHL DUP2 MSTORE PUSH1 0x20 PUSH1 0x4 DUP3 ADD MSTORE PUSH1 0x27 PUSH1 0x24 DUP3 ADD MSTORE PUSH32 0x536176696E677342616467654E46543A20496E76616C6964206F6C6420626164 DUP2 DUP8 ADD MSTORE PUSH7 0x67652074797065 PUSH1 0xC8 SHL DUP2 DUP9 ADD MSTORE PUSH1 0x84 SWAP1 REVERT JUMPDEST PUSH1 0x4 CALLDATALOAD SWAP1 PUSH1 0x1 PUSH1 0x1 PUSH1 0xA0 SHL SUB DUP3 AND DUP3 SUB PUSH2 0x20A JUMPI JUMP JUMPDEST PUSH1 0x24 CALLDATALOAD SWAP1 PUSH1 0x1 PUSH1 0x1 PUSH1 0xA0 SHL SUB DUP3 AND DUP3 SUB PUSH2 0x20A JUMPI JUMP JUMPDEST PUSH1 0x80 DUP2 ADD SWAP1 DUP2 LT PUSH1 0x1 PUSH1 0x1 PUSH1 0x40 SHL SUB DUP3 GT OR PUSH2 0x74B JUMPI PUSH1 0x40 MSTORE JUMP JUMPDEST PUSH1 0x20 DUP2 ADD SWAP1 DUP2 LT PUSH1 0x1 PUSH1 0x1 PUSH1 0x40 SHL SUB DUP3 GT OR PUSH2 0x74B JUMPI PUSH1 0x40 MSTORE JUMP JUMPDEST PUSH1 0x40 DUP2 ADD SWAP1 DUP2 LT PUSH1 0x1 PUSH1 0x1 PUSH1 0x40 SHL SUB DUP3 GT OR PUSH2 0x74B JUMPI PUSH1 0x40 MSTORE JUMP JUMPDEST SWAP1 PUSH1 0x1F DUP1 NOT SWAP2 ADD AND DUP2 ADD SWAP1 DUP2 LT PUSH1 0x1 PUSH1 0x1 PUSH1 0x40 SHL SUB DUP3 GT OR PUSH2 0x74B JUMPI PUSH1 0x40 MSTORE JUMP JUMPDEST PUSH1 0x1 PUSH1 0x1 PUSH1 0x40 SHL SUB DUP2 GT PUSH2 0x74B JUMPI PUSH1 0x1F ADD PUSH1 0x1F NOT AND PUSH1 0x20 ADD SWAP1 JUMP JUMPDEST SWAP3 SWAP2 SWAP3 PUSH2 0x1A10 DUP3 PUSH2 0x19E9 JUMP JUMPDEST SWAP2 PUSH2 0x1A1E PUSH1 0x40 MLOAD SWAP4 DUP5 PUSH2 0x19C8 JUMP JUMPDEST DUP3 SWAP5 DUP2 DUP5 MSTORE DUP2 DUP4 ADD GT PUSH2 0x20A JUMPI DUP3 DUP2 PUSH1 0x20 SWAP4 DUP5 PUSH1 0x0 SWAP7 ADD CALLDATACOPY ADD ADD MSTORE JUMP JUMPDEST SWAP1 DUP1 PUSH1 0x1F DUP4 ADD SLT ISZERO PUSH2 0x20A JUMPI DUP2 PUSH1 0x20 PUSH2 0x1A56 SWAP4 CALLDATALOAD SWAP2 ADD PUSH2 0x1A04 JUMP JUMPDEST SWAP1 JUMP JUMPDEST SWAP2 SWAP1 DUP3 MLOAD SWAP3 DUP4 DUP3 MSTORE PUSH1 0x0 JUMPDEST DUP5 DUP2 LT PUSH2 0x1A85 JUMPI POP POP DUP3 PUSH1 0x0 PUSH1 0x20 DUP1 SWAP5 SWAP6 DUP5 ADD ADD MSTORE PUSH1 0x1F DUP1 NOT SWAP2 ADD AND ADD ADD SWAP1 JUMP JUMPDEST PUSH1 0x20 DUP2 DUP4 ADD DUP2 ADD MLOAD DUP5 DUP4 ADD DUP3 ADD MSTORE ADD PUSH2 0x1A64 JUMP JUMPDEST PUSH1 0x60 SWAP1 PUSH1 0x3 NOT ADD SLT PUSH2 0x20A JUMPI PUSH1 0x1 PUSH1 0x1 PUSH1 0xA0 SHL SUB SWAP1 PUSH1 0x4 CALLDATALOAD DUP3 DUP2 AND DUP2 SUB PUSH2 0x20A JUMPI SWAP2 PUSH1 0x24 CALLDATALOAD SWAP1 DUP2 AND DUP2 SUB PUSH2 0x20A JUMPI SWAP1 PUSH1 0x44 CALLDATALOAD SWAP1 JUMP JUMPDEST SWAP1 PUSH1 0xA DUP3 LT ISZERO PUSH2 0x822 JUMPI MSTORE JUMP JUMPDEST PUSH1 0x40 SWAP1 PUSH1 0x3 NOT ADD SLT PUSH2 0x20A JUMPI PUSH1 0x4 CALLDATALOAD PUSH1 0x1 PUSH1 0x1 PUSH1 0xA0 SHL SUB DUP2 AND DUP2 SUB PUSH2 0x20A JUMPI SWAP1 PUSH1 0x24 CALLDATALOAD PUSH1 0xA DUP2 LT ISZERO PUSH2 0x20A JUMPI SWAP1 JUMP JUMPDEST PUSH1 0xA DUP2 LT ISZERO PUSH2 0x822 JUMPI PUSH1 0x0 MSTORE PUSH1 0xE PUSH1 0x20 MSTORE PUSH1 0x40 PUSH1 0x0 KECCAK256 SWAP1 JUMP JUMPDEST SWAP1 PUSH1 0xA DUP2 LT ISZERO PUSH2 0x822 JUMPI PUSH1 0x0 MSTORE PUSH1 0x20 MSTORE PUSH1 0x40 PUSH1 0x0 KECCAK256 SWAP1 JUMP JUMPDEST SWAP1 PUSH1 0x1 DUP3 DUP2 SHR SWAP3 AND DUP1 ISZERO PUSH2 0x1B6B JUMPI JUMPDEST PUSH1 0x20 DUP4 LT EQ PUSH2 0x1B55 JUMPI JUMP JUMPDEST PUSH4 0x4E487B71 PUSH1 0xE0 SHL PUSH1 0x0 MSTORE PUSH1 0x22 PUSH1 0x4 MSTORE PUSH1 0x24 PUSH1 0x0 REVERT JUMPDEST SWAP2 PUSH1 0x7F AND SWAP2 PUSH2 0x1B4A JUMP JUMPDEST SWAP1 PUSH1 0x40 MLOAD SWAP2 DUP3 PUSH1 0x0 DUP3 SLOAD SWAP3 PUSH2 0x1B89 DUP5 PUSH2 0x1B3B JUMP JUMPDEST SWAP1 DUP2 DUP5 MSTORE PUSH1 0x1 SWAP5 DUP6 DUP2 AND SWAP1 DUP2 PUSH1 0x0 EQ PUSH2 0x1BF8 JUMPI POP PUSH1 0x1 EQ PUSH2 0x1BB5 JUMPI JUMPDEST POP POP PUSH2 0x1BB3 SWAP3 POP SUB DUP4 PUSH2 0x19C8 JUMP JUMPDEST JUMP JUMPDEST SWAP1 SWAP4 SWAP2 POP PUSH1 0x0 MSTORE PUSH1 0x20 SWAP1 DUP2 PUSH1 0x0 KECCAK256 SWAP4 PUSH1 0x0 SWAP2 JUMPDEST DUP2 DUP4 LT PUSH2 0x1BE0 JUMPI POP POP PUSH2 0x1BB3 SWAP4 POP DUP3 ADD ADD CODESIZE DUP1 PUSH2 0x1BA5 JUMP JUMPDEST DUP6 SLOAD DUP9 DUP5 ADD DUP6 ADD MSTORE SWAP5 DUP6 ADD SWAP5 DUP8 SWAP5 POP SWAP2 DUP4 ADD SWAP2 PUSH2 0x1BC8 JUMP JUMPDEST SWAP2 POP POP PUSH2 0x1BB3 SWAP5 POP PUSH1 0x20 SWAP3 POP PUSH1 0xFF NOT AND DUP3 DUP5 ADD MSTORE ISZERO ISZERO PUSH1 0x5 SHL DUP3 ADD ADD CODESIZE DUP1 PUSH2 0x1BA5 JUMP JUMPDEST DUP1 SLOAD DUP3 LT ISZERO PUSH2 0x1C33 JUMPI PUSH1 0x0 MSTORE PUSH1 0x20 PUSH1 0x0 KECCAK256 ADD SWAP1 PUSH1 0x0 SWAP1 JUMP JUMPDEST PUSH4 0x4E487B71 PUSH1 0xE0 SHL PUSH1 0x0 MSTORE PUSH1 0x32 PUSH1 0x4 MSTORE PUSH1 0x24 PUSH1 0x0 REVERT JUMPDEST PUSH1 0x7 SLOAD PUSH1 0x1 PUSH1 0x1 PUSH1 0xA0 SHL SUB AND CALLER SUB PUSH2 0x1C5D JUMPI JUMP JUMPDEST PUSH1 0x40 MLOAD PUSH4 0x118CDAA7 PUSH1 0xE0 SHL DUP2 MSTORE CALLER PUSH1 0x4 DUP3 ADD MSTORE PUSH1 0x24 SWAP1 REVERT JUMPDEST PUSH1 0x1 PUSH1 0x1 PUSH1 0xA0 SHL SUB SWAP2 DUP3 AND SWAP3 SWAP1 SWAP2 DUP4 ISZERO PUSH2 0x732 JUMPI PUSH1 0x0 SWAP3 DUP3 DUP5 MSTORE DUP3 PUSH1 0x20 SWAP6 PUSH1 0x2 DUP8 MSTORE PUSH1 0x40 SWAP7 DUP5 DUP9 DUP9 KECCAK256 SLOAD AND SWAP7 DUP8 SWAP2 CALLER ISZERO ISZERO DUP1 PUSH2 0x1D65 JUMPI JUMPDEST POP SWAP1 PUSH1 0x2 PUSH32 0xDDF252AD1BE2C89B69C2B068FC378DAA952BA7F163C4A11628F55A4DF523B3EF SWAP3 DUP5 PUSH2 0x1D32 JUMPI JUMPDEST DUP6 DUP4 MSTORE PUSH1 0x3 DUP2 MSTORE DUP12 DUP4 KECCAK256 DUP1 SLOAD PUSH1 0x1 ADD SWAP1 SSTORE DUP7 DUP4 MSTORE MSTORE DUP10 DUP2 KECCAK256 DUP1 SLOAD PUSH1 0x1 PUSH1 0x1 PUSH1 0xA0 SHL SUB NOT AND DUP6 OR SWAP1 SSTORE DUP1 LOG4 AND SWAP3 DUP4 DUP4 SUB PUSH2 0x1D11 JUMPI POP POP POP POP JUMP JUMPDEST PUSH1 0x64 SWAP5 POP MLOAD SWAP3 PUSH4 0x64283D7B PUSH1 0xE0 SHL DUP5 MSTORE PUSH1 0x4 DUP5 ADD MSTORE PUSH1 0x24 DUP4 ADD MSTORE PUSH1 0x44 DUP3 ADD MSTORE REVERT JUMPDEST PUSH1 0x0 DUP8 DUP2 MSTORE PUSH1 0x4 PUSH1 0x20 MSTORE PUSH1 0x40 SWAP1 KECCAK256 DUP1 SLOAD PUSH1 0x1 PUSH1 0x1 PUSH1 0xA0 SHL SUB NOT AND SWAP1 SSTORE DUP5 DUP4 MSTORE PUSH1 0x3 DUP2 MSTORE DUP12 DUP4 KECCAK256 DUP1 SLOAD PUSH1 0x0 NOT ADD SWAP1 SSTORE PUSH2 0x1CD8 JUMP JUMPDEST SWAP2 SWAP4 SWAP5 POP SWAP2 POP DUP1 PUSH2 0x1DBA JUMPI JUMPDEST ISZERO PUSH2 0x1D81 JUMPI DUP6 SWAP3 SWAP2 DUP8 SWAP2 CODESIZE PUSH2 0x1CAC JUMP JUMPDEST DUP8 DUP7 DUP9 PUSH2 0x1D9E JUMPI PUSH1 0x24 SWAP2 MLOAD SWAP1 PUSH4 0x7E273289 PUSH1 0xE0 SHL DUP3 MSTORE PUSH1 0x4 DUP3 ADD MSTORE REVERT JUMPDEST PUSH1 0x44 SWAP2 MLOAD SWAP1 PUSH4 0x177E802F PUSH1 0xE0 SHL DUP3 MSTORE CALLER PUSH1 0x4 DUP4 ADD MSTORE PUSH1 0x24 DUP3 ADD MSTORE REVERT JUMPDEST POP CALLER DUP8 EQ DUP1 ISZERO PUSH2 0x1DDF JUMPI JUMPDEST DUP1 PUSH2 0x1D71 JUMPI POP DUP6 DUP3 MSTORE PUSH1 0x4 DUP2 MSTORE CALLER DUP6 DUP10 DUP5 KECCAK256 SLOAD AND EQ PUSH2 0x1D71 JUMP JUMPDEST POP DUP7 DUP3 MSTORE PUSH1 0x5 DUP2 MSTORE DUP8 DUP3 KECCAK256 CALLER DUP4 MSTORE DUP2 MSTORE PUSH1 0xFF DUP9 DUP4 KECCAK256 SLOAD AND PUSH2 0x1DC5 JUMP JUMPDEST PUSH1 0x0 DUP2 DUP2 MSTORE PUSH1 0x2 PUSH1 0x20 MSTORE PUSH1 0x40 SWAP1 KECCAK256 SLOAD PUSH1 0x1 PUSH1 0x1 PUSH1 0xA0 SHL SUB AND SWAP1 DUP2 ISZERO PUSH2 0x1E1E JUMPI POP SWAP1 JUMP JUMPDEST PUSH1 0x24 SWAP1 PUSH1 0x40 MLOAD SWAP1 PUSH4 0x7E273289 PUSH1 0xE0 SHL DUP3 MSTORE PUSH1 0x4 DUP3 ADD MSTORE REVERT JUMPDEST SWAP1 SWAP4 SWAP2 SWAP3 DUP4 EXTCODESIZE PUSH2 0x1E48 JUMPI JUMPDEST POP POP POP POP POP JUMP JUMPDEST PUSH1 0x40 MLOAD PUSH4 0xA85BD01 PUSH1 0xE1 SHL DUP1 DUP3 MSTORE PUSH1 0x1 PUSH1 0x1 PUSH1 0xA0 SHL SUB SWAP4 DUP5 AND PUSH1 0x4 DUP4 ADD MSTORE SWAP6 DUP4 AND PUSH1 0x24 DUP3 ADD MSTORE PUSH1 0x44 DUP2 ADD SWAP2 SWAP1 SWAP2 MSTORE PUSH1 0x80 PUSH1 0x64 DUP3 ADD MSTORE SWAP5 SWAP3 AND SWAP3 PUSH1 0x20 SWAP3 SWAP2 DUP6 SWAP1 PUSH2 0x1E95 SWAP1 PUSH1 0x84 DUP4 ADD SWAP1 PUSH2 0x1A59 JUMP JUMPDEST SUB SWAP5 DUP4 DUP2 PUSH1 0x0 SWAP8 DUP2 DUP10 DUP10 GAS CALL DUP7 SWAP2 DUP2 PUSH2 0x1F40 JUMPI JUMPDEST POP PUSH2 0x1F0A JUMPI POP POP POP RETURNDATASIZE PUSH1 0x0 EQ PUSH2 0x1F01 JUMPI RETURNDATASIZE PUSH2 0x1EC3 DUP2 PUSH2 0x19E9 JUMP JUMPDEST SWAP1 PUSH2 0x1ED1 PUSH1 0x40 MLOAD SWAP3 DUP4 PUSH2 0x19C8 JUMP JUMPDEST DUP2 MSTORE DUP1 SWAP4 DUP3 RETURNDATASIZE SWAP3 ADD RETURNDATACOPY JUMPDEST DUP3 MLOAD SWAP3 DUP4 PUSH2 0x1EFC JUMPI PUSH1 0x40 MLOAD PUSH4 0x32505749 PUSH1 0xE1 SHL DUP2 MSTORE PUSH1 0x4 DUP2 ADD DUP5 SWAP1 MSTORE PUSH1 0x24 SWAP1 REVERT JUMPDEST ADD SWAP1 POP REVERT JUMPDEST PUSH1 0x60 SWAP3 POP PUSH2 0x1EDB JUMP JUMPDEST SWAP2 SWAP5 POP SWAP2 POP PUSH4 0xFFFFFFFF PUSH1 0xE0 SHL AND SUB PUSH2 0x1F28 JUMPI POP CODESIZE DUP1 DUP1 DUP1 DUP1 PUSH2 0x1E41 JUMP JUMPDEST PUSH1 0x24 SWAP1 PUSH1 0x40 MLOAD SWAP1 PUSH4 0x32505749 PUSH1 0xE1 SHL DUP3 MSTORE PUSH1 0x4 DUP3 ADD MSTORE REVERT JUMPDEST SWAP1 SWAP2 POP DUP5 DUP2 DUP2 RETURNDATASIZE DUP4 GT PUSH2 0x1F7D JUMPI JUMPDEST PUSH2 0x1F58 DUP2 DUP4 PUSH2 0x19C8 JUMP JUMPDEST DUP2 ADD SUB SLT PUSH2 0x1F79 JUMPI MLOAD PUSH1 0x1 PUSH1 0x1 PUSH1 0xE0 SHL SUB NOT DUP2 AND DUP2 SUB PUSH2 0x1F79 JUMPI SWAP1 CODESIZE PUSH2 0x1EA9 JUMP JUMPDEST DUP7 DUP1 REVERT JUMPDEST POP RETURNDATASIZE PUSH2 0x1F4E JUMP JUMPDEST ISZERO PUSH2 0x1F8B JUMPI JUMP JUMPDEST PUSH1 0x40 MLOAD PUSH3 0x461BCD PUSH1 0xE5 SHL DUP2 MSTORE PUSH1 0x20 PUSH1 0x4 DUP3 ADD MSTORE PUSH1 0x1F PUSH1 0x24 DUP3 ADD MSTORE PUSH32 0x536176696E677342616467654E46543A204E6F7420617574686F72697A656400 PUSH1 0x44 DUP3 ADD MSTORE PUSH1 0x64 SWAP1 REVERT JUMPDEST ISZERO PUSH2 0x1FD7 JUMPI JUMP JUMPDEST PUSH1 0x40 MLOAD PUSH3 0x461BCD PUSH1 0xE5 SHL DUP2 MSTORE PUSH1 0x20 PUSH1 0x4 DUP3 ADD MSTORE PUSH1 0x26 PUSH1 0x24 DUP3 ADD MSTORE PUSH32 0x536176696E677342616467654E46543A204D696C6573746F6E65206E6F742072 PUSH1 0x44 DUP3 ADD MSTORE PUSH6 0x195858DA1959 PUSH1 0xD2 SHL PUSH1 0x64 DUP3 ADD MSTORE PUSH1 0x84 SWAP1 REVERT JUMPDEST PUSH1 0x0 NOT DUP2 EQ PUSH2 0x203A JUMPI PUSH1 0x1 ADD SWAP1 JUMP JUMPDEST PUSH4 0x4E487B71 PUSH1 0xE0 SHL PUSH1 0x0 MSTORE PUSH1 0x11 PUSH1 0x4 MSTORE PUSH1 0x24 PUSH1 0x0 REVERT JUMPDEST PUSH1 0xA DUP3 LT ISZERO PUSH2 0x822 JUMPI MSTORE JUMP JUMPDEST SWAP2 SWAP1 SWAP2 PUSH1 0x0 SWAP1 DUP1 DUP3 MSTORE PUSH1 0x20 SWAP2 PUSH1 0x6 DUP4 MSTORE PUSH1 0x40 DUP2 KECCAK256 SWAP1 DUP6 MLOAD SWAP1 PUSH1 0x1 PUSH1 0x1 PUSH1 0x40 SHL SUB DUP3 GT PUSH2 0x21BD JUMPI PUSH2 0x208C DUP4 SLOAD PUSH2 0x1B3B JUMP JUMPDEST PUSH1 0x1F DUP2 GT PUSH2 0x217A JUMPI JUMPDEST POP DUP5 SWAP1 PUSH1 0x1F DUP4 GT PUSH1 0x1 EQ PUSH2 0x20F6 JUMPI SWAP1 PUSH32 0xF8E1A15ABA9398E019F0B49DF1A4FDE98EE17AE345CB5F6B5E2C27F5033E8CE7 SWAP7 SWAP8 DUP4 PUSH2 0x20EB JUMPI JUMPDEST POP POP DUP2 PUSH1 0x1 SHL SWAP2 PUSH1 0x0 NOT SWAP1 PUSH1 0x3 SHL SHR NOT AND OR SWAP1 SSTORE JUMPDEST PUSH1 0x40 MLOAD SWAP1 DUP2 MSTORE LOG1 JUMP JUMPDEST ADD MLOAD SWAP1 POP CODESIZE DUP1 PUSH2 0x20CD JUMP JUMPDEST SWAP2 SWAP7 PUSH1 0x1F NOT DUP9 AND DUP5 DUP5 MSTORE DUP7 DUP5 KECCAK256 SWAP4 JUMPDEST DUP2 DUP2 LT PUSH2 0x2163 JUMPI POP SWAP2 PUSH1 0x1 SWAP4 SWAP2 DUP10 PUSH32 0xF8E1A15ABA9398E019F0B49DF1A4FDE98EE17AE345CB5F6B5E2C27F5033E8CE7 SWAP10 SWAP11 SWAP5 LT PUSH2 0x214A JUMPI JUMPDEST POP POP POP DUP2 SHL ADD SWAP1 SSTORE PUSH2 0x20E2 JUMP JUMPDEST ADD MLOAD PUSH1 0x0 NOT PUSH1 0xF8 DUP5 PUSH1 0x3 SHL AND SHR NOT AND SWAP1 SSTORE CODESIZE DUP1 DUP1 PUSH2 0x213D JUMP JUMPDEST SWAP3 SWAP4 DUP8 PUSH1 0x1 DUP2 SWAP3 DUP8 DUP7 ADD MLOAD DUP2 SSTORE ADD SWAP6 ADD SWAP4 ADD PUSH2 0x2105 JUMP JUMPDEST DUP4 DUP3 MSTORE DUP6 DUP3 KECCAK256 PUSH1 0x1F DUP5 ADD PUSH1 0x5 SHR DUP2 ADD SWAP2 DUP8 DUP6 LT PUSH2 0x21B3 JUMPI JUMPDEST PUSH1 0x1F ADD PUSH1 0x5 SHR ADD SWAP1 JUMPDEST DUP2 DUP2 LT PUSH2 0x21A8 JUMPI POP PUSH2 0x2095 JUMP JUMPDEST DUP3 DUP2 SSTORE PUSH1 0x1 ADD PUSH2 0x219B JUMP JUMPDEST SWAP1 SWAP2 POP DUP2 SWAP1 PUSH2 0x2192 JUMP JUMPDEST PUSH4 0x4E487B71 PUSH1 0xE0 SHL DUP2 MSTORE PUSH1 0x41 PUSH1 0x4 MSTORE PUSH1 0x24 SWAP1 REVERT JUMPDEST PUSH1 0x2 PUSH1 0x8 SLOAD EQ PUSH2 0x21E2 JUMPI PUSH1 0x2 PUSH1 0x8 SSTORE JUMP JUMPDEST PUSH1 0x40 MLOAD PUSH4 0x3EE5AEB5 PUSH1 0xE0 SHL DUP2 MSTORE PUSH1 0x4 SWAP1 REVERT JUMPDEST PUSH1 0x1 PUSH1 0x1 PUSH1 0x40 SHL SUB DUP2 GT PUSH2 0x74B JUMPI PUSH1 0x5 SHL PUSH1 0x20 ADD SWAP1 JUMP JUMPDEST DUP1 MLOAD DUP3 LT ISZERO PUSH2 0x1C33 JUMPI PUSH1 0x20 SWAP2 PUSH1 0x5 SHL ADD ADD SWAP1 JUMP JUMPDEST PUSH1 0xA DUP2 LT ISZERO PUSH2 0x822 JUMPI PUSH1 0x1 DUP2 EQ PUSH2 0x23EB JUMPI PUSH1 0x2 DUP2 EQ PUSH2 0x23BE JUMPI PUSH1 0x3 DUP2 EQ PUSH2 0x2392 JUMPI PUSH1 0x4 DUP2 EQ PUSH2 0x2369 JUMPI PUSH1 0x5 DUP2 EQ PUSH2 0x2340 JUMPI PUSH1 0x6 DUP2 EQ PUSH2 0x2317 JUMPI PUSH1 0x7 DUP2 EQ PUSH2 0x22EE JUMPI PUSH1 0x8 DUP2 EQ PUSH2 0x22C5 JUMPI PUSH1 0x9 EQ PUSH2 0x2298 JUMPI PUSH1 0x40 MLOAD PUSH2 0x227B DUP2 PUSH2 0x19AD JUMP JUMPDEST PUSH1 0xD DUP2 MSTORE PUSH13 0x556E6B6E6F776E204261646765 PUSH1 0x98 SHL PUSH1 0x20 DUP3 ADD MSTORE SWAP1 JUMP JUMPDEST PUSH1 0x40 MLOAD PUSH2 0x22A4 DUP2 PUSH2 0x19AD JUMP JUMPDEST PUSH1 0x11 DUP2 MSTORE PUSH17 0x26B4B63634B7B730B4B9329029B0BB32B9 PUSH1 0x79 SHL PUSH1 0x20 DUP3 ADD MSTORE SWAP1 JUMP JUMPDEST POP PUSH1 0x40 MLOAD PUSH2 0x22D2 DUP2 PUSH2 0x19AD JUMP JUMPDEST PUSH1 0xC DUP2 MSTORE PUSH12 0x2CB4B2B63210243AB73A32B9 PUSH1 0xA1 SHL PUSH1 0x20 DUP3 ADD MSTORE SWAP1 JUMP JUMPDEST POP PUSH1 0x40 MLOAD PUSH2 0x22FB DUP2 PUSH2 0x19AD JUMP JUMPDEST PUSH1 0xC DUP2 MSTORE PUSH12 0x29B7B1B4B0B61029B0BB32B9 PUSH1 0xA1 SHL PUSH1 0x20 DUP3 ADD MSTORE SWAP1 JUMP JUMPDEST POP PUSH1 0x40 MLOAD PUSH2 0x2324 DUP2 PUSH2 0x19AD JUMP JUMPDEST PUSH1 0xC DUP2 MSTORE PUSH12 0x23B937BAB8102632B0B232B9 PUSH1 0xA1 SHL PUSH1 0x20 DUP3 ADD MSTORE SWAP1 JUMP JUMPDEST POP PUSH1 0x40 MLOAD PUSH2 0x234D DUP2 PUSH2 0x19AD JUMP JUMPDEST PUSH1 0xC DUP2 MSTORE PUSH12 0x2632B3B2B7321029B0BB32B9 PUSH1 0xA1 SHL PUSH1 0x20 DUP3 ADD MSTORE SWAP1 JUMP JUMPDEST POP PUSH1 0x40 MLOAD PUSH2 0x2376 DUP2 PUSH2 0x19AD JUMP JUMPDEST PUSH1 0xC DUP2 MSTORE PUSH12 0x26B0B9BA32B91029B0BB32B9 PUSH1 0xA1 SHL PUSH1 0x20 DUP3 ADD MSTORE SWAP1 JUMP JUMPDEST POP PUSH1 0x40 MLOAD PUSH2 0x239F DUP2 PUSH2 0x19AD JUMP JUMPDEST PUSH1 0xF DUP2 MSTORE PUSH15 0x2232B234B1B0BA32B21029B0BB32B9 PUSH1 0x89 SHL PUSH1 0x20 DUP3 ADD MSTORE SWAP1 JUMP JUMPDEST POP PUSH1 0x40 MLOAD PUSH2 0x23CB DUP2 PUSH2 0x19AD JUMP JUMPDEST PUSH1 0x10 DUP2 MSTORE PUSH16 0x21B7B739B4B9BA32B73A1029B0BB32B9 PUSH1 0x81 SHL PUSH1 0x20 DUP3 ADD MSTORE SWAP1 JUMP JUMPDEST POP PUSH1 0x40 MLOAD PUSH2 0x23F8 DUP2 PUSH2 0x19AD JUMP JUMPDEST PUSH1 0xD DUP2 MSTORE PUSH13 0x29BA30B93A32B91029B0BB32B9 PUSH1 0x99 SHL PUSH1 0x20 DUP3 ADD MSTORE SWAP1 JUMP JUMPDEST PUSH1 0xA DUP2 LT ISZERO PUSH2 0x822 JUMPI PUSH1 0x1 DUP2 EQ PUSH2 0x265B JUMPI PUSH1 0x2 DUP2 EQ PUSH2 0x2621 JUMPI PUSH1 0x3 DUP2 EQ PUSH2 0x25E7 JUMPI PUSH1 0x4 DUP2 EQ PUSH2 0x25AD JUMPI PUSH1 0x5 DUP2 EQ PUSH2 0x2573 JUMPI PUSH1 0x6 DUP2 EQ PUSH2 0x2539 JUMPI PUSH1 0x7 DUP2 EQ PUSH2 0x24FF JUMPI PUSH1 0x8 DUP2 EQ PUSH2 0x24C5 JUMPI PUSH1 0x9 EQ PUSH2 0x2494 JUMPI PUSH1 0x40 MLOAD PUSH2 0x2471 DUP2 PUSH2 0x19AD JUMP JUMPDEST PUSH1 0x13 DUP2 MSTORE PUSH19 0x155B9ADB9BDDDB881858DA1A595D995B595B9D PUSH1 0x6A SHL PUSH1 0x20 DUP3 ADD MSTORE SWAP1 JUMP JUMPDEST PUSH1 0x40 MLOAD PUSH2 0x24A0 DUP2 PUSH2 0x19AD JUMP JUMPDEST PUSH1 0x15 DUP2 MSTORE PUSH21 0x14D85D9959080C4C0C0C0810D15313C81D1BDD185B PUSH1 0x5A SHL PUSH1 0x20 DUP3 ADD MSTORE SWAP1 JUMP JUMPDEST POP PUSH1 0x40 MLOAD PUSH2 0x24D2 DUP2 PUSH2 0x19AD JUMP JUMPDEST PUSH1 0x18 DUP2 MSTORE PUSH32 0x4561726E6564203130302043454C4F20696E207969656C640000000000000000 PUSH1 0x20 DUP3 ADD MSTORE SWAP1 JUMP JUMPDEST POP PUSH1 0x40 MLOAD PUSH2 0x250C DUP2 PUSH2 0x19AD JUMP JUMPDEST PUSH1 0x1D DUP2 MSTORE PUSH32 0x4A6F696E65642031302067726F757020736176696E677320706F6F6C73000000 PUSH1 0x20 DUP3 ADD MSTORE SWAP1 JUMP JUMPDEST POP PUSH1 0x40 MLOAD PUSH2 0x2546 DUP2 PUSH2 0x19AD JUMP JUMPDEST PUSH1 0x1D DUP2 MSTORE PUSH32 0x4372656174656420352067726F757020736176696E677320706F6F6C73000000 PUSH1 0x20 DUP3 ADD MSTORE SWAP1 JUMP JUMPDEST POP PUSH1 0x40 MLOAD PUSH2 0x2580 DUP2 PUSH2 0x19AD JUMP JUMPDEST PUSH1 0x1A DUP2 MSTORE PUSH32 0x436F6D706C6574656420353020736176696E677320676F616C73000000000000 PUSH1 0x20 DUP3 ADD MSTORE SWAP1 JUMP JUMPDEST POP PUSH1 0x40 MLOAD PUSH2 0x25BA DUP2 PUSH2 0x19AD JUMP JUMPDEST PUSH1 0x1A DUP2 MSTORE PUSH32 0x436F6D706C6574656420323520736176696E677320676F616C73000000000000 PUSH1 0x20 DUP3 ADD MSTORE SWAP1 JUMP JUMPDEST POP PUSH1 0x40 MLOAD PUSH2 0x25F4 DUP2 PUSH2 0x19AD JUMP JUMPDEST PUSH1 0x1A DUP2 MSTORE PUSH32 0x436F6D706C6574656420313020736176696E677320676F616C73000000000000 PUSH1 0x20 DUP3 ADD MSTORE SWAP1 JUMP JUMPDEST POP PUSH1 0x40 MLOAD PUSH2 0x262E DUP2 PUSH2 0x19AD JUMP JUMPDEST PUSH1 0x19 DUP2 MSTORE PUSH32 0x436F6D706C65746564203520736176696E677320676F616C7300000000000000 PUSH1 0x20 DUP3 ADD MSTORE SWAP1 JUMP JUMPDEST POP PUSH1 0x40 MLOAD PUSH1 0x60 DUP2 ADD DUP2 DUP2 LT PUSH1 0x1 PUSH1 0x1 PUSH1 0x40 SHL SUB DUP3 GT OR PUSH2 0x74B JUMPI PUSH1 0x40 MSTORE PUSH1 0x22 DUP2 MSTORE PUSH32 0x436F6D706C6574656420796F757220666972737420736176696E677320676F61 PUSH1 0x20 DUP3 ADD MSTORE PUSH2 0x6C21 PUSH1 0xF0 SHL PUSH1 0x40 DUP3 ADD MSTORE SWAP1 JUMP JUMPDEST PUSH1 0x0 SWAP1 PUSH1 0x1 DUP1 PUSH1 0xA0 SHL SUB AND DUP2 MSTORE PUSH1 0x20 SWAP2 PUSH1 0xB DUP4 MSTORE PUSH1 0x40 SWAP2 DUP3 DUP2 KECCAK256 SWAP3 DUP1 MLOAD DUP1 DUP6 DUP8 DUP3 SWAP8 SLOAD SWAP4 DUP5 DUP2 MSTORE ADD SWAP1 DUP6 MSTORE DUP8 DUP6 KECCAK256 SWAP3 DUP6 JUMPDEST DUP10 DUP3 DUP3 LT PUSH2 0x2784 JUMPI POP POP POP PUSH2 0x26F8 SWAP3 POP SUB DUP6 PUSH2 0x19C8 JUMP JUMPDEST DUP2 JUMPDEST DUP5 MLOAD DUP2 LT ISZERO PUSH2 0x277B JUMPI PUSH2 0x270D DUP2 DUP7 PUSH2 0x220B JUMP JUMPDEST MLOAD DUP4 MSTORE PUSH1 0x9 DUP7 MSTORE PUSH1 0xFF DUP3 DUP5 KECCAK256 SLOAD AND PUSH1 0xA DUP1 DUP7 LT ISZERO PUSH2 0x2767 JUMPI DUP2 LT ISZERO PUSH2 0x2753 JUMPI DUP5 EQ PUSH2 0x2740 JUMPI PUSH2 0x273B SWAP1 PUSH2 0x202B JUMP JUMPDEST PUSH2 0x26FA JUMP JUMPDEST SWAP4 SWAP3 POP POP POP PUSH2 0x274F SWAP3 POP PUSH2 0x220B JUMP JUMPDEST MLOAD SWAP1 JUMP JUMPDEST PUSH4 0x4E487B71 PUSH1 0xE0 SHL DUP5 MSTORE PUSH1 0x21 PUSH1 0x4 MSTORE PUSH1 0x24 DUP5 REVERT JUMPDEST PUSH4 0x4E487B71 PUSH1 0xE0 SHL DUP6 MSTORE PUSH1 0x21 PUSH1 0x4 MSTORE PUSH1 0x24 DUP6 REVERT JUMPDEST POP POP SWAP3 POP POP POP SWAP1 JUMP JUMPDEST DUP6 SLOAD DUP5 MSTORE PUSH1 0x1 SWAP6 DUP7 ADD SWAP6 DUP11 SWAP6 POP SWAP4 ADD SWAP3 ADD PUSH2 0x26E1 JUMP INVALID LOG2 PUSH5 0x6970667358 0x22 SLT KECCAK256 PUSH26 0xDC9C64E3450B41477A3188F7AC04B6A3A115E22BCC1C9EAD6780 0xA6 0xEA 0x4C DUP14 MLOAD PUSH5 0x736F6C6343 STOP ADDMOD EQ STOP CALLER "},"methodIdentifiers":{"MAX_SUPPLY()":"32cb6b0c","addAuthorizedMinter(address)":"5f710f5c","approve(address,uint256)":"095ea7b3","badgeInfo(uint256)":"e2d52e1d","badgeURIs(uint8)":"831d147b","balanceOf(address)":"70a08231","getApproved(uint256)":"081812fc","getBadgeDescription(uint8)":"93aaf6a8","getBadgeInfo(uint256)":"e2045b5e","getBadgeName(uint8)":"66e9082d","getUserBadges(address)":"37c245fe","getUserTokenIds(address)":"92ddf23c","hasBadge(address,uint8)":"3af0c688","isApprovedForAll(address,address)":"e985e9c5","isAuthorizedMinter(address)":"842392c2","milestoneThresholds(uint8)":"e635ae75","mintBadge(address,uint8,uint256,string)":"e351d437","name()":"06fdde03","owner()":"8da5cb5b","ownerOf(uint256)":"6352211e","renounceOwnership()":"715018a6","safeTransferFrom(address,address,uint256)":"42842e0e","safeTransferFrom(address,address,uint256,bytes)":"b88d4fde","setApprovalForAll(address,bool)":"a22cb465","supportsInterface(bytes4)":"01ffc9a7","symbol()":"95d89b41","tokenURI(uint256)":"c87b56dd","transferFrom(address,address,uint256)":"23b872dd","transferOwnership(address)":"f2fde38b","upgradeBadge(address,uint8,uint8,uint256,string)":"01874ed3","userBadges(address,uint8)":"8b93bf18","userTokenIds(address,uint256)":"cc17e15d"}}}}}