{"contracts/GroupPool.sol":{"GroupPool":{"abi":[{"inputs":[{"internalType":"address","name":"_celoToken","type":"address"},{"internalType":"address","name":"_cusdToken","type":"address"},{"internalType":"address","name":"_treasury","type":"address"}],"stateMutability":"nonpayable","type":"constructor"},{"inputs":[{"internalType":"address","name":"owner","type":"address"}],"name":"OwnableInvalidOwner","type":"error"},{"inputs":[{"internalType":"address","name":"account","type":"address"}],"name":"OwnableUnauthorizedAccount","type":"error"},{"inputs":[],"name":"ReentrancyGuardReentrantCall","type":"error"},{"anonymous":false,"inputs":[{"indexed":true,"internalType":"uint256","name":"poolId","type":"uint256"},{"indexed":true,"internalType":"address","name":"member","type":"address"},{"indexed":false,"internalType":"uint256","name":"amount","type":"uint256"}],"name":"ContributionMade","type":"event"},{"anonymous":false,"inputs":[{"indexed":true,"internalType":"uint256","name":"poolId","type":"uint256"},{"indexed":true,"internalType":"address","name":"member","type":"address"},{"indexed":false,"internalType":"uint256","name":"amount","type":"uint256"}],"name":"FundsDistributed","type":"event"},{"anonymous":false,"inputs":[{"indexed":true,"internalType":"uint256","name":"poolId","type":"uint256"},{"indexed":true,"internalType":"address","name":"member","type":"address"},{"indexed":false,"internalType":"uint256","name":"contribution","type":"uint256"}],"name":"MemberJoined","type":"event"},{"anonymous":false,"inputs":[{"indexed":true,"internalType":"address","name":"previousOwner","type":"address"},{"indexed":true,"internalType":"address","name":"newOwner","type":"address"}],"name":"OwnershipTransferred","type":"event"},{"anonymous":false,"inputs":[{"indexed":true,"internalType":"uint256","name":"poolId","type":"uint256"},{"indexed":false,"internalType":"uint256","name":"totalAmount","type":"uint256"},{"indexed":false,"internalType":"uint256","name":"yieldEarned","type":"uint256"}],"name":"PoolCompleted","type":"event"},{"anonymous":false,"inputs":[{"indexed":true,"internalType":"uint256","name":"poolId","type":"uint256"},{"indexed":true,"internalType":"address","name":"creator","type":"address"},{"indexed":false,"internalType":"string","name":"name","type":"string"},{"indexed":false,"internalType":"uint256","name":"targetAmount","type":"uint256"},{"indexed":false,"internalType":"uint256","name":"maxMembers","type":"uint256"},{"indexed":false,"internalType":"uint256","name":"lockDuration","type":"uint256"}],"name":"PoolCreated","type":"event"},{"anonymous":false,"inputs":[{"indexed":true,"internalType":"uint256","name":"poolId","type":"uint256"},{"indexed":true,"internalType":"address","name":"referrer","type":"address"},{"indexed":false,"internalType":"uint256","name":"bonus","type":"uint256"}],"name":"ReferralBonusPaid","type":"event"},{"inputs":[],"name":"CREATOR_BONUS_PERCENTAGE","outputs":[{"internalType":"uint256","name":"","type":"uint256"}],"stateMutability":"view","type":"function"},{"inputs":[],"name":"DEFAULT_APY","outputs":[{"internalType":"uint256","name":"","type":"uint256"}],"stateMutability":"view","type":"function"},{"inputs":[],"name":"MAX_LOCK_DURATION","outputs":[{"internalType":"uint256","name":"","type":"uint256"}],"stateMutability":"view","type":"function"},{"inputs":[],"name":"MAX_MEMBERS","outputs":[{"internalType":"uint256","name":"","type":"uint256"}],"stateMutability":"view","type":"function"},{"inputs":[],"name":"MAX_TARGET_AMOUNT","outputs":[{"internalType":"uint256","name":"","type":"uint256"}],"stateMutability":"view","type":"function"},{"inputs":[],"name":"MIN_LOCK_DURATION","outputs":[{"internalType":"uint256","name":"","type":"uint256"}],"stateMutability":"view","type":"function"},{"inputs":[],"name":"MIN_MEMBERS","outputs":[{"internalType":"uint256","name":"","type":"uint256"}],"stateMutability":"view","type":"function"},{"inputs":[],"name":"MIN_TARGET_AMOUNT","outputs":[{"internalType":"uint256","name":"","type":"uint256"}],"stateMutability":"view","type":"function"},{"inputs":[],"name":"REFERRAL_BONUS_PERCENTAGE","outputs":[{"internalType":"uint256","name":"","type":"uint256"}],"stateMutability":"view","type":"function"},{"inputs":[],"name":"YIELD_FEE_PERCENTAGE","outputs":[{"internalType":"uint256","name":"","type":"uint256"}],"stateMutability":"view","type":"function"},{"inputs":[],"name":"celoToken","outputs":[{"internalType":"contract IERC20","name":"","type":"address"}],"stateMutability":"view","type":"function"},{"inputs":[{"internalType":"uint256","name":"poolId","type":"uint256"},{"internalType":"uint256","name":"amount","type":"uint256"},{"internalType":"bool","name":"useCUSD","type":"bool"}],"name":"contributeToPool","outputs":[],"stateMutability":"nonpayable","type":"function"},{"inputs":[{"internalType":"string","name":"name","type":"string"},{"internalType":"string","name":"description","type":"string"},{"internalType":"uint256","name":"targetAmount","type":"uint256"},{"internalType":"uint256","name":"maxMembers","type":"uint256"},{"internalType":"uint256","name":"lockDuration","type":"uint256"},{"internalType":"bool","name":"useCUSD","type":"bool"}],"name":"createPool","outputs":[],"stateMutability":"nonpayable","type":"function"},{"inputs":[],"name":"cusdToken","outputs":[{"internalType":"contract IERC20","name":"","type":"address"}],"stateMutability":"view","type":"function"},{"inputs":[{"internalType":"uint256","name":"poolId","type":"uint256"},{"internalType":"address","name":"member","type":"address"}],"name":"getMemberInfo","outputs":[{"internalType":"uint256","name":"contribution","type":"uint256"},{"internalType":"uint256","name":"share","type":"uint256"},{"internalType":"bool","name":"hasWithdrawn","type":"bool"}],"stateMutability":"view","type":"function"},{"inputs":[{"internalType":"uint256","name":"poolId","type":"uint256"}],"name":"getPool","outputs":[{"internalType":"uint256","name":"poolId_","type":"uint256"},{"internalType":"address","name":"creator","type":"address"},{"internalType":"string","name":"name","type":"string"},{"internalType":"string","name":"description","type":"string"},{"internalType":"uint256","name":"targetAmount","type":"uint256"},{"internalType":"uint256","name":"currentAmount","type":"uint256"},{"internalType":"uint256","name":"maxMembers","type":"uint256"},{"internalType":"uint256","name":"currentMembers","type":"uint256"},{"internalType":"uint256","name":"lockDuration","type":"uint256"},{"internalType":"uint256","name":"startTime","type":"uint256"},{"internalType":"uint256","name":"endTime","type":"uint256"},{"internalType":"bool","name":"isCompleted","type":"bool"},{"internalType":"bool","name":"isActive","type":"bool"},{"internalType":"uint256","name":"yieldEarned","type":"uint256"},{"internalType":"uint256","name":"apy","type":"uint256"}],"stateMutability":"view","type":"function"},{"inputs":[{"internalType":"uint256","name":"poolId","type":"uint256"}],"name":"getPoolMembers","outputs":[{"internalType":"address[]","name":"","type":"address[]"}],"stateMutability":"view","type":"function"},{"inputs":[],"name":"getStats","outputs":[{"internalType":"uint256","name":"totalPools","type":"uint256"},{"internalType":"uint256","name":"totalVolume","type":"uint256"},{"internalType":"uint256","name":"contractBalance","type":"uint256"},{"internalType":"uint256","name":"cusdBalance","type":"uint256"}],"stateMutability":"view","type":"function"},{"inputs":[{"internalType":"address","name":"user","type":"address"}],"name":"getUserCreatedPools","outputs":[{"internalType":"uint256[]","name":"","type":"uint256[]"}],"stateMutability":"view","type":"function"},{"inputs":[{"internalType":"address","name":"user","type":"address"}],"name":"getUserPools","outputs":[{"internalType":"uint256[]","name":"","type":"uint256[]"}],"stateMutability":"view","type":"function"},{"inputs":[{"internalType":"uint256","name":"poolId","type":"uint256"},{"internalType":"uint256","name":"amount","type":"uint256"},{"internalType":"bool","name":"useCUSD","type":"bool"},{"internalType":"address","name":"referrer","type":"address"}],"name":"joinPool","outputs":[],"stateMutability":"nonpayable","type":"function"},{"inputs":[],"name":"nextPoolId","outputs":[{"internalType":"uint256","name":"","type":"uint256"}],"stateMutability":"view","type":"function"},{"inputs":[],"name":"owner","outputs":[{"internalType":"address","name":"","type":"address"}],"stateMutability":"view","type":"function"},{"inputs":[{"internalType":"uint256","name":"","type":"uint256"}],"name":"pools","outputs":[{"internalType":"uint256","name":"poolId","type":"uint256"},{"internalType":"address","name":"creator","type":"address"},{"internalType":"string","name":"name","type":"string"},{"internalType":"string","name":"description","type":"string"},{"internalType":"uint256","name":"targetAmount","type":"uint256"},{"internalType":"uint256","name":"currentAmount","type":"uint256"},{"internalType":"uint256","name":"maxMembers","type":"uint256"},{"internalType":"uint256","name":"currentMembers","type":"uint256"},{"internalType":"uint256","name":"lockDuration","type":"uint256"},{"internalType":"uint256","name":"startTime","type":"uint256"},{"internalType":"uint256","name":"endTime","type":"uint256"},{"internalType":"bool","name":"isCompleted","type":"bool"},{"internalType":"bool","name":"isActive","type":"bool"},{"internalType":"uint256","name":"yieldEarned","type":"uint256"},{"internalType":"uint256","name":"apy","type":"uint256"}],"stateMutability":"view","type":"function"},{"inputs":[],"name":"renounceOwnership","outputs":[],"stateMutability":"nonpayable","type":"function"},{"inputs":[],"name":"totalPoolsCreated","outputs":[{"internalType":"uint256","name":"","type":"uint256"}],"stateMutability":"view","type":"function"},{"inputs":[],"name":"totalVolumeLocked","outputs":[{"internalType":"uint256","name":"","type":"uint256"}],"stateMutability":"view","type":"function"},{"inputs":[{"internalType":"address","name":"newOwner","type":"address"}],"name":"transferOwnership","outputs":[],"stateMutability":"nonpayable","type":"function"},{"inputs":[],"name":"treasury","outputs":[{"internalType":"address","name":"","type":"address"}],"stateMutability":"view","type":"function"},{"inputs":[{"internalType":"uint256","name":"newAPY","type":"uint256"}],"name":"updateAPY","outputs":[],"stateMutability":"nonpayable","type":"function"},{"inputs":[{"internalType":"address","name":"newTreasury","type":"address"}],"name":"updateTreasury","outputs":[],"stateMutability":"nonpayable","type":"function"},{"inputs":[{"internalType":"address","name":"","type":"address"},{"internalType":"uint256","name":"","type":"uint256"}],"name":"userCreatedPools","outputs":[{"internalType":"uint256","name":"","type":"uint256"}],"stateMutability":"view","type":"function"},{"inputs":[{"internalType":"address","name":"","type":"address"},{"internalType":"uint256","name":"","type":"uint256"}],"name":"userPools","outputs":[{"internalType":"uint256","name":"","type":"uint256"}],"stateMutability":"view","type":"function"},{"inputs":[{"internalType":"uint256","name":"poolId","type":"uint256"},{"internalType":"bool","name":"useCUSD","type":"bool"}],"name":"withdrawFromPool","outputs":[],"stateMutability":"nonpayable","type":"function"}],"evm":{"bytecode":{"linkReferences":{},"object":"6080346200011a57601f6200242c38819003918201601f19168301916001600160401b038311848410176200011f578084926060946040528339810103126200011a576200004d8162000135565b620000696040620000616020850162000135565b930162000135565b90600160005533156200010157600180546001600160a01b0319808216339081179093556040519590946001600160a01b0394909385938492919083167f8be0079c531659141344cd1fd0a4f28419497f9722a3daafe3b4186f6b6457e0600080a360016007556103e86008551685600554161760055516836006541617600655169060095416176009556122e190816200014b8239f35b604051631e4fbdf760e01b815260006004820152602490fd5b600080fd5b634e487b7160e01b600052604160045260246000fd5b51906001600160a01b03821682036200011a5756fe608080604052600436101561001357600080fd5b60003560e01c9081630455311114611c0b57508063068bcd8d14611b495780630c5e72c014610da45780631064aa5514611af057806318e5613114611ad25780631e67939e146119ff5780632d380cca146119875780633dc55b711461136f5780634f1bfc9e14611350578063506f7f5e14610f6157806361d027b314610f3857806362d4f29a14610f1c578063715018a614610ebf57806378b4330f14610ea15780637d29391614610e7e5780637dbb687614610e605780637f51bb1f14610dc75780637fea355b14610da95780637fee9d2614610da45780638161d781146108cc5780638da5cb5b146108a35780639816af581461081f578063ac4afa3814610779578063b1219e73146106a1578063b73238811461067c578063bbef6f9014610624578063c59d484714610527578063cae07843146104fe578063d9a67220146104e2578063e22d551a146104b9578063ea0e35b11461049d578063f2b907d314610292578063f2fde38b146102095763fae728cd1461019557600080fd5b34610204576020366003190112610204576004356101b1611ef6565b6107d081116101bf57600855005b60405162461bcd60e51b815260206004820152601760248201527f47726f7570506f6f6c3a2041505920746f6f20686967680000000000000000006044820152606490fd5b600080fd5b3461020457602036600319011261020457610222611d0f565b61022a611ef6565b6001600160a01b0390811690811561027957600154826001600160601b0360a01b821617600155167f8be0079c531659141344cd1fd0a4f28419497f9722a3daafe3b4186f6b6457e0600080a3005b604051631e4fbdf760e01b815260006004820152602490fd5b34610204576060366003190112610204576004356024356102b1611e07565b9082151580610492575b6102c490611f73565b82600052602090600282526102e660ff600b6040600020015460081c16611fbf565b836000526002825261030360ff600b60406000200154161561200b565b61030b6121a0565b836000526002825260406000203360005260108101835261033360ff604060002054166121c3565b61033e821515612061565b600581019261034e838554611f31565b946103606004840196875410156120be565b15610480576006546001600160a01b0316905b6040516323b872dd60e01b815233600482015230602482015260448101859052918190839060649082906000906001600160a01b03165af180156104745787936103e9600f927f0a4a91237423e0a1766a761c7cb029311d8b95d6b1b81db1b949a70c98b4e08e95600091610447575b50612121565b336000520181526040600020610400858254611f31565b905561040d848654611f31565b855561041b84600b54611f31565b600b556040519384523393a35490541115610438575b6001600055005b6104419061221c565b80610431565b6104679150853d871161046d575b61045f8183611d8e565b810190612109565b8b6103e3565b503d610455565b6040513d6000823e3d90fd5b6005546001600160a01b031690610373565b5060075483106102bb565b3461020457600036600319011261020457602060405160328152f35b34610204576000366003190112610204576005546040516001600160a01b039091168152602090f35b3461020457600036600319011261020457602060405160028152f35b34610204576000366003190112610204576006546040516001600160a01b039091168152602090f35b3461020457600036600319011261020457600a54600b546005546040516370a0823160e01b80825230600483015293926020926001600160a01b03929084908290602490829087165afa9283156104745784916000946105f3575b50600654169560246040518098819382523060048301525afa928315610474576000936105c3575b6080955060405194855284015260408301526060820152f35b80935085813d83116105ec575b6105da8183611d8e565b810103126102045760809451926105aa565b503d6105d0565b8281939295503d831161061d575b61060b8183611d8e565b81010312610204578390519287610582565b503d610601565b346102045760403660031901126102045761063d611d0f565b6001600160a01b03166000908152600460205260409020805460243591908210156102045760209161066e91611d25565b90546040519160031b1c8152f35b3461020457600036600319011261020457602060405169021e19e0c9bab24000008152f35b3461020457602080600319360112610204576004358015158061076e575b6106c890611f73565b60005260028152600e60406000200160405190818382549182815201908192600052846000209060005b8682821061075157868661070882880383611d8e565b604051928392818401908285525180915260408401929160005b82811061073157505050500390f35b83516001600160a01b031685528695509381019392810192600101610722565b83546001600160a01b0316855290930192600192830192016106f2565b5060075481106106bf565b3461020457602036600319011261020457600435600052600260205260406000208054600160a01b60019003600183015416600283016107b890611e50565b916107c560038501611e50565b93600481015491600582015490600683015460078401546008850154600986015491600a87015493600b88015496600c89015498600d0154996040519d8e9d8e9d8b60081c60ff169b60ff169a61081b9f611c66565b0390f35b3461020457602080600319360112610204576001600160a01b03610841611d0f565b1660005260038152604060002090604051908181845491828152019360005281600020916000905b82821061088c5761081b8561088081890382611d8e565b60405191829182611d53565b835486529485019460019384019390910190610869565b34610204576000366003190112610204576001546040516001600160a01b039091168152602090f35b34610204576080366003190112610204576108e5611e07565b6064356001600160a01b038116900361020457600435151580610d97575b61090c90611f73565b600435600052600260205261092e60ff600b6040600020015460081c16611fbf565b600435600052600260205261094e60ff600b60406000200154161561200b565b6109566121a0565b6004356000526002602052604060002090336000526010820160205260ff60406000205416610d5257600782015460068301541115610d0d5761099c6024351515612061565b6109bb6109af6024356005850154611f31565b600484015410156120be565b15610cfc576006546001600160a01b03165b6040516323b872dd60e01b81523360048201523060248083019190915235604482015260208160648160006001600160a01b0387165af1801561047457610a1b91600091610cdd5750612121565b600e820154600160401b811015610cc757806001610a429201600e850155600e8401611d25565b81549060031b9033821b9160018060a01b03901b191617905533600052601082016020526040600020600160ff19825416179055600f8201602052602435604060002055610a936007830154611f22565b6007830155610aa86024356005840154611f31565b6005830155610abb602435600b54611f31565b600b55336000526003602052610ad76004356040600020611f3e565b604051602435815233907ff4f82575ee84a81aac4be52b6a368e9ba9df524b4f5cf8177d7cfbabe861820c602060043592a36064356001600160a01b0316151580610ca1575b80610c8c575b610b50575b50600460058201549101541115610b40576001600055005b610b4b60043561221c565b610431565b6064602435026024358104606414602435151715610c765761271090049081610b7a575b50610b28565b60405163a9059cbb60e01b81526001600160a01b0360643516600482015260248101839052906020908290816000816044810103926001600160a01b03165af190811561047457600091610c57575b5015610c13576040519081526064356001600160a01b031690600435907fe0570289ea25f3ae6cf39fb322bd2ba4e8f84491cad47be0ca30085550b80c8f90602090a38180610b74565b606460405162461bcd60e51b815260206004820152602060248201527f47726f7570506f6f6c3a20526566657272616c20626f6e7573206661696c65646044820152fd5b610c70915060203d60201161046d5761045f8183611d8e565b83610bc9565b634e487b7160e01b600052601160045260246000fd5b506064356001600160a01b0316331415610b23565b506064356001600160a01b0316600090815260108301602052604090205460ff16610b1d565b634e487b7160e01b600052604160045260246000fd5b610cf6915060203d60201161046d5761045f8183611d8e565b846103e3565b6005546001600160a01b03166109cd565b60405162461bcd60e51b815260206004820152601760248201527f47726f7570506f6f6c3a20506f6f6c2069732066756c6c0000000000000000006044820152606490fd5b60405162461bcd60e51b815260206004820152601b60248201527f47726f7570506f6f6c3a20416c72656164792061206d656d62657200000000006044820152606490fd5b5060075460043510610903565b611cf3565b34610204576000366003190112610204576020600b54604051908152f35b3461020457602036600319011261020457610de0611d0f565b610de8611ef6565b6001600160a01b03168015610e0f576001600160601b0360a01b6009541617600955600080f35b60405162461bcd60e51b815260206004820152602360248201527f47726f7570506f6f6c3a20496e76616c6964207472656173757279206164647260448201526265737360e81b6064820152608490fd5b34610204576000366003190112610204576020600a54604051908152f35b3461020457600036600319011261020457602060405167016345785d8a00008152f35b3461020457600036600319011261020457602060405162093a808152f35b3461020457600036600319011261020457610ed8611ef6565b600180546001600160a01b031981169091556000906001600160a01b03167f8be0079c531659141344cd1fd0a4f28419497f9722a3daafe3b4186f6b6457e08280a3005b3461020457600036600319011261020457602060405160648152f35b34610204576000366003190112610204576009546040516001600160a01b039091168152602090f35b346102045760403660031901126102045760043560249081359182151583036102045781151580611345575b610f9690611f73565b8160005260209060028252600a60406000200154421061130457610fb86121a0565b826000526002825260406000209033600052601082018352610fe160ff604060002054166121c3565b60118201903360005281845260ff604060002054166112c15760ff600b840154161561127e5733600052600f8301845260406000205492670de0b6b3a76400008085028581048214861517156112695761104361104d91600585015490612180565b600c84015461216d565b0460c8810281810460c814821517156112695760019161271061109b92049384600091858060a01b039586910154163314611261575b61109161109692938a611f31565b61220f565b611f31565b971561125557878180600654165b60405163a9059cbb60e01b80825233600483015260248201949094529116929088816044816000885af190811561047457600091611238575b50156111f45783611148575b89897f9f5926601e7fc353505f05fae61282ae5d67b716f95656849456e6aa7bbbbb5f8a6111358b8b3360005283526040600020600160ff19825416179055600b5461220f565b600b556040519384523393a36001600055005b600954604051928352166001600160a01b0316600482015260248101929092528590829060449082906000905af1908115610474576000916111d7575b501561119457808080806110ee565b83601e6064926040519262461bcd60e51b845260048401528201527f47726f7570506f6f6c3a20466565207472616e73666572206661696c656400006044820152fd5b6111ee9150853d871161046d5761045f8183611d8e565b87611185565b60405162461bcd60e51b815260048101899052601c818701527f47726f7570506f6f6c3a205769746864726177616c206661696c6564000000006044820152606490fd5b61124f9150893d8b1161046d5761045f8183611d8e565b8b6110e2565b878180600554166110a9565b905080611083565b83634e487b7160e01b60005260116004526000fd5b83601d6064926040519262461bcd60e51b845260048401528201527f47726f7570506f6f6c3a20506f6f6c206e6f7420636f6d706c657465640000006044820152fd5b83601c6064926040519262461bcd60e51b845260048401528201527f47726f7570506f6f6c3a20416c72656164792077697468647261776e000000006044820152fd5b6064916040519162461bcd60e51b83528160048401528201527f47726f7570506f6f6c3a204c6f636b20706572696f64206e6f7420656e6465646044820152fd5b506007548210610f8d565b346102045760003660031901126102045760206040516301e133808152f35b346102045760c03660031901126102045760043567ffffffffffffffff8111610204576113a0903690600401611db0565b60243567ffffffffffffffff8111610204576113c0903690600401611db0565b60a43580151503610204578151156119425760449167016345785d8a00008335106118fe5769021e19e0c9bab24000008335116118b05760026064351061186c576032606435116118285762093a80608435106117d9576301e133806084351161178b576007549161143183611f22565b60075582600052600260205260406000209083825560018201336001600160601b0360a01b825416179055825167ffffffffffffffff8111610cc75761147a6002840154611e16565b601f8111611744575b50806020601f82116001146116d7576000916116cc575b508160011b916000199060031b1c19161760028301555b80519067ffffffffffffffff8211610cc7576114d06003840154611e16565b601f8111611681575b50602090601f83116001146115ee577f80eb862b1ebf91ef46e8085c1e47b348af9ad8f1248fb18302612a57ad3a2b5594939291600091836115e3575b50508160011b916000199060031b1c19161760038201555b8435600482015560006005820155606435600682015560006007820155608435600882015542600982015561156560843542611f31565b600a820155600b810161010061ffff198254161790556000600c820155600d600854910155611595600a54611f22565b600a553360005260046020526115af836040600020611f3e565b6115c460405191608083526080830190611c26565b93356020820152606435604082015260843560608201528033940390a3005b015190508780611516565b906003840160005260206000209160005b601f198516811061166957509183916001937f80eb862b1ebf91ef46e8085c1e47b348af9ad8f1248fb18302612a57ad3a2b55979695601f19811610611650575b505050811b01600382015561152e565b015160001960f88460031b161c19169055878080611640565b919260206001819286850151815501940192016115ff565b600384016000526020600020601f840160051c810191602085106116c2575b601f0160051c01905b8181106116b657506114d9565b600081556001016116a9565b90915081906116a0565b90508401518761149a565b91506002840160005260206000206000925b601f198316841061172c576001935082601f19811610611713575b5050811b0160028301556114b1565b86015160001960f88460031b161c191690558780611704565b868101518255602093840193600190920191016116e9565b600284016000526020600020601f830160051c810160208410611784575b601f830160051c82018110611778575050611483565b60008155600101611762565b5080611762565b60405162461bcd60e51b815260206004820152602160248201527f47726f7570506f6f6c3a204c6f636b206475726174696f6e20746f6f206c6f6e81850152606760f81b6064820152608490fd5b60405162461bcd60e51b815260206004820152602260248201527f47726f7570506f6f6c3a204c6f636b206475726174696f6e20746f6f2073686f81850152611c9d60f21b6064820152608490fd5b60405162461bcd60e51b815260206004820152601b60248201527f47726f7570506f6f6c3a20546f6f206d616e79206d656d62657273000000000081850152606490fd5b60405162461bcd60e51b815260206004820152601a60248201527f47726f7570506f6f6c3a20546f6f20666577206d656d6265727300000000000081850152606490fd5b60405162461bcd60e51b815260206004820152602160248201527f47726f7570506f6f6c3a2054617267657420616d6f756e7420746f6f2068696781850152600d60fb1b6064820152608490fd5b60405162461bcd60e51b815260206004820181905260248201527f47726f7570506f6f6c3a2054617267657420616d6f756e7420746f6f206c6f7781850152606490fd5b60405162461bcd60e51b815260206004820152601860248201527f47726f7570506f6f6c3a204e616d6520726571756972656400000000000000006044820152606490fd5b3461020457602080600319360112610204576001600160a01b036119a9611d0f565b1660005260048152604060002090604051908181845491828152019360005281600020916000905b8282106119e85761081b8561088081890382611d8e565b8354865294850194600193840193909101906119d1565b34610204576040366003190112610204576024356001600160a01b03811690600435908290036102045780151580611ac7575b611a3b90611f73565b600052600260205260406000209080600052600f8201602052604060002054906005830154801515600014611ab957670de0b6b3a764000093848402948486041484151715610c7657611a92601192606096612180565b925b6000520160205260ff6040600020541690604051928352602083015215156040820152f35b506011606093600092611a94565b506007548110611a32565b34610204576000366003190112610204576020600754604051908152f35b3461020457604036600319011261020457611b09611d0f565b6001600160a01b031660009081526003602052604090208054602435919082101561020457602091611b3a91611d25565b90549060031b1c604051908152f35b346102045760203660031901126102045760043580151580611c00575b611b6f90611f73565b60005260026020526040600020805490600160a01b6001900360018201541660048201549260058301549060068401549060078501549060088601546009870154600a88015491600b89015494600c8a015496600d8b01549860028c01611bd590611e50565b9b600301611be290611e50565b9c6040519d8e9d8e9d8b60081c60ff169b60ff169a61081b9f611c66565b506007548110611b66565b34610204576000366003190112610204576020906008548152f35b919082519283825260005b848110611c52575050826000602080949584010152601f8019910116010190565b602081830181015184830182015201611c31565b9b989592949f9e9d9a9794611ca4908d6101c09f9c999693611cb295602091835260018060a01b03169101528d6101e0908160408201520190611c26565b8c810360608e015290611c26565b9d60808b015260a08a015260c089015260e0880152610100870152610120860152610140850152151561016084015215156101808301526101a08201520152565b3461020457600036600319011261020457602060405160c88152f35b600435906001600160a01b038216820361020457565b8054821015611d3d5760005260206000200190600090565b634e487b7160e01b600052603260045260246000fd5b6020908160408183019282815285518094520193019160005b828110611d7a575050505090565b835185529381019392810192600101611d6c565b90601f8019910116810190811067ffffffffffffffff821117610cc757604052565b81601f820112156102045780359067ffffffffffffffff8211610cc75760405192611de5601f8401601f191660200185611d8e565b8284526020838301011161020457816000926020809301838601378301015290565b60443590811515820361020457565b90600182811c92168015611e46575b6020831014611e3057565b634e487b7160e01b600052602260045260246000fd5b91607f1691611e25565b9060405191826000825492611e6484611e16565b908184526001948581169081600014611ed35750600114611e90575b5050611e8e92500383611d8e565b565b9093915060005260209081600020936000915b818310611ebb575050611e8e93508201013880611e80565b85548884018501529485019487945091830191611ea3565b915050611e8e94506020925060ff191682840152151560051b8201013880611e80565b6001546001600160a01b03163303611f0a57565b60405163118cdaa760e01b8152336004820152602490fd5b6000198114610c765760010190565b91908201809211610c7657565b8054600160401b811015610cc757611f5b91600182018155611d25565b819291549060031b91821b91600019901b1916179055565b15611f7a57565b60405162461bcd60e51b815260206004820152601e60248201527f47726f7570506f6f6c3a20506f6f6c20646f6573206e6f7420657869737400006044820152606490fd5b15611fc657565b60405162461bcd60e51b815260206004820152601a60248201527f47726f7570506f6f6c3a20506f6f6c206e6f74206163746976650000000000006044820152606490fd5b1561201257565b60405162461bcd60e51b815260206004820152602160248201527f47726f7570506f6f6c3a20506f6f6c20616c726561647920636f6d706c6574656044820152601960fa1b6064820152608490fd5b1561206857565b60405162461bcd60e51b815260206004820152602860248201527f47726f7570506f6f6c3a20416d6f756e74206d75737420626520677265617465604482015267072207468616e20360c41b6064820152608490fd5b156120c557565b606460405162461bcd60e51b815260206004820152602060248201527f47726f7570506f6f6c3a20457863656564732074617267657420616d6f756e746044820152fd5b90816020910312610204575180151581036102045790565b1561212857565b60405162461bcd60e51b815260206004820152601a60248201527f47726f7570506f6f6c3a205472616e73666572206661696c65640000000000006044820152606490fd5b81810292918115918404141715610c7657565b811561218a570490565b634e487b7160e01b600052601260045260246000fd5b6002600054146121b1576002600055565b604051633ee5aeb560e01b8152600490fd5b156121ca57565b60405162461bcd60e51b815260206004820152601760248201527f47726f7570506f6f6c3a204e6f742061206d656d6265720000000000000000006044820152606490fd5b91908203918211610c7657565b8060005260026020527f88d91b760dadb6520acbf85b0c896f73884d30ab8e465c348c74f093ef57eb3d604080600020600b8101600160ff19825416179055600c64496cebb80061227e61227460098501544261220f565b600d85015461216d565b0491670de0b6b3a76400006122986005830154948561216d565b04918291015582519182526020820152a256fea2646970667358221220b7ae6ad8b61c5ed3a6f712d11b95f16a8b0dd3deac7a82924b04987823bc90b064736f6c63430008140033","opcodes":"PUSH1 0x80 CALLVALUE PUSH3 0x11A JUMPI PUSH1 0x1F PUSH3 0x242C CODESIZE DUP2 SWAP1 SUB SWAP2 DUP3 ADD PUSH1 0x1F NOT AND DUP4 ADD SWAP2 PUSH1 0x1 PUSH1 0x1 PUSH1 0x40 SHL SUB DUP4 GT DUP5 DUP5 LT OR PUSH3 0x11F JUMPI DUP1 DUP5 SWAP3 PUSH1 0x60 SWAP5 PUSH1 0x40 MSTORE DUP4 CODECOPY DUP2 ADD SUB SLT PUSH3 0x11A JUMPI PUSH3 0x4D DUP2 PUSH3 0x135 JUMP JUMPDEST PUSH3 0x69 PUSH1 0x40 PUSH3 0x61 PUSH1 0x20 DUP6 ADD PUSH3 0x135 JUMP JUMPDEST SWAP4 ADD PUSH3 0x135 JUMP JUMPDEST SWAP1 PUSH1 0x1 PUSH1 0x0 SSTORE CALLER ISZERO PUSH3 0x101 JUMPI PUSH1 0x1 DUP1 SLOAD PUSH1 0x1 PUSH1 0x1 PUSH1 0xA0 SHL SUB NOT DUP1 DUP3 AND CALLER SWAP1 DUP2 OR SWAP1 SWAP4 SSTORE PUSH1 0x40 MLOAD SWAP6 SWAP1 SWAP5 PUSH1 0x1 PUSH1 0x1 PUSH1 0xA0 SHL SUB SWAP5 SWAP1 SWAP4 DUP6 SWAP4 DUP5 SWAP3 SWAP2 SWAP1 DUP4 AND PUSH32 0x8BE0079C531659141344CD1FD0A4F28419497F9722A3DAAFE3B4186F6B6457E0 PUSH1 0x0 DUP1 LOG3 PUSH1 0x1 PUSH1 0x7 SSTORE PUSH2 0x3E8 PUSH1 0x8 SSTORE AND DUP6 PUSH1 0x5 SLOAD AND OR PUSH1 0x5 SSTORE AND DUP4 PUSH1 0x6 SLOAD AND OR PUSH1 0x6 SSTORE AND SWAP1 PUSH1 0x9 SLOAD AND OR PUSH1 0x9 SSTORE PUSH2 0x22E1 SWAP1 DUP2 PUSH3 0x14B DUP3 CODECOPY RETURN JUMPDEST PUSH1 0x40 MLOAD PUSH4 0x1E4FBDF7 PUSH1 0xE0 SHL DUP2 MSTORE PUSH1 0x0 PUSH1 0x4 DUP3 ADD MSTORE PUSH1 0x24 SWAP1 REVERT JUMPDEST PUSH1 0x0 DUP1 REVERT JUMPDEST PUSH4 0x4E487B71 PUSH1 0xE0 SHL PUSH1 0x0 MSTORE PUSH1 0x41 PUSH1 0x4 MSTORE PUSH1 0x24 PUSH1 0x0 REVERT JUMPDEST MLOAD SWAP1 PUSH1 0x1 PUSH1 0x1 PUSH1 0xA0 SHL SUB DUP3 AND DUP3 SUB PUSH3 0x11A JUMPI JUMP INVALID PUSH1 0x80 DUP1 PUSH1 0x40 MSTORE PUSH1 0x4 CALLDATASIZE LT ISZERO PUSH2 0x13 JUMPI PUSH1 0x0 DUP1 REVERT JUMPDEST PUSH1 0x0 CALLDATALOAD PUSH1 0xE0 SHR SWAP1 DUP2 PUSH4 0x4553111 EQ PUSH2 0x1C0B JUMPI POP DUP1 PUSH4 0x68BCD8D EQ PUSH2 0x1B49 JUMPI DUP1 PUSH4 0xC5E72C0 EQ PUSH2 0xDA4 JUMPI DUP1 PUSH4 0x1064AA55 EQ PUSH2 0x1AF0 JUMPI DUP1 PUSH4 0x18E56131 EQ PUSH2 0x1AD2 JUMPI DUP1 PUSH4 0x1E67939E EQ PUSH2 0x19FF JUMPI DUP1 PUSH4 0x2D380CCA EQ PUSH2 0x1987 JUMPI DUP1 PUSH4 0x3DC55B71 EQ PUSH2 0x136F JUMPI DUP1 PUSH4 0x4F1BFC9E EQ PUSH2 0x1350 JUMPI DUP1 PUSH4 0x506F7F5E EQ PUSH2 0xF61 JUMPI DUP1 PUSH4 0x61D027B3 EQ PUSH2 0xF38 JUMPI DUP1 PUSH4 0x62D4F29A EQ PUSH2 0xF1C JUMPI DUP1 PUSH4 0x715018A6 EQ PUSH2 0xEBF JUMPI DUP1 PUSH4 0x78B4330F EQ PUSH2 0xEA1 JUMPI DUP1 PUSH4 0x7D293916 EQ PUSH2 0xE7E JUMPI DUP1 PUSH4 0x7DBB6876 EQ PUSH2 0xE60 JUMPI DUP1 PUSH4 0x7F51BB1F EQ PUSH2 0xDC7 JUMPI DUP1 PUSH4 0x7FEA355B EQ PUSH2 0xDA9 JUMPI DUP1 PUSH4 0x7FEE9D26 EQ PUSH2 0xDA4 JUMPI DUP1 PUSH4 0x8161D781 EQ PUSH2 0x8CC JUMPI DUP1 PUSH4 0x8DA5CB5B EQ PUSH2 0x8A3 JUMPI DUP1 PUSH4 0x9816AF58 EQ PUSH2 0x81F JUMPI DUP1 PUSH4 0xAC4AFA38 EQ PUSH2 0x779 JUMPI DUP1 PUSH4 0xB1219E73 EQ PUSH2 0x6A1 JUMPI DUP1 PUSH4 0xB7323881 EQ PUSH2 0x67C JUMPI DUP1 PUSH4 0xBBEF6F90 EQ PUSH2 0x624 JUMPI DUP1 PUSH4 0xC59D4847 EQ PUSH2 0x527 JUMPI DUP1 PUSH4 0xCAE07843 EQ PUSH2 0x4FE JUMPI DUP1 PUSH4 0xD9A67220 EQ PUSH2 0x4E2 JUMPI DUP1 PUSH4 0xE22D551A EQ PUSH2 0x4B9 JUMPI DUP1 PUSH4 0xEA0E35B1 EQ PUSH2 0x49D JUMPI DUP1 PUSH4 0xF2B907D3 EQ PUSH2 0x292 JUMPI DUP1 PUSH4 0xF2FDE38B EQ PUSH2 0x209 JUMPI PUSH4 0xFAE728CD EQ PUSH2 0x195 JUMPI PUSH1 0x0 DUP1 REVERT JUMPDEST CALLVALUE PUSH2 0x204 JUMPI PUSH1 0x20 CALLDATASIZE PUSH1 0x3 NOT ADD SLT PUSH2 0x204 JUMPI PUSH1 0x4 CALLDATALOAD PUSH2 0x1B1 PUSH2 0x1EF6 JUMP JUMPDEST PUSH2 0x7D0 DUP2 GT PUSH2 0x1BF JUMPI PUSH1 0x8 SSTORE STOP JUMPDEST PUSH1 0x40 MLOAD PUSH3 0x461BCD PUSH1 0xE5 SHL DUP2 MSTORE PUSH1 0x20 PUSH1 0x4 DUP3 ADD MSTORE PUSH1 0x17 PUSH1 0x24 DUP3 ADD MSTORE PUSH32 0x47726F7570506F6F6C3A2041505920746F6F2068696768000000000000000000 PUSH1 0x44 DUP3 ADD MSTORE PUSH1 0x64 SWAP1 REVERT JUMPDEST PUSH1 0x0 DUP1 REVERT JUMPDEST CALLVALUE PUSH2 0x204 JUMPI PUSH1 0x20 CALLDATASIZE PUSH1 0x3 NOT ADD SLT PUSH2 0x204 JUMPI PUSH2 0x222 PUSH2 0x1D0F JUMP JUMPDEST PUSH2 0x22A PUSH2 0x1EF6 JUMP JUMPDEST PUSH1 0x1 PUSH1 0x1 PUSH1 0xA0 SHL SUB SWAP1 DUP2 AND SWAP1 DUP2 ISZERO PUSH2 0x279 JUMPI PUSH1 0x1 SLOAD DUP3 PUSH1 0x1 PUSH1 0x1 PUSH1 0x60 SHL SUB PUSH1 0xA0 SHL DUP3 AND OR PUSH1 0x1 SSTORE AND PUSH32 0x8BE0079C531659141344CD1FD0A4F28419497F9722A3DAAFE3B4186F6B6457E0 PUSH1 0x0 DUP1 LOG3 STOP JUMPDEST PUSH1 0x40 MLOAD PUSH4 0x1E4FBDF7 PUSH1 0xE0 SHL DUP2 MSTORE PUSH1 0x0 PUSH1 0x4 DUP3 ADD MSTORE PUSH1 0x24 SWAP1 REVERT JUMPDEST CALLVALUE PUSH2 0x204 JUMPI PUSH1 0x60 CALLDATASIZE PUSH1 0x3 NOT ADD SLT PUSH2 0x204 JUMPI PUSH1 0x4 CALLDATALOAD PUSH1 0x24 CALLDATALOAD PUSH2 0x2B1 PUSH2 0x1E07 JUMP JUMPDEST SWAP1 DUP3 ISZERO ISZERO DUP1 PUSH2 0x492 JUMPI JUMPDEST PUSH2 0x2C4 SWAP1 PUSH2 0x1F73 JUMP JUMPDEST DUP3 PUSH1 0x0 MSTORE PUSH1 0x20 SWAP1 PUSH1 0x2 DUP3 MSTORE PUSH2 0x2E6 PUSH1 0xFF PUSH1 0xB PUSH1 0x40 PUSH1 0x0 KECCAK256 ADD SLOAD PUSH1 0x8 SHR AND PUSH2 0x1FBF JUMP JUMPDEST DUP4 PUSH1 0x0 MSTORE PUSH1 0x2 DUP3 MSTORE PUSH2 0x303 PUSH1 0xFF PUSH1 0xB PUSH1 0x40 PUSH1 0x0 KECCAK256 ADD SLOAD AND ISZERO PUSH2 0x200B JUMP JUMPDEST PUSH2 0x30B PUSH2 0x21A0 JUMP JUMPDEST DUP4 PUSH1 0x0 MSTORE PUSH1 0x2 DUP3 MSTORE PUSH1 0x40 PUSH1 0x0 KECCAK256 CALLER PUSH1 0x0 MSTORE PUSH1 0x10 DUP2 ADD DUP4 MSTORE PUSH2 0x333 PUSH1 0xFF PUSH1 0x40 PUSH1 0x0 KECCAK256 SLOAD AND PUSH2 0x21C3 JUMP JUMPDEST PUSH2 0x33E DUP3 ISZERO ISZERO PUSH2 0x2061 JUMP JUMPDEST PUSH1 0x5 DUP2 ADD SWAP3 PUSH2 0x34E DUP4 DUP6 SLOAD PUSH2 0x1F31 JUMP JUMPDEST SWAP5 PUSH2 0x360 PUSH1 0x4 DUP5 ADD SWAP7 DUP8 SLOAD LT ISZERO PUSH2 0x20BE JUMP JUMPDEST ISZERO PUSH2 0x480 JUMPI PUSH1 0x6 SLOAD PUSH1 0x1 PUSH1 0x1 PUSH1 0xA0 SHL SUB AND SWAP1 JUMPDEST PUSH1 0x40 MLOAD PUSH4 0x23B872DD PUSH1 0xE0 SHL DUP2 MSTORE CALLER PUSH1 0x4 DUP3 ADD MSTORE ADDRESS PUSH1 0x24 DUP3 ADD MSTORE PUSH1 0x44 DUP2 ADD DUP6 SWAP1 MSTORE SWAP2 DUP2 SWAP1 DUP4 SWAP1 PUSH1 0x64 SWAP1 DUP3 SWAP1 PUSH1 0x0 SWAP1 PUSH1 0x1 PUSH1 0x1 PUSH1 0xA0 SHL SUB AND GAS CALL DUP1 ISZERO PUSH2 0x474 JUMPI DUP8 SWAP4 PUSH2 0x3E9 PUSH1 0xF SWAP3 PUSH32 0xA4A91237423E0A1766A761C7CB029311D8B95D6B1B81DB1B949A70C98B4E08E SWAP6 PUSH1 0x0 SWAP2 PUSH2 0x447 JUMPI JUMPDEST POP PUSH2 0x2121 JUMP JUMPDEST CALLER PUSH1 0x0 MSTORE ADD DUP2 MSTORE PUSH1 0x40 PUSH1 0x0 KECCAK256 PUSH2 0x400 DUP6 DUP3 SLOAD PUSH2 0x1F31 JUMP JUMPDEST SWAP1 SSTORE PUSH2 0x40D DUP5 DUP7 SLOAD PUSH2 0x1F31 JUMP JUMPDEST DUP6 SSTORE PUSH2 0x41B DUP5 PUSH1 0xB SLOAD PUSH2 0x1F31 JUMP JUMPDEST PUSH1 0xB SSTORE PUSH1 0x40 MLOAD SWAP4 DUP5 MSTORE CALLER SWAP4 LOG3 SLOAD SWAP1 SLOAD GT ISZERO PUSH2 0x438 JUMPI JUMPDEST PUSH1 0x1 PUSH1 0x0 SSTORE STOP JUMPDEST PUSH2 0x441 SWAP1 PUSH2 0x221C JUMP JUMPDEST DUP1 PUSH2 0x431 JUMP JUMPDEST PUSH2 0x467 SWAP2 POP DUP6 RETURNDATASIZE DUP8 GT PUSH2 0x46D JUMPI JUMPDEST PUSH2 0x45F DUP2 DUP4 PUSH2 0x1D8E JUMP JUMPDEST DUP2 ADD SWAP1 PUSH2 0x2109 JUMP JUMPDEST DUP12 PUSH2 0x3E3 JUMP JUMPDEST POP RETURNDATASIZE PUSH2 0x455 JUMP JUMPDEST PUSH1 0x40 MLOAD RETURNDATASIZE PUSH1 0x0 DUP3 RETURNDATACOPY RETURNDATASIZE SWAP1 REVERT JUMPDEST PUSH1 0x5 SLOAD PUSH1 0x1 PUSH1 0x1 PUSH1 0xA0 SHL SUB AND SWAP1 PUSH2 0x373 JUMP JUMPDEST POP PUSH1 0x7 SLOAD DUP4 LT PUSH2 0x2BB JUMP JUMPDEST CALLVALUE PUSH2 0x204 JUMPI PUSH1 0x0 CALLDATASIZE PUSH1 0x3 NOT ADD SLT PUSH2 0x204 JUMPI PUSH1 0x20 PUSH1 0x40 MLOAD PUSH1 0x32 DUP2 MSTORE RETURN JUMPDEST CALLVALUE PUSH2 0x204 JUMPI PUSH1 0x0 CALLDATASIZE PUSH1 0x3 NOT ADD SLT PUSH2 0x204 JUMPI PUSH1 0x5 SLOAD PUSH1 0x40 MLOAD PUSH1 0x1 PUSH1 0x1 PUSH1 0xA0 SHL SUB SWAP1 SWAP2 AND DUP2 MSTORE PUSH1 0x20 SWAP1 RETURN JUMPDEST CALLVALUE PUSH2 0x204 JUMPI PUSH1 0x0 CALLDATASIZE PUSH1 0x3 NOT ADD SLT PUSH2 0x204 JUMPI PUSH1 0x20 PUSH1 0x40 MLOAD PUSH1 0x2 DUP2 MSTORE RETURN JUMPDEST CALLVALUE PUSH2 0x204 JUMPI PUSH1 0x0 CALLDATASIZE PUSH1 0x3 NOT ADD SLT PUSH2 0x204 JUMPI PUSH1 0x6 SLOAD PUSH1 0x40 MLOAD PUSH1 0x1 PUSH1 0x1 PUSH1 0xA0 SHL SUB SWAP1 SWAP2 AND DUP2 MSTORE PUSH1 0x20 SWAP1 RETURN JUMPDEST CALLVALUE PUSH2 0x204 JUMPI PUSH1 0x0 CALLDATASIZE PUSH1 0x3 NOT ADD SLT PUSH2 0x204 JUMPI PUSH1 0xA SLOAD PUSH1 0xB SLOAD PUSH1 0x5 SLOAD PUSH1 0x40 MLOAD PUSH4 0x70A08231 PUSH1 0xE0 SHL DUP1 DUP3 MSTORE ADDRESS PUSH1 0x4 DUP4 ADD MSTORE SWAP4 SWAP3 PUSH1 0x20 SWAP3 PUSH1 0x1 PUSH1 0x1 PUSH1 0xA0 SHL SUB SWAP3 SWAP1 DUP5 SWAP1 DUP3 SWAP1 PUSH1 0x24 SWAP1 DUP3 SWAP1 DUP8 AND GAS STATICCALL SWAP3 DUP4 ISZERO PUSH2 0x474 JUMPI DUP5 SWAP2 PUSH1 0x0 SWAP5 PUSH2 0x5F3 JUMPI JUMPDEST POP PUSH1 0x6 SLOAD AND SWAP6 PUSH1 0x24 PUSH1 0x40 MLOAD DUP1 SWAP9 DUP2 SWAP4 DUP3 MSTORE ADDRESS PUSH1 0x4 DUP4 ADD MSTORE GAS STATICCALL SWAP3 DUP4 ISZERO PUSH2 0x474 JUMPI PUSH1 0x0 SWAP4 PUSH2 0x5C3 JUMPI JUMPDEST PUSH1 0x80 SWAP6 POP PUSH1 0x40 MLOAD SWAP5 DUP6 MSTORE DUP5 ADD MSTORE PUSH1 0x40 DUP4 ADD MSTORE PUSH1 0x60 DUP3 ADD MSTORE RETURN JUMPDEST DUP1 SWAP4 POP DUP6 DUP2 RETURNDATASIZE DUP4 GT PUSH2 0x5EC JUMPI JUMPDEST PUSH2 0x5DA DUP2 DUP4 PUSH2 0x1D8E JUMP JUMPDEST DUP2 ADD SUB SLT PUSH2 0x204 JUMPI PUSH1 0x80 SWAP5 MLOAD SWAP3 PUSH2 0x5AA JUMP JUMPDEST POP RETURNDATASIZE PUSH2 0x5D0 JUMP JUMPDEST DUP3 DUP2 SWAP4 SWAP3 SWAP6 POP RETURNDATASIZE DUP4 GT PUSH2 0x61D JUMPI JUMPDEST PUSH2 0x60B DUP2 DUP4 PUSH2 0x1D8E JUMP JUMPDEST DUP2 ADD SUB SLT PUSH2 0x204 JUMPI DUP4 SWAP1 MLOAD SWAP3 DUP8 PUSH2 0x582 JUMP JUMPDEST POP RETURNDATASIZE PUSH2 0x601 JUMP JUMPDEST CALLVALUE PUSH2 0x204 JUMPI PUSH1 0x40 CALLDATASIZE PUSH1 0x3 NOT ADD SLT PUSH2 0x204 JUMPI PUSH2 0x63D PUSH2 0x1D0F JUMP JUMPDEST PUSH1 0x1 PUSH1 0x1 PUSH1 0xA0 SHL SUB AND PUSH1 0x0 SWAP1 DUP2 MSTORE PUSH1 0x4 PUSH1 0x20 MSTORE PUSH1 0x40 SWAP1 KECCAK256 DUP1 SLOAD PUSH1 0x24 CALLDATALOAD SWAP2 SWAP1 DUP3 LT ISZERO PUSH2 0x204 JUMPI PUSH1 0x20 SWAP2 PUSH2 0x66E SWAP2 PUSH2 0x1D25 JUMP JUMPDEST SWAP1 SLOAD PUSH1 0x40 MLOAD SWAP2 PUSH1 0x3 SHL SHR DUP2 MSTORE RETURN JUMPDEST CALLVALUE PUSH2 0x204 JUMPI PUSH1 0x0 CALLDATASIZE PUSH1 0x3 NOT ADD SLT PUSH2 0x204 JUMPI PUSH1 0x20 PUSH1 0x40 MLOAD PUSH10 0x21E19E0C9BAB2400000 DUP2 MSTORE RETURN JUMPDEST CALLVALUE PUSH2 0x204 JUMPI PUSH1 0x20 DUP1 PUSH1 0x3 NOT CALLDATASIZE ADD SLT PUSH2 0x204 JUMPI PUSH1 0x4 CALLDATALOAD DUP1 ISZERO ISZERO DUP1 PUSH2 0x76E JUMPI JUMPDEST PUSH2 0x6C8 SWAP1 PUSH2 0x1F73 JUMP JUMPDEST PUSH1 0x0 MSTORE PUSH1 0x2 DUP2 MSTORE PUSH1 0xE PUSH1 0x40 PUSH1 0x0 KECCAK256 ADD PUSH1 0x40 MLOAD SWAP1 DUP2 DUP4 DUP3 SLOAD SWAP2 DUP3 DUP2 MSTORE ADD SWAP1 DUP2 SWAP3 PUSH1 0x0 MSTORE DUP5 PUSH1 0x0 KECCAK256 SWAP1 PUSH1 0x0 JUMPDEST DUP7 DUP3 DUP3 LT PUSH2 0x751 JUMPI DUP7 DUP7 PUSH2 0x708 DUP3 DUP9 SUB DUP4 PUSH2 0x1D8E JUMP JUMPDEST PUSH1 0x40 MLOAD SWAP3 DUP4 SWAP3 DUP2 DUP5 ADD SWAP1 DUP3 DUP6 MSTORE MLOAD DUP1 SWAP2 MSTORE PUSH1 0x40 DUP5 ADD SWAP3 SWAP2 PUSH1 0x0 JUMPDEST DUP3 DUP2 LT PUSH2 0x731 JUMPI POP POP POP POP SUB SWAP1 RETURN JUMPDEST DUP4 MLOAD PUSH1 0x1 PUSH1 0x1 PUSH1 0xA0 SHL SUB AND DUP6 MSTORE DUP7 SWAP6 POP SWAP4 DUP2 ADD SWAP4 SWAP3 DUP2 ADD SWAP3 PUSH1 0x1 ADD PUSH2 0x722 JUMP JUMPDEST DUP4 SLOAD PUSH1 0x1 PUSH1 0x1 PUSH1 0xA0 SHL SUB AND DUP6 MSTORE SWAP1 SWAP4 ADD SWAP3 PUSH1 0x1 SWAP3 DUP4 ADD SWAP3 ADD PUSH2 0x6F2 JUMP JUMPDEST POP PUSH1 0x7 SLOAD DUP2 LT PUSH2 0x6BF JUMP JUMPDEST CALLVALUE PUSH2 0x204 JUMPI PUSH1 0x20 CALLDATASIZE PUSH1 0x3 NOT ADD SLT PUSH2 0x204 JUMPI PUSH1 0x4 CALLDATALOAD PUSH1 0x0 MSTORE PUSH1 0x2 PUSH1 0x20 MSTORE PUSH1 0x40 PUSH1 0x0 KECCAK256 DUP1 SLOAD PUSH1 0x1 PUSH1 0xA0 SHL PUSH1 0x1 SWAP1 SUB PUSH1 0x1 DUP4 ADD SLOAD AND PUSH1 0x2 DUP4 ADD PUSH2 0x7B8 SWAP1 PUSH2 0x1E50 JUMP JUMPDEST SWAP2 PUSH2 0x7C5 PUSH1 0x3 DUP6 ADD PUSH2 0x1E50 JUMP JUMPDEST SWAP4 PUSH1 0x4 DUP2 ADD SLOAD SWAP2 PUSH1 0x5 DUP3 ADD SLOAD SWAP1 PUSH1 0x6 DUP4 ADD SLOAD PUSH1 0x7 DUP5 ADD SLOAD PUSH1 0x8 DUP6 ADD SLOAD PUSH1 0x9 DUP7 ADD SLOAD SWAP2 PUSH1 0xA DUP8 ADD SLOAD SWAP4 PUSH1 0xB DUP9 ADD SLOAD SWAP7 PUSH1 0xC DUP10 ADD SLOAD SWAP9 PUSH1 0xD ADD SLOAD SWAP10 PUSH1 0x40 MLOAD SWAP14 DUP15 SWAP14 DUP15 SWAP14 DUP12 PUSH1 0x8 SHR PUSH1 0xFF AND SWAP12 PUSH1 0xFF AND SWAP11 PUSH2 0x81B SWAP16 PUSH2 0x1C66 JUMP JUMPDEST SUB SWAP1 RETURN JUMPDEST CALLVALUE PUSH2 0x204 JUMPI PUSH1 0x20 DUP1 PUSH1 0x3 NOT CALLDATASIZE ADD SLT PUSH2 0x204 JUMPI PUSH1 0x1 PUSH1 0x1 PUSH1 0xA0 SHL SUB PUSH2 0x841 PUSH2 0x1D0F JUMP JUMPDEST AND PUSH1 0x0 MSTORE PUSH1 0x3 DUP2 MSTORE PUSH1 0x40 PUSH1 0x0 KECCAK256 SWAP1 PUSH1 0x40 MLOAD SWAP1 DUP2 DUP2 DUP5 SLOAD SWAP2 DUP3 DUP2 MSTORE ADD SWAP4 PUSH1 0x0 MSTORE DUP2 PUSH1 0x0 KECCAK256 SWAP2 PUSH1 0x0 SWAP1 JUMPDEST DUP3 DUP3 LT PUSH2 0x88C JUMPI PUSH2 0x81B DUP6 PUSH2 0x880 DUP2 DUP10 SUB DUP3 PUSH2 0x1D8E JUMP JUMPDEST PUSH1 0x40 MLOAD SWAP2 DUP3 SWAP2 DUP3 PUSH2 0x1D53 JUMP JUMPDEST DUP4 SLOAD DUP7 MSTORE SWAP5 DUP6 ADD SWAP5 PUSH1 0x1 SWAP4 DUP5 ADD SWAP4 SWAP1 SWAP2 ADD SWAP1 PUSH2 0x869 JUMP JUMPDEST CALLVALUE PUSH2 0x204 JUMPI PUSH1 0x0 CALLDATASIZE PUSH1 0x3 NOT ADD SLT PUSH2 0x204 JUMPI PUSH1 0x1 SLOAD PUSH1 0x40 MLOAD PUSH1 0x1 PUSH1 0x1 PUSH1 0xA0 SHL SUB SWAP1 SWAP2 AND DUP2 MSTORE PUSH1 0x20 SWAP1 RETURN JUMPDEST CALLVALUE PUSH2 0x204 JUMPI PUSH1 0x80 CALLDATASIZE PUSH1 0x3 NOT ADD SLT PUSH2 0x204 JUMPI PUSH2 0x8E5 PUSH2 0x1E07 JUMP JUMPDEST PUSH1 0x64 CALLDATALOAD PUSH1 0x1 PUSH1 0x1 PUSH1 0xA0 SHL SUB DUP2 AND SWAP1 SUB PUSH2 0x204 JUMPI PUSH1 0x4 CALLDATALOAD ISZERO ISZERO DUP1 PUSH2 0xD97 JUMPI JUMPDEST PUSH2 0x90C SWAP1 PUSH2 0x1F73 JUMP JUMPDEST PUSH1 0x4 CALLDATALOAD PUSH1 0x0 MSTORE PUSH1 0x2 PUSH1 0x20 MSTORE PUSH2 0x92E PUSH1 0xFF PUSH1 0xB PUSH1 0x40 PUSH1 0x0 KECCAK256 ADD SLOAD PUSH1 0x8 SHR AND PUSH2 0x1FBF JUMP JUMPDEST PUSH1 0x4 CALLDATALOAD PUSH1 0x0 MSTORE PUSH1 0x2 PUSH1 0x20 MSTORE PUSH2 0x94E PUSH1 0xFF PUSH1 0xB PUSH1 0x40 PUSH1 0x0 KECCAK256 ADD SLOAD AND ISZERO PUSH2 0x200B JUMP JUMPDEST PUSH2 0x956 PUSH2 0x21A0 JUMP JUMPDEST PUSH1 0x4 CALLDATALOAD PUSH1 0x0 MSTORE PUSH1 0x2 PUSH1 0x20 MSTORE PUSH1 0x40 PUSH1 0x0 KECCAK256 SWAP1 CALLER PUSH1 0x0 MSTORE PUSH1 0x10 DUP3 ADD PUSH1 0x20 MSTORE PUSH1 0xFF PUSH1 0x40 PUSH1 0x0 KECCAK256 SLOAD AND PUSH2 0xD52 JUMPI PUSH1 0x7 DUP3 ADD SLOAD PUSH1 0x6 DUP4 ADD SLOAD GT ISZERO PUSH2 0xD0D JUMPI PUSH2 0x99C PUSH1 0x24 CALLDATALOAD ISZERO ISZERO PUSH2 0x2061 JUMP JUMPDEST PUSH2 0x9BB PUSH2 0x9AF PUSH1 0x24 CALLDATALOAD PUSH1 0x5 DUP6 ADD SLOAD PUSH2 0x1F31 JUMP JUMPDEST PUSH1 0x4 DUP5 ADD SLOAD LT ISZERO PUSH2 0x20BE JUMP JUMPDEST ISZERO PUSH2 0xCFC JUMPI PUSH1 0x6 SLOAD PUSH1 0x1 PUSH1 0x1 PUSH1 0xA0 SHL SUB AND JUMPDEST PUSH1 0x40 MLOAD PUSH4 0x23B872DD PUSH1 0xE0 SHL DUP2 MSTORE CALLER PUSH1 0x4 DUP3 ADD MSTORE ADDRESS PUSH1 0x24 DUP1 DUP4 ADD SWAP2 SWAP1 SWAP2 MSTORE CALLDATALOAD PUSH1 0x44 DUP3 ADD MSTORE PUSH1 0x20 DUP2 PUSH1 0x64 DUP2 PUSH1 0x0 PUSH1 0x1 PUSH1 0x1 PUSH1 0xA0 SHL SUB DUP8 AND GAS CALL DUP1 ISZERO PUSH2 0x474 JUMPI PUSH2 0xA1B SWAP2 PUSH1 0x0 SWAP2 PUSH2 0xCDD JUMPI POP PUSH2 0x2121 JUMP JUMPDEST PUSH1 0xE DUP3 ADD SLOAD PUSH1 0x1 PUSH1 0x40 SHL DUP2 LT ISZERO PUSH2 0xCC7 JUMPI DUP1 PUSH1 0x1 PUSH2 0xA42 SWAP3 ADD PUSH1 0xE DUP6 ADD SSTORE PUSH1 0xE DUP5 ADD PUSH2 0x1D25 JUMP JUMPDEST DUP2 SLOAD SWAP1 PUSH1 0x3 SHL SWAP1 CALLER DUP3 SHL SWAP2 PUSH1 0x1 DUP1 PUSH1 0xA0 SHL SUB SWAP1 SHL NOT AND OR SWAP1 SSTORE CALLER PUSH1 0x0 MSTORE PUSH1 0x10 DUP3 ADD PUSH1 0x20 MSTORE PUSH1 0x40 PUSH1 0x0 KECCAK256 PUSH1 0x1 PUSH1 0xFF NOT DUP3 SLOAD AND OR SWAP1 SSTORE PUSH1 0xF DUP3 ADD PUSH1 0x20 MSTORE PUSH1 0x24 CALLDATALOAD PUSH1 0x40 PUSH1 0x0 KECCAK256 SSTORE PUSH2 0xA93 PUSH1 0x7 DUP4 ADD SLOAD PUSH2 0x1F22 JUMP JUMPDEST PUSH1 0x7 DUP4 ADD SSTORE PUSH2 0xAA8 PUSH1 0x24 CALLDATALOAD PUSH1 0x5 DUP5 ADD SLOAD PUSH2 0x1F31 JUMP JUMPDEST PUSH1 0x5 DUP4 ADD SSTORE PUSH2 0xABB PUSH1 0x24 CALLDATALOAD PUSH1 0xB SLOAD PUSH2 0x1F31 JUMP JUMPDEST PUSH1 0xB SSTORE CALLER PUSH1 0x0 MSTORE PUSH1 0x3 PUSH1 0x20 MSTORE PUSH2 0xAD7 PUSH1 0x4 CALLDATALOAD PUSH1 0x40 PUSH1 0x0 KECCAK256 PUSH2 0x1F3E JUMP JUMPDEST PUSH1 0x40 MLOAD PUSH1 0x24 CALLDATALOAD DUP2 MSTORE CALLER SWAP1 PUSH32 0xF4F82575EE84A81AAC4BE52B6A368E9BA9DF524B4F5CF8177D7CFBABE861820C PUSH1 0x20 PUSH1 0x4 CALLDATALOAD SWAP3 LOG3 PUSH1 0x64 CALLDATALOAD PUSH1 0x1 PUSH1 0x1 PUSH1 0xA0 SHL SUB AND ISZERO ISZERO DUP1 PUSH2 0xCA1 JUMPI JUMPDEST DUP1 PUSH2 0xC8C JUMPI JUMPDEST PUSH2 0xB50 JUMPI JUMPDEST POP PUSH1 0x4 PUSH1 0x5 DUP3 ADD SLOAD SWAP2 ADD SLOAD GT ISZERO PUSH2 0xB40 JUMPI PUSH1 0x1 PUSH1 0x0 SSTORE STOP JUMPDEST PUSH2 0xB4B PUSH1 0x4 CALLDATALOAD PUSH2 0x221C JUMP JUMPDEST PUSH2 0x431 JUMP JUMPDEST PUSH1 0x64 PUSH1 0x24 CALLDATALOAD MUL PUSH1 0x24 CALLDATALOAD DUP2 DIV PUSH1 0x64 EQ PUSH1 0x24 CALLDATALOAD ISZERO OR ISZERO PUSH2 0xC76 JUMPI PUSH2 0x2710 SWAP1 DIV SWAP1 DUP2 PUSH2 0xB7A JUMPI JUMPDEST POP PUSH2 0xB28 JUMP JUMPDEST PUSH1 0x40 MLOAD PUSH4 0xA9059CBB PUSH1 0xE0 SHL DUP2 MSTORE PUSH1 0x1 PUSH1 0x1 PUSH1 0xA0 SHL SUB PUSH1 0x64 CALLDATALOAD AND PUSH1 0x4 DUP3 ADD MSTORE PUSH1 0x24 DUP2 ADD DUP4 SWAP1 MSTORE SWAP1 PUSH1 0x20 SWAP1 DUP3 SWAP1 DUP2 PUSH1 0x0 DUP2 PUSH1 0x44 DUP2 ADD SUB SWAP3 PUSH1 0x1 PUSH1 0x1 PUSH1 0xA0 SHL SUB AND GAS CALL SWAP1 DUP2 ISZERO PUSH2 0x474 JUMPI PUSH1 0x0 SWAP2 PUSH2 0xC57 JUMPI JUMPDEST POP ISZERO PUSH2 0xC13 JUMPI PUSH1 0x40 MLOAD SWAP1 DUP2 MSTORE PUSH1 0x64 CALLDATALOAD PUSH1 0x1 PUSH1 0x1 PUSH1 0xA0 SHL SUB AND SWAP1 PUSH1 0x4 CALLDATALOAD SWAP1 PUSH32 0xE0570289EA25F3AE6CF39FB322BD2BA4E8F84491CAD47BE0CA30085550B80C8F SWAP1 PUSH1 0x20 SWAP1 LOG3 DUP2 DUP1 PUSH2 0xB74 JUMP JUMPDEST PUSH1 0x64 PUSH1 0x40 MLOAD PUSH3 0x461BCD PUSH1 0xE5 SHL DUP2 MSTORE PUSH1 0x20 PUSH1 0x4 DUP3 ADD MSTORE PUSH1 0x20 PUSH1 0x24 DUP3 ADD MSTORE PUSH32 0x47726F7570506F6F6C3A20526566657272616C20626F6E7573206661696C6564 PUSH1 0x44 DUP3 ADD MSTORE REVERT JUMPDEST PUSH2 0xC70 SWAP2 POP PUSH1 0x20 RETURNDATASIZE PUSH1 0x20 GT PUSH2 0x46D JUMPI PUSH2 0x45F DUP2 DUP4 PUSH2 0x1D8E JUMP JUMPDEST DUP4 PUSH2 0xBC9 JUMP JUMPDEST PUSH4 0x4E487B71 PUSH1 0xE0 SHL PUSH1 0x0 MSTORE PUSH1 0x11 PUSH1 0x4 MSTORE PUSH1 0x24 PUSH1 0x0 REVERT JUMPDEST POP PUSH1 0x64 CALLDATALOAD PUSH1 0x1 PUSH1 0x1 PUSH1 0xA0 SHL SUB AND CALLER EQ ISZERO PUSH2 0xB23 JUMP JUMPDEST POP PUSH1 0x64 CALLDATALOAD PUSH1 0x1 PUSH1 0x1 PUSH1 0xA0 SHL SUB AND PUSH1 0x0 SWAP1 DUP2 MSTORE PUSH1 0x10 DUP4 ADD PUSH1 0x20 MSTORE PUSH1 0x40 SWAP1 KECCAK256 SLOAD PUSH1 0xFF AND PUSH2 0xB1D JUMP JUMPDEST PUSH4 0x4E487B71 PUSH1 0xE0 SHL PUSH1 0x0 MSTORE PUSH1 0x41 PUSH1 0x4 MSTORE PUSH1 0x24 PUSH1 0x0 REVERT JUMPDEST PUSH2 0xCF6 SWAP2 POP PUSH1 0x20 RETURNDATASIZE PUSH1 0x20 GT PUSH2 0x46D JUMPI PUSH2 0x45F DUP2 DUP4 PUSH2 0x1D8E JUMP JUMPDEST DUP5 PUSH2 0x3E3 JUMP JUMPDEST PUSH1 0x5 SLOAD PUSH1 0x1 PUSH1 0x1 PUSH1 0xA0 SHL SUB AND PUSH2 0x9CD JUMP JUMPDEST PUSH1 0x40 MLOAD PUSH3 0x461BCD PUSH1 0xE5 SHL DUP2 MSTORE PUSH1 0x20 PUSH1 0x4 DUP3 ADD MSTORE PUSH1 0x17 PUSH1 0x24 DUP3 ADD MSTORE PUSH32 0x47726F7570506F6F6C3A20506F6F6C2069732066756C6C000000000000000000 PUSH1 0x44 DUP3 ADD MSTORE PUSH1 0x64 SWAP1 REVERT JUMPDEST PUSH1 0x40 MLOAD PUSH3 0x461BCD PUSH1 0xE5 SHL DUP2 MSTORE PUSH1 0x20 PUSH1 0x4 DUP3 ADD MSTORE PUSH1 0x1B PUSH1 0x24 DUP3 ADD MSTORE PUSH32 0x47726F7570506F6F6C3A20416C72656164792061206D656D6265720000000000 PUSH1 0x44 DUP3 ADD MSTORE PUSH1 0x64 SWAP1 REVERT JUMPDEST POP PUSH1 0x7 SLOAD PUSH1 0x4 CALLDATALOAD LT PUSH2 0x903 JUMP JUMPDEST PUSH2 0x1CF3 JUMP JUMPDEST CALLVALUE PUSH2 0x204 JUMPI PUSH1 0x0 CALLDATASIZE PUSH1 0x3 NOT ADD SLT PUSH2 0x204 JUMPI PUSH1 0x20 PUSH1 0xB SLOAD PUSH1 0x40 MLOAD SWAP1 DUP2 MSTORE RETURN JUMPDEST CALLVALUE PUSH2 0x204 JUMPI PUSH1 0x20 CALLDATASIZE PUSH1 0x3 NOT ADD SLT PUSH2 0x204 JUMPI PUSH2 0xDE0 PUSH2 0x1D0F JUMP JUMPDEST PUSH2 0xDE8 PUSH2 0x1EF6 JUMP JUMPDEST PUSH1 0x1 PUSH1 0x1 PUSH1 0xA0 SHL SUB AND DUP1 ISZERO PUSH2 0xE0F JUMPI PUSH1 0x1 PUSH1 0x1 PUSH1 0x60 SHL SUB PUSH1 0xA0 SHL PUSH1 0x9 SLOAD AND OR PUSH1 0x9 SSTORE PUSH1 0x0 DUP1 RETURN JUMPDEST PUSH1 0x40 MLOAD PUSH3 0x461BCD PUSH1 0xE5 SHL DUP2 MSTORE PUSH1 0x20 PUSH1 0x4 DUP3 ADD MSTORE PUSH1 0x23 PUSH1 0x24 DUP3 ADD MSTORE PUSH32 0x47726F7570506F6F6C3A20496E76616C69642074726561737572792061646472 PUSH1 0x44 DUP3 ADD MSTORE PUSH3 0x657373 PUSH1 0xE8 SHL PUSH1 0x64 DUP3 ADD MSTORE PUSH1 0x84 SWAP1 REVERT JUMPDEST CALLVALUE PUSH2 0x204 JUMPI PUSH1 0x0 CALLDATASIZE PUSH1 0x3 NOT ADD SLT PUSH2 0x204 JUMPI PUSH1 0x20 PUSH1 0xA SLOAD PUSH1 0x40 MLOAD SWAP1 DUP2 MSTORE RETURN JUMPDEST CALLVALUE PUSH2 0x204 JUMPI PUSH1 0x0 CALLDATASIZE PUSH1 0x3 NOT ADD SLT PUSH2 0x204 JUMPI PUSH1 0x20 PUSH1 0x40 MLOAD PUSH8 0x16345785D8A0000 DUP2 MSTORE RETURN JUMPDEST CALLVALUE PUSH2 0x204 JUMPI PUSH1 0x0 CALLDATASIZE PUSH1 0x3 NOT ADD SLT PUSH2 0x204 JUMPI PUSH1 0x20 PUSH1 0x40 MLOAD PUSH3 0x93A80 DUP2 MSTORE RETURN JUMPDEST CALLVALUE PUSH2 0x204 JUMPI PUSH1 0x0 CALLDATASIZE PUSH1 0x3 NOT ADD SLT PUSH2 0x204 JUMPI PUSH2 0xED8 PUSH2 0x1EF6 JUMP JUMPDEST PUSH1 0x1 DUP1 SLOAD PUSH1 0x1 PUSH1 0x1 PUSH1 0xA0 SHL SUB NOT DUP2 AND SWAP1 SWAP2 SSTORE PUSH1 0x0 SWAP1 PUSH1 0x1 PUSH1 0x1 PUSH1 0xA0 SHL SUB AND PUSH32 0x8BE0079C531659141344CD1FD0A4F28419497F9722A3DAAFE3B4186F6B6457E0 DUP3 DUP1 LOG3 STOP JUMPDEST CALLVALUE PUSH2 0x204 JUMPI PUSH1 0x0 CALLDATASIZE PUSH1 0x3 NOT ADD SLT PUSH2 0x204 JUMPI PUSH1 0x20 PUSH1 0x40 MLOAD PUSH1 0x64 DUP2 MSTORE RETURN JUMPDEST CALLVALUE PUSH2 0x204 JUMPI PUSH1 0x0 CALLDATASIZE PUSH1 0x3 NOT ADD SLT PUSH2 0x204 JUMPI PUSH1 0x9 SLOAD PUSH1 0x40 MLOAD PUSH1 0x1 PUSH1 0x1 PUSH1 0xA0 SHL SUB SWAP1 SWAP2 AND DUP2 MSTORE PUSH1 0x20 SWAP1 RETURN JUMPDEST CALLVALUE PUSH2 0x204 JUMPI PUSH1 0x40 CALLDATASIZE PUSH1 0x3 NOT ADD SLT PUSH2 0x204 JUMPI PUSH1 0x4 CALLDATALOAD PUSH1 0x24 SWAP1 DUP2 CALLDATALOAD SWAP2 DUP3 ISZERO ISZERO DUP4 SUB PUSH2 0x204 JUMPI DUP2 ISZERO ISZERO DUP1 PUSH2 0x1345 JUMPI JUMPDEST PUSH2 0xF96 SWAP1 PUSH2 0x1F73 JUMP JUMPDEST DUP2 PUSH1 0x0 MSTORE PUSH1 0x20 SWAP1 PUSH1 0x2 DUP3 MSTORE PUSH1 0xA PUSH1 0x40 PUSH1 0x0 KECCAK256 ADD SLOAD TIMESTAMP LT PUSH2 0x1304 JUMPI PUSH2 0xFB8 PUSH2 0x21A0 JUMP JUMPDEST DUP3 PUSH1 0x0 MSTORE PUSH1 0x2 DUP3 MSTORE PUSH1 0x40 PUSH1 0x0 KECCAK256 SWAP1 CALLER PUSH1 0x0 MSTORE PUSH1 0x10 DUP3 ADD DUP4 MSTORE PUSH2 0xFE1 PUSH1 0xFF PUSH1 0x40 PUSH1 0x0 KECCAK256 SLOAD AND PUSH2 0x21C3 JUMP JUMPDEST PUSH1 0x11 DUP3 ADD SWAP1 CALLER PUSH1 0x0 MSTORE DUP2 DUP5 MSTORE PUSH1 0xFF PUSH1 0x40 PUSH1 0x0 KECCAK256 SLOAD AND PUSH2 0x12C1 JUMPI PUSH1 0xFF PUSH1 0xB DUP5 ADD SLOAD AND ISZERO PUSH2 0x127E JUMPI CALLER PUSH1 0x0 MSTORE PUSH1 0xF DUP4 ADD DUP5 MSTORE PUSH1 0x40 PUSH1 0x0 KECCAK256 SLOAD SWAP3 PUSH8 0xDE0B6B3A7640000 DUP1 DUP6 MUL DUP6 DUP2 DIV DUP3 EQ DUP7 ISZERO OR ISZERO PUSH2 0x1269 JUMPI PUSH2 0x1043 PUSH2 0x104D SWAP2 PUSH1 0x5 DUP6 ADD SLOAD SWAP1 PUSH2 0x2180 JUMP JUMPDEST PUSH1 0xC DUP5 ADD SLOAD PUSH2 0x216D JUMP JUMPDEST DIV PUSH1 0xC8 DUP2 MUL DUP2 DUP2 DIV PUSH1 0xC8 EQ DUP3 ISZERO OR ISZERO PUSH2 0x1269 JUMPI PUSH1 0x1 SWAP2 PUSH2 0x2710 PUSH2 0x109B SWAP3 DIV SWAP4 DUP5 PUSH1 0x0 SWAP2 DUP6 DUP1 PUSH1 0xA0 SHL SUB SWAP6 DUP7 SWAP2 ADD SLOAD AND CALLER EQ PUSH2 0x1261 JUMPI JUMPDEST PUSH2 0x1091 PUSH2 0x1096 SWAP3 SWAP4 DUP11 PUSH2 0x1F31 JUMP JUMPDEST PUSH2 0x220F JUMP JUMPDEST PUSH2 0x1F31 JUMP JUMPDEST SWAP8 ISZERO PUSH2 0x1255 JUMPI DUP8 DUP2 DUP1 PUSH1 0x6 SLOAD AND JUMPDEST PUSH1 0x40 MLOAD PUSH4 0xA9059CBB PUSH1 0xE0 SHL DUP1 DUP3 MSTORE CALLER PUSH1 0x4 DUP4 ADD MSTORE PUSH1 0x24 DUP3 ADD SWAP5 SWAP1 SWAP5 MSTORE SWAP2 AND SWAP3 SWAP1 DUP9 DUP2 PUSH1 0x44 DUP2 PUSH1 0x0 DUP9 GAS CALL SWAP1 DUP2 ISZERO PUSH2 0x474 JUMPI PUSH1 0x0 SWAP2 PUSH2 0x1238 JUMPI JUMPDEST POP ISZERO PUSH2 0x11F4 JUMPI DUP4 PUSH2 0x1148 JUMPI JUMPDEST DUP10 DUP10 PUSH32 0x9F5926601E7FC353505F05FAE61282AE5D67B716F95656849456E6AA7BBBBB5F DUP11 PUSH2 0x1135 DUP12 DUP12 CALLER PUSH1 0x0 MSTORE DUP4 MSTORE PUSH1 0x40 PUSH1 0x0 KECCAK256 PUSH1 0x1 PUSH1 0xFF NOT DUP3 SLOAD AND OR SWAP1 SSTORE PUSH1 0xB SLOAD PUSH2 0x220F JUMP JUMPDEST PUSH1 0xB SSTORE PUSH1 0x40 MLOAD SWAP4 DUP5 MSTORE CALLER SWAP4 LOG3 PUSH1 0x1 PUSH1 0x0 SSTORE STOP JUMPDEST PUSH1 0x9 SLOAD PUSH1 0x40 MLOAD SWAP3 DUP4 MSTORE AND PUSH1 0x1 PUSH1 0x1 PUSH1 0xA0 SHL SUB AND PUSH1 0x4 DUP3 ADD MSTORE PUSH1 0x24 DUP2 ADD SWAP3 SWAP1 SWAP3 MSTORE DUP6 SWAP1 DUP3 SWAP1 PUSH1 0x44 SWAP1 DUP3 SWAP1 PUSH1 0x0 SWAP1 GAS CALL SWAP1 DUP2 ISZERO PUSH2 0x474 JUMPI PUSH1 0x0 SWAP2 PUSH2 0x11D7 JUMPI JUMPDEST POP ISZERO PUSH2 0x1194 JUMPI DUP1 DUP1 DUP1 DUP1 PUSH2 0x10EE JUMP JUMPDEST DUP4 PUSH1 0x1E PUSH1 0x64 SWAP3 PUSH1 0x40 MLOAD SWAP3 PUSH3 0x461BCD PUSH1 0xE5 SHL DUP5 MSTORE PUSH1 0x4 DUP5 ADD MSTORE DUP3 ADD MSTORE PUSH32 0x47726F7570506F6F6C3A20466565207472616E73666572206661696C65640000 PUSH1 0x44 DUP3 ADD MSTORE REVERT JUMPDEST PUSH2 0x11EE SWAP2 POP DUP6 RETURNDATASIZE DUP8 GT PUSH2 0x46D JUMPI PUSH2 0x45F DUP2 DUP4 PUSH2 0x1D8E JUMP JUMPDEST DUP8 PUSH2 0x1185 JUMP JUMPDEST PUSH1 0x40 MLOAD PUSH3 0x461BCD PUSH1 0xE5 SHL DUP2 MSTORE PUSH1 0x4 DUP2 ADD DUP10 SWAP1 MSTORE PUSH1 0x1C DUP2 DUP8 ADD MSTORE PUSH32 0x47726F7570506F6F6C3A205769746864726177616C206661696C656400000000 PUSH1 0x44 DUP3 ADD MSTORE PUSH1 0x64 SWAP1 REVERT JUMPDEST PUSH2 0x124F SWAP2 POP DUP10 RETURNDATASIZE DUP12 GT PUSH2 0x46D JUMPI PUSH2 0x45F DUP2 DUP4 PUSH2 0x1D8E JUMP JUMPDEST DUP12 PUSH2 0x10E2 JUMP JUMPDEST DUP8 DUP2 DUP1 PUSH1 0x5 SLOAD AND PUSH2 0x10A9 JUMP JUMPDEST SWAP1 POP DUP1 PUSH2 0x1083 JUMP JUMPDEST DUP4 PUSH4 0x4E487B71 PUSH1 0xE0 SHL PUSH1 0x0 MSTORE PUSH1 0x11 PUSH1 0x4 MSTORE PUSH1 0x0 REVERT JUMPDEST DUP4 PUSH1 0x1D PUSH1 0x64 SWAP3 PUSH1 0x40 MLOAD SWAP3 PUSH3 0x461BCD PUSH1 0xE5 SHL DUP5 MSTORE PUSH1 0x4 DUP5 ADD MSTORE DUP3 ADD MSTORE PUSH32 0x47726F7570506F6F6C3A20506F6F6C206E6F7420636F6D706C65746564000000 PUSH1 0x44 DUP3 ADD MSTORE REVERT JUMPDEST DUP4 PUSH1 0x1C PUSH1 0x64 SWAP3 PUSH1 0x40 MLOAD SWAP3 PUSH3 0x461BCD PUSH1 0xE5 SHL DUP5 MSTORE PUSH1 0x4 DUP5 ADD MSTORE DUP3 ADD MSTORE PUSH32 0x47726F7570506F6F6C3A20416C72656164792077697468647261776E00000000 PUSH1 0x44 DUP3 ADD MSTORE REVERT JUMPDEST PUSH1 0x64 SWAP2 PUSH1 0x40 MLOAD SWAP2 PUSH3 0x461BCD PUSH1 0xE5 SHL DUP4 MSTORE DUP2 PUSH1 0x4 DUP5 ADD MSTORE DUP3 ADD MSTORE PUSH32 0x47726F7570506F6F6C3A204C6F636B20706572696F64206E6F7420656E646564 PUSH1 0x44 DUP3 ADD MSTORE REVERT JUMPDEST POP PUSH1 0x7 SLOAD DUP3 LT PUSH2 0xF8D JUMP JUMPDEST CALLVALUE PUSH2 0x204 JUMPI PUSH1 0x0 CALLDATASIZE PUSH1 0x3 NOT ADD SLT PUSH2 0x204 JUMPI PUSH1 0x20 PUSH1 0x40 MLOAD PUSH4 0x1E13380 DUP2 MSTORE RETURN JUMPDEST CALLVALUE PUSH2 0x204 JUMPI PUSH1 0xC0 CALLDATASIZE PUSH1 0x3 NOT ADD SLT PUSH2 0x204 JUMPI PUSH1 0x4 CALLDATALOAD PUSH8 0xFFFFFFFFFFFFFFFF DUP2 GT PUSH2 0x204 JUMPI PUSH2 0x13A0 SWAP1 CALLDATASIZE SWAP1 PUSH1 0x4 ADD PUSH2 0x1DB0 JUMP JUMPDEST PUSH1 0x24 CALLDATALOAD PUSH8 0xFFFFFFFFFFFFFFFF DUP2 GT PUSH2 0x204 JUMPI PUSH2 0x13C0 SWAP1 CALLDATASIZE SWAP1 PUSH1 0x4 ADD PUSH2 0x1DB0 JUMP JUMPDEST PUSH1 0xA4 CALLDATALOAD DUP1 ISZERO ISZERO SUB PUSH2 0x204 JUMPI DUP2 MLOAD ISZERO PUSH2 0x1942 JUMPI PUSH1 0x44 SWAP2 PUSH8 0x16345785D8A0000 DUP4 CALLDATALOAD LT PUSH2 0x18FE JUMPI PUSH10 0x21E19E0C9BAB2400000 DUP4 CALLDATALOAD GT PUSH2 0x18B0 JUMPI PUSH1 0x2 PUSH1 0x64 CALLDATALOAD LT PUSH2 0x186C JUMPI PUSH1 0x32 PUSH1 0x64 CALLDATALOAD GT PUSH2 0x1828 JUMPI PUSH3 0x93A80 PUSH1 0x84 CALLDATALOAD LT PUSH2 0x17D9 JUMPI PUSH4 0x1E13380 PUSH1 0x84 CALLDATALOAD GT PUSH2 0x178B JUMPI PUSH1 0x7 SLOAD SWAP2 PUSH2 0x1431 DUP4 PUSH2 0x1F22 JUMP JUMPDEST PUSH1 0x7 SSTORE DUP3 PUSH1 0x0 MSTORE PUSH1 0x2 PUSH1 0x20 MSTORE PUSH1 0x40 PUSH1 0x0 KECCAK256 SWAP1 DUP4 DUP3 SSTORE PUSH1 0x1 DUP3 ADD CALLER PUSH1 0x1 PUSH1 0x1 PUSH1 0x60 SHL SUB PUSH1 0xA0 SHL DUP3 SLOAD AND OR SWAP1 SSTORE DUP3 MLOAD PUSH8 0xFFFFFFFFFFFFFFFF DUP2 GT PUSH2 0xCC7 JUMPI PUSH2 0x147A PUSH1 0x2 DUP5 ADD SLOAD PUSH2 0x1E16 JUMP JUMPDEST PUSH1 0x1F DUP2 GT PUSH2 0x1744 JUMPI JUMPDEST POP DUP1 PUSH1 0x20 PUSH1 0x1F DUP3 GT PUSH1 0x1 EQ PUSH2 0x16D7 JUMPI PUSH1 0x0 SWAP2 PUSH2 0x16CC JUMPI JUMPDEST POP DUP2 PUSH1 0x1 SHL SWAP2 PUSH1 0x0 NOT SWAP1 PUSH1 0x3 SHL SHR NOT AND OR PUSH1 0x2 DUP4 ADD SSTORE JUMPDEST DUP1 MLOAD SWAP1 PUSH8 0xFFFFFFFFFFFFFFFF DUP3 GT PUSH2 0xCC7 JUMPI PUSH2 0x14D0 PUSH1 0x3 DUP5 ADD SLOAD PUSH2 0x1E16 JUMP JUMPDEST PUSH1 0x1F DUP2 GT PUSH2 0x1681 JUMPI JUMPDEST POP PUSH1 0x20 SWAP1 PUSH1 0x1F DUP4 GT PUSH1 0x1 EQ PUSH2 0x15EE JUMPI PUSH32 0x80EB862B1EBF91EF46E8085C1E47B348AF9AD8F1248FB18302612A57AD3A2B55 SWAP5 SWAP4 SWAP3 SWAP2 PUSH1 0x0 SWAP2 DUP4 PUSH2 0x15E3 JUMPI JUMPDEST POP POP DUP2 PUSH1 0x1 SHL SWAP2 PUSH1 0x0 NOT SWAP1 PUSH1 0x3 SHL SHR NOT AND OR PUSH1 0x3 DUP3 ADD SSTORE JUMPDEST DUP5 CALLDATALOAD PUSH1 0x4 DUP3 ADD SSTORE PUSH1 0x0 PUSH1 0x5 DUP3 ADD SSTORE PUSH1 0x64 CALLDATALOAD PUSH1 0x6 DUP3 ADD SSTORE PUSH1 0x0 PUSH1 0x7 DUP3 ADD SSTORE PUSH1 0x84 CALLDATALOAD PUSH1 0x8 DUP3 ADD SSTORE TIMESTAMP PUSH1 0x9 DUP3 ADD SSTORE PUSH2 0x1565 PUSH1 0x84 CALLDATALOAD TIMESTAMP PUSH2 0x1F31 JUMP JUMPDEST PUSH1 0xA DUP3 ADD SSTORE PUSH1 0xB DUP2 ADD PUSH2 0x100 PUSH2 0xFFFF NOT DUP3 SLOAD AND OR SWAP1 SSTORE PUSH1 0x0 PUSH1 0xC DUP3 ADD SSTORE PUSH1 0xD PUSH1 0x8 SLOAD SWAP2 ADD SSTORE PUSH2 0x1595 PUSH1 0xA SLOAD PUSH2 0x1F22 JUMP JUMPDEST PUSH1 0xA SSTORE CALLER PUSH1 0x0 MSTORE PUSH1 0x4 PUSH1 0x20 MSTORE PUSH2 0x15AF DUP4 PUSH1 0x40 PUSH1 0x0 KECCAK256 PUSH2 0x1F3E JUMP JUMPDEST PUSH2 0x15C4 PUSH1 0x40 MLOAD SWAP2 PUSH1 0x80 DUP4 MSTORE PUSH1 0x80 DUP4 ADD SWAP1 PUSH2 0x1C26 JUMP JUMPDEST SWAP4 CALLDATALOAD PUSH1 0x20 DUP3 ADD MSTORE PUSH1 0x64 CALLDATALOAD PUSH1 0x40 DUP3 ADD MSTORE PUSH1 0x84 CALLDATALOAD PUSH1 0x60 DUP3 ADD MSTORE DUP1 CALLER SWAP5 SUB SWAP1 LOG3 STOP JUMPDEST ADD MLOAD SWAP1 POP DUP8 DUP1 PUSH2 0x1516 JUMP JUMPDEST SWAP1 PUSH1 0x3 DUP5 ADD PUSH1 0x0 MSTORE PUSH1 0x20 PUSH1 0x0 KECCAK256 SWAP2 PUSH1 0x0 JUMPDEST PUSH1 0x1F NOT DUP6 AND DUP2 LT PUSH2 0x1669 JUMPI POP SWAP2 DUP4 SWAP2 PUSH1 0x1 SWAP4 PUSH32 0x80EB862B1EBF91EF46E8085C1E47B348AF9AD8F1248FB18302612A57AD3A2B55 SWAP8 SWAP7 SWAP6 PUSH1 0x1F NOT DUP2 AND LT PUSH2 0x1650 JUMPI JUMPDEST POP POP POP DUP2 SHL ADD PUSH1 0x3 DUP3 ADD SSTORE PUSH2 0x152E JUMP JUMPDEST ADD MLOAD PUSH1 0x0 NOT PUSH1 0xF8 DUP5 PUSH1 0x3 SHL AND SHR NOT AND SWAP1 SSTORE DUP8 DUP1 DUP1 PUSH2 0x1640 JUMP JUMPDEST SWAP2 SWAP3 PUSH1 0x20 PUSH1 0x1 DUP2 SWAP3 DUP7 DUP6 ADD MLOAD DUP2 SSTORE ADD SWAP5 ADD SWAP3 ADD PUSH2 0x15FF JUMP JUMPDEST PUSH1 0x3 DUP5 ADD PUSH1 0x0 MSTORE PUSH1 0x20 PUSH1 0x0 KECCAK256 PUSH1 0x1F DUP5 ADD PUSH1 0x5 SHR DUP2 ADD SWAP2 PUSH1 0x20 DUP6 LT PUSH2 0x16C2 JUMPI JUMPDEST PUSH1 0x1F ADD PUSH1 0x5 SHR ADD SWAP1 JUMPDEST DUP2 DUP2 LT PUSH2 0x16B6 JUMPI POP PUSH2 0x14D9 JUMP JUMPDEST PUSH1 0x0 DUP2 SSTORE PUSH1 0x1 ADD PUSH2 0x16A9 JUMP JUMPDEST SWAP1 SWAP2 POP DUP2 SWAP1 PUSH2 0x16A0 JUMP JUMPDEST SWAP1 POP DUP5 ADD MLOAD DUP8 PUSH2 0x149A JUMP JUMPDEST SWAP2 POP PUSH1 0x2 DUP5 ADD PUSH1 0x0 MSTORE PUSH1 0x20 PUSH1 0x0 KECCAK256 PUSH1 0x0 SWAP3 JUMPDEST PUSH1 0x1F NOT DUP4 AND DUP5 LT PUSH2 0x172C JUMPI PUSH1 0x1 SWAP4 POP DUP3 PUSH1 0x1F NOT DUP2 AND LT PUSH2 0x1713 JUMPI JUMPDEST POP POP DUP2 SHL ADD PUSH1 0x2 DUP4 ADD SSTORE PUSH2 0x14B1 JUMP JUMPDEST DUP7 ADD MLOAD PUSH1 0x0 NOT PUSH1 0xF8 DUP5 PUSH1 0x3 SHL AND SHR NOT AND SWAP1 SSTORE DUP8 DUP1 PUSH2 0x1704 JUMP JUMPDEST DUP7 DUP2 ADD MLOAD DUP3 SSTORE PUSH1 0x20 SWAP4 DUP5 ADD SWAP4 PUSH1 0x1 SWAP1 SWAP3 ADD SWAP2 ADD PUSH2 0x16E9 JUMP JUMPDEST PUSH1 0x2 DUP5 ADD PUSH1 0x0 MSTORE PUSH1 0x20 PUSH1 0x0 KECCAK256 PUSH1 0x1F DUP4 ADD PUSH1 0x5 SHR DUP2 ADD PUSH1 0x20 DUP5 LT PUSH2 0x1784 JUMPI JUMPDEST PUSH1 0x1F DUP4 ADD PUSH1 0x5 SHR DUP3 ADD DUP2 LT PUSH2 0x1778 JUMPI POP POP PUSH2 0x1483 JUMP JUMPDEST PUSH1 0x0 DUP2 SSTORE PUSH1 0x1 ADD PUSH2 0x1762 JUMP JUMPDEST POP DUP1 PUSH2 0x1762 JUMP JUMPDEST PUSH1 0x40 MLOAD PUSH3 0x461BCD PUSH1 0xE5 SHL DUP2 MSTORE PUSH1 0x20 PUSH1 0x4 DUP3 ADD MSTORE PUSH1 0x21 PUSH1 0x24 DUP3 ADD MSTORE PUSH32 0x47726F7570506F6F6C3A204C6F636B206475726174696F6E20746F6F206C6F6E DUP2 DUP6 ADD MSTORE PUSH1 0x67 PUSH1 0xF8 SHL PUSH1 0x64 DUP3 ADD MSTORE PUSH1 0x84 SWAP1 REVERT JUMPDEST PUSH1 0x40 MLOAD PUSH3 0x461BCD PUSH1 0xE5 SHL DUP2 MSTORE PUSH1 0x20 PUSH1 0x4 DUP3 ADD MSTORE PUSH1 0x22 PUSH1 0x24 DUP3 ADD MSTORE PUSH32 0x47726F7570506F6F6C3A204C6F636B206475726174696F6E20746F6F2073686F DUP2 DUP6 ADD MSTORE PUSH2 0x1C9D PUSH1 0xF2 SHL PUSH1 0x64 DUP3 ADD MSTORE PUSH1 0x84 SWAP1 REVERT JUMPDEST PUSH1 0x40 MLOAD PUSH3 0x461BCD PUSH1 0xE5 SHL DUP2 MSTORE PUSH1 0x20 PUSH1 0x4 DUP3 ADD MSTORE PUSH1 0x1B PUSH1 0x24 DUP3 ADD MSTORE PUSH32 0x47726F7570506F6F6C3A20546F6F206D616E79206D656D626572730000000000 DUP2 DUP6 ADD MSTORE PUSH1 0x64 SWAP1 REVERT JUMPDEST PUSH1 0x40 MLOAD PUSH3 0x461BCD PUSH1 0xE5 SHL DUP2 MSTORE PUSH1 0x20 PUSH1 0x4 DUP3 ADD MSTORE PUSH1 0x1A PUSH1 0x24 DUP3 ADD MSTORE PUSH32 0x47726F7570506F6F6C3A20546F6F20666577206D656D62657273000000000000 DUP2 DUP6 ADD MSTORE PUSH1 0x64 SWAP1 REVERT JUMPDEST PUSH1 0x40 MLOAD PUSH3 0x461BCD PUSH1 0xE5 SHL DUP2 MSTORE PUSH1 0x20 PUSH1 0x4 DUP3 ADD MSTORE PUSH1 0x21 PUSH1 0x24 DUP3 ADD MSTORE PUSH32 0x47726F7570506F6F6C3A2054617267657420616D6F756E7420746F6F20686967 DUP2 DUP6 ADD MSTORE PUSH1 0xD PUSH1 0xFB SHL PUSH1 0x64 DUP3 ADD MSTORE PUSH1 0x84 SWAP1 REVERT JUMPDEST PUSH1 0x40 MLOAD PUSH3 0x461BCD PUSH1 0xE5 SHL DUP2 MSTORE PUSH1 0x20 PUSH1 0x4 DUP3 ADD DUP2 SWAP1 MSTORE PUSH1 0x24 DUP3 ADD MSTORE PUSH32 0x47726F7570506F6F6C3A2054617267657420616D6F756E7420746F6F206C6F77 DUP2 DUP6 ADD MSTORE PUSH1 0x64 SWAP1 REVERT JUMPDEST PUSH1 0x40 MLOAD PUSH3 0x461BCD PUSH1 0xE5 SHL DUP2 MSTORE PUSH1 0x20 PUSH1 0x4 DUP3 ADD MSTORE PUSH1 0x18 PUSH1 0x24 DUP3 ADD MSTORE PUSH32 0x47726F7570506F6F6C3A204E616D652072657175697265640000000000000000 PUSH1 0x44 DUP3 ADD MSTORE PUSH1 0x64 SWAP1 REVERT JUMPDEST CALLVALUE PUSH2 0x204 JUMPI PUSH1 0x20 DUP1 PUSH1 0x3 NOT CALLDATASIZE ADD SLT PUSH2 0x204 JUMPI PUSH1 0x1 PUSH1 0x1 PUSH1 0xA0 SHL SUB PUSH2 0x19A9 PUSH2 0x1D0F JUMP JUMPDEST AND PUSH1 0x0 MSTORE PUSH1 0x4 DUP2 MSTORE PUSH1 0x40 PUSH1 0x0 KECCAK256 SWAP1 PUSH1 0x40 MLOAD SWAP1 DUP2 DUP2 DUP5 SLOAD SWAP2 DUP3 DUP2 MSTORE ADD SWAP4 PUSH1 0x0 MSTORE DUP2 PUSH1 0x0 KECCAK256 SWAP2 PUSH1 0x0 SWAP1 JUMPDEST DUP3 DUP3 LT PUSH2 0x19E8 JUMPI PUSH2 0x81B DUP6 PUSH2 0x880 DUP2 DUP10 SUB DUP3 PUSH2 0x1D8E JUMP JUMPDEST DUP4 SLOAD DUP7 MSTORE SWAP5 DUP6 ADD SWAP5 PUSH1 0x1 SWAP4 DUP5 ADD SWAP4 SWAP1 SWAP2 ADD SWAP1 PUSH2 0x19D1 JUMP JUMPDEST CALLVALUE PUSH2 0x204 JUMPI PUSH1 0x40 CALLDATASIZE PUSH1 0x3 NOT ADD SLT PUSH2 0x204 JUMPI PUSH1 0x24 CALLDATALOAD PUSH1 0x1 PUSH1 0x1 PUSH1 0xA0 SHL SUB DUP2 AND SWAP1 PUSH1 0x4 CALLDATALOAD SWAP1 DUP3 SWAP1 SUB PUSH2 0x204 JUMPI DUP1 ISZERO ISZERO DUP1 PUSH2 0x1AC7 JUMPI JUMPDEST PUSH2 0x1A3B SWAP1 PUSH2 0x1F73 JUMP JUMPDEST PUSH1 0x0 MSTORE PUSH1 0x2 PUSH1 0x20 MSTORE PUSH1 0x40 PUSH1 0x0 KECCAK256 SWAP1 DUP1 PUSH1 0x0 MSTORE PUSH1 0xF DUP3 ADD PUSH1 0x20 MSTORE PUSH1 0x40 PUSH1 0x0 KECCAK256 SLOAD SWAP1 PUSH1 0x5 DUP4 ADD SLOAD DUP1 ISZERO ISZERO PUSH1 0x0 EQ PUSH2 0x1AB9 JUMPI PUSH8 0xDE0B6B3A7640000 SWAP4 DUP5 DUP5 MUL SWAP5 DUP5 DUP7 DIV EQ DUP5 ISZERO OR ISZERO PUSH2 0xC76 JUMPI PUSH2 0x1A92 PUSH1 0x11 SWAP3 PUSH1 0x60 SWAP7 PUSH2 0x2180 JUMP JUMPDEST SWAP3 JUMPDEST PUSH1 0x0 MSTORE ADD PUSH1 0x20 MSTORE PUSH1 0xFF PUSH1 0x40 PUSH1 0x0 KECCAK256 SLOAD AND SWAP1 PUSH1 0x40 MLOAD SWAP3 DUP4 MSTORE PUSH1 0x20 DUP4 ADD MSTORE ISZERO ISZERO PUSH1 0x40 DUP3 ADD MSTORE RETURN JUMPDEST POP PUSH1 0x11 PUSH1 0x60 SWAP4 PUSH1 0x0 SWAP3 PUSH2 0x1A94 JUMP JUMPDEST POP PUSH1 0x7 SLOAD DUP2 LT PUSH2 0x1A32 JUMP JUMPDEST CALLVALUE PUSH2 0x204 JUMPI PUSH1 0x0 CALLDATASIZE PUSH1 0x3 NOT ADD SLT PUSH2 0x204 JUMPI PUSH1 0x20 PUSH1 0x7 SLOAD PUSH1 0x40 MLOAD SWAP1 DUP2 MSTORE RETURN JUMPDEST CALLVALUE PUSH2 0x204 JUMPI PUSH1 0x40 CALLDATASIZE PUSH1 0x3 NOT ADD SLT PUSH2 0x204 JUMPI PUSH2 0x1B09 PUSH2 0x1D0F JUMP JUMPDEST PUSH1 0x1 PUSH1 0x1 PUSH1 0xA0 SHL SUB AND PUSH1 0x0 SWAP1 DUP2 MSTORE PUSH1 0x3 PUSH1 0x20 MSTORE PUSH1 0x40 SWAP1 KECCAK256 DUP1 SLOAD PUSH1 0x24 CALLDATALOAD SWAP2 SWAP1 DUP3 LT ISZERO PUSH2 0x204 JUMPI PUSH1 0x20 SWAP2 PUSH2 0x1B3A SWAP2 PUSH2 0x1D25 JUMP JUMPDEST SWAP1 SLOAD SWAP1 PUSH1 0x3 SHL SHR PUSH1 0x40 MLOAD SWAP1 DUP2 MSTORE RETURN JUMPDEST CALLVALUE PUSH2 0x204 JUMPI PUSH1 0x20 CALLDATASIZE PUSH1 0x3 NOT ADD SLT PUSH2 0x204 JUMPI PUSH1 0x4 CALLDATALOAD DUP1 ISZERO ISZERO DUP1 PUSH2 0x1C00 JUMPI JUMPDEST PUSH2 0x1B6F SWAP1 PUSH2 0x1F73 JUMP JUMPDEST PUSH1 0x0 MSTORE PUSH1 0x2 PUSH1 0x20 MSTORE PUSH1 0x40 PUSH1 0x0 KECCAK256 DUP1 SLOAD SWAP1 PUSH1 0x1 PUSH1 0xA0 SHL PUSH1 0x1 SWAP1 SUB PUSH1 0x1 DUP3 ADD SLOAD AND PUSH1 0x4 DUP3 ADD SLOAD SWAP3 PUSH1 0x5 DUP4 ADD SLOAD SWAP1 PUSH1 0x6 DUP5 ADD SLOAD SWAP1 PUSH1 0x7 DUP6 ADD SLOAD SWAP1 PUSH1 0x8 DUP7 ADD SLOAD PUSH1 0x9 DUP8 ADD SLOAD PUSH1 0xA DUP9 ADD SLOAD SWAP2 PUSH1 0xB DUP10 ADD SLOAD SWAP5 PUSH1 0xC DUP11 ADD SLOAD SWAP7 PUSH1 0xD DUP12 ADD SLOAD SWAP9 PUSH1 0x2 DUP13 ADD PUSH2 0x1BD5 SWAP1 PUSH2 0x1E50 JUMP JUMPDEST SWAP12 PUSH1 0x3 ADD PUSH2 0x1BE2 SWAP1 PUSH2 0x1E50 JUMP JUMPDEST SWAP13 PUSH1 0x40 MLOAD SWAP14 DUP15 SWAP14 DUP15 SWAP14 DUP12 PUSH1 0x8 SHR PUSH1 0xFF AND SWAP12 PUSH1 0xFF AND SWAP11 PUSH2 0x81B SWAP16 PUSH2 0x1C66 JUMP JUMPDEST POP PUSH1 0x7 SLOAD DUP2 LT PUSH2 0x1B66 JUMP JUMPDEST CALLVALUE PUSH2 0x204 JUMPI PUSH1 0x0 CALLDATASIZE PUSH1 0x3 NOT ADD SLT PUSH2 0x204 JUMPI PUSH1 0x20 SWAP1 PUSH1 0x8 SLOAD DUP2 MSTORE RETURN JUMPDEST SWAP2 SWAP1 DUP3 MLOAD SWAP3 DUP4 DUP3 MSTORE PUSH1 0x0 JUMPDEST DUP5 DUP2 LT PUSH2 0x1C52 JUMPI POP POP DUP3 PUSH1 0x0 PUSH1 0x20 DUP1 SWAP5 SWAP6 DUP5 ADD ADD MSTORE PUSH1 0x1F DUP1 NOT SWAP2 ADD AND ADD ADD SWAP1 JUMP JUMPDEST PUSH1 0x20 DUP2 DUP4 ADD DUP2 ADD MLOAD DUP5 DUP4 ADD DUP3 ADD MSTORE ADD PUSH2 0x1C31 JUMP JUMPDEST SWAP12 SWAP9 SWAP6 SWAP3 SWAP5 SWAP16 SWAP15 SWAP14 SWAP11 SWAP8 SWAP5 PUSH2 0x1CA4 SWAP1 DUP14 PUSH2 0x1C0 SWAP16 SWAP13 SWAP10 SWAP7 SWAP4 PUSH2 0x1CB2 SWAP6 PUSH1 0x20 SWAP2 DUP4 MSTORE PUSH1 0x1 DUP1 PUSH1 0xA0 SHL SUB AND SWAP2 ADD MSTORE DUP14 PUSH2 0x1E0 SWAP1 DUP2 PUSH1 0x40 DUP3 ADD MSTORE ADD SWAP1 PUSH2 0x1C26 JUMP JUMPDEST DUP13 DUP2 SUB PUSH1 0x60 DUP15 ADD MSTORE SWAP1 PUSH2 0x1C26 JUMP JUMPDEST SWAP14 PUSH1 0x80 DUP12 ADD MSTORE PUSH1 0xA0 DUP11 ADD MSTORE PUSH1 0xC0 DUP10 ADD MSTORE PUSH1 0xE0 DUP9 ADD MSTORE PUSH2 0x100 DUP8 ADD MSTORE PUSH2 0x120 DUP7 ADD MSTORE PUSH2 0x140 DUP6 ADD MSTORE ISZERO ISZERO PUSH2 0x160 DUP5 ADD MSTORE ISZERO ISZERO PUSH2 0x180 DUP4 ADD MSTORE PUSH2 0x1A0 DUP3 ADD MSTORE ADD MSTORE JUMP JUMPDEST CALLVALUE PUSH2 0x204 JUMPI PUSH1 0x0 CALLDATASIZE PUSH1 0x3 NOT ADD SLT PUSH2 0x204 JUMPI PUSH1 0x20 PUSH1 0x40 MLOAD PUSH1 0xC8 DUP2 MSTORE RETURN JUMPDEST PUSH1 0x4 CALLDATALOAD SWAP1 PUSH1 0x1 PUSH1 0x1 PUSH1 0xA0 SHL SUB DUP3 AND DUP3 SUB PUSH2 0x204 JUMPI JUMP JUMPDEST DUP1 SLOAD DUP3 LT ISZERO PUSH2 0x1D3D JUMPI PUSH1 0x0 MSTORE PUSH1 0x20 PUSH1 0x0 KECCAK256 ADD SWAP1 PUSH1 0x0 SWAP1 JUMP JUMPDEST PUSH4 0x4E487B71 PUSH1 0xE0 SHL PUSH1 0x0 MSTORE PUSH1 0x32 PUSH1 0x4 MSTORE PUSH1 0x24 PUSH1 0x0 REVERT JUMPDEST PUSH1 0x20 SWAP1 DUP2 PUSH1 0x40 DUP2 DUP4 ADD SWAP3 DUP3 DUP2 MSTORE DUP6 MLOAD DUP1 SWAP5 MSTORE ADD SWAP4 ADD SWAP2 PUSH1 0x0 JUMPDEST DUP3 DUP2 LT PUSH2 0x1D7A JUMPI POP POP POP POP SWAP1 JUMP JUMPDEST DUP4 MLOAD DUP6 MSTORE SWAP4 DUP2 ADD SWAP4 SWAP3 DUP2 ADD SWAP3 PUSH1 0x1 ADD PUSH2 0x1D6C JUMP JUMPDEST SWAP1 PUSH1 0x1F DUP1 NOT SWAP2 ADD AND DUP2 ADD SWAP1 DUP2 LT PUSH8 0xFFFFFFFFFFFFFFFF DUP3 GT OR PUSH2 0xCC7 JUMPI PUSH1 0x40 MSTORE JUMP JUMPDEST DUP2 PUSH1 0x1F DUP3 ADD SLT ISZERO PUSH2 0x204 JUMPI DUP1 CALLDATALOAD SWAP1 PUSH8 0xFFFFFFFFFFFFFFFF DUP3 GT PUSH2 0xCC7 JUMPI PUSH1 0x40 MLOAD SWAP3 PUSH2 0x1DE5 PUSH1 0x1F DUP5 ADD PUSH1 0x1F NOT AND PUSH1 0x20 ADD DUP6 PUSH2 0x1D8E JUMP JUMPDEST DUP3 DUP5 MSTORE PUSH1 0x20 DUP4 DUP4 ADD ADD GT PUSH2 0x204 JUMPI DUP2 PUSH1 0x0 SWAP3 PUSH1 0x20 DUP1 SWAP4 ADD DUP4 DUP7 ADD CALLDATACOPY DUP4 ADD ADD MSTORE SWAP1 JUMP JUMPDEST PUSH1 0x44 CALLDATALOAD SWAP1 DUP2 ISZERO ISZERO DUP3 SUB PUSH2 0x204 JUMPI JUMP JUMPDEST SWAP1 PUSH1 0x1 DUP3 DUP2 SHR SWAP3 AND DUP1 ISZERO PUSH2 0x1E46 JUMPI JUMPDEST PUSH1 0x20 DUP4 LT EQ PUSH2 0x1E30 JUMPI JUMP JUMPDEST PUSH4 0x4E487B71 PUSH1 0xE0 SHL PUSH1 0x0 MSTORE PUSH1 0x22 PUSH1 0x4 MSTORE PUSH1 0x24 PUSH1 0x0 REVERT JUMPDEST SWAP2 PUSH1 0x7F AND SWAP2 PUSH2 0x1E25 JUMP JUMPDEST SWAP1 PUSH1 0x40 MLOAD SWAP2 DUP3 PUSH1 0x0 DUP3 SLOAD SWAP3 PUSH2 0x1E64 DUP5 PUSH2 0x1E16 JUMP JUMPDEST SWAP1 DUP2 DUP5 MSTORE PUSH1 0x1 SWAP5 DUP6 DUP2 AND SWAP1 DUP2 PUSH1 0x0 EQ PUSH2 0x1ED3 JUMPI POP PUSH1 0x1 EQ PUSH2 0x1E90 JUMPI JUMPDEST POP POP PUSH2 0x1E8E SWAP3 POP SUB DUP4 PUSH2 0x1D8E JUMP JUMPDEST JUMP JUMPDEST SWAP1 SWAP4 SWAP2 POP PUSH1 0x0 MSTORE PUSH1 0x20 SWAP1 DUP2 PUSH1 0x0 KECCAK256 SWAP4 PUSH1 0x0 SWAP2 JUMPDEST DUP2 DUP4 LT PUSH2 0x1EBB JUMPI POP POP PUSH2 0x1E8E SWAP4 POP DUP3 ADD ADD CODESIZE DUP1 PUSH2 0x1E80 JUMP JUMPDEST DUP6 SLOAD DUP9 DUP5 ADD DUP6 ADD MSTORE SWAP5 DUP6 ADD SWAP5 DUP8 SWAP5 POP SWAP2 DUP4 ADD SWAP2 PUSH2 0x1EA3 JUMP JUMPDEST SWAP2 POP POP PUSH2 0x1E8E SWAP5 POP PUSH1 0x20 SWAP3 POP PUSH1 0xFF NOT AND DUP3 DUP5 ADD MSTORE ISZERO ISZERO PUSH1 0x5 SHL DUP3 ADD ADD CODESIZE DUP1 PUSH2 0x1E80 JUMP JUMPDEST PUSH1 0x1 SLOAD PUSH1 0x1 PUSH1 0x1 PUSH1 0xA0 SHL SUB AND CALLER SUB PUSH2 0x1F0A JUMPI JUMP JUMPDEST PUSH1 0x40 MLOAD PUSH4 0x118CDAA7 PUSH1 0xE0 SHL DUP2 MSTORE CALLER PUSH1 0x4 DUP3 ADD MSTORE PUSH1 0x24 SWAP1 REVERT JUMPDEST PUSH1 0x0 NOT DUP2 EQ PUSH2 0xC76 JUMPI PUSH1 0x1 ADD SWAP1 JUMP JUMPDEST SWAP2 SWAP1 DUP3 ADD DUP1 SWAP3 GT PUSH2 0xC76 JUMPI JUMP JUMPDEST DUP1 SLOAD PUSH1 0x1 PUSH1 0x40 SHL DUP2 LT ISZERO PUSH2 0xCC7 JUMPI PUSH2 0x1F5B SWAP2 PUSH1 0x1 DUP3 ADD DUP2 SSTORE PUSH2 0x1D25 JUMP JUMPDEST DUP2 SWAP3 SWAP2 SLOAD SWAP1 PUSH1 0x3 SHL SWAP2 DUP3 SHL SWAP2 PUSH1 0x0 NOT SWAP1 SHL NOT AND OR SWAP1 SSTORE JUMP JUMPDEST ISZERO PUSH2 0x1F7A JUMPI JUMP JUMPDEST PUSH1 0x40 MLOAD PUSH3 0x461BCD PUSH1 0xE5 SHL DUP2 MSTORE PUSH1 0x20 PUSH1 0x4 DUP3 ADD MSTORE PUSH1 0x1E PUSH1 0x24 DUP3 ADD MSTORE PUSH32 0x47726F7570506F6F6C3A20506F6F6C20646F6573206E6F742065786973740000 PUSH1 0x44 DUP3 ADD MSTORE PUSH1 0x64 SWAP1 REVERT JUMPDEST ISZERO PUSH2 0x1FC6 JUMPI JUMP JUMPDEST PUSH1 0x40 MLOAD PUSH3 0x461BCD PUSH1 0xE5 SHL DUP2 MSTORE PUSH1 0x20 PUSH1 0x4 DUP3 ADD MSTORE PUSH1 0x1A PUSH1 0x24 DUP3 ADD MSTORE PUSH32 0x47726F7570506F6F6C3A20506F6F6C206E6F7420616374697665000000000000 PUSH1 0x44 DUP3 ADD MSTORE PUSH1 0x64 SWAP1 REVERT JUMPDEST ISZERO PUSH2 0x2012 JUMPI JUMP JUMPDEST PUSH1 0x40 MLOAD PUSH3 0x461BCD PUSH1 0xE5 SHL DUP2 MSTORE PUSH1 0x20 PUSH1 0x4 DUP3 ADD MSTORE PUSH1 0x21 PUSH1 0x24 DUP3 ADD MSTORE PUSH32 0x47726F7570506F6F6C3A20506F6F6C20616C726561647920636F6D706C657465 PUSH1 0x44 DUP3 ADD MSTORE PUSH1 0x19 PUSH1 0xFA SHL PUSH1 0x64 DUP3 ADD MSTORE PUSH1 0x84 SWAP1 REVERT JUMPDEST ISZERO PUSH2 0x2068 JUMPI JUMP JUMPDEST PUSH1 0x40 MLOAD PUSH3 0x461BCD PUSH1 0xE5 SHL DUP2 MSTORE PUSH1 0x20 PUSH1 0x4 DUP3 ADD MSTORE PUSH1 0x28 PUSH1 0x24 DUP3 ADD MSTORE PUSH32 0x47726F7570506F6F6C3A20416D6F756E74206D75737420626520677265617465 PUSH1 0x44 DUP3 ADD MSTORE PUSH8 0x72207468616E203 PUSH1 0xC4 SHL PUSH1 0x64 DUP3 ADD MSTORE PUSH1 0x84 SWAP1 REVERT JUMPDEST ISZERO PUSH2 0x20C5 JUMPI JUMP JUMPDEST PUSH1 0x64 PUSH1 0x40 MLOAD PUSH3 0x461BCD PUSH1 0xE5 SHL DUP2 MSTORE PUSH1 0x20 PUSH1 0x4 DUP3 ADD MSTORE PUSH1 0x20 PUSH1 0x24 DUP3 ADD MSTORE PUSH32 0x47726F7570506F6F6C3A20457863656564732074617267657420616D6F756E74 PUSH1 0x44 DUP3 ADD MSTORE REVERT JUMPDEST SWAP1 DUP2 PUSH1 0x20 SWAP2 SUB SLT PUSH2 0x204 JUMPI MLOAD DUP1 ISZERO ISZERO DUP2 SUB PUSH2 0x204 JUMPI SWAP1 JUMP JUMPDEST ISZERO PUSH2 0x2128 JUMPI JUMP JUMPDEST PUSH1 0x40 MLOAD PUSH3 0x461BCD PUSH1 0xE5 SHL DUP2 MSTORE PUSH1 0x20 PUSH1 0x4 DUP3 ADD MSTORE PUSH1 0x1A PUSH1 0x24 DUP3 ADD MSTORE PUSH32 0x47726F7570506F6F6C3A205472616E73666572206661696C6564000000000000 PUSH1 0x44 DUP3 ADD MSTORE PUSH1 0x64 SWAP1 REVERT JUMPDEST DUP2 DUP2 MUL SWAP3 SWAP2 DUP2 ISZERO SWAP2 DUP5 DIV EQ OR ISZERO PUSH2 0xC76 JUMPI JUMP JUMPDEST DUP2 ISZERO PUSH2 0x218A JUMPI DIV SWAP1 JUMP JUMPDEST PUSH4 0x4E487B71 PUSH1 0xE0 SHL PUSH1 0x0 MSTORE PUSH1 0x12 PUSH1 0x4 MSTORE PUSH1 0x24 PUSH1 0x0 REVERT JUMPDEST PUSH1 0x2 PUSH1 0x0 SLOAD EQ PUSH2 0x21B1 JUMPI PUSH1 0x2 PUSH1 0x0 SSTORE JUMP JUMPDEST PUSH1 0x40 MLOAD PUSH4 0x3EE5AEB5 PUSH1 0xE0 SHL DUP2 MSTORE PUSH1 0x4 SWAP1 REVERT JUMPDEST ISZERO PUSH2 0x21CA JUMPI JUMP JUMPDEST PUSH1 0x40 MLOAD PUSH3 0x461BCD PUSH1 0xE5 SHL DUP2 MSTORE PUSH1 0x20 PUSH1 0x4 DUP3 ADD MSTORE PUSH1 0x17 PUSH1 0x24 DUP3 ADD MSTORE PUSH32 0x47726F7570506F6F6C3A204E6F742061206D656D626572000000000000000000 PUSH1 0x44 DUP3 ADD MSTORE PUSH1 0x64 SWAP1 REVERT JUMPDEST SWAP2 SWAP1 DUP3 SUB SWAP2 DUP3 GT PUSH2 0xC76 JUMPI JUMP JUMPDEST DUP1 PUSH1 0x0 MSTORE PUSH1 0x2 PUSH1 0x20 MSTORE PUSH32 0x88D91B760DADB6520ACBF85B0C896F73884D30AB8E465C348C74F093EF57EB3D PUSH1 0x40 DUP1 PUSH1 0x0 KECCAK256 PUSH1 0xB DUP2 ADD PUSH1 0x1 PUSH1 0xFF NOT DUP3 SLOAD AND OR SWAP1 SSTORE PUSH1 0xC PUSH5 0x496CEBB800 PUSH2 0x227E PUSH2 0x2274 PUSH1 0x9 DUP6 ADD SLOAD TIMESTAMP PUSH2 0x220F JUMP JUMPDEST PUSH1 0xD DUP6 ADD SLOAD PUSH2 0x216D JUMP JUMPDEST DIV SWAP2 PUSH8 0xDE0B6B3A7640000 PUSH2 0x2298 PUSH1 0x5 DUP4 ADD SLOAD SWAP5 DUP6 PUSH2 0x216D JUMP JUMPDEST DIV SWAP2 DUP3 SWAP2 ADD SSTORE DUP3 MLOAD SWAP2 DUP3 MSTORE PUSH1 0x20 DUP3 ADD MSTORE LOG2 JUMP INVALID LOG2 PUSH5 0x6970667358 0x22 SLT KECCAK256 0xB7 0xAE PUSH11 0xD8B61C5ED3A6F712D11B95 CALL PUSH11 0x8B0DD3DEAC7A82924B0498 PUSH25 0x23BC90B064736F6C6343000814003300000000000000000000 "},"methodIdentifiers":{"CREATOR_BONUS_PERCENTAGE()":"7fee9d26","DEFAULT_APY()":"04553111","MAX_LOCK_DURATION()":"4f1bfc9e","MAX_MEMBERS()":"ea0e35b1","MAX_TARGET_AMOUNT()":"b7323881","MIN_LOCK_DURATION()":"78b4330f","MIN_MEMBERS()":"d9a67220","MIN_TARGET_AMOUNT()":"7d293916","REFERRAL_BONUS_PERCENTAGE()":"62d4f29a","YIELD_FEE_PERCENTAGE()":"0c5e72c0","celoToken()":"e22d551a","contributeToPool(uint256,uint256,bool)":"f2b907d3","createPool(string,string,uint256,uint256,uint256,bool)":"3dc55b71","cusdToken()":"cae07843","getMemberInfo(uint256,address)":"1e67939e","getPool(uint256)":"068bcd8d","getPoolMembers(uint256)":"b1219e73","getStats()":"c59d4847","getUserCreatedPools(address)":"2d380cca","getUserPools(address)":"9816af58","joinPool(uint256,uint256,bool,address)":"8161d781","nextPoolId()":"18e56131","owner()":"8da5cb5b","pools(uint256)":"ac4afa38","renounceOwnership()":"715018a6","totalPoolsCreated()":"7dbb6876","totalVolumeLocked()":"7fea355b","transferOwnership(address)":"f2fde38b","treasury()":"61d027b3","updateAPY(uint256)":"fae728cd","updateTreasury(address)":"7f51bb1f","userCreatedPools(address,uint256)":"bbef6f90","userPools(address,uint256)":"1064aa55","withdrawFromPool(uint256,bool)":"506f7f5e"}}}}}