{"contracts/MockYieldStrategy.sol":{"MockYieldStrategy":{"abi":[{"inputs":[],"stateMutability":"nonpayable","type":"constructor"},{"inputs":[],"name":"apy","outputs":[{"internalType":"uint256","name":"","type":"uint256"}],"stateMutability":"view","type":"function"},{"inputs":[],"name":"deposit","outputs":[],"stateMutability":"payable","type":"function"},{"inputs":[],"name":"isActive","outputs":[{"internalType":"bool","name":"","type":"bool"}],"stateMutability":"view","type":"function"},{"inputs":[{"internalType":"uint256","name":"newAPY","type":"uint256"}],"name":"setAPY","outputs":[],"stateMutability":"nonpayable","type":"function"},{"inputs":[{"internalType":"bool","name":"active","type":"bool"}],"name":"setActive","outputs":[],"stateMutability":"nonpayable","type":"function"},{"inputs":[],"name":"totalDeposited","outputs":[{"internalType":"uint256","name":"","type":"uint256"}],"stateMutability":"view","type":"function"},{"inputs":[{"internalType":"uint256","name":"amount","type":"uint256"}],"name":"withdraw","outputs":[],"stateMutability":"nonpayable","type":"function"},{"stateMutability":"payable","type":"receive"}],"evm":{"bytecode":{"linkReferences":{},"object":"6080806040523461002e576103e86000556000600155600160ff19600254161760025561029190816100348239f35b600080fdfe60808060405260049081361015610028575b5050361561001e57600080fd5b6100266101ed565b005b600091823560e01c91826322f3e2d4146101cc5750816324f45e67146101b35781632e1a7d4d1461010c5781633bcfc4b8146100ef578163acec338a146100bc57508063d0e30db0146100a55763ff50abdc146100855780610011565b346100a257806003193601126100a2576020600154604051908152f35b80fd5b50806003193601126100a2576100b96101ed565b80f35b9050346100eb5760203660031901126100eb57358015158091036100eb5760ff80196002541691161760025580f35b5080fd5b82346100a257806003193601126100a25760209054604051908152f35b82346100a25760203660031901126100a25760015482359281841161017a57838203918211610167575081808094819360015581811561015e575b3390f1156101525780f35b604051903d90823e3d90fd5b506108fc610147565b634e487b7160e01b835260119052602482fd5b60649060206040519162461bcd60e51b83528201526012602482015271496e73756666696369656e742066756e647360701b6044820152fd5b9050346100eb5760203660031901126100eb5735815580f35b8390346100eb57816003193601126100eb5760209060ff6002541615158152f35b60ff60025416156102205760015434810180911161020a57600155565b634e487b7160e01b600052601160045260246000fd5b60405162461bcd60e51b81526020600482015260136024820152725374726174656779206e6f742061637469766560681b6044820152606490fdfea26469706673582212206d96abf91d3abad9019be16d2e09e734ed76a87ffdce313b0a3c97166b1fc13564736f6c63430008140033","opcodes":"PUSH1 0x80 DUP1 PUSH1 0x40 MSTORE CALLVALUE PUSH2 0x2E JUMPI PUSH2 0x3E8 PUSH1 0x0 SSTORE PUSH1 0x0 PUSH1 0x1 SSTORE PUSH1 0x1 PUSH1 0xFF NOT PUSH1 0x2 SLOAD AND OR PUSH1 0x2 SSTORE PUSH2 0x291 SWAP1 DUP2 PUSH2 0x34 DUP3 CODECOPY RETURN JUMPDEST PUSH1 0x0 DUP1 REVERT INVALID PUSH1 0x80 DUP1 PUSH1 0x40 MSTORE PUSH1 0x4 SWAP1 DUP2 CALLDATASIZE LT ISZERO PUSH2 0x28 JUMPI JUMPDEST POP POP CALLDATASIZE ISZERO PUSH2 0x1E JUMPI PUSH1 0x0 DUP1 REVERT JUMPDEST PUSH2 0x26 PUSH2 0x1ED JUMP JUMPDEST STOP JUMPDEST PUSH1 0x0 SWAP2 DUP3 CALLDATALOAD PUSH1 0xE0 SHR SWAP2 DUP3 PUSH4 0x22F3E2D4 EQ PUSH2 0x1CC JUMPI POP DUP2 PUSH4 0x24F45E67 EQ PUSH2 0x1B3 JUMPI DUP2 PUSH4 0x2E1A7D4D EQ PUSH2 0x10C JUMPI DUP2 PUSH4 0x3BCFC4B8 EQ PUSH2 0xEF JUMPI DUP2 PUSH4 0xACEC338A EQ PUSH2 0xBC JUMPI POP DUP1 PUSH4 0xD0E30DB0 EQ PUSH2 0xA5 JUMPI PUSH4 0xFF50ABDC EQ PUSH2 0x85 JUMPI DUP1 PUSH2 0x11 JUMP JUMPDEST CALLVALUE PUSH2 0xA2 JUMPI DUP1 PUSH1 0x3 NOT CALLDATASIZE ADD SLT PUSH2 0xA2 JUMPI PUSH1 0x20 PUSH1 0x1 SLOAD PUSH1 0x40 MLOAD SWAP1 DUP2 MSTORE RETURN JUMPDEST DUP1 REVERT JUMPDEST POP DUP1 PUSH1 0x3 NOT CALLDATASIZE ADD SLT PUSH2 0xA2 JUMPI PUSH2 0xB9 PUSH2 0x1ED JUMP JUMPDEST DUP1 RETURN JUMPDEST SWAP1 POP CALLVALUE PUSH2 0xEB JUMPI PUSH1 0x20 CALLDATASIZE PUSH1 0x3 NOT ADD SLT PUSH2 0xEB JUMPI CALLDATALOAD DUP1 ISZERO ISZERO DUP1 SWAP2 SUB PUSH2 0xEB JUMPI PUSH1 0xFF DUP1 NOT PUSH1 0x2 SLOAD AND SWAP2 AND OR PUSH1 0x2 SSTORE DUP1 RETURN JUMPDEST POP DUP1 REVERT JUMPDEST DUP3 CALLVALUE PUSH2 0xA2 JUMPI DUP1 PUSH1 0x3 NOT CALLDATASIZE ADD SLT PUSH2 0xA2 JUMPI PUSH1 0x20 SWAP1 SLOAD PUSH1 0x40 MLOAD SWAP1 DUP2 MSTORE RETURN JUMPDEST DUP3 CALLVALUE PUSH2 0xA2 JUMPI PUSH1 0x20 CALLDATASIZE PUSH1 0x3 NOT ADD SLT PUSH2 0xA2 JUMPI PUSH1 0x1 SLOAD DUP3 CALLDATALOAD SWAP3 DUP2 DUP5 GT PUSH2 0x17A JUMPI DUP4 DUP3 SUB SWAP2 DUP3 GT PUSH2 0x167 JUMPI POP DUP2 DUP1 DUP1 SWAP5 DUP2 SWAP4 PUSH1 0x1 SSTORE DUP2 DUP2 ISZERO PUSH2 0x15E JUMPI JUMPDEST CALLER SWAP1 CALL ISZERO PUSH2 0x152 JUMPI DUP1 RETURN JUMPDEST PUSH1 0x40 MLOAD SWAP1 RETURNDATASIZE SWAP1 DUP3 RETURNDATACOPY RETURNDATASIZE SWAP1 REVERT JUMPDEST POP PUSH2 0x8FC PUSH2 0x147 JUMP JUMPDEST PUSH4 0x4E487B71 PUSH1 0xE0 SHL DUP4 MSTORE PUSH1 0x11 SWAP1 MSTORE PUSH1 0x24 DUP3 REVERT JUMPDEST PUSH1 0x64 SWAP1 PUSH1 0x20 PUSH1 0x40 MLOAD SWAP2 PUSH3 0x461BCD PUSH1 0xE5 SHL DUP4 MSTORE DUP3 ADD MSTORE PUSH1 0x12 PUSH1 0x24 DUP3 ADD MSTORE PUSH18 0x496E73756666696369656E742066756E6473 PUSH1 0x70 SHL PUSH1 0x44 DUP3 ADD MSTORE REVERT JUMPDEST SWAP1 POP CALLVALUE PUSH2 0xEB JUMPI PUSH1 0x20 CALLDATASIZE PUSH1 0x3 NOT ADD SLT PUSH2 0xEB JUMPI CALLDATALOAD DUP2 SSTORE DUP1 RETURN JUMPDEST DUP4 SWAP1 CALLVALUE PUSH2 0xEB JUMPI DUP2 PUSH1 0x3 NOT CALLDATASIZE ADD SLT PUSH2 0xEB JUMPI PUSH1 0x20 SWAP1 PUSH1 0xFF PUSH1 0x2 SLOAD AND ISZERO ISZERO DUP2 MSTORE RETURN JUMPDEST PUSH1 0xFF PUSH1 0x2 SLOAD AND ISZERO PUSH2 0x220 JUMPI PUSH1 0x1 SLOAD CALLVALUE DUP2 ADD DUP1 SWAP2 GT PUSH2 0x20A JUMPI PUSH1 0x1 SSTORE JUMP JUMPDEST PUSH4 0x4E487B71 PUSH1 0xE0 SHL PUSH1 0x0 MSTORE PUSH1 0x11 PUSH1 0x4 MSTORE PUSH1 0x24 PUSH1 0x0 REVERT JUMPDEST PUSH1 0x40 MLOAD PUSH3 0x461BCD PUSH1 0xE5 SHL DUP2 MSTORE PUSH1 0x20 PUSH1 0x4 DUP3 ADD MSTORE PUSH1 0x13 PUSH1 0x24 DUP3 ADD MSTORE PUSH19 0x5374726174656779206E6F7420616374697665 PUSH1 0x68 SHL PUSH1 0x44 DUP3 ADD MSTORE PUSH1 0x64 SWAP1 REVERT INVALID LOG2 PUSH5 0x6970667358 0x22 SLT KECCAK256 PUSH14 0x96ABF91D3ABAD9019BE16D2E09E7 CALLVALUE 0xED PUSH23 0xA87FFDCE313B0A3C97166B1FC13564736F6C6343000814 STOP CALLER "},"methodIdentifiers":{"apy()":"3bcfc4b8","deposit()":"d0e30db0","isActive()":"22f3e2d4","setAPY(uint256)":"24f45e67","setActive(bool)":"acec338a","totalDeposited()":"ff50abdc","withdraw(uint256)":"2e1a7d4d"}}}}}