{"contracts/StakingPool.sol":{"StakingPool":{"abi":[{"inputs":[{"internalType":"address","name":"_celoToken","type":"address"},{"internalType":"address","name":"_cusdToken","type":"address"},{"internalType":"address","name":"_treasury","type":"address"}],"stateMutability":"nonpayable","type":"constructor"},{"inputs":[{"internalType":"address","name":"owner","type":"address"}],"name":"OwnableInvalidOwner","type":"error"},{"inputs":[{"internalType":"address","name":"account","type":"address"}],"name":"OwnableUnauthorizedAccount","type":"error"},{"inputs":[],"name":"ReentrancyGuardReentrantCall","type":"error"},{"anonymous":false,"inputs":[{"indexed":true,"internalType":"address","name":"user","type":"address"},{"indexed":false,"internalType":"uint256","name":"amount","type":"uint256"}],"name":"EmergencyWithdraw","type":"event"},{"anonymous":false,"inputs":[{"indexed":true,"internalType":"address","name":"previousOwner","type":"address"},{"indexed":true,"internalType":"address","name":"newOwner","type":"address"}],"name":"OwnershipTransferred","type":"event"},{"anonymous":false,"inputs":[{"indexed":true,"internalType":"address","name":"user","type":"address"},{"indexed":false,"internalType":"uint256","name":"reward","type":"uint256"},{"indexed":false,"internalType":"uint256","name":"timestamp","type":"uint256"}],"name":"RewardsClaimed","type":"event"},{"anonymous":false,"inputs":[{"indexed":true,"internalType":"address","name":"user","type":"address"},{"indexed":false,"internalType":"uint256","name":"amount","type":"uint256"},{"indexed":false,"internalType":"uint256","name":"timestamp","type":"uint256"}],"name":"Staked","type":"event"},{"anonymous":false,"inputs":[{"indexed":true,"internalType":"address","name":"user","type":"address"},{"indexed":false,"internalType":"uint256","name":"amount","type":"uint256"},{"indexed":false,"internalType":"uint256","name":"reward","type":"uint256"},{"indexed":false,"internalType":"uint256","name":"timestamp","type":"uint256"}],"name":"Unstaked","type":"event"},{"inputs":[],"name":"MAX_STAKE","outputs":[{"internalType":"uint256","name":"","type":"uint256"}],"stateMutability":"view","type":"function"},{"inputs":[],"name":"MIN_LOCK_PERIOD","outputs":[{"internalType":"uint256","name":"","type":"uint256"}],"stateMutability":"view","type":"function"},{"inputs":[],"name":"MIN_STAKE","outputs":[{"internalType":"uint256","name":"","type":"uint256"}],"stateMutability":"view","type":"function"},{"inputs":[],"name":"SECONDS_PER_YEAR","outputs":[{"internalType":"uint256","name":"","type":"uint256"}],"stateMutability":"view","type":"function"},{"inputs":[{"internalType":"address","name":"user","type":"address"}],"name":"canUnstake","outputs":[{"internalType":"bool","name":"","type":"bool"}],"stateMutability":"view","type":"function"},{"inputs":[],"name":"celoToken","outputs":[{"internalType":"contract IERC20","name":"","type":"address"}],"stateMutability":"view","type":"function"},{"inputs":[],"name":"claimRewards","outputs":[],"stateMutability":"nonpayable","type":"function"},{"inputs":[],"name":"cusdToken","outputs":[{"internalType":"contract IERC20","name":"","type":"address"}],"stateMutability":"view","type":"function"},{"inputs":[{"internalType":"uint256","name":"amount","type":"uint256"}],"name":"depositRewards","outputs":[],"stateMutability":"nonpayable","type":"function"},{"inputs":[],"name":"emergencyWithdraw","outputs":[],"stateMutability":"nonpayable","type":"function"},{"inputs":[{"internalType":"address","name":"user","type":"address"}],"name":"getPendingRewards","outputs":[{"internalType":"uint256","name":"","type":"uint256"}],"stateMutability":"view","type":"function"},{"inputs":[],"name":"getPoolStats","outputs":[{"internalType":"uint256","name":"_totalStaked","type":"uint256"},{"internalType":"uint256","name":"_totalStakers","type":"uint256"},{"internalType":"uint256","name":"_rewardRate","type":"uint256"},{"internalType":"uint256","name":"_totalRewardsPaid","type":"uint256"}],"stateMutability":"view","type":"function"},{"inputs":[{"internalType":"address","name":"user","type":"address"}],"name":"getStakeInfo","outputs":[{"internalType":"uint256","name":"amount","type":"uint256"},{"internalType":"uint256","name":"startTime","type":"uint256"},{"internalType":"uint256","name":"lastRewardClaim","type":"uint256"},{"internalType":"uint256","name":"totalRewardsClaimed","type":"uint256"},{"internalType":"bool","name":"isActive","type":"bool"}],"stateMutability":"view","type":"function"},{"inputs":[{"internalType":"address","name":"user","type":"address"}],"name":"getTimeUntilUnstake","outputs":[{"internalType":"uint256","name":"","type":"uint256"}],"stateMutability":"view","type":"function"},{"inputs":[{"internalType":"address","name":"","type":"address"}],"name":"hasStaked","outputs":[{"internalType":"bool","name":"","type":"bool"}],"stateMutability":"view","type":"function"},{"inputs":[],"name":"owner","outputs":[{"internalType":"address","name":"","type":"address"}],"stateMutability":"view","type":"function"},{"inputs":[],"name":"renounceOwnership","outputs":[],"stateMutability":"nonpayable","type":"function"},{"inputs":[],"name":"rewardRate","outputs":[{"internalType":"uint256","name":"","type":"uint256"}],"stateMutability":"view","type":"function"},{"inputs":[{"internalType":"uint256","name":"amount","type":"uint256"},{"internalType":"bool","name":"useCUSD","type":"bool"}],"name":"stake","outputs":[],"stateMutability":"nonpayable","type":"function"},{"inputs":[{"internalType":"address","name":"","type":"address"}],"name":"stakes","outputs":[{"internalType":"uint256","name":"amount","type":"uint256"},{"internalType":"uint256","name":"startTime","type":"uint256"},{"internalType":"uint256","name":"lastRewardClaim","type":"uint256"},{"internalType":"uint256","name":"totalRewardsClaimed","type":"uint256"},{"internalType":"bool","name":"isActive","type":"bool"}],"stateMutability":"view","type":"function"},{"inputs":[],"name":"totalRewardsPaid","outputs":[{"internalType":"uint256","name":"","type":"uint256"}],"stateMutability":"view","type":"function"},{"inputs":[],"name":"totalStaked","outputs":[{"internalType":"uint256","name":"","type":"uint256"}],"stateMutability":"view","type":"function"},{"inputs":[],"name":"totalStakers","outputs":[{"internalType":"uint256","name":"","type":"uint256"}],"stateMutability":"view","type":"function"},{"inputs":[{"internalType":"address","name":"newOwner","type":"address"}],"name":"transferOwnership","outputs":[],"stateMutability":"nonpayable","type":"function"},{"inputs":[],"name":"treasury","outputs":[{"internalType":"address","name":"","type":"address"}],"stateMutability":"view","type":"function"},{"inputs":[{"internalType":"bool","name":"useCUSD","type":"bool"}],"name":"unstake","outputs":[],"stateMutability":"nonpayable","type":"function"},{"inputs":[{"internalType":"uint256","name":"newRate","type":"uint256"}],"name":"updateRewardRate","outputs":[],"stateMutability":"nonpayable","type":"function"},{"inputs":[{"internalType":"address","name":"newTreasury","type":"address"}],"name":"updateTreasury","outputs":[],"stateMutability":"nonpayable","type":"function"}],"evm":{"bytecode":{"linkReferences":{},"object":"60803461020b57601f6200136d38819003918201601f191683019291906001600160401b0384118385101761021057816060928492604096875283398101031261020b5761004c81610226565b906100648361005d60208401610226565b9201610226565b600160005533156101f35760018054336001600160a01b0319808316821790935586519592946001600160a01b0393909284929083167f8be0079c531659141344cd1fd0a4f28419497f9722a3daafe3b4186f6b6457e0600080a3610352600855169485156101a75750811691821561015957169283156101075782600454161760045581600554161760055560095416176009555161113290816200023b8239f35b845162461bcd60e51b815260206004820152602560248201527f5374616b696e67506f6f6c3a20496e76616c6964207472656173757279206164604482015264647265737360d81b6064820152608490fd5b855162461bcd60e51b815260206004820152602160248201527f5374616b696e67506f6f6c3a20496e76616c69642063555344206164647265736044820152607360f81b6064820152608490fd5b62461bcd60e51b815260206004820152602160248201527f5374616b696e67506f6f6c3a20496e76616c69642043454c4f206164647265736044820152607360f81b6064820152608490fd5b8351631e4fbdf760e01b815260006004820152602490fd5b600080fd5b634e487b7160e01b600052604160045260246000fd5b51906001600160a01b038216820361020b5756fe6040608081526004908136101561001557600080fd5b600091823560e01c8063088abb8d14610b9f57806316934fc414610472578063372500ab14610b5d578063385dc3df14610b3f57806361d027b314610b16578063715018a614610ab957806374958e3514610a9a5780637b0a47ee14610a7b5780637f51bb1f146109e6578063817b1cd2146109c757806385f4498b1461094357806386989038146109245780638bdf67f21461082d5780638da5cb5b146108045780639ef3a26114610793578063abe50f191461051c578063bbb85188146104e3578063c345315314610472578063c93c8f3414610434578063c98517c51461040f578063cae07843146103e6578063cb1c2b5c146103c3578063db2e21bc146102a3578063e22d551a1461027c578063e43074441461024c578063e6a69ab814610229578063f2fde38b146101925763f6ed20171461015557600080fd5b3461018e57602036600319011261018e5735916001600160a01b038316830361018b575061018460209261102f565b9051908152f35b80fd5b8280fd5b50903461018e57602036600319011261018e576001600160a01b03823581811693919290849003610225576101c5610d76565b831561020f575050600154826bffffffffffffffffffffffff60a01b821617600155167f8be0079c531659141344cd1fd0a4f28419497f9722a3daafe3b4186f6b6457e08380a380f35b51631e4fbdf760e01b8152908101849052602490fd5b8480fd5b505034610248578160031936011261024857602090516301e133808152f35b5080fd5b503461018e57602036600319011261018e5735916001600160a01b038316830361018b5750610184602092611098565b503461018e578260031936011261018e575490516001600160a01b03909116815260209150f35b503461018e578260031936011261018e576102bc610e66565b3383526020600281526102d660ff83858720015416610e89565b3384526002815261033e818486208481549582898894550160ff19815416905561030282600654610ed5565b6006558054875163a9059cbb60e01b8152339281019283526020830193909352919384926001600160a01b03169183918a918391604090910190565b03925af19081156103b9577f5fafa99d0643513820be26656b45130b01e1c03062e1266bf36f88cbd3bd969593949161037e91879161038c575b50610df7565b519283523392a26001815580f35b6103ac9150843d86116103b2575b6103a48183610da2565b810190610dda565b38610378565b503d61039a565b84513d87823e3d90fd5b5050346102485781600319360112610248576020905167016345785d8a00008152f35b50503461024857816003193601126102485760055490516001600160a01b039091168152602090f35b5050346102485781600319360112610248576020905169021e19e0c9bab24000008152f35b503461018e57602036600319011261018e57356001600160a01b0381169081900361018e57818360ff92602095526003855220541690519015158152f35b50913461018b57602036600319011261018b5782356001600160a01b0381169081900361024857815260026020818152918390208054600182015492820154600383015496909201549451908152928301919091526040820152606081019290925260ff161515608082015260a090f35b505034610248578160031936011261024857608090600654906007549060085490600a5492815194855260208501528301526060820152f35b50919034610248578060031936011261024857823590602435801515810361078f57610546610e66565b67016345785d8a000083106107425769021e19e0c9bab240000083116106f557156106e5576005546001600160a01b03165b3384526020906002825260ff868487200154166106d8575b82516323b872dd60e01b815233878201908152306020820152604081018690529091839183919082908990829060600103926001600160a01b03165af19081156106ce57906105e59186916106b75750610df7565b3384526003815260ff828520541615610676575b7f1449c6dd7851abc30abf37f57715f492010519147cc2652fbc38202c18a6ee909293946002825282862061062f868254610e43565b90553386526002825282862042600182015542600282015501600160ff1982541617905561065f84600654610e43565b600655815193845242908401523392a26001815580f35b60075460001981146106a457600190810160075533855260038252828520805460ff191690911790556105f9565b634e487b7160e01b855260118652602485fd5b6103ac9150833d85116103b2576103a48183610da2565b83513d87823e3d90fd5b6106e0610ee2565b610590565b83546001600160a01b0316610578565b815162461bcd60e51b8152602081870152602160248201527f5374616b696e67506f6f6c3a20416d6f756e742061626f7665206d6178696d756044820152606d60f81b6064820152608490fd5b815162461bcd60e51b8152602081870152602160248201527f5374616b696e67506f6f6c3a20416d6f756e742062656c6f77206d696e696d756044820152606d60f81b6064820152608490fd5b8380fd5b503461018e57602036600319011261018e578035916107b0610d76565b6107d083116107c157505060085580f35b906020606492519162461bcd60e51b8352820152601a60248201527f5374616b696e67506f6f6c3a205261746520746f6f20686967680000000000006044820152fd5b50503461024857816003193601126102485760015490516001600160a01b039091168152602090f35b503461018e57602036600319011261018e576001546001600160a01b0390811633148015610917575b156108d457815483516323b872dd60e01b81523381850190815230602082810191909152943560408201529093928492169082908790829060600103925af19081156108c8576108ad925083916108b05750610df7565b80f35b6103ac915060203d81116103b2576103a48183610da2565b505051903d90823e3d90fd5b506020606492519162461bcd60e51b8352820152601b60248201527f5374616b696e67506f6f6c3a204e6f7420617574686f72697a656400000000006044820152fd5b5080600954163314610856565b5050346102485781600319360112610248576020906007549051908152f35b509190346102485760203660031901126102485782356001600160a01b0381169081900361018e57825260026020528082209160ff84840154169283610990575b60208484519015158152f35b6001015491925062093a8082019182106109b4575060209250421015903880610984565b634e487b7160e01b815260118452602490fd5b5050346102485781600319360112610248576020906006549051908152f35b503461018e57602036600319011261018e5780356001600160a01b038116929083900361078f57610a15610d76565b8215610a385750506bffffffffffffffffffffffff60a01b600954161760095580f35b906020606492519162461bcd60e51b8352820152601c60248201527f5374616b696e67506f6f6c3a20496e76616c69642061646472657373000000006044820152fd5b5050346102485781600319360112610248576020906008549051908152f35b505034610248578160031936011261024857602090600a549051908152f35b833461018b578060031936011261018b57610ad2610d76565b600180546001600160a01b0319811690915581906001600160a01b03167f8be0079c531659141344cd1fd0a4f28419497f9722a3daafe3b4186f6b6457e08280a380f35b50503461024857816003193601126102485760095490516001600160a01b039091168152602090f35b5050346102485781600319360112610248576020905162093a808152f35b50903461018e578260031936011261018e57610b909160ff91610b7e610e66565b33855260026020528420015416610e89565b610b98610ee2565b6001815580f35b50903461018e5760208060031936011261078f57823590811515820361022557610bc7610e66565b33855260028152610bdf60ff85858820015416610e89565b3385526002815282852093600185015462093a808101809111610d63574210610d175781610c9a91865496610c133361102f565b9515610d03576005546001600160a01b0316906003905b8a815583810160ff19815416905501610c44878254610e43565b9055610c5288600654610ed5565b600655610c6186600a54610e43565b600a55610c6e8689610e43565b875163a9059cbb60e01b815233938101938452602084019190915293849283918b918391604090910190565b03926001600160a01b03165af1908115610cf95790610cbf9187916106b75750610df7565b825193845283015242908201527f204fccf0d92ed8d48f204adb39b2e81e92bad0dedb93f5716ca9478cfb57de0060603392a26001815580f35b84513d88823e3d90fd5b81546001600160a01b031690600390610c2a565b60849184519162461bcd60e51b8352820152602260248201527f5374616b696e67506f6f6c3a204c6f636b20706572696f64206e6f7420656e64604482015261195960f21b6064820152fd5b634e487b7160e01b875260118252602487fd5b6001546001600160a01b03163303610d8a57565b60405163118cdaa760e01b8152336004820152602490fd5b90601f8019910116810190811067ffffffffffffffff821117610dc457604052565b634e487b7160e01b600052604160045260246000fd5b90816020910312610df257518015158103610df25790565b600080fd5b15610dfe57565b60405162461bcd60e51b815260206004820152601c60248201527f5374616b696e67506f6f6c3a205472616e73666572206661696c6564000000006044820152606490fd5b91908201809211610e5057565b634e487b7160e01b600052601160045260246000fd5b600260005414610e77576002600055565b604051633ee5aeb560e01b8152600490fd5b15610e9057565b60405162461bcd60e51b815260206004820152601c60248201527f5374616b696e67506f6f6c3a204e6f20616374697665207374616b65000000006044820152606490fd5b91908203918211610e5057565b610eeb3361102f565b80610ef35750565b3360005260206002815260409060038260002042600282015501610f18848254610e43565b9055610f2683600a54610e43565b600a5560048054835163a9059cbb60e01b81523392810192909252602482018590528290829060449082906000906001600160a01b03165af190811561101157600091610ff4575b5015610fa657907fdacbdde355ba930696a362ea6738feb9f8bd52dfb3d81947558fd3217e23e32591815193845242908401523392a2565b608491519062461bcd60e51b82526004820152602360248201527f5374616b696e67506f6f6c3a20526577617264207472616e73666572206661696044820152621b195960ea1b6064820152fd5b61100b9150823d84116103b2576103a48183610da2565b38610f6e565b83513d6000823e3d90fd5b81810292918115918404141715610e5057565b6001600160a01b03166000908152600260205260409020600481015460ff1615801561108f575b6110895761108581611080611075600264496cebb80095015442610ed5565b91546008549061101c565b61101c565b0490565b50600090565b50805415611056565b6001600160a01b03166000908152600260205260408120600481015460ff16156110e4576001015462093a8081018091116110e857804210156110e4576110e191504290610ed5565b90565b5090565b634e487b7160e01b82526011600452602482fdfea2646970667358221220516bb6f314da32a6e223b5cb64df0228ef2e035b34575b158054ef3644a73adc64736f6c63430008140033","opcodes":"PUSH1 0x80 CALLVALUE PUSH2 0x20B JUMPI PUSH1 0x1F PUSH3 0x136D CODESIZE DUP2 SWAP1 SUB SWAP2 DUP3 ADD PUSH1 0x1F NOT AND DUP4 ADD SWAP3 SWAP2 SWAP1 PUSH1 0x1 PUSH1 0x1 PUSH1 0x40 SHL SUB DUP5 GT DUP4 DUP6 LT OR PUSH2 0x210 JUMPI DUP2 PUSH1 0x60 SWAP3 DUP5 SWAP3 PUSH1 0x40 SWAP7 DUP8 MSTORE DUP4 CODECOPY DUP2 ADD SUB SLT PUSH2 0x20B JUMPI PUSH2 0x4C DUP2 PUSH2 0x226 JUMP JUMPDEST SWAP1 PUSH2 0x64 DUP4 PUSH2 0x5D PUSH1 0x20 DUP5 ADD PUSH2 0x226 JUMP JUMPDEST SWAP3 ADD PUSH2 0x226 JUMP JUMPDEST PUSH1 0x1 PUSH1 0x0 SSTORE CALLER ISZERO PUSH2 0x1F3 JUMPI PUSH1 0x1 DUP1 SLOAD CALLER PUSH1 0x1 PUSH1 0x1 PUSH1 0xA0 SHL SUB NOT DUP1 DUP4 AND DUP3 OR SWAP1 SWAP4 SSTORE DUP7 MLOAD SWAP6 SWAP3 SWAP5 PUSH1 0x1 PUSH1 0x1 PUSH1 0xA0 SHL SUB SWAP4 SWAP1 SWAP3 DUP5 SWAP3 SWAP1 DUP4 AND PUSH32 0x8BE0079C531659141344CD1FD0A4F28419497F9722A3DAAFE3B4186F6B6457E0 PUSH1 0x0 DUP1 LOG3 PUSH2 0x352 PUSH1 0x8 SSTORE AND SWAP5 DUP6 ISZERO PUSH2 0x1A7 JUMPI POP DUP2 AND SWAP2 DUP3 ISZERO PUSH2 0x159 JUMPI AND SWAP3 DUP4 ISZERO PUSH2 0x107 JUMPI DUP3 PUSH1 0x4 SLOAD AND OR PUSH1 0x4 SSTORE DUP2 PUSH1 0x5 SLOAD AND OR PUSH1 0x5 SSTORE PUSH1 0x9 SLOAD AND OR PUSH1 0x9 SSTORE MLOAD PUSH2 0x1132 SWAP1 DUP2 PUSH3 0x23B DUP3 CODECOPY RETURN JUMPDEST DUP5 MLOAD PUSH3 0x461BCD PUSH1 0xE5 SHL DUP2 MSTORE PUSH1 0x20 PUSH1 0x4 DUP3 ADD MSTORE PUSH1 0x25 PUSH1 0x24 DUP3 ADD MSTORE PUSH32 0x5374616B696E67506F6F6C3A20496E76616C6964207472656173757279206164 PUSH1 0x44 DUP3 ADD MSTORE PUSH5 0x6472657373 PUSH1 0xD8 SHL PUSH1 0x64 DUP3 ADD MSTORE PUSH1 0x84 SWAP1 REVERT JUMPDEST DUP6 MLOAD PUSH3 0x461BCD PUSH1 0xE5 SHL DUP2 MSTORE PUSH1 0x20 PUSH1 0x4 DUP3 ADD MSTORE PUSH1 0x21 PUSH1 0x24 DUP3 ADD MSTORE PUSH32 0x5374616B696E67506F6F6C3A20496E76616C6964206355534420616464726573 PUSH1 0x44 DUP3 ADD MSTORE PUSH1 0x73 PUSH1 0xF8 SHL PUSH1 0x64 DUP3 ADD MSTORE PUSH1 0x84 SWAP1 REVERT JUMPDEST PUSH3 0x461BCD PUSH1 0xE5 SHL DUP2 MSTORE PUSH1 0x20 PUSH1 0x4 DUP3 ADD MSTORE PUSH1 0x21 PUSH1 0x24 DUP3 ADD MSTORE PUSH32 0x5374616B696E67506F6F6C3A20496E76616C69642043454C4F20616464726573 PUSH1 0x44 DUP3 ADD MSTORE PUSH1 0x73 PUSH1 0xF8 SHL PUSH1 0x64 DUP3 ADD MSTORE PUSH1 0x84 SWAP1 REVERT JUMPDEST DUP4 MLOAD PUSH4 0x1E4FBDF7 PUSH1 0xE0 SHL DUP2 MSTORE PUSH1 0x0 PUSH1 0x4 DUP3 ADD MSTORE PUSH1 0x24 SWAP1 REVERT JUMPDEST PUSH1 0x0 DUP1 REVERT JUMPDEST PUSH4 0x4E487B71 PUSH1 0xE0 SHL PUSH1 0x0 MSTORE PUSH1 0x41 PUSH1 0x4 MSTORE PUSH1 0x24 PUSH1 0x0 REVERT JUMPDEST MLOAD SWAP1 PUSH1 0x1 PUSH1 0x1 PUSH1 0xA0 SHL SUB DUP3 AND DUP3 SUB PUSH2 0x20B JUMPI JUMP INVALID PUSH1 0x40 PUSH1 0x80 DUP2 MSTORE PUSH1 0x4 SWAP1 DUP2 CALLDATASIZE LT ISZERO PUSH2 0x15 JUMPI PUSH1 0x0 DUP1 REVERT JUMPDEST PUSH1 0x0 SWAP2 DUP3 CALLDATALOAD PUSH1 0xE0 SHR DUP1 PUSH4 0x88ABB8D EQ PUSH2 0xB9F JUMPI DUP1 PUSH4 0x16934FC4 EQ PUSH2 0x472 JUMPI DUP1 PUSH4 0x372500AB EQ PUSH2 0xB5D JUMPI DUP1 PUSH4 0x385DC3DF EQ PUSH2 0xB3F JUMPI DUP1 PUSH4 0x61D027B3 EQ PUSH2 0xB16 JUMPI DUP1 PUSH4 0x715018A6 EQ PUSH2 0xAB9 JUMPI DUP1 PUSH4 0x74958E35 EQ PUSH2 0xA9A JUMPI DUP1 PUSH4 0x7B0A47EE EQ PUSH2 0xA7B JUMPI DUP1 PUSH4 0x7F51BB1F EQ PUSH2 0x9E6 JUMPI DUP1 PUSH4 0x817B1CD2 EQ PUSH2 0x9C7 JUMPI DUP1 PUSH4 0x85F4498B EQ PUSH2 0x943 JUMPI DUP1 PUSH4 0x86989038 EQ PUSH2 0x924 JUMPI DUP1 PUSH4 0x8BDF67F2 EQ PUSH2 0x82D JUMPI DUP1 PUSH4 0x8DA5CB5B EQ PUSH2 0x804 JUMPI DUP1 PUSH4 0x9EF3A261 EQ PUSH2 0x793 JUMPI DUP1 PUSH4 0xABE50F19 EQ PUSH2 0x51C JUMPI DUP1 PUSH4 0xBBB85188 EQ PUSH2 0x4E3 JUMPI DUP1 PUSH4 0xC3453153 EQ PUSH2 0x472 JUMPI DUP1 PUSH4 0xC93C8F34 EQ PUSH2 0x434 JUMPI DUP1 PUSH4 0xC98517C5 EQ PUSH2 0x40F JUMPI DUP1 PUSH4 0xCAE07843 EQ PUSH2 0x3E6 JUMPI DUP1 PUSH4 0xCB1C2B5C EQ PUSH2 0x3C3 JUMPI DUP1 PUSH4 0xDB2E21BC EQ PUSH2 0x2A3 JUMPI DUP1 PUSH4 0xE22D551A EQ PUSH2 0x27C JUMPI DUP1 PUSH4 0xE4307444 EQ PUSH2 0x24C JUMPI DUP1 PUSH4 0xE6A69AB8 EQ PUSH2 0x229 JUMPI DUP1 PUSH4 0xF2FDE38B EQ PUSH2 0x192 JUMPI PUSH4 0xF6ED2017 EQ PUSH2 0x155 JUMPI PUSH1 0x0 DUP1 REVERT JUMPDEST CALLVALUE PUSH2 0x18E JUMPI PUSH1 0x20 CALLDATASIZE PUSH1 0x3 NOT ADD SLT PUSH2 0x18E JUMPI CALLDATALOAD SWAP2 PUSH1 0x1 PUSH1 0x1 PUSH1 0xA0 SHL SUB DUP4 AND DUP4 SUB PUSH2 0x18B JUMPI POP PUSH2 0x184 PUSH1 0x20 SWAP3 PUSH2 0x102F JUMP JUMPDEST SWAP1 MLOAD SWAP1 DUP2 MSTORE RETURN JUMPDEST DUP1 REVERT JUMPDEST DUP3 DUP1 REVERT JUMPDEST POP SWAP1 CALLVALUE PUSH2 0x18E JUMPI PUSH1 0x20 CALLDATASIZE PUSH1 0x3 NOT ADD SLT PUSH2 0x18E JUMPI PUSH1 0x1 PUSH1 0x1 PUSH1 0xA0 SHL SUB DUP3 CALLDATALOAD DUP2 DUP2 AND SWAP4 SWAP2 SWAP3 SWAP1 DUP5 SWAP1 SUB PUSH2 0x225 JUMPI PUSH2 0x1C5 PUSH2 0xD76 JUMP JUMPDEST DUP4 ISZERO PUSH2 0x20F JUMPI POP POP PUSH1 0x1 SLOAD DUP3 PUSH12 0xFFFFFFFFFFFFFFFFFFFFFFFF PUSH1 0xA0 SHL DUP3 AND OR PUSH1 0x1 SSTORE AND PUSH32 0x8BE0079C531659141344CD1FD0A4F28419497F9722A3DAAFE3B4186F6B6457E0 DUP4 DUP1 LOG3 DUP1 RETURN JUMPDEST MLOAD PUSH4 0x1E4FBDF7 PUSH1 0xE0 SHL DUP2 MSTORE SWAP1 DUP2 ADD DUP5 SWAP1 MSTORE PUSH1 0x24 SWAP1 REVERT JUMPDEST DUP5 DUP1 REVERT JUMPDEST POP POP CALLVALUE PUSH2 0x248 JUMPI DUP2 PUSH1 0x3 NOT CALLDATASIZE ADD SLT PUSH2 0x248 JUMPI PUSH1 0x20 SWAP1 MLOAD PUSH4 0x1E13380 DUP2 MSTORE RETURN JUMPDEST POP DUP1 REVERT JUMPDEST POP CALLVALUE PUSH2 0x18E JUMPI PUSH1 0x20 CALLDATASIZE PUSH1 0x3 NOT ADD SLT PUSH2 0x18E JUMPI CALLDATALOAD SWAP2 PUSH1 0x1 PUSH1 0x1 PUSH1 0xA0 SHL SUB DUP4 AND DUP4 SUB PUSH2 0x18B JUMPI POP PUSH2 0x184 PUSH1 0x20 SWAP3 PUSH2 0x1098 JUMP JUMPDEST POP CALLVALUE PUSH2 0x18E JUMPI DUP3 PUSH1 0x3 NOT CALLDATASIZE ADD SLT PUSH2 0x18E JUMPI SLOAD SWAP1 MLOAD PUSH1 0x1 PUSH1 0x1 PUSH1 0xA0 SHL SUB SWAP1 SWAP2 AND DUP2 MSTORE PUSH1 0x20 SWAP2 POP RETURN JUMPDEST POP CALLVALUE PUSH2 0x18E JUMPI DUP3 PUSH1 0x3 NOT CALLDATASIZE ADD SLT PUSH2 0x18E JUMPI PUSH2 0x2BC PUSH2 0xE66 JUMP JUMPDEST CALLER DUP4 MSTORE PUSH1 0x20 PUSH1 0x2 DUP2 MSTORE PUSH2 0x2D6 PUSH1 0xFF DUP4 DUP6 DUP8 KECCAK256 ADD SLOAD AND PUSH2 0xE89 JUMP JUMPDEST CALLER DUP5 MSTORE PUSH1 0x2 DUP2 MSTORE PUSH2 0x33E DUP2 DUP5 DUP7 KECCAK256 DUP5 DUP2 SLOAD SWAP6 DUP3 DUP10 DUP9 SWAP5 SSTORE ADD PUSH1 0xFF NOT DUP2 SLOAD AND SWAP1 SSTORE PUSH2 0x302 DUP3 PUSH1 0x6 SLOAD PUSH2 0xED5 JUMP JUMPDEST PUSH1 0x6 SSTORE DUP1 SLOAD DUP8 MLOAD PUSH4 0xA9059CBB PUSH1 0xE0 SHL DUP2 MSTORE CALLER SWAP3 DUP2 ADD SWAP3 DUP4 MSTORE PUSH1 0x20 DUP4 ADD SWAP4 SWAP1 SWAP4 MSTORE SWAP2 SWAP4 DUP5 SWAP3 PUSH1 0x1 PUSH1 0x1 PUSH1 0xA0 SHL SUB AND SWAP2 DUP4 SWAP2 DUP11 SWAP2 DUP4 SWAP2 PUSH1 0x40 SWAP1 SWAP2 ADD SWAP1 JUMP JUMPDEST SUB SWAP3 GAS CALL SWAP1 DUP2 ISZERO PUSH2 0x3B9 JUMPI PUSH32 0x5FAFA99D0643513820BE26656B45130B01E1C03062E1266BF36F88CBD3BD9695 SWAP4 SWAP5 SWAP2 PUSH2 0x37E SWAP2 DUP8 SWAP2 PUSH2 0x38C JUMPI JUMPDEST POP PUSH2 0xDF7 JUMP JUMPDEST MLOAD SWAP3 DUP4 MSTORE CALLER SWAP3 LOG2 PUSH1 0x1 DUP2 SSTORE DUP1 RETURN JUMPDEST PUSH2 0x3AC SWAP2 POP DUP5 RETURNDATASIZE DUP7 GT PUSH2 0x3B2 JUMPI JUMPDEST PUSH2 0x3A4 DUP2 DUP4 PUSH2 0xDA2 JUMP JUMPDEST DUP2 ADD SWAP1 PUSH2 0xDDA JUMP JUMPDEST CODESIZE PUSH2 0x378 JUMP JUMPDEST POP RETURNDATASIZE PUSH2 0x39A JUMP JUMPDEST DUP5 MLOAD RETURNDATASIZE DUP8 DUP3 RETURNDATACOPY RETURNDATASIZE SWAP1 REVERT JUMPDEST POP POP CALLVALUE PUSH2 0x248 JUMPI DUP2 PUSH1 0x3 NOT CALLDATASIZE ADD SLT PUSH2 0x248 JUMPI PUSH1 0x20 SWAP1 MLOAD PUSH8 0x16345785D8A0000 DUP2 MSTORE RETURN JUMPDEST POP POP CALLVALUE PUSH2 0x248 JUMPI DUP2 PUSH1 0x3 NOT CALLDATASIZE ADD SLT PUSH2 0x248 JUMPI PUSH1 0x5 SLOAD SWAP1 MLOAD PUSH1 0x1 PUSH1 0x1 PUSH1 0xA0 SHL SUB SWAP1 SWAP2 AND DUP2 MSTORE PUSH1 0x20 SWAP1 RETURN JUMPDEST POP POP CALLVALUE PUSH2 0x248 JUMPI DUP2 PUSH1 0x3 NOT CALLDATASIZE ADD SLT PUSH2 0x248 JUMPI PUSH1 0x20 SWAP1 MLOAD PUSH10 0x21E19E0C9BAB2400000 DUP2 MSTORE RETURN JUMPDEST POP CALLVALUE PUSH2 0x18E JUMPI PUSH1 0x20 CALLDATASIZE PUSH1 0x3 NOT ADD SLT PUSH2 0x18E JUMPI CALLDATALOAD PUSH1 0x1 PUSH1 0x1 PUSH1 0xA0 SHL SUB DUP2 AND SWAP1 DUP2 SWAP1 SUB PUSH2 0x18E JUMPI DUP2 DUP4 PUSH1 0xFF SWAP3 PUSH1 0x20 SWAP6 MSTORE PUSH1 0x3 DUP6 MSTORE KECCAK256 SLOAD AND SWAP1 MLOAD SWAP1 ISZERO ISZERO DUP2 MSTORE RETURN JUMPDEST POP SWAP2 CALLVALUE PUSH2 0x18B JUMPI PUSH1 0x20 CALLDATASIZE PUSH1 0x3 NOT ADD SLT PUSH2 0x18B JUMPI DUP3 CALLDATALOAD PUSH1 0x1 PUSH1 0x1 PUSH1 0xA0 SHL SUB DUP2 AND SWAP1 DUP2 SWAP1 SUB PUSH2 0x248 JUMPI DUP2 MSTORE PUSH1 0x2 PUSH1 0x20 DUP2 DUP2 MSTORE SWAP2 DUP4 SWAP1 KECCAK256 DUP1 SLOAD PUSH1 0x1 DUP3 ADD SLOAD SWAP3 DUP3 ADD SLOAD PUSH1 0x3 DUP4 ADD SLOAD SWAP7 SWAP1 SWAP3 ADD SLOAD SWAP5 MLOAD SWAP1 DUP2 MSTORE SWAP3 DUP4 ADD SWAP2 SWAP1 SWAP2 MSTORE PUSH1 0x40 DUP3 ADD MSTORE PUSH1 0x60 DUP2 ADD SWAP3 SWAP1 SWAP3 MSTORE PUSH1 0xFF AND ISZERO ISZERO PUSH1 0x80 DUP3 ADD MSTORE PUSH1 0xA0 SWAP1 RETURN JUMPDEST POP POP CALLVALUE PUSH2 0x248 JUMPI DUP2 PUSH1 0x3 NOT CALLDATASIZE ADD SLT PUSH2 0x248 JUMPI PUSH1 0x80 SWAP1 PUSH1 0x6 SLOAD SWAP1 PUSH1 0x7 SLOAD SWAP1 PUSH1 0x8 SLOAD SWAP1 PUSH1 0xA SLOAD SWAP3 DUP2 MLOAD SWAP5 DUP6 MSTORE PUSH1 0x20 DUP6 ADD MSTORE DUP4 ADD MSTORE PUSH1 0x60 DUP3 ADD MSTORE RETURN JUMPDEST POP SWAP2 SWAP1 CALLVALUE PUSH2 0x248 JUMPI DUP1 PUSH1 0x3 NOT CALLDATASIZE ADD SLT PUSH2 0x248 JUMPI DUP3 CALLDATALOAD SWAP1 PUSH1 0x24 CALLDATALOAD DUP1 ISZERO ISZERO DUP2 SUB PUSH2 0x78F JUMPI PUSH2 0x546 PUSH2 0xE66 JUMP JUMPDEST PUSH8 0x16345785D8A0000 DUP4 LT PUSH2 0x742 JUMPI PUSH10 0x21E19E0C9BAB2400000 DUP4 GT PUSH2 0x6F5 JUMPI ISZERO PUSH2 0x6E5 JUMPI PUSH1 0x5 SLOAD PUSH1 0x1 PUSH1 0x1 PUSH1 0xA0 SHL SUB AND JUMPDEST CALLER DUP5 MSTORE PUSH1 0x20 SWAP1 PUSH1 0x2 DUP3 MSTORE PUSH1 0xFF DUP7 DUP5 DUP8 KECCAK256 ADD SLOAD AND PUSH2 0x6D8 JUMPI JUMPDEST DUP3 MLOAD PUSH4 0x23B872DD PUSH1 0xE0 SHL DUP2 MSTORE CALLER DUP8 DUP3 ADD SWAP1 DUP2 MSTORE ADDRESS PUSH1 0x20 DUP3 ADD MSTORE PUSH1 0x40 DUP2 ADD DUP7 SWAP1 MSTORE SWAP1 SWAP2 DUP4 SWAP2 DUP4 SWAP2 SWAP1 DUP3 SWAP1 DUP10 SWAP1 DUP3 SWAP1 PUSH1 0x60 ADD SUB SWAP3 PUSH1 0x1 PUSH1 0x1 PUSH1 0xA0 SHL SUB AND GAS CALL SWAP1 DUP2 ISZERO PUSH2 0x6CE JUMPI SWAP1 PUSH2 0x5E5 SWAP2 DUP7 SWAP2 PUSH2 0x6B7 JUMPI POP PUSH2 0xDF7 JUMP JUMPDEST CALLER DUP5 MSTORE PUSH1 0x3 DUP2 MSTORE PUSH1 0xFF DUP3 DUP6 KECCAK256 SLOAD AND ISZERO PUSH2 0x676 JUMPI JUMPDEST PUSH32 0x1449C6DD7851ABC30ABF37F57715F492010519147CC2652FBC38202C18A6EE90 SWAP3 SWAP4 SWAP5 PUSH1 0x2 DUP3 MSTORE DUP3 DUP7 KECCAK256 PUSH2 0x62F DUP7 DUP3 SLOAD PUSH2 0xE43 JUMP JUMPDEST SWAP1 SSTORE CALLER DUP7 MSTORE PUSH1 0x2 DUP3 MSTORE DUP3 DUP7 KECCAK256 TIMESTAMP PUSH1 0x1 DUP3 ADD SSTORE TIMESTAMP PUSH1 0x2 DUP3 ADD SSTORE ADD PUSH1 0x1 PUSH1 0xFF NOT DUP3 SLOAD AND OR SWAP1 SSTORE PUSH2 0x65F DUP5 PUSH1 0x6 SLOAD PUSH2 0xE43 JUMP JUMPDEST PUSH1 0x6 SSTORE DUP2 MLOAD SWAP4 DUP5 MSTORE TIMESTAMP SWAP1 DUP5 ADD MSTORE CALLER SWAP3 LOG2 PUSH1 0x1 DUP2 SSTORE DUP1 RETURN JUMPDEST PUSH1 0x7 SLOAD PUSH1 0x0 NOT DUP2 EQ PUSH2 0x6A4 JUMPI PUSH1 0x1 SWAP1 DUP2 ADD PUSH1 0x7 SSTORE CALLER DUP6 MSTORE PUSH1 0x3 DUP3 MSTORE DUP3 DUP6 KECCAK256 DUP1 SLOAD PUSH1 0xFF NOT AND SWAP1 SWAP2 OR SWAP1 SSTORE PUSH2 0x5F9 JUMP JUMPDEST PUSH4 0x4E487B71 PUSH1 0xE0 SHL DUP6 MSTORE PUSH1 0x11 DUP7 MSTORE PUSH1 0x24 DUP6 REVERT JUMPDEST PUSH2 0x3AC SWAP2 POP DUP4 RETURNDATASIZE DUP6 GT PUSH2 0x3B2 JUMPI PUSH2 0x3A4 DUP2 DUP4 PUSH2 0xDA2 JUMP JUMPDEST DUP4 MLOAD RETURNDATASIZE DUP8 DUP3 RETURNDATACOPY RETURNDATASIZE SWAP1 REVERT JUMPDEST PUSH2 0x6E0 PUSH2 0xEE2 JUMP JUMPDEST PUSH2 0x590 JUMP JUMPDEST DUP4 SLOAD PUSH1 0x1 PUSH1 0x1 PUSH1 0xA0 SHL SUB AND PUSH2 0x578 JUMP JUMPDEST DUP2 MLOAD PUSH3 0x461BCD PUSH1 0xE5 SHL DUP2 MSTORE PUSH1 0x20 DUP2 DUP8 ADD MSTORE PUSH1 0x21 PUSH1 0x24 DUP3 ADD MSTORE PUSH32 0x5374616B696E67506F6F6C3A20416D6F756E742061626F7665206D6178696D75 PUSH1 0x44 DUP3 ADD MSTORE PUSH1 0x6D PUSH1 0xF8 SHL PUSH1 0x64 DUP3 ADD MSTORE PUSH1 0x84 SWAP1 REVERT JUMPDEST DUP2 MLOAD PUSH3 0x461BCD PUSH1 0xE5 SHL DUP2 MSTORE PUSH1 0x20 DUP2 DUP8 ADD MSTORE PUSH1 0x21 PUSH1 0x24 DUP3 ADD MSTORE PUSH32 0x5374616B696E67506F6F6C3A20416D6F756E742062656C6F77206D696E696D75 PUSH1 0x44 DUP3 ADD MSTORE PUSH1 0x6D PUSH1 0xF8 SHL PUSH1 0x64 DUP3 ADD MSTORE PUSH1 0x84 SWAP1 REVERT JUMPDEST DUP4 DUP1 REVERT JUMPDEST POP CALLVALUE PUSH2 0x18E JUMPI PUSH1 0x20 CALLDATASIZE PUSH1 0x3 NOT ADD SLT PUSH2 0x18E JUMPI DUP1 CALLDATALOAD SWAP2 PUSH2 0x7B0 PUSH2 0xD76 JUMP JUMPDEST PUSH2 0x7D0 DUP4 GT PUSH2 0x7C1 JUMPI POP POP PUSH1 0x8 SSTORE DUP1 RETURN JUMPDEST SWAP1 PUSH1 0x20 PUSH1 0x64 SWAP3 MLOAD SWAP2 PUSH3 0x461BCD PUSH1 0xE5 SHL DUP4 MSTORE DUP3 ADD MSTORE PUSH1 0x1A PUSH1 0x24 DUP3 ADD MSTORE PUSH32 0x5374616B696E67506F6F6C3A205261746520746F6F2068696768000000000000 PUSH1 0x44 DUP3 ADD MSTORE REVERT JUMPDEST POP POP CALLVALUE PUSH2 0x248 JUMPI DUP2 PUSH1 0x3 NOT CALLDATASIZE ADD SLT PUSH2 0x248 JUMPI PUSH1 0x1 SLOAD SWAP1 MLOAD PUSH1 0x1 PUSH1 0x1 PUSH1 0xA0 SHL SUB SWAP1 SWAP2 AND DUP2 MSTORE PUSH1 0x20 SWAP1 RETURN JUMPDEST POP CALLVALUE PUSH2 0x18E JUMPI PUSH1 0x20 CALLDATASIZE PUSH1 0x3 NOT ADD SLT PUSH2 0x18E JUMPI PUSH1 0x1 SLOAD PUSH1 0x1 PUSH1 0x1 PUSH1 0xA0 SHL SUB SWAP1 DUP2 AND CALLER EQ DUP1 ISZERO PUSH2 0x917 JUMPI JUMPDEST ISZERO PUSH2 0x8D4 JUMPI DUP2 SLOAD DUP4 MLOAD PUSH4 0x23B872DD PUSH1 0xE0 SHL DUP2 MSTORE CALLER DUP2 DUP6 ADD SWAP1 DUP2 MSTORE ADDRESS PUSH1 0x20 DUP3 DUP2 ADD SWAP2 SWAP1 SWAP2 MSTORE SWAP5 CALLDATALOAD PUSH1 0x40 DUP3 ADD MSTORE SWAP1 SWAP4 SWAP3 DUP5 SWAP3 AND SWAP1 DUP3 SWAP1 DUP8 SWAP1 DUP3 SWAP1 PUSH1 0x60 ADD SUB SWAP3 GAS CALL SWAP1 DUP2 ISZERO PUSH2 0x8C8 JUMPI PUSH2 0x8AD SWAP3 POP DUP4 SWAP2 PUSH2 0x8B0 JUMPI POP PUSH2 0xDF7 JUMP JUMPDEST DUP1 RETURN JUMPDEST PUSH2 0x3AC SWAP2 POP PUSH1 0x20 RETURNDATASIZE DUP2 GT PUSH2 0x3B2 JUMPI PUSH2 0x3A4 DUP2 DUP4 PUSH2 0xDA2 JUMP JUMPDEST POP POP MLOAD SWAP1 RETURNDATASIZE SWAP1 DUP3 RETURNDATACOPY RETURNDATASIZE SWAP1 REVERT JUMPDEST POP PUSH1 0x20 PUSH1 0x64 SWAP3 MLOAD SWAP2 PUSH3 0x461BCD PUSH1 0xE5 SHL DUP4 MSTORE DUP3 ADD MSTORE PUSH1 0x1B PUSH1 0x24 DUP3 ADD MSTORE PUSH32 0x5374616B696E67506F6F6C3A204E6F7420617574686F72697A65640000000000 PUSH1 0x44 DUP3 ADD MSTORE REVERT JUMPDEST POP DUP1 PUSH1 0x9 SLOAD AND CALLER EQ PUSH2 0x856 JUMP JUMPDEST POP POP CALLVALUE PUSH2 0x248 JUMPI DUP2 PUSH1 0x3 NOT CALLDATASIZE ADD SLT PUSH2 0x248 JUMPI PUSH1 0x20 SWAP1 PUSH1 0x7 SLOAD SWAP1 MLOAD SWAP1 DUP2 MSTORE RETURN JUMPDEST POP SWAP2 SWAP1 CALLVALUE PUSH2 0x248 JUMPI PUSH1 0x20 CALLDATASIZE PUSH1 0x3 NOT ADD SLT PUSH2 0x248 JUMPI DUP3 CALLDATALOAD PUSH1 0x1 PUSH1 0x1 PUSH1 0xA0 SHL SUB DUP2 AND SWAP1 DUP2 SWAP1 SUB PUSH2 0x18E JUMPI DUP3 MSTORE PUSH1 0x2 PUSH1 0x20 MSTORE DUP1 DUP3 KECCAK256 SWAP2 PUSH1 0xFF DUP5 DUP5 ADD SLOAD AND SWAP3 DUP4 PUSH2 0x990 JUMPI JUMPDEST PUSH1 0x20 DUP5 DUP5 MLOAD SWAP1 ISZERO ISZERO DUP2 MSTORE RETURN JUMPDEST PUSH1 0x1 ADD SLOAD SWAP2 SWAP3 POP PUSH3 0x93A80 DUP3 ADD SWAP2 DUP3 LT PUSH2 0x9B4 JUMPI POP PUSH1 0x20 SWAP3 POP TIMESTAMP LT ISZERO SWAP1 CODESIZE DUP1 PUSH2 0x984 JUMP JUMPDEST PUSH4 0x4E487B71 PUSH1 0xE0 SHL DUP2 MSTORE PUSH1 0x11 DUP5 MSTORE PUSH1 0x24 SWAP1 REVERT JUMPDEST POP POP CALLVALUE PUSH2 0x248 JUMPI DUP2 PUSH1 0x3 NOT CALLDATASIZE ADD SLT PUSH2 0x248 JUMPI PUSH1 0x20 SWAP1 PUSH1 0x6 SLOAD SWAP1 MLOAD SWAP1 DUP2 MSTORE RETURN JUMPDEST POP CALLVALUE PUSH2 0x18E JUMPI PUSH1 0x20 CALLDATASIZE PUSH1 0x3 NOT ADD SLT PUSH2 0x18E JUMPI DUP1 CALLDATALOAD PUSH1 0x1 PUSH1 0x1 PUSH1 0xA0 SHL SUB DUP2 AND SWAP3 SWAP1 DUP4 SWAP1 SUB PUSH2 0x78F JUMPI PUSH2 0xA15 PUSH2 0xD76 JUMP JUMPDEST DUP3 ISZERO PUSH2 0xA38 JUMPI POP POP PUSH12 0xFFFFFFFFFFFFFFFFFFFFFFFF PUSH1 0xA0 SHL PUSH1 0x9 SLOAD AND OR PUSH1 0x9 SSTORE DUP1 RETURN JUMPDEST SWAP1 PUSH1 0x20 PUSH1 0x64 SWAP3 MLOAD SWAP2 PUSH3 0x461BCD PUSH1 0xE5 SHL DUP4 MSTORE DUP3 ADD MSTORE PUSH1 0x1C PUSH1 0x24 DUP3 ADD MSTORE PUSH32 0x5374616B696E67506F6F6C3A20496E76616C6964206164647265737300000000 PUSH1 0x44 DUP3 ADD MSTORE REVERT JUMPDEST POP POP CALLVALUE PUSH2 0x248 JUMPI DUP2 PUSH1 0x3 NOT CALLDATASIZE ADD SLT PUSH2 0x248 JUMPI PUSH1 0x20 SWAP1 PUSH1 0x8 SLOAD SWAP1 MLOAD SWAP1 DUP2 MSTORE RETURN JUMPDEST POP POP CALLVALUE PUSH2 0x248 JUMPI DUP2 PUSH1 0x3 NOT CALLDATASIZE ADD SLT PUSH2 0x248 JUMPI PUSH1 0x20 SWAP1 PUSH1 0xA SLOAD SWAP1 MLOAD SWAP1 DUP2 MSTORE RETURN JUMPDEST DUP4 CALLVALUE PUSH2 0x18B JUMPI DUP1 PUSH1 0x3 NOT CALLDATASIZE ADD SLT PUSH2 0x18B JUMPI PUSH2 0xAD2 PUSH2 0xD76 JUMP JUMPDEST PUSH1 0x1 DUP1 SLOAD PUSH1 0x1 PUSH1 0x1 PUSH1 0xA0 SHL SUB NOT DUP2 AND SWAP1 SWAP2 SSTORE DUP2 SWAP1 PUSH1 0x1 PUSH1 0x1 PUSH1 0xA0 SHL SUB AND PUSH32 0x8BE0079C531659141344CD1FD0A4F28419497F9722A3DAAFE3B4186F6B6457E0 DUP3 DUP1 LOG3 DUP1 RETURN JUMPDEST POP POP CALLVALUE PUSH2 0x248 JUMPI DUP2 PUSH1 0x3 NOT CALLDATASIZE ADD SLT PUSH2 0x248 JUMPI PUSH1 0x9 SLOAD SWAP1 MLOAD PUSH1 0x1 PUSH1 0x1 PUSH1 0xA0 SHL SUB SWAP1 SWAP2 AND DUP2 MSTORE PUSH1 0x20 SWAP1 RETURN JUMPDEST POP POP CALLVALUE PUSH2 0x248 JUMPI DUP2 PUSH1 0x3 NOT CALLDATASIZE ADD SLT PUSH2 0x248 JUMPI PUSH1 0x20 SWAP1 MLOAD PUSH3 0x93A80 DUP2 MSTORE RETURN JUMPDEST POP SWAP1 CALLVALUE PUSH2 0x18E JUMPI DUP3 PUSH1 0x3 NOT CALLDATASIZE ADD SLT PUSH2 0x18E JUMPI PUSH2 0xB90 SWAP2 PUSH1 0xFF SWAP2 PUSH2 0xB7E PUSH2 0xE66 JUMP JUMPDEST CALLER DUP6 MSTORE PUSH1 0x2 PUSH1 0x20 MSTORE DUP5 KECCAK256 ADD SLOAD AND PUSH2 0xE89 JUMP JUMPDEST PUSH2 0xB98 PUSH2 0xEE2 JUMP JUMPDEST PUSH1 0x1 DUP2 SSTORE DUP1 RETURN JUMPDEST POP SWAP1 CALLVALUE PUSH2 0x18E JUMPI PUSH1 0x20 DUP1 PUSH1 0x3 NOT CALLDATASIZE ADD SLT PUSH2 0x78F JUMPI DUP3 CALLDATALOAD SWAP1 DUP2 ISZERO ISZERO DUP3 SUB PUSH2 0x225 JUMPI PUSH2 0xBC7 PUSH2 0xE66 JUMP JUMPDEST CALLER DUP6 MSTORE PUSH1 0x2 DUP2 MSTORE PUSH2 0xBDF PUSH1 0xFF DUP6 DUP6 DUP9 KECCAK256 ADD SLOAD AND PUSH2 0xE89 JUMP JUMPDEST CALLER DUP6 MSTORE PUSH1 0x2 DUP2 MSTORE DUP3 DUP6 KECCAK256 SWAP4 PUSH1 0x1 DUP6 ADD SLOAD PUSH3 0x93A80 DUP2 ADD DUP1 SWAP2 GT PUSH2 0xD63 JUMPI TIMESTAMP LT PUSH2 0xD17 JUMPI DUP2 PUSH2 0xC9A SWAP2 DUP7 SLOAD SWAP7 PUSH2 0xC13 CALLER PUSH2 0x102F JUMP JUMPDEST SWAP6 ISZERO PUSH2 0xD03 JUMPI PUSH1 0x5 SLOAD PUSH1 0x1 PUSH1 0x1 PUSH1 0xA0 SHL SUB AND SWAP1 PUSH1 0x3 SWAP1 JUMPDEST DUP11 DUP2 SSTORE DUP4 DUP2 ADD PUSH1 0xFF NOT DUP2 SLOAD AND SWAP1 SSTORE ADD PUSH2 0xC44 DUP8 DUP3 SLOAD PUSH2 0xE43 JUMP JUMPDEST SWAP1 SSTORE PUSH2 0xC52 DUP9 PUSH1 0x6 SLOAD PUSH2 0xED5 JUMP JUMPDEST PUSH1 0x6 SSTORE PUSH2 0xC61 DUP7 PUSH1 0xA SLOAD PUSH2 0xE43 JUMP JUMPDEST PUSH1 0xA SSTORE PUSH2 0xC6E DUP7 DUP10 PUSH2 0xE43 JUMP JUMPDEST DUP8 MLOAD PUSH4 0xA9059CBB PUSH1 0xE0 SHL DUP2 MSTORE CALLER SWAP4 DUP2 ADD SWAP4 DUP5 MSTORE PUSH1 0x20 DUP5 ADD SWAP2 SWAP1 SWAP2 MSTORE SWAP4 DUP5 SWAP3 DUP4 SWAP2 DUP12 SWAP2 DUP4 SWAP2 PUSH1 0x40 SWAP1 SWAP2 ADD SWAP1 JUMP JUMPDEST SUB SWAP3 PUSH1 0x1 PUSH1 0x1 PUSH1 0xA0 SHL SUB AND GAS CALL SWAP1 DUP2 ISZERO PUSH2 0xCF9 JUMPI SWAP1 PUSH2 0xCBF SWAP2 DUP8 SWAP2 PUSH2 0x6B7 JUMPI POP PUSH2 0xDF7 JUMP JUMPDEST DUP3 MLOAD SWAP4 DUP5 MSTORE DUP4 ADD MSTORE TIMESTAMP SWAP1 DUP3 ADD MSTORE PUSH32 0x204FCCF0D92ED8D48F204ADB39B2E81E92BAD0DEDB93F5716CA9478CFB57DE00 PUSH1 0x60 CALLER SWAP3 LOG2 PUSH1 0x1 DUP2 SSTORE DUP1 RETURN JUMPDEST DUP5 MLOAD RETURNDATASIZE DUP9 DUP3 RETURNDATACOPY RETURNDATASIZE SWAP1 REVERT JUMPDEST DUP2 SLOAD PUSH1 0x1 PUSH1 0x1 PUSH1 0xA0 SHL SUB AND SWAP1 PUSH1 0x3 SWAP1 PUSH2 0xC2A JUMP JUMPDEST PUSH1 0x84 SWAP2 DUP5 MLOAD SWAP2 PUSH3 0x461BCD PUSH1 0xE5 SHL DUP4 MSTORE DUP3 ADD MSTORE PUSH1 0x22 PUSH1 0x24 DUP3 ADD MSTORE PUSH32 0x5374616B696E67506F6F6C3A204C6F636B20706572696F64206E6F7420656E64 PUSH1 0x44 DUP3 ADD MSTORE PUSH2 0x1959 PUSH1 0xF2 SHL PUSH1 0x64 DUP3 ADD MSTORE REVERT JUMPDEST PUSH4 0x4E487B71 PUSH1 0xE0 SHL DUP8 MSTORE PUSH1 0x11 DUP3 MSTORE PUSH1 0x24 DUP8 REVERT JUMPDEST PUSH1 0x1 SLOAD PUSH1 0x1 PUSH1 0x1 PUSH1 0xA0 SHL SUB AND CALLER SUB PUSH2 0xD8A JUMPI JUMP JUMPDEST PUSH1 0x40 MLOAD PUSH4 0x118CDAA7 PUSH1 0xE0 SHL DUP2 MSTORE CALLER PUSH1 0x4 DUP3 ADD MSTORE PUSH1 0x24 SWAP1 REVERT JUMPDEST SWAP1 PUSH1 0x1F DUP1 NOT SWAP2 ADD AND DUP2 ADD SWAP1 DUP2 LT PUSH8 0xFFFFFFFFFFFFFFFF DUP3 GT OR PUSH2 0xDC4 JUMPI PUSH1 0x40 MSTORE JUMP JUMPDEST PUSH4 0x4E487B71 PUSH1 0xE0 SHL PUSH1 0x0 MSTORE PUSH1 0x41 PUSH1 0x4 MSTORE PUSH1 0x24 PUSH1 0x0 REVERT JUMPDEST SWAP1 DUP2 PUSH1 0x20 SWAP2 SUB SLT PUSH2 0xDF2 JUMPI MLOAD DUP1 ISZERO ISZERO DUP2 SUB PUSH2 0xDF2 JUMPI SWAP1 JUMP JUMPDEST PUSH1 0x0 DUP1 REVERT JUMPDEST ISZERO PUSH2 0xDFE JUMPI JUMP JUMPDEST PUSH1 0x40 MLOAD PUSH3 0x461BCD PUSH1 0xE5 SHL DUP2 MSTORE PUSH1 0x20 PUSH1 0x4 DUP3 ADD MSTORE PUSH1 0x1C PUSH1 0x24 DUP3 ADD MSTORE PUSH32 0x5374616B696E67506F6F6C3A205472616E73666572206661696C656400000000 PUSH1 0x44 DUP3 ADD MSTORE PUSH1 0x64 SWAP1 REVERT JUMPDEST SWAP2 SWAP1 DUP3 ADD DUP1 SWAP3 GT PUSH2 0xE50 JUMPI JUMP JUMPDEST PUSH4 0x4E487B71 PUSH1 0xE0 SHL PUSH1 0x0 MSTORE PUSH1 0x11 PUSH1 0x4 MSTORE PUSH1 0x24 PUSH1 0x0 REVERT JUMPDEST PUSH1 0x2 PUSH1 0x0 SLOAD EQ PUSH2 0xE77 JUMPI PUSH1 0x2 PUSH1 0x0 SSTORE JUMP JUMPDEST PUSH1 0x40 MLOAD PUSH4 0x3EE5AEB5 PUSH1 0xE0 SHL DUP2 MSTORE PUSH1 0x4 SWAP1 REVERT JUMPDEST ISZERO PUSH2 0xE90 JUMPI JUMP JUMPDEST PUSH1 0x40 MLOAD PUSH3 0x461BCD PUSH1 0xE5 SHL DUP2 MSTORE PUSH1 0x20 PUSH1 0x4 DUP3 ADD MSTORE PUSH1 0x1C PUSH1 0x24 DUP3 ADD MSTORE PUSH32 0x5374616B696E67506F6F6C3A204E6F20616374697665207374616B6500000000 PUSH1 0x44 DUP3 ADD MSTORE PUSH1 0x64 SWAP1 REVERT JUMPDEST SWAP2 SWAP1 DUP3 SUB SWAP2 DUP3 GT PUSH2 0xE50 JUMPI JUMP JUMPDEST PUSH2 0xEEB CALLER PUSH2 0x102F JUMP JUMPDEST DUP1 PUSH2 0xEF3 JUMPI POP JUMP JUMPDEST CALLER PUSH1 0x0 MSTORE PUSH1 0x20 PUSH1 0x2 DUP2 MSTORE PUSH1 0x40 SWAP1 PUSH1 0x3 DUP3 PUSH1 0x0 KECCAK256 TIMESTAMP PUSH1 0x2 DUP3 ADD SSTORE ADD PUSH2 0xF18 DUP5 DUP3 SLOAD PUSH2 0xE43 JUMP JUMPDEST SWAP1 SSTORE PUSH2 0xF26 DUP4 PUSH1 0xA SLOAD PUSH2 0xE43 JUMP JUMPDEST PUSH1 0xA SSTORE PUSH1 0x4 DUP1 SLOAD DUP4 MLOAD PUSH4 0xA9059CBB PUSH1 0xE0 SHL DUP2 MSTORE CALLER SWAP3 DUP2 ADD SWAP3 SWAP1 SWAP3 MSTORE PUSH1 0x24 DUP3 ADD DUP6 SWAP1 MSTORE DUP3 SWAP1 DUP3 SWAP1 PUSH1 0x44 SWAP1 DUP3 SWAP1 PUSH1 0x0 SWAP1 PUSH1 0x1 PUSH1 0x1 PUSH1 0xA0 SHL SUB AND GAS CALL SWAP1 DUP2 ISZERO PUSH2 0x1011 JUMPI PUSH1 0x0 SWAP2 PUSH2 0xFF4 JUMPI JUMPDEST POP ISZERO PUSH2 0xFA6 JUMPI SWAP1 PUSH32 0xDACBDDE355BA930696A362EA6738FEB9F8BD52DFB3D81947558FD3217E23E325 SWAP2 DUP2 MLOAD SWAP4 DUP5 MSTORE TIMESTAMP SWAP1 DUP5 ADD MSTORE CALLER SWAP3 LOG2 JUMP JUMPDEST PUSH1 0x84 SWAP2 MLOAD SWAP1 PUSH3 0x461BCD PUSH1 0xE5 SHL DUP3 MSTORE PUSH1 0x4 DUP3 ADD MSTORE PUSH1 0x23 PUSH1 0x24 DUP3 ADD MSTORE PUSH32 0x5374616B696E67506F6F6C3A20526577617264207472616E7366657220666169 PUSH1 0x44 DUP3 ADD MSTORE PUSH3 0x1B1959 PUSH1 0xEA SHL PUSH1 0x64 DUP3 ADD MSTORE REVERT JUMPDEST PUSH2 0x100B SWAP2 POP DUP3 RETURNDATASIZE DUP5 GT PUSH2 0x3B2 JUMPI PUSH2 0x3A4 DUP2 DUP4 PUSH2 0xDA2 JUMP JUMPDEST CODESIZE PUSH2 0xF6E JUMP JUMPDEST DUP4 MLOAD RETURNDATASIZE PUSH1 0x0 DUP3 RETURNDATACOPY RETURNDATASIZE SWAP1 REVERT JUMPDEST DUP2 DUP2 MUL SWAP3 SWAP2 DUP2 ISZERO SWAP2 DUP5 DIV EQ OR ISZERO PUSH2 0xE50 JUMPI JUMP JUMPDEST PUSH1 0x1 PUSH1 0x1 PUSH1 0xA0 SHL SUB AND PUSH1 0x0 SWAP1 DUP2 MSTORE PUSH1 0x2 PUSH1 0x20 MSTORE PUSH1 0x40 SWAP1 KECCAK256 PUSH1 0x4 DUP2 ADD SLOAD PUSH1 0xFF AND ISZERO DUP1 ISZERO PUSH2 0x108F JUMPI JUMPDEST PUSH2 0x1089 JUMPI PUSH2 0x1085 DUP2 PUSH2 0x1080 PUSH2 0x1075 PUSH1 0x2 PUSH5 0x496CEBB800 SWAP6 ADD SLOAD TIMESTAMP PUSH2 0xED5 JUMP JUMPDEST SWAP2 SLOAD PUSH1 0x8 SLOAD SWAP1 PUSH2 0x101C JUMP JUMPDEST PUSH2 0x101C JUMP JUMPDEST DIV SWAP1 JUMP JUMPDEST POP PUSH1 0x0 SWAP1 JUMP JUMPDEST POP DUP1 SLOAD ISZERO PUSH2 0x1056 JUMP JUMPDEST PUSH1 0x1 PUSH1 0x1 PUSH1 0xA0 SHL SUB AND PUSH1 0x0 SWAP1 DUP2 MSTORE PUSH1 0x2 PUSH1 0x20 MSTORE PUSH1 0x40 DUP2 KECCAK256 PUSH1 0x4 DUP2 ADD SLOAD PUSH1 0xFF AND ISZERO PUSH2 0x10E4 JUMPI PUSH1 0x1 ADD SLOAD PUSH3 0x93A80 DUP2 ADD DUP1 SWAP2 GT PUSH2 0x10E8 JUMPI DUP1 TIMESTAMP LT ISZERO PUSH2 0x10E4 JUMPI PUSH2 0x10E1 SWAP2 POP TIMESTAMP SWAP1 PUSH2 0xED5 JUMP JUMPDEST SWAP1 JUMP JUMPDEST POP SWAP1 JUMP JUMPDEST PUSH4 0x4E487B71 PUSH1 0xE0 SHL DUP3 MSTORE PUSH1 0x11 PUSH1 0x4 MSTORE PUSH1 0x24 DUP3 REVERT INVALID LOG2 PUSH5 0x6970667358 0x22 SLT KECCAK256 MLOAD PUSH12 0xB6F314DA32A6E223B5CB64DF MUL 0x28 0xEF 0x2E SUB JUMPDEST CALLVALUE JUMPI JUMPDEST ISZERO DUP1 SLOAD 0xEF CALLDATASIZE PREVRANDAO 0xA7 GASPRICE 0xDC PUSH5 0x736F6C6343 STOP ADDMOD EQ STOP CALLER "},"methodIdentifiers":{"MAX_STAKE()":"c98517c5","MIN_LOCK_PERIOD()":"385dc3df","MIN_STAKE()":"cb1c2b5c","SECONDS_PER_YEAR()":"e6a69ab8","canUnstake(address)":"85f4498b","celoToken()":"e22d551a","claimRewards()":"372500ab","cusdToken()":"cae07843","depositRewards(uint256)":"8bdf67f2","emergencyWithdraw()":"db2e21bc","getPendingRewards(address)":"f6ed2017","getPoolStats()":"bbb85188","getStakeInfo(address)":"c3453153","getTimeUntilUnstake(address)":"e4307444","hasStaked(address)":"c93c8f34","owner()":"8da5cb5b","renounceOwnership()":"715018a6","rewardRate()":"7b0a47ee","stake(uint256,bool)":"abe50f19","stakes(address)":"16934fc4","totalRewardsPaid()":"74958e35","totalStaked()":"817b1cd2","totalStakers()":"86989038","transferOwnership(address)":"f2fde38b","treasury()":"61d027b3","unstake(bool)":"088abb8d","updateRewardRate(uint256)":"9ef3a261","updateTreasury(address)":"7f51bb1f"}}}}}