{"contracts/LoopFi.sol":{"LoopFi":{"abi":[{"inputs":[{"internalType":"address","name":"_celoToken","type":"address"},{"internalType":"address","name":"_cusdToken","type":"address"},{"internalType":"address","name":"_treasury","type":"address"}],"stateMutability":"nonpayable","type":"constructor"},{"inputs":[{"internalType":"address","name":"owner","type":"address"}],"name":"OwnableInvalidOwner","type":"error"},{"inputs":[{"internalType":"address","name":"account","type":"address"}],"name":"OwnableUnauthorizedAccount","type":"error"},{"inputs":[],"name":"ReentrancyGuardReentrantCall","type":"error"},{"anonymous":false,"inputs":[{"indexed":true,"internalType":"address","name":"user","type":"address"},{"indexed":false,"internalType":"enum SavingsBadgeNFT.BadgeType","name":"badgeType","type":"uint8"},{"indexed":false,"internalType":"uint256","name":"milestone","type":"uint256"}],"name":"BadgeAwarded","type":"event"},{"anonymous":false,"inputs":[{"indexed":true,"internalType":"address","name":"previousOwner","type":"address"},{"indexed":true,"internalType":"address","name":"newOwner","type":"address"}],"name":"OwnershipTransferred","type":"event"},{"anonymous":false,"inputs":[{"indexed":true,"internalType":"address","name":"user","type":"address"},{"indexed":false,"internalType":"string","name":"username","type":"string"}],"name":"UserRegistered","type":"event"},{"anonymous":false,"inputs":[{"indexed":true,"internalType":"address","name":"strategy","type":"address"},{"indexed":false,"internalType":"uint256","name":"apy","type":"uint256"}],"name":"YieldStrategyUpdated","type":"event"},{"inputs":[],"name":"MAX_YIELD_STRATEGIES","outputs":[{"internalType":"uint256","name":"","type":"uint256"}],"stateMutability":"view","type":"function"},{"inputs":[],"name":"REGISTRATION_FEE","outputs":[{"internalType":"uint256","name":"","type":"uint256"}],"stateMutability":"view","type":"function"},{"inputs":[{"internalType":"address","name":"strategyAddress","type":"address"},{"internalType":"string","name":"name","type":"string"},{"internalType":"uint256","name":"apy","type":"uint256"}],"name":"addYieldStrategy","outputs":[],"stateMutability":"nonpayable","type":"function"},{"inputs":[{"internalType":"address","name":"user","type":"address"},{"internalType":"enum SavingsBadgeNFT.BadgeType","name":"badgeType","type":"uint8"},{"internalType":"uint256","name":"milestone","type":"uint256"},{"internalType":"string","name":"metadataURI","type":"string"}],"name":"awardBadge","outputs":[],"stateMutability":"nonpayable","type":"function"},{"inputs":[],"name":"badgeNFTContract","outputs":[{"internalType":"contract SavingsBadgeNFT","name":"","type":"address"}],"stateMutability":"view","type":"function"},{"inputs":[],"name":"celoToken","outputs":[{"internalType":"contract IERC20","name":"","type":"address"}],"stateMutability":"view","type":"function"},{"inputs":[{"internalType":"uint256","name":"poolId","type":"uint256"},{"internalType":"uint256","name":"amount","type":"uint256"},{"internalType":"bool","name":"useCUSD","type":"bool"}],"name":"contributeToGroupPool","outputs":[],"stateMutability":"nonpayable","type":"function"},{"inputs":[{"internalType":"string","name":"name","type":"string"},{"internalType":"string","name":"description","type":"string"},{"internalType":"uint256","name":"targetAmount","type":"uint256"},{"internalType":"uint256","name":"maxMembers","type":"uint256"},{"internalType":"uint256","name":"lockDuration","type":"uint256"},{"internalType":"bool","name":"useCUSD","type":"bool"}],"name":"createGroupPool","outputs":[],"stateMutability":"nonpayable","type":"function"},{"inputs":[{"internalType":"uint256","name":"targetAmount","type":"uint256"},{"internalType":"uint256","name":"lockDuration","type":"uint256"},{"internalType":"bool","name":"useCUSD","type":"bool"}],"name":"createSavingsGoal","outputs":[],"stateMutability":"nonpayable","type":"function"},{"inputs":[],"name":"cusdToken","outputs":[{"internalType":"contract IERC20","name":"","type":"address"}],"stateMutability":"view","type":"function"},{"inputs":[{"internalType":"uint256","name":"amount","type":"uint256"},{"internalType":"bool","name":"useCUSD","type":"bool"}],"name":"depositToGoal","outputs":[],"stateMutability":"nonpayable","type":"function"},{"inputs":[],"name":"emergencyWithdraw","outputs":[],"stateMutability":"nonpayable","type":"function"},{"inputs":[],"name":"getActiveYieldStrategies","outputs":[{"components":[{"internalType":"address","name":"strategyAddress","type":"address"},{"internalType":"string","name":"name","type":"string"},{"internalType":"uint256","name":"apy","type":"uint256"},{"internalType":"bool","name":"isActive","type":"bool"},{"internalType":"uint256","name":"totalDeposited","type":"uint256"}],"internalType":"struct LoopFi.YieldStrategy[]","name":"","type":"tuple[]"}],"stateMutability":"view","type":"function"},{"inputs":[],"name":"getStats","outputs":[{"internalType":"uint256","name":"totalUsers_","type":"uint256"},{"internalType":"uint256","name":"totalVolume","type":"uint256"},{"internalType":"uint256","name":"totalYield","type":"uint256"},{"internalType":"uint256","name":"contractBalance","type":"uint256"},{"internalType":"uint256","name":"cusdBalance","type":"uint256"}],"stateMutability":"view","type":"function"},{"inputs":[{"internalType":"address","name":"user","type":"address"}],"name":"getUserBadges","outputs":[{"internalType":"enum SavingsBadgeNFT.BadgeType[]","name":"","type":"uint8[]"}],"stateMutability":"view","type":"function"},{"inputs":[{"internalType":"address","name":"user","type":"address"}],"name":"getUserProfile","outputs":[{"components":[{"internalType":"string","name":"username","type":"string"},{"internalType":"uint256","name":"totalSaved","type":"uint256"},{"internalType":"uint256","name":"totalYieldEarned","type":"uint256"},{"internalType":"uint256","name":"goalsCompleted","type":"uint256"},{"internalType":"uint256","name":"poolsJoined","type":"uint256"},{"internalType":"uint256","name":"poolsCreated","type":"uint256"},{"internalType":"uint256","name":"joinDate","type":"uint256"},{"internalType":"bool","name":"isRegistered","type":"bool"}],"internalType":"struct LoopFi.UserProfile","name":"","type":"tuple"}],"stateMutability":"view","type":"function"},{"inputs":[],"name":"getYieldStrategies","outputs":[{"components":[{"internalType":"address","name":"strategyAddress","type":"address"},{"internalType":"string","name":"name","type":"string"},{"internalType":"uint256","name":"apy","type":"uint256"},{"internalType":"bool","name":"isActive","type":"bool"},{"internalType":"uint256","name":"totalDeposited","type":"uint256"}],"internalType":"struct LoopFi.YieldStrategy[]","name":"","type":"tuple[]"}],"stateMutability":"view","type":"function"},{"inputs":[],"name":"groupPoolContract","outputs":[{"internalType":"contract GroupPool","name":"","type":"address"}],"stateMutability":"view","type":"function"},{"inputs":[{"internalType":"uint256","name":"poolId","type":"uint256"},{"internalType":"uint256","name":"amount","type":"uint256"},{"internalType":"bool","name":"useCUSD","type":"bool"},{"internalType":"address","name":"referrer","type":"address"}],"name":"joinGroupPool","outputs":[],"stateMutability":"nonpayable","type":"function"},{"inputs":[],"name":"owner","outputs":[{"internalType":"address","name":"","type":"address"}],"stateMutability":"view","type":"function"},{"inputs":[{"internalType":"string","name":"username","type":"string"}],"name":"registerUser","outputs":[],"stateMutability":"payable","type":"function"},{"inputs":[{"internalType":"address","name":"","type":"address"}],"name":"registeredUsers","outputs":[{"internalType":"bool","name":"","type":"bool"}],"stateMutability":"view","type":"function"},{"inputs":[],"name":"renounceOwnership","outputs":[],"stateMutability":"nonpayable","type":"function"},{"inputs":[],"name":"savingsGoalContract","outputs":[{"internalType":"contract SavingsGoal","name":"","type":"address"}],"stateMutability":"view","type":"function"},{"inputs":[{"internalType":"address","name":"","type":"address"}],"name":"strategyIndex","outputs":[{"internalType":"uint256","name":"","type":"uint256"}],"stateMutability":"view","type":"function"},{"inputs":[{"internalType":"address","name":"strategyAddress","type":"address"}],"name":"toggleStrategy","outputs":[],"stateMutability":"nonpayable","type":"function"},{"inputs":[],"name":"totalUsers","outputs":[{"internalType":"uint256","name":"","type":"uint256"}],"stateMutability":"view","type":"function"},{"inputs":[],"name":"totalVolumeLocked","outputs":[{"internalType":"uint256","name":"","type":"uint256"}],"stateMutability":"view","type":"function"},{"inputs":[],"name":"totalYieldDistributed","outputs":[{"internalType":"uint256","name":"","type":"uint256"}],"stateMutability":"view","type":"function"},{"inputs":[{"internalType":"address","name":"newOwner","type":"address"}],"name":"transferOwnership","outputs":[],"stateMutability":"nonpayable","type":"function"},{"inputs":[],"name":"treasury","outputs":[{"internalType":"address","name":"","type":"address"}],"stateMutability":"view","type":"function"},{"inputs":[{"internalType":"address","name":"newTreasury","type":"address"}],"name":"updateTreasury","outputs":[],"stateMutability":"nonpayable","type":"function"},{"inputs":[{"internalType":"address","name":"strategyAddress","type":"address"},{"internalType":"uint256","name":"newAPY","type":"uint256"}],"name":"updateYieldStrategyAPY","outputs":[],"stateMutability":"nonpayable","type":"function"},{"inputs":[{"internalType":"address","name":"","type":"address"}],"name":"userProfiles","outputs":[{"internalType":"string","name":"username","type":"string"},{"internalType":"uint256","name":"totalSaved","type":"uint256"},{"internalType":"uint256","name":"totalYieldEarned","type":"uint256"},{"internalType":"uint256","name":"goalsCompleted","type":"uint256"},{"internalType":"uint256","name":"poolsJoined","type":"uint256"},{"internalType":"uint256","name":"poolsCreated","type":"uint256"},{"internalType":"uint256","name":"joinDate","type":"uint256"},{"internalType":"bool","name":"isRegistered","type":"bool"}],"stateMutability":"view","type":"function"},{"inputs":[{"internalType":"bool","name":"useCUSD","type":"bool"}],"name":"withdrawFromGoal","outputs":[],"stateMutability":"nonpayable","type":"function"},{"inputs":[{"internalType":"uint256","name":"poolId","type":"uint256"},{"internalType":"bool","name":"useCUSD","type":"bool"}],"name":"withdrawFromGroupPool","outputs":[],"stateMutability":"nonpayable","type":"function"},{"inputs":[{"internalType":"uint256","name":"","type":"uint256"}],"name":"yieldStrategies","outputs":[{"internalType":"address","name":"strategyAddress","type":"address"},{"internalType":"string","name":"name","type":"string"},{"internalType":"uint256","name":"apy","type":"uint256"},{"internalType":"bool","name":"isActive","type":"bool"},{"internalType":"uint256","name":"totalDeposited","type":"uint256"}],"stateMutability":"view","type":"function"},{"stateMutability":"payable","type":"receive"}],"evm":{"bytecode":{"linkReferences":{},"object":"6080346200036557601f62008ead38819003918201601f19168301926000926001600160401b039283861183871017620003515781606092849260409889528339810103126200034d57620000548162000394565b916200007085620000686020850162000394565b930162000394565b9060018555331562000335576001549360018060a01b0319923384871617600155875160018060a01b0396873391167f8be0079c531659141344cd1fd0a4f28419497f9722a3daafe3b4186f6b6457e08a80a386831685600754161760075586861685600854161760085586821685600b541617600b556118028082019082821086831117620003215783888685946200012d94620076ab87396001600160a01b0391821681529181166020830152909116604082015260600190565b039088f0948515620003175786600496168587541617865588519261242280850190858210878311176200030457916200018e93918695936200238b87396001600160a01b0391821681529181166020830152909116604082015260600190565b039086f08015620002c3578416826005541617600555855190612efe8083019183831090831117620002f157908291620047ad8339039085f08015620002e75783169060065416176006558181541691823b15620002a757845184816024818363f2fde38b60e01b9889835230898401525af18015620002c357620002d1575b508060055416803b15620002cd57848091602488518094819389835230898401525af18015620002c357908591620002ab575b50506006541691823b15620002a75790602484928387519586948593845230908401525af180156200029d5762000282575b8251611fe19081620003aa8239f35b6200028e82916200036a565b6200029a578062000273565b80fd5b83513d84823e3d90fd5b8380fd5b620002b6906200036a565b620002a757833862000241565b86513d87823e3d90fd5b8480fd5b620002df909491946200036a565b92386200020e565b85513d86823e3d90fd5b634e487b7160e01b875260418552602487fd5b634e487b7160e01b8b526041895260248bfd5b88513d89823e3d90fd5b634e487b7160e01b8a52604160045260248afd5b8551631e4fbdf760e01b815260048101869052602490fd5b8280fd5b634e487b7160e01b85526041600452602485fd5b600080fd5b6001600160401b0381116200037e57604052565b634e487b7160e01b600052604160045260246000fd5b51906001600160a01b0382168203620003655756fe6080604052600436101561001b575b361561001957600080fd5b005b6000803560e01c80630ccb091d146119a35780630e50cee514611964578063114515261461192b578063332d56d71461188757806337c245fe1461173757806342f712ed146116af5780634fe770e7146115d25780635468dfce146115a957806357b7f763146115805780635a4fafd8146115645780635a73211f146114bb57806361d027b31461149257806364b4f75114611470578063704f1b941461112c578063715018a6146110ce5780637f51bb1f14610fb45780637fea355b14610f965780638da5cb5b14610f6d57806394eb43ed14610e4557806396630d6314610dd257806397206bd514610db4578063987ee15614610c8d578063a4a23aa914610c00578063b2a20d2514610b37578063bff1f9e114610b19578063c59d484714610a5b578063cae0784314610a32578063cba0c9d514610a09578063cba161ab146108f6578063d73ff0aa14610834578063db2e21bc146107d5578063dde41c7014610745578063e22d551a1461071c578063e3985cfa146103b8578063e9a3f63f14610313578063f03156d81461024b5763f2fde38b146101be575061000e565b34610248576020366003190112610248576101d7611c20565b6101df611d7f565b6001600160a01b0390811690811561022f57600154826001600160601b0360a01b821617600155167f8be0079c531659141344cd1fd0a4f28419497f9722a3daafe3b4186f6b6457e0600080a380f35b604051631e4fbdf760e01b815260048101849052602490fd5b80fd5b50346102485760403660031901126102485760043581610269611c59565b338252600360205261028160ff604084205416611dd0565b6004546001600160a01b0316803b1561030f57604051639a40832160e01b815260048101859052911515602483015282908290818381604481015b03925af18015610304576102ec575b505033825260026020526102e760016040842001918254611e1c565b905580f35b6102f590611ab5565b6103005781386102cb565b5080fd5b6040513d84823e3d90fd5b8280fd5b50346102485760203660031901126102485761032d611c20565b610335611d7f565b6001600160a01b0316808252600a6020526040822054610356901515611e6c565b8152600a602052604081205460001981019081116103a45780600361038e60ff826103836103a196611a2a565b500154161592611a2a565b50019060ff801983541691151516179055565b80f35b634e487b7160e01b82526011600452602482fd5b5034610248576060366003190112610248576103d2611c20565b67ffffffffffffffff60248035828111610718576103f4903690600401611c68565b906103fd611d7f565b60095490600a8210156106d4576001600160a01b038581168752600a6020526040872054909490610690576104386107d06044351115611e29565b6040519261044584611afc565b8587168452602084019485526040840191604435835260608501936001928386528a60808801526801000000000000000081101561067d57808461048c9201600955611a2a565b97909761066a57888751166001600160601b0360a01b8954161788555190815192831161065857506104c083880154611a7b565b601f811161060e575b506020908a601f84116001146105785794608094847f5307943003b6b820384c02acc8cd5ebebe701cb15d7d558adae90174cf95e57d9b99956105489560209c9a9560049a9261056d575b5050600019600383901b1c191690821b17908801555b516002870155511515600386019060ff801983541691151516179055565b01519101556009548185168652600a835260408620556040519360443585521692a280f35b015190503880610514565b508784018b5260208b209190601f1984168c5b8181106105f857509480856105489560209c9a9560049a957f5307943003b6b820384c02acc8cd5ebebe701cb15d7d558adae90174cf95e57d9f9d9960809b106105df575b505050811b019088015561052a565b015160001960f88460031b161c191690553880806105d0565b828401518555938601936020938401930161058b565b8388018b5260208b20601f840160051c8101916020851061064e575b601f0160051c019084905b8281106106435750506104c9565b8c8155018490610635565b909150819061062a565b634e487b7160e01b8b5260416004528afd5b50634e487b7160e01b8a5260048a905289fd5b50634e487b7160e01b8a52604160045289fd5b60405162461bcd60e51b815260206004820152601f818401527f4c6f6f7046693a20537472617465677920616c726561647920657869737473006044820152606490fd5b606490601e6040519162461bcd60e51b8352602060048401528201527f4c6f6f7046693a204d61782073747261746567696573207265616368656400006044820152fd5b8480fd5b50346102485780600319360112610248576007546040516001600160a01b039091168152602090f35b503461024857806003193601126102485760095461076281611eb8565b906107706040519283611b18565b808252600983527f6e1540171b6c0c960b71a7020d9f60077f6af931a8bbf590da0223dacf75c7af9260208084015b8383106107b857604051806107b48782611ce2565b0390f35b6005826001926107c789611ed0565b81520196019201919461079f565b50346102485780600319360112610248576107ee611d7f565b804780159081156107fd575050f35b82809291819260018060a01b036001541690839061082b575bf11561081f5780f35b604051903d90823e3d90fd5b506108fc610816565b50346102485760403660031901126102485761084e611c20565b6024359061085a611d7f565b6001600160a01b0316808352600a602052604083205490919061087e901515611e6c565b61088c6107d0821115611e29565b818352600a602052604083205460001981019081116108e257817f5307943003b6b820384c02acc8cd5ebebe701cb15d7d558adae90174cf95e57d9260026108d5602094611a2a565b500155604051908152a280f35b634e487b7160e01b84526011600452602484fd5b503461024857608036600319011261024857610910611c20565b602435600a81101561030f576044358360643567ffffffffffffffff811161030057610940903690600401611c68565b93610949611d7f565b6006546001600160a01b039081169190823b15610a05576109a69284928360405180968195829463e351d43760e01b8452169b8c600484015261098f602484018d611c36565b8a6044840152608060648401526084830190611be0565b03925af18015610304576109f1575b50507fd4df0cb969b99d25f121a3e9c7f32d8fcc5a0d782408695f68de9493db8cc177916040916109e883518093611c36565b6020820152a280f35b6109fa90611ab5565b610a055783386109b5565b8380fd5b50346102485780600319360112610248576004546040516001600160a01b039091168152602090f35b50346102485780600319360112610248576008546040516001600160a01b039091168152602090f35b5034610248578060031936011261024857600c54600d54600e546008546040516370a0823160e01b815230600482015292479291602090859060249082906001600160a01b03165afa938415610b0e578694610ad3575b5060a095506040519485526020850152604084015260608301526080820152f35b9093506020813d8211610b06575b81610aee60209383611b18565b81010312610b025760a09550519238610ab2565b8580fd5b3d9150610ae1565b6040513d88823e3d90fd5b50346102485780600319360112610248576020600c54604051908152f35b5034610248578060031936011261024857600954610b5481611f24565b8291835b818110610bb0575050610b6a82611f24565b925b828110610b8157604051806107b48682611ce2565b80610b8f610bab9284611f97565b51610b9a8287611f97565b52610ba58186611f97565b50611dab565b610b6c565b60ff6003610bbd83611a2a565b50015416610bd4575b610bcf90611dab565b610b58565b92610bf8610bcf91610bee610be887611a2a565b50611ed0565b610b9a8287611f97565b939050610bc6565b50346102485780610c1036611cbf565b9190913384526003602052610c2b60ff604086205416611dd0565b6004546001600160a01b0316803b15610718576040516370a6031160e01b815260048101939093526024830193909352151560448201529082908290606490829084905af1801561030457610c7d5750f35b610c8690611ab5565b6102485780f35b503461024857602080600319360112610300576040610d8492610cae611c20565b8160e08451610cbc81611adf565b60608152828782015282868201528260608201528260808201528260a08201528260c0820152015260018060a01b03168152600283522060405191610d0083611adf565b610d0982611b3a565b83526001820154918184019283526002810154906040850191825260038101546060860190815260048201546080870190815260058301549160a0880192835260ff600760068601549560c08b019687520154169460e089019515158652604051998a99888b525161010080998c01526101208b0190611be0565b975160408a01525160608901525160808801525160a08701525160c08601525160e0850152511515908301520390f35b50346102485780600319360112610248576020600e54604051908152f35b50346102485780610de236611cbf565b9092913383526003602052610dfd60ff604085205416611dd0565b6005546001600160a01b031691823b15610a055760405163f2b907d360e01b8152600481019290925260248201859052151560448201529082908290818381606481016102bc565b50346102485760031960c0368201126103005767ffffffffffffffff90600435828111610a0557610e7a903690600401611c68565b91602435908111610a0557610e93903690600401611c68565b60a43590811515809203610f685784933385526003602052610ebb60ff604087205416611dd0565b6005546001600160a01b031690813b15610b025785610efe918195610f0d60405198899788968795633dc55b7160e01b875260c0600488015260c4870190611be0565b91858303016024860152611be0565b9060443560448401526064356064840152608435608484015260a483015203925af1801561030457610f54575b503381526002602052600560408220016102e78154611dab565b610f5d90611ab5565b610248578038610f3a565b600080fd5b50346102485780600319360112610248576001546040516001600160a01b039091168152602090f35b50346102485780600319360112610248576020600d54604051908152f35b503461024857602036600319011261024857610fce611c20565b610fd6611d7f565b6001600160a01b03908116801561108a578291816001600160601b0360a01b600b541617600b55806004541690813b1561106657604051848160248183637f51bb1f60e01b978883528960048401525af190811561107f57859161106b575b50506005541691823b156110665760248492836040519586948593845260048401525af1801561030457610c7d5750f35b505050fd5b61107490611ab5565b611066578338611035565b6040513d87823e3d90fd5b606460405162461bcd60e51b815260206004820152602060248201527f4c6f6f7046693a20496e76616c696420747265617375727920616464726573736044820152fd5b50346102485780600319360112610248576110e7611d7f565b600180546001600160a01b031981169091556000906001600160a01b03167f8be0079c531659141344cd1fd0a4f28419497f9722a3daafe3b4186f6b6457e08280a380f35b506020806003193601126103005767ffffffffffffffff600435818111610a055761115b903690600401611c68565b90600284541461145e57600284553384526003835260ff604085205416611419578151156113d45766038d7ea4c68000341061138157338452600283526040842090825190811161136d576111b08254611a7b565b601f811161132a575b5083601f82116001146112c75790806007939287916112bc575b508160011b916000199060031b1c19161781555b8460018201558460028201558460038201558460048201558460058201554260068201550160ff19906001828254161790553384526003835260016040852091825416179055611238600c54611dab565b600c558234158015611289575b505061127f7f48cac28ad4dc618e15f4c2dd5e97751182f166de97b25618318b2112aa951a2f916040519182918583523395830190611be0565b0390a26001815580f35b600b5482918291829182916001600160a01b0316906112b2575b3491f115610304578238611245565b6108fc91506112a3565b9050840151386111d3565b82865284862090601f198316875b8782821061131457505091839160079594600194106112fb575b5050811b0181556111e7565b86015160001960f88460031b161c1916905538806112ef565b600184958293958a0151815501940192016112d5565b828652848620601f830160051c810191868410611363575b601f0160051c01905b81811061135857506111b9565b86815560010161134b565b9091508190611342565b634e487b7160e01b85526041600452602485fd5b60405162461bcd60e51b815260048101849052602560248201527f4c6f6f7046693a20496e73756666696369656e7420726567697374726174696f6044820152646e2066656560d81b6064820152608490fd5b60405162461bcd60e51b815260048101849052601960248201527f4c6f6f7046693a20557365726e616d65207265717569726564000000000000006044820152606490fd5b60405162461bcd60e51b815260048101849052601f60248201527f4c6f6f7046693a205573657220616c72656164792072656769737465726564006044820152606490fd5b604051633ee5aeb560e01b8152600490fd5b5034610248578060031936011261024857602060405166038d7ea4c680008152f35b5034610248578060031936011261024857600b546040516001600160a01b039091168152602090f35b503461024857602036600319011261024857600435801515809103610f6857819033825260036020526114f460ff604084205416611dd0565b6004546001600160a01b031690813b15611560578291602483926040519485938492632a04295360e21b845260048401525af180156103045761154c575b503381526002602052600360408220016102e78154611dab565b61155590611ab5565b610248578038611532565b5050fd5b50346102485780600319360112610248576020604051600a8152f35b50346102485780600319360112610248576005546040516001600160a01b039091168152602090f35b50346102485780600319360112610248576006546040516001600160a01b039091168152602090f35b503461024857608036600319011261024857602435604435801515809103610f68576001600160a01b03906064358281169190829003610f68578492338452600360205261162660ff604086205416611dd0565b6005541691823b15610a055760848492836040519586948593638161d78160e01b855260043560048601528a6024860152604485015260648401525af180156103045761169b575b506004823383526002602052604083209061168e60018301918254611e1c565b9055016102e78154611dab565b6116a490611ab5565b61030057813861166e565b503461024857604036600319011261024857806116ca611c59565b33825260036020526116e260ff604084205416611dd0565b6005546001600160a01b031690813b1561156057604051632837bfaf60e11b81526004803590820152901515602482015291908290604490829084905af180156103045761172e575080f35b6103a190611ab5565b5034610248576020908160031936011261024857611753611c20565b600654604051631be122ff60e11b81526001600160a01b0392831660048201529291829184916024918391165afa91821561187a5781926117e2575b50919060405192828493840190808552835180925280604086019401925b8281106117bc57505050500390f35b91938395509080826117d2600194839751611c36565b01950191019185949391926117ad565b9091503d8083833e6117f48183611b18565b810190838183031261030f5780519067ffffffffffffffff8211610a0557019080601f8301121561030f57815161182a81611eb8565b926118386040519485611b18565b818452858085019260051b820101928311610718578501905b82821061186257505050903861178f565b8151600a811015610b02578152908501908501611851565b50604051903d90823e3d90fd5b503461024857602036600319011261024857611901906040906001600160a01b036118b0611c20565b1681526002602052206118c281611b3a565b906001810154906002810154906003810154600482015460058301549160ff600760068601549501541694604051988998610100808b528a0190611be0565b96602089015260408801526060870152608086015260a085015260c0840152151560e08301520390f35b5034610248576020366003190112610248576020906040906001600160a01b03611953611c20565b168152600a83522054604051908152f35b50346102485760203660031901126102485760209060ff906040906001600160a01b0361198f611c20565b168152600384522054166040519015158152f35b503461024857602036600319011261024857600435600954811015610300576119cb90611a2a565b5080546001600160a01b03166119e360018301611b3a565b91600281015490600460ff60038301541691015490611a14604051958695865260a0602087015260a0860190611be0565b9260408501521515606084015260808301520390f35b600954811015611a65576005906009600052027f6e1540171b6c0c960b71a7020d9f60077f6af931a8bbf590da0223dacf75c7af0190600090565b634e487b7160e01b600052603260045260246000fd5b90600182811c92168015611aab575b6020831014611a9557565b634e487b7160e01b600052602260045260246000fd5b91607f1691611a8a565b67ffffffffffffffff8111611ac957604052565b634e487b7160e01b600052604160045260246000fd5b610100810190811067ffffffffffffffff821117611ac957604052565b60a0810190811067ffffffffffffffff821117611ac957604052565b90601f8019910116810190811067ffffffffffffffff821117611ac957604052565b9060405191826000825492611b4e84611a7b565b908184526001948581169081600014611bbd5750600114611b7a575b5050611b7892500383611b18565b565b9093915060005260209081600020936000915b818310611ba5575050611b7893508201013880611b6a565b85548884018501529485019487945091830191611b8d565b915050611b7894506020925060ff191682840152151560051b8201013880611b6a565b919082519283825260005b848110611c0c575050826000602080949584010152601f8019910116010190565b602081830181015184830182015201611beb565b600435906001600160a01b0382168203610f6857565b90600a821015611c435752565b634e487b7160e01b600052602160045260246000fd5b602435908115158203610f6857565b81601f82011215610f685780359067ffffffffffffffff8211611ac95760405192611c9d601f8401601f191660200185611b18565b82845260208383010111610f6857816000926020809301838601378301015290565b6060906003190112610f685760043590602435906044358015158103610f685790565b602080820190808352835180925260409283810182858560051b8401019601946000925b858410611d17575050505050505090565b909192939495968580600192603f198582030187528a5190848060a01b038251168152611d508383015160a08086850152830190611be0565b918781015188830152606080820151151590830152608080910151910152990194019401929594939190611d06565b6001546001600160a01b03163303611d9357565b60405163118cdaa760e01b8152336004820152602490fd5b6000198114611dba5760010190565b634e487b7160e01b600052601160045260246000fd5b15611dd757565b60405162461bcd60e51b815260206004820152601b60248201527f4c6f6f7046693a2055736572206e6f74207265676973746572656400000000006044820152606490fd5b91908201809211611dba57565b15611e3057565b60405162461bcd60e51b8152602060048201526014602482015273098dedee08cd2744082a0b240e8dede40d0d2ced60631b6044820152606490fd5b15611e7357565b60405162461bcd60e51b815260206004820152601e60248201527f4c6f6f7046693a20496e76616c6964207969656c6420737472617465677900006044820152606490fd5b67ffffffffffffffff8111611ac95760051b60200190565b90604051611edd81611afc565b82546001600160a01b03168152918290608090600490611eff60018201611b3a565b60208501526002810154604085015260ff600382015416151560608501520154910152565b90611f2e82611eb8565b604090611f3d82519182611b18565b8381528093611f4e601f1991611eb8565b019160005b838110611f605750505050565b6020908251611f6e81611afc565b600081526060600084918083850152818785015283015260006080830152828601015201611f53565b8051821015611a655760209160051b01019056fea2646970667358221220d9a3c18da50656a2f168edeea2619b0b5b8b7b1d453c604d98beaa77978da61764736f6c634300081400336080346200011a57601f6200242238819003918201601f19168301916001600160401b038311848410176200011f578084926060946040528339810103126200011a576200004d8162000135565b620000696040620000616020850162000135565b930162000135565b90600160005533156200010157600180546001600160a01b0319808216339081179093556040519590946001600160a01b0394909385938492919083167f8be0079c531659141344cd1fd0a4f28419497f9722a3daafe3b4186f6b6457e0600080a360016007556103e86008551685600554161760055516836006541617600655169060095416176009556122d790816200014b8239f35b604051631e4fbdf760e01b815260006004820152602490fd5b600080fd5b634e487b7160e01b600052604160045260246000fd5b51906001600160a01b03821682036200011a5756fe608080604052600436101561001357600080fd5b60003560e01c9081630455311114611c0b57508063068bcd8d14611b495780630c5e72c014610da45780631064aa5514611af057806318e5613114611ad25780631e67939e146119ff5780632d380cca146119875780633dc55b711461136f5780634f1bfc9e14611350578063506f7f5e14610f6157806361d027b314610f3857806362d4f29a14610f1c578063715018a614610ebf57806378b4330f14610ea15780637d29391614610e7e5780637dbb687614610e605780637f51bb1f14610dc75780637fea355b14610da95780637fee9d2614610da45780638161d781146108cc5780638da5cb5b146108a35780639816af581461081f578063ac4afa3814610779578063b1219e73146106a1578063b73238811461067c578063bbef6f9014610624578063c59d484714610527578063cae07843146104fe578063d9a67220146104e2578063e22d551a146104b9578063ea0e35b11461049d578063f2b907d314610292578063f2fde38b146102095763fae728cd1461019557600080fd5b34610204576020366003190112610204576004356101b1611ef6565b6107d081116101bf57600855005b60405162461bcd60e51b815260206004820152601760248201527f47726f7570506f6f6c3a2041505920746f6f20686967680000000000000000006044820152606490fd5b600080fd5b3461020457602036600319011261020457610222611d0f565b61022a611ef6565b6001600160a01b0390811690811561027957600154826001600160601b0360a01b821617600155167f8be0079c531659141344cd1fd0a4f28419497f9722a3daafe3b4186f6b6457e0600080a3005b604051631e4fbdf760e01b815260006004820152602490fd5b34610204576060366003190112610204576004356024356102b1611e07565b9082151580610492575b6102c490611f73565b82600052602090600282526102e660ff600b6040600020015460081c16611fbf565b836000526002825261030360ff600b60406000200154161561200b565b61030b6121a0565b836000526002825260406000203360005260108101835261033360ff604060002054166121c3565b61033e821515612061565b600581019261034e838554611f31565b946103606004840196875410156120be565b15610480576006546001600160a01b0316905b6040516323b872dd60e01b815233600482015230602482015260448101859052918190839060649082906000906001600160a01b03165af180156104745787936103e9600f927f0a4a91237423e0a1766a761c7cb029311d8b95d6b1b81db1b949a70c98b4e08e95600091610447575b50612121565b336000520181526040600020610400858254611f31565b905561040d848654611f31565b855561041b84600b54611f31565b600b556040519384523393a35490541115610438575b6001600055005b6104419061221c565b80610431565b6104679150853d871161046d575b61045f8183611d8e565b810190612109565b8b6103e3565b503d610455565b6040513d6000823e3d90fd5b6005546001600160a01b031690610373565b5060075483106102bb565b3461020457600036600319011261020457602060405160328152f35b34610204576000366003190112610204576005546040516001600160a01b039091168152602090f35b3461020457600036600319011261020457602060405160028152f35b34610204576000366003190112610204576006546040516001600160a01b039091168152602090f35b3461020457600036600319011261020457600a54600b546005546040516370a0823160e01b80825230600483015293926020926001600160a01b03929084908290602490829087165afa9283156104745784916000946105f3575b50600654169560246040518098819382523060048301525afa928315610474576000936105c3575b6080955060405194855284015260408301526060820152f35b80935085813d83116105ec575b6105da8183611d8e565b810103126102045760809451926105aa565b503d6105d0565b8281939295503d831161061d575b61060b8183611d8e565b81010312610204578390519287610582565b503d610601565b346102045760403660031901126102045761063d611d0f565b6001600160a01b03166000908152600460205260409020805460243591908210156102045760209161066e91611d25565b90546040519160031b1c8152f35b3461020457600036600319011261020457602060405169021e19e0c9bab24000008152f35b3461020457602080600319360112610204576004358015158061076e575b6106c890611f73565b60005260028152600e60406000200160405190818382549182815201908192600052846000209060005b8682821061075157868661070882880383611d8e565b604051928392818401908285525180915260408401929160005b82811061073157505050500390f35b83516001600160a01b031685528695509381019392810192600101610722565b83546001600160a01b0316855290930192600192830192016106f2565b5060075481106106bf565b3461020457602036600319011261020457600435600052600260205260406000208054600160a01b60019003600183015416600283016107b890611e50565b916107c560038501611e50565b93600481015491600582015490600683015460078401546008850154600986015491600a87015493600b88015496600c89015498600d0154996040519d8e9d8e9d8b60081c60ff169b60ff169a61081b9f611c66565b0390f35b3461020457602080600319360112610204576001600160a01b03610841611d0f565b1660005260038152604060002090604051908181845491828152019360005281600020916000905b82821061088c5761081b8561088081890382611d8e565b60405191829182611d53565b835486529485019460019384019390910190610869565b34610204576000366003190112610204576001546040516001600160a01b039091168152602090f35b34610204576080366003190112610204576108e5611e07565b6064356001600160a01b038116900361020457600435151580610d97575b61090c90611f73565b600435600052600260205261092e60ff600b6040600020015460081c16611fbf565b600435600052600260205261094e60ff600b60406000200154161561200b565b6109566121a0565b6004356000526002602052604060002090336000526010820160205260ff60406000205416610d5257600782015460068301541115610d0d5761099c6024351515612061565b6109bb6109af6024356005850154611f31565b600484015410156120be565b15610cfc576006546001600160a01b03165b6040516323b872dd60e01b81523360048201523060248083019190915235604482015260208160648160006001600160a01b0387165af1801561047457610a1b91600091610cdd5750612121565b600e820154600160401b811015610cc757806001610a429201600e850155600e8401611d25565b81549060031b9033821b9160018060a01b03901b191617905533600052601082016020526040600020600160ff19825416179055600f8201602052602435604060002055610a936007830154611f22565b6007830155610aa86024356005840154611f31565b6005830155610abb602435600b54611f31565b600b55336000526003602052610ad76004356040600020611f3e565b604051602435815233907ff4f82575ee84a81aac4be52b6a368e9ba9df524b4f5cf8177d7cfbabe861820c602060043592a36064356001600160a01b0316151580610ca1575b80610c8c575b610b50575b50600460058201549101541115610b40576001600055005b610b4b60043561221c565b610431565b6064602435026024358104606414602435151715610c765761271090049081610b7a575b50610b28565b60405163a9059cbb60e01b81526001600160a01b0360643516600482015260248101839052906020908290816000816044810103926001600160a01b03165af190811561047457600091610c57575b5015610c13576040519081526064356001600160a01b031690600435907fe0570289ea25f3ae6cf39fb322bd2ba4e8f84491cad47be0ca30085550b80c8f90602090a38180610b74565b606460405162461bcd60e51b815260206004820152602060248201527f47726f7570506f6f6c3a20526566657272616c20626f6e7573206661696c65646044820152fd5b610c70915060203d60201161046d5761045f8183611d8e565b83610bc9565b634e487b7160e01b600052601160045260246000fd5b506064356001600160a01b0316331415610b23565b506064356001600160a01b0316600090815260108301602052604090205460ff16610b1d565b634e487b7160e01b600052604160045260246000fd5b610cf6915060203d60201161046d5761045f8183611d8e565b846103e3565b6005546001600160a01b03166109cd565b60405162461bcd60e51b815260206004820152601760248201527f47726f7570506f6f6c3a20506f6f6c2069732066756c6c0000000000000000006044820152606490fd5b60405162461bcd60e51b815260206004820152601b60248201527f47726f7570506f6f6c3a20416c72656164792061206d656d62657200000000006044820152606490fd5b5060075460043510610903565b611cf3565b34610204576000366003190112610204576020600b54604051908152f35b3461020457602036600319011261020457610de0611d0f565b610de8611ef6565b6001600160a01b03168015610e0f576001600160601b0360a01b6009541617600955600080f35b60405162461bcd60e51b815260206004820152602360248201527f47726f7570506f6f6c3a20496e76616c6964207472656173757279206164647260448201526265737360e81b6064820152608490fd5b34610204576000366003190112610204576020600a54604051908152f35b3461020457600036600319011261020457602060405167016345785d8a00008152f35b3461020457600036600319011261020457602060405162093a808152f35b3461020457600036600319011261020457610ed8611ef6565b600180546001600160a01b031981169091556000906001600160a01b03167f8be0079c531659141344cd1fd0a4f28419497f9722a3daafe3b4186f6b6457e08280a3005b3461020457600036600319011261020457602060405160648152f35b34610204576000366003190112610204576009546040516001600160a01b039091168152602090f35b346102045760403660031901126102045760043560249081359182151583036102045781151580611345575b610f9690611f73565b8160005260209060028252600a60406000200154421061130457610fb86121a0565b826000526002825260406000209033600052601082018352610fe160ff604060002054166121c3565b60118201903360005281845260ff604060002054166112c15760ff600b840154161561127e5733600052600f8301845260406000205492670de0b6b3a76400008085028581048214861517156112695761104361104d91600585015490612180565b600c84015461216d565b0460c8810281810460c814821517156112695760019161271061109b92049384600091858060a01b039586910154163314611261575b61109161109692938a611f31565b61220f565b611f31565b971561125557878180600654165b60405163a9059cbb60e01b80825233600483015260248201949094529116929088816044816000885af190811561047457600091611238575b50156111f45783611148575b89897f9f5926601e7fc353505f05fae61282ae5d67b716f95656849456e6aa7bbbbb5f8a6111358b8b3360005283526040600020600160ff19825416179055600b5461220f565b600b556040519384523393a36001600055005b600954604051928352166001600160a01b0316600482015260248101929092528590829060449082906000905af1908115610474576000916111d7575b501561119457808080806110ee565b83601e6064926040519262461bcd60e51b845260048401528201527f47726f7570506f6f6c3a20466565207472616e73666572206661696c656400006044820152fd5b6111ee9150853d871161046d5761045f8183611d8e565b87611185565b60405162461bcd60e51b815260048101899052601c818701527f47726f7570506f6f6c3a205769746864726177616c206661696c6564000000006044820152606490fd5b61124f9150893d8b1161046d5761045f8183611d8e565b8b6110e2565b878180600554166110a9565b905080611083565b83634e487b7160e01b60005260116004526000fd5b83601d6064926040519262461bcd60e51b845260048401528201527f47726f7570506f6f6c3a20506f6f6c206e6f7420636f6d706c657465640000006044820152fd5b83601c6064926040519262461bcd60e51b845260048401528201527f47726f7570506f6f6c3a20416c72656164792077697468647261776e000000006044820152fd5b6064916040519162461bcd60e51b83528160048401528201527f47726f7570506f6f6c3a204c6f636b20706572696f64206e6f7420656e6465646044820152fd5b506007548210610f8d565b346102045760003660031901126102045760206040516301e133808152f35b346102045760c03660031901126102045760043567ffffffffffffffff8111610204576113a0903690600401611db0565b60243567ffffffffffffffff8111610204576113c0903690600401611db0565b60a43580151503610204578151156119425760449167016345785d8a00008335106118fe5769021e19e0c9bab24000008335116118b05760026064351061186c576032606435116118285762093a80608435106117d9576301e133806084351161178b576007549161143183611f22565b60075582600052600260205260406000209083825560018201336001600160601b0360a01b825416179055825167ffffffffffffffff8111610cc75761147a6002840154611e16565b601f8111611744575b50806020601f82116001146116d7576000916116cc575b508160011b916000199060031b1c19161760028301555b80519067ffffffffffffffff8211610cc7576114d06003840154611e16565b601f8111611681575b50602090601f83116001146115ee577f80eb862b1ebf91ef46e8085c1e47b348af9ad8f1248fb18302612a57ad3a2b5594939291600091836115e3575b50508160011b916000199060031b1c19161760038201555b8435600482015560006005820155606435600682015560006007820155608435600882015542600982015561156560843542611f31565b600a820155600b810161010061ffff198254161790556000600c820155600d600854910155611595600a54611f22565b600a553360005260046020526115af836040600020611f3e565b6115c460405191608083526080830190611c26565b93356020820152606435604082015260843560608201528033940390a3005b015190508780611516565b906003840160005260206000209160005b601f198516811061166957509183916001937f80eb862b1ebf91ef46e8085c1e47b348af9ad8f1248fb18302612a57ad3a2b55979695601f19811610611650575b505050811b01600382015561152e565b015160001960f88460031b161c19169055878080611640565b919260206001819286850151815501940192016115ff565b600384016000526020600020601f840160051c810191602085106116c2575b601f0160051c01905b8181106116b657506114d9565b600081556001016116a9565b90915081906116a0565b90508401518761149a565b91506002840160005260206000206000925b601f198316841061172c576001935082601f19811610611713575b5050811b0160028301556114b1565b86015160001960f88460031b161c191690558780611704565b868101518255602093840193600190920191016116e9565b600284016000526020600020601f830160051c810160208410611784575b601f830160051c82018110611778575050611483565b60008155600101611762565b5080611762565b60405162461bcd60e51b815260206004820152602160248201527f47726f7570506f6f6c3a204c6f636b206475726174696f6e20746f6f206c6f6e81850152606760f81b6064820152608490fd5b60405162461bcd60e51b815260206004820152602260248201527f47726f7570506f6f6c3a204c6f636b206475726174696f6e20746f6f2073686f81850152611c9d60f21b6064820152608490fd5b60405162461bcd60e51b815260206004820152601b60248201527f47726f7570506f6f6c3a20546f6f206d616e79206d656d62657273000000000081850152606490fd5b60405162461bcd60e51b815260206004820152601a60248201527f47726f7570506f6f6c3a20546f6f20666577206d656d6265727300000000000081850152606490fd5b60405162461bcd60e51b815260206004820152602160248201527f47726f7570506f6f6c3a2054617267657420616d6f756e7420746f6f2068696781850152600d60fb1b6064820152608490fd5b60405162461bcd60e51b815260206004820181905260248201527f47726f7570506f6f6c3a2054617267657420616d6f756e7420746f6f206c6f7781850152606490fd5b60405162461bcd60e51b815260206004820152601860248201527f47726f7570506f6f6c3a204e616d6520726571756972656400000000000000006044820152606490fd5b3461020457602080600319360112610204576001600160a01b036119a9611d0f565b1660005260048152604060002090604051908181845491828152019360005281600020916000905b8282106119e85761081b8561088081890382611d8e565b8354865294850194600193840193909101906119d1565b34610204576040366003190112610204576024356001600160a01b03811690600435908290036102045780151580611ac7575b611a3b90611f73565b600052600260205260406000209080600052600f8201602052604060002054906005830154801515600014611ab957670de0b6b3a764000093848402948486041484151715610c7657611a92601192606096612180565b925b6000520160205260ff6040600020541690604051928352602083015215156040820152f35b506011606093600092611a94565b506007548110611a32565b34610204576000366003190112610204576020600754604051908152f35b3461020457604036600319011261020457611b09611d0f565b6001600160a01b031660009081526003602052604090208054602435919082101561020457602091611b3a91611d25565b90549060031b1c604051908152f35b346102045760203660031901126102045760043580151580611c00575b611b6f90611f73565b60005260026020526040600020805490600160a01b6001900360018201541660048201549260058301549060068401549060078501549060088601546009870154600a88015491600b89015494600c8a015496600d8b01549860028c01611bd590611e50565b9b600301611be290611e50565b9c6040519d8e9d8e9d8b60081c60ff169b60ff169a61081b9f611c66565b506007548110611b66565b34610204576000366003190112610204576020906008548152f35b919082519283825260005b848110611c52575050826000602080949584010152601f8019910116010190565b602081830181015184830182015201611c31565b9b989592949f9e9d9a9794611ca4908d6101c09f9c999693611cb295602091835260018060a01b03169101528d6101e0908160408201520190611c26565b8c810360608e015290611c26565b9d60808b015260a08a015260c089015260e0880152610100870152610120860152610140850152151561016084015215156101808301526101a08201520152565b3461020457600036600319011261020457602060405160c88152f35b600435906001600160a01b038216820361020457565b8054821015611d3d5760005260206000200190600090565b634e487b7160e01b600052603260045260246000fd5b6020908160408183019282815285518094520193019160005b828110611d7a575050505090565b835185529381019392810192600101611d6c565b90601f8019910116810190811067ffffffffffffffff821117610cc757604052565b81601f820112156102045780359067ffffffffffffffff8211610cc75760405192611de5601f8401601f191660200185611d8e565b8284526020838301011161020457816000926020809301838601378301015290565b60443590811515820361020457565b90600182811c92168015611e46575b6020831014611e3057565b634e487b7160e01b600052602260045260246000fd5b91607f1691611e25565b9060405191826000825492611e6484611e16565b908184526001948581169081600014611ed35750600114611e90575b5050611e8e92500383611d8e565b565b9093915060005260209081600020936000915b818310611ebb575050611e8e93508201013880611e80565b85548884018501529485019487945091830191611ea3565b915050611e8e94506020925060ff191682840152151560051b8201013880611e80565b6001546001600160a01b03163303611f0a57565b60405163118cdaa760e01b8152336004820152602490fd5b6000198114610c765760010190565b91908201809211610c7657565b8054600160401b811015610cc757611f5b91600182018155611d25565b819291549060031b91821b91600019901b1916179055565b15611f7a57565b60405162461bcd60e51b815260206004820152601e60248201527f47726f7570506f6f6c3a20506f6f6c20646f6573206e6f7420657869737400006044820152606490fd5b15611fc657565b60405162461bcd60e51b815260206004820152601a60248201527f47726f7570506f6f6c3a20506f6f6c206e6f74206163746976650000000000006044820152606490fd5b1561201257565b60405162461bcd60e51b815260206004820152602160248201527f47726f7570506f6f6c3a20506f6f6c20616c726561647920636f6d706c6574656044820152601960fa1b6064820152608490fd5b1561206857565b60405162461bcd60e51b815260206004820152602860248201527f47726f7570506f6f6c3a20416d6f756e74206d75737420626520677265617465604482015267072207468616e20360c41b6064820152608490fd5b156120c557565b606460405162461bcd60e51b815260206004820152602060248201527f47726f7570506f6f6c3a20457863656564732074617267657420616d6f756e746044820152fd5b90816020910312610204575180151581036102045790565b1561212857565b60405162461bcd60e51b815260206004820152601a60248201527f47726f7570506f6f6c3a205472616e73666572206661696c65640000000000006044820152606490fd5b81810292918115918404141715610c7657565b811561218a570490565b634e487b7160e01b600052601260045260246000fd5b6002600054146121b1576002600055565b604051633ee5aeb560e01b8152600490fd5b156121ca57565b60405162461bcd60e51b815260206004820152601760248201527f47726f7570506f6f6c3a204e6f742061206d656d6265720000000000000000006044820152606490fd5b91908203918211610c7657565b8060005260026020527f88d91b760dadb6520acbf85b0c896f73884d30ab8e465c348c74f093ef57eb3d604080600020600b8101600160ff19825416179055600c61226b60098301544261220f565b9164496cebb80061228e600583015494612289600d8501548761216d565b61216d565b04918291015582519182526020820152a256fea2646970667358221220fd5d7b5e9a6734555b9a47935b42e05e376ce32c569042ee3f35a2468779c03364736f6c63430008140033608034620006a2576040906001600160401b03818301818111838210176200068c5783526015825260207f4c6f6f70466920536176696e677320426164676573000000000000000000000081840152835191848301838110828211176200068c57855260088352674c5046424144474560c01b828401528351938185116200068c5760009480620000918754620006a7565b92601f938481116200065c575b508590848311600114620005f4578892620005e8575b50508160011b916000199060031b1c19161785555b8351918211620005d4578190600194620000e48654620006a7565b82811162000599575b50849183116001146200053557869262000529575b5050600019600383901b1c191690831b1782555b3315620005115760078054336001600160a01b031982168117909255683635c9adc5dea0000094869490939092600e926001600160a01b03167f8be0079c531659141344cd1fd0a4f28419497f9722a3daafe3b4186f6b6457e08680a38260085582600c55828452600d8082528585206200019d620001968254620006a7565b82620006fd565b6055815585526930b93a32b9173539b7b760b11b848387207f68747470733a2f2f6170692e6c6f6f7066692e6170702f6261646765732f73748155015560028552808252858520620001f4620001968254620006a7565b605b815585526c3739b4b9ba32b73a173539b7b760991b848387207f68747470733a2f2f6170692e6c6f6f7066692e6170702f6261646765732f636f81550155600385528082528585206200024e620001968254620006a7565b6059815585526b3234b1b0ba32b2173539b7b760a11b848387207f68747470733a2f2f6170692e6c6f6f7066692e6170702f6261646765732f64658155015560048552808252858520620002a7620001968254620006a7565b6053815585526839ba32b9173539b7b760b91b848387207f68747470733a2f2f6170692e6c6f6f7066692e6170702f6261646765732f6d618155015560058552808252858520620002fd620001968254620006a7565b6053815585526833b2b732173539b7b760b91b848387207f68747470733a2f2f6170692e6c6f6f7066692e6170702f6261646765732f6c65815501556006855280825285852062000353620001968254620006a7565b605f815585526e37bab816b632b0b232b9173539b7b760891b848387207f68747470733a2f2f6170692e6c6f6f7066692e6170702f6261646765732f67728155015560078552808252858520620003af620001968254620006a7565b605f815585526e31b4b0b616b9b0bb32b9173539b7b760891b848387207f68747470733a2f2f6170692e6c6f6f7066692e6170702f6261646765732f736f81550155600885528082528585206200040b620001968254620006a7565b605f815585526e32b63216b43ab73a32b9173539b7b760891b848387207f68747470733a2f2f6170692e6c6f6f7066692e6170702f6261646765732f79698155015560098552815284842062000466620001968254620006a7565b605d815584526d363634b7b730b4b932973539b7b760911b838286207f68747470733a2f2f6170692e6c6f6f7066692e6170702f6261646765732f6d698155015582845252828220556002815260058282205560038152600a8282205560048152601982822055600581526032828220556006815260058282205560078152600a828220556008815268056bc75e2d6310000082822055600981522055516127d090816200072e8239f35b8351631e4fbdf760e01b815260048101849052602490fd5b01519050388062000102565b8587528487208694509190601f198416885b8782821062000582575050841162000568575b505050811b01825562000116565b015160001960f88460031b161c191690553880806200055a565b838501518655899790950194938401930162000547565b620005c3908789528689208480870160051c820192898810620005ca575b0160051c0190620006e4565b38620000ed565b92508192620005b7565b634e487b7160e01b85526041600452602485fd5b015190503880620000b4565b8880528689209250601f198416895b88828210620006455750509084600195949392106200062b575b505050811b018555620000c9565b015160001960f88460031b161c191690553880806200061d565b600185968293968601518155019501930162000603565b6200068590898052878a208680860160051c8201928a8710620005ca570160051c0190620006e4565b386200009e565b634e487b7160e01b600052604160045260246000fd5b600080fd5b90600182811c92168015620006d9575b6020831014620006c357565b634e487b7160e01b600052602260045260246000fd5b91607f1691620006b7565b818110620006f0575050565b60008155600101620006e4565b90601f81116200070b575050565b6200072b916000526002601f6020600020920160051c82019101620006e4565b56fe6080604052600436101561001257600080fd5b60003560e01c806301874ed31461148057806301ffc9a7146113f857806306fdde0314611355578063081812fc14611317578063095ea7b31461123057806323b872dd1461121957806332cb6b0c146111fc57806337c245fe146110785780633af0c68814610e7157806342842e0e1461104a5780635f710f5c146110285780636352211e14610ff857806366e9082d14610fcf57806370a0823114610f76578063715018a614610f19578063831d147b14610ee4578063842392c214610eaf5780638b93bf1814610e715780638da5cb5b14610e4857806392ddf23c14610d9457806393aaf6a814610d6b57806395d89b4114610c8c578063a22cb46514610be7578063b88d4fde14610b7a578063c87b56dd14610b21578063cc17e15d14610ac9578063e2045b5e146109a0578063e2d52e1d14610930578063e351d43714610296578063e635ae7514610265578063e985e9c51461020f5763f2fde38b1461017c57600080fd5b3461020a57602036600319011261020a5761019561194b565b61019d611c49565b6001600160a01b039081169081156101f157600754826bffffffffffffffffffffffff60a01b821617600755167f8be0079c531659141344cd1fd0a4f28419497f9722a3daafe3b4186f6b6457e0600080a3005b604051631e4fbdf760e01b815260006004820152602490fd5b600080fd5b3461020a57604036600319011261020a5761022861194b565b610230611961565b9060018060a01b03809116600052600560205260406000209116600052602052602060ff604060002054166040519015158152f35b3461020a57602036600319011261020a57600435600a81101561020a5761028d602091611b0a565b54604051908152f35b3461020a57608036600319011261020a576102af61194b565b600a602435101561020a576064356001600160401b03811161020a576102d9903690600401611a3b565b906102f560018060a01b03600754163314801561092b57611f84565b6102fd6121d1565b602435156108da5760018060a01b038116600052600a60205260ff6103286024356040600020611b23565b541661088957600c5491612710831161083857610354610349602435611b0a565b546044351015611fd0565b61035d8361202b565b600c5560405161036c81611977565b61037860243582612050565b6044356020820152426040820152816060820152836000526009602052604060002090805190600a8210156108225760609160ff80198554169116178355602081015160018401556040810151600284015501518051906001600160401b03821161074b576103ea6003840154611b3b565b601f81116107db575b50602090601f831160011461076c576003929160009183610761575b50508160011b9160001990841b1c1916179101555b60018060a01b038216600052600a6020526104456024356040600020611b23565b805460ff191660011790556001600160a01b0382166000908152600b6020526040902080546801000000000000000081101561074b5761048a91600182018155611c1b565b9080549160031b600019928387831b921b1916179055604051906104ad82611992565b600082526001600160a01b03841615610732576000858152600260205260409020546001600160a01b031680151591869190836106fc575b506001600160a01b0386166000818152600360209081526040808320805460010190558583526002909152812080546001600160a01b031916831790559091907fddf252ad1be2c89b69c2b068fc378daa952ba7f163c4a11628f55a4df523b3ef9080a46106e357823b6105ab575b5061055f908361205c565b7ff6b70dedb47bc6e8680e80b2d7055aedd55e5598da29758ae2b17b4b13342239604080519261059184602435611ace565b60443560208501526001600160a01b031692a36001600855005b604051602081806105e5630a85bd0160e11b9586835233600484015260006024840152896044840152608060648401526084830190611a59565b038160006001600160a01b0389165af16000918161069e575b5061066657833d1561065e573d90610615826119e9565b9161062360405193846119c8565b82523d6000602084013e5b8151918261065757604051633250574960e11b81526001600160a01b0383166004820152602490fd5b6020915001fd5b60609061062e565b6001600160e01b0319160361067d5761055f610554565b604051633250574960e11b81526001600160a01b0383166004820152602490fd5b9091506020813d6020116106db575b816106ba602093836119c8565b8101031261020a57516001600160e01b03198116810361020a5790866105fe565b3d91506106ad565b6040516339e3563760e11b815260006004820152602490fd5b600083815260046020526040902080546001600160a01b03191690558160005260036020526040600020908154019055876104e5565b604051633250574960e11b815260006004820152602490fd5b634e487b7160e01b600052604160045260246000fd5b01519050878061040f565b906003840160005260206000209160005b601f19851681106107c35750918391600193600395601f198116106107ab575b505050811b01910155610424565b015160001983861b60f8161c1916905587808061079d565b9192602060018192868501518155019401920161077d565b600384016000526020600020601f840160051c81016020851061081b575b601f830160051c8201811061080f5750506103f3565b600081556001016107f9565b50806107f9565b634e487b7160e01b600052602160045260246000fd5b60405162461bcd60e51b815260206004820152602360248201527f536176696e677342616467654e46543a204d617820737570706c7920726561636044820152621a195960ea1b6064820152608490fd5b60405162461bcd60e51b8152602060048201526024808201527f536176696e677342616467654e46543a20426164676520616c7265616479206f6044820152631ddb995960e21b6064820152608490fd5b60405162461bcd60e51b815260206004820152602360248201527f536176696e677342616467654e46543a20496e76616c6964206261646765207460448201526279706560e81b6064820152608490fd5b611f84565b3461020a57602036600319011261020a576004356000526009602052610981604060002061099c60ff82541691600181015490610974600360028301549201611b75565b9160405195868096611ace565b60208501526040840152608060608401526080830190611a59565b0390f35b3461020a5760208060031936011261020a576004356060806040516109c481611977565b6000808252858201819052604082015201526001600160a01b036109e782611dfb565b1615610a76576000526009815260406000209061099c60405192610a0a84611977565b610a1860ff82541685612050565b600181015490838501918252610a3c60036002830154926040880193845201611b75565b9160608601928352610a5960405196868897885287019051611ace565b5160408501525160608401525160808084015260a0830190611a59565b60405162461bcd60e51b815260048101839052602560248201527f536176696e677342616467654e46543a20546f6b656e20646f6573206e6f7420604482015264195e1a5cdd60da1b6064820152608490fd5b3461020a57604036600319011261020a57610ae261194b565b6001600160a01b03166000908152600b602052604090208054602435919082101561020a57602091610b1391611c1b565b90546040519160031b1c8152f35b3461020a57602036600319011261020a57600435610b3e81611dfb565b50600052600660205261099c610b576040600020611b75565b6000604051610b6581611992565b52604051918291602083526020830190611a59565b3461020a57608036600319011261020a57610b9361194b565b610b9b611961565b90604435606435926001600160401b03841161020a573660238501121561020a57610bd3610be5943690602481600401359101611a04565b92610bdf838383611c75565b33611e36565b005b3461020a57604036600319011261020a57610c0061194b565b6024359081151580920361020a576001600160a01b0316908115610c7357336000526005602052604060002082600052602052604060002060ff1981541660ff83161790556040519081527f17307eab39ab6107e8899845ad3d59bd9653f200f220920489ca2b5937696c3160203392a3005b604051630b61174360e31b815260048101839052602490fd5b3461020a57600036600319011261020a5760405160006001805490610cb082611b3b565b80855291818116908115610d445750600114610ceb575b61099c84610cd7818603826119c8565b604051918291602083526020830190611a59565b600081815292507fb10e2d527612073b26eecdfd717e6a320cf44b4afac2b0732d9fcbe2b7fa0cf65b828410610d2c575050508101602001610cd782610cc7565b80546020858701810191909152909301928101610d14565b60ff191660208087019190915292151560051b85019092019250610cd79150839050610cc7565b3461020a57602036600319011261020a57600435600a81101561020a57610cd761099c91612415565b3461020a5760208060031936011261020a576001600160a01b03610db661194b565b16600052600b8152604060002060405190818382549182815201908192600052846000209060005b86828210610e34578686610df4828803836119c8565b604051928392818401908285525180915260408401929160005b828110610e1d57505050500390f35b835185528695509381019392810192600101610e0e565b835485529093019260019283019201610dde565b3461020a57600036600319011261020a576007546040516001600160a01b039091168152602090f35b3461020a57602060ff610ea3610e8636611adb565b6001600160a01b039091166000908152600a855260409020611b23565b54166040519015158152f35b3461020a57602036600319011261020a576020610eca61194b565b6007546040516001600160a01b0392831691909216148152f35b3461020a57602036600319011261020a57600435600a81101561020a57600052600d60205261099c610cd76040600020611b75565b3461020a57600036600319011261020a57610f32611c49565b600780546001600160a01b031981169091556000906001600160a01b03167f8be0079c531659141344cd1fd0a4f28419497f9722a3daafe3b4186f6b6457e08280a3005b3461020a57602036600319011261020a576001600160a01b03610f9761194b565b168015610fb65760005260036020526020604060002054604051908152f35b6040516322718ad960e21b815260006004820152602490fd5b3461020a57602036600319011261020a57600435600a81101561020a57610cd761099c9161221f565b3461020a57602036600319011261020a576020611016600435611dfb565b6040516001600160a01b039091168152f35b3461020a57602036600319011261020a5761104161194b565b50610be5611c49565b3461020a57610be561105b36611a99565b906040519261106984611992565b60008452610bdf838383611c75565b3461020a5760208060031936011261020a5761109261194b565b9060405161016081018181106001600160401b0382111761074b57604093919352600a9182845261014036828601376000926001926001600160a01b0316835b8281111561119e5750506110e5846121f4565b936110f360405195866119c8565b8085526110ff816121f4565b8584019690601f190136883760005b82811061115e575050505060405192818401908285525180915260408401949160005b82811061113e5785870386f35b90919293828088611151849a8951611ace565b0197950193929101611131565b61116e818399979998969861220b565b5190848210156108225761118e61119392611189838961220b565b612050565b61202b565b96949695939561110e565b82819795979694961015610822578160005282865260ff6111c3826040600020611b23565b54166111de575b6111d39061202b565b9593959492946110d2565b926111f48161118e866111896111d3958a61220b565b9390506111ca565b3461020a57600036600319011261020a5760206040516127108152f35b3461020a57610be561122a36611a99565b91611c75565b3461020a57604036600319011261020a5761124961194b565b60243561125581611dfb565b33151580611304575b806112d7575b6112bf576001600160a01b039283169282918491167f8c5be1e5ebec7d5bd14f71427d1e84f3dd0314c0f7b2291e5b200ac8c7c3b925600080a4600090815260046020526040902080546001600160a01b0319169091179055005b60405163a9fbf51f60e01b8152336004820152602490fd5b5060018060a01b038116600052600560205260406000203360005260205260ff6040600020541615611264565b506001600160a01b03811633141561125e565b3461020a57602036600319011261020a5760043561133481611dfb565b506000526004602052602060018060a01b0360406000205416604051908152f35b3461020a57600036600319011261020a576040516000805461137681611b3b565b80845290600190818116908115610d44575060011461139f5761099c84610cd7818603826119c8565b600080805292507f290decd9548b62a8d60345a988386fc84ba6bc95484008f6362f93160ef3e5635b8284106113e0575050508101602001610cd782610cc7565b805460208587018101919091529093019281016113c8565b3461020a57602036600319011261020a5760043563ffffffff60e01b811680910361020a57602090632483248360e11b811490811561143d575b506040519015158152f35b6380ac58cd60e01b81149150811561146f575b811561145e575b5082611432565b6301ffc9a760e01b14905082611457565b635b5e139f60e01b81149150611450565b3461020a5760a036600319011261020a5761149961194b565b600a602435101561020a576044600a8135101561020a576064918235906084356001600160401b03811161020a576114d5903690600401611a3b565b6007546001600160a01b0393906114f59085163314801561092b57611f84565b6114fd6121d1565b602435156118f8578435156118a557838316600052600a60205260ff6115296024356040600020611b23565b54161561185657838316600052600a60205260ff61154c86356040600020611b23565b54166118025761156861155f8635611b0a565b54821015611fd0565b611574602435846126b0565b9586156117c157506040519061158982611977565b611594863583612050565b6020820190815260408201428152606083019184835288600052600960205260406000209351600a8110156108225760ff80198654169116178455516001840155516002830155518051906001600160401b03821161074b576115fa6003840154611b3b565b601f8111611776575b50602090601f83116001146116dd57926003836116ab947f9646b9e2ccd35c2c07eb1846f9957def62d7ab5eb71ae4b72ba4221894e61e2b999794604099976000926116d2575b50508160011b9160001990841b1c1916179101555b838316600052600a60205261167960243586600020611b23565b60ff198154169055838316600052600a60205261169a873586600020611b23565b805460ff191660011790558761205c565b6116c88351956116bd87602435611ace565b602087019035611ace565b1692a36001600855005b015190508c8061164a565b906003840160005260206000209160005b601f198516811061175e57506001847f9646b9e2ccd35c2c07eb1846f9957def62d7ab5eb71ae4b72ba4221894e61e2b99979460409997946003946116ab98601f19811610611746575b505050811b0191015561165f565b015160001983861b60f8161c191690558c8080611738565b919260206001819286850151815501940192016116ee565b600384016000526020600020601f840160051c810191602085106117b7575b601f0160051c01905b8181106117ab5750611603565b6000815560010161179e565b9091508190611795565b60405162461bcd60e51b815260206004820181905260248201527f536176696e677342616467654e46543a20546f6b656e206e6f7420666f756e6481880152fd5b60405162461bcd60e51b815260206004820152602860248201527f536176696e677342616467654e46543a204e657720626164676520616c7265618187015267191e481bdddb995960c21b81880152608490fd5b60405162461bcd60e51b8152602060048201526024808201527f536176696e677342616467654e46543a204f6c64206261646765206e6f74206f81870152631ddb995960e21b81880152608490fd5b60405162461bcd60e51b815260206004820152602760248201527f536176696e677342616467654e46543a20496e76616c6964206e65772062616481870152666765207479706560c81b81880152608490fd5b60405162461bcd60e51b815260206004820152602760248201527f536176696e677342616467654e46543a20496e76616c6964206f6c642062616481870152666765207479706560c81b81880152608490fd5b600435906001600160a01b038216820361020a57565b602435906001600160a01b038216820361020a57565b608081019081106001600160401b0382111761074b57604052565b602081019081106001600160401b0382111761074b57604052565b604081019081106001600160401b0382111761074b57604052565b90601f801991011681019081106001600160401b0382111761074b57604052565b6001600160401b03811161074b57601f01601f191660200190565b929192611a10826119e9565b91611a1e60405193846119c8565b82948184528183011161020a578281602093846000960137010152565b9080601f8301121561020a57816020611a5693359101611a04565b90565b919082519283825260005b848110611a85575050826000602080949584010152601f8019910116010190565b602081830181015184830182015201611a64565b606090600319011261020a576001600160a01b0390600435828116810361020a5791602435908116810361020a579060443590565b90600a8210156108225752565b604090600319011261020a576004356001600160a01b038116810361020a5790602435600a81101561020a5790565b600a81101561082257600052600e602052604060002090565b90600a81101561082257600052602052604060002090565b90600182811c92168015611b6b575b6020831014611b5557565b634e487b7160e01b600052602260045260246000fd5b91607f1691611b4a565b9060405191826000825492611b8984611b3b565b908184526001948581169081600014611bf85750600114611bb5575b5050611bb3925003836119c8565b565b9093915060005260209081600020936000915b818310611be0575050611bb393508201013880611ba5565b85548884018501529485019487945091830191611bc8565b915050611bb394506020925060ff191682840152151560051b8201013880611ba5565b8054821015611c335760005260206000200190600090565b634e487b7160e01b600052603260045260246000fd5b6007546001600160a01b03163303611c5d57565b60405163118cdaa760e01b8152336004820152602490fd5b6001600160a01b03918216929091831561073257600092828452826020956002875260409684888820541696879133151580611d65575b509060027fddf252ad1be2c89b69c2b068fc378daa952ba7f163c4a11628f55a4df523b3ef9284611d32575b858352600381528b8320805460010190558683525289812080546001600160a01b0319168517905580a41692838303611d115750505050565b6064945051926364283d7b60e01b8452600484015260248301526044820152fd5b600087815260046020526040902080546001600160a01b0319169055848352600381528b83208054600019019055611cd8565b91939450915080611dba575b15611d8157859291879138611cac565b878688611d9e576024915190637e27328960e01b82526004820152fd5b604491519063177e802f60e01b82523360048301526024820152fd5b503387148015611ddf575b80611d715750858252600481523385898420541614611d71565b5086825260058152878220338352815260ff8883205416611dc5565b6000818152600260205260409020546001600160a01b0316908115611e1e575090565b60249060405190637e27328960e01b82526004820152fd5b90939192833b611e48575b5050505050565b604051630a85bd0160e11b8082526001600160a01b039384166004830152958316602482015260448101919091526080606482015294921692602092918590611e95906084830190611a59565b039483816000978189895af1869181611f40575b50611f0a575050503d600014611f01573d611ec3816119e9565b90611ed160405192836119c8565b81528093823d92013e5b82519283611efc57604051633250574960e11b815260048101849052602490fd5b019050fd5b60609250611edb565b919450915063ffffffff60e01b1603611f2857503880808080611e41565b60249060405190633250574960e11b82526004820152fd5b9091508481813d8311611f7d575b611f5881836119c8565b81010312611f7957516001600160e01b031981168103611f79579038611ea9565b8680fd5b503d611f4e565b15611f8b57565b60405162461bcd60e51b815260206004820152601f60248201527f536176696e677342616467654e46543a204e6f7420617574686f72697a6564006044820152606490fd5b15611fd757565b60405162461bcd60e51b815260206004820152602660248201527f536176696e677342616467654e46543a204d696c6573746f6e65206e6f742072604482015265195858da195960d21b6064820152608490fd5b600019811461203a5760010190565b634e487b7160e01b600052601160045260246000fd5b600a8210156108225752565b9190916000908082526020916006835260408120908551906001600160401b0382116121bd5761208c8354611b3b565b601f811161217a575b508490601f83116001146120f657907ff8e1a15aba9398e019f0b49df1a4fde98ee17ae345cb5f6b5e2c27f5033e8ce79697836120eb575b50508160011b916000199060031b1c19161790555b604051908152a1565b0151905038806120cd565b9196601f198816848452868420935b81811061216357509160019391897ff8e1a15aba9398e019f0b49df1a4fde98ee17ae345cb5f6b5e2c27f5033e8ce7999a941061214a575b505050811b0190556120e2565b015160001960f88460031b161c1916905538808061213d565b929387600181928786015181550195019301612105565b838252858220601f840160051c8101918785106121b3575b601f0160051c01905b8181106121a85750612095565b82815560010161219b565b9091508190612192565b634e487b7160e01b81526041600452602490fd5b6002600854146121e2576002600855565b604051633ee5aeb560e01b8152600490fd5b6001600160401b03811161074b5760051b60200190565b8051821015611c335760209160051b010190565b600a81101561082257600181146123eb57600281146123be576003811461239257600481146123695760058114612340576006811461231757600781146122ee57600881146122c5576009146122985760405161227b816119ad565b600d81526c556e6b6e6f776e20426164676560981b602082015290565b6040516122a4816119ad565b601181527026b4b63634b7b730b4b9329029b0bb32b960791b602082015290565b506040516122d2816119ad565b600c81526b2cb4b2b63210243ab73a32b960a11b602082015290565b506040516122fb816119ad565b600c81526b29b7b1b4b0b61029b0bb32b960a11b602082015290565b50604051612324816119ad565b600c81526b23b937bab8102632b0b232b960a11b602082015290565b5060405161234d816119ad565b600c81526b2632b3b2b7321029b0bb32b960a11b602082015290565b50604051612376816119ad565b600c81526b26b0b9ba32b91029b0bb32b960a11b602082015290565b5060405161239f816119ad565b600f81526e2232b234b1b0ba32b21029b0bb32b960891b602082015290565b506040516123cb816119ad565b601081526f21b7b739b4b9ba32b73a1029b0bb32b960811b602082015290565b506040516123f8816119ad565b600d81526c29ba30b93a32b91029b0bb32b960991b602082015290565b600a811015610822576001811461265b576002811461262157600381146125e757600481146125ad5760058114612573576006811461253957600781146124ff57600881146124c55760091461249457604051612471816119ad565b6013815272155b9adb9bdddb881858da1a595d995b595b9d606a1b602082015290565b6040516124a0816119ad565b601581527414d85d9959080c4c0c0c0810d15313c81d1bdd185b605a1b602082015290565b506040516124d2816119ad565b601881527f4561726e6564203130302043454c4f20696e207969656c640000000000000000602082015290565b5060405161250c816119ad565b601d81527f4a6f696e65642031302067726f757020736176696e677320706f6f6c73000000602082015290565b50604051612546816119ad565b601d81527f4372656174656420352067726f757020736176696e677320706f6f6c73000000602082015290565b50604051612580816119ad565b601a81527f436f6d706c6574656420353020736176696e677320676f616c73000000000000602082015290565b506040516125ba816119ad565b601a81527f436f6d706c6574656420323520736176696e677320676f616c73000000000000602082015290565b506040516125f4816119ad565b601a81527f436f6d706c6574656420313020736176696e677320676f616c73000000000000602082015290565b5060405161262e816119ad565b601981527f436f6d706c65746564203520736176696e677320676f616c7300000000000000602082015290565b50604051606081018181106001600160401b0382111761074b57604052602281527f436f6d706c6574656420796f757220666972737420736176696e677320676f616020820152616c2160f01b604082015290565b60009060018060a01b03168152602091600b8352604091828120928051808587829754938481520190855287852092855b89828210612784575050506126f8925003856119c8565b815b845181101561277b5761270d818661220b565b5183526009865260ff8284205416600a80861015612767578110156127535784146127405761273b9061202b565b6126fa565b939250505061274f925061220b565b5190565b634e487b7160e01b84526021600452602484fd5b634e487b7160e01b85526021600452602485fd5b50509250505090565b855484526001958601958a9550930192016126e156fea264697066735822122079dc9c64e3450b41477a3188f7ac04b6a3a115e22bcc1c9ead6780a6ea4c8d5164736f6c634300081400336080346200011557601f6200180238819003918201601f19168301916001600160401b038311848410176200011a5780849260609460405283398101031262000115576200004d8162000130565b620000696040620000616020850162000130565b930162000130565b9060016000553315620000fc57600180546001600160a01b0319808216339081179093556040519590946001600160a01b0394909385938492919083167f8be0079c531659141344cd1fd0a4f28419497f9722a3daafe3b4186f6b6457e0600080a36103526006551685600454161760045516836005541617600555169060075416176007556116bc9081620001468239f35b604051631e4fbdf760e01b815260006004820152602490fd5b600080fd5b634e487b7160e01b600052604160045260246000fd5b51906001600160a01b0382168203620001155756fe6080604081815260048036101561001557600080fd5b600092833560e01c90816304553111146114bf575080630c5e72c0146114a35780631a02859f146113fb5780631f6d28bc1461139a57806336f472ca1461137b5780634f1bfc9e1461135c5780635c12f0401461103a57806361d027b31461101157806370a6031114610d64578063715018a614610d0757806378b4330f14610ce95780637d29391614610cc75780637f51bb1f14610c255780637fea355b14610c065780638d017bb114610bc85780638da5cb5b14610b9f5780639a408321146108515780639db48bbb14610707578063a810a54c146103ca578063b7323881146103a6578063c59d484714610290578063cae0784314610263578063e22d551a1461023c578063f2fde38b146101aa5763fae728cd1461013657600080fd5b346101a65760203660031901126101a6578035916101526114ef565b6107d0831161016357505060065580f35b906020606492519162461bcd60e51b8352820152601960248201527f536176696e6773476f616c3a2041505920746f6f2068696768000000000000006044820152fd5b8280fd5b5090346101a65760203660031901126101a6576001600160a01b03823581811693919290849003610238576101dd6114ef565b8315610222575050600154826001600160601b0360a01b821617600155167f8be0079c531659141344cd1fd0a4f28419497f9722a3daafe3b4186f6b6457e08380a380f35b51631e4fbdf760e01b8152908101849052602490fd5b8480fd5b50346101a657826003193601126101a6575490516001600160a01b03909116815260209150f35b50503461028c578160031936011261028c5760055490516001600160a01b039091168152602090f35b5080fd5b5090346101a657826003193601126101a657600854916009549160018060a01b0392838354169382519384916370a0823160e01b96878452308385015283602460209586935afa95861561039c578996610366575b509060248392600554169786519889938492835230908301525afa94851561035c578795610325575b506080965082519586528501528301526060820152f35b9080955081813d8311610355575b61033d8183611609565b81010312610351576080965051933861030e565b8680fd5b503d610333565b83513d89823e3d90fd5b919095508282813d8311610395575b61037f8183611609565b810103126103915790519460246102e5565b8880fd5b503d610375565b85513d8b823e3d90fd5b50503461028c578160031936011261028c5760209051683635c9adc5dea000008152f35b5091903461028c576020806003193601126101a6576103e76114db565b91338452600382526103fe60ff828620541661153e565b338452600282526005818520015442106106b95761041a611643565b3384526002825280842094600686019060ff8254161561067657600287019661044a60078954920154809261151b565b9060c881029080820460c814901517156106635761271061046d91048092611666565b9515610653576005546001600160a01b03165b845163a9059cbb60e01b80825233858301908152602081018a90526001600160a01b039384169391929089908290819003604001818e885af1908115610649578b9161062c575b50156105e95783610522575b50505050506105087feaff4b37086828766ad3268786972c0cd24259d4c87a80f9d3963a3c3d999b0d94959654600954611666565b600955805461ff0019169055519283523392a26001815580f35b6007548751928352166001600160a01b03168482019081526020810193909352918691839182908b90829060400103925af19081156105df5787916105b2575b501561057157808080806104d3565b606490848085519262461bcd60e51b845283015260248201527f536176696e6773476f616c3a20466565207472616e73666572206661696c65646044820152fd5b6105d29150853d87116105d8575b6105ca8183611609565b81019061162b565b38610562565b503d6105c0565b84513d89823e3d90fd5b865162461bcd60e51b8152808601899052601e60248201527f536176696e6773476f616c3a205769746864726177616c206661696c656400006044820152606490fd5b6106439150893d8b116105d8576105ca8183611609565b386104c7565b88513d8d823e3d90fd5b81546001600160a01b0316610480565b634e487b7160e01b885260118352602488fd5b825162461bcd60e51b8152908101849052601f60248201527f536176696e6773476f616c3a20476f616c206e6f7420636f6d706c65746564006044820152606490fd5b5162461bcd60e51b815280850191909152602260248201527f536176696e6773476f616c3a204c6f636b20706572696f64206e6f7420656e64604482015261195960f21b6064820152608490fd5b50823461084e57602036600319011261084e576001600160a01b03928235848116908190036101a6576101409482805194610741866115d6565b80865280602087015280828701528060608701528060808701528060a08701528060c08701528060e087015261010093818588015281610120809801528152600260205220928051938492610795846115d6565b815416968784526001820154926020850193845260028301549181860192835260038401549060608701918252840154916080870192835260058501549360a088019485526006860154968b600860c08b019860ff8b1615158a5260ff60e08d019b831c1615158b528c60078201549c019b8c5201549b019a8b5282519c8d525160208d015251908b01525160608a01525160808901525160a088015251151560c087015251151560e086015251908401525190820152f35b80fd5b50346101a657816003193601126101a6578035916024918235938415158503610b9b573386526020936003855261088d60ff858920541661153e565b33875260029586865260ff6006868a20015416610b4d573388528686526108bf60ff6006878b20015460081c1661158a565b6108c7611643565b8215610af857338852868652848820918783019160016108e886855461151b565b940193845410610aab5715610a9757600554899088906001600160a01b03165b88516323b872dd60e01b8152338982015230858201526044810188905292839160649183916001600160a01b03165af1908115610a8d578a91610a70575b5015610a2f575061095883825461151b565b81556109668360095461151b565b6009555491845190815282868201527f0b05f0d1cd0819f155b8a61f60baf7767c1ee49d04aeaab701df236140eb93f9853392a25411156109aa575b846001815580f35b7f5fdb120e2225930f6b50914ed30f8f8b37a0a6c7b6df7b1f0f7f235791bfc3419260079133875285825264496cebb800610a156109fd868a209360068501600160ff1982541617905584015442611666565b9783015497610a1060088501548a611673565b611673565b04928391015582519485528401523392a2388080806109a2565b84601c6064928989519362461bcd60e51b85528401528201527f536176696e6773476f616c3a205472616e73666572206661696c6564000000006044820152fd5b610a879150883d8a116105d8576105ca8183611609565b38610946565b87513d8c823e3d90fd5b8454899088906001600160a01b0316610908565b865162461bcd60e51b81528087018990526022818401527f536176696e6773476f616c3a20457863656564732074617267657420616d6f756044820152611b9d60f21b6064820152608490fd5b845162461bcd60e51b8152808501879052602a818401527f536176696e6773476f616c3a20416d6f756e74206d75737420626520677265616044820152690746572207468616e20360b41b6064820152608490fd5b845162461bcd60e51b81528085018790526023818401527f536176696e6773476f616c3a20476f616c20616c726561647920636f6d706c656044820152621d195960ea1b6064820152608490fd5b8580fd5b50503461028c578160031936011261028c5760015490516001600160a01b039091168152602090f35b50346101a65760203660031901126101a657356001600160a01b038116908190036101a657818360ff92602095526003855220541690519015158152f35b50503461028c578160031936011261028c576020906009549051908152f35b50346101a65760203660031901126101a65780356001600160a01b0381169290839003610cc357610c546114ef565b8215610c725750506001600160601b0360a01b600754161760075580f35b906020608492519162461bcd60e51b8352820152602560248201527f536176696e6773476f616c3a20496e76616c6964207472656173757279206164604482015264647265737360d81b6064820152fd5b8380fd5b50503461028c578160031936011261028c5760209051662386f26fc100008152f35b50503461028c578160031936011261028c576020905162093a808152f35b833461084e578060031936011261084e57610d206114ef565b600180546001600160a01b0319811690915581906001600160a01b03167f8be0079c531659141344cd1fd0a4f28419497f9722a3daafe3b4186f6b6457e08280a380f35b5091903461028c57606036600319011261028c578235906024803590604490813580151503610b9b573386526020916003835260ff8588205416610fd257662386f26fc100008610610f8757683635c9adc5dea000008611610f3b5762093a808410610eef576301e133808411610ea3575033865260028252838620336001600160601b0360a01b8254161781558560018201558660028201558360038201554288820155610e13844261151b565b60058201556006808201805461ffff1916610100179055600782018890555460089182015533875260038352848720805460ff1916600117905554966000198814610e9257505060017f585021382a707927ff376ee2d95481c8ae02449a616bbff2c6d68fff56cfb15b9495960160085582519485528401523392a280f35b634e487b7160e01b87526011905285fd5b7f536176696e6773476f616c3a204c6f636b206475726174696f6e20746f6f206c906023899360849588519562461bcd60e51b8752860152840152820152626f6e6760e81b6064820152fd5b7f536176696e6773476f616c3a204c6f636b206475726174696f6e20746f6f207390889260849487519462461bcd60e51b865285015280840152820152631a1bdc9d60e21b6064820152fd5b7f536176696e6773476f616c3a2054617267657420616d6f756e7420746f6f2068906023899360849588519562461bcd60e51b8752860152840152820152620d2ced60eb1b6064820152fd5b7f536176696e6773476f616c3a2054617267657420616d6f756e7420746f6f206c906022899360849588519562461bcd60e51b8752860152840152820152616f7760f01b6064820152fd5b7f536176696e6773476f616c3a20476f616c20616c7265616479206578697374739083899360649588519562461bcd60e51b8752860152840152820152fd5b50503461028c578160031936011261028c5760075490516001600160a01b039091168152602090f35b5090346101a65760209081600319360112610cc3576110576114db565b923385526003835261106e60ff838720541661153e565b3385526002835261108a60ff6006848820015460081c1661158a565b611092611643565b3385526002835281852090600582015442101561130257600282019081546101f48082029082820414821517156112ef576127106110d291048092611666565b96156112df576005546001600160a01b03165b855163a9059cbb60e01b80825233858301908152602081018b90526001600160a01b03938416939192908a908290819003604001818f885af19081156112d5578c916112b8575b5015611264578a908461119d575b50897f5fafa99d0643513820be26656b45130b01e1c03062e1266bf36f88cbd3bd96958a8a60068b61116f8c54600954611666565b60095501805461ff00191690553380865260038352818620805460ff19169055905193845292a26001815580f35b60075489519384526001600160a01b039116168583019081526020810194909452909288928492918390036040019183915af190811561125a57889161123d575b50156111ee57808080898161113a565b835162461bcd60e51b81529081018590526024808201527f536176696e6773476f616c3a2050656e616c7479207472616e736665722066616044820152631a5b195960e21b6064820152608490fd5b6112549150863d88116105d8576105ca8183611609565b386111de565b85513d8a823e3d90fd5b875162461bcd60e51b81528086018a9052602860248201527f536176696e6773476f616c3a20456d657267656e6379207769746864726177616044820152671b0819985a5b195960c21b6064820152608490fd5b6112cf91508a3d8c116105d8576105ca8183611609565b3861112c565b89513d8e823e3d90fd5b81546001600160a01b03166110e5565b634e487b7160e01b895260118352602489fd5b825162461bcd60e51b8152908101849052602e60248201527f536176696e6773476f616c3a204c6f636b20706572696f6420656e6465642c2060448201526d757365207769746864726177282960901b6064820152608490fd5b50503461028c578160031936011261028c57602090516301e133808152f35b50503461028c578160031936011261028c576020906008549051908152f35b5082903461028c57602036600319011261028c57356001600160a01b038116929083900361028c5760209282526003835260ff818320541691826113e2575b50519015158152f35b600284528190206006015460081c60ff169150836113d9565b50346101a65760203660031901126101a6576001600160a01b0381358181169081900361023857838560ff926101409752600260205220918254169360018301549360028401549060038501549085015490600586015492600687015494600860078901549801549881519a8b5260208b01528901526060880152608087015260a0860152818116151560c086015260081c16151560e0840152610100830152610120820152f35b50503461028c578160031936011261028c576020905160c88152f35b84903461028c578160031936011261028c576020906006548152f35b6004359081151582036114ea57565b600080fd5b6001546001600160a01b0316330361150357565b60405163118cdaa760e01b8152336004820152602490fd5b9190820180921161152857565b634e487b7160e01b600052601160045260246000fd5b1561154557565b60405162461bcd60e51b815260206004820152601b60248201527f536176696e6773476f616c3a204e6f2061637469766520676f616c00000000006044820152606490fd5b1561159157565b60405162461bcd60e51b815260206004820152601c60248201527f536176696e6773476f616c3a20476f616c206e6f7420616374697665000000006044820152606490fd5b610140810190811067ffffffffffffffff8211176115f357604052565b634e487b7160e01b600052604160045260246000fd5b90601f8019910116810190811067ffffffffffffffff8211176115f357604052565b908160209103126114ea575180151581036114ea5790565b600260005414611654576002600055565b604051633ee5aeb560e01b8152600490fd5b9190820391821161152857565b818102929181159184041417156115285756fea264697066735822122016fa184098cdc41574679a943285186eb3bfe9be4cf1d58be30ca592b9c2300d64736f6c63430008140033","opcodes":"PUSH1 0x80 CALLVALUE PUSH3 0x365 JUMPI PUSH1 0x1F PUSH3 0x8EAD CODESIZE DUP2 SWAP1 SUB SWAP2 DUP3 ADD PUSH1 0x1F NOT AND DUP4 ADD SWAP3 PUSH1 0x0 SWAP3 PUSH1 0x1 PUSH1 0x1 PUSH1 0x40 SHL SUB SWAP3 DUP4 DUP7 GT DUP4 DUP8 LT OR PUSH3 0x351 JUMPI DUP2 PUSH1 0x60 SWAP3 DUP5 SWAP3 PUSH1 0x40 SWAP9 DUP10 MSTORE DUP4 CODECOPY DUP2 ADD SUB SLT PUSH3 0x34D JUMPI PUSH3 0x54 DUP2 PUSH3 0x394 JUMP JUMPDEST SWAP2 PUSH3 0x70 DUP6 PUSH3 0x68 PUSH1 0x20 DUP6 ADD PUSH3 0x394 JUMP JUMPDEST SWAP4 ADD PUSH3 0x394 JUMP JUMPDEST SWAP1 PUSH1 0x1 DUP6 SSTORE CALLER ISZERO PUSH3 0x335 JUMPI PUSH1 0x1 SLOAD SWAP4 PUSH1 0x1 DUP1 PUSH1 0xA0 SHL SUB NOT SWAP3 CALLER DUP5 DUP8 AND OR PUSH1 0x1 SSTORE DUP8 MLOAD PUSH1 0x1 DUP1 PUSH1 0xA0 SHL SUB SWAP7 DUP8 CALLER SWAP2 AND PUSH32 0x8BE0079C531659141344CD1FD0A4F28419497F9722A3DAAFE3B4186F6B6457E0 DUP11 DUP1 LOG3 DUP7 DUP4 AND DUP6 PUSH1 0x7 SLOAD AND OR PUSH1 0x7 SSTORE DUP7 DUP7 AND DUP6 PUSH1 0x8 SLOAD AND OR PUSH1 0x8 SSTORE DUP7 DUP3 AND DUP6 PUSH1 0xB SLOAD AND OR PUSH1 0xB SSTORE PUSH2 0x1802 DUP1 DUP3 ADD SWAP1 DUP3 DUP3 LT DUP7 DUP4 GT OR PUSH3 0x321 JUMPI DUP4 DUP9 DUP7 DUP6 SWAP5 PUSH3 0x12D SWAP5 PUSH3 0x76AB DUP8 CODECOPY PUSH1 0x1 PUSH1 0x1 PUSH1 0xA0 SHL SUB SWAP2 DUP3 AND DUP2 MSTORE SWAP2 DUP2 AND PUSH1 0x20 DUP4 ADD MSTORE SWAP1 SWAP2 AND PUSH1 0x40 DUP3 ADD MSTORE PUSH1 0x60 ADD SWAP1 JUMP JUMPDEST SUB SWAP1 DUP9 CREATE SWAP5 DUP6 ISZERO PUSH3 0x317 JUMPI DUP7 PUSH1 0x4 SWAP7 AND DUP6 DUP8 SLOAD AND OR DUP7 SSTORE DUP9 MLOAD SWAP3 PUSH2 0x2422 DUP1 DUP6 ADD SWAP1 DUP6 DUP3 LT DUP8 DUP4 GT OR PUSH3 0x304 JUMPI SWAP2 PUSH3 0x18E SWAP4 SWAP2 DUP7 SWAP6 SWAP4 PUSH3 0x238B DUP8 CODECOPY PUSH1 0x1 PUSH1 0x1 PUSH1 0xA0 SHL SUB SWAP2 DUP3 AND DUP2 MSTORE SWAP2 DUP2 AND PUSH1 0x20 DUP4 ADD MSTORE SWAP1 SWAP2 AND PUSH1 0x40 DUP3 ADD MSTORE PUSH1 0x60 ADD SWAP1 JUMP JUMPDEST SUB SWAP1 DUP7 CREATE DUP1 ISZERO PUSH3 0x2C3 JUMPI DUP5 AND DUP3 PUSH1 0x5 SLOAD AND OR PUSH1 0x5 SSTORE DUP6 MLOAD SWAP1 PUSH2 0x2EFE DUP1 DUP4 ADD SWAP2 DUP4 DUP4 LT SWAP1 DUP4 GT OR PUSH3 0x2F1 JUMPI SWAP1 DUP3 SWAP2 PUSH3 0x47AD DUP4 CODECOPY SUB SWAP1 DUP6 CREATE DUP1 ISZERO PUSH3 0x2E7 JUMPI DUP4 AND SWAP1 PUSH1 0x6 SLOAD AND OR PUSH1 0x6 SSTORE DUP2 DUP2 SLOAD AND SWAP2 DUP3 EXTCODESIZE ISZERO PUSH3 0x2A7 JUMPI DUP5 MLOAD DUP5 DUP2 PUSH1 0x24 DUP2 DUP4 PUSH4 0xF2FDE38B PUSH1 0xE0 SHL SWAP9 DUP10 DUP4 MSTORE ADDRESS DUP10 DUP5 ADD MSTORE GAS CALL DUP1 ISZERO PUSH3 0x2C3 JUMPI PUSH3 0x2D1 JUMPI JUMPDEST POP DUP1 PUSH1 0x5 SLOAD AND DUP1 EXTCODESIZE ISZERO PUSH3 0x2CD JUMPI DUP5 DUP1 SWAP2 PUSH1 0x24 DUP9 MLOAD DUP1 SWAP5 DUP2 SWAP4 DUP10 DUP4 MSTORE ADDRESS DUP10 DUP5 ADD MSTORE GAS CALL DUP1 ISZERO PUSH3 0x2C3 JUMPI SWAP1 DUP6 SWAP2 PUSH3 0x2AB JUMPI JUMPDEST POP POP PUSH1 0x6 SLOAD AND SWAP2 DUP3 EXTCODESIZE ISZERO PUSH3 0x2A7 JUMPI SWAP1 PUSH1 0x24 DUP5 SWAP3 DUP4 DUP8 MLOAD SWAP6 DUP7 SWAP5 DUP6 SWAP4 DUP5 MSTORE ADDRESS SWAP1 DUP5 ADD MSTORE GAS CALL DUP1 ISZERO PUSH3 0x29D JUMPI PUSH3 0x282 JUMPI JUMPDEST DUP3 MLOAD PUSH2 0x1FE1 SWAP1 DUP2 PUSH3 0x3AA DUP3 CODECOPY RETURN JUMPDEST PUSH3 0x28E DUP3 SWAP2 PUSH3 0x36A JUMP JUMPDEST PUSH3 0x29A JUMPI DUP1 PUSH3 0x273 JUMP JUMPDEST DUP1 REVERT JUMPDEST DUP4 MLOAD RETURNDATASIZE DUP5 DUP3 RETURNDATACOPY RETURNDATASIZE SWAP1 REVERT JUMPDEST DUP4 DUP1 REVERT JUMPDEST PUSH3 0x2B6 SWAP1 PUSH3 0x36A JUMP JUMPDEST PUSH3 0x2A7 JUMPI DUP4 CODESIZE PUSH3 0x241 JUMP JUMPDEST DUP7 MLOAD RETURNDATASIZE DUP8 DUP3 RETURNDATACOPY RETURNDATASIZE SWAP1 REVERT JUMPDEST DUP5 DUP1 REVERT JUMPDEST PUSH3 0x2DF SWAP1 SWAP5 SWAP2 SWAP5 PUSH3 0x36A JUMP JUMPDEST SWAP3 CODESIZE PUSH3 0x20E JUMP JUMPDEST DUP6 MLOAD RETURNDATASIZE DUP7 DUP3 RETURNDATACOPY RETURNDATASIZE SWAP1 REVERT JUMPDEST PUSH4 0x4E487B71 PUSH1 0xE0 SHL DUP8 MSTORE PUSH1 0x41 DUP6 MSTORE PUSH1 0x24 DUP8 REVERT JUMPDEST PUSH4 0x4E487B71 PUSH1 0xE0 SHL DUP12 MSTORE PUSH1 0x41 DUP10 MSTORE PUSH1 0x24 DUP12 REVERT JUMPDEST DUP9 MLOAD RETURNDATASIZE DUP10 DUP3 RETURNDATACOPY RETURNDATASIZE SWAP1 REVERT JUMPDEST PUSH4 0x4E487B71 PUSH1 0xE0 SHL DUP11 MSTORE PUSH1 0x41 PUSH1 0x4 MSTORE PUSH1 0x24 DUP11 REVERT JUMPDEST DUP6 MLOAD PUSH4 0x1E4FBDF7 PUSH1 0xE0 SHL DUP2 MSTORE PUSH1 0x4 DUP2 ADD DUP7 SWAP1 MSTORE PUSH1 0x24 SWAP1 REVERT JUMPDEST DUP3 DUP1 REVERT JUMPDEST PUSH4 0x4E487B71 PUSH1 0xE0 SHL DUP6 MSTORE PUSH1 0x41 PUSH1 0x4 MSTORE PUSH1 0x24 DUP6 REVERT JUMPDEST PUSH1 0x0 DUP1 REVERT JUMPDEST PUSH1 0x1 PUSH1 0x1 PUSH1 0x40 SHL SUB DUP2 GT PUSH3 0x37E JUMPI PUSH1 0x40 MSTORE JUMP JUMPDEST PUSH4 0x4E487B71 PUSH1 0xE0 SHL PUSH1 0x0 MSTORE PUSH1 0x41 PUSH1 0x4 MSTORE PUSH1 0x24 PUSH1 0x0 REVERT JUMPDEST MLOAD SWAP1 PUSH1 0x1 PUSH1 0x1 PUSH1 0xA0 SHL SUB DUP3 AND DUP3 SUB PUSH3 0x365 JUMPI JUMP INVALID PUSH1 0x80 PUSH1 0x40 MSTORE PUSH1 0x4 CALLDATASIZE LT ISZERO PUSH2 0x1B JUMPI JUMPDEST CALLDATASIZE ISZERO PUSH2 0x19 JUMPI PUSH1 0x0 DUP1 REVERT JUMPDEST STOP JUMPDEST PUSH1 0x0 DUP1 CALLDATALOAD PUSH1 0xE0 SHR DUP1 PUSH4 0xCCB091D EQ PUSH2 0x19A3 JUMPI DUP1 PUSH4 0xE50CEE5 EQ PUSH2 0x1964 JUMPI DUP1 PUSH4 0x11451526 EQ PUSH2 0x192B JUMPI DUP1 PUSH4 0x332D56D7 EQ PUSH2 0x1887 JUMPI DUP1 PUSH4 0x37C245FE EQ PUSH2 0x1737 JUMPI DUP1 PUSH4 0x42F712ED EQ PUSH2 0x16AF JUMPI DUP1 PUSH4 0x4FE770E7 EQ PUSH2 0x15D2 JUMPI DUP1 PUSH4 0x5468DFCE EQ PUSH2 0x15A9 JUMPI DUP1 PUSH4 0x57B7F763 EQ PUSH2 0x1580 JUMPI DUP1 PUSH4 0x5A4FAFD8 EQ PUSH2 0x1564 JUMPI DUP1 PUSH4 0x5A73211F EQ PUSH2 0x14BB JUMPI DUP1 PUSH4 0x61D027B3 EQ PUSH2 0x1492 JUMPI DUP1 PUSH4 0x64B4F751 EQ PUSH2 0x1470 JUMPI DUP1 PUSH4 0x704F1B94 EQ PUSH2 0x112C JUMPI DUP1 PUSH4 0x715018A6 EQ PUSH2 0x10CE JUMPI DUP1 PUSH4 0x7F51BB1F EQ PUSH2 0xFB4 JUMPI DUP1 PUSH4 0x7FEA355B EQ PUSH2 0xF96 JUMPI DUP1 PUSH4 0x8DA5CB5B EQ PUSH2 0xF6D JUMPI DUP1 PUSH4 0x94EB43ED EQ PUSH2 0xE45 JUMPI DUP1 PUSH4 0x96630D63 EQ PUSH2 0xDD2 JUMPI DUP1 PUSH4 0x97206BD5 EQ PUSH2 0xDB4 JUMPI DUP1 PUSH4 0x987EE156 EQ PUSH2 0xC8D JUMPI DUP1 PUSH4 0xA4A23AA9 EQ PUSH2 0xC00 JUMPI DUP1 PUSH4 0xB2A20D25 EQ PUSH2 0xB37 JUMPI DUP1 PUSH4 0xBFF1F9E1 EQ PUSH2 0xB19 JUMPI DUP1 PUSH4 0xC59D4847 EQ PUSH2 0xA5B JUMPI DUP1 PUSH4 0xCAE07843 EQ PUSH2 0xA32 JUMPI DUP1 PUSH4 0xCBA0C9D5 EQ PUSH2 0xA09 JUMPI DUP1 PUSH4 0xCBA161AB EQ PUSH2 0x8F6 JUMPI DUP1 PUSH4 0xD73FF0AA EQ PUSH2 0x834 JUMPI DUP1 PUSH4 0xDB2E21BC EQ PUSH2 0x7D5 JUMPI DUP1 PUSH4 0xDDE41C70 EQ PUSH2 0x745 JUMPI DUP1 PUSH4 0xE22D551A EQ PUSH2 0x71C JUMPI DUP1 PUSH4 0xE3985CFA EQ PUSH2 0x3B8 JUMPI DUP1 PUSH4 0xE9A3F63F EQ PUSH2 0x313 JUMPI DUP1 PUSH4 0xF03156D8 EQ PUSH2 0x24B JUMPI PUSH4 0xF2FDE38B EQ PUSH2 0x1BE JUMPI POP PUSH2 0xE JUMP JUMPDEST CALLVALUE PUSH2 0x248 JUMPI PUSH1 0x20 CALLDATASIZE PUSH1 0x3 NOT ADD SLT PUSH2 0x248 JUMPI PUSH2 0x1D7 PUSH2 0x1C20 JUMP JUMPDEST PUSH2 0x1DF PUSH2 0x1D7F JUMP JUMPDEST PUSH1 0x1 PUSH1 0x1 PUSH1 0xA0 SHL SUB SWAP1 DUP2 AND SWAP1 DUP2 ISZERO PUSH2 0x22F JUMPI PUSH1 0x1 SLOAD DUP3 PUSH1 0x1 PUSH1 0x1 PUSH1 0x60 SHL SUB PUSH1 0xA0 SHL DUP3 AND OR PUSH1 0x1 SSTORE AND PUSH32 0x8BE0079C531659141344CD1FD0A4F28419497F9722A3DAAFE3B4186F6B6457E0 PUSH1 0x0 DUP1 LOG3 DUP1 RETURN JUMPDEST PUSH1 0x40 MLOAD PUSH4 0x1E4FBDF7 PUSH1 0xE0 SHL DUP2 MSTORE PUSH1 0x4 DUP2 ADD DUP5 SWAP1 MSTORE PUSH1 0x24 SWAP1 REVERT JUMPDEST DUP1 REVERT JUMPDEST POP CALLVALUE PUSH2 0x248 JUMPI PUSH1 0x40 CALLDATASIZE PUSH1 0x3 NOT ADD SLT PUSH2 0x248 JUMPI PUSH1 0x4 CALLDATALOAD DUP2 PUSH2 0x269 PUSH2 0x1C59 JUMP JUMPDEST CALLER DUP3 MSTORE PUSH1 0x3 PUSH1 0x20 MSTORE PUSH2 0x281 PUSH1 0xFF PUSH1 0x40 DUP5 KECCAK256 SLOAD AND PUSH2 0x1DD0 JUMP JUMPDEST PUSH1 0x4 SLOAD PUSH1 0x1 PUSH1 0x1 PUSH1 0xA0 SHL SUB AND DUP1 EXTCODESIZE ISZERO PUSH2 0x30F JUMPI PUSH1 0x40 MLOAD PUSH4 0x9A408321 PUSH1 0xE0 SHL DUP2 MSTORE PUSH1 0x4 DUP2 ADD DUP6 SWAP1 MSTORE SWAP2 ISZERO ISZERO PUSH1 0x24 DUP4 ADD MSTORE DUP3 SWAP1 DUP3 SWAP1 DUP2 DUP4 DUP2 PUSH1 0x44 DUP2 ADD JUMPDEST SUB SWAP3 GAS CALL DUP1 ISZERO PUSH2 0x304 JUMPI PUSH2 0x2EC JUMPI JUMPDEST POP POP CALLER DUP3 MSTORE PUSH1 0x2 PUSH1 0x20 MSTORE PUSH2 0x2E7 PUSH1 0x1 PUSH1 0x40 DUP5 KECCAK256 ADD SWAP2 DUP3 SLOAD PUSH2 0x1E1C JUMP JUMPDEST SWAP1 SSTORE DUP1 RETURN JUMPDEST PUSH2 0x2F5 SWAP1 PUSH2 0x1AB5 JUMP JUMPDEST PUSH2 0x300 JUMPI DUP2 CODESIZE PUSH2 0x2CB JUMP JUMPDEST POP DUP1 REVERT JUMPDEST PUSH1 0x40 MLOAD RETURNDATASIZE DUP5 DUP3 RETURNDATACOPY RETURNDATASIZE SWAP1 REVERT JUMPDEST DUP3 DUP1 REVERT JUMPDEST POP CALLVALUE PUSH2 0x248 JUMPI PUSH1 0x20 CALLDATASIZE PUSH1 0x3 NOT ADD SLT PUSH2 0x248 JUMPI PUSH2 0x32D PUSH2 0x1C20 JUMP JUMPDEST PUSH2 0x335 PUSH2 0x1D7F JUMP JUMPDEST PUSH1 0x1 PUSH1 0x1 PUSH1 0xA0 SHL SUB AND DUP1 DUP3 MSTORE PUSH1 0xA PUSH1 0x20 MSTORE PUSH1 0x40 DUP3 KECCAK256 SLOAD PUSH2 0x356 SWAP1 ISZERO ISZERO PUSH2 0x1E6C JUMP JUMPDEST DUP2 MSTORE PUSH1 0xA PUSH1 0x20 MSTORE PUSH1 0x40 DUP2 KECCAK256 SLOAD PUSH1 0x0 NOT DUP2 ADD SWAP1 DUP2 GT PUSH2 0x3A4 JUMPI DUP1 PUSH1 0x3 PUSH2 0x38E PUSH1 0xFF DUP3 PUSH2 0x383 PUSH2 0x3A1 SWAP7 PUSH2 0x1A2A JUMP JUMPDEST POP ADD SLOAD AND ISZERO SWAP3 PUSH2 0x1A2A JUMP JUMPDEST POP ADD SWAP1 PUSH1 0xFF DUP1 NOT DUP4 SLOAD AND SWAP2 ISZERO ISZERO AND OR SWAP1 SSTORE JUMP JUMPDEST DUP1 RETURN JUMPDEST PUSH4 0x4E487B71 PUSH1 0xE0 SHL DUP3 MSTORE PUSH1 0x11 PUSH1 0x4 MSTORE PUSH1 0x24 DUP3 REVERT JUMPDEST POP CALLVALUE PUSH2 0x248 JUMPI PUSH1 0x60 CALLDATASIZE PUSH1 0x3 NOT ADD SLT PUSH2 0x248 JUMPI PUSH2 0x3D2 PUSH2 0x1C20 JUMP JUMPDEST PUSH8 0xFFFFFFFFFFFFFFFF PUSH1 0x24 DUP1 CALLDATALOAD DUP3 DUP2 GT PUSH2 0x718 JUMPI PUSH2 0x3F4 SWAP1 CALLDATASIZE SWAP1 PUSH1 0x4 ADD PUSH2 0x1C68 JUMP JUMPDEST SWAP1 PUSH2 0x3FD PUSH2 0x1D7F JUMP JUMPDEST PUSH1 0x9 SLOAD SWAP1 PUSH1 0xA DUP3 LT ISZERO PUSH2 0x6D4 JUMPI PUSH1 0x1 PUSH1 0x1 PUSH1 0xA0 SHL SUB DUP6 DUP2 AND DUP8 MSTORE PUSH1 0xA PUSH1 0x20 MSTORE PUSH1 0x40 DUP8 KECCAK256 SLOAD SWAP1 SWAP5 SWAP1 PUSH2 0x690 JUMPI PUSH2 0x438 PUSH2 0x7D0 PUSH1 0x44 CALLDATALOAD GT ISZERO PUSH2 0x1E29 JUMP JUMPDEST PUSH1 0x40 MLOAD SWAP3 PUSH2 0x445 DUP5 PUSH2 0x1AFC JUMP JUMPDEST DUP6 DUP8 AND DUP5 MSTORE PUSH1 0x20 DUP5 ADD SWAP5 DUP6 MSTORE PUSH1 0x40 DUP5 ADD SWAP2 PUSH1 0x44 CALLDATALOAD DUP4 MSTORE PUSH1 0x60 DUP6 ADD SWAP4 PUSH1 0x1 SWAP3 DUP4 DUP7 MSTORE DUP11 PUSH1 0x80 DUP9 ADD MSTORE PUSH9 0x10000000000000000 DUP2 LT ISZERO PUSH2 0x67D JUMPI DUP1 DUP5 PUSH2 0x48C SWAP3 ADD PUSH1 0x9 SSTORE PUSH2 0x1A2A JUMP JUMPDEST SWAP8 SWAP1 SWAP8 PUSH2 0x66A JUMPI DUP9 DUP8 MLOAD AND PUSH1 0x1 PUSH1 0x1 PUSH1 0x60 SHL SUB PUSH1 0xA0 SHL DUP10 SLOAD AND OR DUP9 SSTORE MLOAD SWAP1 DUP2 MLOAD SWAP3 DUP4 GT PUSH2 0x658 JUMPI POP PUSH2 0x4C0 DUP4 DUP9 ADD SLOAD PUSH2 0x1A7B JUMP JUMPDEST PUSH1 0x1F DUP2 GT PUSH2 0x60E JUMPI JUMPDEST POP PUSH1 0x20 SWAP1 DUP11 PUSH1 0x1F DUP5 GT PUSH1 0x1 EQ PUSH2 0x578 JUMPI SWAP5 PUSH1 0x80 SWAP5 DUP5 PUSH32 0x5307943003B6B820384C02ACC8CD5EBEBE701CB15D7D558ADAE90174CF95E57D SWAP12 SWAP10 SWAP6 PUSH2 0x548 SWAP6 PUSH1 0x20 SWAP13 SWAP11 SWAP6 PUSH1 0x4 SWAP11 SWAP3 PUSH2 0x56D JUMPI JUMPDEST POP POP PUSH1 0x0 NOT PUSH1 0x3 DUP4 SWAP1 SHL SHR NOT AND SWAP1 DUP3 SHL OR SWAP1 DUP9 ADD SSTORE JUMPDEST MLOAD PUSH1 0x2 DUP8 ADD SSTORE MLOAD ISZERO ISZERO PUSH1 0x3 DUP7 ADD SWAP1 PUSH1 0xFF DUP1 NOT DUP4 SLOAD AND SWAP2 ISZERO ISZERO AND OR SWAP1 SSTORE JUMP JUMPDEST ADD MLOAD SWAP2 ADD SSTORE PUSH1 0x9 SLOAD DUP2 DUP6 AND DUP7 MSTORE PUSH1 0xA DUP4 MSTORE PUSH1 0x40 DUP7 KECCAK256 SSTORE PUSH1 0x40 MLOAD SWAP4 PUSH1 0x44 CALLDATALOAD DUP6 MSTORE AND SWAP3 LOG2 DUP1 RETURN JUMPDEST ADD MLOAD SWAP1 POP CODESIZE DUP1 PUSH2 0x514 JUMP JUMPDEST POP DUP8 DUP5 ADD DUP12 MSTORE PUSH1 0x20 DUP12 KECCAK256 SWAP2 SWAP1 PUSH1 0x1F NOT DUP5 AND DUP13 JUMPDEST DUP2 DUP2 LT PUSH2 0x5F8 JUMPI POP SWAP5 DUP1 DUP6 PUSH2 0x548 SWAP6 PUSH1 0x20 SWAP13 SWAP11 SWAP6 PUSH1 0x4 SWAP11 SWAP6 PUSH32 0x5307943003B6B820384C02ACC8CD5EBEBE701CB15D7D558ADAE90174CF95E57D SWAP16 SWAP14 SWAP10 PUSH1 0x80 SWAP12 LT PUSH2 0x5DF JUMPI JUMPDEST POP POP POP DUP2 SHL ADD SWAP1 DUP9 ADD SSTORE PUSH2 0x52A JUMP JUMPDEST ADD MLOAD PUSH1 0x0 NOT PUSH1 0xF8 DUP5 PUSH1 0x3 SHL AND SHR NOT AND SWAP1 SSTORE CODESIZE DUP1 DUP1 PUSH2 0x5D0 JUMP JUMPDEST DUP3 DUP5 ADD MLOAD DUP6 SSTORE SWAP4 DUP7 ADD SWAP4 PUSH1 0x20 SWAP4 DUP5 ADD SWAP4 ADD PUSH2 0x58B JUMP JUMPDEST DUP4 DUP9 ADD DUP12 MSTORE PUSH1 0x20 DUP12 KECCAK256 PUSH1 0x1F DUP5 ADD PUSH1 0x5 SHR DUP2 ADD SWAP2 PUSH1 0x20 DUP6 LT PUSH2 0x64E JUMPI JUMPDEST PUSH1 0x1F ADD PUSH1 0x5 SHR ADD SWAP1 DUP5 SWAP1 JUMPDEST DUP3 DUP2 LT PUSH2 0x643 JUMPI POP POP PUSH2 0x4C9 JUMP JUMPDEST DUP13 DUP2 SSTORE ADD DUP5 SWAP1 PUSH2 0x635 JUMP JUMPDEST SWAP1 SWAP2 POP DUP2 SWAP1 PUSH2 0x62A JUMP JUMPDEST PUSH4 0x4E487B71 PUSH1 0xE0 SHL DUP12 MSTORE PUSH1 0x41 PUSH1 0x4 MSTORE DUP11 REVERT JUMPDEST POP PUSH4 0x4E487B71 PUSH1 0xE0 SHL DUP11 MSTORE PUSH1 0x4 DUP11 SWAP1 MSTORE DUP10 REVERT JUMPDEST POP PUSH4 0x4E487B71 PUSH1 0xE0 SHL DUP11 MSTORE PUSH1 0x41 PUSH1 0x4 MSTORE DUP10 REVERT JUMPDEST PUSH1 0x40 MLOAD PUSH3 0x461BCD PUSH1 0xE5 SHL DUP2 MSTORE PUSH1 0x20 PUSH1 0x4 DUP3 ADD MSTORE PUSH1 0x1F DUP2 DUP5 ADD MSTORE PUSH32 0x4C6F6F7046693A20537472617465677920616C72656164792065786973747300 PUSH1 0x44 DUP3 ADD MSTORE PUSH1 0x64 SWAP1 REVERT JUMPDEST PUSH1 0x64 SWAP1 PUSH1 0x1E PUSH1 0x40 MLOAD SWAP2 PUSH3 0x461BCD PUSH1 0xE5 SHL DUP4 MSTORE PUSH1 0x20 PUSH1 0x4 DUP5 ADD MSTORE DUP3 ADD MSTORE PUSH32 0x4C6F6F7046693A204D6178207374726174656769657320726561636865640000 PUSH1 0x44 DUP3 ADD MSTORE REVERT JUMPDEST DUP5 DUP1 REVERT JUMPDEST POP CALLVALUE PUSH2 0x248 JUMPI DUP1 PUSH1 0x3 NOT CALLDATASIZE ADD SLT PUSH2 0x248 JUMPI PUSH1 0x7 SLOAD PUSH1 0x40 MLOAD PUSH1 0x1 PUSH1 0x1 PUSH1 0xA0 SHL SUB SWAP1 SWAP2 AND DUP2 MSTORE PUSH1 0x20 SWAP1 RETURN JUMPDEST POP CALLVALUE PUSH2 0x248 JUMPI DUP1 PUSH1 0x3 NOT CALLDATASIZE ADD SLT PUSH2 0x248 JUMPI PUSH1 0x9 SLOAD PUSH2 0x762 DUP2 PUSH2 0x1EB8 JUMP JUMPDEST SWAP1 PUSH2 0x770 PUSH1 0x40 MLOAD SWAP3 DUP4 PUSH2 0x1B18 JUMP JUMPDEST DUP1 DUP3 MSTORE PUSH1 0x9 DUP4 MSTORE PUSH32 0x6E1540171B6C0C960B71A7020D9F60077F6AF931A8BBF590DA0223DACF75C7AF SWAP3 PUSH1 0x20 DUP1 DUP5 ADD JUMPDEST DUP4 DUP4 LT PUSH2 0x7B8 JUMPI PUSH1 0x40 MLOAD DUP1 PUSH2 0x7B4 DUP8 DUP3 PUSH2 0x1CE2 JUMP JUMPDEST SUB SWAP1 RETURN JUMPDEST PUSH1 0x5 DUP3 PUSH1 0x1 SWAP3 PUSH2 0x7C7 DUP10 PUSH2 0x1ED0 JUMP JUMPDEST DUP2 MSTORE ADD SWAP7 ADD SWAP3 ADD SWAP2 SWAP5 PUSH2 0x79F JUMP JUMPDEST POP CALLVALUE PUSH2 0x248 JUMPI DUP1 PUSH1 0x3 NOT CALLDATASIZE ADD SLT PUSH2 0x248 JUMPI PUSH2 0x7EE PUSH2 0x1D7F JUMP JUMPDEST DUP1 SELFBALANCE DUP1 ISZERO SWAP1 DUP2 ISZERO PUSH2 0x7FD JUMPI POP POP RETURN JUMPDEST DUP3 DUP1 SWAP3 SWAP2 DUP2 SWAP3 PUSH1 0x1 DUP1 PUSH1 0xA0 SHL SUB PUSH1 0x1 SLOAD AND SWAP1 DUP4 SWAP1 PUSH2 0x82B JUMPI JUMPDEST CALL ISZERO PUSH2 0x81F JUMPI DUP1 RETURN JUMPDEST PUSH1 0x40 MLOAD SWAP1 RETURNDATASIZE SWAP1 DUP3 RETURNDATACOPY RETURNDATASIZE SWAP1 REVERT JUMPDEST POP PUSH2 0x8FC PUSH2 0x816 JUMP JUMPDEST POP CALLVALUE PUSH2 0x248 JUMPI PUSH1 0x40 CALLDATASIZE PUSH1 0x3 NOT ADD SLT PUSH2 0x248 JUMPI PUSH2 0x84E PUSH2 0x1C20 JUMP JUMPDEST PUSH1 0x24 CALLDATALOAD SWAP1 PUSH2 0x85A PUSH2 0x1D7F JUMP JUMPDEST PUSH1 0x1 PUSH1 0x1 PUSH1 0xA0 SHL SUB AND DUP1 DUP4 MSTORE PUSH1 0xA PUSH1 0x20 MSTORE PUSH1 0x40 DUP4 KECCAK256 SLOAD SWAP1 SWAP2 SWAP1 PUSH2 0x87E SWAP1 ISZERO ISZERO PUSH2 0x1E6C JUMP JUMPDEST PUSH2 0x88C PUSH2 0x7D0 DUP3 GT ISZERO PUSH2 0x1E29 JUMP JUMPDEST DUP2 DUP4 MSTORE PUSH1 0xA PUSH1 0x20 MSTORE PUSH1 0x40 DUP4 KECCAK256 SLOAD PUSH1 0x0 NOT DUP2 ADD SWAP1 DUP2 GT PUSH2 0x8E2 JUMPI DUP2 PUSH32 0x5307943003B6B820384C02ACC8CD5EBEBE701CB15D7D558ADAE90174CF95E57D SWAP3 PUSH1 0x2 PUSH2 0x8D5 PUSH1 0x20 SWAP5 PUSH2 0x1A2A JUMP JUMPDEST POP ADD SSTORE PUSH1 0x40 MLOAD SWAP1 DUP2 MSTORE LOG2 DUP1 RETURN JUMPDEST PUSH4 0x4E487B71 PUSH1 0xE0 SHL DUP5 MSTORE PUSH1 0x11 PUSH1 0x4 MSTORE PUSH1 0x24 DUP5 REVERT JUMPDEST POP CALLVALUE PUSH2 0x248 JUMPI PUSH1 0x80 CALLDATASIZE PUSH1 0x3 NOT ADD SLT PUSH2 0x248 JUMPI PUSH2 0x910 PUSH2 0x1C20 JUMP JUMPDEST PUSH1 0x24 CALLDATALOAD PUSH1 0xA DUP2 LT ISZERO PUSH2 0x30F JUMPI PUSH1 0x44 CALLDATALOAD DUP4 PUSH1 0x64 CALLDATALOAD PUSH8 0xFFFFFFFFFFFFFFFF DUP2 GT PUSH2 0x300 JUMPI PUSH2 0x940 SWAP1 CALLDATASIZE SWAP1 PUSH1 0x4 ADD PUSH2 0x1C68 JUMP JUMPDEST SWAP4 PUSH2 0x949 PUSH2 0x1D7F JUMP JUMPDEST PUSH1 0x6 SLOAD PUSH1 0x1 PUSH1 0x1 PUSH1 0xA0 SHL SUB SWAP1 DUP2 AND SWAP2 SWAP1 DUP3 EXTCODESIZE ISZERO PUSH2 0xA05 JUMPI PUSH2 0x9A6 SWAP3 DUP5 SWAP3 DUP4 PUSH1 0x40 MLOAD DUP1 SWAP7 DUP2 SWAP6 DUP3 SWAP5 PUSH4 0xE351D437 PUSH1 0xE0 SHL DUP5 MSTORE AND SWAP12 DUP13 PUSH1 0x4 DUP5 ADD MSTORE PUSH2 0x98F PUSH1 0x24 DUP5 ADD DUP14 PUSH2 0x1C36 JUMP JUMPDEST DUP11 PUSH1 0x44 DUP5 ADD MSTORE PUSH1 0x80 PUSH1 0x64 DUP5 ADD MSTORE PUSH1 0x84 DUP4 ADD SWAP1 PUSH2 0x1BE0 JUMP JUMPDEST SUB SWAP3 GAS CALL DUP1 ISZERO PUSH2 0x304 JUMPI PUSH2 0x9F1 JUMPI JUMPDEST POP POP PUSH32 0xD4DF0CB969B99D25F121A3E9C7F32D8FCC5A0D782408695F68DE9493DB8CC177 SWAP2 PUSH1 0x40 SWAP2 PUSH2 0x9E8 DUP4 MLOAD DUP1 SWAP4 PUSH2 0x1C36 JUMP JUMPDEST PUSH1 0x20 DUP3 ADD MSTORE LOG2 DUP1 RETURN JUMPDEST PUSH2 0x9FA SWAP1 PUSH2 0x1AB5 JUMP JUMPDEST PUSH2 0xA05 JUMPI DUP4 CODESIZE PUSH2 0x9B5 JUMP JUMPDEST DUP4 DUP1 REVERT JUMPDEST POP CALLVALUE PUSH2 0x248 JUMPI DUP1 PUSH1 0x3 NOT CALLDATASIZE ADD SLT PUSH2 0x248 JUMPI PUSH1 0x4 SLOAD PUSH1 0x40 MLOAD PUSH1 0x1 PUSH1 0x1 PUSH1 0xA0 SHL SUB SWAP1 SWAP2 AND DUP2 MSTORE PUSH1 0x20 SWAP1 RETURN JUMPDEST POP CALLVALUE PUSH2 0x248 JUMPI DUP1 PUSH1 0x3 NOT CALLDATASIZE ADD SLT PUSH2 0x248 JUMPI PUSH1 0x8 SLOAD PUSH1 0x40 MLOAD PUSH1 0x1 PUSH1 0x1 PUSH1 0xA0 SHL SUB SWAP1 SWAP2 AND DUP2 MSTORE PUSH1 0x20 SWAP1 RETURN JUMPDEST POP CALLVALUE PUSH2 0x248 JUMPI DUP1 PUSH1 0x3 NOT CALLDATASIZE ADD SLT PUSH2 0x248 JUMPI PUSH1 0xC SLOAD PUSH1 0xD SLOAD PUSH1 0xE SLOAD PUSH1 0x8 SLOAD PUSH1 0x40 MLOAD PUSH4 0x70A08231 PUSH1 0xE0 SHL DUP2 MSTORE ADDRESS PUSH1 0x4 DUP3 ADD MSTORE SWAP3 SELFBALANCE SWAP3 SWAP2 PUSH1 0x20 SWAP1 DUP6 SWAP1 PUSH1 0x24 SWAP1 DUP3 SWAP1 PUSH1 0x1 PUSH1 0x1 PUSH1 0xA0 SHL SUB AND GAS STATICCALL SWAP4 DUP5 ISZERO PUSH2 0xB0E JUMPI DUP7 SWAP5 PUSH2 0xAD3 JUMPI JUMPDEST POP PUSH1 0xA0 SWAP6 POP PUSH1 0x40 MLOAD SWAP5 DUP6 MSTORE PUSH1 0x20 DUP6 ADD MSTORE PUSH1 0x40 DUP5 ADD MSTORE PUSH1 0x60 DUP4 ADD MSTORE PUSH1 0x80 DUP3 ADD MSTORE RETURN JUMPDEST SWAP1 SWAP4 POP PUSH1 0x20 DUP2 RETURNDATASIZE DUP3 GT PUSH2 0xB06 JUMPI JUMPDEST DUP2 PUSH2 0xAEE PUSH1 0x20 SWAP4 DUP4 PUSH2 0x1B18 JUMP JUMPDEST DUP2 ADD SUB SLT PUSH2 0xB02 JUMPI PUSH1 0xA0 SWAP6 POP MLOAD SWAP3 CODESIZE PUSH2 0xAB2 JUMP JUMPDEST DUP6 DUP1 REVERT JUMPDEST RETURNDATASIZE SWAP2 POP PUSH2 0xAE1 JUMP JUMPDEST PUSH1 0x40 MLOAD RETURNDATASIZE DUP9 DUP3 RETURNDATACOPY RETURNDATASIZE SWAP1 REVERT JUMPDEST POP CALLVALUE PUSH2 0x248 JUMPI DUP1 PUSH1 0x3 NOT CALLDATASIZE ADD SLT PUSH2 0x248 JUMPI PUSH1 0x20 PUSH1 0xC SLOAD PUSH1 0x40 MLOAD SWAP1 DUP2 MSTORE RETURN JUMPDEST POP CALLVALUE PUSH2 0x248 JUMPI DUP1 PUSH1 0x3 NOT CALLDATASIZE ADD SLT PUSH2 0x248 JUMPI PUSH1 0x9 SLOAD PUSH2 0xB54 DUP2 PUSH2 0x1F24 JUMP JUMPDEST DUP3 SWAP2 DUP4 JUMPDEST DUP2 DUP2 LT PUSH2 0xBB0 JUMPI POP POP PUSH2 0xB6A DUP3 PUSH2 0x1F24 JUMP JUMPDEST SWAP3 JUMPDEST DUP3 DUP2 LT PUSH2 0xB81 JUMPI PUSH1 0x40 MLOAD DUP1 PUSH2 0x7B4 DUP7 DUP3 PUSH2 0x1CE2 JUMP JUMPDEST DUP1 PUSH2 0xB8F PUSH2 0xBAB SWAP3 DUP5 PUSH2 0x1F97 JUMP JUMPDEST MLOAD PUSH2 0xB9A DUP3 DUP8 PUSH2 0x1F97 JUMP JUMPDEST MSTORE PUSH2 0xBA5 DUP2 DUP7 PUSH2 0x1F97 JUMP JUMPDEST POP PUSH2 0x1DAB JUMP JUMPDEST PUSH2 0xB6C JUMP JUMPDEST PUSH1 0xFF PUSH1 0x3 PUSH2 0xBBD DUP4 PUSH2 0x1A2A JUMP JUMPDEST POP ADD SLOAD AND PUSH2 0xBD4 JUMPI JUMPDEST PUSH2 0xBCF SWAP1 PUSH2 0x1DAB JUMP JUMPDEST PUSH2 0xB58 JUMP JUMPDEST SWAP3 PUSH2 0xBF8 PUSH2 0xBCF SWAP2 PUSH2 0xBEE PUSH2 0xBE8 DUP8 PUSH2 0x1A2A JUMP JUMPDEST POP PUSH2 0x1ED0 JUMP JUMPDEST PUSH2 0xB9A DUP3 DUP8 PUSH2 0x1F97 JUMP JUMPDEST SWAP4 SWAP1 POP PUSH2 0xBC6 JUMP JUMPDEST POP CALLVALUE PUSH2 0x248 JUMPI DUP1 PUSH2 0xC10 CALLDATASIZE PUSH2 0x1CBF JUMP JUMPDEST SWAP2 SWAP1 SWAP2 CALLER DUP5 MSTORE PUSH1 0x3 PUSH1 0x20 MSTORE PUSH2 0xC2B PUSH1 0xFF PUSH1 0x40 DUP7 KECCAK256 SLOAD AND PUSH2 0x1DD0 JUMP JUMPDEST PUSH1 0x4 SLOAD PUSH1 0x1 PUSH1 0x1 PUSH1 0xA0 SHL SUB AND DUP1 EXTCODESIZE ISZERO PUSH2 0x718 JUMPI PUSH1 0x40 MLOAD PUSH4 0x70A60311 PUSH1 0xE0 SHL DUP2 MSTORE PUSH1 0x4 DUP2 ADD SWAP4 SWAP1 SWAP4 MSTORE PUSH1 0x24 DUP4 ADD SWAP4 SWAP1 SWAP4 MSTORE ISZERO ISZERO PUSH1 0x44 DUP3 ADD MSTORE SWAP1 DUP3 SWAP1 DUP3 SWAP1 PUSH1 0x64 SWAP1 DUP3 SWAP1 DUP5 SWAP1 GAS CALL DUP1 ISZERO PUSH2 0x304 JUMPI PUSH2 0xC7D JUMPI POP RETURN JUMPDEST PUSH2 0xC86 SWAP1 PUSH2 0x1AB5 JUMP JUMPDEST PUSH2 0x248 JUMPI DUP1 RETURN JUMPDEST POP CALLVALUE PUSH2 0x248 JUMPI PUSH1 0x20 DUP1 PUSH1 0x3 NOT CALLDATASIZE ADD SLT PUSH2 0x300 JUMPI PUSH1 0x40 PUSH2 0xD84 SWAP3 PUSH2 0xCAE PUSH2 0x1C20 JUMP JUMPDEST DUP2 PUSH1 0xE0 DUP5 MLOAD PUSH2 0xCBC DUP2 PUSH2 0x1ADF JUMP JUMPDEST PUSH1 0x60 DUP2 MSTORE DUP3 DUP8 DUP3 ADD MSTORE DUP3 DUP7 DUP3 ADD MSTORE DUP3 PUSH1 0x60 DUP3 ADD MSTORE DUP3 PUSH1 0x80 DUP3 ADD MSTORE DUP3 PUSH1 0xA0 DUP3 ADD MSTORE DUP3 PUSH1 0xC0 DUP3 ADD MSTORE ADD MSTORE PUSH1 0x1 DUP1 PUSH1 0xA0 SHL SUB AND DUP2 MSTORE PUSH1 0x2 DUP4 MSTORE KECCAK256 PUSH1 0x40 MLOAD SWAP2 PUSH2 0xD00 DUP4 PUSH2 0x1ADF JUMP JUMPDEST PUSH2 0xD09 DUP3 PUSH2 0x1B3A JUMP JUMPDEST DUP4 MSTORE PUSH1 0x1 DUP3 ADD SLOAD SWAP2 DUP2 DUP5 ADD SWAP3 DUP4 MSTORE PUSH1 0x2 DUP2 ADD SLOAD SWAP1 PUSH1 0x40 DUP6 ADD SWAP2 DUP3 MSTORE PUSH1 0x3 DUP2 ADD SLOAD PUSH1 0x60 DUP7 ADD SWAP1 DUP2 MSTORE PUSH1 0x4 DUP3 ADD SLOAD PUSH1 0x80 DUP8 ADD SWAP1 DUP2 MSTORE PUSH1 0x5 DUP4 ADD SLOAD SWAP2 PUSH1 0xA0 DUP9 ADD SWAP3 DUP4 MSTORE PUSH1 0xFF PUSH1 0x7 PUSH1 0x6 DUP7 ADD SLOAD SWAP6 PUSH1 0xC0 DUP12 ADD SWAP7 DUP8 MSTORE ADD SLOAD AND SWAP5 PUSH1 0xE0 DUP10 ADD SWAP6 ISZERO ISZERO DUP7 MSTORE PUSH1 0x40 MLOAD SWAP10 DUP11 SWAP10 DUP9 DUP12 MSTORE MLOAD PUSH2 0x100 DUP1 SWAP10 DUP13 ADD MSTORE PUSH2 0x120 DUP12 ADD SWAP1 PUSH2 0x1BE0 JUMP JUMPDEST SWAP8 MLOAD PUSH1 0x40 DUP11 ADD MSTORE MLOAD PUSH1 0x60 DUP10 ADD MSTORE MLOAD PUSH1 0x80 DUP9 ADD MSTORE MLOAD PUSH1 0xA0 DUP8 ADD MSTORE MLOAD PUSH1 0xC0 DUP7 ADD MSTORE MLOAD PUSH1 0xE0 DUP6 ADD MSTORE MLOAD ISZERO ISZERO SWAP1 DUP4 ADD MSTORE SUB SWAP1 RETURN JUMPDEST POP CALLVALUE PUSH2 0x248 JUMPI DUP1 PUSH1 0x3 NOT CALLDATASIZE ADD SLT PUSH2 0x248 JUMPI PUSH1 0x20 PUSH1 0xE SLOAD PUSH1 0x40 MLOAD SWAP1 DUP2 MSTORE RETURN JUMPDEST POP CALLVALUE PUSH2 0x248 JUMPI DUP1 PUSH2 0xDE2 CALLDATASIZE PUSH2 0x1CBF JUMP JUMPDEST SWAP1 SWAP3 SWAP2 CALLER DUP4 MSTORE PUSH1 0x3 PUSH1 0x20 MSTORE PUSH2 0xDFD PUSH1 0xFF PUSH1 0x40 DUP6 KECCAK256 SLOAD AND PUSH2 0x1DD0 JUMP JUMPDEST PUSH1 0x5 SLOAD PUSH1 0x1 PUSH1 0x1 PUSH1 0xA0 SHL SUB AND SWAP2 DUP3 EXTCODESIZE ISZERO PUSH2 0xA05 JUMPI PUSH1 0x40 MLOAD PUSH4 0xF2B907D3 PUSH1 0xE0 SHL DUP2 MSTORE PUSH1 0x4 DUP2 ADD SWAP3 SWAP1 SWAP3 MSTORE PUSH1 0x24 DUP3 ADD DUP6 SWAP1 MSTORE ISZERO ISZERO PUSH1 0x44 DUP3 ADD MSTORE SWAP1 DUP3 SWAP1 DUP3 SWAP1 DUP2 DUP4 DUP2 PUSH1 0x64 DUP2 ADD PUSH2 0x2BC JUMP JUMPDEST POP CALLVALUE PUSH2 0x248 JUMPI PUSH1 0x3 NOT PUSH1 0xC0 CALLDATASIZE DUP3 ADD SLT PUSH2 0x300 JUMPI PUSH8 0xFFFFFFFFFFFFFFFF SWAP1 PUSH1 0x4 CALLDATALOAD DUP3 DUP2 GT PUSH2 0xA05 JUMPI PUSH2 0xE7A SWAP1 CALLDATASIZE SWAP1 PUSH1 0x4 ADD PUSH2 0x1C68 JUMP JUMPDEST SWAP2 PUSH1 0x24 CALLDATALOAD SWAP1 DUP2 GT PUSH2 0xA05 JUMPI PUSH2 0xE93 SWAP1 CALLDATASIZE SWAP1 PUSH1 0x4 ADD PUSH2 0x1C68 JUMP JUMPDEST PUSH1 0xA4 CALLDATALOAD SWAP1 DUP2 ISZERO ISZERO DUP1 SWAP3 SUB PUSH2 0xF68 JUMPI DUP5 SWAP4 CALLER DUP6 MSTORE PUSH1 0x3 PUSH1 0x20 MSTORE PUSH2 0xEBB PUSH1 0xFF PUSH1 0x40 DUP8 KECCAK256 SLOAD AND PUSH2 0x1DD0 JUMP JUMPDEST PUSH1 0x5 SLOAD PUSH1 0x1 PUSH1 0x1 PUSH1 0xA0 SHL SUB AND SWAP1 DUP2 EXTCODESIZE ISZERO PUSH2 0xB02 JUMPI DUP6 PUSH2 0xEFE SWAP2 DUP2 SWAP6 PUSH2 0xF0D PUSH1 0x40 MLOAD SWAP9 DUP10 SWAP8 DUP9 SWAP7 DUP8 SWAP6 PUSH4 0x3DC55B71 PUSH1 0xE0 SHL DUP8 MSTORE PUSH1 0xC0 PUSH1 0x4 DUP9 ADD MSTORE PUSH1 0xC4 DUP8 ADD SWAP1 PUSH2 0x1BE0 JUMP JUMPDEST SWAP2 DUP6 DUP4 SUB ADD PUSH1 0x24 DUP7 ADD MSTORE PUSH2 0x1BE0 JUMP JUMPDEST SWAP1 PUSH1 0x44 CALLDATALOAD PUSH1 0x44 DUP5 ADD MSTORE PUSH1 0x64 CALLDATALOAD PUSH1 0x64 DUP5 ADD MSTORE PUSH1 0x84 CALLDATALOAD PUSH1 0x84 DUP5 ADD MSTORE PUSH1 0xA4 DUP4 ADD MSTORE SUB SWAP3 GAS CALL DUP1 ISZERO PUSH2 0x304 JUMPI PUSH2 0xF54 JUMPI JUMPDEST POP CALLER DUP2 MSTORE PUSH1 0x2 PUSH1 0x20 MSTORE PUSH1 0x5 PUSH1 0x40 DUP3 KECCAK256 ADD PUSH2 0x2E7 DUP2 SLOAD PUSH2 0x1DAB JUMP JUMPDEST PUSH2 0xF5D SWAP1 PUSH2 0x1AB5 JUMP JUMPDEST PUSH2 0x248 JUMPI DUP1 CODESIZE PUSH2 0xF3A JUMP JUMPDEST PUSH1 0x0 DUP1 REVERT JUMPDEST POP CALLVALUE PUSH2 0x248 JUMPI DUP1 PUSH1 0x3 NOT CALLDATASIZE ADD SLT PUSH2 0x248 JUMPI PUSH1 0x1 SLOAD PUSH1 0x40 MLOAD PUSH1 0x1 PUSH1 0x1 PUSH1 0xA0 SHL SUB SWAP1 SWAP2 AND DUP2 MSTORE PUSH1 0x20 SWAP1 RETURN JUMPDEST POP CALLVALUE PUSH2 0x248 JUMPI DUP1 PUSH1 0x3 NOT CALLDATASIZE ADD SLT PUSH2 0x248 JUMPI PUSH1 0x20 PUSH1 0xD SLOAD PUSH1 0x40 MLOAD SWAP1 DUP2 MSTORE RETURN JUMPDEST POP CALLVALUE PUSH2 0x248 JUMPI PUSH1 0x20 CALLDATASIZE PUSH1 0x3 NOT ADD SLT PUSH2 0x248 JUMPI PUSH2 0xFCE PUSH2 0x1C20 JUMP JUMPDEST PUSH2 0xFD6 PUSH2 0x1D7F JUMP JUMPDEST PUSH1 0x1 PUSH1 0x1 PUSH1 0xA0 SHL SUB SWAP1 DUP2 AND DUP1 ISZERO PUSH2 0x108A JUMPI DUP3 SWAP2 DUP2 PUSH1 0x1 PUSH1 0x1 PUSH1 0x60 SHL SUB PUSH1 0xA0 SHL PUSH1 0xB SLOAD AND OR PUSH1 0xB SSTORE DUP1 PUSH1 0x4 SLOAD AND SWAP1 DUP2 EXTCODESIZE ISZERO PUSH2 0x1066 JUMPI PUSH1 0x40 MLOAD DUP5 DUP2 PUSH1 0x24 DUP2 DUP4 PUSH4 0x7F51BB1F PUSH1 0xE0 SHL SWAP8 DUP9 DUP4 MSTORE DUP10 PUSH1 0x4 DUP5 ADD MSTORE GAS CALL SWAP1 DUP2 ISZERO PUSH2 0x107F JUMPI DUP6 SWAP2 PUSH2 0x106B JUMPI JUMPDEST POP POP PUSH1 0x5 SLOAD AND SWAP2 DUP3 EXTCODESIZE ISZERO PUSH2 0x1066 JUMPI PUSH1 0x24 DUP5 SWAP3 DUP4 PUSH1 0x40 MLOAD SWAP6 DUP7 SWAP5 DUP6 SWAP4 DUP5 MSTORE PUSH1 0x4 DUP5 ADD MSTORE GAS CALL DUP1 ISZERO PUSH2 0x304 JUMPI PUSH2 0xC7D JUMPI POP RETURN JUMPDEST POP POP POP REVERT JUMPDEST PUSH2 0x1074 SWAP1 PUSH2 0x1AB5 JUMP JUMPDEST PUSH2 0x1066 JUMPI DUP4 CODESIZE PUSH2 0x1035 JUMP JUMPDEST PUSH1 0x40 MLOAD RETURNDATASIZE DUP8 DUP3 RETURNDATACOPY RETURNDATASIZE SWAP1 REVERT JUMPDEST PUSH1 0x64 PUSH1 0x40 MLOAD PUSH3 0x461BCD PUSH1 0xE5 SHL DUP2 MSTORE PUSH1 0x20 PUSH1 0x4 DUP3 ADD MSTORE PUSH1 0x20 PUSH1 0x24 DUP3 ADD MSTORE PUSH32 0x4C6F6F7046693A20496E76616C69642074726561737572792061646472657373 PUSH1 0x44 DUP3 ADD MSTORE REVERT JUMPDEST POP CALLVALUE PUSH2 0x248 JUMPI DUP1 PUSH1 0x3 NOT CALLDATASIZE ADD SLT PUSH2 0x248 JUMPI PUSH2 0x10E7 PUSH2 0x1D7F JUMP JUMPDEST PUSH1 0x1 DUP1 SLOAD PUSH1 0x1 PUSH1 0x1 PUSH1 0xA0 SHL SUB NOT DUP2 AND SWAP1 SWAP2 SSTORE PUSH1 0x0 SWAP1 PUSH1 0x1 PUSH1 0x1 PUSH1 0xA0 SHL SUB AND PUSH32 0x8BE0079C531659141344CD1FD0A4F28419497F9722A3DAAFE3B4186F6B6457E0 DUP3 DUP1 LOG3 DUP1 RETURN JUMPDEST POP PUSH1 0x20 DUP1 PUSH1 0x3 NOT CALLDATASIZE ADD SLT PUSH2 0x300 JUMPI PUSH8 0xFFFFFFFFFFFFFFFF PUSH1 0x4 CALLDATALOAD DUP2 DUP2 GT PUSH2 0xA05 JUMPI PUSH2 0x115B SWAP1 CALLDATASIZE SWAP1 PUSH1 0x4 ADD PUSH2 0x1C68 JUMP JUMPDEST SWAP1 PUSH1 0x2 DUP5 SLOAD EQ PUSH2 0x145E JUMPI PUSH1 0x2 DUP5 SSTORE CALLER DUP5 MSTORE PUSH1 0x3 DUP4 MSTORE PUSH1 0xFF PUSH1 0x40 DUP6 KECCAK256 SLOAD AND PUSH2 0x1419 JUMPI DUP2 MLOAD ISZERO PUSH2 0x13D4 JUMPI PUSH7 0x38D7EA4C68000 CALLVALUE LT PUSH2 0x1381 JUMPI CALLER DUP5 MSTORE PUSH1 0x2 DUP4 MSTORE PUSH1 0x40 DUP5 KECCAK256 SWAP1 DUP3 MLOAD SWAP1 DUP2 GT PUSH2 0x136D JUMPI PUSH2 0x11B0 DUP3 SLOAD PUSH2 0x1A7B JUMP JUMPDEST PUSH1 0x1F DUP2 GT PUSH2 0x132A JUMPI JUMPDEST POP DUP4 PUSH1 0x1F DUP3 GT PUSH1 0x1 EQ PUSH2 0x12C7 JUMPI SWAP1 DUP1 PUSH1 0x7 SWAP4 SWAP3 DUP8 SWAP2 PUSH2 0x12BC JUMPI JUMPDEST POP DUP2 PUSH1 0x1 SHL SWAP2 PUSH1 0x0 NOT SWAP1 PUSH1 0x3 SHL SHR NOT AND OR DUP2 SSTORE JUMPDEST DUP5 PUSH1 0x1 DUP3 ADD SSTORE DUP5 PUSH1 0x2 DUP3 ADD SSTORE DUP5 PUSH1 0x3 DUP3 ADD SSTORE DUP5 PUSH1 0x4 DUP3 ADD SSTORE DUP5 PUSH1 0x5 DUP3 ADD SSTORE TIMESTAMP PUSH1 0x6 DUP3 ADD SSTORE ADD PUSH1 0xFF NOT SWAP1 PUSH1 0x1 DUP3 DUP3 SLOAD AND OR SWAP1 SSTORE CALLER DUP5 MSTORE PUSH1 0x3 DUP4 MSTORE PUSH1 0x1 PUSH1 0x40 DUP6 KECCAK256 SWAP2 DUP3 SLOAD AND OR SWAP1 SSTORE PUSH2 0x1238 PUSH1 0xC SLOAD PUSH2 0x1DAB JUMP JUMPDEST PUSH1 0xC SSTORE DUP3 CALLVALUE ISZERO DUP1 ISZERO PUSH2 0x1289 JUMPI JUMPDEST POP POP PUSH2 0x127F PUSH32 0x48CAC28AD4DC618E15F4C2DD5E97751182F166DE97B25618318B2112AA951A2F SWAP2 PUSH1 0x40 MLOAD SWAP2 DUP3 SWAP2 DUP6 DUP4 MSTORE CALLER SWAP6 DUP4 ADD SWAP1 PUSH2 0x1BE0 JUMP JUMPDEST SUB SWAP1 LOG2 PUSH1 0x1 DUP2 SSTORE DUP1 RETURN JUMPDEST PUSH1 0xB SLOAD DUP3 SWAP2 DUP3 SWAP2 DUP3 SWAP2 DUP3 SWAP2 PUSH1 0x1 PUSH1 0x1 PUSH1 0xA0 SHL SUB AND SWAP1 PUSH2 0x12B2 JUMPI JUMPDEST CALLVALUE SWAP2 CALL ISZERO PUSH2 0x304 JUMPI DUP3 CODESIZE PUSH2 0x1245 JUMP JUMPDEST PUSH2 0x8FC SWAP2 POP PUSH2 0x12A3 JUMP JUMPDEST SWAP1 POP DUP5 ADD MLOAD CODESIZE PUSH2 0x11D3 JUMP JUMPDEST DUP3 DUP7 MSTORE DUP5 DUP7 KECCAK256 SWAP1 PUSH1 0x1F NOT DUP4 AND DUP8 JUMPDEST DUP8 DUP3 DUP3 LT PUSH2 0x1314 JUMPI POP POP SWAP2 DUP4 SWAP2 PUSH1 0x7 SWAP6 SWAP5 PUSH1 0x1 SWAP5 LT PUSH2 0x12FB JUMPI JUMPDEST POP POP DUP2 SHL ADD DUP2 SSTORE PUSH2 0x11E7 JUMP JUMPDEST DUP7 ADD MLOAD PUSH1 0x0 NOT PUSH1 0xF8 DUP5 PUSH1 0x3 SHL AND SHR NOT AND SWAP1 SSTORE CODESIZE DUP1 PUSH2 0x12EF JUMP JUMPDEST PUSH1 0x1 DUP5 SWAP6 DUP3 SWAP4 SWAP6 DUP11 ADD MLOAD DUP2 SSTORE ADD SWAP5 ADD SWAP3 ADD PUSH2 0x12D5 JUMP JUMPDEST DUP3 DUP7 MSTORE DUP5 DUP7 KECCAK256 PUSH1 0x1F DUP4 ADD PUSH1 0x5 SHR DUP2 ADD SWAP2 DUP7 DUP5 LT PUSH2 0x1363 JUMPI JUMPDEST PUSH1 0x1F ADD PUSH1 0x5 SHR ADD SWAP1 JUMPDEST DUP2 DUP2 LT PUSH2 0x1358 JUMPI POP PUSH2 0x11B9 JUMP JUMPDEST DUP7 DUP2 SSTORE PUSH1 0x1 ADD PUSH2 0x134B JUMP JUMPDEST SWAP1 SWAP2 POP DUP2 SWAP1 PUSH2 0x1342 JUMP JUMPDEST PUSH4 0x4E487B71 PUSH1 0xE0 SHL DUP6 MSTORE PUSH1 0x41 PUSH1 0x4 MSTORE PUSH1 0x24 DUP6 REVERT JUMPDEST PUSH1 0x40 MLOAD PUSH3 0x461BCD PUSH1 0xE5 SHL DUP2 MSTORE PUSH1 0x4 DUP2 ADD DUP5 SWAP1 MSTORE PUSH1 0x25 PUSH1 0x24 DUP3 ADD MSTORE PUSH32 0x4C6F6F7046693A20496E73756666696369656E7420726567697374726174696F PUSH1 0x44 DUP3 ADD MSTORE PUSH5 0x6E20666565 PUSH1 0xD8 SHL PUSH1 0x64 DUP3 ADD MSTORE PUSH1 0x84 SWAP1 REVERT JUMPDEST PUSH1 0x40 MLOAD PUSH3 0x461BCD PUSH1 0xE5 SHL DUP2 MSTORE PUSH1 0x4 DUP2 ADD DUP5 SWAP1 MSTORE PUSH1 0x19 PUSH1 0x24 DUP3 ADD MSTORE PUSH32 0x4C6F6F7046693A20557365726E616D6520726571756972656400000000000000 PUSH1 0x44 DUP3 ADD MSTORE PUSH1 0x64 SWAP1 REVERT JUMPDEST PUSH1 0x40 MLOAD PUSH3 0x461BCD PUSH1 0xE5 SHL DUP2 MSTORE PUSH1 0x4 DUP2 ADD DUP5 SWAP1 MSTORE PUSH1 0x1F PUSH1 0x24 DUP3 ADD MSTORE PUSH32 0x4C6F6F7046693A205573657220616C7265616479207265676973746572656400 PUSH1 0x44 DUP3 ADD MSTORE PUSH1 0x64 SWAP1 REVERT JUMPDEST PUSH1 0x40 MLOAD PUSH4 0x3EE5AEB5 PUSH1 0xE0 SHL DUP2 MSTORE PUSH1 0x4 SWAP1 REVERT JUMPDEST POP CALLVALUE PUSH2 0x248 JUMPI DUP1 PUSH1 0x3 NOT CALLDATASIZE ADD SLT PUSH2 0x248 JUMPI PUSH1 0x20 PUSH1 0x40 MLOAD PUSH7 0x38D7EA4C68000 DUP2 MSTORE RETURN JUMPDEST POP CALLVALUE PUSH2 0x248 JUMPI DUP1 PUSH1 0x3 NOT CALLDATASIZE ADD SLT PUSH2 0x248 JUMPI PUSH1 0xB SLOAD PUSH1 0x40 MLOAD PUSH1 0x1 PUSH1 0x1 PUSH1 0xA0 SHL SUB SWAP1 SWAP2 AND DUP2 MSTORE PUSH1 0x20 SWAP1 RETURN JUMPDEST POP CALLVALUE PUSH2 0x248 JUMPI PUSH1 0x20 CALLDATASIZE PUSH1 0x3 NOT ADD SLT PUSH2 0x248 JUMPI PUSH1 0x4 CALLDATALOAD DUP1 ISZERO ISZERO DUP1 SWAP2 SUB PUSH2 0xF68 JUMPI DUP2 SWAP1 CALLER DUP3 MSTORE PUSH1 0x3 PUSH1 0x20 MSTORE PUSH2 0x14F4 PUSH1 0xFF PUSH1 0x40 DUP5 KECCAK256 SLOAD AND PUSH2 0x1DD0 JUMP JUMPDEST PUSH1 0x4 SLOAD PUSH1 0x1 PUSH1 0x1 PUSH1 0xA0 SHL SUB AND SWAP1 DUP2 EXTCODESIZE ISZERO PUSH2 0x1560 JUMPI DUP3 SWAP2 PUSH1 0x24 DUP4 SWAP3 PUSH1 0x40 MLOAD SWAP5 DUP6 SWAP4 DUP5 SWAP3 PUSH4 0x2A042953 PUSH1 0xE2 SHL DUP5 MSTORE PUSH1 0x4 DUP5 ADD MSTORE GAS CALL DUP1 ISZERO PUSH2 0x304 JUMPI PUSH2 0x154C JUMPI JUMPDEST POP CALLER DUP2 MSTORE PUSH1 0x2 PUSH1 0x20 MSTORE PUSH1 0x3 PUSH1 0x40 DUP3 KECCAK256 ADD PUSH2 0x2E7 DUP2 SLOAD PUSH2 0x1DAB JUMP JUMPDEST PUSH2 0x1555 SWAP1 PUSH2 0x1AB5 JUMP JUMPDEST PUSH2 0x248 JUMPI DUP1 CODESIZE PUSH2 0x1532 JUMP JUMPDEST POP POP REVERT JUMPDEST POP CALLVALUE PUSH2 0x248 JUMPI DUP1 PUSH1 0x3 NOT CALLDATASIZE ADD SLT PUSH2 0x248 JUMPI PUSH1 0x20 PUSH1 0x40 MLOAD PUSH1 0xA DUP2 MSTORE RETURN JUMPDEST POP CALLVALUE PUSH2 0x248 JUMPI DUP1 PUSH1 0x3 NOT CALLDATASIZE ADD SLT PUSH2 0x248 JUMPI PUSH1 0x5 SLOAD PUSH1 0x40 MLOAD PUSH1 0x1 PUSH1 0x1 PUSH1 0xA0 SHL SUB SWAP1 SWAP2 AND DUP2 MSTORE PUSH1 0x20 SWAP1 RETURN JUMPDEST POP CALLVALUE PUSH2 0x248 JUMPI DUP1 PUSH1 0x3 NOT CALLDATASIZE ADD SLT PUSH2 0x248 JUMPI PUSH1 0x6 SLOAD PUSH1 0x40 MLOAD PUSH1 0x1 PUSH1 0x1 PUSH1 0xA0 SHL SUB SWAP1 SWAP2 AND DUP2 MSTORE PUSH1 0x20 SWAP1 RETURN JUMPDEST POP CALLVALUE PUSH2 0x248 JUMPI PUSH1 0x80 CALLDATASIZE PUSH1 0x3 NOT ADD SLT PUSH2 0x248 JUMPI PUSH1 0x24 CALLDATALOAD PUSH1 0x44 CALLDATALOAD DUP1 ISZERO ISZERO DUP1 SWAP2 SUB PUSH2 0xF68 JUMPI PUSH1 0x1 PUSH1 0x1 PUSH1 0xA0 SHL SUB SWAP1 PUSH1 0x64 CALLDATALOAD DUP3 DUP2 AND SWAP2 SWAP1 DUP3 SWAP1 SUB PUSH2 0xF68 JUMPI DUP5 SWAP3 CALLER DUP5 MSTORE PUSH1 0x3 PUSH1 0x20 MSTORE PUSH2 0x1626 PUSH1 0xFF PUSH1 0x40 DUP7 KECCAK256 SLOAD AND PUSH2 0x1DD0 JUMP JUMPDEST PUSH1 0x5 SLOAD AND SWAP2 DUP3 EXTCODESIZE ISZERO PUSH2 0xA05 JUMPI PUSH1 0x84 DUP5 SWAP3 DUP4 PUSH1 0x40 MLOAD SWAP6 DUP7 SWAP5 DUP6 SWAP4 PUSH4 0x8161D781 PUSH1 0xE0 SHL DUP6 MSTORE PUSH1 0x4 CALLDATALOAD PUSH1 0x4 DUP7 ADD MSTORE DUP11 PUSH1 0x24 DUP7 ADD MSTORE PUSH1 0x44 DUP6 ADD MSTORE PUSH1 0x64 DUP5 ADD MSTORE GAS CALL DUP1 ISZERO PUSH2 0x304 JUMPI PUSH2 0x169B JUMPI JUMPDEST POP PUSH1 0x4 DUP3 CALLER DUP4 MSTORE PUSH1 0x2 PUSH1 0x20 MSTORE PUSH1 0x40 DUP4 KECCAK256 SWAP1 PUSH2 0x168E PUSH1 0x1 DUP4 ADD SWAP2 DUP3 SLOAD PUSH2 0x1E1C JUMP JUMPDEST SWAP1 SSTORE ADD PUSH2 0x2E7 DUP2 SLOAD PUSH2 0x1DAB JUMP JUMPDEST PUSH2 0x16A4 SWAP1 PUSH2 0x1AB5 JUMP JUMPDEST PUSH2 0x300 JUMPI DUP2 CODESIZE PUSH2 0x166E JUMP JUMPDEST POP CALLVALUE PUSH2 0x248 JUMPI PUSH1 0x40 CALLDATASIZE PUSH1 0x3 NOT ADD SLT PUSH2 0x248 JUMPI DUP1 PUSH2 0x16CA PUSH2 0x1C59 JUMP JUMPDEST CALLER DUP3 MSTORE PUSH1 0x3 PUSH1 0x20 MSTORE PUSH2 0x16E2 PUSH1 0xFF PUSH1 0x40 DUP5 KECCAK256 SLOAD AND PUSH2 0x1DD0 JUMP JUMPDEST PUSH1 0x5 SLOAD PUSH1 0x1 PUSH1 0x1 PUSH1 0xA0 SHL SUB AND SWAP1 DUP2 EXTCODESIZE ISZERO PUSH2 0x1560 JUMPI PUSH1 0x40 MLOAD PUSH4 0x2837BFAF PUSH1 0xE1 SHL DUP2 MSTORE PUSH1 0x4 DUP1 CALLDATALOAD SWAP1 DUP3 ADD MSTORE SWAP1 ISZERO ISZERO PUSH1 0x24 DUP3 ADD MSTORE SWAP2 SWAP1 DUP3 SWAP1 PUSH1 0x44 SWAP1 DUP3 SWAP1 DUP5 SWAP1 GAS CALL DUP1 ISZERO PUSH2 0x304 JUMPI PUSH2 0x172E JUMPI POP DUP1 RETURN JUMPDEST PUSH2 0x3A1 SWAP1 PUSH2 0x1AB5 JUMP JUMPDEST POP CALLVALUE PUSH2 0x248 JUMPI PUSH1 0x20 SWAP1 DUP2 PUSH1 0x3 NOT CALLDATASIZE ADD SLT PUSH2 0x248 JUMPI PUSH2 0x1753 PUSH2 0x1C20 JUMP JUMPDEST PUSH1 0x6 SLOAD PUSH1 0x40 MLOAD PUSH4 0x1BE122FF PUSH1 0xE1 SHL DUP2 MSTORE PUSH1 0x1 PUSH1 0x1 PUSH1 0xA0 SHL SUB SWAP3 DUP4 AND PUSH1 0x4 DUP3 ADD MSTORE SWAP3 SWAP2 DUP3 SWAP2 DUP5 SWAP2 PUSH1 0x24 SWAP2 DUP4 SWAP2 AND GAS STATICCALL SWAP2 DUP3 ISZERO PUSH2 0x187A JUMPI DUP2 SWAP3 PUSH2 0x17E2 JUMPI JUMPDEST POP SWAP2 SWAP1 PUSH1 0x40 MLOAD SWAP3 DUP3 DUP5 SWAP4 DUP5 ADD SWAP1 DUP1 DUP6 MSTORE DUP4 MLOAD DUP1 SWAP3 MSTORE DUP1 PUSH1 0x40 DUP7 ADD SWAP5 ADD SWAP3 JUMPDEST DUP3 DUP2 LT PUSH2 0x17BC JUMPI POP POP POP POP SUB SWAP1 RETURN JUMPDEST SWAP2 SWAP4 DUP4 SWAP6 POP SWAP1 DUP1 DUP3 PUSH2 0x17D2 PUSH1 0x1 SWAP5 DUP4 SWAP8 MLOAD PUSH2 0x1C36 JUMP JUMPDEST ADD SWAP6 ADD SWAP2 ADD SWAP2 DUP6 SWAP5 SWAP4 SWAP2 SWAP3 PUSH2 0x17AD JUMP JUMPDEST SWAP1 SWAP2 POP RETURNDATASIZE DUP1 DUP4 DUP4 RETURNDATACOPY PUSH2 0x17F4 DUP2 DUP4 PUSH2 0x1B18 JUMP JUMPDEST DUP2 ADD SWAP1 DUP4 DUP2 DUP4 SUB SLT PUSH2 0x30F JUMPI DUP1 MLOAD SWAP1 PUSH8 0xFFFFFFFFFFFFFFFF DUP3 GT PUSH2 0xA05 JUMPI ADD SWAP1 DUP1 PUSH1 0x1F DUP4 ADD SLT ISZERO PUSH2 0x30F JUMPI DUP2 MLOAD PUSH2 0x182A DUP2 PUSH2 0x1EB8 JUMP JUMPDEST SWAP3 PUSH2 0x1838 PUSH1 0x40 MLOAD SWAP5 DUP6 PUSH2 0x1B18 JUMP JUMPDEST DUP2 DUP5 MSTORE DUP6 DUP1 DUP6 ADD SWAP3 PUSH1 0x5 SHL DUP3 ADD ADD SWAP3 DUP4 GT PUSH2 0x718 JUMPI DUP6 ADD SWAP1 JUMPDEST DUP3 DUP3 LT PUSH2 0x1862 JUMPI POP POP POP SWAP1 CODESIZE PUSH2 0x178F JUMP JUMPDEST DUP2 MLOAD PUSH1 0xA DUP2 LT ISZERO PUSH2 0xB02 JUMPI DUP2 MSTORE SWAP1 DUP6 ADD SWAP1 DUP6 ADD PUSH2 0x1851 JUMP JUMPDEST POP PUSH1 0x40 MLOAD SWAP1 RETURNDATASIZE SWAP1 DUP3 RETURNDATACOPY RETURNDATASIZE SWAP1 REVERT JUMPDEST POP CALLVALUE PUSH2 0x248 JUMPI PUSH1 0x20 CALLDATASIZE PUSH1 0x3 NOT ADD SLT PUSH2 0x248 JUMPI PUSH2 0x1901 SWAP1 PUSH1 0x40 SWAP1 PUSH1 0x1 PUSH1 0x1 PUSH1 0xA0 SHL SUB PUSH2 0x18B0 PUSH2 0x1C20 JUMP JUMPDEST AND DUP2 MSTORE PUSH1 0x2 PUSH1 0x20 MSTORE KECCAK256 PUSH2 0x18C2 DUP2 PUSH2 0x1B3A JUMP JUMPDEST SWAP1 PUSH1 0x1 DUP2 ADD SLOAD SWAP1 PUSH1 0x2 DUP2 ADD SLOAD SWAP1 PUSH1 0x3 DUP2 ADD SLOAD PUSH1 0x4 DUP3 ADD SLOAD PUSH1 0x5 DUP4 ADD SLOAD SWAP2 PUSH1 0xFF PUSH1 0x7 PUSH1 0x6 DUP7 ADD SLOAD SWAP6 ADD SLOAD AND SWAP5 PUSH1 0x40 MLOAD SWAP9 DUP10 SWAP9 PUSH2 0x100 DUP1 DUP12 MSTORE DUP11 ADD SWAP1 PUSH2 0x1BE0 JUMP JUMPDEST SWAP7 PUSH1 0x20 DUP10 ADD MSTORE PUSH1 0x40 DUP9 ADD MSTORE PUSH1 0x60 DUP8 ADD MSTORE PUSH1 0x80 DUP7 ADD MSTORE PUSH1 0xA0 DUP6 ADD MSTORE PUSH1 0xC0 DUP5 ADD MSTORE ISZERO ISZERO PUSH1 0xE0 DUP4 ADD MSTORE SUB SWAP1 RETURN JUMPDEST POP CALLVALUE PUSH2 0x248 JUMPI PUSH1 0x20 CALLDATASIZE PUSH1 0x3 NOT ADD SLT PUSH2 0x248 JUMPI PUSH1 0x20 SWAP1 PUSH1 0x40 SWAP1 PUSH1 0x1 PUSH1 0x1 PUSH1 0xA0 SHL SUB PUSH2 0x1953 PUSH2 0x1C20 JUMP JUMPDEST AND DUP2 MSTORE PUSH1 0xA DUP4 MSTORE KECCAK256 SLOAD PUSH1 0x40 MLOAD SWAP1 DUP2 MSTORE RETURN JUMPDEST POP CALLVALUE PUSH2 0x248 JUMPI PUSH1 0x20 CALLDATASIZE PUSH1 0x3 NOT ADD SLT PUSH2 0x248 JUMPI PUSH1 0x20 SWAP1 PUSH1 0xFF SWAP1 PUSH1 0x40 SWAP1 PUSH1 0x1 PUSH1 0x1 PUSH1 0xA0 SHL SUB PUSH2 0x198F PUSH2 0x1C20 JUMP JUMPDEST AND DUP2 MSTORE PUSH1 0x3 DUP5 MSTORE KECCAK256 SLOAD AND PUSH1 0x40 MLOAD SWAP1 ISZERO ISZERO DUP2 MSTORE RETURN JUMPDEST POP CALLVALUE PUSH2 0x248 JUMPI PUSH1 0x20 CALLDATASIZE PUSH1 0x3 NOT ADD SLT PUSH2 0x248 JUMPI PUSH1 0x4 CALLDATALOAD PUSH1 0x9 SLOAD DUP2 LT ISZERO PUSH2 0x300 JUMPI PUSH2 0x19CB SWAP1 PUSH2 0x1A2A JUMP JUMPDEST POP DUP1 SLOAD PUSH1 0x1 PUSH1 0x1 PUSH1 0xA0 SHL SUB AND PUSH2 0x19E3 PUSH1 0x1 DUP4 ADD PUSH2 0x1B3A JUMP JUMPDEST SWAP2 PUSH1 0x2 DUP2 ADD SLOAD SWAP1 PUSH1 0x4 PUSH1 0xFF PUSH1 0x3 DUP4 ADD SLOAD AND SWAP2 ADD SLOAD SWAP1 PUSH2 0x1A14 PUSH1 0x40 MLOAD SWAP6 DUP7 SWAP6 DUP7 MSTORE PUSH1 0xA0 PUSH1 0x20 DUP8 ADD MSTORE PUSH1 0xA0 DUP7 ADD SWAP1 PUSH2 0x1BE0 JUMP JUMPDEST SWAP3 PUSH1 0x40 DUP6 ADD MSTORE ISZERO ISZERO PUSH1 0x60 DUP5 ADD MSTORE PUSH1 0x80 DUP4 ADD MSTORE SUB SWAP1 RETURN JUMPDEST PUSH1 0x9 SLOAD DUP2 LT ISZERO PUSH2 0x1A65 JUMPI PUSH1 0x5 SWAP1 PUSH1 0x9 PUSH1 0x0 MSTORE MUL PUSH32 0x6E1540171B6C0C960B71A7020D9F60077F6AF931A8BBF590DA0223DACF75C7AF ADD SWAP1 PUSH1 0x0 SWAP1 JUMP JUMPDEST PUSH4 0x4E487B71 PUSH1 0xE0 SHL PUSH1 0x0 MSTORE PUSH1 0x32 PUSH1 0x4 MSTORE PUSH1 0x24 PUSH1 0x0 REVERT JUMPDEST SWAP1 PUSH1 0x1 DUP3 DUP2 SHR SWAP3 AND DUP1 ISZERO PUSH2 0x1AAB JUMPI JUMPDEST PUSH1 0x20 DUP4 LT EQ PUSH2 0x1A95 JUMPI JUMP JUMPDEST PUSH4 0x4E487B71 PUSH1 0xE0 SHL PUSH1 0x0 MSTORE PUSH1 0x22 PUSH1 0x4 MSTORE PUSH1 0x24 PUSH1 0x0 REVERT JUMPDEST SWAP2 PUSH1 0x7F AND SWAP2 PUSH2 0x1A8A JUMP JUMPDEST PUSH8 0xFFFFFFFFFFFFFFFF DUP2 GT PUSH2 0x1AC9 JUMPI PUSH1 0x40 MSTORE JUMP JUMPDEST PUSH4 0x4E487B71 PUSH1 0xE0 SHL PUSH1 0x0 MSTORE PUSH1 0x41 PUSH1 0x4 MSTORE PUSH1 0x24 PUSH1 0x0 REVERT JUMPDEST PUSH2 0x100 DUP2 ADD SWAP1 DUP2 LT PUSH8 0xFFFFFFFFFFFFFFFF DUP3 GT OR PUSH2 0x1AC9 JUMPI PUSH1 0x40 MSTORE JUMP JUMPDEST PUSH1 0xA0 DUP2 ADD SWAP1 DUP2 LT PUSH8 0xFFFFFFFFFFFFFFFF DUP3 GT OR PUSH2 0x1AC9 JUMPI PUSH1 0x40 MSTORE JUMP JUMPDEST SWAP1 PUSH1 0x1F DUP1 NOT SWAP2 ADD AND DUP2 ADD SWAP1 DUP2 LT PUSH8 0xFFFFFFFFFFFFFFFF DUP3 GT OR PUSH2 0x1AC9 JUMPI PUSH1 0x40 MSTORE JUMP JUMPDEST SWAP1 PUSH1 0x40 MLOAD SWAP2 DUP3 PUSH1 0x0 DUP3 SLOAD SWAP3 PUSH2 0x1B4E DUP5 PUSH2 0x1A7B JUMP JUMPDEST SWAP1 DUP2 DUP5 MSTORE PUSH1 0x1 SWAP5 DUP6 DUP2 AND SWAP1 DUP2 PUSH1 0x0 EQ PUSH2 0x1BBD JUMPI POP PUSH1 0x1 EQ PUSH2 0x1B7A JUMPI JUMPDEST POP POP PUSH2 0x1B78 SWAP3 POP SUB DUP4 PUSH2 0x1B18 JUMP JUMPDEST JUMP JUMPDEST SWAP1 SWAP4 SWAP2 POP PUSH1 0x0 MSTORE PUSH1 0x20 SWAP1 DUP2 PUSH1 0x0 KECCAK256 SWAP4 PUSH1 0x0 SWAP2 JUMPDEST DUP2 DUP4 LT PUSH2 0x1BA5 JUMPI POP POP PUSH2 0x1B78 SWAP4 POP DUP3 ADD ADD CODESIZE DUP1 PUSH2 0x1B6A JUMP JUMPDEST DUP6 SLOAD DUP9 DUP5 ADD DUP6 ADD MSTORE SWAP5 DUP6 ADD SWAP5 DUP8 SWAP5 POP SWAP2 DUP4 ADD SWAP2 PUSH2 0x1B8D JUMP JUMPDEST SWAP2 POP POP PUSH2 0x1B78 SWAP5 POP PUSH1 0x20 SWAP3 POP PUSH1 0xFF NOT AND DUP3 DUP5 ADD MSTORE ISZERO ISZERO PUSH1 0x5 SHL DUP3 ADD ADD CODESIZE DUP1 PUSH2 0x1B6A JUMP JUMPDEST SWAP2 SWAP1 DUP3 MLOAD SWAP3 DUP4 DUP3 MSTORE PUSH1 0x0 JUMPDEST DUP5 DUP2 LT PUSH2 0x1C0C JUMPI POP POP DUP3 PUSH1 0x0 PUSH1 0x20 DUP1 SWAP5 SWAP6 DUP5 ADD ADD MSTORE PUSH1 0x1F DUP1 NOT SWAP2 ADD AND ADD ADD SWAP1 JUMP JUMPDEST PUSH1 0x20 DUP2 DUP4 ADD DUP2 ADD MLOAD DUP5 DUP4 ADD DUP3 ADD MSTORE ADD PUSH2 0x1BEB JUMP JUMPDEST PUSH1 0x4 CALLDATALOAD SWAP1 PUSH1 0x1 PUSH1 0x1 PUSH1 0xA0 SHL SUB DUP3 AND DUP3 SUB PUSH2 0xF68 JUMPI JUMP JUMPDEST SWAP1 PUSH1 0xA DUP3 LT ISZERO PUSH2 0x1C43 JUMPI MSTORE JUMP JUMPDEST PUSH4 0x4E487B71 PUSH1 0xE0 SHL PUSH1 0x0 MSTORE PUSH1 0x21 PUSH1 0x4 MSTORE PUSH1 0x24 PUSH1 0x0 REVERT JUMPDEST PUSH1 0x24 CALLDATALOAD SWAP1 DUP2 ISZERO ISZERO DUP3 SUB PUSH2 0xF68 JUMPI JUMP JUMPDEST DUP2 PUSH1 0x1F DUP3 ADD SLT ISZERO PUSH2 0xF68 JUMPI DUP1 CALLDATALOAD SWAP1 PUSH8 0xFFFFFFFFFFFFFFFF DUP3 GT PUSH2 0x1AC9 JUMPI PUSH1 0x40 MLOAD SWAP3 PUSH2 0x1C9D PUSH1 0x1F DUP5 ADD PUSH1 0x1F NOT AND PUSH1 0x20 ADD DUP6 PUSH2 0x1B18 JUMP JUMPDEST DUP3 DUP5 MSTORE PUSH1 0x20 DUP4 DUP4 ADD ADD GT PUSH2 0xF68 JUMPI DUP2 PUSH1 0x0 SWAP3 PUSH1 0x20 DUP1 SWAP4 ADD DUP4 DUP7 ADD CALLDATACOPY DUP4 ADD ADD MSTORE SWAP1 JUMP JUMPDEST PUSH1 0x60 SWAP1 PUSH1 0x3 NOT ADD SLT PUSH2 0xF68 JUMPI PUSH1 0x4 CALLDATALOAD SWAP1 PUSH1 0x24 CALLDATALOAD SWAP1 PUSH1 0x44 CALLDATALOAD DUP1 ISZERO ISZERO DUP2 SUB PUSH2 0xF68 JUMPI SWAP1 JUMP JUMPDEST PUSH1 0x20 DUP1 DUP3 ADD SWAP1 DUP1 DUP4 MSTORE DUP4 MLOAD DUP1 SWAP3 MSTORE PUSH1 0x40 SWAP3 DUP4 DUP2 ADD DUP3 DUP6 DUP6 PUSH1 0x5 SHL DUP5 ADD ADD SWAP7 ADD SWAP5 PUSH1 0x0 SWAP3 JUMPDEST DUP6 DUP5 LT PUSH2 0x1D17 JUMPI POP POP POP POP POP POP POP SWAP1 JUMP JUMPDEST SWAP1 SWAP2 SWAP3 SWAP4 SWAP5 SWAP6 SWAP7 DUP6 DUP1 PUSH1 0x1 SWAP3 PUSH1 0x3F NOT DUP6 DUP3 SUB ADD DUP8 MSTORE DUP11 MLOAD SWAP1 DUP5 DUP1 PUSH1 0xA0 SHL SUB DUP3 MLOAD AND DUP2 MSTORE PUSH2 0x1D50 DUP4 DUP4 ADD MLOAD PUSH1 0xA0 DUP1 DUP7 DUP6 ADD MSTORE DUP4 ADD SWAP1 PUSH2 0x1BE0 JUMP JUMPDEST SWAP2 DUP8 DUP2 ADD MLOAD DUP9 DUP4 ADD MSTORE PUSH1 0x60 DUP1 DUP3 ADD MLOAD ISZERO ISZERO SWAP1 DUP4 ADD MSTORE PUSH1 0x80 DUP1 SWAP2 ADD MLOAD SWAP2 ADD MSTORE SWAP10 ADD SWAP5 ADD SWAP5 ADD SWAP3 SWAP6 SWAP5 SWAP4 SWAP2 SWAP1 PUSH2 0x1D06 JUMP JUMPDEST PUSH1 0x1 SLOAD PUSH1 0x1 PUSH1 0x1 PUSH1 0xA0 SHL SUB AND CALLER SUB PUSH2 0x1D93 JUMPI JUMP JUMPDEST PUSH1 0x40 MLOAD PUSH4 0x118CDAA7 PUSH1 0xE0 SHL DUP2 MSTORE CALLER PUSH1 0x4 DUP3 ADD MSTORE PUSH1 0x24 SWAP1 REVERT JUMPDEST PUSH1 0x0 NOT DUP2 EQ PUSH2 0x1DBA JUMPI PUSH1 0x1 ADD SWAP1 JUMP JUMPDEST PUSH4 0x4E487B71 PUSH1 0xE0 SHL PUSH1 0x0 MSTORE PUSH1 0x11 PUSH1 0x4 MSTORE PUSH1 0x24 PUSH1 0x0 REVERT JUMPDEST ISZERO PUSH2 0x1DD7 JUMPI JUMP JUMPDEST PUSH1 0x40 MLOAD PUSH3 0x461BCD PUSH1 0xE5 SHL DUP2 MSTORE PUSH1 0x20 PUSH1 0x4 DUP3 ADD MSTORE PUSH1 0x1B PUSH1 0x24 DUP3 ADD MSTORE PUSH32 0x4C6F6F7046693A2055736572206E6F7420726567697374657265640000000000 PUSH1 0x44 DUP3 ADD MSTORE PUSH1 0x64 SWAP1 REVERT JUMPDEST SWAP2 SWAP1 DUP3 ADD DUP1 SWAP3 GT PUSH2 0x1DBA JUMPI JUMP JUMPDEST ISZERO PUSH2 0x1E30 JUMPI JUMP JUMPDEST PUSH1 0x40 MLOAD PUSH3 0x461BCD PUSH1 0xE5 SHL DUP2 MSTORE PUSH1 0x20 PUSH1 0x4 DUP3 ADD MSTORE PUSH1 0x14 PUSH1 0x24 DUP3 ADD MSTORE PUSH20 0x98DEDEE08CD2744082A0B240E8DEDE40D0D2CED PUSH1 0x63 SHL PUSH1 0x44 DUP3 ADD MSTORE PUSH1 0x64 SWAP1 REVERT JUMPDEST ISZERO PUSH2 0x1E73 JUMPI JUMP JUMPDEST PUSH1 0x40 MLOAD PUSH3 0x461BCD PUSH1 0xE5 SHL DUP2 MSTORE PUSH1 0x20 PUSH1 0x4 DUP3 ADD MSTORE PUSH1 0x1E PUSH1 0x24 DUP3 ADD MSTORE PUSH32 0x4C6F6F7046693A20496E76616C6964207969656C642073747261746567790000 PUSH1 0x44 DUP3 ADD MSTORE PUSH1 0x64 SWAP1 REVERT JUMPDEST PUSH8 0xFFFFFFFFFFFFFFFF DUP2 GT PUSH2 0x1AC9 JUMPI PUSH1 0x5 SHL PUSH1 0x20 ADD SWAP1 JUMP JUMPDEST SWAP1 PUSH1 0x40 MLOAD PUSH2 0x1EDD DUP2 PUSH2 0x1AFC JUMP JUMPDEST DUP3 SLOAD PUSH1 0x1 PUSH1 0x1 PUSH1 0xA0 SHL SUB AND DUP2 MSTORE SWAP2 DUP3 SWAP1 PUSH1 0x80 SWAP1 PUSH1 0x4 SWAP1 PUSH2 0x1EFF PUSH1 0x1 DUP3 ADD PUSH2 0x1B3A JUMP JUMPDEST PUSH1 0x20 DUP6 ADD MSTORE PUSH1 0x2 DUP2 ADD SLOAD PUSH1 0x40 DUP6 ADD MSTORE PUSH1 0xFF PUSH1 0x3 DUP3 ADD SLOAD AND ISZERO ISZERO PUSH1 0x60 DUP6 ADD MSTORE ADD SLOAD SWAP2 ADD MSTORE JUMP JUMPDEST SWAP1 PUSH2 0x1F2E DUP3 PUSH2 0x1EB8 JUMP JUMPDEST PUSH1 0x40 SWAP1 PUSH2 0x1F3D DUP3 MLOAD SWAP2 DUP3 PUSH2 0x1B18 JUMP JUMPDEST DUP4 DUP2 MSTORE DUP1 SWAP4 PUSH2 0x1F4E PUSH1 0x1F NOT SWAP2 PUSH2 0x1EB8 JUMP JUMPDEST ADD SWAP2 PUSH1 0x0 JUMPDEST DUP4 DUP2 LT PUSH2 0x1F60 JUMPI POP POP POP POP JUMP JUMPDEST PUSH1 0x20 SWAP1 DUP3 MLOAD PUSH2 0x1F6E DUP2 PUSH2 0x1AFC JUMP JUMPDEST PUSH1 0x0 DUP2 MSTORE PUSH1 0x60 PUSH1 0x0 DUP5 SWAP2 DUP1 DUP4 DUP6 ADD MSTORE DUP2 DUP8 DUP6 ADD MSTORE DUP4 ADD MSTORE PUSH1 0x0 PUSH1 0x80 DUP4 ADD MSTORE DUP3 DUP7 ADD ADD MSTORE ADD PUSH2 0x1F53 JUMP JUMPDEST DUP1 MLOAD DUP3 LT ISZERO PUSH2 0x1A65 JUMPI PUSH1 0x20 SWAP2 PUSH1 0x5 SHL ADD ADD SWAP1 JUMP INVALID LOG2 PUSH5 0x6970667358 0x22 SLT KECCAK256 0xD9 LOG3 0xC1 DUP14 0xA5 MOD JUMP LOG2 CALL PUSH9 0xEDEEA2619B0B5B8B7B SAR GASLIMIT EXTCODECOPY PUSH1 0x4D SWAP9 0xBE 0xAA PUSH24 0x978DA61764736F6C634300081400336080346200011A5760 0x1F PUSH3 0x2422 CODESIZE DUP2 SWAP1 SUB SWAP2 DUP3 ADD PUSH1 0x1F NOT AND DUP4 ADD SWAP2 PUSH1 0x1 PUSH1 0x1 PUSH1 0x40 SHL SUB DUP4 GT DUP5 DUP5 LT OR PUSH3 0x11F JUMPI DUP1 DUP5 SWAP3 PUSH1 0x60 SWAP5 PUSH1 0x40 MSTORE DUP4 CODECOPY DUP2 ADD SUB SLT PUSH3 0x11A JUMPI PUSH3 0x4D DUP2 PUSH3 0x135 JUMP JUMPDEST PUSH3 0x69 PUSH1 0x40 PUSH3 0x61 PUSH1 0x20 DUP6 ADD PUSH3 0x135 JUMP JUMPDEST SWAP4 ADD PUSH3 0x135 JUMP JUMPDEST SWAP1 PUSH1 0x1 PUSH1 0x0 SSTORE CALLER ISZERO PUSH3 0x101 JUMPI PUSH1 0x1 DUP1 SLOAD PUSH1 0x1 PUSH1 0x1 PUSH1 0xA0 SHL SUB NOT DUP1 DUP3 AND CALLER SWAP1 DUP2 OR SWAP1 SWAP4 SSTORE PUSH1 0x40 MLOAD SWAP6 SWAP1 SWAP5 PUSH1 0x1 PUSH1 0x1 PUSH1 0xA0 SHL SUB SWAP5 SWAP1 SWAP4 DUP6 SWAP4 DUP5 SWAP3 SWAP2 SWAP1 DUP4 AND PUSH32 0x8BE0079C531659141344CD1FD0A4F28419497F9722A3DAAFE3B4186F6B6457E0 PUSH1 0x0 DUP1 LOG3 PUSH1 0x1 PUSH1 0x7 SSTORE PUSH2 0x3E8 PUSH1 0x8 SSTORE AND DUP6 PUSH1 0x5 SLOAD AND OR PUSH1 0x5 SSTORE AND DUP4 PUSH1 0x6 SLOAD AND OR PUSH1 0x6 SSTORE AND SWAP1 PUSH1 0x9 SLOAD AND OR PUSH1 0x9 SSTORE PUSH2 0x22D7 SWAP1 DUP2 PUSH3 0x14B DUP3 CODECOPY RETURN JUMPDEST PUSH1 0x40 MLOAD PUSH4 0x1E4FBDF7 PUSH1 0xE0 SHL DUP2 MSTORE PUSH1 0x0 PUSH1 0x4 DUP3 ADD MSTORE PUSH1 0x24 SWAP1 REVERT JUMPDEST PUSH1 0x0 DUP1 REVERT JUMPDEST PUSH4 0x4E487B71 PUSH1 0xE0 SHL PUSH1 0x0 MSTORE PUSH1 0x41 PUSH1 0x4 MSTORE PUSH1 0x24 PUSH1 0x0 REVERT JUMPDEST MLOAD SWAP1 PUSH1 0x1 PUSH1 0x1 PUSH1 0xA0 SHL SUB DUP3 AND DUP3 SUB PUSH3 0x11A JUMPI JUMP INVALID PUSH1 0x80 DUP1 PUSH1 0x40 MSTORE PUSH1 0x4 CALLDATASIZE LT ISZERO PUSH2 0x13 JUMPI PUSH1 0x0 DUP1 REVERT JUMPDEST PUSH1 0x0 CALLDATALOAD PUSH1 0xE0 SHR SWAP1 DUP2 PUSH4 0x4553111 EQ PUSH2 0x1C0B JUMPI POP DUP1 PUSH4 0x68BCD8D EQ PUSH2 0x1B49 JUMPI DUP1 PUSH4 0xC5E72C0 EQ PUSH2 0xDA4 JUMPI DUP1 PUSH4 0x1064AA55 EQ PUSH2 0x1AF0 JUMPI DUP1 PUSH4 0x18E56131 EQ PUSH2 0x1AD2 JUMPI DUP1 PUSH4 0x1E67939E EQ PUSH2 0x19FF JUMPI DUP1 PUSH4 0x2D380CCA EQ PUSH2 0x1987 JUMPI DUP1 PUSH4 0x3DC55B71 EQ PUSH2 0x136F JUMPI DUP1 PUSH4 0x4F1BFC9E EQ PUSH2 0x1350 JUMPI DUP1 PUSH4 0x506F7F5E EQ PUSH2 0xF61 JUMPI DUP1 PUSH4 0x61D027B3 EQ PUSH2 0xF38 JUMPI DUP1 PUSH4 0x62D4F29A EQ PUSH2 0xF1C JUMPI DUP1 PUSH4 0x715018A6 EQ PUSH2 0xEBF JUMPI DUP1 PUSH4 0x78B4330F EQ PUSH2 0xEA1 JUMPI DUP1 PUSH4 0x7D293916 EQ PUSH2 0xE7E JUMPI DUP1 PUSH4 0x7DBB6876 EQ PUSH2 0xE60 JUMPI DUP1 PUSH4 0x7F51BB1F EQ PUSH2 0xDC7 JUMPI DUP1 PUSH4 0x7FEA355B EQ PUSH2 0xDA9 JUMPI DUP1 PUSH4 0x7FEE9D26 EQ PUSH2 0xDA4 JUMPI DUP1 PUSH4 0x8161D781 EQ PUSH2 0x8CC JUMPI DUP1 PUSH4 0x8DA5CB5B EQ PUSH2 0x8A3 JUMPI DUP1 PUSH4 0x9816AF58 EQ PUSH2 0x81F JUMPI DUP1 PUSH4 0xAC4AFA38 EQ PUSH2 0x779 JUMPI DUP1 PUSH4 0xB1219E73 EQ PUSH2 0x6A1 JUMPI DUP1 PUSH4 0xB7323881 EQ PUSH2 0x67C JUMPI DUP1 PUSH4 0xBBEF6F90 EQ PUSH2 0x624 JUMPI DUP1 PUSH4 0xC59D4847 EQ PUSH2 0x527 JUMPI DUP1 PUSH4 0xCAE07843 EQ PUSH2 0x4FE JUMPI DUP1 PUSH4 0xD9A67220 EQ PUSH2 0x4E2 JUMPI DUP1 PUSH4 0xE22D551A EQ PUSH2 0x4B9 JUMPI DUP1 PUSH4 0xEA0E35B1 EQ PUSH2 0x49D JUMPI DUP1 PUSH4 0xF2B907D3 EQ PUSH2 0x292 JUMPI DUP1 PUSH4 0xF2FDE38B EQ PUSH2 0x209 JUMPI PUSH4 0xFAE728CD EQ PUSH2 0x195 JUMPI PUSH1 0x0 DUP1 REVERT JUMPDEST CALLVALUE PUSH2 0x204 JUMPI PUSH1 0x20 CALLDATASIZE PUSH1 0x3 NOT ADD SLT PUSH2 0x204 JUMPI PUSH1 0x4 CALLDATALOAD PUSH2 0x1B1 PUSH2 0x1EF6 JUMP JUMPDEST PUSH2 0x7D0 DUP2 GT PUSH2 0x1BF JUMPI PUSH1 0x8 SSTORE STOP JUMPDEST PUSH1 0x40 MLOAD PUSH3 0x461BCD PUSH1 0xE5 SHL DUP2 MSTORE PUSH1 0x20 PUSH1 0x4 DUP3 ADD MSTORE PUSH1 0x17 PUSH1 0x24 DUP3 ADD MSTORE PUSH32 0x47726F7570506F6F6C3A2041505920746F6F2068696768000000000000000000 PUSH1 0x44 DUP3 ADD MSTORE PUSH1 0x64 SWAP1 REVERT JUMPDEST PUSH1 0x0 DUP1 REVERT JUMPDEST CALLVALUE PUSH2 0x204 JUMPI PUSH1 0x20 CALLDATASIZE PUSH1 0x3 NOT ADD SLT PUSH2 0x204 JUMPI PUSH2 0x222 PUSH2 0x1D0F JUMP JUMPDEST PUSH2 0x22A PUSH2 0x1EF6 JUMP JUMPDEST PUSH1 0x1 PUSH1 0x1 PUSH1 0xA0 SHL SUB SWAP1 DUP2 AND SWAP1 DUP2 ISZERO PUSH2 0x279 JUMPI PUSH1 0x1 SLOAD DUP3 PUSH1 0x1 PUSH1 0x1 PUSH1 0x60 SHL SUB PUSH1 0xA0 SHL DUP3 AND OR PUSH1 0x1 SSTORE AND PUSH32 0x8BE0079C531659141344CD1FD0A4F28419497F9722A3DAAFE3B4186F6B6457E0 PUSH1 0x0 DUP1 LOG3 STOP JUMPDEST PUSH1 0x40 MLOAD PUSH4 0x1E4FBDF7 PUSH1 0xE0 SHL DUP2 MSTORE PUSH1 0x0 PUSH1 0x4 DUP3 ADD MSTORE PUSH1 0x24 SWAP1 REVERT JUMPDEST CALLVALUE PUSH2 0x204 JUMPI PUSH1 0x60 CALLDATASIZE PUSH1 0x3 NOT ADD SLT PUSH2 0x204 JUMPI PUSH1 0x4 CALLDATALOAD PUSH1 0x24 CALLDATALOAD PUSH2 0x2B1 PUSH2 0x1E07 JUMP JUMPDEST SWAP1 DUP3 ISZERO ISZERO DUP1 PUSH2 0x492 JUMPI JUMPDEST PUSH2 0x2C4 SWAP1 PUSH2 0x1F73 JUMP JUMPDEST DUP3 PUSH1 0x0 MSTORE PUSH1 0x20 SWAP1 PUSH1 0x2 DUP3 MSTORE PUSH2 0x2E6 PUSH1 0xFF PUSH1 0xB PUSH1 0x40 PUSH1 0x0 KECCAK256 ADD SLOAD PUSH1 0x8 SHR AND PUSH2 0x1FBF JUMP JUMPDEST DUP4 PUSH1 0x0 MSTORE PUSH1 0x2 DUP3 MSTORE PUSH2 0x303 PUSH1 0xFF PUSH1 0xB PUSH1 0x40 PUSH1 0x0 KECCAK256 ADD SLOAD AND ISZERO PUSH2 0x200B JUMP JUMPDEST PUSH2 0x30B PUSH2 0x21A0 JUMP JUMPDEST DUP4 PUSH1 0x0 MSTORE PUSH1 0x2 DUP3 MSTORE PUSH1 0x40 PUSH1 0x0 KECCAK256 CALLER PUSH1 0x0 MSTORE PUSH1 0x10 DUP2 ADD DUP4 MSTORE PUSH2 0x333 PUSH1 0xFF PUSH1 0x40 PUSH1 0x0 KECCAK256 SLOAD AND PUSH2 0x21C3 JUMP JUMPDEST PUSH2 0x33E DUP3 ISZERO ISZERO PUSH2 0x2061 JUMP JUMPDEST PUSH1 0x5 DUP2 ADD SWAP3 PUSH2 0x34E DUP4 DUP6 SLOAD PUSH2 0x1F31 JUMP JUMPDEST SWAP5 PUSH2 0x360 PUSH1 0x4 DUP5 ADD SWAP7 DUP8 SLOAD LT ISZERO PUSH2 0x20BE JUMP JUMPDEST ISZERO PUSH2 0x480 JUMPI PUSH1 0x6 SLOAD PUSH1 0x1 PUSH1 0x1 PUSH1 0xA0 SHL SUB AND SWAP1 JUMPDEST PUSH1 0x40 MLOAD PUSH4 0x23B872DD PUSH1 0xE0 SHL DUP2 MSTORE CALLER PUSH1 0x4 DUP3 ADD MSTORE ADDRESS PUSH1 0x24 DUP3 ADD MSTORE PUSH1 0x44 DUP2 ADD DUP6 SWAP1 MSTORE SWAP2 DUP2 SWAP1 DUP4 SWAP1 PUSH1 0x64 SWAP1 DUP3 SWAP1 PUSH1 0x0 SWAP1 PUSH1 0x1 PUSH1 0x1 PUSH1 0xA0 SHL SUB AND GAS CALL DUP1 ISZERO PUSH2 0x474 JUMPI DUP8 SWAP4 PUSH2 0x3E9 PUSH1 0xF SWAP3 PUSH32 0xA4A91237423E0A1766A761C7CB029311D8B95D6B1B81DB1B949A70C98B4E08E SWAP6 PUSH1 0x0 SWAP2 PUSH2 0x447 JUMPI JUMPDEST POP PUSH2 0x2121 JUMP JUMPDEST CALLER PUSH1 0x0 MSTORE ADD DUP2 MSTORE PUSH1 0x40 PUSH1 0x0 KECCAK256 PUSH2 0x400 DUP6 DUP3 SLOAD PUSH2 0x1F31 JUMP JUMPDEST SWAP1 SSTORE PUSH2 0x40D DUP5 DUP7 SLOAD PUSH2 0x1F31 JUMP JUMPDEST DUP6 SSTORE PUSH2 0x41B DUP5 PUSH1 0xB SLOAD PUSH2 0x1F31 JUMP JUMPDEST PUSH1 0xB SSTORE PUSH1 0x40 MLOAD SWAP4 DUP5 MSTORE CALLER SWAP4 LOG3 SLOAD SWAP1 SLOAD GT ISZERO PUSH2 0x438 JUMPI JUMPDEST PUSH1 0x1 PUSH1 0x0 SSTORE STOP JUMPDEST PUSH2 0x441 SWAP1 PUSH2 0x221C JUMP JUMPDEST DUP1 PUSH2 0x431 JUMP JUMPDEST PUSH2 0x467 SWAP2 POP DUP6 RETURNDATASIZE DUP8 GT PUSH2 0x46D JUMPI JUMPDEST PUSH2 0x45F DUP2 DUP4 PUSH2 0x1D8E JUMP JUMPDEST DUP2 ADD SWAP1 PUSH2 0x2109 JUMP JUMPDEST DUP12 PUSH2 0x3E3 JUMP JUMPDEST POP RETURNDATASIZE PUSH2 0x455 JUMP JUMPDEST PUSH1 0x40 MLOAD RETURNDATASIZE PUSH1 0x0 DUP3 RETURNDATACOPY RETURNDATASIZE SWAP1 REVERT JUMPDEST PUSH1 0x5 SLOAD PUSH1 0x1 PUSH1 0x1 PUSH1 0xA0 SHL SUB AND SWAP1 PUSH2 0x373 JUMP JUMPDEST POP PUSH1 0x7 SLOAD DUP4 LT PUSH2 0x2BB JUMP JUMPDEST CALLVALUE PUSH2 0x204 JUMPI PUSH1 0x0 CALLDATASIZE PUSH1 0x3 NOT ADD SLT PUSH2 0x204 JUMPI PUSH1 0x20 PUSH1 0x40 MLOAD PUSH1 0x32 DUP2 MSTORE RETURN JUMPDEST CALLVALUE PUSH2 0x204 JUMPI PUSH1 0x0 CALLDATASIZE PUSH1 0x3 NOT ADD SLT PUSH2 0x204 JUMPI PUSH1 0x5 SLOAD PUSH1 0x40 MLOAD PUSH1 0x1 PUSH1 0x1 PUSH1 0xA0 SHL SUB SWAP1 SWAP2 AND DUP2 MSTORE PUSH1 0x20 SWAP1 RETURN JUMPDEST CALLVALUE PUSH2 0x204 JUMPI PUSH1 0x0 CALLDATASIZE PUSH1 0x3 NOT ADD SLT PUSH2 0x204 JUMPI PUSH1 0x20 PUSH1 0x40 MLOAD PUSH1 0x2 DUP2 MSTORE RETURN JUMPDEST CALLVALUE PUSH2 0x204 JUMPI PUSH1 0x0 CALLDATASIZE PUSH1 0x3 NOT ADD SLT PUSH2 0x204 JUMPI PUSH1 0x6 SLOAD PUSH1 0x40 MLOAD PUSH1 0x1 PUSH1 0x1 PUSH1 0xA0 SHL SUB SWAP1 SWAP2 AND DUP2 MSTORE PUSH1 0x20 SWAP1 RETURN JUMPDEST CALLVALUE PUSH2 0x204 JUMPI PUSH1 0x0 CALLDATASIZE PUSH1 0x3 NOT ADD SLT PUSH2 0x204 JUMPI PUSH1 0xA SLOAD PUSH1 0xB SLOAD PUSH1 0x5 SLOAD PUSH1 0x40 MLOAD PUSH4 0x70A08231 PUSH1 0xE0 SHL DUP1 DUP3 MSTORE ADDRESS PUSH1 0x4 DUP4 ADD MSTORE SWAP4 SWAP3 PUSH1 0x20 SWAP3 PUSH1 0x1 PUSH1 0x1 PUSH1 0xA0 SHL SUB SWAP3 SWAP1 DUP5 SWAP1 DUP3 SWAP1 PUSH1 0x24 SWAP1 DUP3 SWAP1 DUP8 AND GAS STATICCALL SWAP3 DUP4 ISZERO PUSH2 0x474 JUMPI DUP5 SWAP2 PUSH1 0x0 SWAP5 PUSH2 0x5F3 JUMPI JUMPDEST POP PUSH1 0x6 SLOAD AND SWAP6 PUSH1 0x24 PUSH1 0x40 MLOAD DUP1 SWAP9 DUP2 SWAP4 DUP3 MSTORE ADDRESS PUSH1 0x4 DUP4 ADD MSTORE GAS STATICCALL SWAP3 DUP4 ISZERO PUSH2 0x474 JUMPI PUSH1 0x0 SWAP4 PUSH2 0x5C3 JUMPI JUMPDEST PUSH1 0x80 SWAP6 POP PUSH1 0x40 MLOAD SWAP5 DUP6 MSTORE DUP5 ADD MSTORE PUSH1 0x40 DUP4 ADD MSTORE PUSH1 0x60 DUP3 ADD MSTORE RETURN JUMPDEST DUP1 SWAP4 POP DUP6 DUP2 RETURNDATASIZE DUP4 GT PUSH2 0x5EC JUMPI JUMPDEST PUSH2 0x5DA DUP2 DUP4 PUSH2 0x1D8E JUMP JUMPDEST DUP2 ADD SUB SLT PUSH2 0x204 JUMPI PUSH1 0x80 SWAP5 MLOAD SWAP3 PUSH2 0x5AA JUMP JUMPDEST POP RETURNDATASIZE PUSH2 0x5D0 JUMP JUMPDEST DUP3 DUP2 SWAP4 SWAP3 SWAP6 POP RETURNDATASIZE DUP4 GT PUSH2 0x61D JUMPI JUMPDEST PUSH2 0x60B DUP2 DUP4 PUSH2 0x1D8E JUMP JUMPDEST DUP2 ADD SUB SLT PUSH2 0x204 JUMPI DUP4 SWAP1 MLOAD SWAP3 DUP8 PUSH2 0x582 JUMP JUMPDEST POP RETURNDATASIZE PUSH2 0x601 JUMP JUMPDEST CALLVALUE PUSH2 0x204 JUMPI PUSH1 0x40 CALLDATASIZE PUSH1 0x3 NOT ADD SLT PUSH2 0x204 JUMPI PUSH2 0x63D PUSH2 0x1D0F JUMP JUMPDEST PUSH1 0x1 PUSH1 0x1 PUSH1 0xA0 SHL SUB AND PUSH1 0x0 SWAP1 DUP2 MSTORE PUSH1 0x4 PUSH1 0x20 MSTORE PUSH1 0x40 SWAP1 KECCAK256 DUP1 SLOAD PUSH1 0x24 CALLDATALOAD SWAP2 SWAP1 DUP3 LT ISZERO PUSH2 0x204 JUMPI PUSH1 0x20 SWAP2 PUSH2 0x66E SWAP2 PUSH2 0x1D25 JUMP JUMPDEST SWAP1 SLOAD PUSH1 0x40 MLOAD SWAP2 PUSH1 0x3 SHL SHR DUP2 MSTORE RETURN JUMPDEST CALLVALUE PUSH2 0x204 JUMPI PUSH1 0x0 CALLDATASIZE PUSH1 0x3 NOT ADD SLT PUSH2 0x204 JUMPI PUSH1 0x20 PUSH1 0x40 MLOAD PUSH10 0x21E19E0C9BAB2400000 DUP2 MSTORE RETURN JUMPDEST CALLVALUE PUSH2 0x204 JUMPI PUSH1 0x20 DUP1 PUSH1 0x3 NOT CALLDATASIZE ADD SLT PUSH2 0x204 JUMPI PUSH1 0x4 CALLDATALOAD DUP1 ISZERO ISZERO DUP1 PUSH2 0x76E JUMPI JUMPDEST PUSH2 0x6C8 SWAP1 PUSH2 0x1F73 JUMP JUMPDEST PUSH1 0x0 MSTORE PUSH1 0x2 DUP2 MSTORE PUSH1 0xE PUSH1 0x40 PUSH1 0x0 KECCAK256 ADD PUSH1 0x40 MLOAD SWAP1 DUP2 DUP4 DUP3 SLOAD SWAP2 DUP3 DUP2 MSTORE ADD SWAP1 DUP2 SWAP3 PUSH1 0x0 MSTORE DUP5 PUSH1 0x0 KECCAK256 SWAP1 PUSH1 0x0 JUMPDEST DUP7 DUP3 DUP3 LT PUSH2 0x751 JUMPI DUP7 DUP7 PUSH2 0x708 DUP3 DUP9 SUB DUP4 PUSH2 0x1D8E JUMP JUMPDEST PUSH1 0x40 MLOAD SWAP3 DUP4 SWAP3 DUP2 DUP5 ADD SWAP1 DUP3 DUP6 MSTORE MLOAD DUP1 SWAP2 MSTORE PUSH1 0x40 DUP5 ADD SWAP3 SWAP2 PUSH1 0x0 JUMPDEST DUP3 DUP2 LT PUSH2 0x731 JUMPI POP POP POP POP SUB SWAP1 RETURN JUMPDEST DUP4 MLOAD PUSH1 0x1 PUSH1 0x1 PUSH1 0xA0 SHL SUB AND DUP6 MSTORE DUP7 SWAP6 POP SWAP4 DUP2 ADD SWAP4 SWAP3 DUP2 ADD SWAP3 PUSH1 0x1 ADD PUSH2 0x722 JUMP JUMPDEST DUP4 SLOAD PUSH1 0x1 PUSH1 0x1 PUSH1 0xA0 SHL SUB AND DUP6 MSTORE SWAP1 SWAP4 ADD SWAP3 PUSH1 0x1 SWAP3 DUP4 ADD SWAP3 ADD PUSH2 0x6F2 JUMP JUMPDEST POP PUSH1 0x7 SLOAD DUP2 LT PUSH2 0x6BF JUMP JUMPDEST CALLVALUE PUSH2 0x204 JUMPI PUSH1 0x20 CALLDATASIZE PUSH1 0x3 NOT ADD SLT PUSH2 0x204 JUMPI PUSH1 0x4 CALLDATALOAD PUSH1 0x0 MSTORE PUSH1 0x2 PUSH1 0x20 MSTORE PUSH1 0x40 PUSH1 0x0 KECCAK256 DUP1 SLOAD PUSH1 0x1 PUSH1 0xA0 SHL PUSH1 0x1 SWAP1 SUB PUSH1 0x1 DUP4 ADD SLOAD AND PUSH1 0x2 DUP4 ADD PUSH2 0x7B8 SWAP1 PUSH2 0x1E50 JUMP JUMPDEST SWAP2 PUSH2 0x7C5 PUSH1 0x3 DUP6 ADD PUSH2 0x1E50 JUMP JUMPDEST SWAP4 PUSH1 0x4 DUP2 ADD SLOAD SWAP2 PUSH1 0x5 DUP3 ADD SLOAD SWAP1 PUSH1 0x6 DUP4 ADD SLOAD PUSH1 0x7 DUP5 ADD SLOAD PUSH1 0x8 DUP6 ADD SLOAD PUSH1 0x9 DUP7 ADD SLOAD SWAP2 PUSH1 0xA DUP8 ADD SLOAD SWAP4 PUSH1 0xB DUP9 ADD SLOAD SWAP7 PUSH1 0xC DUP10 ADD SLOAD SWAP9 PUSH1 0xD ADD SLOAD SWAP10 PUSH1 0x40 MLOAD SWAP14 DUP15 SWAP14 DUP15 SWAP14 DUP12 PUSH1 0x8 SHR PUSH1 0xFF AND SWAP12 PUSH1 0xFF AND SWAP11 PUSH2 0x81B SWAP16 PUSH2 0x1C66 JUMP JUMPDEST SUB SWAP1 RETURN JUMPDEST CALLVALUE PUSH2 0x204 JUMPI PUSH1 0x20 DUP1 PUSH1 0x3 NOT CALLDATASIZE ADD SLT PUSH2 0x204 JUMPI PUSH1 0x1 PUSH1 0x1 PUSH1 0xA0 SHL SUB PUSH2 0x841 PUSH2 0x1D0F JUMP JUMPDEST AND PUSH1 0x0 MSTORE PUSH1 0x3 DUP2 MSTORE PUSH1 0x40 PUSH1 0x0 KECCAK256 SWAP1 PUSH1 0x40 MLOAD SWAP1 DUP2 DUP2 DUP5 SLOAD SWAP2 DUP3 DUP2 MSTORE ADD SWAP4 PUSH1 0x0 MSTORE DUP2 PUSH1 0x0 KECCAK256 SWAP2 PUSH1 0x0 SWAP1 JUMPDEST DUP3 DUP3 LT PUSH2 0x88C JUMPI PUSH2 0x81B DUP6 PUSH2 0x880 DUP2 DUP10 SUB DUP3 PUSH2 0x1D8E JUMP JUMPDEST PUSH1 0x40 MLOAD SWAP2 DUP3 SWAP2 DUP3 PUSH2 0x1D53 JUMP JUMPDEST DUP4 SLOAD DUP7 MSTORE SWAP5 DUP6 ADD SWAP5 PUSH1 0x1 SWAP4 DUP5 ADD SWAP4 SWAP1 SWAP2 ADD SWAP1 PUSH2 0x869 JUMP JUMPDEST CALLVALUE PUSH2 0x204 JUMPI PUSH1 0x0 CALLDATASIZE PUSH1 0x3 NOT ADD SLT PUSH2 0x204 JUMPI PUSH1 0x1 SLOAD PUSH1 0x40 MLOAD PUSH1 0x1 PUSH1 0x1 PUSH1 0xA0 SHL SUB SWAP1 SWAP2 AND DUP2 MSTORE PUSH1 0x20 SWAP1 RETURN JUMPDEST CALLVALUE PUSH2 0x204 JUMPI PUSH1 0x80 CALLDATASIZE PUSH1 0x3 NOT ADD SLT PUSH2 0x204 JUMPI PUSH2 0x8E5 PUSH2 0x1E07 JUMP JUMPDEST PUSH1 0x64 CALLDATALOAD PUSH1 0x1 PUSH1 0x1 PUSH1 0xA0 SHL SUB DUP2 AND SWAP1 SUB PUSH2 0x204 JUMPI PUSH1 0x4 CALLDATALOAD ISZERO ISZERO DUP1 PUSH2 0xD97 JUMPI JUMPDEST PUSH2 0x90C SWAP1 PUSH2 0x1F73 JUMP JUMPDEST PUSH1 0x4 CALLDATALOAD PUSH1 0x0 MSTORE PUSH1 0x2 PUSH1 0x20 MSTORE PUSH2 0x92E PUSH1 0xFF PUSH1 0xB PUSH1 0x40 PUSH1 0x0 KECCAK256 ADD SLOAD PUSH1 0x8 SHR AND PUSH2 0x1FBF JUMP JUMPDEST PUSH1 0x4 CALLDATALOAD PUSH1 0x0 MSTORE PUSH1 0x2 PUSH1 0x20 MSTORE PUSH2 0x94E PUSH1 0xFF PUSH1 0xB PUSH1 0x40 PUSH1 0x0 KECCAK256 ADD SLOAD AND ISZERO PUSH2 0x200B JUMP JUMPDEST PUSH2 0x956 PUSH2 0x21A0 JUMP JUMPDEST PUSH1 0x4 CALLDATALOAD PUSH1 0x0 MSTORE PUSH1 0x2 PUSH1 0x20 MSTORE PUSH1 0x40 PUSH1 0x0 KECCAK256 SWAP1 CALLER PUSH1 0x0 MSTORE PUSH1 0x10 DUP3 ADD PUSH1 0x20 MSTORE PUSH1 0xFF PUSH1 0x40 PUSH1 0x0 KECCAK256 SLOAD AND PUSH2 0xD52 JUMPI PUSH1 0x7 DUP3 ADD SLOAD PUSH1 0x6 DUP4 ADD SLOAD GT ISZERO PUSH2 0xD0D JUMPI PUSH2 0x99C PUSH1 0x24 CALLDATALOAD ISZERO ISZERO PUSH2 0x2061 JUMP JUMPDEST PUSH2 0x9BB PUSH2 0x9AF PUSH1 0x24 CALLDATALOAD PUSH1 0x5 DUP6 ADD SLOAD PUSH2 0x1F31 JUMP JUMPDEST PUSH1 0x4 DUP5 ADD SLOAD LT ISZERO PUSH2 0x20BE JUMP JUMPDEST ISZERO PUSH2 0xCFC JUMPI PUSH1 0x6 SLOAD PUSH1 0x1 PUSH1 0x1 PUSH1 0xA0 SHL SUB AND JUMPDEST PUSH1 0x40 MLOAD PUSH4 0x23B872DD PUSH1 0xE0 SHL DUP2 MSTORE CALLER PUSH1 0x4 DUP3 ADD MSTORE ADDRESS PUSH1 0x24 DUP1 DUP4 ADD SWAP2 SWAP1 SWAP2 MSTORE CALLDATALOAD PUSH1 0x44 DUP3 ADD MSTORE PUSH1 0x20 DUP2 PUSH1 0x64 DUP2 PUSH1 0x0 PUSH1 0x1 PUSH1 0x1 PUSH1 0xA0 SHL SUB DUP8 AND GAS CALL DUP1 ISZERO PUSH2 0x474 JUMPI PUSH2 0xA1B SWAP2 PUSH1 0x0 SWAP2 PUSH2 0xCDD JUMPI POP PUSH2 0x2121 JUMP JUMPDEST PUSH1 0xE DUP3 ADD SLOAD PUSH1 0x1 PUSH1 0x40 SHL DUP2 LT ISZERO PUSH2 0xCC7 JUMPI DUP1 PUSH1 0x1 PUSH2 0xA42 SWAP3 ADD PUSH1 0xE DUP6 ADD SSTORE PUSH1 0xE DUP5 ADD PUSH2 0x1D25 JUMP JUMPDEST DUP2 SLOAD SWAP1 PUSH1 0x3 SHL SWAP1 CALLER DUP3 SHL SWAP2 PUSH1 0x1 DUP1 PUSH1 0xA0 SHL SUB SWAP1 SHL NOT AND OR SWAP1 SSTORE CALLER PUSH1 0x0 MSTORE PUSH1 0x10 DUP3 ADD PUSH1 0x20 MSTORE PUSH1 0x40 PUSH1 0x0 KECCAK256 PUSH1 0x1 PUSH1 0xFF NOT DUP3 SLOAD AND OR SWAP1 SSTORE PUSH1 0xF DUP3 ADD PUSH1 0x20 MSTORE PUSH1 0x24 CALLDATALOAD PUSH1 0x40 PUSH1 0x0 KECCAK256 SSTORE PUSH2 0xA93 PUSH1 0x7 DUP4 ADD SLOAD PUSH2 0x1F22 JUMP JUMPDEST PUSH1 0x7 DUP4 ADD SSTORE PUSH2 0xAA8 PUSH1 0x24 CALLDATALOAD PUSH1 0x5 DUP5 ADD SLOAD PUSH2 0x1F31 JUMP JUMPDEST PUSH1 0x5 DUP4 ADD SSTORE PUSH2 0xABB PUSH1 0x24 CALLDATALOAD PUSH1 0xB SLOAD PUSH2 0x1F31 JUMP JUMPDEST PUSH1 0xB SSTORE CALLER PUSH1 0x0 MSTORE PUSH1 0x3 PUSH1 0x20 MSTORE PUSH2 0xAD7 PUSH1 0x4 CALLDATALOAD PUSH1 0x40 PUSH1 0x0 KECCAK256 PUSH2 0x1F3E JUMP JUMPDEST PUSH1 0x40 MLOAD PUSH1 0x24 CALLDATALOAD DUP2 MSTORE CALLER SWAP1 PUSH32 0xF4F82575EE84A81AAC4BE52B6A368E9BA9DF524B4F5CF8177D7CFBABE861820C PUSH1 0x20 PUSH1 0x4 CALLDATALOAD SWAP3 LOG3 PUSH1 0x64 CALLDATALOAD PUSH1 0x1 PUSH1 0x1 PUSH1 0xA0 SHL SUB AND ISZERO ISZERO DUP1 PUSH2 0xCA1 JUMPI JUMPDEST DUP1 PUSH2 0xC8C JUMPI JUMPDEST PUSH2 0xB50 JUMPI JUMPDEST POP PUSH1 0x4 PUSH1 0x5 DUP3 ADD SLOAD SWAP2 ADD SLOAD GT ISZERO PUSH2 0xB40 JUMPI PUSH1 0x1 PUSH1 0x0 SSTORE STOP JUMPDEST PUSH2 0xB4B PUSH1 0x4 CALLDATALOAD PUSH2 0x221C JUMP JUMPDEST PUSH2 0x431 JUMP JUMPDEST PUSH1 0x64 PUSH1 0x24 CALLDATALOAD MUL PUSH1 0x24 CALLDATALOAD DUP2 DIV PUSH1 0x64 EQ PUSH1 0x24 CALLDATALOAD ISZERO OR ISZERO PUSH2 0xC76 JUMPI PUSH2 0x2710 SWAP1 DIV SWAP1 DUP2 PUSH2 0xB7A JUMPI JUMPDEST POP PUSH2 0xB28 JUMP JUMPDEST PUSH1 0x40 MLOAD PUSH4 0xA9059CBB PUSH1 0xE0 SHL DUP2 MSTORE PUSH1 0x1 PUSH1 0x1 PUSH1 0xA0 SHL SUB PUSH1 0x64 CALLDATALOAD AND PUSH1 0x4 DUP3 ADD MSTORE PUSH1 0x24 DUP2 ADD DUP4 SWAP1 MSTORE SWAP1 PUSH1 0x20 SWAP1 DUP3 SWAP1 DUP2 PUSH1 0x0 DUP2 PUSH1 0x44 DUP2 ADD SUB SWAP3 PUSH1 0x1 PUSH1 0x1 PUSH1 0xA0 SHL SUB AND GAS CALL SWAP1 DUP2 ISZERO PUSH2 0x474 JUMPI PUSH1 0x0 SWAP2 PUSH2 0xC57 JUMPI JUMPDEST POP ISZERO PUSH2 0xC13 JUMPI PUSH1 0x40 MLOAD SWAP1 DUP2 MSTORE PUSH1 0x64 CALLDATALOAD PUSH1 0x1 PUSH1 0x1 PUSH1 0xA0 SHL SUB AND SWAP1 PUSH1 0x4 CALLDATALOAD SWAP1 PUSH32 0xE0570289EA25F3AE6CF39FB322BD2BA4E8F84491CAD47BE0CA30085550B80C8F SWAP1 PUSH1 0x20 SWAP1 LOG3 DUP2 DUP1 PUSH2 0xB74 JUMP JUMPDEST PUSH1 0x64 PUSH1 0x40 MLOAD PUSH3 0x461BCD PUSH1 0xE5 SHL DUP2 MSTORE PUSH1 0x20 PUSH1 0x4 DUP3 ADD MSTORE PUSH1 0x20 PUSH1 0x24 DUP3 ADD MSTORE PUSH32 0x47726F7570506F6F6C3A20526566657272616C20626F6E7573206661696C6564 PUSH1 0x44 DUP3 ADD MSTORE REVERT JUMPDEST PUSH2 0xC70 SWAP2 POP PUSH1 0x20 RETURNDATASIZE PUSH1 0x20 GT PUSH2 0x46D JUMPI PUSH2 0x45F DUP2 DUP4 PUSH2 0x1D8E JUMP JUMPDEST DUP4 PUSH2 0xBC9 JUMP JUMPDEST PUSH4 0x4E487B71 PUSH1 0xE0 SHL PUSH1 0x0 MSTORE PUSH1 0x11 PUSH1 0x4 MSTORE PUSH1 0x24 PUSH1 0x0 REVERT JUMPDEST POP PUSH1 0x64 CALLDATALOAD PUSH1 0x1 PUSH1 0x1 PUSH1 0xA0 SHL SUB AND CALLER EQ ISZERO PUSH2 0xB23 JUMP JUMPDEST POP PUSH1 0x64 CALLDATALOAD PUSH1 0x1 PUSH1 0x1 PUSH1 0xA0 SHL SUB AND PUSH1 0x0 SWAP1 DUP2 MSTORE PUSH1 0x10 DUP4 ADD PUSH1 0x20 MSTORE PUSH1 0x40 SWAP1 KECCAK256 SLOAD PUSH1 0xFF AND PUSH2 0xB1D JUMP JUMPDEST PUSH4 0x4E487B71 PUSH1 0xE0 SHL PUSH1 0x0 MSTORE PUSH1 0x41 PUSH1 0x4 MSTORE PUSH1 0x24 PUSH1 0x0 REVERT JUMPDEST PUSH2 0xCF6 SWAP2 POP PUSH1 0x20 RETURNDATASIZE PUSH1 0x20 GT PUSH2 0x46D JUMPI PUSH2 0x45F DUP2 DUP4 PUSH2 0x1D8E JUMP JUMPDEST DUP5 PUSH2 0x3E3 JUMP JUMPDEST PUSH1 0x5 SLOAD PUSH1 0x1 PUSH1 0x1 PUSH1 0xA0 SHL SUB AND PUSH2 0x9CD JUMP JUMPDEST PUSH1 0x40 MLOAD PUSH3 0x461BCD PUSH1 0xE5 SHL DUP2 MSTORE PUSH1 0x20 PUSH1 0x4 DUP3 ADD MSTORE PUSH1 0x17 PUSH1 0x24 DUP3 ADD MSTORE PUSH32 0x47726F7570506F6F6C3A20506F6F6C2069732066756C6C000000000000000000 PUSH1 0x44 DUP3 ADD MSTORE PUSH1 0x64 SWAP1 REVERT JUMPDEST PUSH1 0x40 MLOAD PUSH3 0x461BCD PUSH1 0xE5 SHL DUP2 MSTORE PUSH1 0x20 PUSH1 0x4 DUP3 ADD MSTORE PUSH1 0x1B PUSH1 0x24 DUP3 ADD MSTORE PUSH32 0x47726F7570506F6F6C3A20416C72656164792061206D656D6265720000000000 PUSH1 0x44 DUP3 ADD MSTORE PUSH1 0x64 SWAP1 REVERT JUMPDEST POP PUSH1 0x7 SLOAD PUSH1 0x4 CALLDATALOAD LT PUSH2 0x903 JUMP JUMPDEST PUSH2 0x1CF3 JUMP JUMPDEST CALLVALUE PUSH2 0x204 JUMPI PUSH1 0x0 CALLDATASIZE PUSH1 0x3 NOT ADD SLT PUSH2 0x204 JUMPI PUSH1 0x20 PUSH1 0xB SLOAD PUSH1 0x40 MLOAD SWAP1 DUP2 MSTORE RETURN JUMPDEST CALLVALUE PUSH2 0x204 JUMPI PUSH1 0x20 CALLDATASIZE PUSH1 0x3 NOT ADD SLT PUSH2 0x204 JUMPI PUSH2 0xDE0 PUSH2 0x1D0F JUMP JUMPDEST PUSH2 0xDE8 PUSH2 0x1EF6 JUMP JUMPDEST PUSH1 0x1 PUSH1 0x1 PUSH1 0xA0 SHL SUB AND DUP1 ISZERO PUSH2 0xE0F JUMPI PUSH1 0x1 PUSH1 0x1 PUSH1 0x60 SHL SUB PUSH1 0xA0 SHL PUSH1 0x9 SLOAD AND OR PUSH1 0x9 SSTORE PUSH1 0x0 DUP1 RETURN JUMPDEST PUSH1 0x40 MLOAD PUSH3 0x461BCD PUSH1 0xE5 SHL DUP2 MSTORE PUSH1 0x20 PUSH1 0x4 DUP3 ADD MSTORE PUSH1 0x23 PUSH1 0x24 DUP3 ADD MSTORE PUSH32 0x47726F7570506F6F6C3A20496E76616C69642074726561737572792061646472 PUSH1 0x44 DUP3 ADD MSTORE PUSH3 0x657373 PUSH1 0xE8 SHL PUSH1 0x64 DUP3 ADD MSTORE PUSH1 0x84 SWAP1 REVERT JUMPDEST CALLVALUE PUSH2 0x204 JUMPI PUSH1 0x0 CALLDATASIZE PUSH1 0x3 NOT ADD SLT PUSH2 0x204 JUMPI PUSH1 0x20 PUSH1 0xA SLOAD PUSH1 0x40 MLOAD SWAP1 DUP2 MSTORE RETURN JUMPDEST CALLVALUE PUSH2 0x204 JUMPI PUSH1 0x0 CALLDATASIZE PUSH1 0x3 NOT ADD SLT PUSH2 0x204 JUMPI PUSH1 0x20 PUSH1 0x40 MLOAD PUSH8 0x16345785D8A0000 DUP2 MSTORE RETURN JUMPDEST CALLVALUE PUSH2 0x204 JUMPI PUSH1 0x0 CALLDATASIZE PUSH1 0x3 NOT ADD SLT PUSH2 0x204 JUMPI PUSH1 0x20 PUSH1 0x40 MLOAD PUSH3 0x93A80 DUP2 MSTORE RETURN JUMPDEST CALLVALUE PUSH2 0x204 JUMPI PUSH1 0x0 CALLDATASIZE PUSH1 0x3 NOT ADD SLT PUSH2 0x204 JUMPI PUSH2 0xED8 PUSH2 0x1EF6 JUMP JUMPDEST PUSH1 0x1 DUP1 SLOAD PUSH1 0x1 PUSH1 0x1 PUSH1 0xA0 SHL SUB NOT DUP2 AND SWAP1 SWAP2 SSTORE PUSH1 0x0 SWAP1 PUSH1 0x1 PUSH1 0x1 PUSH1 0xA0 SHL SUB AND PUSH32 0x8BE0079C531659141344CD1FD0A4F28419497F9722A3DAAFE3B4186F6B6457E0 DUP3 DUP1 LOG3 STOP JUMPDEST CALLVALUE PUSH2 0x204 JUMPI PUSH1 0x0 CALLDATASIZE PUSH1 0x3 NOT ADD SLT PUSH2 0x204 JUMPI PUSH1 0x20 PUSH1 0x40 MLOAD PUSH1 0x64 DUP2 MSTORE RETURN JUMPDEST CALLVALUE PUSH2 0x204 JUMPI PUSH1 0x0 CALLDATASIZE PUSH1 0x3 NOT ADD SLT PUSH2 0x204 JUMPI PUSH1 0x9 SLOAD PUSH1 0x40 MLOAD PUSH1 0x1 PUSH1 0x1 PUSH1 0xA0 SHL SUB SWAP1 SWAP2 AND DUP2 MSTORE PUSH1 0x20 SWAP1 RETURN JUMPDEST CALLVALUE PUSH2 0x204 JUMPI PUSH1 0x40 CALLDATASIZE PUSH1 0x3 NOT ADD SLT PUSH2 0x204 JUMPI PUSH1 0x4 CALLDATALOAD PUSH1 0x24 SWAP1 DUP2 CALLDATALOAD SWAP2 DUP3 ISZERO ISZERO DUP4 SUB PUSH2 0x204 JUMPI DUP2 ISZERO ISZERO DUP1 PUSH2 0x1345 JUMPI JUMPDEST PUSH2 0xF96 SWAP1 PUSH2 0x1F73 JUMP JUMPDEST DUP2 PUSH1 0x0 MSTORE PUSH1 0x20 SWAP1 PUSH1 0x2 DUP3 MSTORE PUSH1 0xA PUSH1 0x40 PUSH1 0x0 KECCAK256 ADD SLOAD TIMESTAMP LT PUSH2 0x1304 JUMPI PUSH2 0xFB8 PUSH2 0x21A0 JUMP JUMPDEST DUP3 PUSH1 0x0 MSTORE PUSH1 0x2 DUP3 MSTORE PUSH1 0x40 PUSH1 0x0 KECCAK256 SWAP1 CALLER PUSH1 0x0 MSTORE PUSH1 0x10 DUP3 ADD DUP4 MSTORE PUSH2 0xFE1 PUSH1 0xFF PUSH1 0x40 PUSH1 0x0 KECCAK256 SLOAD AND PUSH2 0x21C3 JUMP JUMPDEST PUSH1 0x11 DUP3 ADD SWAP1 CALLER PUSH1 0x0 MSTORE DUP2 DUP5 MSTORE PUSH1 0xFF PUSH1 0x40 PUSH1 0x0 KECCAK256 SLOAD AND PUSH2 0x12C1 JUMPI PUSH1 0xFF PUSH1 0xB DUP5 ADD SLOAD AND ISZERO PUSH2 0x127E JUMPI CALLER PUSH1 0x0 MSTORE PUSH1 0xF DUP4 ADD DUP5 MSTORE PUSH1 0x40 PUSH1 0x0 KECCAK256 SLOAD SWAP3 PUSH8 0xDE0B6B3A7640000 DUP1 DUP6 MUL DUP6 DUP2 DIV DUP3 EQ DUP7 ISZERO OR ISZERO PUSH2 0x1269 JUMPI PUSH2 0x1043 PUSH2 0x104D SWAP2 PUSH1 0x5 DUP6 ADD SLOAD SWAP1 PUSH2 0x2180 JUMP JUMPDEST PUSH1 0xC DUP5 ADD SLOAD PUSH2 0x216D JUMP JUMPDEST DIV PUSH1 0xC8 DUP2 MUL DUP2 DUP2 DIV PUSH1 0xC8 EQ DUP3 ISZERO OR ISZERO PUSH2 0x1269 JUMPI PUSH1 0x1 SWAP2 PUSH2 0x2710 PUSH2 0x109B SWAP3 DIV SWAP4 DUP5 PUSH1 0x0 SWAP2 DUP6 DUP1 PUSH1 0xA0 SHL SUB SWAP6 DUP7 SWAP2 ADD SLOAD AND CALLER EQ PUSH2 0x1261 JUMPI JUMPDEST PUSH2 0x1091 PUSH2 0x1096 SWAP3 SWAP4 DUP11 PUSH2 0x1F31 JUMP JUMPDEST PUSH2 0x220F JUMP JUMPDEST PUSH2 0x1F31 JUMP JUMPDEST SWAP8 ISZERO PUSH2 0x1255 JUMPI DUP8 DUP2 DUP1 PUSH1 0x6 SLOAD AND JUMPDEST PUSH1 0x40 MLOAD PUSH4 0xA9059CBB PUSH1 0xE0 SHL DUP1 DUP3 MSTORE CALLER PUSH1 0x4 DUP4 ADD MSTORE PUSH1 0x24 DUP3 ADD SWAP5 SWAP1 SWAP5 MSTORE SWAP2 AND SWAP3 SWAP1 DUP9 DUP2 PUSH1 0x44 DUP2 PUSH1 0x0 DUP9 GAS CALL SWAP1 DUP2 ISZERO PUSH2 0x474 JUMPI PUSH1 0x0 SWAP2 PUSH2 0x1238 JUMPI JUMPDEST POP ISZERO PUSH2 0x11F4 JUMPI DUP4 PUSH2 0x1148 JUMPI JUMPDEST DUP10 DUP10 PUSH32 0x9F5926601E7FC353505F05FAE61282AE5D67B716F95656849456E6AA7BBBBB5F DUP11 PUSH2 0x1135 DUP12 DUP12 CALLER PUSH1 0x0 MSTORE DUP4 MSTORE PUSH1 0x40 PUSH1 0x0 KECCAK256 PUSH1 0x1 PUSH1 0xFF NOT DUP3 SLOAD AND OR SWAP1 SSTORE PUSH1 0xB SLOAD PUSH2 0x220F JUMP JUMPDEST PUSH1 0xB SSTORE PUSH1 0x40 MLOAD SWAP4 DUP5 MSTORE CALLER SWAP4 LOG3 PUSH1 0x1 PUSH1 0x0 SSTORE STOP JUMPDEST PUSH1 0x9 SLOAD PUSH1 0x40 MLOAD SWAP3 DUP4 MSTORE AND PUSH1 0x1 PUSH1 0x1 PUSH1 0xA0 SHL SUB AND PUSH1 0x4 DUP3 ADD MSTORE PUSH1 0x24 DUP2 ADD SWAP3 SWAP1 SWAP3 MSTORE DUP6 SWAP1 DUP3 SWAP1 PUSH1 0x44 SWAP1 DUP3 SWAP1 PUSH1 0x0 SWAP1 GAS CALL SWAP1 DUP2 ISZERO PUSH2 0x474 JUMPI PUSH1 0x0 SWAP2 PUSH2 0x11D7 JUMPI JUMPDEST POP ISZERO PUSH2 0x1194 JUMPI DUP1 DUP1 DUP1 DUP1 PUSH2 0x10EE JUMP JUMPDEST DUP4 PUSH1 0x1E PUSH1 0x64 SWAP3 PUSH1 0x40 MLOAD SWAP3 PUSH3 0x461BCD PUSH1 0xE5 SHL DUP5 MSTORE PUSH1 0x4 DUP5 ADD MSTORE DUP3 ADD MSTORE PUSH32 0x47726F7570506F6F6C3A20466565207472616E73666572206661696C65640000 PUSH1 0x44 DUP3 ADD MSTORE REVERT JUMPDEST PUSH2 0x11EE SWAP2 POP DUP6 RETURNDATASIZE DUP8 GT PUSH2 0x46D JUMPI PUSH2 0x45F DUP2 DUP4 PUSH2 0x1D8E JUMP JUMPDEST DUP8 PUSH2 0x1185 JUMP JUMPDEST PUSH1 0x40 MLOAD PUSH3 0x461BCD PUSH1 0xE5 SHL DUP2 MSTORE PUSH1 0x4 DUP2 ADD DUP10 SWAP1 MSTORE PUSH1 0x1C DUP2 DUP8 ADD MSTORE PUSH32 0x47726F7570506F6F6C3A205769746864726177616C206661696C656400000000 PUSH1 0x44 DUP3 ADD MSTORE PUSH1 0x64 SWAP1 REVERT JUMPDEST PUSH2 0x124F SWAP2 POP DUP10 RETURNDATASIZE DUP12 GT PUSH2 0x46D JUMPI PUSH2 0x45F DUP2 DUP4 PUSH2 0x1D8E JUMP JUMPDEST DUP12 PUSH2 0x10E2 JUMP JUMPDEST DUP8 DUP2 DUP1 PUSH1 0x5 SLOAD AND PUSH2 0x10A9 JUMP JUMPDEST SWAP1 POP DUP1 PUSH2 0x1083 JUMP JUMPDEST DUP4 PUSH4 0x4E487B71 PUSH1 0xE0 SHL PUSH1 0x0 MSTORE PUSH1 0x11 PUSH1 0x4 MSTORE PUSH1 0x0 REVERT JUMPDEST DUP4 PUSH1 0x1D PUSH1 0x64 SWAP3 PUSH1 0x40 MLOAD SWAP3 PUSH3 0x461BCD PUSH1 0xE5 SHL DUP5 MSTORE PUSH1 0x4 DUP5 ADD MSTORE DUP3 ADD MSTORE PUSH32 0x47726F7570506F6F6C3A20506F6F6C206E6F7420636F6D706C65746564000000 PUSH1 0x44 DUP3 ADD MSTORE REVERT JUMPDEST DUP4 PUSH1 0x1C PUSH1 0x64 SWAP3 PUSH1 0x40 MLOAD SWAP3 PUSH3 0x461BCD PUSH1 0xE5 SHL DUP5 MSTORE PUSH1 0x4 DUP5 ADD MSTORE DUP3 ADD MSTORE PUSH32 0x47726F7570506F6F6C3A20416C72656164792077697468647261776E00000000 PUSH1 0x44 DUP3 ADD MSTORE REVERT JUMPDEST PUSH1 0x64 SWAP2 PUSH1 0x40 MLOAD SWAP2 PUSH3 0x461BCD PUSH1 0xE5 SHL DUP4 MSTORE DUP2 PUSH1 0x4 DUP5 ADD MSTORE DUP3 ADD MSTORE PUSH32 0x47726F7570506F6F6C3A204C6F636B20706572696F64206E6F7420656E646564 PUSH1 0x44 DUP3 ADD MSTORE REVERT JUMPDEST POP PUSH1 0x7 SLOAD DUP3 LT PUSH2 0xF8D JUMP JUMPDEST CALLVALUE PUSH2 0x204 JUMPI PUSH1 0x0 CALLDATASIZE PUSH1 0x3 NOT ADD SLT PUSH2 0x204 JUMPI PUSH1 0x20 PUSH1 0x40 MLOAD PUSH4 0x1E13380 DUP2 MSTORE RETURN JUMPDEST CALLVALUE PUSH2 0x204 JUMPI PUSH1 0xC0 CALLDATASIZE PUSH1 0x3 NOT ADD SLT PUSH2 0x204 JUMPI PUSH1 0x4 CALLDATALOAD PUSH8 0xFFFFFFFFFFFFFFFF DUP2 GT PUSH2 0x204 JUMPI PUSH2 0x13A0 SWAP1 CALLDATASIZE SWAP1 PUSH1 0x4 ADD PUSH2 0x1DB0 JUMP JUMPDEST PUSH1 0x24 CALLDATALOAD PUSH8 0xFFFFFFFFFFFFFFFF DUP2 GT PUSH2 0x204 JUMPI PUSH2 0x13C0 SWAP1 CALLDATASIZE SWAP1 PUSH1 0x4 ADD PUSH2 0x1DB0 JUMP JUMPDEST PUSH1 0xA4 CALLDATALOAD DUP1 ISZERO ISZERO SUB PUSH2 0x204 JUMPI DUP2 MLOAD ISZERO PUSH2 0x1942 JUMPI PUSH1 0x44 SWAP2 PUSH8 0x16345785D8A0000 DUP4 CALLDATALOAD LT PUSH2 0x18FE JUMPI PUSH10 0x21E19E0C9BAB2400000 DUP4 CALLDATALOAD GT PUSH2 0x18B0 JUMPI PUSH1 0x2 PUSH1 0x64 CALLDATALOAD LT PUSH2 0x186C JUMPI PUSH1 0x32 PUSH1 0x64 CALLDATALOAD GT PUSH2 0x1828 JUMPI PUSH3 0x93A80 PUSH1 0x84 CALLDATALOAD LT PUSH2 0x17D9 JUMPI PUSH4 0x1E13380 PUSH1 0x84 CALLDATALOAD GT PUSH2 0x178B JUMPI PUSH1 0x7 SLOAD SWAP2 PUSH2 0x1431 DUP4 PUSH2 0x1F22 JUMP JUMPDEST PUSH1 0x7 SSTORE DUP3 PUSH1 0x0 MSTORE PUSH1 0x2 PUSH1 0x20 MSTORE PUSH1 0x40 PUSH1 0x0 KECCAK256 SWAP1 DUP4 DUP3 SSTORE PUSH1 0x1 DUP3 ADD CALLER PUSH1 0x1 PUSH1 0x1 PUSH1 0x60 SHL SUB PUSH1 0xA0 SHL DUP3 SLOAD AND OR SWAP1 SSTORE DUP3 MLOAD PUSH8 0xFFFFFFFFFFFFFFFF DUP2 GT PUSH2 0xCC7 JUMPI PUSH2 0x147A PUSH1 0x2 DUP5 ADD SLOAD PUSH2 0x1E16 JUMP JUMPDEST PUSH1 0x1F DUP2 GT PUSH2 0x1744 JUMPI JUMPDEST POP DUP1 PUSH1 0x20 PUSH1 0x1F DUP3 GT PUSH1 0x1 EQ PUSH2 0x16D7 JUMPI PUSH1 0x0 SWAP2 PUSH2 0x16CC JUMPI JUMPDEST POP DUP2 PUSH1 0x1 SHL SWAP2 PUSH1 0x0 NOT SWAP1 PUSH1 0x3 SHL SHR NOT AND OR PUSH1 0x2 DUP4 ADD SSTORE JUMPDEST DUP1 MLOAD SWAP1 PUSH8 0xFFFFFFFFFFFFFFFF DUP3 GT PUSH2 0xCC7 JUMPI PUSH2 0x14D0 PUSH1 0x3 DUP5 ADD SLOAD PUSH2 0x1E16 JUMP JUMPDEST PUSH1 0x1F DUP2 GT PUSH2 0x1681 JUMPI JUMPDEST POP PUSH1 0x20 SWAP1 PUSH1 0x1F DUP4 GT PUSH1 0x1 EQ PUSH2 0x15EE JUMPI PUSH32 0x80EB862B1EBF91EF46E8085C1E47B348AF9AD8F1248FB18302612A57AD3A2B55 SWAP5 SWAP4 SWAP3 SWAP2 PUSH1 0x0 SWAP2 DUP4 PUSH2 0x15E3 JUMPI JUMPDEST POP POP DUP2 PUSH1 0x1 SHL SWAP2 PUSH1 0x0 NOT SWAP1 PUSH1 0x3 SHL SHR NOT AND OR PUSH1 0x3 DUP3 ADD SSTORE JUMPDEST DUP5 CALLDATALOAD PUSH1 0x4 DUP3 ADD SSTORE PUSH1 0x0 PUSH1 0x5 DUP3 ADD SSTORE PUSH1 0x64 CALLDATALOAD PUSH1 0x6 DUP3 ADD SSTORE PUSH1 0x0 PUSH1 0x7 DUP3 ADD SSTORE PUSH1 0x84 CALLDATALOAD PUSH1 0x8 DUP3 ADD SSTORE TIMESTAMP PUSH1 0x9 DUP3 ADD SSTORE PUSH2 0x1565 PUSH1 0x84 CALLDATALOAD TIMESTAMP PUSH2 0x1F31 JUMP JUMPDEST PUSH1 0xA DUP3 ADD SSTORE PUSH1 0xB DUP2 ADD PUSH2 0x100 PUSH2 0xFFFF NOT DUP3 SLOAD AND OR SWAP1 SSTORE PUSH1 0x0 PUSH1 0xC DUP3 ADD SSTORE PUSH1 0xD PUSH1 0x8 SLOAD SWAP2 ADD SSTORE PUSH2 0x1595 PUSH1 0xA SLOAD PUSH2 0x1F22 JUMP JUMPDEST PUSH1 0xA SSTORE CALLER PUSH1 0x0 MSTORE PUSH1 0x4 PUSH1 0x20 MSTORE PUSH2 0x15AF DUP4 PUSH1 0x40 PUSH1 0x0 KECCAK256 PUSH2 0x1F3E JUMP JUMPDEST PUSH2 0x15C4 PUSH1 0x40 MLOAD SWAP2 PUSH1 0x80 DUP4 MSTORE PUSH1 0x80 DUP4 ADD SWAP1 PUSH2 0x1C26 JUMP JUMPDEST SWAP4 CALLDATALOAD PUSH1 0x20 DUP3 ADD MSTORE PUSH1 0x64 CALLDATALOAD PUSH1 0x40 DUP3 ADD MSTORE PUSH1 0x84 CALLDATALOAD PUSH1 0x60 DUP3 ADD MSTORE DUP1 CALLER SWAP5 SUB SWAP1 LOG3 STOP JUMPDEST ADD MLOAD SWAP1 POP DUP8 DUP1 PUSH2 0x1516 JUMP JUMPDEST SWAP1 PUSH1 0x3 DUP5 ADD PUSH1 0x0 MSTORE PUSH1 0x20 PUSH1 0x0 KECCAK256 SWAP2 PUSH1 0x0 JUMPDEST PUSH1 0x1F NOT DUP6 AND DUP2 LT PUSH2 0x1669 JUMPI POP SWAP2 DUP4 SWAP2 PUSH1 0x1 SWAP4 PUSH32 0x80EB862B1EBF91EF46E8085C1E47B348AF9AD8F1248FB18302612A57AD3A2B55 SWAP8 SWAP7 SWAP6 PUSH1 0x1F NOT DUP2 AND LT PUSH2 0x1650 JUMPI JUMPDEST POP POP POP DUP2 SHL ADD PUSH1 0x3 DUP3 ADD SSTORE PUSH2 0x152E JUMP JUMPDEST ADD MLOAD PUSH1 0x0 NOT PUSH1 0xF8 DUP5 PUSH1 0x3 SHL AND SHR NOT AND SWAP1 SSTORE DUP8 DUP1 DUP1 PUSH2 0x1640 JUMP JUMPDEST SWAP2 SWAP3 PUSH1 0x20 PUSH1 0x1 DUP2 SWAP3 DUP7 DUP6 ADD MLOAD DUP2 SSTORE ADD SWAP5 ADD SWAP3 ADD PUSH2 0x15FF JUMP JUMPDEST PUSH1 0x3 DUP5 ADD PUSH1 0x0 MSTORE PUSH1 0x20 PUSH1 0x0 KECCAK256 PUSH1 0x1F DUP5 ADD PUSH1 0x5 SHR DUP2 ADD SWAP2 PUSH1 0x20 DUP6 LT PUSH2 0x16C2 JUMPI JUMPDEST PUSH1 0x1F ADD PUSH1 0x5 SHR ADD SWAP1 JUMPDEST DUP2 DUP2 LT PUSH2 0x16B6 JUMPI POP PUSH2 0x14D9 JUMP JUMPDEST PUSH1 0x0 DUP2 SSTORE PUSH1 0x1 ADD PUSH2 0x16A9 JUMP JUMPDEST SWAP1 SWAP2 POP DUP2 SWAP1 PUSH2 0x16A0 JUMP JUMPDEST SWAP1 POP DUP5 ADD MLOAD DUP8 PUSH2 0x149A JUMP JUMPDEST SWAP2 POP PUSH1 0x2 DUP5 ADD PUSH1 0x0 MSTORE PUSH1 0x20 PUSH1 0x0 KECCAK256 PUSH1 0x0 SWAP3 JUMPDEST PUSH1 0x1F NOT DUP4 AND DUP5 LT PUSH2 0x172C JUMPI PUSH1 0x1 SWAP4 POP DUP3 PUSH1 0x1F NOT DUP2 AND LT PUSH2 0x1713 JUMPI JUMPDEST POP POP DUP2 SHL ADD PUSH1 0x2 DUP4 ADD SSTORE PUSH2 0x14B1 JUMP JUMPDEST DUP7 ADD MLOAD PUSH1 0x0 NOT PUSH1 0xF8 DUP5 PUSH1 0x3 SHL AND SHR NOT AND SWAP1 SSTORE DUP8 DUP1 PUSH2 0x1704 JUMP JUMPDEST DUP7 DUP2 ADD MLOAD DUP3 SSTORE PUSH1 0x20 SWAP4 DUP5 ADD SWAP4 PUSH1 0x1 SWAP1 SWAP3 ADD SWAP2 ADD PUSH2 0x16E9 JUMP JUMPDEST PUSH1 0x2 DUP5 ADD PUSH1 0x0 MSTORE PUSH1 0x20 PUSH1 0x0 KECCAK256 PUSH1 0x1F DUP4 ADD PUSH1 0x5 SHR DUP2 ADD PUSH1 0x20 DUP5 LT PUSH2 0x1784 JUMPI JUMPDEST PUSH1 0x1F DUP4 ADD PUSH1 0x5 SHR DUP3 ADD DUP2 LT PUSH2 0x1778 JUMPI POP POP PUSH2 0x1483 JUMP JUMPDEST PUSH1 0x0 DUP2 SSTORE PUSH1 0x1 ADD PUSH2 0x1762 JUMP JUMPDEST POP DUP1 PUSH2 0x1762 JUMP JUMPDEST PUSH1 0x40 MLOAD PUSH3 0x461BCD PUSH1 0xE5 SHL DUP2 MSTORE PUSH1 0x20 PUSH1 0x4 DUP3 ADD MSTORE PUSH1 0x21 PUSH1 0x24 DUP3 ADD MSTORE PUSH32 0x47726F7570506F6F6C3A204C6F636B206475726174696F6E20746F6F206C6F6E DUP2 DUP6 ADD MSTORE PUSH1 0x67 PUSH1 0xF8 SHL PUSH1 0x64 DUP3 ADD MSTORE PUSH1 0x84 SWAP1 REVERT JUMPDEST PUSH1 0x40 MLOAD PUSH3 0x461BCD PUSH1 0xE5 SHL DUP2 MSTORE PUSH1 0x20 PUSH1 0x4 DUP3 ADD MSTORE PUSH1 0x22 PUSH1 0x24 DUP3 ADD MSTORE PUSH32 0x47726F7570506F6F6C3A204C6F636B206475726174696F6E20746F6F2073686F DUP2 DUP6 ADD MSTORE PUSH2 0x1C9D PUSH1 0xF2 SHL PUSH1 0x64 DUP3 ADD MSTORE PUSH1 0x84 SWAP1 REVERT JUMPDEST PUSH1 0x40 MLOAD PUSH3 0x461BCD PUSH1 0xE5 SHL DUP2 MSTORE PUSH1 0x20 PUSH1 0x4 DUP3 ADD MSTORE PUSH1 0x1B PUSH1 0x24 DUP3 ADD MSTORE PUSH32 0x47726F7570506F6F6C3A20546F6F206D616E79206D656D626572730000000000 DUP2 DUP6 ADD MSTORE PUSH1 0x64 SWAP1 REVERT JUMPDEST PUSH1 0x40 MLOAD PUSH3 0x461BCD PUSH1 0xE5 SHL DUP2 MSTORE PUSH1 0x20 PUSH1 0x4 DUP3 ADD MSTORE PUSH1 0x1A PUSH1 0x24 DUP3 ADD MSTORE PUSH32 0x47726F7570506F6F6C3A20546F6F20666577206D656D62657273000000000000 DUP2 DUP6 ADD MSTORE PUSH1 0x64 SWAP1 REVERT JUMPDEST PUSH1 0x40 MLOAD PUSH3 0x461BCD PUSH1 0xE5 SHL DUP2 MSTORE PUSH1 0x20 PUSH1 0x4 DUP3 ADD MSTORE PUSH1 0x21 PUSH1 0x24 DUP3 ADD MSTORE PUSH32 0x47726F7570506F6F6C3A2054617267657420616D6F756E7420746F6F20686967 DUP2 DUP6 ADD MSTORE PUSH1 0xD PUSH1 0xFB SHL PUSH1 0x64 DUP3 ADD MSTORE PUSH1 0x84 SWAP1 REVERT JUMPDEST PUSH1 0x40 MLOAD PUSH3 0x461BCD PUSH1 0xE5 SHL DUP2 MSTORE PUSH1 0x20 PUSH1 0x4 DUP3 ADD DUP2 SWAP1 MSTORE PUSH1 0x24 DUP3 ADD MSTORE PUSH32 0x47726F7570506F6F6C3A2054617267657420616D6F756E7420746F6F206C6F77 DUP2 DUP6 ADD MSTORE PUSH1 0x64 SWAP1 REVERT JUMPDEST PUSH1 0x40 MLOAD PUSH3 0x461BCD PUSH1 0xE5 SHL DUP2 MSTORE PUSH1 0x20 PUSH1 0x4 DUP3 ADD MSTORE PUSH1 0x18 PUSH1 0x24 DUP3 ADD MSTORE PUSH32 0x47726F7570506F6F6C3A204E616D652072657175697265640000000000000000 PUSH1 0x44 DUP3 ADD MSTORE PUSH1 0x64 SWAP1 REVERT JUMPDEST CALLVALUE PUSH2 0x204 JUMPI PUSH1 0x20 DUP1 PUSH1 0x3 NOT CALLDATASIZE ADD SLT PUSH2 0x204 JUMPI PUSH1 0x1 PUSH1 0x1 PUSH1 0xA0 SHL SUB PUSH2 0x19A9 PUSH2 0x1D0F JUMP JUMPDEST AND PUSH1 0x0 MSTORE PUSH1 0x4 DUP2 MSTORE PUSH1 0x40 PUSH1 0x0 KECCAK256 SWAP1 PUSH1 0x40 MLOAD SWAP1 DUP2 DUP2 DUP5 SLOAD SWAP2 DUP3 DUP2 MSTORE ADD SWAP4 PUSH1 0x0 MSTORE DUP2 PUSH1 0x0 KECCAK256 SWAP2 PUSH1 0x0 SWAP1 JUMPDEST DUP3 DUP3 LT PUSH2 0x19E8 JUMPI PUSH2 0x81B DUP6 PUSH2 0x880 DUP2 DUP10 SUB DUP3 PUSH2 0x1D8E JUMP JUMPDEST DUP4 SLOAD DUP7 MSTORE SWAP5 DUP6 ADD SWAP5 PUSH1 0x1 SWAP4 DUP5 ADD SWAP4 SWAP1 SWAP2 ADD SWAP1 PUSH2 0x19D1 JUMP JUMPDEST CALLVALUE PUSH2 0x204 JUMPI PUSH1 0x40 CALLDATASIZE PUSH1 0x3 NOT ADD SLT PUSH2 0x204 JUMPI PUSH1 0x24 CALLDATALOAD PUSH1 0x1 PUSH1 0x1 PUSH1 0xA0 SHL SUB DUP2 AND SWAP1 PUSH1 0x4 CALLDATALOAD SWAP1 DUP3 SWAP1 SUB PUSH2 0x204 JUMPI DUP1 ISZERO ISZERO DUP1 PUSH2 0x1AC7 JUMPI JUMPDEST PUSH2 0x1A3B SWAP1 PUSH2 0x1F73 JUMP JUMPDEST PUSH1 0x0 MSTORE PUSH1 0x2 PUSH1 0x20 MSTORE PUSH1 0x40 PUSH1 0x0 KECCAK256 SWAP1 DUP1 PUSH1 0x0 MSTORE PUSH1 0xF DUP3 ADD PUSH1 0x20 MSTORE PUSH1 0x40 PUSH1 0x0 KECCAK256 SLOAD SWAP1 PUSH1 0x5 DUP4 ADD SLOAD DUP1 ISZERO ISZERO PUSH1 0x0 EQ PUSH2 0x1AB9 JUMPI PUSH8 0xDE0B6B3A7640000 SWAP4 DUP5 DUP5 MUL SWAP5 DUP5 DUP7 DIV EQ DUP5 ISZERO OR ISZERO PUSH2 0xC76 JUMPI PUSH2 0x1A92 PUSH1 0x11 SWAP3 PUSH1 0x60 SWAP7 PUSH2 0x2180 JUMP JUMPDEST SWAP3 JUMPDEST PUSH1 0x0 MSTORE ADD PUSH1 0x20 MSTORE PUSH1 0xFF PUSH1 0x40 PUSH1 0x0 KECCAK256 SLOAD AND SWAP1 PUSH1 0x40 MLOAD SWAP3 DUP4 MSTORE PUSH1 0x20 DUP4 ADD MSTORE ISZERO ISZERO PUSH1 0x40 DUP3 ADD MSTORE RETURN JUMPDEST POP PUSH1 0x11 PUSH1 0x60 SWAP4 PUSH1 0x0 SWAP3 PUSH2 0x1A94 JUMP JUMPDEST POP PUSH1 0x7 SLOAD DUP2 LT PUSH2 0x1A32 JUMP JUMPDEST CALLVALUE PUSH2 0x204 JUMPI PUSH1 0x0 CALLDATASIZE PUSH1 0x3 NOT ADD SLT PUSH2 0x204 JUMPI PUSH1 0x20 PUSH1 0x7 SLOAD PUSH1 0x40 MLOAD SWAP1 DUP2 MSTORE RETURN JUMPDEST CALLVALUE PUSH2 0x204 JUMPI PUSH1 0x40 CALLDATASIZE PUSH1 0x3 NOT ADD SLT PUSH2 0x204 JUMPI PUSH2 0x1B09 PUSH2 0x1D0F JUMP JUMPDEST PUSH1 0x1 PUSH1 0x1 PUSH1 0xA0 SHL SUB AND PUSH1 0x0 SWAP1 DUP2 MSTORE PUSH1 0x3 PUSH1 0x20 MSTORE PUSH1 0x40 SWAP1 KECCAK256 DUP1 SLOAD PUSH1 0x24 CALLDATALOAD SWAP2 SWAP1 DUP3 LT ISZERO PUSH2 0x204 JUMPI PUSH1 0x20 SWAP2 PUSH2 0x1B3A SWAP2 PUSH2 0x1D25 JUMP JUMPDEST SWAP1 SLOAD SWAP1 PUSH1 0x3 SHL SHR PUSH1 0x40 MLOAD SWAP1 DUP2 MSTORE RETURN JUMPDEST CALLVALUE PUSH2 0x204 JUMPI PUSH1 0x20 CALLDATASIZE PUSH1 0x3 NOT ADD SLT PUSH2 0x204 JUMPI PUSH1 0x4 CALLDATALOAD DUP1 ISZERO ISZERO DUP1 PUSH2 0x1C00 JUMPI JUMPDEST PUSH2 0x1B6F SWAP1 PUSH2 0x1F73 JUMP JUMPDEST PUSH1 0x0 MSTORE PUSH1 0x2 PUSH1 0x20 MSTORE PUSH1 0x40 PUSH1 0x0 KECCAK256 DUP1 SLOAD SWAP1 PUSH1 0x1 PUSH1 0xA0 SHL PUSH1 0x1 SWAP1 SUB PUSH1 0x1 DUP3 ADD SLOAD AND PUSH1 0x4 DUP3 ADD SLOAD SWAP3 PUSH1 0x5 DUP4 ADD SLOAD SWAP1 PUSH1 0x6 DUP5 ADD SLOAD SWAP1 PUSH1 0x7 DUP6 ADD SLOAD SWAP1 PUSH1 0x8 DUP7 ADD SLOAD PUSH1 0x9 DUP8 ADD SLOAD PUSH1 0xA DUP9 ADD SLOAD SWAP2 PUSH1 0xB DUP10 ADD SLOAD SWAP5 PUSH1 0xC DUP11 ADD SLOAD SWAP7 PUSH1 0xD DUP12 ADD SLOAD SWAP9 PUSH1 0x2 DUP13 ADD PUSH2 0x1BD5 SWAP1 PUSH2 0x1E50 JUMP JUMPDEST SWAP12 PUSH1 0x3 ADD PUSH2 0x1BE2 SWAP1 PUSH2 0x1E50 JUMP JUMPDEST SWAP13 PUSH1 0x40 MLOAD SWAP14 DUP15 SWAP14 DUP15 SWAP14 DUP12 PUSH1 0x8 SHR PUSH1 0xFF AND SWAP12 PUSH1 0xFF AND SWAP11 PUSH2 0x81B SWAP16 PUSH2 0x1C66 JUMP JUMPDEST POP PUSH1 0x7 SLOAD DUP2 LT PUSH2 0x1B66 JUMP JUMPDEST CALLVALUE PUSH2 0x204 JUMPI PUSH1 0x0 CALLDATASIZE PUSH1 0x3 NOT ADD SLT PUSH2 0x204 JUMPI PUSH1 0x20 SWAP1 PUSH1 0x8 SLOAD DUP2 MSTORE RETURN JUMPDEST SWAP2 SWAP1 DUP3 MLOAD SWAP3 DUP4 DUP3 MSTORE PUSH1 0x0 JUMPDEST DUP5 DUP2 LT PUSH2 0x1C52 JUMPI POP POP DUP3 PUSH1 0x0 PUSH1 0x20 DUP1 SWAP5 SWAP6 DUP5 ADD ADD MSTORE PUSH1 0x1F DUP1 NOT SWAP2 ADD AND ADD ADD SWAP1 JUMP JUMPDEST PUSH1 0x20 DUP2 DUP4 ADD DUP2 ADD MLOAD DUP5 DUP4 ADD DUP3 ADD MSTORE ADD PUSH2 0x1C31 JUMP JUMPDEST SWAP12 SWAP9 SWAP6 SWAP3 SWAP5 SWAP16 SWAP15 SWAP14 SWAP11 SWAP8 SWAP5 PUSH2 0x1CA4 SWAP1 DUP14 PUSH2 0x1C0 SWAP16 SWAP13 SWAP10 SWAP7 SWAP4 PUSH2 0x1CB2 SWAP6 PUSH1 0x20 SWAP2 DUP4 MSTORE PUSH1 0x1 DUP1 PUSH1 0xA0 SHL SUB AND SWAP2 ADD MSTORE DUP14 PUSH2 0x1E0 SWAP1 DUP2 PUSH1 0x40 DUP3 ADD MSTORE ADD SWAP1 PUSH2 0x1C26 JUMP JUMPDEST DUP13 DUP2 SUB PUSH1 0x60 DUP15 ADD MSTORE SWAP1 PUSH2 0x1C26 JUMP JUMPDEST SWAP14 PUSH1 0x80 DUP12 ADD MSTORE PUSH1 0xA0 DUP11 ADD MSTORE PUSH1 0xC0 DUP10 ADD MSTORE PUSH1 0xE0 DUP9 ADD MSTORE PUSH2 0x100 DUP8 ADD MSTORE PUSH2 0x120 DUP7 ADD MSTORE PUSH2 0x140 DUP6 ADD MSTORE ISZERO ISZERO PUSH2 0x160 DUP5 ADD MSTORE ISZERO ISZERO PUSH2 0x180 DUP4 ADD MSTORE PUSH2 0x1A0 DUP3 ADD MSTORE ADD MSTORE JUMP JUMPDEST CALLVALUE PUSH2 0x204 JUMPI PUSH1 0x0 CALLDATASIZE PUSH1 0x3 NOT ADD SLT PUSH2 0x204 JUMPI PUSH1 0x20 PUSH1 0x40 MLOAD PUSH1 0xC8 DUP2 MSTORE RETURN JUMPDEST PUSH1 0x4 CALLDATALOAD SWAP1 PUSH1 0x1 PUSH1 0x1 PUSH1 0xA0 SHL SUB DUP3 AND DUP3 SUB PUSH2 0x204 JUMPI JUMP JUMPDEST DUP1 SLOAD DUP3 LT ISZERO PUSH2 0x1D3D JUMPI PUSH1 0x0 MSTORE PUSH1 0x20 PUSH1 0x0 KECCAK256 ADD SWAP1 PUSH1 0x0 SWAP1 JUMP JUMPDEST PUSH4 0x4E487B71 PUSH1 0xE0 SHL PUSH1 0x0 MSTORE PUSH1 0x32 PUSH1 0x4 MSTORE PUSH1 0x24 PUSH1 0x0 REVERT JUMPDEST PUSH1 0x20 SWAP1 DUP2 PUSH1 0x40 DUP2 DUP4 ADD SWAP3 DUP3 DUP2 MSTORE DUP6 MLOAD DUP1 SWAP5 MSTORE ADD SWAP4 ADD SWAP2 PUSH1 0x0 JUMPDEST DUP3 DUP2 LT PUSH2 0x1D7A JUMPI POP POP POP POP SWAP1 JUMP JUMPDEST DUP4 MLOAD DUP6 MSTORE SWAP4 DUP2 ADD SWAP4 SWAP3 DUP2 ADD SWAP3 PUSH1 0x1 ADD PUSH2 0x1D6C JUMP JUMPDEST SWAP1 PUSH1 0x1F DUP1 NOT SWAP2 ADD AND DUP2 ADD SWAP1 DUP2 LT PUSH8 0xFFFFFFFFFFFFFFFF DUP3 GT OR PUSH2 0xCC7 JUMPI PUSH1 0x40 MSTORE JUMP JUMPDEST DUP2 PUSH1 0x1F DUP3 ADD SLT ISZERO PUSH2 0x204 JUMPI DUP1 CALLDATALOAD SWAP1 PUSH8 0xFFFFFFFFFFFFFFFF DUP3 GT PUSH2 0xCC7 JUMPI PUSH1 0x40 MLOAD SWAP3 PUSH2 0x1DE5 PUSH1 0x1F DUP5 ADD PUSH1 0x1F NOT AND PUSH1 0x20 ADD DUP6 PUSH2 0x1D8E JUMP JUMPDEST DUP3 DUP5 MSTORE PUSH1 0x20 DUP4 DUP4 ADD ADD GT PUSH2 0x204 JUMPI DUP2 PUSH1 0x0 SWAP3 PUSH1 0x20 DUP1 SWAP4 ADD DUP4 DUP7 ADD CALLDATACOPY DUP4 ADD ADD MSTORE SWAP1 JUMP JUMPDEST PUSH1 0x44 CALLDATALOAD SWAP1 DUP2 ISZERO ISZERO DUP3 SUB PUSH2 0x204 JUMPI JUMP JUMPDEST SWAP1 PUSH1 0x1 DUP3 DUP2 SHR SWAP3 AND DUP1 ISZERO PUSH2 0x1E46 JUMPI JUMPDEST PUSH1 0x20 DUP4 LT EQ PUSH2 0x1E30 JUMPI JUMP JUMPDEST PUSH4 0x4E487B71 PUSH1 0xE0 SHL PUSH1 0x0 MSTORE PUSH1 0x22 PUSH1 0x4 MSTORE PUSH1 0x24 PUSH1 0x0 REVERT JUMPDEST SWAP2 PUSH1 0x7F AND SWAP2 PUSH2 0x1E25 JUMP JUMPDEST SWAP1 PUSH1 0x40 MLOAD SWAP2 DUP3 PUSH1 0x0 DUP3 SLOAD SWAP3 PUSH2 0x1E64 DUP5 PUSH2 0x1E16 JUMP JUMPDEST SWAP1 DUP2 DUP5 MSTORE PUSH1 0x1 SWAP5 DUP6 DUP2 AND SWAP1 DUP2 PUSH1 0x0 EQ PUSH2 0x1ED3 JUMPI POP PUSH1 0x1 EQ PUSH2 0x1E90 JUMPI JUMPDEST POP POP PUSH2 0x1E8E SWAP3 POP SUB DUP4 PUSH2 0x1D8E JUMP JUMPDEST JUMP JUMPDEST SWAP1 SWAP4 SWAP2 POP PUSH1 0x0 MSTORE PUSH1 0x20 SWAP1 DUP2 PUSH1 0x0 KECCAK256 SWAP4 PUSH1 0x0 SWAP2 JUMPDEST DUP2 DUP4 LT PUSH2 0x1EBB JUMPI POP POP PUSH2 0x1E8E SWAP4 POP DUP3 ADD ADD CODESIZE DUP1 PUSH2 0x1E80 JUMP JUMPDEST DUP6 SLOAD DUP9 DUP5 ADD DUP6 ADD MSTORE SWAP5 DUP6 ADD SWAP5 DUP8 SWAP5 POP SWAP2 DUP4 ADD SWAP2 PUSH2 0x1EA3 JUMP JUMPDEST SWAP2 POP POP PUSH2 0x1E8E SWAP5 POP PUSH1 0x20 SWAP3 POP PUSH1 0xFF NOT AND DUP3 DUP5 ADD MSTORE ISZERO ISZERO PUSH1 0x5 SHL DUP3 ADD ADD CODESIZE DUP1 PUSH2 0x1E80 JUMP JUMPDEST PUSH1 0x1 SLOAD PUSH1 0x1 PUSH1 0x1 PUSH1 0xA0 SHL SUB AND CALLER SUB PUSH2 0x1F0A JUMPI JUMP JUMPDEST PUSH1 0x40 MLOAD PUSH4 0x118CDAA7 PUSH1 0xE0 SHL DUP2 MSTORE CALLER PUSH1 0x4 DUP3 ADD MSTORE PUSH1 0x24 SWAP1 REVERT JUMPDEST PUSH1 0x0 NOT DUP2 EQ PUSH2 0xC76 JUMPI PUSH1 0x1 ADD SWAP1 JUMP JUMPDEST SWAP2 SWAP1 DUP3 ADD DUP1 SWAP3 GT PUSH2 0xC76 JUMPI JUMP JUMPDEST DUP1 SLOAD PUSH1 0x1 PUSH1 0x40 SHL DUP2 LT ISZERO PUSH2 0xCC7 JUMPI PUSH2 0x1F5B SWAP2 PUSH1 0x1 DUP3 ADD DUP2 SSTORE PUSH2 0x1D25 JUMP JUMPDEST DUP2 SWAP3 SWAP2 SLOAD SWAP1 PUSH1 0x3 SHL SWAP2 DUP3 SHL SWAP2 PUSH1 0x0 NOT SWAP1 SHL NOT AND OR SWAP1 SSTORE JUMP JUMPDEST ISZERO PUSH2 0x1F7A JUMPI JUMP JUMPDEST PUSH1 0x40 MLOAD PUSH3 0x461BCD PUSH1 0xE5 SHL DUP2 MSTORE PUSH1 0x20 PUSH1 0x4 DUP3 ADD MSTORE PUSH1 0x1E PUSH1 0x24 DUP3 ADD MSTORE PUSH32 0x47726F7570506F6F6C3A20506F6F6C20646F6573206E6F742065786973740000 PUSH1 0x44 DUP3 ADD MSTORE PUSH1 0x64 SWAP1 REVERT JUMPDEST ISZERO PUSH2 0x1FC6 JUMPI JUMP JUMPDEST PUSH1 0x40 MLOAD PUSH3 0x461BCD PUSH1 0xE5 SHL DUP2 MSTORE PUSH1 0x20 PUSH1 0x4 DUP3 ADD MSTORE PUSH1 0x1A PUSH1 0x24 DUP3 ADD MSTORE PUSH32 0x47726F7570506F6F6C3A20506F6F6C206E6F7420616374697665000000000000 PUSH1 0x44 DUP3 ADD MSTORE PUSH1 0x64 SWAP1 REVERT JUMPDEST ISZERO PUSH2 0x2012 JUMPI JUMP JUMPDEST PUSH1 0x40 MLOAD PUSH3 0x461BCD PUSH1 0xE5 SHL DUP2 MSTORE PUSH1 0x20 PUSH1 0x4 DUP3 ADD MSTORE PUSH1 0x21 PUSH1 0x24 DUP3 ADD MSTORE PUSH32 0x47726F7570506F6F6C3A20506F6F6C20616C726561647920636F6D706C657465 PUSH1 0x44 DUP3 ADD MSTORE PUSH1 0x19 PUSH1 0xFA SHL PUSH1 0x64 DUP3 ADD MSTORE PUSH1 0x84 SWAP1 REVERT JUMPDEST ISZERO PUSH2 0x2068 JUMPI JUMP JUMPDEST PUSH1 0x40 MLOAD PUSH3 0x461BCD PUSH1 0xE5 SHL DUP2 MSTORE PUSH1 0x20 PUSH1 0x4 DUP3 ADD MSTORE PUSH1 0x28 PUSH1 0x24 DUP3 ADD MSTORE PUSH32 0x47726F7570506F6F6C3A20416D6F756E74206D75737420626520677265617465 PUSH1 0x44 DUP3 ADD MSTORE PUSH8 0x72207468616E203 PUSH1 0xC4 SHL PUSH1 0x64 DUP3 ADD MSTORE PUSH1 0x84 SWAP1 REVERT JUMPDEST ISZERO PUSH2 0x20C5 JUMPI JUMP JUMPDEST PUSH1 0x64 PUSH1 0x40 MLOAD PUSH3 0x461BCD PUSH1 0xE5 SHL DUP2 MSTORE PUSH1 0x20 PUSH1 0x4 DUP3 ADD MSTORE PUSH1 0x20 PUSH1 0x24 DUP3 ADD MSTORE PUSH32 0x47726F7570506F6F6C3A20457863656564732074617267657420616D6F756E74 PUSH1 0x44 DUP3 ADD MSTORE REVERT JUMPDEST SWAP1 DUP2 PUSH1 0x20 SWAP2 SUB SLT PUSH2 0x204 JUMPI MLOAD DUP1 ISZERO ISZERO DUP2 SUB PUSH2 0x204 JUMPI SWAP1 JUMP JUMPDEST ISZERO PUSH2 0x2128 JUMPI JUMP JUMPDEST PUSH1 0x40 MLOAD PUSH3 0x461BCD PUSH1 0xE5 SHL DUP2 MSTORE PUSH1 0x20 PUSH1 0x4 DUP3 ADD MSTORE PUSH1 0x1A PUSH1 0x24 DUP3 ADD MSTORE PUSH32 0x47726F7570506F6F6C3A205472616E73666572206661696C6564000000000000 PUSH1 0x44 DUP3 ADD MSTORE PUSH1 0x64 SWAP1 REVERT JUMPDEST DUP2 DUP2 MUL SWAP3 SWAP2 DUP2 ISZERO SWAP2 DUP5 DIV EQ OR ISZERO PUSH2 0xC76 JUMPI JUMP JUMPDEST DUP2 ISZERO PUSH2 0x218A JUMPI DIV SWAP1 JUMP JUMPDEST PUSH4 0x4E487B71 PUSH1 0xE0 SHL PUSH1 0x0 MSTORE PUSH1 0x12 PUSH1 0x4 MSTORE PUSH1 0x24 PUSH1 0x0 REVERT JUMPDEST PUSH1 0x2 PUSH1 0x0 SLOAD EQ PUSH2 0x21B1 JUMPI PUSH1 0x2 PUSH1 0x0 SSTORE JUMP JUMPDEST PUSH1 0x40 MLOAD PUSH4 0x3EE5AEB5 PUSH1 0xE0 SHL DUP2 MSTORE PUSH1 0x4 SWAP1 REVERT JUMPDEST ISZERO PUSH2 0x21CA JUMPI JUMP JUMPDEST PUSH1 0x40 MLOAD PUSH3 0x461BCD PUSH1 0xE5 SHL DUP2 MSTORE PUSH1 0x20 PUSH1 0x4 DUP3 ADD MSTORE PUSH1 0x17 PUSH1 0x24 DUP3 ADD MSTORE PUSH32 0x47726F7570506F6F6C3A204E6F742061206D656D626572000000000000000000 PUSH1 0x44 DUP3 ADD MSTORE PUSH1 0x64 SWAP1 REVERT JUMPDEST SWAP2 SWAP1 DUP3 SUB SWAP2 DUP3 GT PUSH2 0xC76 JUMPI JUMP JUMPDEST DUP1 PUSH1 0x0 MSTORE PUSH1 0x2 PUSH1 0x20 MSTORE PUSH32 0x88D91B760DADB6520ACBF85B0C896F73884D30AB8E465C348C74F093EF57EB3D PUSH1 0x40 DUP1 PUSH1 0x0 KECCAK256 PUSH1 0xB DUP2 ADD PUSH1 0x1 PUSH1 0xFF NOT DUP3 SLOAD AND OR SWAP1 SSTORE PUSH1 0xC PUSH2 0x226B PUSH1 0x9 DUP4 ADD SLOAD TIMESTAMP PUSH2 0x220F JUMP JUMPDEST SWAP2 PUSH5 0x496CEBB800 PUSH2 0x228E PUSH1 0x5 DUP4 ADD SLOAD SWAP5 PUSH2 0x2289 PUSH1 0xD DUP6 ADD SLOAD DUP8 PUSH2 0x216D JUMP JUMPDEST PUSH2 0x216D JUMP JUMPDEST DIV SWAP2 DUP3 SWAP2 ADD SSTORE DUP3 MLOAD SWAP2 DUP3 MSTORE PUSH1 0x20 DUP3 ADD MSTORE LOG2 JUMP INVALID LOG2 PUSH5 0x6970667358 0x22 SLT KECCAK256 REVERT 0x5D PUSH28 0x5E9A6734555B9A47935B42E05E376CE32C569042EE3F35A2468779C0 CALLER PUSH5 0x736F6C6343 STOP ADDMOD EQ STOP CALLER PUSH1 0x80 CALLVALUE PUSH3 0x6A2 JUMPI PUSH1 0x40 SWAP1 PUSH1 0x1 PUSH1 0x1 PUSH1 0x40 SHL SUB DUP2 DUP4 ADD DUP2 DUP2 GT DUP4 DUP3 LT OR PUSH3 0x68C JUMPI DUP4 MSTORE PUSH1 0x15 DUP3 MSTORE PUSH1 0x20 PUSH32 0x4C6F6F70466920536176696E6773204261646765730000000000000000000000 DUP2 DUP5 ADD MSTORE DUP4 MLOAD SWAP2 DUP5 DUP4 ADD DUP4 DUP2 LT DUP3 DUP3 GT OR PUSH3 0x68C JUMPI DUP6 MSTORE PUSH1 0x8 DUP4 MSTORE PUSH8 0x4C50464241444745 PUSH1 0xC0 SHL DUP3 DUP5 ADD MSTORE DUP4 MLOAD SWAP4 DUP2 DUP6 GT PUSH3 0x68C JUMPI PUSH1 0x0 SWAP5 DUP1 PUSH3 0x91 DUP8 SLOAD PUSH3 0x6A7 JUMP JUMPDEST SWAP3 PUSH1 0x1F SWAP4 DUP5 DUP2 GT PUSH3 0x65C JUMPI JUMPDEST POP DUP6 SWAP1 DUP5 DUP4 GT PUSH1 0x1 EQ PUSH3 0x5F4 JUMPI DUP9 SWAP3 PUSH3 0x5E8 JUMPI JUMPDEST POP POP DUP2 PUSH1 0x1 SHL SWAP2 PUSH1 0x0 NOT SWAP1 PUSH1 0x3 SHL SHR NOT AND OR DUP6 SSTORE JUMPDEST DUP4 MLOAD SWAP2 DUP3 GT PUSH3 0x5D4 JUMPI DUP2 SWAP1 PUSH1 0x1 SWAP5 PUSH3 0xE4 DUP7 SLOAD PUSH3 0x6A7 JUMP JUMPDEST DUP3 DUP2 GT PUSH3 0x599 JUMPI JUMPDEST POP DUP5 SWAP2 DUP4 GT PUSH1 0x1 EQ PUSH3 0x535 JUMPI DUP7 SWAP3 PUSH3 0x529 JUMPI JUMPDEST POP POP PUSH1 0x0 NOT PUSH1 0x3 DUP4 SWAP1 SHL SHR NOT AND SWAP1 DUP4 SHL OR DUP3 SSTORE JUMPDEST CALLER ISZERO PUSH3 0x511 JUMPI PUSH1 0x7 DUP1 SLOAD CALLER PUSH1 0x1 PUSH1 0x1 PUSH1 0xA0 SHL SUB NOT DUP3 AND DUP2 OR SWAP1 SWAP3 SSTORE PUSH9 0x3635C9ADC5DEA00000 SWAP5 DUP7 SWAP5 SWAP1 SWAP4 SWAP1 SWAP3 PUSH1 0xE SWAP3 PUSH1 0x1 PUSH1 0x1 PUSH1 0xA0 SHL SUB AND PUSH32 0x8BE0079C531659141344CD1FD0A4F28419497F9722A3DAAFE3B4186F6B6457E0 DUP7 DUP1 LOG3 DUP3 PUSH1 0x8 SSTORE DUP3 PUSH1 0xC SSTORE DUP3 DUP5 MSTORE PUSH1 0xD DUP1 DUP3 MSTORE DUP6 DUP6 KECCAK256 PUSH3 0x19D PUSH3 0x196 DUP3 SLOAD PUSH3 0x6A7 JUMP JUMPDEST DUP3 PUSH3 0x6FD JUMP JUMPDEST PUSH1 0x55 DUP2 SSTORE DUP6 MSTORE PUSH10 0x30B93A32B9173539B7B7 PUSH1 0xB1 SHL DUP5 DUP4 DUP8 KECCAK256 PUSH32 0x68747470733A2F2F6170692E6C6F6F7066692E6170702F6261646765732F7374 DUP2 SSTORE ADD SSTORE PUSH1 0x2 DUP6 MSTORE DUP1 DUP3 MSTORE DUP6 DUP6 KECCAK256 PUSH3 0x1F4 PUSH3 0x196 DUP3 SLOAD PUSH3 0x6A7 JUMP JUMPDEST PUSH1 0x5B DUP2 SSTORE DUP6 MSTORE PUSH13 0x3739B4B9BA32B73A173539B7B7 PUSH1 0x99 SHL DUP5 DUP4 DUP8 KECCAK256 PUSH32 0x68747470733A2F2F6170692E6C6F6F7066692E6170702F6261646765732F636F DUP2 SSTORE ADD SSTORE PUSH1 0x3 DUP6 MSTORE DUP1 DUP3 MSTORE DUP6 DUP6 KECCAK256 PUSH3 0x24E PUSH3 0x196 DUP3 SLOAD PUSH3 0x6A7 JUMP JUMPDEST PUSH1 0x59 DUP2 SSTORE DUP6 MSTORE PUSH12 0x3234B1B0BA32B2173539B7B7 PUSH1 0xA1 SHL DUP5 DUP4 DUP8 KECCAK256 PUSH32 0x68747470733A2F2F6170692E6C6F6F7066692E6170702F6261646765732F6465 DUP2 SSTORE ADD SSTORE PUSH1 0x4 DUP6 MSTORE DUP1 DUP3 MSTORE DUP6 DUP6 KECCAK256 PUSH3 0x2A7 PUSH3 0x196 DUP3 SLOAD PUSH3 0x6A7 JUMP JUMPDEST PUSH1 0x53 DUP2 SSTORE DUP6 MSTORE PUSH9 0x39BA32B9173539B7B7 PUSH1 0xB9 SHL DUP5 DUP4 DUP8 KECCAK256 PUSH32 0x68747470733A2F2F6170692E6C6F6F7066692E6170702F6261646765732F6D61 DUP2 SSTORE ADD SSTORE PUSH1 0x5 DUP6 MSTORE DUP1 DUP3 MSTORE DUP6 DUP6 KECCAK256 PUSH3 0x2FD PUSH3 0x196 DUP3 SLOAD PUSH3 0x6A7 JUMP JUMPDEST PUSH1 0x53 DUP2 SSTORE DUP6 MSTORE PUSH9 0x33B2B732173539B7B7 PUSH1 0xB9 SHL DUP5 DUP4 DUP8 KECCAK256 PUSH32 0x68747470733A2F2F6170692E6C6F6F7066692E6170702F6261646765732F6C65 DUP2 SSTORE ADD SSTORE PUSH1 0x6 DUP6 MSTORE DUP1 DUP3 MSTORE DUP6 DUP6 KECCAK256 PUSH3 0x353 PUSH3 0x196 DUP3 SLOAD PUSH3 0x6A7 JUMP JUMPDEST PUSH1 0x5F DUP2 SSTORE DUP6 MSTORE PUSH15 0x37BAB816B632B0B232B9173539B7B7 PUSH1 0x89 SHL DUP5 DUP4 DUP8 KECCAK256 PUSH32 0x68747470733A2F2F6170692E6C6F6F7066692E6170702F6261646765732F6772 DUP2 SSTORE ADD SSTORE PUSH1 0x7 DUP6 MSTORE DUP1 DUP3 MSTORE DUP6 DUP6 KECCAK256 PUSH3 0x3AF PUSH3 0x196 DUP3 SLOAD PUSH3 0x6A7 JUMP JUMPDEST PUSH1 0x5F DUP2 SSTORE DUP6 MSTORE PUSH15 0x31B4B0B616B9B0BB32B9173539B7B7 PUSH1 0x89 SHL DUP5 DUP4 DUP8 KECCAK256 PUSH32 0x68747470733A2F2F6170692E6C6F6F7066692E6170702F6261646765732F736F DUP2 SSTORE ADD SSTORE PUSH1 0x8 DUP6 MSTORE DUP1 DUP3 MSTORE DUP6 DUP6 KECCAK256 PUSH3 0x40B PUSH3 0x196 DUP3 SLOAD PUSH3 0x6A7 JUMP JUMPDEST PUSH1 0x5F DUP2 SSTORE DUP6 MSTORE PUSH15 0x32B63216B43AB73A32B9173539B7B7 PUSH1 0x89 SHL DUP5 DUP4 DUP8 KECCAK256 PUSH32 0x68747470733A2F2F6170692E6C6F6F7066692E6170702F6261646765732F7969 DUP2 SSTORE ADD SSTORE PUSH1 0x9 DUP6 MSTORE DUP2 MSTORE DUP5 DUP5 KECCAK256 PUSH3 0x466 PUSH3 0x196 DUP3 SLOAD PUSH3 0x6A7 JUMP JUMPDEST PUSH1 0x5D DUP2 SSTORE DUP5 MSTORE PUSH14 0x363634B7B730B4B932973539B7B7 PUSH1 0x91 SHL DUP4 DUP3 DUP7 KECCAK256 PUSH32 0x68747470733A2F2F6170692E6C6F6F7066692E6170702F6261646765732F6D69 DUP2 SSTORE ADD SSTORE DUP3 DUP5 MSTORE MSTORE DUP3 DUP3 KECCAK256 SSTORE PUSH1 0x2 DUP2 MSTORE PUSH1 0x5 DUP3 DUP3 KECCAK256 SSTORE PUSH1 0x3 DUP2 MSTORE PUSH1 0xA DUP3 DUP3 KECCAK256 SSTORE PUSH1 0x4 DUP2 MSTORE PUSH1 0x19 DUP3 DUP3 KECCAK256 SSTORE PUSH1 0x5 DUP2 MSTORE PUSH1 0x32 DUP3 DUP3 KECCAK256 SSTORE PUSH1 0x6 DUP2 MSTORE PUSH1 0x5 DUP3 DUP3 KECCAK256 SSTORE PUSH1 0x7 DUP2 MSTORE PUSH1 0xA DUP3 DUP3 KECCAK256 SSTORE PUSH1 0x8 DUP2 MSTORE PUSH9 0x56BC75E2D63100000 DUP3 DUP3 KECCAK256 SSTORE PUSH1 0x9 DUP2 MSTORE KECCAK256 SSTORE MLOAD PUSH2 0x27D0 SWAP1 DUP2 PUSH3 0x72E DUP3 CODECOPY RETURN JUMPDEST DUP4 MLOAD PUSH4 0x1E4FBDF7 PUSH1 0xE0 SHL DUP2 MSTORE PUSH1 0x4 DUP2 ADD DUP5 SWAP1 MSTORE PUSH1 0x24 SWAP1 REVERT JUMPDEST ADD MLOAD SWAP1 POP CODESIZE DUP1 PUSH3 0x102 JUMP JUMPDEST DUP6 DUP8 MSTORE DUP5 DUP8 KECCAK256 DUP7 SWAP5 POP SWAP2 SWAP1 PUSH1 0x1F NOT DUP5 AND DUP9 JUMPDEST DUP8 DUP3 DUP3 LT PUSH3 0x582 JUMPI POP POP DUP5 GT PUSH3 0x568 JUMPI JUMPDEST POP POP POP DUP2 SHL ADD DUP3 SSTORE PUSH3 0x116 JUMP JUMPDEST ADD MLOAD PUSH1 0x0 NOT PUSH1 0xF8 DUP5 PUSH1 0x3 SHL AND SHR NOT AND SWAP1 SSTORE CODESIZE DUP1 DUP1 PUSH3 0x55A JUMP JUMPDEST DUP4 DUP6 ADD MLOAD DUP7 SSTORE DUP10 SWAP8 SWAP1 SWAP6 ADD SWAP5 SWAP4 DUP5 ADD SWAP4 ADD PUSH3 0x547 JUMP JUMPDEST PUSH3 0x5C3 SWAP1 DUP8 DUP10 MSTORE DUP7 DUP10 KECCAK256 DUP5 DUP1 DUP8 ADD PUSH1 0x5 SHR DUP3 ADD SWAP3 DUP10 DUP9 LT PUSH3 0x5CA JUMPI JUMPDEST ADD PUSH1 0x5 SHR ADD SWAP1 PUSH3 0x6E4 JUMP JUMPDEST CODESIZE PUSH3 0xED JUMP JUMPDEST SWAP3 POP DUP2 SWAP3 PUSH3 0x5B7 JUMP JUMPDEST PUSH4 0x4E487B71 PUSH1 0xE0 SHL DUP6 MSTORE PUSH1 0x41 PUSH1 0x4 MSTORE PUSH1 0x24 DUP6 REVERT JUMPDEST ADD MLOAD SWAP1 POP CODESIZE DUP1 PUSH3 0xB4 JUMP JUMPDEST DUP9 DUP1 MSTORE DUP7 DUP10 KECCAK256 SWAP3 POP PUSH1 0x1F NOT DUP5 AND DUP10 JUMPDEST DUP9 DUP3 DUP3 LT PUSH3 0x645 JUMPI POP POP SWAP1 DUP5 PUSH1 0x1 SWAP6 SWAP5 SWAP4 SWAP3 LT PUSH3 0x62B JUMPI JUMPDEST POP POP POP DUP2 SHL ADD DUP6 SSTORE PUSH3 0xC9 JUMP JUMPDEST ADD MLOAD PUSH1 0x0 NOT PUSH1 0xF8 DUP5 PUSH1 0x3 SHL AND SHR NOT AND SWAP1 SSTORE CODESIZE DUP1 DUP1 PUSH3 0x61D JUMP JUMPDEST PUSH1 0x1 DUP6 SWAP7 DUP3 SWAP4 SWAP7 DUP7 ADD MLOAD DUP2 SSTORE ADD SWAP6 ADD SWAP4 ADD PUSH3 0x603 JUMP JUMPDEST PUSH3 0x685 SWAP1 DUP10 DUP1 MSTORE DUP8 DUP11 KECCAK256 DUP7 DUP1 DUP7 ADD PUSH1 0x5 SHR DUP3 ADD SWAP3 DUP11 DUP8 LT PUSH3 0x5CA JUMPI ADD PUSH1 0x5 SHR ADD SWAP1 PUSH3 0x6E4 JUMP JUMPDEST CODESIZE PUSH3 0x9E JUMP JUMPDEST PUSH4 0x4E487B71 PUSH1 0xE0 SHL PUSH1 0x0 MSTORE PUSH1 0x41 PUSH1 0x4 MSTORE PUSH1 0x24 PUSH1 0x0 REVERT JUMPDEST PUSH1 0x0 DUP1 REVERT JUMPDEST SWAP1 PUSH1 0x1 DUP3 DUP2 SHR SWAP3 AND DUP1 ISZERO PUSH3 0x6D9 JUMPI JUMPDEST PUSH1 0x20 DUP4 LT EQ PUSH3 0x6C3 JUMPI JUMP JUMPDEST PUSH4 0x4E487B71 PUSH1 0xE0 SHL PUSH1 0x0 MSTORE PUSH1 0x22 PUSH1 0x4 MSTORE PUSH1 0x24 PUSH1 0x0 REVERT JUMPDEST SWAP2 PUSH1 0x7F AND SWAP2 PUSH3 0x6B7 JUMP JUMPDEST DUP2 DUP2 LT PUSH3 0x6F0 JUMPI POP POP JUMP JUMPDEST PUSH1 0x0 DUP2 SSTORE PUSH1 0x1 ADD PUSH3 0x6E4 JUMP JUMPDEST SWAP1 PUSH1 0x1F DUP2 GT PUSH3 0x70B JUMPI POP POP JUMP JUMPDEST PUSH3 0x72B SWAP2 PUSH1 0x0 MSTORE PUSH1 0x2 PUSH1 0x1F PUSH1 0x20 PUSH1 0x0 KECCAK256 SWAP3 ADD PUSH1 0x5 SHR DUP3 ADD SWAP2 ADD PUSH3 0x6E4 JUMP JUMPDEST JUMP INVALID PUSH1 0x80 PUSH1 0x40 MSTORE PUSH1 0x4 CALLDATASIZE LT ISZERO PUSH2 0x12 JUMPI PUSH1 0x0 DUP1 REVERT JUMPDEST PUSH1 0x0 CALLDATALOAD PUSH1 0xE0 SHR DUP1 PUSH4 0x1874ED3 EQ PUSH2 0x1480 JUMPI DUP1 PUSH4 0x1FFC9A7 EQ PUSH2 0x13F8 JUMPI DUP1 PUSH4 0x6FDDE03 EQ PUSH2 0x1355 JUMPI DUP1 PUSH4 0x81812FC EQ PUSH2 0x1317 JUMPI DUP1 PUSH4 0x95EA7B3 EQ PUSH2 0x1230 JUMPI DUP1 PUSH4 0x23B872DD EQ PUSH2 0x1219 JUMPI DUP1 PUSH4 0x32CB6B0C EQ PUSH2 0x11FC JUMPI DUP1 PUSH4 0x37C245FE EQ PUSH2 0x1078 JUMPI DUP1 PUSH4 0x3AF0C688 EQ PUSH2 0xE71 JUMPI DUP1 PUSH4 0x42842E0E EQ PUSH2 0x104A JUMPI DUP1 PUSH4 0x5F710F5C EQ PUSH2 0x1028 JUMPI DUP1 PUSH4 0x6352211E EQ PUSH2 0xFF8 JUMPI DUP1 PUSH4 0x66E9082D EQ PUSH2 0xFCF JUMPI DUP1 PUSH4 0x70A08231 EQ PUSH2 0xF76 JUMPI DUP1 PUSH4 0x715018A6 EQ PUSH2 0xF19 JUMPI DUP1 PUSH4 0x831D147B EQ PUSH2 0xEE4 JUMPI DUP1 PUSH4 0x842392C2 EQ PUSH2 0xEAF JUMPI DUP1 PUSH4 0x8B93BF18 EQ PUSH2 0xE71 JUMPI DUP1 PUSH4 0x8DA5CB5B EQ PUSH2 0xE48 JUMPI DUP1 PUSH4 0x92DDF23C EQ PUSH2 0xD94 JUMPI DUP1 PUSH4 0x93AAF6A8 EQ PUSH2 0xD6B JUMPI DUP1 PUSH4 0x95D89B41 EQ PUSH2 0xC8C JUMPI DUP1 PUSH4 0xA22CB465 EQ PUSH2 0xBE7 JUMPI DUP1 PUSH4 0xB88D4FDE EQ PUSH2 0xB7A JUMPI DUP1 PUSH4 0xC87B56DD EQ PUSH2 0xB21 JUMPI DUP1 PUSH4 0xCC17E15D EQ PUSH2 0xAC9 JUMPI DUP1 PUSH4 0xE2045B5E EQ PUSH2 0x9A0 JUMPI DUP1 PUSH4 0xE2D52E1D EQ PUSH2 0x930 JUMPI DUP1 PUSH4 0xE351D437 EQ PUSH2 0x296 JUMPI DUP1 PUSH4 0xE635AE75 EQ PUSH2 0x265 JUMPI DUP1 PUSH4 0xE985E9C5 EQ PUSH2 0x20F JUMPI PUSH4 0xF2FDE38B EQ PUSH2 0x17C JUMPI PUSH1 0x0 DUP1 REVERT JUMPDEST CALLVALUE PUSH2 0x20A JUMPI PUSH1 0x20 CALLDATASIZE PUSH1 0x3 NOT ADD SLT PUSH2 0x20A JUMPI PUSH2 0x195 PUSH2 0x194B JUMP JUMPDEST PUSH2 0x19D PUSH2 0x1C49 JUMP JUMPDEST PUSH1 0x1 PUSH1 0x1 PUSH1 0xA0 SHL SUB SWAP1 DUP2 AND SWAP1 DUP2 ISZERO PUSH2 0x1F1 JUMPI PUSH1 0x7 SLOAD DUP3 PUSH12 0xFFFFFFFFFFFFFFFFFFFFFFFF PUSH1 0xA0 SHL DUP3 AND OR PUSH1 0x7 SSTORE AND PUSH32 0x8BE0079C531659141344CD1FD0A4F28419497F9722A3DAAFE3B4186F6B6457E0 PUSH1 0x0 DUP1 LOG3 STOP JUMPDEST PUSH1 0x40 MLOAD PUSH4 0x1E4FBDF7 PUSH1 0xE0 SHL DUP2 MSTORE PUSH1 0x0 PUSH1 0x4 DUP3 ADD MSTORE PUSH1 0x24 SWAP1 REVERT JUMPDEST PUSH1 0x0 DUP1 REVERT JUMPDEST CALLVALUE PUSH2 0x20A JUMPI PUSH1 0x40 CALLDATASIZE PUSH1 0x3 NOT ADD SLT PUSH2 0x20A JUMPI PUSH2 0x228 PUSH2 0x194B JUMP JUMPDEST PUSH2 0x230 PUSH2 0x1961 JUMP JUMPDEST SWAP1 PUSH1 0x1 DUP1 PUSH1 0xA0 SHL SUB DUP1 SWAP2 AND PUSH1 0x0 MSTORE PUSH1 0x5 PUSH1 0x20 MSTORE PUSH1 0x40 PUSH1 0x0 KECCAK256 SWAP2 AND PUSH1 0x0 MSTORE PUSH1 0x20 MSTORE PUSH1 0x20 PUSH1 0xFF PUSH1 0x40 PUSH1 0x0 KECCAK256 SLOAD AND PUSH1 0x40 MLOAD SWAP1 ISZERO ISZERO DUP2 MSTORE RETURN JUMPDEST CALLVALUE PUSH2 0x20A JUMPI PUSH1 0x20 CALLDATASIZE PUSH1 0x3 NOT ADD SLT PUSH2 0x20A JUMPI PUSH1 0x4 CALLDATALOAD PUSH1 0xA DUP2 LT ISZERO PUSH2 0x20A JUMPI PUSH2 0x28D PUSH1 0x20 SWAP2 PUSH2 0x1B0A JUMP JUMPDEST SLOAD PUSH1 0x40 MLOAD SWAP1 DUP2 MSTORE RETURN JUMPDEST CALLVALUE PUSH2 0x20A JUMPI PUSH1 0x80 CALLDATASIZE PUSH1 0x3 NOT ADD SLT PUSH2 0x20A JUMPI PUSH2 0x2AF PUSH2 0x194B JUMP JUMPDEST PUSH1 0xA PUSH1 0x24 CALLDATALOAD LT ISZERO PUSH2 0x20A JUMPI PUSH1 0x64 CALLDATALOAD PUSH1 0x1 PUSH1 0x1 PUSH1 0x40 SHL SUB DUP2 GT PUSH2 0x20A JUMPI PUSH2 0x2D9 SWAP1 CALLDATASIZE SWAP1 PUSH1 0x4 ADD PUSH2 0x1A3B JUMP JUMPDEST SWAP1 PUSH2 0x2F5 PUSH1 0x1 DUP1 PUSH1 0xA0 SHL SUB PUSH1 0x7 SLOAD AND CALLER EQ DUP1 ISZERO PUSH2 0x92B JUMPI PUSH2 0x1F84 JUMP JUMPDEST PUSH2 0x2FD PUSH2 0x21D1 JUMP JUMPDEST PUSH1 0x24 CALLDATALOAD ISZERO PUSH2 0x8DA JUMPI PUSH1 0x1 DUP1 PUSH1 0xA0 SHL SUB DUP2 AND PUSH1 0x0 MSTORE PUSH1 0xA PUSH1 0x20 MSTORE PUSH1 0xFF PUSH2 0x328 PUSH1 0x24 CALLDATALOAD PUSH1 0x40 PUSH1 0x0 KECCAK256 PUSH2 0x1B23 JUMP JUMPDEST SLOAD AND PUSH2 0x889 JUMPI PUSH1 0xC SLOAD SWAP2 PUSH2 0x2710 DUP4 GT PUSH2 0x838 JUMPI PUSH2 0x354 PUSH2 0x349 PUSH1 0x24 CALLDATALOAD PUSH2 0x1B0A JUMP JUMPDEST SLOAD PUSH1 0x44 CALLDATALOAD LT ISZERO PUSH2 0x1FD0 JUMP JUMPDEST PUSH2 0x35D DUP4 PUSH2 0x202B JUMP JUMPDEST PUSH1 0xC SSTORE PUSH1 0x40 MLOAD PUSH2 0x36C DUP2 PUSH2 0x1977 JUMP JUMPDEST PUSH2 0x378 PUSH1 0x24 CALLDATALOAD DUP3 PUSH2 0x2050 JUMP JUMPDEST PUSH1 0x44 CALLDATALOAD PUSH1 0x20 DUP3 ADD MSTORE TIMESTAMP PUSH1 0x40 DUP3 ADD MSTORE DUP2 PUSH1 0x60 DUP3 ADD MSTORE DUP4 PUSH1 0x0 MSTORE PUSH1 0x9 PUSH1 0x20 MSTORE PUSH1 0x40 PUSH1 0x0 KECCAK256 SWAP1 DUP1 MLOAD SWAP1 PUSH1 0xA DUP3 LT ISZERO PUSH2 0x822 JUMPI PUSH1 0x60 SWAP2 PUSH1 0xFF DUP1 NOT DUP6 SLOAD AND SWAP2 AND OR DUP4 SSTORE PUSH1 0x20 DUP2 ADD MLOAD PUSH1 0x1 DUP5 ADD SSTORE PUSH1 0x40 DUP2 ADD MLOAD PUSH1 0x2 DUP5 ADD SSTORE ADD MLOAD DUP1 MLOAD SWAP1 PUSH1 0x1 PUSH1 0x1 PUSH1 0x40 SHL SUB DUP3 GT PUSH2 0x74B JUMPI PUSH2 0x3EA PUSH1 0x3 DUP5 ADD SLOAD PUSH2 0x1B3B JUMP JUMPDEST PUSH1 0x1F DUP2 GT PUSH2 0x7DB JUMPI JUMPDEST POP PUSH1 0x20 SWAP1 PUSH1 0x1F DUP4 GT PUSH1 0x1 EQ PUSH2 0x76C JUMPI PUSH1 0x3 SWAP3 SWAP2 PUSH1 0x0 SWAP2 DUP4 PUSH2 0x761 JUMPI JUMPDEST POP POP DUP2 PUSH1 0x1 SHL SWAP2 PUSH1 0x0 NOT SWAP1 DUP5 SHL SHR NOT AND OR SWAP2 ADD SSTORE JUMPDEST PUSH1 0x1 DUP1 PUSH1 0xA0 SHL SUB DUP3 AND PUSH1 0x0 MSTORE PUSH1 0xA PUSH1 0x20 MSTORE PUSH2 0x445 PUSH1 0x24 CALLDATALOAD PUSH1 0x40 PUSH1 0x0 KECCAK256 PUSH2 0x1B23 JUMP JUMPDEST DUP1 SLOAD PUSH1 0xFF NOT AND PUSH1 0x1 OR SWAP1 SSTORE PUSH1 0x1 PUSH1 0x1 PUSH1 0xA0 SHL SUB DUP3 AND PUSH1 0x0 SWAP1 DUP2 MSTORE PUSH1 0xB PUSH1 0x20 MSTORE PUSH1 0x40 SWAP1 KECCAK256 DUP1 SLOAD PUSH9 0x10000000000000000 DUP2 LT ISZERO PUSH2 0x74B JUMPI PUSH2 0x48A SWAP2 PUSH1 0x1 DUP3 ADD DUP2 SSTORE PUSH2 0x1C1B JUMP JUMPDEST SWAP1 DUP1 SLOAD SWAP2 PUSH1 0x3 SHL PUSH1 0x0 NOT SWAP3 DUP4 DUP8 DUP4 SHL SWAP3 SHL NOT AND OR SWAP1 SSTORE PUSH1 0x40 MLOAD SWAP1 PUSH2 0x4AD DUP3 PUSH2 0x1992 JUMP JUMPDEST PUSH1 0x0 DUP3 MSTORE PUSH1 0x1 PUSH1 0x1 PUSH1 0xA0 SHL SUB DUP5 AND ISZERO PUSH2 0x732 JUMPI PUSH1 0x0 DUP6 DUP2 MSTORE PUSH1 0x2 PUSH1 0x20 MSTORE PUSH1 0x40 SWAP1 KECCAK256 SLOAD PUSH1 0x1 PUSH1 0x1 PUSH1 0xA0 SHL SUB AND DUP1 ISZERO ISZERO SWAP2 DUP7 SWAP2 SWAP1 DUP4 PUSH2 0x6FC JUMPI JUMPDEST POP PUSH1 0x1 PUSH1 0x1 PUSH1 0xA0 SHL SUB DUP7 AND PUSH1 0x0 DUP2 DUP2 MSTORE PUSH1 0x3 PUSH1 0x20 SWAP1 DUP2 MSTORE PUSH1 0x40 DUP1 DUP4 KECCAK256 DUP1 SLOAD PUSH1 0x1 ADD SWAP1 SSTORE DUP6 DUP4 MSTORE PUSH1 0x2 SWAP1 SWAP2 MSTORE DUP2 KECCAK256 DUP1 SLOAD PUSH1 0x1 PUSH1 0x1 PUSH1 0xA0 SHL SUB NOT AND DUP4 OR SWAP1 SSTORE SWAP1 SWAP2 SWAP1 PUSH32 0xDDF252AD1BE2C89B69C2B068FC378DAA952BA7F163C4A11628F55A4DF523B3EF SWAP1 DUP1 LOG4 PUSH2 0x6E3 JUMPI DUP3 EXTCODESIZE PUSH2 0x5AB JUMPI JUMPDEST POP PUSH2 0x55F SWAP1 DUP4 PUSH2 0x205C JUMP JUMPDEST PUSH32 0xF6B70DEDB47BC6E8680E80B2D7055AEDD55E5598DA29758AE2B17B4B13342239 PUSH1 0x40 DUP1 MLOAD SWAP3 PUSH2 0x591 DUP5 PUSH1 0x24 CALLDATALOAD PUSH2 0x1ACE JUMP JUMPDEST PUSH1 0x44 CALLDATALOAD PUSH1 0x20 DUP6 ADD MSTORE PUSH1 0x1 PUSH1 0x1 PUSH1 0xA0 SHL SUB AND SWAP3 LOG3 PUSH1 0x1 PUSH1 0x8 SSTORE STOP JUMPDEST PUSH1 0x40 MLOAD PUSH1 0x20 DUP2 DUP1 PUSH2 0x5E5 PUSH4 0xA85BD01 PUSH1 0xE1 SHL SWAP6 DUP7 DUP4 MSTORE CALLER PUSH1 0x4 DUP5 ADD MSTORE PUSH1 0x0 PUSH1 0x24 DUP5 ADD MSTORE DUP10 PUSH1 0x44 DUP5 ADD MSTORE PUSH1 0x80 PUSH1 0x64 DUP5 ADD MSTORE PUSH1 0x84 DUP4 ADD SWAP1 PUSH2 0x1A59 JUMP JUMPDEST SUB DUP2 PUSH1 0x0 PUSH1 0x1 PUSH1 0x1 PUSH1 0xA0 SHL SUB DUP10 AND GAS CALL PUSH1 0x0 SWAP2 DUP2 PUSH2 0x69E JUMPI JUMPDEST POP PUSH2 0x666 JUMPI DUP4 RETURNDATASIZE ISZERO PUSH2 0x65E JUMPI RETURNDATASIZE SWAP1 PUSH2 0x615 DUP3 PUSH2 0x19E9 JUMP JUMPDEST SWAP2 PUSH2 0x623 PUSH1 0x40 MLOAD SWAP4 DUP5 PUSH2 0x19C8 JUMP JUMPDEST DUP3 MSTORE RETURNDATASIZE PUSH1 0x0 PUSH1 0x20 DUP5 ADD RETURNDATACOPY JUMPDEST DUP2 MLOAD SWAP2 DUP3 PUSH2 0x657 JUMPI PUSH1 0x40 MLOAD PUSH4 0x32505749 PUSH1 0xE1 SHL DUP2 MSTORE PUSH1 0x1 PUSH1 0x1 PUSH1 0xA0 SHL SUB DUP4 AND PUSH1 0x4 DUP3 ADD MSTORE PUSH1 0x24 SWAP1 REVERT JUMPDEST PUSH1 0x20 SWAP2 POP ADD REVERT JUMPDEST PUSH1 0x60 SWAP1 PUSH2 0x62E JUMP JUMPDEST PUSH1 0x1 PUSH1 0x1 PUSH1 0xE0 SHL SUB NOT AND SUB PUSH2 0x67D JUMPI PUSH2 0x55F PUSH2 0x554 JUMP JUMPDEST PUSH1 0x40 MLOAD PUSH4 0x32505749 PUSH1 0xE1 SHL DUP2 MSTORE PUSH1 0x1 PUSH1 0x1 PUSH1 0xA0 SHL SUB DUP4 AND PUSH1 0x4 DUP3 ADD MSTORE PUSH1 0x24 SWAP1 REVERT JUMPDEST SWAP1 SWAP2 POP PUSH1 0x20 DUP2 RETURNDATASIZE PUSH1 0x20 GT PUSH2 0x6DB JUMPI JUMPDEST DUP2 PUSH2 0x6BA PUSH1 0x20 SWAP4 DUP4 PUSH2 0x19C8 JUMP JUMPDEST DUP2 ADD SUB SLT PUSH2 0x20A JUMPI MLOAD PUSH1 0x1 PUSH1 0x1 PUSH1 0xE0 SHL SUB NOT DUP2 AND DUP2 SUB PUSH2 0x20A JUMPI SWAP1 DUP7 PUSH2 0x5FE JUMP JUMPDEST RETURNDATASIZE SWAP2 POP PUSH2 0x6AD JUMP JUMPDEST PUSH1 0x40 MLOAD PUSH4 0x39E35637 PUSH1 0xE1 SHL DUP2 MSTORE PUSH1 0x0 PUSH1 0x4 DUP3 ADD MSTORE PUSH1 0x24 SWAP1 REVERT JUMPDEST PUSH1 0x0 DUP4 DUP2 MSTORE PUSH1 0x4 PUSH1 0x20 MSTORE PUSH1 0x40 SWAP1 KECCAK256 DUP1 SLOAD PUSH1 0x1 PUSH1 0x1 PUSH1 0xA0 SHL SUB NOT AND SWAP1 SSTORE DUP2 PUSH1 0x0 MSTORE PUSH1 0x3 PUSH1 0x20 MSTORE PUSH1 0x40 PUSH1 0x0 KECCAK256 SWAP1 DUP2 SLOAD ADD SWAP1 SSTORE DUP8 PUSH2 0x4E5 JUMP JUMPDEST PUSH1 0x40 MLOAD PUSH4 0x32505749 PUSH1 0xE1 SHL DUP2 MSTORE PUSH1 0x0 PUSH1 0x4 DUP3 ADD MSTORE PUSH1 0x24 SWAP1 REVERT JUMPDEST PUSH4 0x4E487B71 PUSH1 0xE0 SHL PUSH1 0x0 MSTORE PUSH1 0x41 PUSH1 0x4 MSTORE PUSH1 0x24 PUSH1 0x0 REVERT JUMPDEST ADD MLOAD SWAP1 POP DUP8 DUP1 PUSH2 0x40F JUMP JUMPDEST SWAP1 PUSH1 0x3 DUP5 ADD PUSH1 0x0 MSTORE PUSH1 0x20 PUSH1 0x0 KECCAK256 SWAP2 PUSH1 0x0 JUMPDEST PUSH1 0x1F NOT DUP6 AND DUP2 LT PUSH2 0x7C3 JUMPI POP SWAP2 DUP4 SWAP2 PUSH1 0x1 SWAP4 PUSH1 0x3 SWAP6 PUSH1 0x1F NOT DUP2 AND LT PUSH2 0x7AB JUMPI JUMPDEST POP POP POP DUP2 SHL ADD SWAP2 ADD SSTORE PUSH2 0x424 JUMP JUMPDEST ADD MLOAD PUSH1 0x0 NOT DUP4 DUP7 SHL PUSH1 0xF8 AND SHR NOT AND SWAP1 SSTORE DUP8 DUP1 DUP1 PUSH2 0x79D JUMP JUMPDEST SWAP2 SWAP3 PUSH1 0x20 PUSH1 0x1 DUP2 SWAP3 DUP7 DUP6 ADD MLOAD DUP2 SSTORE ADD SWAP5 ADD SWAP3 ADD PUSH2 0x77D JUMP JUMPDEST PUSH1 0x3 DUP5 ADD PUSH1 0x0 MSTORE PUSH1 0x20 PUSH1 0x0 KECCAK256 PUSH1 0x1F DUP5 ADD PUSH1 0x5 SHR DUP2 ADD PUSH1 0x20 DUP6 LT PUSH2 0x81B JUMPI JUMPDEST PUSH1 0x1F DUP4 ADD PUSH1 0x5 SHR DUP3 ADD DUP2 LT PUSH2 0x80F JUMPI POP POP PUSH2 0x3F3 JUMP JUMPDEST PUSH1 0x0 DUP2 SSTORE PUSH1 0x1 ADD PUSH2 0x7F9 JUMP JUMPDEST POP DUP1 PUSH2 0x7F9 JUMP JUMPDEST PUSH4 0x4E487B71 PUSH1 0xE0 SHL PUSH1 0x0 MSTORE PUSH1 0x21 PUSH1 0x4 MSTORE PUSH1 0x24 PUSH1 0x0 REVERT JUMPDEST PUSH1 0x40 MLOAD PUSH3 0x461BCD PUSH1 0xE5 SHL DUP2 MSTORE PUSH1 0x20 PUSH1 0x4 DUP3 ADD MSTORE PUSH1 0x23 PUSH1 0x24 DUP3 ADD MSTORE PUSH32 0x536176696E677342616467654E46543A204D617820737570706C792072656163 PUSH1 0x44 DUP3 ADD MSTORE PUSH3 0x1A1959 PUSH1 0xEA SHL PUSH1 0x64 DUP3 ADD MSTORE PUSH1 0x84 SWAP1 REVERT JUMPDEST PUSH1 0x40 MLOAD PUSH3 0x461BCD PUSH1 0xE5 SHL DUP2 MSTORE PUSH1 0x20 PUSH1 0x4 DUP3 ADD MSTORE PUSH1 0x24 DUP1 DUP3 ADD MSTORE PUSH32 0x536176696E677342616467654E46543A20426164676520616C7265616479206F PUSH1 0x44 DUP3 ADD MSTORE PUSH4 0x1DDB9959 PUSH1 0xE2 SHL PUSH1 0x64 DUP3 ADD MSTORE PUSH1 0x84 SWAP1 REVERT JUMPDEST PUSH1 0x40 MLOAD PUSH3 0x461BCD PUSH1 0xE5 SHL DUP2 MSTORE PUSH1 0x20 PUSH1 0x4 DUP3 ADD MSTORE PUSH1 0x23 PUSH1 0x24 DUP3 ADD MSTORE PUSH32 0x536176696E677342616467654E46543A20496E76616C69642062616467652074 PUSH1 0x44 DUP3 ADD MSTORE PUSH3 0x797065 PUSH1 0xE8 SHL PUSH1 0x64 DUP3 ADD MSTORE PUSH1 0x84 SWAP1 REVERT JUMPDEST PUSH2 0x1F84 JUMP JUMPDEST CALLVALUE PUSH2 0x20A JUMPI PUSH1 0x20 CALLDATASIZE PUSH1 0x3 NOT ADD SLT PUSH2 0x20A JUMPI PUSH1 0x4 CALLDATALOAD PUSH1 0x0 MSTORE PUSH1 0x9 PUSH1 0x20 MSTORE PUSH2 0x981 PUSH1 0x40 PUSH1 0x0 KECCAK256 PUSH2 0x99C PUSH1 0xFF DUP3 SLOAD AND SWAP2 PUSH1 0x1 DUP2 ADD SLOAD SWAP1 PUSH2 0x974 PUSH1 0x3 PUSH1 0x2 DUP4 ADD SLOAD SWAP3 ADD PUSH2 0x1B75 JUMP JUMPDEST SWAP2 PUSH1 0x40 MLOAD SWAP6 DUP7 DUP1 SWAP7 PUSH2 0x1ACE JUMP JUMPDEST PUSH1 0x20 DUP6 ADD MSTORE PUSH1 0x40 DUP5 ADD MSTORE PUSH1 0x80 PUSH1 0x60 DUP5 ADD MSTORE PUSH1 0x80 DUP4 ADD SWAP1 PUSH2 0x1A59 JUMP JUMPDEST SUB SWAP1 RETURN JUMPDEST CALLVALUE PUSH2 0x20A JUMPI PUSH1 0x20 DUP1 PUSH1 0x3 NOT CALLDATASIZE ADD SLT PUSH2 0x20A JUMPI PUSH1 0x4 CALLDATALOAD PUSH1 0x60 DUP1 PUSH1 0x40 MLOAD PUSH2 0x9C4 DUP2 PUSH2 0x1977 JUMP JUMPDEST PUSH1 0x0 DUP1 DUP3 MSTORE DUP6 DUP3 ADD DUP2 SWAP1 MSTORE PUSH1 0x40 DUP3 ADD MSTORE ADD MSTORE PUSH1 0x1 PUSH1 0x1 PUSH1 0xA0 SHL SUB PUSH2 0x9E7 DUP3 PUSH2 0x1DFB JUMP JUMPDEST AND ISZERO PUSH2 0xA76 JUMPI PUSH1 0x0 MSTORE PUSH1 0x9 DUP2 MSTORE PUSH1 0x40 PUSH1 0x0 KECCAK256 SWAP1 PUSH2 0x99C PUSH1 0x40 MLOAD SWAP3 PUSH2 0xA0A DUP5 PUSH2 0x1977 JUMP JUMPDEST PUSH2 0xA18 PUSH1 0xFF DUP3 SLOAD AND DUP6 PUSH2 0x2050 JUMP JUMPDEST PUSH1 0x1 DUP2 ADD SLOAD SWAP1 DUP4 DUP6 ADD SWAP2 DUP3 MSTORE PUSH2 0xA3C PUSH1 0x3 PUSH1 0x2 DUP4 ADD SLOAD SWAP3 PUSH1 0x40 DUP9 ADD SWAP4 DUP5 MSTORE ADD PUSH2 0x1B75 JUMP JUMPDEST SWAP2 PUSH1 0x60 DUP7 ADD SWAP3 DUP4 MSTORE PUSH2 0xA59 PUSH1 0x40 MLOAD SWAP7 DUP7 DUP9 SWAP8 DUP9 MSTORE DUP8 ADD SWAP1 MLOAD PUSH2 0x1ACE JUMP JUMPDEST MLOAD PUSH1 0x40 DUP6 ADD MSTORE MLOAD PUSH1 0x60 DUP5 ADD MSTORE MLOAD PUSH1 0x80 DUP1 DUP5 ADD MSTORE PUSH1 0xA0 DUP4 ADD SWAP1 PUSH2 0x1A59 JUMP JUMPDEST PUSH1 0x40 MLOAD PUSH3 0x461BCD PUSH1 0xE5 SHL DUP2 MSTORE PUSH1 0x4 DUP2 ADD DUP4 SWAP1 MSTORE PUSH1 0x25 PUSH1 0x24 DUP3 ADD MSTORE PUSH32 0x536176696E677342616467654E46543A20546F6B656E20646F6573206E6F7420 PUSH1 0x44 DUP3 ADD MSTORE PUSH5 0x195E1A5CDD PUSH1 0xDA SHL PUSH1 0x64 DUP3 ADD MSTORE PUSH1 0x84 SWAP1 REVERT JUMPDEST CALLVALUE PUSH2 0x20A JUMPI PUSH1 0x40 CALLDATASIZE PUSH1 0x3 NOT ADD SLT PUSH2 0x20A JUMPI PUSH2 0xAE2 PUSH2 0x194B JUMP JUMPDEST PUSH1 0x1 PUSH1 0x1 PUSH1 0xA0 SHL SUB AND PUSH1 0x0 SWAP1 DUP2 MSTORE PUSH1 0xB PUSH1 0x20 MSTORE PUSH1 0x40 SWAP1 KECCAK256 DUP1 SLOAD PUSH1 0x24 CALLDATALOAD SWAP2 SWAP1 DUP3 LT ISZERO PUSH2 0x20A JUMPI PUSH1 0x20 SWAP2 PUSH2 0xB13 SWAP2 PUSH2 0x1C1B JUMP JUMPDEST SWAP1 SLOAD PUSH1 0x40 MLOAD SWAP2 PUSH1 0x3 SHL SHR DUP2 MSTORE RETURN JUMPDEST CALLVALUE PUSH2 0x20A JUMPI PUSH1 0x20 CALLDATASIZE PUSH1 0x3 NOT ADD SLT PUSH2 0x20A JUMPI PUSH1 0x4 CALLDATALOAD PUSH2 0xB3E DUP2 PUSH2 0x1DFB JUMP JUMPDEST POP PUSH1 0x0 MSTORE PUSH1 0x6 PUSH1 0x20 MSTORE PUSH2 0x99C PUSH2 0xB57 PUSH1 0x40 PUSH1 0x0 KECCAK256 PUSH2 0x1B75 JUMP JUMPDEST PUSH1 0x0 PUSH1 0x40 MLOAD PUSH2 0xB65 DUP2 PUSH2 0x1992 JUMP JUMPDEST MSTORE PUSH1 0x40 MLOAD SWAP2 DUP3 SWAP2 PUSH1 0x20 DUP4 MSTORE PUSH1 0x20 DUP4 ADD SWAP1 PUSH2 0x1A59 JUMP JUMPDEST CALLVALUE PUSH2 0x20A JUMPI PUSH1 0x80 CALLDATASIZE PUSH1 0x3 NOT ADD SLT PUSH2 0x20A JUMPI PUSH2 0xB93 PUSH2 0x194B JUMP JUMPDEST PUSH2 0xB9B PUSH2 0x1961 JUMP JUMPDEST SWAP1 PUSH1 0x44 CALLDATALOAD PUSH1 0x64 CALLDATALOAD SWAP3 PUSH1 0x1 PUSH1 0x1 PUSH1 0x40 SHL SUB DUP5 GT PUSH2 0x20A JUMPI CALLDATASIZE PUSH1 0x23 DUP6 ADD SLT ISZERO PUSH2 0x20A JUMPI PUSH2 0xBD3 PUSH2 0xBE5 SWAP5 CALLDATASIZE SWAP1 PUSH1 0x24 DUP2 PUSH1 0x4 ADD CALLDATALOAD SWAP2 ADD PUSH2 0x1A04 JUMP JUMPDEST SWAP3 PUSH2 0xBDF DUP4 DUP4 DUP4 PUSH2 0x1C75 JUMP JUMPDEST CALLER PUSH2 0x1E36 JUMP JUMPDEST STOP JUMPDEST CALLVALUE PUSH2 0x20A JUMPI PUSH1 0x40 CALLDATASIZE PUSH1 0x3 NOT ADD SLT PUSH2 0x20A JUMPI PUSH2 0xC00 PUSH2 0x194B JUMP JUMPDEST PUSH1 0x24 CALLDATALOAD SWAP1 DUP2 ISZERO ISZERO DUP1 SWAP3 SUB PUSH2 0x20A JUMPI PUSH1 0x1 PUSH1 0x1 PUSH1 0xA0 SHL SUB AND SWAP1 DUP2 ISZERO PUSH2 0xC73 JUMPI CALLER PUSH1 0x0 MSTORE PUSH1 0x5 PUSH1 0x20 MSTORE PUSH1 0x40 PUSH1 0x0 KECCAK256 DUP3 PUSH1 0x0 MSTORE PUSH1 0x20 MSTORE PUSH1 0x40 PUSH1 0x0 KECCAK256 PUSH1 0xFF NOT DUP2 SLOAD AND PUSH1 0xFF DUP4 AND OR SWAP1 SSTORE PUSH1 0x40 MLOAD SWAP1 DUP2 MSTORE PUSH32 0x17307EAB39AB6107E8899845AD3D59BD9653F200F220920489CA2B5937696C31 PUSH1 0x20 CALLER SWAP3 LOG3 STOP JUMPDEST PUSH1 0x40 MLOAD PUSH4 0xB611743 PUSH1 0xE3 SHL DUP2 MSTORE PUSH1 0x4 DUP2 ADD DUP4 SWAP1 MSTORE PUSH1 0x24 SWAP1 REVERT JUMPDEST CALLVALUE PUSH2 0x20A JUMPI PUSH1 0x0 CALLDATASIZE PUSH1 0x3 NOT ADD SLT PUSH2 0x20A JUMPI PUSH1 0x40 MLOAD PUSH1 0x0 PUSH1 0x1 DUP1 SLOAD SWAP1 PUSH2 0xCB0 DUP3 PUSH2 0x1B3B JUMP JUMPDEST DUP1 DUP6 MSTORE SWAP2 DUP2 DUP2 AND SWAP1 DUP2 ISZERO PUSH2 0xD44 JUMPI POP PUSH1 0x1 EQ PUSH2 0xCEB JUMPI JUMPDEST PUSH2 0x99C DUP5 PUSH2 0xCD7 DUP2 DUP7 SUB DUP3 PUSH2 0x19C8 JUMP JUMPDEST PUSH1 0x40 MLOAD SWAP2 DUP3 SWAP2 PUSH1 0x20 DUP4 MSTORE PUSH1 0x20 DUP4 ADD SWAP1 PUSH2 0x1A59 JUMP JUMPDEST PUSH1 0x0 DUP2 DUP2 MSTORE SWAP3 POP PUSH32 0xB10E2D527612073B26EECDFD717E6A320CF44B4AFAC2B0732D9FCBE2B7FA0CF6 JUMPDEST DUP3 DUP5 LT PUSH2 0xD2C JUMPI POP POP POP DUP2 ADD PUSH1 0x20 ADD PUSH2 0xCD7 DUP3 PUSH2 0xCC7 JUMP JUMPDEST DUP1 SLOAD PUSH1 0x20 DUP6 DUP8 ADD DUP2 ADD SWAP2 SWAP1 SWAP2 MSTORE SWAP1 SWAP4 ADD SWAP3 DUP2 ADD PUSH2 0xD14 JUMP JUMPDEST PUSH1 0xFF NOT AND PUSH1 0x20 DUP1 DUP8 ADD SWAP2 SWAP1 SWAP2 MSTORE SWAP3 ISZERO ISZERO PUSH1 0x5 SHL DUP6 ADD SWAP1 SWAP3 ADD SWAP3 POP PUSH2 0xCD7 SWAP2 POP DUP4 SWAP1 POP PUSH2 0xCC7 JUMP JUMPDEST CALLVALUE PUSH2 0x20A JUMPI PUSH1 0x20 CALLDATASIZE PUSH1 0x3 NOT ADD SLT PUSH2 0x20A JUMPI PUSH1 0x4 CALLDATALOAD PUSH1 0xA DUP2 LT ISZERO PUSH2 0x20A JUMPI PUSH2 0xCD7 PUSH2 0x99C SWAP2 PUSH2 0x2415 JUMP JUMPDEST CALLVALUE PUSH2 0x20A JUMPI PUSH1 0x20 DUP1 PUSH1 0x3 NOT CALLDATASIZE ADD SLT PUSH2 0x20A JUMPI PUSH1 0x1 PUSH1 0x1 PUSH1 0xA0 SHL SUB PUSH2 0xDB6 PUSH2 0x194B JUMP JUMPDEST AND PUSH1 0x0 MSTORE PUSH1 0xB DUP2 MSTORE PUSH1 0x40 PUSH1 0x0 KECCAK256 PUSH1 0x40 MLOAD SWAP1 DUP2 DUP4 DUP3 SLOAD SWAP2 DUP3 DUP2 MSTORE ADD SWAP1 DUP2 SWAP3 PUSH1 0x0 MSTORE DUP5 PUSH1 0x0 KECCAK256 SWAP1 PUSH1 0x0 JUMPDEST DUP7 DUP3 DUP3 LT PUSH2 0xE34 JUMPI DUP7 DUP7 PUSH2 0xDF4 DUP3 DUP9 SUB DUP4 PUSH2 0x19C8 JUMP JUMPDEST PUSH1 0x40 MLOAD SWAP3 DUP4 SWAP3 DUP2 DUP5 ADD SWAP1 DUP3 DUP6 MSTORE MLOAD DUP1 SWAP2 MSTORE PUSH1 0x40 DUP5 ADD SWAP3 SWAP2 PUSH1 0x0 JUMPDEST DUP3 DUP2 LT PUSH2 0xE1D JUMPI POP POP POP POP SUB SWAP1 RETURN JUMPDEST DUP4 MLOAD DUP6 MSTORE DUP7 SWAP6 POP SWAP4 DUP2 ADD SWAP4 SWAP3 DUP2 ADD SWAP3 PUSH1 0x1 ADD PUSH2 0xE0E JUMP JUMPDEST DUP4 SLOAD DUP6 MSTORE SWAP1 SWAP4 ADD SWAP3 PUSH1 0x1 SWAP3 DUP4 ADD SWAP3 ADD PUSH2 0xDDE JUMP JUMPDEST CALLVALUE PUSH2 0x20A JUMPI PUSH1 0x0 CALLDATASIZE PUSH1 0x3 NOT ADD SLT PUSH2 0x20A JUMPI PUSH1 0x7 SLOAD PUSH1 0x40 MLOAD PUSH1 0x1 PUSH1 0x1 PUSH1 0xA0 SHL SUB SWAP1 SWAP2 AND DUP2 MSTORE PUSH1 0x20 SWAP1 RETURN JUMPDEST CALLVALUE PUSH2 0x20A JUMPI PUSH1 0x20 PUSH1 0xFF PUSH2 0xEA3 PUSH2 0xE86 CALLDATASIZE PUSH2 0x1ADB JUMP JUMPDEST PUSH1 0x1 PUSH1 0x1 PUSH1 0xA0 SHL SUB SWAP1 SWAP2 AND PUSH1 0x0 SWAP1 DUP2 MSTORE PUSH1 0xA DUP6 MSTORE PUSH1 0x40 SWAP1 KECCAK256 PUSH2 0x1B23 JUMP JUMPDEST SLOAD AND PUSH1 0x40 MLOAD SWAP1 ISZERO ISZERO DUP2 MSTORE RETURN JUMPDEST CALLVALUE PUSH2 0x20A JUMPI PUSH1 0x20 CALLDATASIZE PUSH1 0x3 NOT ADD SLT PUSH2 0x20A JUMPI PUSH1 0x20 PUSH2 0xECA PUSH2 0x194B JUMP JUMPDEST PUSH1 0x7 SLOAD PUSH1 0x40 MLOAD PUSH1 0x1 PUSH1 0x1 PUSH1 0xA0 SHL SUB SWAP3 DUP4 AND SWAP2 SWAP1 SWAP3 AND EQ DUP2 MSTORE RETURN JUMPDEST CALLVALUE PUSH2 0x20A JUMPI PUSH1 0x20 CALLDATASIZE PUSH1 0x3 NOT ADD SLT PUSH2 0x20A JUMPI PUSH1 0x4 CALLDATALOAD PUSH1 0xA DUP2 LT ISZERO PUSH2 0x20A JUMPI PUSH1 0x0 MSTORE PUSH1 0xD PUSH1 0x20 MSTORE PUSH2 0x99C PUSH2 0xCD7 PUSH1 0x40 PUSH1 0x0 KECCAK256 PUSH2 0x1B75 JUMP JUMPDEST CALLVALUE PUSH2 0x20A JUMPI PUSH1 0x0 CALLDATASIZE PUSH1 0x3 NOT ADD SLT PUSH2 0x20A JUMPI PUSH2 0xF32 PUSH2 0x1C49 JUMP JUMPDEST PUSH1 0x7 DUP1 SLOAD PUSH1 0x1 PUSH1 0x1 PUSH1 0xA0 SHL SUB NOT DUP2 AND SWAP1 SWAP2 SSTORE PUSH1 0x0 SWAP1 PUSH1 0x1 PUSH1 0x1 PUSH1 0xA0 SHL SUB AND PUSH32 0x8BE0079C531659141344CD1FD0A4F28419497F9722A3DAAFE3B4186F6B6457E0 DUP3 DUP1 LOG3 STOP JUMPDEST CALLVALUE PUSH2 0x20A JUMPI PUSH1 0x20 CALLDATASIZE PUSH1 0x3 NOT ADD SLT PUSH2 0x20A JUMPI PUSH1 0x1 PUSH1 0x1 PUSH1 0xA0 SHL SUB PUSH2 0xF97 PUSH2 0x194B JUMP JUMPDEST AND DUP1 ISZERO PUSH2 0xFB6 JUMPI PUSH1 0x0 MSTORE PUSH1 0x3 PUSH1 0x20 MSTORE PUSH1 0x20 PUSH1 0x40 PUSH1 0x0 KECCAK256 SLOAD PUSH1 0x40 MLOAD SWAP1 DUP2 MSTORE RETURN JUMPDEST PUSH1 0x40 MLOAD PUSH4 0x22718AD9 PUSH1 0xE2 SHL DUP2 MSTORE PUSH1 0x0 PUSH1 0x4 DUP3 ADD MSTORE PUSH1 0x24 SWAP1 REVERT JUMPDEST CALLVALUE PUSH2 0x20A JUMPI PUSH1 0x20 CALLDATASIZE PUSH1 0x3 NOT ADD SLT PUSH2 0x20A JUMPI PUSH1 0x4 CALLDATALOAD PUSH1 0xA DUP2 LT ISZERO PUSH2 0x20A JUMPI PUSH2 0xCD7 PUSH2 0x99C SWAP2 PUSH2 0x221F JUMP JUMPDEST CALLVALUE PUSH2 0x20A JUMPI PUSH1 0x20 CALLDATASIZE PUSH1 0x3 NOT ADD SLT PUSH2 0x20A JUMPI PUSH1 0x20 PUSH2 0x1016 PUSH1 0x4 CALLDATALOAD PUSH2 0x1DFB JUMP JUMPDEST PUSH1 0x40 MLOAD PUSH1 0x1 PUSH1 0x1 PUSH1 0xA0 SHL SUB SWAP1 SWAP2 AND DUP2 MSTORE RETURN JUMPDEST CALLVALUE PUSH2 0x20A JUMPI PUSH1 0x20 CALLDATASIZE PUSH1 0x3 NOT ADD SLT PUSH2 0x20A JUMPI PUSH2 0x1041 PUSH2 0x194B JUMP JUMPDEST POP PUSH2 0xBE5 PUSH2 0x1C49 JUMP JUMPDEST CALLVALUE PUSH2 0x20A JUMPI PUSH2 0xBE5 PUSH2 0x105B CALLDATASIZE PUSH2 0x1A99 JUMP JUMPDEST SWAP1 PUSH1 0x40 MLOAD SWAP3 PUSH2 0x1069 DUP5 PUSH2 0x1992 JUMP JUMPDEST PUSH1 0x0 DUP5 MSTORE PUSH2 0xBDF DUP4 DUP4 DUP4 PUSH2 0x1C75 JUMP JUMPDEST CALLVALUE PUSH2 0x20A JUMPI PUSH1 0x20 DUP1 PUSH1 0x3 NOT CALLDATASIZE ADD SLT PUSH2 0x20A JUMPI PUSH2 0x1092 PUSH2 0x194B JUMP JUMPDEST SWAP1 PUSH1 0x40 MLOAD PUSH2 0x160 DUP2 ADD DUP2 DUP2 LT PUSH1 0x1 PUSH1 0x1 PUSH1 0x40 SHL SUB DUP3 GT OR PUSH2 0x74B JUMPI PUSH1 0x40 SWAP4 SWAP2 SWAP4 MSTORE PUSH1 0xA SWAP2 DUP3 DUP5 MSTORE PUSH2 0x140 CALLDATASIZE DUP3 DUP7 ADD CALLDATACOPY PUSH1 0x0 SWAP3 PUSH1 0x1 SWAP3 PUSH1 0x1 PUSH1 0x1 PUSH1 0xA0 SHL SUB AND DUP4 JUMPDEST DUP3 DUP2 GT ISZERO PUSH2 0x119E JUMPI POP POP PUSH2 0x10E5 DUP5 PUSH2 0x21F4 JUMP JUMPDEST SWAP4 PUSH2 0x10F3 PUSH1 0x40 MLOAD SWAP6 DUP7 PUSH2 0x19C8 JUMP JUMPDEST DUP1 DUP6 MSTORE PUSH2 0x10FF DUP2 PUSH2 0x21F4 JUMP JUMPDEST DUP6 DUP5 ADD SWAP7 SWAP1 PUSH1 0x1F NOT ADD CALLDATASIZE DUP9 CALLDATACOPY PUSH1 0x0 JUMPDEST DUP3 DUP2 LT PUSH2 0x115E JUMPI POP POP POP POP PUSH1 0x40 MLOAD SWAP3 DUP2 DUP5 ADD SWAP1 DUP3 DUP6 MSTORE MLOAD DUP1 SWAP2 MSTORE PUSH1 0x40 DUP5 ADD SWAP5 SWAP2 PUSH1 0x0 JUMPDEST DUP3 DUP2 LT PUSH2 0x113E JUMPI DUP6 DUP8 SUB DUP7 RETURN JUMPDEST SWAP1 SWAP2 SWAP3 SWAP4 DUP3 DUP1 DUP9 PUSH2 0x1151 DUP5 SWAP11 DUP10 MLOAD PUSH2 0x1ACE JUMP JUMPDEST ADD SWAP8 SWAP6 ADD SWAP4 SWAP3 SWAP2 ADD PUSH2 0x1131 JUMP JUMPDEST PUSH2 0x116E DUP2 DUP4 SWAP10 SWAP8 SWAP10 SWAP9 SWAP7 SWAP9 PUSH2 0x220B JUMP JUMPDEST MLOAD SWAP1 DUP5 DUP3 LT ISZERO PUSH2 0x822 JUMPI PUSH2 0x118E PUSH2 0x1193 SWAP3 PUSH2 0x1189 DUP4 DUP10 PUSH2 0x220B JUMP JUMPDEST PUSH2 0x2050 JUMP JUMPDEST PUSH2 0x202B JUMP JUMPDEST SWAP7 SWAP5 SWAP7 SWAP6 SWAP4 SWAP6 PUSH2 0x110E JUMP JUMPDEST DUP3 DUP2 SWAP8 SWAP6 SWAP8 SWAP7 SWAP5 SWAP7 LT ISZERO PUSH2 0x822 JUMPI DUP2 PUSH1 0x0 MSTORE DUP3 DUP7 MSTORE PUSH1 0xFF PUSH2 0x11C3 DUP3 PUSH1 0x40 PUSH1 0x0 KECCAK256 PUSH2 0x1B23 JUMP JUMPDEST SLOAD AND PUSH2 0x11DE JUMPI JUMPDEST PUSH2 0x11D3 SWAP1 PUSH2 0x202B JUMP JUMPDEST SWAP6 SWAP4 SWAP6 SWAP5 SWAP3 SWAP5 PUSH2 0x10D2 JUMP JUMPDEST SWAP3 PUSH2 0x11F4 DUP2 PUSH2 0x118E DUP7 PUSH2 0x1189 PUSH2 0x11D3 SWAP6 DUP11 PUSH2 0x220B JUMP JUMPDEST SWAP4 SWAP1 POP PUSH2 0x11CA JUMP JUMPDEST CALLVALUE PUSH2 0x20A JUMPI PUSH1 0x0 CALLDATASIZE PUSH1 0x3 NOT ADD SLT PUSH2 0x20A JUMPI PUSH1 0x20 PUSH1 0x40 MLOAD PUSH2 0x2710 DUP2 MSTORE RETURN JUMPDEST CALLVALUE PUSH2 0x20A JUMPI PUSH2 0xBE5 PUSH2 0x122A CALLDATASIZE PUSH2 0x1A99 JUMP JUMPDEST SWAP2 PUSH2 0x1C75 JUMP JUMPDEST CALLVALUE PUSH2 0x20A JUMPI PUSH1 0x40 CALLDATASIZE PUSH1 0x3 NOT ADD SLT PUSH2 0x20A JUMPI PUSH2 0x1249 PUSH2 0x194B JUMP JUMPDEST PUSH1 0x24 CALLDATALOAD PUSH2 0x1255 DUP2 PUSH2 0x1DFB JUMP JUMPDEST CALLER ISZERO ISZERO DUP1 PUSH2 0x1304 JUMPI JUMPDEST DUP1 PUSH2 0x12D7 JUMPI JUMPDEST PUSH2 0x12BF JUMPI PUSH1 0x1 PUSH1 0x1 PUSH1 0xA0 SHL SUB SWAP3 DUP4 AND SWAP3 DUP3 SWAP2 DUP5 SWAP2 AND PUSH32 0x8C5BE1E5EBEC7D5BD14F71427D1E84F3DD0314C0F7B2291E5B200AC8C7C3B925 PUSH1 0x0 DUP1 LOG4 PUSH1 0x0 SWAP1 DUP2 MSTORE PUSH1 0x4 PUSH1 0x20 MSTORE PUSH1 0x40 SWAP1 KECCAK256 DUP1 SLOAD PUSH1 0x1 PUSH1 0x1 PUSH1 0xA0 SHL SUB NOT AND SWAP1 SWAP2 OR SWAP1 SSTORE STOP JUMPDEST PUSH1 0x40 MLOAD PUSH4 0xA9FBF51F PUSH1 0xE0 SHL DUP2 MSTORE CALLER PUSH1 0x4 DUP3 ADD MSTORE PUSH1 0x24 SWAP1 REVERT JUMPDEST POP PUSH1 0x1 DUP1 PUSH1 0xA0 SHL SUB DUP2 AND PUSH1 0x0 MSTORE PUSH1 0x5 PUSH1 0x20 MSTORE PUSH1 0x40 PUSH1 0x0 KECCAK256 CALLER PUSH1 0x0 MSTORE PUSH1 0x20 MSTORE PUSH1 0xFF PUSH1 0x40 PUSH1 0x0 KECCAK256 SLOAD AND ISZERO PUSH2 0x1264 JUMP JUMPDEST POP PUSH1 0x1 PUSH1 0x1 PUSH1 0xA0 SHL SUB DUP2 AND CALLER EQ ISZERO PUSH2 0x125E JUMP JUMPDEST CALLVALUE PUSH2 0x20A JUMPI PUSH1 0x20 CALLDATASIZE PUSH1 0x3 NOT ADD SLT PUSH2 0x20A JUMPI PUSH1 0x4 CALLDATALOAD PUSH2 0x1334 DUP2 PUSH2 0x1DFB JUMP JUMPDEST POP PUSH1 0x0 MSTORE PUSH1 0x4 PUSH1 0x20 MSTORE PUSH1 0x20 PUSH1 0x1 DUP1 PUSH1 0xA0 SHL SUB PUSH1 0x40 PUSH1 0x0 KECCAK256 SLOAD AND PUSH1 0x40 MLOAD SWAP1 DUP2 MSTORE RETURN JUMPDEST CALLVALUE PUSH2 0x20A JUMPI PUSH1 0x0 CALLDATASIZE PUSH1 0x3 NOT ADD SLT PUSH2 0x20A JUMPI PUSH1 0x40 MLOAD PUSH1 0x0 DUP1 SLOAD PUSH2 0x1376 DUP2 PUSH2 0x1B3B JUMP JUMPDEST DUP1 DUP5 MSTORE SWAP1 PUSH1 0x1 SWAP1 DUP2 DUP2 AND SWAP1 DUP2 ISZERO PUSH2 0xD44 JUMPI POP PUSH1 0x1 EQ PUSH2 0x139F JUMPI PUSH2 0x99C DUP5 PUSH2 0xCD7 DUP2 DUP7 SUB DUP3 PUSH2 0x19C8 JUMP JUMPDEST PUSH1 0x0 DUP1 DUP1 MSTORE SWAP3 POP PUSH32 0x290DECD9548B62A8D60345A988386FC84BA6BC95484008F6362F93160EF3E563 JUMPDEST DUP3 DUP5 LT PUSH2 0x13E0 JUMPI POP POP POP DUP2 ADD PUSH1 0x20 ADD PUSH2 0xCD7 DUP3 PUSH2 0xCC7 JUMP JUMPDEST DUP1 SLOAD PUSH1 0x20 DUP6 DUP8 ADD DUP2 ADD SWAP2 SWAP1 SWAP2 MSTORE SWAP1 SWAP4 ADD SWAP3 DUP2 ADD PUSH2 0x13C8 JUMP JUMPDEST CALLVALUE PUSH2 0x20A JUMPI PUSH1 0x20 CALLDATASIZE PUSH1 0x3 NOT ADD SLT PUSH2 0x20A JUMPI PUSH1 0x4 CALLDATALOAD PUSH4 0xFFFFFFFF PUSH1 0xE0 SHL DUP2 AND DUP1 SWAP2 SUB PUSH2 0x20A JUMPI PUSH1 0x20 SWAP1 PUSH4 0x24832483 PUSH1 0xE1 SHL DUP2 EQ SWAP1 DUP2 ISZERO PUSH2 0x143D JUMPI JUMPDEST POP PUSH1 0x40 MLOAD SWAP1 ISZERO ISZERO DUP2 MSTORE RETURN JUMPDEST PUSH4 0x80AC58CD PUSH1 0xE0 SHL DUP2 EQ SWAP2 POP DUP2 ISZERO PUSH2 0x146F JUMPI JUMPDEST DUP2 ISZERO PUSH2 0x145E JUMPI JUMPDEST POP DUP3 PUSH2 0x1432 JUMP JUMPDEST PUSH4 0x1FFC9A7 PUSH1 0xE0 SHL EQ SWAP1 POP DUP3 PUSH2 0x1457 JUMP JUMPDEST PUSH4 0x5B5E139F PUSH1 0xE0 SHL DUP2 EQ SWAP2 POP PUSH2 0x1450 JUMP JUMPDEST CALLVALUE PUSH2 0x20A JUMPI PUSH1 0xA0 CALLDATASIZE PUSH1 0x3 NOT ADD SLT PUSH2 0x20A JUMPI PUSH2 0x1499 PUSH2 0x194B JUMP JUMPDEST PUSH1 0xA PUSH1 0x24 CALLDATALOAD LT ISZERO PUSH2 0x20A JUMPI PUSH1 0x44 PUSH1 0xA DUP2 CALLDATALOAD LT ISZERO PUSH2 0x20A JUMPI PUSH1 0x64 SWAP2 DUP3 CALLDATALOAD SWAP1 PUSH1 0x84 CALLDATALOAD PUSH1 0x1 PUSH1 0x1 PUSH1 0x40 SHL SUB DUP2 GT PUSH2 0x20A JUMPI PUSH2 0x14D5 SWAP1 CALLDATASIZE SWAP1 PUSH1 0x4 ADD PUSH2 0x1A3B JUMP JUMPDEST PUSH1 0x7 SLOAD PUSH1 0x1 PUSH1 0x1 PUSH1 0xA0 SHL SUB SWAP4 SWAP1 PUSH2 0x14F5 SWAP1 DUP6 AND CALLER EQ DUP1 ISZERO PUSH2 0x92B JUMPI PUSH2 0x1F84 JUMP JUMPDEST PUSH2 0x14FD PUSH2 0x21D1 JUMP JUMPDEST PUSH1 0x24 CALLDATALOAD ISZERO PUSH2 0x18F8 JUMPI DUP5 CALLDATALOAD ISZERO PUSH2 0x18A5 JUMPI DUP4 DUP4 AND PUSH1 0x0 MSTORE PUSH1 0xA PUSH1 0x20 MSTORE PUSH1 0xFF PUSH2 0x1529 PUSH1 0x24 CALLDATALOAD PUSH1 0x40 PUSH1 0x0 KECCAK256 PUSH2 0x1B23 JUMP JUMPDEST SLOAD AND ISZERO PUSH2 0x1856 JUMPI DUP4 DUP4 AND PUSH1 0x0 MSTORE PUSH1 0xA PUSH1 0x20 MSTORE PUSH1 0xFF PUSH2 0x154C DUP7 CALLDATALOAD PUSH1 0x40 PUSH1 0x0 KECCAK256 PUSH2 0x1B23 JUMP JUMPDEST SLOAD AND PUSH2 0x1802 JUMPI PUSH2 0x1568 PUSH2 0x155F DUP7 CALLDATALOAD PUSH2 0x1B0A JUMP JUMPDEST SLOAD DUP3 LT ISZERO PUSH2 0x1FD0 JUMP JUMPDEST PUSH2 0x1574 PUSH1 0x24 CALLDATALOAD DUP5 PUSH2 0x26B0 JUMP JUMPDEST SWAP6 DUP7 ISZERO PUSH2 0x17C1 JUMPI POP PUSH1 0x40 MLOAD SWAP1 PUSH2 0x1589 DUP3 PUSH2 0x1977 JUMP JUMPDEST PUSH2 0x1594 DUP7 CALLDATALOAD DUP4 PUSH2 0x2050 JUMP JUMPDEST PUSH1 0x20 DUP3 ADD SWAP1 DUP2 MSTORE PUSH1 0x40 DUP3 ADD TIMESTAMP DUP2 MSTORE PUSH1 0x60 DUP4 ADD SWAP2 DUP5 DUP4 MSTORE DUP9 PUSH1 0x0 MSTORE PUSH1 0x9 PUSH1 0x20 MSTORE PUSH1 0x40 PUSH1 0x0 KECCAK256 SWAP4 MLOAD PUSH1 0xA DUP2 LT ISZERO PUSH2 0x822 JUMPI PUSH1 0xFF DUP1 NOT DUP7 SLOAD AND SWAP2 AND OR DUP5 SSTORE MLOAD PUSH1 0x1 DUP5 ADD SSTORE MLOAD PUSH1 0x2 DUP4 ADD SSTORE MLOAD DUP1 MLOAD SWAP1 PUSH1 0x1 PUSH1 0x1 PUSH1 0x40 SHL SUB DUP3 GT PUSH2 0x74B JUMPI PUSH2 0x15FA PUSH1 0x3 DUP5 ADD SLOAD PUSH2 0x1B3B JUMP JUMPDEST PUSH1 0x1F DUP2 GT PUSH2 0x1776 JUMPI JUMPDEST POP PUSH1 0x20 SWAP1 PUSH1 0x1F DUP4 GT PUSH1 0x1 EQ PUSH2 0x16DD JUMPI SWAP3 PUSH1 0x3 DUP4 PUSH2 0x16AB SWAP5 PUSH32 0x9646B9E2CCD35C2C07EB1846F9957DEF62D7AB5EB71AE4B72BA4221894E61E2B SWAP10 SWAP8 SWAP5 PUSH1 0x40 SWAP10 SWAP8 PUSH1 0x0 SWAP3 PUSH2 0x16D2 JUMPI JUMPDEST POP POP DUP2 PUSH1 0x1 SHL SWAP2 PUSH1 0x0 NOT SWAP1 DUP5 SHL SHR NOT AND OR SWAP2 ADD SSTORE JUMPDEST DUP4 DUP4 AND PUSH1 0x0 MSTORE PUSH1 0xA PUSH1 0x20 MSTORE PUSH2 0x1679 PUSH1 0x24 CALLDATALOAD DUP7 PUSH1 0x0 KECCAK256 PUSH2 0x1B23 JUMP JUMPDEST PUSH1 0xFF NOT DUP2 SLOAD AND SWAP1 SSTORE DUP4 DUP4 AND PUSH1 0x0 MSTORE PUSH1 0xA PUSH1 0x20 MSTORE PUSH2 0x169A DUP8 CALLDATALOAD DUP7 PUSH1 0x0 KECCAK256 PUSH2 0x1B23 JUMP JUMPDEST DUP1 SLOAD PUSH1 0xFF NOT AND PUSH1 0x1 OR SWAP1 SSTORE DUP8 PUSH2 0x205C JUMP JUMPDEST PUSH2 0x16C8 DUP4 MLOAD SWAP6 PUSH2 0x16BD DUP8 PUSH1 0x24 CALLDATALOAD PUSH2 0x1ACE JUMP JUMPDEST PUSH1 0x20 DUP8 ADD SWAP1 CALLDATALOAD PUSH2 0x1ACE JUMP JUMPDEST AND SWAP3 LOG3 PUSH1 0x1 PUSH1 0x8 SSTORE STOP JUMPDEST ADD MLOAD SWAP1 POP DUP13 DUP1 PUSH2 0x164A JUMP JUMPDEST SWAP1 PUSH1 0x3 DUP5 ADD PUSH1 0x0 MSTORE PUSH1 0x20 PUSH1 0x0 KECCAK256 SWAP2 PUSH1 0x0 JUMPDEST PUSH1 0x1F NOT DUP6 AND DUP2 LT PUSH2 0x175E JUMPI POP PUSH1 0x1 DUP5 PUSH32 0x9646B9E2CCD35C2C07EB1846F9957DEF62D7AB5EB71AE4B72BA4221894E61E2B SWAP10 SWAP8 SWAP5 PUSH1 0x40 SWAP10 SWAP8 SWAP5 PUSH1 0x3 SWAP5 PUSH2 0x16AB SWAP9 PUSH1 0x1F NOT DUP2 AND LT PUSH2 0x1746 JUMPI JUMPDEST POP POP POP DUP2 SHL ADD SWAP2 ADD SSTORE PUSH2 0x165F JUMP JUMPDEST ADD MLOAD PUSH1 0x0 NOT DUP4 DUP7 SHL PUSH1 0xF8 AND SHR NOT AND SWAP1 SSTORE DUP13 DUP1 DUP1 PUSH2 0x1738 JUMP JUMPDEST SWAP2 SWAP3 PUSH1 0x20 PUSH1 0x1 DUP2 SWAP3 DUP7 DUP6 ADD MLOAD DUP2 SSTORE ADD SWAP5 ADD SWAP3 ADD PUSH2 0x16EE JUMP JUMPDEST PUSH1 0x3 DUP5 ADD PUSH1 0x0 MSTORE PUSH1 0x20 PUSH1 0x0 KECCAK256 PUSH1 0x1F DUP5 ADD PUSH1 0x5 SHR DUP2 ADD SWAP2 PUSH1 0x20 DUP6 LT PUSH2 0x17B7 JUMPI JUMPDEST PUSH1 0x1F ADD PUSH1 0x5 SHR ADD SWAP1 JUMPDEST DUP2 DUP2 LT PUSH2 0x17AB JUMPI POP PUSH2 0x1603 JUMP JUMPDEST PUSH1 0x0 DUP2 SSTORE PUSH1 0x1 ADD PUSH2 0x179E JUMP JUMPDEST SWAP1 SWAP2 POP DUP2 SWAP1 PUSH2 0x1795 JUMP JUMPDEST PUSH1 0x40 MLOAD PUSH3 0x461BCD PUSH1 0xE5 SHL DUP2 MSTORE PUSH1 0x20 PUSH1 0x4 DUP3 ADD DUP2 SWAP1 MSTORE PUSH1 0x24 DUP3 ADD MSTORE PUSH32 0x536176696E677342616467654E46543A20546F6B656E206E6F7420666F756E64 DUP2 DUP9 ADD MSTORE REVERT JUMPDEST PUSH1 0x40 MLOAD PUSH3 0x461BCD PUSH1 0xE5 SHL DUP2 MSTORE PUSH1 0x20 PUSH1 0x4 DUP3 ADD MSTORE PUSH1 0x28 PUSH1 0x24 DUP3 ADD MSTORE PUSH32 0x536176696E677342616467654E46543A204E657720626164676520616C726561 DUP2 DUP8 ADD MSTORE PUSH8 0x191E481BDDDB9959 PUSH1 0xC2 SHL DUP2 DUP9 ADD MSTORE PUSH1 0x84 SWAP1 REVERT JUMPDEST PUSH1 0x40 MLOAD PUSH3 0x461BCD PUSH1 0xE5 SHL DUP2 MSTORE PUSH1 0x20 PUSH1 0x4 DUP3 ADD MSTORE PUSH1 0x24 DUP1 DUP3 ADD MSTORE PUSH32 0x536176696E677342616467654E46543A204F6C64206261646765206E6F74206F DUP2 DUP8 ADD MSTORE PUSH4 0x1DDB9959 PUSH1 0xE2 SHL DUP2 DUP9 ADD MSTORE PUSH1 0x84 SWAP1 REVERT JUMPDEST PUSH1 0x40 MLOAD PUSH3 0x461BCD PUSH1 0xE5 SHL DUP2 MSTORE PUSH1 0x20 PUSH1 0x4 DUP3 ADD MSTORE PUSH1 0x27 PUSH1 0x24 DUP3 ADD MSTORE PUSH32 0x536176696E677342616467654E46543A20496E76616C6964206E657720626164 DUP2 DUP8 ADD MSTORE PUSH7 0x67652074797065 PUSH1 0xC8 SHL DUP2 DUP9 ADD MSTORE PUSH1 0x84 SWAP1 REVERT JUMPDEST PUSH1 0x40 MLOAD PUSH3 0x461BCD PUSH1 0xE5 SHL DUP2 MSTORE PUSH1 0x20 PUSH1 0x4 DUP3 ADD MSTORE PUSH1 0x27 PUSH1 0x24 DUP3 ADD MSTORE PUSH32 0x536176696E677342616467654E46543A20496E76616C6964206F6C6420626164 DUP2 DUP8 ADD MSTORE PUSH7 0x67652074797065 PUSH1 0xC8 SHL DUP2 DUP9 ADD MSTORE PUSH1 0x84 SWAP1 REVERT JUMPDEST PUSH1 0x4 CALLDATALOAD SWAP1 PUSH1 0x1 PUSH1 0x1 PUSH1 0xA0 SHL SUB DUP3 AND DUP3 SUB PUSH2 0x20A JUMPI JUMP JUMPDEST PUSH1 0x24 CALLDATALOAD SWAP1 PUSH1 0x1 PUSH1 0x1 PUSH1 0xA0 SHL SUB DUP3 AND DUP3 SUB PUSH2 0x20A JUMPI JUMP JUMPDEST PUSH1 0x80 DUP2 ADD SWAP1 DUP2 LT PUSH1 0x1 PUSH1 0x1 PUSH1 0x40 SHL SUB DUP3 GT OR PUSH2 0x74B JUMPI PUSH1 0x40 MSTORE JUMP JUMPDEST PUSH1 0x20 DUP2 ADD SWAP1 DUP2 LT PUSH1 0x1 PUSH1 0x1 PUSH1 0x40 SHL SUB DUP3 GT OR PUSH2 0x74B JUMPI PUSH1 0x40 MSTORE JUMP JUMPDEST PUSH1 0x40 DUP2 ADD SWAP1 DUP2 LT PUSH1 0x1 PUSH1 0x1 PUSH1 0x40 SHL SUB DUP3 GT OR PUSH2 0x74B JUMPI PUSH1 0x40 MSTORE JUMP JUMPDEST SWAP1 PUSH1 0x1F DUP1 NOT SWAP2 ADD AND DUP2 ADD SWAP1 DUP2 LT PUSH1 0x1 PUSH1 0x1 PUSH1 0x40 SHL SUB DUP3 GT OR PUSH2 0x74B JUMPI PUSH1 0x40 MSTORE JUMP JUMPDEST PUSH1 0x1 PUSH1 0x1 PUSH1 0x40 SHL SUB DUP2 GT PUSH2 0x74B JUMPI PUSH1 0x1F ADD PUSH1 0x1F NOT AND PUSH1 0x20 ADD SWAP1 JUMP JUMPDEST SWAP3 SWAP2 SWAP3 PUSH2 0x1A10 DUP3 PUSH2 0x19E9 JUMP JUMPDEST SWAP2 PUSH2 0x1A1E PUSH1 0x40 MLOAD SWAP4 DUP5 PUSH2 0x19C8 JUMP JUMPDEST DUP3 SWAP5 DUP2 DUP5 MSTORE DUP2 DUP4 ADD GT PUSH2 0x20A JUMPI DUP3 DUP2 PUSH1 0x20 SWAP4 DUP5 PUSH1 0x0 SWAP7 ADD CALLDATACOPY ADD ADD MSTORE JUMP JUMPDEST SWAP1 DUP1 PUSH1 0x1F DUP4 ADD SLT ISZERO PUSH2 0x20A JUMPI DUP2 PUSH1 0x20 PUSH2 0x1A56 SWAP4 CALLDATALOAD SWAP2 ADD PUSH2 0x1A04 JUMP JUMPDEST SWAP1 JUMP JUMPDEST SWAP2 SWAP1 DUP3 MLOAD SWAP3 DUP4 DUP3 MSTORE PUSH1 0x0 JUMPDEST DUP5 DUP2 LT PUSH2 0x1A85 JUMPI POP POP DUP3 PUSH1 0x0 PUSH1 0x20 DUP1 SWAP5 SWAP6 DUP5 ADD ADD MSTORE PUSH1 0x1F DUP1 NOT SWAP2 ADD AND ADD ADD SWAP1 JUMP JUMPDEST PUSH1 0x20 DUP2 DUP4 ADD DUP2 ADD MLOAD DUP5 DUP4 ADD DUP3 ADD MSTORE ADD PUSH2 0x1A64 JUMP JUMPDEST PUSH1 0x60 SWAP1 PUSH1 0x3 NOT ADD SLT PUSH2 0x20A JUMPI PUSH1 0x1 PUSH1 0x1 PUSH1 0xA0 SHL SUB SWAP1 PUSH1 0x4 CALLDATALOAD DUP3 DUP2 AND DUP2 SUB PUSH2 0x20A JUMPI SWAP2 PUSH1 0x24 CALLDATALOAD SWAP1 DUP2 AND DUP2 SUB PUSH2 0x20A JUMPI SWAP1 PUSH1 0x44 CALLDATALOAD SWAP1 JUMP JUMPDEST SWAP1 PUSH1 0xA DUP3 LT ISZERO PUSH2 0x822 JUMPI MSTORE JUMP JUMPDEST PUSH1 0x40 SWAP1 PUSH1 0x3 NOT ADD SLT PUSH2 0x20A JUMPI PUSH1 0x4 CALLDATALOAD PUSH1 0x1 PUSH1 0x1 PUSH1 0xA0 SHL SUB DUP2 AND DUP2 SUB PUSH2 0x20A JUMPI SWAP1 PUSH1 0x24 CALLDATALOAD PUSH1 0xA DUP2 LT ISZERO PUSH2 0x20A JUMPI SWAP1 JUMP JUMPDEST PUSH1 0xA DUP2 LT ISZERO PUSH2 0x822 JUMPI PUSH1 0x0 MSTORE PUSH1 0xE PUSH1 0x20 MSTORE PUSH1 0x40 PUSH1 0x0 KECCAK256 SWAP1 JUMP JUMPDEST SWAP1 PUSH1 0xA DUP2 LT ISZERO PUSH2 0x822 JUMPI PUSH1 0x0 MSTORE PUSH1 0x20 MSTORE PUSH1 0x40 PUSH1 0x0 KECCAK256 SWAP1 JUMP JUMPDEST SWAP1 PUSH1 0x1 DUP3 DUP2 SHR SWAP3 AND DUP1 ISZERO PUSH2 0x1B6B JUMPI JUMPDEST PUSH1 0x20 DUP4 LT EQ PUSH2 0x1B55 JUMPI JUMP JUMPDEST PUSH4 0x4E487B71 PUSH1 0xE0 SHL PUSH1 0x0 MSTORE PUSH1 0x22 PUSH1 0x4 MSTORE PUSH1 0x24 PUSH1 0x0 REVERT JUMPDEST SWAP2 PUSH1 0x7F AND SWAP2 PUSH2 0x1B4A JUMP JUMPDEST SWAP1 PUSH1 0x40 MLOAD SWAP2 DUP3 PUSH1 0x0 DUP3 SLOAD SWAP3 PUSH2 0x1B89 DUP5 PUSH2 0x1B3B JUMP JUMPDEST SWAP1 DUP2 DUP5 MSTORE PUSH1 0x1 SWAP5 DUP6 DUP2 AND SWAP1 DUP2 PUSH1 0x0 EQ PUSH2 0x1BF8 JUMPI POP PUSH1 0x1 EQ PUSH2 0x1BB5 JUMPI JUMPDEST POP POP PUSH2 0x1BB3 SWAP3 POP SUB DUP4 PUSH2 0x19C8 JUMP JUMPDEST JUMP JUMPDEST SWAP1 SWAP4 SWAP2 POP PUSH1 0x0 MSTORE PUSH1 0x20 SWAP1 DUP2 PUSH1 0x0 KECCAK256 SWAP4 PUSH1 0x0 SWAP2 JUMPDEST DUP2 DUP4 LT PUSH2 0x1BE0 JUMPI POP POP PUSH2 0x1BB3 SWAP4 POP DUP3 ADD ADD CODESIZE DUP1 PUSH2 0x1BA5 JUMP JUMPDEST DUP6 SLOAD DUP9 DUP5 ADD DUP6 ADD MSTORE SWAP5 DUP6 ADD SWAP5 DUP8 SWAP5 POP SWAP2 DUP4 ADD SWAP2 PUSH2 0x1BC8 JUMP JUMPDEST SWAP2 POP POP PUSH2 0x1BB3 SWAP5 POP PUSH1 0x20 SWAP3 POP PUSH1 0xFF NOT AND DUP3 DUP5 ADD MSTORE ISZERO ISZERO PUSH1 0x5 SHL DUP3 ADD ADD CODESIZE DUP1 PUSH2 0x1BA5 JUMP JUMPDEST DUP1 SLOAD DUP3 LT ISZERO PUSH2 0x1C33 JUMPI PUSH1 0x0 MSTORE PUSH1 0x20 PUSH1 0x0 KECCAK256 ADD SWAP1 PUSH1 0x0 SWAP1 JUMP JUMPDEST PUSH4 0x4E487B71 PUSH1 0xE0 SHL PUSH1 0x0 MSTORE PUSH1 0x32 PUSH1 0x4 MSTORE PUSH1 0x24 PUSH1 0x0 REVERT JUMPDEST PUSH1 0x7 SLOAD PUSH1 0x1 PUSH1 0x1 PUSH1 0xA0 SHL SUB AND CALLER SUB PUSH2 0x1C5D JUMPI JUMP JUMPDEST PUSH1 0x40 MLOAD PUSH4 0x118CDAA7 PUSH1 0xE0 SHL DUP2 MSTORE CALLER PUSH1 0x4 DUP3 ADD MSTORE PUSH1 0x24 SWAP1 REVERT JUMPDEST PUSH1 0x1 PUSH1 0x1 PUSH1 0xA0 SHL SUB SWAP2 DUP3 AND SWAP3 SWAP1 SWAP2 DUP4 ISZERO PUSH2 0x732 JUMPI PUSH1 0x0 SWAP3 DUP3 DUP5 MSTORE DUP3 PUSH1 0x20 SWAP6 PUSH1 0x2 DUP8 MSTORE PUSH1 0x40 SWAP7 DUP5 DUP9 DUP9 KECCAK256 SLOAD AND SWAP7 DUP8 SWAP2 CALLER ISZERO ISZERO DUP1 PUSH2 0x1D65 JUMPI JUMPDEST POP SWAP1 PUSH1 0x2 PUSH32 0xDDF252AD1BE2C89B69C2B068FC378DAA952BA7F163C4A11628F55A4DF523B3EF SWAP3 DUP5 PUSH2 0x1D32 JUMPI JUMPDEST DUP6 DUP4 MSTORE PUSH1 0x3 DUP2 MSTORE DUP12 DUP4 KECCAK256 DUP1 SLOAD PUSH1 0x1 ADD SWAP1 SSTORE DUP7 DUP4 MSTORE MSTORE DUP10 DUP2 KECCAK256 DUP1 SLOAD PUSH1 0x1 PUSH1 0x1 PUSH1 0xA0 SHL SUB NOT AND DUP6 OR SWAP1 SSTORE DUP1 LOG4 AND SWAP3 DUP4 DUP4 SUB PUSH2 0x1D11 JUMPI POP POP POP POP JUMP JUMPDEST PUSH1 0x64 SWAP5 POP MLOAD SWAP3 PUSH4 0x64283D7B PUSH1 0xE0 SHL DUP5 MSTORE PUSH1 0x4 DUP5 ADD MSTORE PUSH1 0x24 DUP4 ADD MSTORE PUSH1 0x44 DUP3 ADD MSTORE REVERT JUMPDEST PUSH1 0x0 DUP8 DUP2 MSTORE PUSH1 0x4 PUSH1 0x20 MSTORE PUSH1 0x40 SWAP1 KECCAK256 DUP1 SLOAD PUSH1 0x1 PUSH1 0x1 PUSH1 0xA0 SHL SUB NOT AND SWAP1 SSTORE DUP5 DUP4 MSTORE PUSH1 0x3 DUP2 MSTORE DUP12 DUP4 KECCAK256 DUP1 SLOAD PUSH1 0x0 NOT ADD SWAP1 SSTORE PUSH2 0x1CD8 JUMP JUMPDEST SWAP2 SWAP4 SWAP5 POP SWAP2 POP DUP1 PUSH2 0x1DBA JUMPI JUMPDEST ISZERO PUSH2 0x1D81 JUMPI DUP6 SWAP3 SWAP2 DUP8 SWAP2 CODESIZE PUSH2 0x1CAC JUMP JUMPDEST DUP8 DUP7 DUP9 PUSH2 0x1D9E JUMPI PUSH1 0x24 SWAP2 MLOAD SWAP1 PUSH4 0x7E273289 PUSH1 0xE0 SHL DUP3 MSTORE PUSH1 0x4 DUP3 ADD MSTORE REVERT JUMPDEST PUSH1 0x44 SWAP2 MLOAD SWAP1 PUSH4 0x177E802F PUSH1 0xE0 SHL DUP3 MSTORE CALLER PUSH1 0x4 DUP4 ADD MSTORE PUSH1 0x24 DUP3 ADD MSTORE REVERT JUMPDEST POP CALLER DUP8 EQ DUP1 ISZERO PUSH2 0x1DDF JUMPI JUMPDEST DUP1 PUSH2 0x1D71 JUMPI POP DUP6 DUP3 MSTORE PUSH1 0x4 DUP2 MSTORE CALLER DUP6 DUP10 DUP5 KECCAK256 SLOAD AND EQ PUSH2 0x1D71 JUMP JUMPDEST POP DUP7 DUP3 MSTORE PUSH1 0x5 DUP2 MSTORE DUP8 DUP3 KECCAK256 CALLER DUP4 MSTORE DUP2 MSTORE PUSH1 0xFF DUP9 DUP4 KECCAK256 SLOAD AND PUSH2 0x1DC5 JUMP JUMPDEST PUSH1 0x0 DUP2 DUP2 MSTORE PUSH1 0x2 PUSH1 0x20 MSTORE PUSH1 0x40 SWAP1 KECCAK256 SLOAD PUSH1 0x1 PUSH1 0x1 PUSH1 0xA0 SHL SUB AND SWAP1 DUP2 ISZERO PUSH2 0x1E1E JUMPI POP SWAP1 JUMP JUMPDEST PUSH1 0x24 SWAP1 PUSH1 0x40 MLOAD SWAP1 PUSH4 0x7E273289 PUSH1 0xE0 SHL DUP3 MSTORE PUSH1 0x4 DUP3 ADD MSTORE REVERT JUMPDEST SWAP1 SWAP4 SWAP2 SWAP3 DUP4 EXTCODESIZE PUSH2 0x1E48 JUMPI JUMPDEST POP POP POP POP POP JUMP JUMPDEST PUSH1 0x40 MLOAD PUSH4 0xA85BD01 PUSH1 0xE1 SHL DUP1 DUP3 MSTORE PUSH1 0x1 PUSH1 0x1 PUSH1 0xA0 SHL SUB SWAP4 DUP5 AND PUSH1 0x4 DUP4 ADD MSTORE SWAP6 DUP4 AND PUSH1 0x24 DUP3 ADD MSTORE PUSH1 0x44 DUP2 ADD SWAP2 SWAP1 SWAP2 MSTORE PUSH1 0x80 PUSH1 0x64 DUP3 ADD MSTORE SWAP5 SWAP3 AND SWAP3 PUSH1 0x20 SWAP3 SWAP2 DUP6 SWAP1 PUSH2 0x1E95 SWAP1 PUSH1 0x84 DUP4 ADD SWAP1 PUSH2 0x1A59 JUMP JUMPDEST SUB SWAP5 DUP4 DUP2 PUSH1 0x0 SWAP8 DUP2 DUP10 DUP10 GAS CALL DUP7 SWAP2 DUP2 PUSH2 0x1F40 JUMPI JUMPDEST POP PUSH2 0x1F0A JUMPI POP POP POP RETURNDATASIZE PUSH1 0x0 EQ PUSH2 0x1F01 JUMPI RETURNDATASIZE PUSH2 0x1EC3 DUP2 PUSH2 0x19E9 JUMP JUMPDEST SWAP1 PUSH2 0x1ED1 PUSH1 0x40 MLOAD SWAP3 DUP4 PUSH2 0x19C8 JUMP JUMPDEST DUP2 MSTORE DUP1 SWAP4 DUP3 RETURNDATASIZE SWAP3 ADD RETURNDATACOPY JUMPDEST DUP3 MLOAD SWAP3 DUP4 PUSH2 0x1EFC JUMPI PUSH1 0x40 MLOAD PUSH4 0x32505749 PUSH1 0xE1 SHL DUP2 MSTORE PUSH1 0x4 DUP2 ADD DUP5 SWAP1 MSTORE PUSH1 0x24 SWAP1 REVERT JUMPDEST ADD SWAP1 POP REVERT JUMPDEST PUSH1 0x60 SWAP3 POP PUSH2 0x1EDB JUMP JUMPDEST SWAP2 SWAP5 POP SWAP2 POP PUSH4 0xFFFFFFFF PUSH1 0xE0 SHL AND SUB PUSH2 0x1F28 JUMPI POP CODESIZE DUP1 DUP1 DUP1 DUP1 PUSH2 0x1E41 JUMP JUMPDEST PUSH1 0x24 SWAP1 PUSH1 0x40 MLOAD SWAP1 PUSH4 0x32505749 PUSH1 0xE1 SHL DUP3 MSTORE PUSH1 0x4 DUP3 ADD MSTORE REVERT JUMPDEST SWAP1 SWAP2 POP DUP5 DUP2 DUP2 RETURNDATASIZE DUP4 GT PUSH2 0x1F7D JUMPI JUMPDEST PUSH2 0x1F58 DUP2 DUP4 PUSH2 0x19C8 JUMP JUMPDEST DUP2 ADD SUB SLT PUSH2 0x1F79 JUMPI MLOAD PUSH1 0x1 PUSH1 0x1 PUSH1 0xE0 SHL SUB NOT DUP2 AND DUP2 SUB PUSH2 0x1F79 JUMPI SWAP1 CODESIZE PUSH2 0x1EA9 JUMP JUMPDEST DUP7 DUP1 REVERT JUMPDEST POP RETURNDATASIZE PUSH2 0x1F4E JUMP JUMPDEST ISZERO PUSH2 0x1F8B JUMPI JUMP JUMPDEST PUSH1 0x40 MLOAD PUSH3 0x461BCD PUSH1 0xE5 SHL DUP2 MSTORE PUSH1 0x20 PUSH1 0x4 DUP3 ADD MSTORE PUSH1 0x1F PUSH1 0x24 DUP3 ADD MSTORE PUSH32 0x536176696E677342616467654E46543A204E6F7420617574686F72697A656400 PUSH1 0x44 DUP3 ADD MSTORE PUSH1 0x64 SWAP1 REVERT JUMPDEST ISZERO PUSH2 0x1FD7 JUMPI JUMP JUMPDEST PUSH1 0x40 MLOAD PUSH3 0x461BCD PUSH1 0xE5 SHL DUP2 MSTORE PUSH1 0x20 PUSH1 0x4 DUP3 ADD MSTORE PUSH1 0x26 PUSH1 0x24 DUP3 ADD MSTORE PUSH32 0x536176696E677342616467654E46543A204D696C6573746F6E65206E6F742072 PUSH1 0x44 DUP3 ADD MSTORE PUSH6 0x195858DA1959 PUSH1 0xD2 SHL PUSH1 0x64 DUP3 ADD MSTORE PUSH1 0x84 SWAP1 REVERT JUMPDEST PUSH1 0x0 NOT DUP2 EQ PUSH2 0x203A JUMPI PUSH1 0x1 ADD SWAP1 JUMP JUMPDEST PUSH4 0x4E487B71 PUSH1 0xE0 SHL PUSH1 0x0 MSTORE PUSH1 0x11 PUSH1 0x4 MSTORE PUSH1 0x24 PUSH1 0x0 REVERT JUMPDEST PUSH1 0xA DUP3 LT ISZERO PUSH2 0x822 JUMPI MSTORE JUMP JUMPDEST SWAP2 SWAP1 SWAP2 PUSH1 0x0 SWAP1 DUP1 DUP3 MSTORE PUSH1 0x20 SWAP2 PUSH1 0x6 DUP4 MSTORE PUSH1 0x40 DUP2 KECCAK256 SWAP1 DUP6 MLOAD SWAP1 PUSH1 0x1 PUSH1 0x1 PUSH1 0x40 SHL SUB DUP3 GT PUSH2 0x21BD JUMPI PUSH2 0x208C DUP4 SLOAD PUSH2 0x1B3B JUMP JUMPDEST PUSH1 0x1F DUP2 GT PUSH2 0x217A JUMPI JUMPDEST POP DUP5 SWAP1 PUSH1 0x1F DUP4 GT PUSH1 0x1 EQ PUSH2 0x20F6 JUMPI SWAP1 PUSH32 0xF8E1A15ABA9398E019F0B49DF1A4FDE98EE17AE345CB5F6B5E2C27F5033E8CE7 SWAP7 SWAP8 DUP4 PUSH2 0x20EB JUMPI JUMPDEST POP POP DUP2 PUSH1 0x1 SHL SWAP2 PUSH1 0x0 NOT SWAP1 PUSH1 0x3 SHL SHR NOT AND OR SWAP1 SSTORE JUMPDEST PUSH1 0x40 MLOAD SWAP1 DUP2 MSTORE LOG1 JUMP JUMPDEST ADD MLOAD SWAP1 POP CODESIZE DUP1 PUSH2 0x20CD JUMP JUMPDEST SWAP2 SWAP7 PUSH1 0x1F NOT DUP9 AND DUP5 DUP5 MSTORE DUP7 DUP5 KECCAK256 SWAP4 JUMPDEST DUP2 DUP2 LT PUSH2 0x2163 JUMPI POP SWAP2 PUSH1 0x1 SWAP4 SWAP2 DUP10 PUSH32 0xF8E1A15ABA9398E019F0B49DF1A4FDE98EE17AE345CB5F6B5E2C27F5033E8CE7 SWAP10 SWAP11 SWAP5 LT PUSH2 0x214A JUMPI JUMPDEST POP POP POP DUP2 SHL ADD SWAP1 SSTORE PUSH2 0x20E2 JUMP JUMPDEST ADD MLOAD PUSH1 0x0 NOT PUSH1 0xF8 DUP5 PUSH1 0x3 SHL AND SHR NOT AND SWAP1 SSTORE CODESIZE DUP1 DUP1 PUSH2 0x213D JUMP JUMPDEST SWAP3 SWAP4 DUP8 PUSH1 0x1 DUP2 SWAP3 DUP8 DUP7 ADD MLOAD DUP2 SSTORE ADD SWAP6 ADD SWAP4 ADD PUSH2 0x2105 JUMP JUMPDEST DUP4 DUP3 MSTORE DUP6 DUP3 KECCAK256 PUSH1 0x1F DUP5 ADD PUSH1 0x5 SHR DUP2 ADD SWAP2 DUP8 DUP6 LT PUSH2 0x21B3 JUMPI JUMPDEST PUSH1 0x1F ADD PUSH1 0x5 SHR ADD SWAP1 JUMPDEST DUP2 DUP2 LT PUSH2 0x21A8 JUMPI POP PUSH2 0x2095 JUMP JUMPDEST DUP3 DUP2 SSTORE PUSH1 0x1 ADD PUSH2 0x219B JUMP JUMPDEST SWAP1 SWAP2 POP DUP2 SWAP1 PUSH2 0x2192 JUMP JUMPDEST PUSH4 0x4E487B71 PUSH1 0xE0 SHL DUP2 MSTORE PUSH1 0x41 PUSH1 0x4 MSTORE PUSH1 0x24 SWAP1 REVERT JUMPDEST PUSH1 0x2 PUSH1 0x8 SLOAD EQ PUSH2 0x21E2 JUMPI PUSH1 0x2 PUSH1 0x8 SSTORE JUMP JUMPDEST PUSH1 0x40 MLOAD PUSH4 0x3EE5AEB5 PUSH1 0xE0 SHL DUP2 MSTORE PUSH1 0x4 SWAP1 REVERT JUMPDEST PUSH1 0x1 PUSH1 0x1 PUSH1 0x40 SHL SUB DUP2 GT PUSH2 0x74B JUMPI PUSH1 0x5 SHL PUSH1 0x20 ADD SWAP1 JUMP JUMPDEST DUP1 MLOAD DUP3 LT ISZERO PUSH2 0x1C33 JUMPI PUSH1 0x20 SWAP2 PUSH1 0x5 SHL ADD ADD SWAP1 JUMP JUMPDEST PUSH1 0xA DUP2 LT ISZERO PUSH2 0x822 JUMPI PUSH1 0x1 DUP2 EQ PUSH2 0x23EB JUMPI PUSH1 0x2 DUP2 EQ PUSH2 0x23BE JUMPI PUSH1 0x3 DUP2 EQ PUSH2 0x2392 JUMPI PUSH1 0x4 DUP2 EQ PUSH2 0x2369 JUMPI PUSH1 0x5 DUP2 EQ PUSH2 0x2340 JUMPI PUSH1 0x6 DUP2 EQ PUSH2 0x2317 JUMPI PUSH1 0x7 DUP2 EQ PUSH2 0x22EE JUMPI PUSH1 0x8 DUP2 EQ PUSH2 0x22C5 JUMPI PUSH1 0x9 EQ PUSH2 0x2298 JUMPI PUSH1 0x40 MLOAD PUSH2 0x227B DUP2 PUSH2 0x19AD JUMP JUMPDEST PUSH1 0xD DUP2 MSTORE PUSH13 0x556E6B6E6F776E204261646765 PUSH1 0x98 SHL PUSH1 0x20 DUP3 ADD MSTORE SWAP1 JUMP JUMPDEST PUSH1 0x40 MLOAD PUSH2 0x22A4 DUP2 PUSH2 0x19AD JUMP JUMPDEST PUSH1 0x11 DUP2 MSTORE PUSH17 0x26B4B63634B7B730B4B9329029B0BB32B9 PUSH1 0x79 SHL PUSH1 0x20 DUP3 ADD MSTORE SWAP1 JUMP JUMPDEST POP PUSH1 0x40 MLOAD PUSH2 0x22D2 DUP2 PUSH2 0x19AD JUMP JUMPDEST PUSH1 0xC DUP2 MSTORE PUSH12 0x2CB4B2B63210243AB73A32B9 PUSH1 0xA1 SHL PUSH1 0x20 DUP3 ADD MSTORE SWAP1 JUMP JUMPDEST POP PUSH1 0x40 MLOAD PUSH2 0x22FB DUP2 PUSH2 0x19AD JUMP JUMPDEST PUSH1 0xC DUP2 MSTORE PUSH12 0x29B7B1B4B0B61029B0BB32B9 PUSH1 0xA1 SHL PUSH1 0x20 DUP3 ADD MSTORE SWAP1 JUMP JUMPDEST POP PUSH1 0x40 MLOAD PUSH2 0x2324 DUP2 PUSH2 0x19AD JUMP JUMPDEST PUSH1 0xC DUP2 MSTORE PUSH12 0x23B937BAB8102632B0B232B9 PUSH1 0xA1 SHL PUSH1 0x20 DUP3 ADD MSTORE SWAP1 JUMP JUMPDEST POP PUSH1 0x40 MLOAD PUSH2 0x234D DUP2 PUSH2 0x19AD JUMP JUMPDEST PUSH1 0xC DUP2 MSTORE PUSH12 0x2632B3B2B7321029B0BB32B9 PUSH1 0xA1 SHL PUSH1 0x20 DUP3 ADD MSTORE SWAP1 JUMP JUMPDEST POP PUSH1 0x40 MLOAD PUSH2 0x2376 DUP2 PUSH2 0x19AD JUMP JUMPDEST PUSH1 0xC DUP2 MSTORE PUSH12 0x26B0B9BA32B91029B0BB32B9 PUSH1 0xA1 SHL PUSH1 0x20 DUP3 ADD MSTORE SWAP1 JUMP JUMPDEST POP PUSH1 0x40 MLOAD PUSH2 0x239F DUP2 PUSH2 0x19AD JUMP JUMPDEST PUSH1 0xF DUP2 MSTORE PUSH15 0x2232B234B1B0BA32B21029B0BB32B9 PUSH1 0x89 SHL PUSH1 0x20 DUP3 ADD MSTORE SWAP1 JUMP JUMPDEST POP PUSH1 0x40 MLOAD PUSH2 0x23CB DUP2 PUSH2 0x19AD JUMP JUMPDEST PUSH1 0x10 DUP2 MSTORE PUSH16 0x21B7B739B4B9BA32B73A1029B0BB32B9 PUSH1 0x81 SHL PUSH1 0x20 DUP3 ADD MSTORE SWAP1 JUMP JUMPDEST POP PUSH1 0x40 MLOAD PUSH2 0x23F8 DUP2 PUSH2 0x19AD JUMP JUMPDEST PUSH1 0xD DUP2 MSTORE PUSH13 0x29BA30B93A32B91029B0BB32B9 PUSH1 0x99 SHL PUSH1 0x20 DUP3 ADD MSTORE SWAP1 JUMP JUMPDEST PUSH1 0xA DUP2 LT ISZERO PUSH2 0x822 JUMPI PUSH1 0x1 DUP2 EQ PUSH2 0x265B JUMPI PUSH1 0x2 DUP2 EQ PUSH2 0x2621 JUMPI PUSH1 0x3 DUP2 EQ PUSH2 0x25E7 JUMPI PUSH1 0x4 DUP2 EQ PUSH2 0x25AD JUMPI PUSH1 0x5 DUP2 EQ PUSH2 0x2573 JUMPI PUSH1 0x6 DUP2 EQ PUSH2 0x2539 JUMPI PUSH1 0x7 DUP2 EQ PUSH2 0x24FF JUMPI PUSH1 0x8 DUP2 EQ PUSH2 0x24C5 JUMPI PUSH1 0x9 EQ PUSH2 0x2494 JUMPI PUSH1 0x40 MLOAD PUSH2 0x2471 DUP2 PUSH2 0x19AD JUMP JUMPDEST PUSH1 0x13 DUP2 MSTORE PUSH19 0x155B9ADB9BDDDB881858DA1A595D995B595B9D PUSH1 0x6A SHL PUSH1 0x20 DUP3 ADD MSTORE SWAP1 JUMP JUMPDEST PUSH1 0x40 MLOAD PUSH2 0x24A0 DUP2 PUSH2 0x19AD JUMP JUMPDEST PUSH1 0x15 DUP2 MSTORE PUSH21 0x14D85D9959080C4C0C0C0810D15313C81D1BDD185B PUSH1 0x5A SHL PUSH1 0x20 DUP3 ADD MSTORE SWAP1 JUMP JUMPDEST POP PUSH1 0x40 MLOAD PUSH2 0x24D2 DUP2 PUSH2 0x19AD JUMP JUMPDEST PUSH1 0x18 DUP2 MSTORE PUSH32 0x4561726E6564203130302043454C4F20696E207969656C640000000000000000 PUSH1 0x20 DUP3 ADD MSTORE SWAP1 JUMP JUMPDEST POP PUSH1 0x40 MLOAD PUSH2 0x250C DUP2 PUSH2 0x19AD JUMP JUMPDEST PUSH1 0x1D DUP2 MSTORE PUSH32 0x4A6F696E65642031302067726F757020736176696E677320706F6F6C73000000 PUSH1 0x20 DUP3 ADD MSTORE SWAP1 JUMP JUMPDEST POP PUSH1 0x40 MLOAD PUSH2 0x2546 DUP2 PUSH2 0x19AD JUMP JUMPDEST PUSH1 0x1D DUP2 MSTORE PUSH32 0x4372656174656420352067726F757020736176696E677320706F6F6C73000000 PUSH1 0x20 DUP3 ADD MSTORE SWAP1 JUMP JUMPDEST POP PUSH1 0x40 MLOAD PUSH2 0x2580 DUP2 PUSH2 0x19AD JUMP JUMPDEST PUSH1 0x1A DUP2 MSTORE PUSH32 0x436F6D706C6574656420353020736176696E677320676F616C73000000000000 PUSH1 0x20 DUP3 ADD MSTORE SWAP1 JUMP JUMPDEST POP PUSH1 0x40 MLOAD PUSH2 0x25BA DUP2 PUSH2 0x19AD JUMP JUMPDEST PUSH1 0x1A DUP2 MSTORE PUSH32 0x436F6D706C6574656420323520736176696E677320676F616C73000000000000 PUSH1 0x20 DUP3 ADD MSTORE SWAP1 JUMP JUMPDEST POP PUSH1 0x40 MLOAD PUSH2 0x25F4 DUP2 PUSH2 0x19AD JUMP JUMPDEST PUSH1 0x1A DUP2 MSTORE PUSH32 0x436F6D706C6574656420313020736176696E677320676F616C73000000000000 PUSH1 0x20 DUP3 ADD MSTORE SWAP1 JUMP JUMPDEST POP PUSH1 0x40 MLOAD PUSH2 0x262E DUP2 PUSH2 0x19AD JUMP JUMPDEST PUSH1 0x19 DUP2 MSTORE PUSH32 0x436F6D706C65746564203520736176696E677320676F616C7300000000000000 PUSH1 0x20 DUP3 ADD MSTORE SWAP1 JUMP JUMPDEST POP PUSH1 0x40 MLOAD PUSH1 0x60 DUP2 ADD DUP2 DUP2 LT PUSH1 0x1 PUSH1 0x1 PUSH1 0x40 SHL SUB DUP3 GT OR PUSH2 0x74B JUMPI PUSH1 0x40 MSTORE PUSH1 0x22 DUP2 MSTORE PUSH32 0x436F6D706C6574656420796F757220666972737420736176696E677320676F61 PUSH1 0x20 DUP3 ADD MSTORE PUSH2 0x6C21 PUSH1 0xF0 SHL PUSH1 0x40 DUP3 ADD MSTORE SWAP1 JUMP JUMPDEST PUSH1 0x0 SWAP1 PUSH1 0x1 DUP1 PUSH1 0xA0 SHL SUB AND DUP2 MSTORE PUSH1 0x20 SWAP2 PUSH1 0xB DUP4 MSTORE PUSH1 0x40 SWAP2 DUP3 DUP2 KECCAK256 SWAP3 DUP1 MLOAD DUP1 DUP6 DUP8 DUP3 SWAP8 SLOAD SWAP4 DUP5 DUP2 MSTORE ADD SWAP1 DUP6 MSTORE DUP8 DUP6 KECCAK256 SWAP3 DUP6 JUMPDEST DUP10 DUP3 DUP3 LT PUSH2 0x2784 JUMPI POP POP POP PUSH2 0x26F8 SWAP3 POP SUB DUP6 PUSH2 0x19C8 JUMP JUMPDEST DUP2 JUMPDEST DUP5 MLOAD DUP2 LT ISZERO PUSH2 0x277B JUMPI PUSH2 0x270D DUP2 DUP7 PUSH2 0x220B JUMP JUMPDEST MLOAD DUP4 MSTORE PUSH1 0x9 DUP7 MSTORE PUSH1 0xFF DUP3 DUP5 KECCAK256 SLOAD AND PUSH1 0xA DUP1 DUP7 LT ISZERO PUSH2 0x2767 JUMPI DUP2 LT ISZERO PUSH2 0x2753 JUMPI DUP5 EQ PUSH2 0x2740 JUMPI PUSH2 0x273B SWAP1 PUSH2 0x202B JUMP JUMPDEST PUSH2 0x26FA JUMP JUMPDEST SWAP4 SWAP3 POP POP POP PUSH2 0x274F SWAP3 POP PUSH2 0x220B JUMP JUMPDEST MLOAD SWAP1 JUMP JUMPDEST PUSH4 0x4E487B71 PUSH1 0xE0 SHL DUP5 MSTORE PUSH1 0x21 PUSH1 0x4 MSTORE PUSH1 0x24 DUP5 REVERT JUMPDEST PUSH4 0x4E487B71 PUSH1 0xE0 SHL DUP6 MSTORE PUSH1 0x21 PUSH1 0x4 MSTORE PUSH1 0x24 DUP6 REVERT JUMPDEST POP POP SWAP3 POP POP POP SWAP1 JUMP JUMPDEST DUP6 SLOAD DUP5 MSTORE PUSH1 0x1 SWAP6 DUP7 ADD SWAP6 DUP11 SWAP6 POP SWAP4 ADD SWAP3 ADD PUSH2 0x26E1 JUMP INVALID LOG2 PUSH5 0x6970667358 0x22 SLT KECCAK256 PUSH26 0xDC9C64E3450B41477A3188F7AC04B6A3A115E22BCC1C9EAD6780 0xA6 0xEA 0x4C DUP14 MLOAD PUSH5 0x736F6C6343 STOP ADDMOD EQ STOP CALLER PUSH1 0x80 CALLVALUE PUSH3 0x115 JUMPI PUSH1 0x1F PUSH3 0x1802 CODESIZE DUP2 SWAP1 SUB SWAP2 DUP3 ADD PUSH1 0x1F NOT AND DUP4 ADD SWAP2 PUSH1 0x1 PUSH1 0x1 PUSH1 0x40 SHL SUB DUP4 GT DUP5 DUP5 LT OR PUSH3 0x11A JUMPI DUP1 DUP5 SWAP3 PUSH1 0x60 SWAP5 PUSH1 0x40 MSTORE DUP4 CODECOPY DUP2 ADD SUB SLT PUSH3 0x115 JUMPI PUSH3 0x4D DUP2 PUSH3 0x130 JUMP JUMPDEST PUSH3 0x69 PUSH1 0x40 PUSH3 0x61 PUSH1 0x20 DUP6 ADD PUSH3 0x130 JUMP JUMPDEST SWAP4 ADD PUSH3 0x130 JUMP JUMPDEST SWAP1 PUSH1 0x1 PUSH1 0x0 SSTORE CALLER ISZERO PUSH3 0xFC JUMPI PUSH1 0x1 DUP1 SLOAD PUSH1 0x1 PUSH1 0x1 PUSH1 0xA0 SHL SUB NOT DUP1 DUP3 AND CALLER SWAP1 DUP2 OR SWAP1 SWAP4 SSTORE PUSH1 0x40 MLOAD SWAP6 SWAP1 SWAP5 PUSH1 0x1 PUSH1 0x1 PUSH1 0xA0 SHL SUB SWAP5 SWAP1 SWAP4 DUP6 SWAP4 DUP5 SWAP3 SWAP2 SWAP1 DUP4 AND PUSH32 0x8BE0079C531659141344CD1FD0A4F28419497F9722A3DAAFE3B4186F6B6457E0 PUSH1 0x0 DUP1 LOG3 PUSH2 0x352 PUSH1 0x6 SSTORE AND DUP6 PUSH1 0x4 SLOAD AND OR PUSH1 0x4 SSTORE AND DUP4 PUSH1 0x5 SLOAD AND OR PUSH1 0x5 SSTORE AND SWAP1 PUSH1 0x7 SLOAD AND OR PUSH1 0x7 SSTORE PUSH2 0x16BC SWAP1 DUP2 PUSH3 0x146 DUP3 CODECOPY RETURN JUMPDEST PUSH1 0x40 MLOAD PUSH4 0x1E4FBDF7 PUSH1 0xE0 SHL DUP2 MSTORE PUSH1 0x0 PUSH1 0x4 DUP3 ADD MSTORE PUSH1 0x24 SWAP1 REVERT JUMPDEST PUSH1 0x0 DUP1 REVERT JUMPDEST PUSH4 0x4E487B71 PUSH1 0xE0 SHL PUSH1 0x0 MSTORE PUSH1 0x41 PUSH1 0x4 MSTORE PUSH1 0x24 PUSH1 0x0 REVERT JUMPDEST MLOAD SWAP1 PUSH1 0x1 PUSH1 0x1 PUSH1 0xA0 SHL SUB DUP3 AND DUP3 SUB PUSH3 0x115 JUMPI JUMP INVALID PUSH1 0x80 PUSH1 0x40 DUP2 DUP2 MSTORE PUSH1 0x4 DUP1 CALLDATASIZE LT ISZERO PUSH2 0x15 JUMPI PUSH1 0x0 DUP1 REVERT JUMPDEST PUSH1 0x0 SWAP3 DUP4 CALLDATALOAD PUSH1 0xE0 SHR SWAP1 DUP2 PUSH4 0x4553111 EQ PUSH2 0x14BF JUMPI POP DUP1 PUSH4 0xC5E72C0 EQ PUSH2 0x14A3 JUMPI DUP1 PUSH4 0x1A02859F EQ PUSH2 0x13FB JUMPI DUP1 PUSH4 0x1F6D28BC EQ PUSH2 0x139A JUMPI DUP1 PUSH4 0x36F472CA EQ PUSH2 0x137B JUMPI DUP1 PUSH4 0x4F1BFC9E EQ PUSH2 0x135C JUMPI DUP1 PUSH4 0x5C12F040 EQ PUSH2 0x103A JUMPI DUP1 PUSH4 0x61D027B3 EQ PUSH2 0x1011 JUMPI DUP1 PUSH4 0x70A60311 EQ PUSH2 0xD64 JUMPI DUP1 PUSH4 0x715018A6 EQ PUSH2 0xD07 JUMPI DUP1 PUSH4 0x78B4330F EQ PUSH2 0xCE9 JUMPI DUP1 PUSH4 0x7D293916 EQ PUSH2 0xCC7 JUMPI DUP1 PUSH4 0x7F51BB1F EQ PUSH2 0xC25 JUMPI DUP1 PUSH4 0x7FEA355B EQ PUSH2 0xC06 JUMPI DUP1 PUSH4 0x8D017BB1 EQ PUSH2 0xBC8 JUMPI DUP1 PUSH4 0x8DA5CB5B EQ PUSH2 0xB9F JUMPI DUP1 PUSH4 0x9A408321 EQ PUSH2 0x851 JUMPI DUP1 PUSH4 0x9DB48BBB EQ PUSH2 0x707 JUMPI DUP1 PUSH4 0xA810A54C EQ PUSH2 0x3CA JUMPI DUP1 PUSH4 0xB7323881 EQ PUSH2 0x3A6 JUMPI DUP1 PUSH4 0xC59D4847 EQ PUSH2 0x290 JUMPI DUP1 PUSH4 0xCAE07843 EQ PUSH2 0x263 JUMPI DUP1 PUSH4 0xE22D551A EQ PUSH2 0x23C JUMPI DUP1 PUSH4 0xF2FDE38B EQ PUSH2 0x1AA JUMPI PUSH4 0xFAE728CD EQ PUSH2 0x136 JUMPI PUSH1 0x0 DUP1 REVERT JUMPDEST CALLVALUE PUSH2 0x1A6 JUMPI PUSH1 0x20 CALLDATASIZE PUSH1 0x3 NOT ADD SLT PUSH2 0x1A6 JUMPI DUP1 CALLDATALOAD SWAP2 PUSH2 0x152 PUSH2 0x14EF JUMP JUMPDEST PUSH2 0x7D0 DUP4 GT PUSH2 0x163 JUMPI POP POP PUSH1 0x6 SSTORE DUP1 RETURN JUMPDEST SWAP1 PUSH1 0x20 PUSH1 0x64 SWAP3 MLOAD SWAP2 PUSH3 0x461BCD PUSH1 0xE5 SHL DUP4 MSTORE DUP3 ADD MSTORE PUSH1 0x19 PUSH1 0x24 DUP3 ADD MSTORE PUSH32 0x536176696E6773476F616C3A2041505920746F6F206869676800000000000000 PUSH1 0x44 DUP3 ADD MSTORE REVERT JUMPDEST DUP3 DUP1 REVERT JUMPDEST POP SWAP1 CALLVALUE PUSH2 0x1A6 JUMPI PUSH1 0x20 CALLDATASIZE PUSH1 0x3 NOT ADD SLT PUSH2 0x1A6 JUMPI PUSH1 0x1 PUSH1 0x1 PUSH1 0xA0 SHL SUB DUP3 CALLDATALOAD DUP2 DUP2 AND SWAP4 SWAP2 SWAP3 SWAP1 DUP5 SWAP1 SUB PUSH2 0x238 JUMPI PUSH2 0x1DD PUSH2 0x14EF JUMP JUMPDEST DUP4 ISZERO PUSH2 0x222 JUMPI POP POP PUSH1 0x1 SLOAD DUP3 PUSH1 0x1 PUSH1 0x1 PUSH1 0x60 SHL SUB PUSH1 0xA0 SHL DUP3 AND OR PUSH1 0x1 SSTORE AND PUSH32 0x8BE0079C531659141344CD1FD0A4F28419497F9722A3DAAFE3B4186F6B6457E0 DUP4 DUP1 LOG3 DUP1 RETURN JUMPDEST MLOAD PUSH4 0x1E4FBDF7 PUSH1 0xE0 SHL DUP2 MSTORE SWAP1 DUP2 ADD DUP5 SWAP1 MSTORE PUSH1 0x24 SWAP1 REVERT JUMPDEST DUP5 DUP1 REVERT JUMPDEST POP CALLVALUE PUSH2 0x1A6 JUMPI DUP3 PUSH1 0x3 NOT CALLDATASIZE ADD SLT PUSH2 0x1A6 JUMPI SLOAD SWAP1 MLOAD PUSH1 0x1 PUSH1 0x1 PUSH1 0xA0 SHL SUB SWAP1 SWAP2 AND DUP2 MSTORE PUSH1 0x20 SWAP2 POP RETURN JUMPDEST POP POP CALLVALUE PUSH2 0x28C JUMPI DUP2 PUSH1 0x3 NOT CALLDATASIZE ADD SLT PUSH2 0x28C JUMPI PUSH1 0x5 SLOAD SWAP1 MLOAD PUSH1 0x1 PUSH1 0x1 PUSH1 0xA0 SHL SUB SWAP1 SWAP2 AND DUP2 MSTORE PUSH1 0x20 SWAP1 RETURN JUMPDEST POP DUP1 REVERT JUMPDEST POP SWAP1 CALLVALUE PUSH2 0x1A6 JUMPI DUP3 PUSH1 0x3 NOT CALLDATASIZE ADD SLT PUSH2 0x1A6 JUMPI PUSH1 0x8 SLOAD SWAP2 PUSH1 0x9 SLOAD SWAP2 PUSH1 0x1 DUP1 PUSH1 0xA0 SHL SUB SWAP3 DUP4 DUP4 SLOAD AND SWAP4 DUP3 MLOAD SWAP4 DUP5 SWAP2 PUSH4 0x70A08231 PUSH1 0xE0 SHL SWAP7 DUP8 DUP5 MSTORE ADDRESS DUP4 DUP6 ADD MSTORE DUP4 PUSH1 0x24 PUSH1 0x20 SWAP6 DUP7 SWAP4 GAS STATICCALL SWAP6 DUP7 ISZERO PUSH2 0x39C JUMPI DUP10 SWAP7 PUSH2 0x366 JUMPI JUMPDEST POP SWAP1 PUSH1 0x24 DUP4 SWAP3 PUSH1 0x5 SLOAD AND SWAP8 DUP7 MLOAD SWAP9 DUP10 SWAP4 DUP5 SWAP3 DUP4 MSTORE ADDRESS SWAP1 DUP4 ADD MSTORE GAS STATICCALL SWAP5 DUP6 ISZERO PUSH2 0x35C JUMPI DUP8 SWAP6 PUSH2 0x325 JUMPI JUMPDEST POP PUSH1 0x80 SWAP7 POP DUP3 MLOAD SWAP6 DUP7 MSTORE DUP6 ADD MSTORE DUP4 ADD MSTORE PUSH1 0x60 DUP3 ADD MSTORE RETURN JUMPDEST SWAP1 DUP1 SWAP6 POP DUP2 DUP2 RETURNDATASIZE DUP4 GT PUSH2 0x355 JUMPI JUMPDEST PUSH2 0x33D DUP2 DUP4 PUSH2 0x1609 JUMP JUMPDEST DUP2 ADD SUB SLT PUSH2 0x351 JUMPI PUSH1 0x80 SWAP7 POP MLOAD SWAP4 CODESIZE PUSH2 0x30E JUMP JUMPDEST DUP7 DUP1 REVERT JUMPDEST POP RETURNDATASIZE PUSH2 0x333 JUMP JUMPDEST DUP4 MLOAD RETURNDATASIZE DUP10 DUP3 RETURNDATACOPY RETURNDATASIZE SWAP1 REVERT JUMPDEST SWAP2 SWAP1 SWAP6 POP DUP3 DUP3 DUP2 RETURNDATASIZE DUP4 GT PUSH2 0x395 JUMPI JUMPDEST PUSH2 0x37F DUP2 DUP4 PUSH2 0x1609 JUMP JUMPDEST DUP2 ADD SUB SLT PUSH2 0x391 JUMPI SWAP1 MLOAD SWAP5 PUSH1 0x24 PUSH2 0x2E5 JUMP JUMPDEST DUP9 DUP1 REVERT JUMPDEST POP RETURNDATASIZE PUSH2 0x375 JUMP JUMPDEST DUP6 MLOAD RETURNDATASIZE DUP12 DUP3 RETURNDATACOPY RETURNDATASIZE SWAP1 REVERT JUMPDEST POP POP CALLVALUE PUSH2 0x28C JUMPI DUP2 PUSH1 0x3 NOT CALLDATASIZE ADD SLT PUSH2 0x28C JUMPI PUSH1 0x20 SWAP1 MLOAD PUSH9 0x3635C9ADC5DEA00000 DUP2 MSTORE RETURN JUMPDEST POP SWAP2 SWAP1 CALLVALUE PUSH2 0x28C JUMPI PUSH1 0x20 DUP1 PUSH1 0x3 NOT CALLDATASIZE ADD SLT PUSH2 0x1A6 JUMPI PUSH2 0x3E7 PUSH2 0x14DB JUMP JUMPDEST SWAP2 CALLER DUP5 MSTORE PUSH1 0x3 DUP3 MSTORE PUSH2 0x3FE PUSH1 0xFF DUP3 DUP7 KECCAK256 SLOAD AND PUSH2 0x153E JUMP JUMPDEST CALLER DUP5 MSTORE PUSH1 0x2 DUP3 MSTORE PUSH1 0x5 DUP2 DUP6 KECCAK256 ADD SLOAD TIMESTAMP LT PUSH2 0x6B9 JUMPI PUSH2 0x41A PUSH2 0x1643 JUMP JUMPDEST CALLER DUP5 MSTORE PUSH1 0x2 DUP3 MSTORE DUP1 DUP5 KECCAK256 SWAP5 PUSH1 0x6 DUP7 ADD SWAP1 PUSH1 0xFF DUP3 SLOAD AND ISZERO PUSH2 0x676 JUMPI PUSH1 0x2 DUP8 ADD SWAP7 PUSH2 0x44A PUSH1 0x7 DUP10 SLOAD SWAP3 ADD SLOAD DUP1 SWAP3 PUSH2 0x151B JUMP JUMPDEST SWAP1 PUSH1 0xC8 DUP2 MUL SWAP1 DUP1 DUP3 DIV PUSH1 0xC8 EQ SWAP1 ISZERO OR ISZERO PUSH2 0x663 JUMPI PUSH2 0x2710 PUSH2 0x46D SWAP2 DIV DUP1 SWAP3 PUSH2 0x1666 JUMP JUMPDEST SWAP6 ISZERO PUSH2 0x653 JUMPI PUSH1 0x5 SLOAD PUSH1 0x1 PUSH1 0x1 PUSH1 0xA0 SHL SUB AND JUMPDEST DUP5 MLOAD PUSH4 0xA9059CBB PUSH1 0xE0 SHL DUP1 DUP3 MSTORE CALLER DUP6 DUP4 ADD SWAP1 DUP2 MSTORE PUSH1 0x20 DUP2 ADD DUP11 SWAP1 MSTORE PUSH1 0x1 PUSH1 0x1 PUSH1 0xA0 SHL SUB SWAP4 DUP5 AND SWAP4 SWAP2 SWAP3 SWAP1 DUP10 SWAP1 DUP3 SWAP1 DUP2 SWAP1 SUB PUSH1 0x40 ADD DUP2 DUP15 DUP9 GAS CALL SWAP1 DUP2 ISZERO PUSH2 0x649 JUMPI DUP12 SWAP2 PUSH2 0x62C JUMPI JUMPDEST POP ISZERO PUSH2 0x5E9 JUMPI DUP4 PUSH2 0x522 JUMPI JUMPDEST POP POP POP POP POP PUSH2 0x508 PUSH32 0xEAFF4B37086828766AD3268786972C0CD24259D4C87A80F9D3963A3C3D999B0D SWAP5 SWAP6 SWAP7 SLOAD PUSH1 0x9 SLOAD PUSH2 0x1666 JUMP JUMPDEST PUSH1 0x9 SSTORE DUP1 SLOAD PUSH2 0xFF00 NOT AND SWAP1 SSTORE MLOAD SWAP3 DUP4 MSTORE CALLER SWAP3 LOG2 PUSH1 0x1 DUP2 SSTORE DUP1 RETURN JUMPDEST PUSH1 0x7 SLOAD DUP8 MLOAD SWAP3 DUP4 MSTORE AND PUSH1 0x1 PUSH1 0x1 PUSH1 0xA0 SHL SUB AND DUP5 DUP3 ADD SWAP1 DUP2 MSTORE PUSH1 0x20 DUP2 ADD SWAP4 SWAP1 SWAP4 MSTORE SWAP2 DUP7 SWAP2 DUP4 SWAP2 DUP3 SWAP1 DUP12 SWAP1 DUP3 SWAP1 PUSH1 0x40 ADD SUB SWAP3 GAS CALL SWAP1 DUP2 ISZERO PUSH2 0x5DF JUMPI DUP8 SWAP2 PUSH2 0x5B2 JUMPI JUMPDEST POP ISZERO PUSH2 0x571 JUMPI DUP1 DUP1 DUP1 DUP1 PUSH2 0x4D3 JUMP JUMPDEST PUSH1 0x64 SWAP1 DUP5 DUP1 DUP6 MLOAD SWAP3 PUSH3 0x461BCD PUSH1 0xE5 SHL DUP5 MSTORE DUP4 ADD MSTORE PUSH1 0x24 DUP3 ADD MSTORE PUSH32 0x536176696E6773476F616C3A20466565207472616E73666572206661696C6564 PUSH1 0x44 DUP3 ADD MSTORE REVERT JUMPDEST PUSH2 0x5D2 SWAP2 POP DUP6 RETURNDATASIZE DUP8 GT PUSH2 0x5D8 JUMPI JUMPDEST PUSH2 0x5CA DUP2 DUP4 PUSH2 0x1609 JUMP JUMPDEST DUP2 ADD SWAP1 PUSH2 0x162B JUMP JUMPDEST CODESIZE PUSH2 0x562 JUMP JUMPDEST POP RETURNDATASIZE PUSH2 0x5C0 JUMP JUMPDEST DUP5 MLOAD RETURNDATASIZE DUP10 DUP3 RETURNDATACOPY RETURNDATASIZE SWAP1 REVERT JUMPDEST DUP7 MLOAD PUSH3 0x461BCD PUSH1 0xE5 SHL DUP2 MSTORE DUP1 DUP7 ADD DUP10 SWAP1 MSTORE PUSH1 0x1E PUSH1 0x24 DUP3 ADD MSTORE PUSH32 0x536176696E6773476F616C3A205769746864726177616C206661696C65640000 PUSH1 0x44 DUP3 ADD MSTORE PUSH1 0x64 SWAP1 REVERT JUMPDEST PUSH2 0x643 SWAP2 POP DUP10 RETURNDATASIZE DUP12 GT PUSH2 0x5D8 JUMPI PUSH2 0x5CA DUP2 DUP4 PUSH2 0x1609 JUMP JUMPDEST CODESIZE PUSH2 0x4C7 JUMP JUMPDEST DUP9 MLOAD RETURNDATASIZE DUP14 DUP3 RETURNDATACOPY RETURNDATASIZE SWAP1 REVERT JUMPDEST DUP2 SLOAD PUSH1 0x1 PUSH1 0x1 PUSH1 0xA0 SHL SUB AND PUSH2 0x480 JUMP JUMPDEST PUSH4 0x4E487B71 PUSH1 0xE0 SHL DUP9 MSTORE PUSH1 0x11 DUP4 MSTORE PUSH1 0x24 DUP9 REVERT JUMPDEST DUP3 MLOAD PUSH3 0x461BCD PUSH1 0xE5 SHL DUP2 MSTORE SWAP1 DUP2 ADD DUP5 SWAP1 MSTORE PUSH1 0x1F PUSH1 0x24 DUP3 ADD MSTORE PUSH32 0x536176696E6773476F616C3A20476F616C206E6F7420636F6D706C6574656400 PUSH1 0x44 DUP3 ADD MSTORE PUSH1 0x64 SWAP1 REVERT JUMPDEST MLOAD PUSH3 0x461BCD PUSH1 0xE5 SHL DUP2 MSTORE DUP1 DUP6 ADD SWAP2 SWAP1 SWAP2 MSTORE PUSH1 0x22 PUSH1 0x24 DUP3 ADD MSTORE PUSH32 0x536176696E6773476F616C3A204C6F636B20706572696F64206E6F7420656E64 PUSH1 0x44 DUP3 ADD MSTORE PUSH2 0x1959 PUSH1 0xF2 SHL PUSH1 0x64 DUP3 ADD MSTORE PUSH1 0x84 SWAP1 REVERT JUMPDEST POP DUP3 CALLVALUE PUSH2 0x84E JUMPI PUSH1 0x20 CALLDATASIZE PUSH1 0x3 NOT ADD SLT PUSH2 0x84E JUMPI PUSH1 0x1 PUSH1 0x1 PUSH1 0xA0 SHL SUB SWAP3 DUP3 CALLDATALOAD DUP5 DUP2 AND SWAP1 DUP2 SWAP1 SUB PUSH2 0x1A6 JUMPI PUSH2 0x140 SWAP5 DUP3 DUP1 MLOAD SWAP5 PUSH2 0x741 DUP7 PUSH2 0x15D6 JUMP JUMPDEST DUP1 DUP7 MSTORE DUP1 PUSH1 0x20 DUP8 ADD MSTORE DUP1 DUP3 DUP8 ADD MSTORE DUP1 PUSH1 0x60 DUP8 ADD MSTORE DUP1 PUSH1 0x80 DUP8 ADD MSTORE DUP1 PUSH1 0xA0 DUP8 ADD MSTORE DUP1 PUSH1 0xC0 DUP8 ADD MSTORE DUP1 PUSH1 0xE0 DUP8 ADD MSTORE PUSH2 0x100 SWAP4 DUP2 DUP6 DUP9 ADD MSTORE DUP2 PUSH2 0x120 DUP1 SWAP9 ADD MSTORE DUP2 MSTORE PUSH1 0x2 PUSH1 0x20 MSTORE KECCAK256 SWAP3 DUP1 MLOAD SWAP4 DUP5 SWAP3 PUSH2 0x795 DUP5 PUSH2 0x15D6 JUMP JUMPDEST DUP2 SLOAD AND SWAP7 DUP8 DUP5 MSTORE PUSH1 0x1 DUP3 ADD SLOAD SWAP3 PUSH1 0x20 DUP6 ADD SWAP4 DUP5 MSTORE PUSH1 0x2 DUP4 ADD SLOAD SWAP2 DUP2 DUP7 ADD SWAP3 DUP4 MSTORE PUSH1 0x3 DUP5 ADD SLOAD SWAP1 PUSH1 0x60 DUP8 ADD SWAP2 DUP3 MSTORE DUP5 ADD SLOAD SWAP2 PUSH1 0x80 DUP8 ADD SWAP3 DUP4 MSTORE PUSH1 0x5 DUP6 ADD SLOAD SWAP4 PUSH1 0xA0 DUP9 ADD SWAP5 DUP6 MSTORE PUSH1 0x6 DUP7 ADD SLOAD SWAP7 DUP12 PUSH1 0x8 PUSH1 0xC0 DUP12 ADD SWAP9 PUSH1 0xFF DUP12 AND ISZERO ISZERO DUP11 MSTORE PUSH1 0xFF PUSH1 0xE0 DUP14 ADD SWAP12 DUP4 SHR AND ISZERO ISZERO DUP12 MSTORE DUP13 PUSH1 0x7 DUP3 ADD SLOAD SWAP13 ADD SWAP12 DUP13 MSTORE ADD SLOAD SWAP12 ADD SWAP11 DUP12 MSTORE DUP3 MLOAD SWAP13 DUP14 MSTORE MLOAD PUSH1 0x20 DUP14 ADD MSTORE MLOAD SWAP1 DUP12 ADD MSTORE MLOAD PUSH1 0x60 DUP11 ADD MSTORE MLOAD PUSH1 0x80 DUP10 ADD MSTORE MLOAD PUSH1 0xA0 DUP9 ADD MSTORE MLOAD ISZERO ISZERO PUSH1 0xC0 DUP8 ADD MSTORE MLOAD ISZERO ISZERO PUSH1 0xE0 DUP7 ADD MSTORE MLOAD SWAP1 DUP5 ADD MSTORE MLOAD SWAP1 DUP3 ADD MSTORE RETURN JUMPDEST DUP1 REVERT JUMPDEST POP CALLVALUE PUSH2 0x1A6 JUMPI DUP2 PUSH1 0x3 NOT CALLDATASIZE ADD SLT PUSH2 0x1A6 JUMPI DUP1 CALLDATALOAD SWAP2 PUSH1 0x24 SWAP2 DUP3 CALLDATALOAD SWAP4 DUP5 ISZERO ISZERO DUP6 SUB PUSH2 0xB9B JUMPI CALLER DUP7 MSTORE PUSH1 0x20 SWAP4 PUSH1 0x3 DUP6 MSTORE PUSH2 0x88D PUSH1 0xFF DUP6 DUP10 KECCAK256 SLOAD AND PUSH2 0x153E JUMP JUMPDEST CALLER DUP8 MSTORE PUSH1 0x2 SWAP6 DUP7 DUP7 MSTORE PUSH1 0xFF PUSH1 0x6 DUP7 DUP11 KECCAK256 ADD SLOAD AND PUSH2 0xB4D JUMPI CALLER DUP9 MSTORE DUP7 DUP7 MSTORE PUSH2 0x8BF PUSH1 0xFF PUSH1 0x6 DUP8 DUP12 KECCAK256 ADD SLOAD PUSH1 0x8 SHR AND PUSH2 0x158A JUMP JUMPDEST PUSH2 0x8C7 PUSH2 0x1643 JUMP JUMPDEST DUP3 ISZERO PUSH2 0xAF8 JUMPI CALLER DUP9 MSTORE DUP7 DUP7 MSTORE DUP5 DUP9 KECCAK256 SWAP2 DUP8 DUP4 ADD SWAP2 PUSH1 0x1 PUSH2 0x8E8 DUP7 DUP6 SLOAD PUSH2 0x151B JUMP JUMPDEST SWAP5 ADD SWAP4 DUP5 SLOAD LT PUSH2 0xAAB JUMPI ISZERO PUSH2 0xA97 JUMPI PUSH1 0x5 SLOAD DUP10 SWAP1 DUP9 SWAP1 PUSH1 0x1 PUSH1 0x1 PUSH1 0xA0 SHL SUB AND JUMPDEST DUP9 MLOAD PUSH4 0x23B872DD PUSH1 0xE0 SHL DUP2 MSTORE CALLER DUP10 DUP3 ADD MSTORE ADDRESS DUP6 DUP3 ADD MSTORE PUSH1 0x44 DUP2 ADD DUP9 SWAP1 MSTORE SWAP3 DUP4 SWAP2 PUSH1 0x64 SWAP2 DUP4 SWAP2 PUSH1 0x1 PUSH1 0x1 PUSH1 0xA0 SHL SUB AND GAS CALL SWAP1 DUP2 ISZERO PUSH2 0xA8D JUMPI DUP11 SWAP2 PUSH2 0xA70 JUMPI JUMPDEST POP ISZERO PUSH2 0xA2F JUMPI POP PUSH2 0x958 DUP4 DUP3 SLOAD PUSH2 0x151B JUMP JUMPDEST DUP2 SSTORE PUSH2 0x966 DUP4 PUSH1 0x9 SLOAD PUSH2 0x151B JUMP JUMPDEST PUSH1 0x9 SSTORE SLOAD SWAP2 DUP5 MLOAD SWAP1 DUP2 MSTORE DUP3 DUP7 DUP3 ADD MSTORE PUSH32 0xB05F0D1CD0819F155B8A61F60BAF7767C1EE49D04AEAAB701DF236140EB93F9 DUP6 CALLER SWAP3 LOG2 SLOAD GT ISZERO PUSH2 0x9AA JUMPI JUMPDEST DUP5 PUSH1 0x1 DUP2 SSTORE DUP1 RETURN JUMPDEST PUSH32 0x5FDB120E2225930F6B50914ED30F8F8B37A0A6C7B6DF7B1F0F7F235791BFC341 SWAP3 PUSH1 0x7 SWAP2 CALLER DUP8 MSTORE DUP6 DUP3 MSTORE PUSH5 0x496CEBB800 PUSH2 0xA15 PUSH2 0x9FD DUP7 DUP11 KECCAK256 SWAP4 PUSH1 0x6 DUP6 ADD PUSH1 0x1 PUSH1 0xFF NOT DUP3 SLOAD AND OR SWAP1 SSTORE DUP5 ADD SLOAD TIMESTAMP PUSH2 0x1666 JUMP JUMPDEST SWAP8 DUP4 ADD SLOAD SWAP8 PUSH2 0xA10 PUSH1 0x8 DUP6 ADD SLOAD DUP11 PUSH2 0x1673 JUMP JUMPDEST PUSH2 0x1673 JUMP JUMPDEST DIV SWAP3 DUP4 SWAP2 ADD SSTORE DUP3 MLOAD SWAP5 DUP6 MSTORE DUP5 ADD MSTORE CALLER SWAP3 LOG2 CODESIZE DUP1 DUP1 DUP1 PUSH2 0x9A2 JUMP JUMPDEST DUP5 PUSH1 0x1C PUSH1 0x64 SWAP3 DUP10 DUP10 MLOAD SWAP4 PUSH3 0x461BCD PUSH1 0xE5 SHL DUP6 MSTORE DUP5 ADD MSTORE DUP3 ADD MSTORE PUSH32 0x536176696E6773476F616C3A205472616E73666572206661696C656400000000 PUSH1 0x44 DUP3 ADD MSTORE REVERT JUMPDEST PUSH2 0xA87 SWAP2 POP DUP9 RETURNDATASIZE DUP11 GT PUSH2 0x5D8 JUMPI PUSH2 0x5CA DUP2 DUP4 PUSH2 0x1609 JUMP JUMPDEST CODESIZE PUSH2 0x946 JUMP JUMPDEST DUP8 MLOAD RETURNDATASIZE DUP13 DUP3 RETURNDATACOPY RETURNDATASIZE SWAP1 REVERT JUMPDEST DUP5 SLOAD DUP10 SWAP1 DUP9 SWAP1 PUSH1 0x1 PUSH1 0x1 PUSH1 0xA0 SHL SUB AND PUSH2 0x908 JUMP JUMPDEST DUP7 MLOAD PUSH3 0x461BCD PUSH1 0xE5 SHL DUP2 MSTORE DUP1 DUP8 ADD DUP10 SWAP1 MSTORE PUSH1 0x22 DUP2 DUP5 ADD MSTORE PUSH32 0x536176696E6773476F616C3A20457863656564732074617267657420616D6F75 PUSH1 0x44 DUP3 ADD MSTORE PUSH2 0x1B9D PUSH1 0xF2 SHL PUSH1 0x64 DUP3 ADD MSTORE PUSH1 0x84 SWAP1 REVERT JUMPDEST DUP5 MLOAD PUSH3 0x461BCD PUSH1 0xE5 SHL DUP2 MSTORE DUP1 DUP6 ADD DUP8 SWAP1 MSTORE PUSH1 0x2A DUP2 DUP5 ADD MSTORE PUSH32 0x536176696E6773476F616C3A20416D6F756E74206D7573742062652067726561 PUSH1 0x44 DUP3 ADD MSTORE PUSH10 0x746572207468616E203 PUSH1 0xB4 SHL PUSH1 0x64 DUP3 ADD MSTORE PUSH1 0x84 SWAP1 REVERT JUMPDEST DUP5 MLOAD PUSH3 0x461BCD PUSH1 0xE5 SHL DUP2 MSTORE DUP1 DUP6 ADD DUP8 SWAP1 MSTORE PUSH1 0x23 DUP2 DUP5 ADD MSTORE PUSH32 0x536176696E6773476F616C3A20476F616C20616C726561647920636F6D706C65 PUSH1 0x44 DUP3 ADD MSTORE PUSH3 0x1D1959 PUSH1 0xEA SHL PUSH1 0x64 DUP3 ADD MSTORE PUSH1 0x84 SWAP1 REVERT JUMPDEST DUP6 DUP1 REVERT JUMPDEST POP POP CALLVALUE PUSH2 0x28C JUMPI DUP2 PUSH1 0x3 NOT CALLDATASIZE ADD SLT PUSH2 0x28C JUMPI PUSH1 0x1 SLOAD SWAP1 MLOAD PUSH1 0x1 PUSH1 0x1 PUSH1 0xA0 SHL SUB SWAP1 SWAP2 AND DUP2 MSTORE PUSH1 0x20 SWAP1 RETURN JUMPDEST POP CALLVALUE PUSH2 0x1A6 JUMPI PUSH1 0x20 CALLDATASIZE PUSH1 0x3 NOT ADD SLT PUSH2 0x1A6 JUMPI CALLDATALOAD PUSH1 0x1 PUSH1 0x1 PUSH1 0xA0 SHL SUB DUP2 AND SWAP1 DUP2 SWAP1 SUB PUSH2 0x1A6 JUMPI DUP2 DUP4 PUSH1 0xFF SWAP3 PUSH1 0x20 SWAP6 MSTORE PUSH1 0x3 DUP6 MSTORE KECCAK256 SLOAD AND SWAP1 MLOAD SWAP1 ISZERO ISZERO DUP2 MSTORE RETURN JUMPDEST POP POP CALLVALUE PUSH2 0x28C JUMPI DUP2 PUSH1 0x3 NOT CALLDATASIZE ADD SLT PUSH2 0x28C JUMPI PUSH1 0x20 SWAP1 PUSH1 0x9 SLOAD SWAP1 MLOAD SWAP1 DUP2 MSTORE RETURN JUMPDEST POP CALLVALUE PUSH2 0x1A6 JUMPI PUSH1 0x20 CALLDATASIZE PUSH1 0x3 NOT ADD SLT PUSH2 0x1A6 JUMPI DUP1 CALLDATALOAD PUSH1 0x1 PUSH1 0x1 PUSH1 0xA0 SHL SUB DUP2 AND SWAP3 SWAP1 DUP4 SWAP1 SUB PUSH2 0xCC3 JUMPI PUSH2 0xC54 PUSH2 0x14EF JUMP JUMPDEST DUP3 ISZERO PUSH2 0xC72 JUMPI POP POP PUSH1 0x1 PUSH1 0x1 PUSH1 0x60 SHL SUB PUSH1 0xA0 SHL PUSH1 0x7 SLOAD AND OR PUSH1 0x7 SSTORE DUP1 RETURN JUMPDEST SWAP1 PUSH1 0x20 PUSH1 0x84 SWAP3 MLOAD SWAP2 PUSH3 0x461BCD PUSH1 0xE5 SHL DUP4 MSTORE DUP3 ADD MSTORE PUSH1 0x25 PUSH1 0x24 DUP3 ADD MSTORE PUSH32 0x536176696E6773476F616C3A20496E76616C6964207472656173757279206164 PUSH1 0x44 DUP3 ADD MSTORE PUSH5 0x6472657373 PUSH1 0xD8 SHL PUSH1 0x64 DUP3 ADD MSTORE REVERT JUMPDEST DUP4 DUP1 REVERT JUMPDEST POP POP CALLVALUE PUSH2 0x28C JUMPI DUP2 PUSH1 0x3 NOT CALLDATASIZE ADD SLT PUSH2 0x28C JUMPI PUSH1 0x20 SWAP1 MLOAD PUSH7 0x2386F26FC10000 DUP2 MSTORE RETURN JUMPDEST POP POP CALLVALUE PUSH2 0x28C JUMPI DUP2 PUSH1 0x3 NOT CALLDATASIZE ADD SLT PUSH2 0x28C JUMPI PUSH1 0x20 SWAP1 MLOAD PUSH3 0x93A80 DUP2 MSTORE RETURN JUMPDEST DUP4 CALLVALUE PUSH2 0x84E JUMPI DUP1 PUSH1 0x3 NOT CALLDATASIZE ADD SLT PUSH2 0x84E JUMPI PUSH2 0xD20 PUSH2 0x14EF JUMP JUMPDEST PUSH1 0x1 DUP1 SLOAD PUSH1 0x1 PUSH1 0x1 PUSH1 0xA0 SHL SUB NOT DUP2 AND SWAP1 SWAP2 SSTORE DUP2 SWAP1 PUSH1 0x1 PUSH1 0x1 PUSH1 0xA0 SHL SUB AND PUSH32 0x8BE0079C531659141344CD1FD0A4F28419497F9722A3DAAFE3B4186F6B6457E0 DUP3 DUP1 LOG3 DUP1 RETURN JUMPDEST POP SWAP2 SWAP1 CALLVALUE PUSH2 0x28C JUMPI PUSH1 0x60 CALLDATASIZE PUSH1 0x3 NOT ADD SLT PUSH2 0x28C JUMPI DUP3 CALLDATALOAD SWAP1 PUSH1 0x24 DUP1 CALLDATALOAD SWAP1 PUSH1 0x44 SWAP1 DUP2 CALLDATALOAD DUP1 ISZERO ISZERO SUB PUSH2 0xB9B JUMPI CALLER DUP7 MSTORE PUSH1 0x20 SWAP2 PUSH1 0x3 DUP4 MSTORE PUSH1 0xFF DUP6 DUP9 KECCAK256 SLOAD AND PUSH2 0xFD2 JUMPI PUSH7 0x2386F26FC10000 DUP7 LT PUSH2 0xF87 JUMPI PUSH9 0x3635C9ADC5DEA00000 DUP7 GT PUSH2 0xF3B JUMPI PUSH3 0x93A80 DUP5 LT PUSH2 0xEEF JUMPI PUSH4 0x1E13380 DUP5 GT PUSH2 0xEA3 JUMPI POP CALLER DUP7 MSTORE PUSH1 0x2 DUP3 MSTORE DUP4 DUP7 KECCAK256 CALLER PUSH1 0x1 PUSH1 0x1 PUSH1 0x60 SHL SUB PUSH1 0xA0 SHL DUP3 SLOAD AND OR DUP2 SSTORE DUP6 PUSH1 0x1 DUP3 ADD SSTORE DUP7 PUSH1 0x2 DUP3 ADD SSTORE DUP4 PUSH1 0x3 DUP3 ADD SSTORE TIMESTAMP DUP9 DUP3 ADD SSTORE PUSH2 0xE13 DUP5 TIMESTAMP PUSH2 0x151B JUMP JUMPDEST PUSH1 0x5 DUP3 ADD SSTORE PUSH1 0x6 DUP1 DUP3 ADD DUP1 SLOAD PUSH2 0xFFFF NOT AND PUSH2 0x100 OR SWAP1 SSTORE PUSH1 0x7 DUP3 ADD DUP9 SWAP1 SSTORE SLOAD PUSH1 0x8 SWAP2 DUP3 ADD SSTORE CALLER DUP8 MSTORE PUSH1 0x3 DUP4 MSTORE DUP5 DUP8 KECCAK256 DUP1 SLOAD PUSH1 0xFF NOT AND PUSH1 0x1 OR SWAP1 SSTORE SLOAD SWAP7 PUSH1 0x0 NOT DUP9 EQ PUSH2 0xE92 JUMPI POP POP PUSH1 0x1 PUSH32 0x585021382A707927FF376EE2D95481C8AE02449A616BBFF2C6D68FFF56CFB15B SWAP5 SWAP6 SWAP7 ADD PUSH1 0x8 SSTORE DUP3 MLOAD SWAP5 DUP6 MSTORE DUP5 ADD MSTORE CALLER SWAP3 LOG2 DUP1 RETURN JUMPDEST PUSH4 0x4E487B71 PUSH1 0xE0 SHL DUP8 MSTORE PUSH1 0x11 SWAP1 MSTORE DUP6 REVERT JUMPDEST PUSH32 0x536176696E6773476F616C3A204C6F636B206475726174696F6E20746F6F206C SWAP1 PUSH1 0x23 DUP10 SWAP4 PUSH1 0x84 SWAP6 DUP9 MLOAD SWAP6 PUSH3 0x461BCD PUSH1 0xE5 SHL DUP8 MSTORE DUP7 ADD MSTORE DUP5 ADD MSTORE DUP3 ADD MSTORE PUSH3 0x6F6E67 PUSH1 0xE8 SHL PUSH1 0x64 DUP3 ADD MSTORE REVERT JUMPDEST PUSH32 0x536176696E6773476F616C3A204C6F636B206475726174696F6E20746F6F2073 SWAP1 DUP9 SWAP3 PUSH1 0x84 SWAP5 DUP8 MLOAD SWAP5 PUSH3 0x461BCD PUSH1 0xE5 SHL DUP7 MSTORE DUP6 ADD MSTORE DUP1 DUP5 ADD MSTORE DUP3 ADD MSTORE PUSH4 0x1A1BDC9D PUSH1 0xE2 SHL PUSH1 0x64 DUP3 ADD MSTORE REVERT JUMPDEST PUSH32 0x536176696E6773476F616C3A2054617267657420616D6F756E7420746F6F2068 SWAP1 PUSH1 0x23 DUP10 SWAP4 PUSH1 0x84 SWAP6 DUP9 MLOAD SWAP6 PUSH3 0x461BCD PUSH1 0xE5 SHL DUP8 MSTORE DUP7 ADD MSTORE DUP5 ADD MSTORE DUP3 ADD MSTORE PUSH3 0xD2CED PUSH1 0xEB SHL PUSH1 0x64 DUP3 ADD MSTORE REVERT JUMPDEST PUSH32 0x536176696E6773476F616C3A2054617267657420616D6F756E7420746F6F206C SWAP1 PUSH1 0x22 DUP10 SWAP4 PUSH1 0x84 SWAP6 DUP9 MLOAD SWAP6 PUSH3 0x461BCD PUSH1 0xE5 SHL DUP8 MSTORE DUP7 ADD MSTORE DUP5 ADD MSTORE DUP3 ADD MSTORE PUSH2 0x6F77 PUSH1 0xF0 SHL PUSH1 0x64 DUP3 ADD MSTORE REVERT JUMPDEST PUSH32 0x536176696E6773476F616C3A20476F616C20616C726561647920657869737473 SWAP1 DUP4 DUP10 SWAP4 PUSH1 0x64 SWAP6 DUP9 MLOAD SWAP6 PUSH3 0x461BCD PUSH1 0xE5 SHL DUP8 MSTORE DUP7 ADD MSTORE DUP5 ADD MSTORE DUP3 ADD MSTORE REVERT JUMPDEST POP POP CALLVALUE PUSH2 0x28C JUMPI DUP2 PUSH1 0x3 NOT CALLDATASIZE ADD SLT PUSH2 0x28C JUMPI PUSH1 0x7 SLOAD SWAP1 MLOAD PUSH1 0x1 PUSH1 0x1 PUSH1 0xA0 SHL SUB SWAP1 SWAP2 AND DUP2 MSTORE PUSH1 0x20 SWAP1 RETURN JUMPDEST POP SWAP1 CALLVALUE PUSH2 0x1A6 JUMPI PUSH1 0x20 SWAP1 DUP2 PUSH1 0x3 NOT CALLDATASIZE ADD SLT PUSH2 0xCC3 JUMPI PUSH2 0x1057 PUSH2 0x14DB JUMP JUMPDEST SWAP3 CALLER DUP6 MSTORE PUSH1 0x3 DUP4 MSTORE PUSH2 0x106E PUSH1 0xFF DUP4 DUP8 KECCAK256 SLOAD AND PUSH2 0x153E JUMP JUMPDEST CALLER DUP6 MSTORE PUSH1 0x2 DUP4 MSTORE PUSH2 0x108A PUSH1 0xFF PUSH1 0x6 DUP5 DUP9 KECCAK256 ADD SLOAD PUSH1 0x8 SHR AND PUSH2 0x158A JUMP JUMPDEST PUSH2 0x1092 PUSH2 0x1643 JUMP JUMPDEST CALLER DUP6 MSTORE PUSH1 0x2 DUP4 MSTORE DUP2 DUP6 KECCAK256 SWAP1 PUSH1 0x5 DUP3 ADD SLOAD TIMESTAMP LT ISZERO PUSH2 0x1302 JUMPI PUSH1 0x2 DUP3 ADD SWAP1 DUP2 SLOAD PUSH2 0x1F4 DUP1 DUP3 MUL SWAP1 DUP3 DUP3 DIV EQ DUP3 ISZERO OR ISZERO PUSH2 0x12EF JUMPI PUSH2 0x2710 PUSH2 0x10D2 SWAP2 DIV DUP1 SWAP3 PUSH2 0x1666 JUMP JUMPDEST SWAP7 ISZERO PUSH2 0x12DF JUMPI PUSH1 0x5 SLOAD PUSH1 0x1 PUSH1 0x1 PUSH1 0xA0 SHL SUB AND JUMPDEST DUP6 MLOAD PUSH4 0xA9059CBB PUSH1 0xE0 SHL DUP1 DUP3 MSTORE CALLER DUP6 DUP4 ADD SWAP1 DUP2 MSTORE PUSH1 0x20 DUP2 ADD DUP12 SWAP1 MSTORE PUSH1 0x1 PUSH1 0x1 PUSH1 0xA0 SHL SUB SWAP4 DUP5 AND SWAP4 SWAP2 SWAP3 SWAP1 DUP11 SWAP1 DUP3 SWAP1 DUP2 SWAP1 SUB PUSH1 0x40 ADD DUP2 DUP16 DUP9 GAS CALL SWAP1 DUP2 ISZERO PUSH2 0x12D5 JUMPI DUP13 SWAP2 PUSH2 0x12B8 JUMPI JUMPDEST POP ISZERO PUSH2 0x1264 JUMPI DUP11 SWAP1 DUP5 PUSH2 0x119D JUMPI JUMPDEST POP DUP10 PUSH32 0x5FAFA99D0643513820BE26656B45130B01E1C03062E1266BF36F88CBD3BD9695 DUP11 DUP11 PUSH1 0x6 DUP12 PUSH2 0x116F DUP13 SLOAD PUSH1 0x9 SLOAD PUSH2 0x1666 JUMP JUMPDEST PUSH1 0x9 SSTORE ADD DUP1 SLOAD PUSH2 0xFF00 NOT AND SWAP1 SSTORE CALLER DUP1 DUP7 MSTORE PUSH1 0x3 DUP4 MSTORE DUP2 DUP7 KECCAK256 DUP1 SLOAD PUSH1 0xFF NOT AND SWAP1 SSTORE SWAP1 MLOAD SWAP4 DUP5 MSTORE SWAP3 LOG2 PUSH1 0x1 DUP2 SSTORE DUP1 RETURN JUMPDEST PUSH1 0x7 SLOAD DUP10 MLOAD SWAP4 DUP5 MSTORE PUSH1 0x1 PUSH1 0x1 PUSH1 0xA0 SHL SUB SWAP2 AND AND DUP6 DUP4 ADD SWAP1 DUP2 MSTORE PUSH1 0x20 DUP2 ADD SWAP5 SWAP1 SWAP5 MSTORE SWAP1 SWAP3 DUP9 SWAP3 DUP5 SWAP3 SWAP2 DUP4 SWAP1 SUB PUSH1 0x40 ADD SWAP2 DUP4 SWAP2 GAS CALL SWAP1 DUP2 ISZERO PUSH2 0x125A JUMPI DUP9 SWAP2 PUSH2 0x123D JUMPI JUMPDEST POP ISZERO PUSH2 0x11EE JUMPI DUP1 DUP1 DUP1 DUP10 DUP2 PUSH2 0x113A JUMP JUMPDEST DUP4 MLOAD PUSH3 0x461BCD PUSH1 0xE5 SHL DUP2 MSTORE SWAP1 DUP2 ADD DUP6 SWAP1 MSTORE PUSH1 0x24 DUP1 DUP3 ADD MSTORE PUSH32 0x536176696E6773476F616C3A2050656E616C7479207472616E73666572206661 PUSH1 0x44 DUP3 ADD MSTORE PUSH4 0x1A5B1959 PUSH1 0xE2 SHL PUSH1 0x64 DUP3 ADD MSTORE PUSH1 0x84 SWAP1 REVERT JUMPDEST PUSH2 0x1254 SWAP2 POP DUP7 RETURNDATASIZE DUP9 GT PUSH2 0x5D8 JUMPI PUSH2 0x5CA DUP2 DUP4 PUSH2 0x1609 JUMP JUMPDEST CODESIZE PUSH2 0x11DE JUMP JUMPDEST DUP6 MLOAD RETURNDATASIZE DUP11 DUP3 RETURNDATACOPY RETURNDATASIZE SWAP1 REVERT JUMPDEST DUP8 MLOAD PUSH3 0x461BCD PUSH1 0xE5 SHL DUP2 MSTORE DUP1 DUP7 ADD DUP11 SWAP1 MSTORE PUSH1 0x28 PUSH1 0x24 DUP3 ADD MSTORE PUSH32 0x536176696E6773476F616C3A20456D657267656E637920776974686472617761 PUSH1 0x44 DUP3 ADD MSTORE PUSH8 0x1B0819985A5B1959 PUSH1 0xC2 SHL PUSH1 0x64 DUP3 ADD MSTORE PUSH1 0x84 SWAP1 REVERT JUMPDEST PUSH2 0x12CF SWAP2 POP DUP11 RETURNDATASIZE DUP13 GT PUSH2 0x5D8 JUMPI PUSH2 0x5CA DUP2 DUP4 PUSH2 0x1609 JUMP JUMPDEST CODESIZE PUSH2 0x112C JUMP JUMPDEST DUP10 MLOAD RETURNDATASIZE DUP15 DUP3 RETURNDATACOPY RETURNDATASIZE SWAP1 REVERT JUMPDEST DUP2 SLOAD PUSH1 0x1 PUSH1 0x1 PUSH1 0xA0 SHL SUB AND PUSH2 0x10E5 JUMP JUMPDEST PUSH4 0x4E487B71 PUSH1 0xE0 SHL DUP10 MSTORE PUSH1 0x11 DUP4 MSTORE PUSH1 0x24 DUP10 REVERT JUMPDEST DUP3 MLOAD PUSH3 0x461BCD PUSH1 0xE5 SHL DUP2 MSTORE SWAP1 DUP2 ADD DUP5 SWAP1 MSTORE PUSH1 0x2E PUSH1 0x24 DUP3 ADD MSTORE PUSH32 0x536176696E6773476F616C3A204C6F636B20706572696F6420656E6465642C20 PUSH1 0x44 DUP3 ADD MSTORE PUSH14 0x7573652077697468647261772829 PUSH1 0x90 SHL PUSH1 0x64 DUP3 ADD MSTORE PUSH1 0x84 SWAP1 REVERT JUMPDEST POP POP CALLVALUE PUSH2 0x28C JUMPI DUP2 PUSH1 0x3 NOT CALLDATASIZE ADD SLT PUSH2 0x28C JUMPI PUSH1 0x20 SWAP1 MLOAD PUSH4 0x1E13380 DUP2 MSTORE RETURN JUMPDEST POP POP CALLVALUE PUSH2 0x28C JUMPI DUP2 PUSH1 0x3 NOT CALLDATASIZE ADD SLT PUSH2 0x28C JUMPI PUSH1 0x20 SWAP1 PUSH1 0x8 SLOAD SWAP1 MLOAD SWAP1 DUP2 MSTORE RETURN JUMPDEST POP DUP3 SWAP1 CALLVALUE PUSH2 0x28C JUMPI PUSH1 0x20 CALLDATASIZE PUSH1 0x3 NOT ADD SLT PUSH2 0x28C JUMPI CALLDATALOAD PUSH1 0x1 PUSH1 0x1 PUSH1 0xA0 SHL SUB DUP2 AND SWAP3 SWAP1 DUP4 SWAP1 SUB PUSH2 0x28C JUMPI PUSH1 0x20 SWAP3 DUP3 MSTORE PUSH1 0x3 DUP4 MSTORE PUSH1 0xFF DUP2 DUP4 KECCAK256 SLOAD AND SWAP2 DUP3 PUSH2 0x13E2 JUMPI JUMPDEST POP MLOAD SWAP1 ISZERO ISZERO DUP2 MSTORE RETURN JUMPDEST PUSH1 0x2 DUP5 MSTORE DUP2 SWAP1 KECCAK256 PUSH1 0x6 ADD SLOAD PUSH1 0x8 SHR PUSH1 0xFF AND SWAP2 POP DUP4 PUSH2 0x13D9 JUMP JUMPDEST POP CALLVALUE PUSH2 0x1A6 JUMPI PUSH1 0x20 CALLDATASIZE PUSH1 0x3 NOT ADD SLT PUSH2 0x1A6 JUMPI PUSH1 0x1 PUSH1 0x1 PUSH1 0xA0 SHL SUB DUP2 CALLDATALOAD DUP2 DUP2 AND SWAP1 DUP2 SWAP1 SUB PUSH2 0x238 JUMPI DUP4 DUP6 PUSH1 0xFF SWAP3 PUSH2 0x140 SWAP8 MSTORE PUSH1 0x2 PUSH1 0x20 MSTORE KECCAK256 SWAP2 DUP3 SLOAD AND SWAP4 PUSH1 0x1 DUP4 ADD SLOAD SWAP4 PUSH1 0x2 DUP5 ADD SLOAD SWAP1 PUSH1 0x3 DUP6 ADD SLOAD SWAP1 DUP6 ADD SLOAD SWAP1 PUSH1 0x5 DUP7 ADD SLOAD SWAP3 PUSH1 0x6 DUP8 ADD SLOAD SWAP5 PUSH1 0x8 PUSH1 0x7 DUP10 ADD SLOAD SWAP9 ADD SLOAD SWAP9 DUP2 MLOAD SWAP11 DUP12 MSTORE PUSH1 0x20 DUP12 ADD MSTORE DUP10 ADD MSTORE PUSH1 0x60 DUP9 ADD MSTORE PUSH1 0x80 DUP8 ADD MSTORE PUSH1 0xA0 DUP7 ADD MSTORE DUP2 DUP2 AND ISZERO ISZERO PUSH1 0xC0 DUP7 ADD MSTORE PUSH1 0x8 SHR AND ISZERO ISZERO PUSH1 0xE0 DUP5 ADD MSTORE PUSH2 0x100 DUP4 ADD MSTORE PUSH2 0x120 DUP3 ADD MSTORE RETURN JUMPDEST POP POP CALLVALUE PUSH2 0x28C JUMPI DUP2 PUSH1 0x3 NOT CALLDATASIZE ADD SLT PUSH2 0x28C JUMPI PUSH1 0x20 SWAP1 MLOAD PUSH1 0xC8 DUP2 MSTORE RETURN JUMPDEST DUP5 SWAP1 CALLVALUE PUSH2 0x28C JUMPI DUP2 PUSH1 0x3 NOT CALLDATASIZE ADD SLT PUSH2 0x28C JUMPI PUSH1 0x20 SWAP1 PUSH1 0x6 SLOAD DUP2 MSTORE RETURN JUMPDEST PUSH1 0x4 CALLDATALOAD SWAP1 DUP2 ISZERO ISZERO DUP3 SUB PUSH2 0x14EA JUMPI JUMP JUMPDEST PUSH1 0x0 DUP1 REVERT JUMPDEST PUSH1 0x1 SLOAD PUSH1 0x1 PUSH1 0x1 PUSH1 0xA0 SHL SUB AND CALLER SUB PUSH2 0x1503 JUMPI JUMP JUMPDEST PUSH1 0x40 MLOAD PUSH4 0x118CDAA7 PUSH1 0xE0 SHL DUP2 MSTORE CALLER PUSH1 0x4 DUP3 ADD MSTORE PUSH1 0x24 SWAP1 REVERT JUMPDEST SWAP2 SWAP1 DUP3 ADD DUP1 SWAP3 GT PUSH2 0x1528 JUMPI JUMP JUMPDEST PUSH4 0x4E487B71 PUSH1 0xE0 SHL PUSH1 0x0 MSTORE PUSH1 0x11 PUSH1 0x4 MSTORE PUSH1 0x24 PUSH1 0x0 REVERT JUMPDEST ISZERO PUSH2 0x1545 JUMPI JUMP JUMPDEST PUSH1 0x40 MLOAD PUSH3 0x461BCD PUSH1 0xE5 SHL DUP2 MSTORE PUSH1 0x20 PUSH1 0x4 DUP3 ADD MSTORE PUSH1 0x1B PUSH1 0x24 DUP3 ADD MSTORE PUSH32 0x536176696E6773476F616C3A204E6F2061637469766520676F616C0000000000 PUSH1 0x44 DUP3 ADD MSTORE PUSH1 0x64 SWAP1 REVERT JUMPDEST ISZERO PUSH2 0x1591 JUMPI JUMP JUMPDEST PUSH1 0x40 MLOAD PUSH3 0x461BCD PUSH1 0xE5 SHL DUP2 MSTORE PUSH1 0x20 PUSH1 0x4 DUP3 ADD MSTORE PUSH1 0x1C PUSH1 0x24 DUP3 ADD MSTORE PUSH32 0x536176696E6773476F616C3A20476F616C206E6F742061637469766500000000 PUSH1 0x44 DUP3 ADD MSTORE PUSH1 0x64 SWAP1 REVERT JUMPDEST PUSH2 0x140 DUP2 ADD SWAP1 DUP2 LT PUSH8 0xFFFFFFFFFFFFFFFF DUP3 GT OR PUSH2 0x15F3 JUMPI PUSH1 0x40 MSTORE JUMP JUMPDEST PUSH4 0x4E487B71 PUSH1 0xE0 SHL PUSH1 0x0 MSTORE PUSH1 0x41 PUSH1 0x4 MSTORE PUSH1 0x24 PUSH1 0x0 REVERT JUMPDEST SWAP1 PUSH1 0x1F DUP1 NOT SWAP2 ADD AND DUP2 ADD SWAP1 DUP2 LT PUSH8 0xFFFFFFFFFFFFFFFF DUP3 GT OR PUSH2 0x15F3 JUMPI PUSH1 0x40 MSTORE JUMP JUMPDEST SWAP1 DUP2 PUSH1 0x20 SWAP2 SUB SLT PUSH2 0x14EA JUMPI MLOAD DUP1 ISZERO ISZERO DUP2 SUB PUSH2 0x14EA JUMPI SWAP1 JUMP JUMPDEST PUSH1 0x2 PUSH1 0x0 SLOAD EQ PUSH2 0x1654 JUMPI PUSH1 0x2 PUSH1 0x0 SSTORE JUMP JUMPDEST PUSH1 0x40 MLOAD PUSH4 0x3EE5AEB5 PUSH1 0xE0 SHL DUP2 MSTORE PUSH1 0x4 SWAP1 REVERT JUMPDEST SWAP2 SWAP1 DUP3 SUB SWAP2 DUP3 GT PUSH2 0x1528 JUMPI JUMP JUMPDEST DUP2 DUP2 MUL SWAP3 SWAP2 DUP2 ISZERO SWAP2 DUP5 DIV EQ OR ISZERO PUSH2 0x1528 JUMPI JUMP INVALID LOG2 PUSH5 0x6970667358 0x22 SLT KECCAK256 AND STATICCALL XOR BLOCKHASH SWAP9 0xCD 0xC4 ISZERO PUSH21 0x679A943285186EB3BFE9BE4CF1D58BE30CA592B9C2 ADDRESS 0xD PUSH5 0x736F6C6343 STOP ADDMOD EQ STOP CALLER "},"methodIdentifiers":{"MAX_YIELD_STRATEGIES()":"5a4fafd8","REGISTRATION_FEE()":"64b4f751","addYieldStrategy(address,string,uint256)":"e3985cfa","awardBadge(address,uint8,uint256,string)":"cba161ab","badgeNFTContract()":"5468dfce","celoToken()":"e22d551a","contributeToGroupPool(uint256,uint256,bool)":"96630d63","createGroupPool(string,string,uint256,uint256,uint256,bool)":"94eb43ed","createSavingsGoal(uint256,uint256,bool)":"a4a23aa9","cusdToken()":"cae07843","depositToGoal(uint256,bool)":"f03156d8","emergencyWithdraw()":"db2e21bc","getActiveYieldStrategies()":"b2a20d25","getStats()":"c59d4847","getUserBadges(address)":"37c245fe","getUserProfile(address)":"987ee156","getYieldStrategies()":"dde41c70","groupPoolContract()":"57b7f763","joinGroupPool(uint256,uint256,bool,address)":"4fe770e7","owner()":"8da5cb5b","registerUser(string)":"704f1b94","registeredUsers(address)":"0e50cee5","renounceOwnership()":"715018a6","savingsGoalContract()":"cba0c9d5","strategyIndex(address)":"11451526","toggleStrategy(address)":"e9a3f63f","totalUsers()":"bff1f9e1","totalVolumeLocked()":"7fea355b","totalYieldDistributed()":"97206bd5","transferOwnership(address)":"f2fde38b","treasury()":"61d027b3","updateTreasury(address)":"7f51bb1f","updateYieldStrategyAPY(address,uint256)":"d73ff0aa","userProfiles(address)":"332d56d7","withdrawFromGoal(bool)":"5a73211f","withdrawFromGroupPool(uint256,bool)":"42f712ed","yieldStrategies(uint256)":"0ccb091d"}}}}}