{
  "_format": "hh-sol-artifact-1",
  "contractName": "StakingPool",
  "sourceName": "contracts/StakingPool.sol",
  "abi": [
    {
      "inputs": [
        {
          "internalType": "address",
          "name": "_celoToken",
          "type": "address"
        },
        {
          "internalType": "address",
          "name": "_cusdToken",
          "type": "address"
        },
        {
          "internalType": "address",
          "name": "_treasury",
          "type": "address"
        }
      ],
      "stateMutability": "nonpayable",
      "type": "constructor"
    },
    {
      "inputs": [
        {
          "internalType": "address",
          "name": "owner",
          "type": "address"
        }
      ],
      "name": "OwnableInvalidOwner",
      "type": "error"
    },
    {
      "inputs": [
        {
          "internalType": "address",
          "name": "account",
          "type": "address"
        }
      ],
      "name": "OwnableUnauthorizedAccount",
      "type": "error"
    },
    {
      "inputs": [],
      "name": "ReentrancyGuardReentrantCall",
      "type": "error"
    },
    {
      "anonymous": false,
      "inputs": [
        {
          "indexed": true,
          "internalType": "address",
          "name": "user",
          "type": "address"
        },
        {
          "indexed": false,
          "internalType": "uint256",
          "name": "amount",
          "type": "uint256"
        }
      ],
      "name": "EmergencyWithdraw",
      "type": "event"
    },
    {
      "anonymous": false,
      "inputs": [
        {
          "indexed": true,
          "internalType": "address",
          "name": "previousOwner",
          "type": "address"
        },
        {
          "indexed": true,
          "internalType": "address",
          "name": "newOwner",
          "type": "address"
        }
      ],
      "name": "OwnershipTransferred",
      "type": "event"
    },
    {
      "anonymous": false,
      "inputs": [
        {
          "indexed": true,
          "internalType": "address",
          "name": "user",
          "type": "address"
        },
        {
          "indexed": false,
          "internalType": "uint256",
          "name": "reward",
          "type": "uint256"
        },
        {
          "indexed": false,
          "internalType": "uint256",
          "name": "timestamp",
          "type": "uint256"
        }
      ],
      "name": "RewardsClaimed",
      "type": "event"
    },
    {
      "anonymous": false,
      "inputs": [
        {
          "indexed": true,
          "internalType": "address",
          "name": "user",
          "type": "address"
        },
        {
          "indexed": false,
          "internalType": "uint256",
          "name": "amount",
          "type": "uint256"
        },
        {
          "indexed": false,
          "internalType": "uint256",
          "name": "timestamp",
          "type": "uint256"
        }
      ],
      "name": "Staked",
      "type": "event"
    },
    {
      "anonymous": false,
      "inputs": [
        {
          "indexed": true,
          "internalType": "address",
          "name": "user",
          "type": "address"
        },
        {
          "indexed": false,
          "internalType": "uint256",
          "name": "amount",
          "type": "uint256"
        },
        {
          "indexed": false,
          "internalType": "uint256",
          "name": "reward",
          "type": "uint256"
        },
        {
          "indexed": false,
          "internalType": "uint256",
          "name": "timestamp",
          "type": "uint256"
        }
      ],
      "name": "Unstaked",
      "type": "event"
    },
    {
      "inputs": [],
      "name": "MAX_STAKE",
      "outputs": [
        {
          "internalType": "uint256",
          "name": "",
          "type": "uint256"
        }
      ],
      "stateMutability": "view",
      "type": "function"
    },
    {
      "inputs": [],
      "name": "MIN_LOCK_PERIOD",
      "outputs": [
        {
          "internalType": "uint256",
          "name": "",
          "type": "uint256"
        }
      ],
      "stateMutability": "view",
      "type": "function"
    },
    {
      "inputs": [],
      "name": "MIN_STAKE",
      "outputs": [
        {
          "internalType": "uint256",
          "name": "",
          "type": "uint256"
        }
      ],
      "stateMutability": "view",
      "type": "function"
    },
    {
      "inputs": [],
      "name": "SECONDS_PER_YEAR",
      "outputs": [
        {
          "internalType": "uint256",
          "name": "",
          "type": "uint256"
        }
      ],
      "stateMutability": "view",
      "type": "function"
    },
    {
      "inputs": [
        {
          "internalType": "address",
          "name": "user",
          "type": "address"
        }
      ],
      "name": "canUnstake",
      "outputs": [
        {
          "internalType": "bool",
          "name": "",
          "type": "bool"
        }
      ],
      "stateMutability": "view",
      "type": "function"
    },
    {
      "inputs": [],
      "name": "celoToken",
      "outputs": [
        {
          "internalType": "contract IERC20",
          "name": "",
          "type": "address"
        }
      ],
      "stateMutability": "view",
      "type": "function"
    },
    {
      "inputs": [],
      "name": "claimRewards",
      "outputs": [],
      "stateMutability": "nonpayable",
      "type": "function"
    },
    {
      "inputs": [],
      "name": "cusdToken",
      "outputs": [
        {
          "internalType": "contract IERC20",
          "name": "",
          "type": "address"
        }
      ],
      "stateMutability": "view",
      "type": "function"
    },
    {
      "inputs": [
        {
          "internalType": "uint256",
          "name": "amount",
          "type": "uint256"
        }
      ],
      "name": "depositRewards",
      "outputs": [],
      "stateMutability": "nonpayable",
      "type": "function"
    },
    {
      "inputs": [],
      "name": "emergencyWithdraw",
      "outputs": [],
      "stateMutability": "nonpayable",
      "type": "function"
    },
    {
      "inputs": [
        {
          "internalType": "address",
          "name": "user",
          "type": "address"
        }
      ],
      "name": "getPendingRewards",
      "outputs": [
        {
          "internalType": "uint256",
          "name": "",
          "type": "uint256"
        }
      ],
      "stateMutability": "view",
      "type": "function"
    },
    {
      "inputs": [],
      "name": "getPoolStats",
      "outputs": [
        {
          "internalType": "uint256",
          "name": "_totalStaked",
          "type": "uint256"
        },
        {
          "internalType": "uint256",
          "name": "_totalStakers",
          "type": "uint256"
        },
        {
          "internalType": "uint256",
          "name": "_rewardRate",
          "type": "uint256"
        },
        {
          "internalType": "uint256",
          "name": "_totalRewardsPaid",
          "type": "uint256"
        }
      ],
      "stateMutability": "view",
      "type": "function"
    },
    {
      "inputs": [
        {
          "internalType": "address",
          "name": "user",
          "type": "address"
        }
      ],
      "name": "getStakeInfo",
      "outputs": [
        {
          "internalType": "uint256",
          "name": "amount",
          "type": "uint256"
        },
        {
          "internalType": "uint256",
          "name": "startTime",
          "type": "uint256"
        },
        {
          "internalType": "uint256",
          "name": "lastRewardClaim",
          "type": "uint256"
        },
        {
          "internalType": "uint256",
          "name": "totalRewardsClaimed",
          "type": "uint256"
        },
        {
          "internalType": "bool",
          "name": "isActive",
          "type": "bool"
        }
      ],
      "stateMutability": "view",
      "type": "function"
    },
    {
      "inputs": [
        {
          "internalType": "address",
          "name": "user",
          "type": "address"
        }
      ],
      "name": "getTimeUntilUnstake",
      "outputs": [
        {
          "internalType": "uint256",
          "name": "",
          "type": "uint256"
        }
      ],
      "stateMutability": "view",
      "type": "function"
    },
    {
      "inputs": [
        {
          "internalType": "address",
          "name": "",
          "type": "address"
        }
      ],
      "name": "hasStaked",
      "outputs": [
        {
          "internalType": "bool",
          "name": "",
          "type": "bool"
        }
      ],
      "stateMutability": "view",
      "type": "function"
    },
    {
      "inputs": [],
      "name": "owner",
      "outputs": [
        {
          "internalType": "address",
          "name": "",
          "type": "address"
        }
      ],
      "stateMutability": "view",
      "type": "function"
    },
    {
      "inputs": [],
      "name": "renounceOwnership",
      "outputs": [],
      "stateMutability": "nonpayable",
      "type": "function"
    },
    {
      "inputs": [],
      "name": "rewardRate",
      "outputs": [
        {
          "internalType": "uint256",
          "name": "",
          "type": "uint256"
        }
      ],
      "stateMutability": "view",
      "type": "function"
    },
    {
      "inputs": [
        {
          "internalType": "uint256",
          "name": "amount",
          "type": "uint256"
        },
        {
          "internalType": "bool",
          "name": "useCUSD",
          "type": "bool"
        }
      ],
      "name": "stake",
      "outputs": [],
      "stateMutability": "nonpayable",
      "type": "function"
    },
    {
      "inputs": [
        {
          "internalType": "address",
          "name": "",
          "type": "address"
        }
      ],
      "name": "stakes",
      "outputs": [
        {
          "internalType": "uint256",
          "name": "amount",
          "type": "uint256"
        },
        {
          "internalType": "uint256",
          "name": "startTime",
          "type": "uint256"
        },
        {
          "internalType": "uint256",
          "name": "lastRewardClaim",
          "type": "uint256"
        },
        {
          "internalType": "uint256",
          "name": "totalRewardsClaimed",
          "type": "uint256"
        },
        {
          "internalType": "bool",
          "name": "isActive",
          "type": "bool"
        }
      ],
      "stateMutability": "view",
      "type": "function"
    },
    {
      "inputs": [],
      "name": "totalRewardsPaid",
      "outputs": [
        {
          "internalType": "uint256",
          "name": "",
          "type": "uint256"
        }
      ],
      "stateMutability": "view",
      "type": "function"
    },
    {
      "inputs": [],
      "name": "totalStaked",
      "outputs": [
        {
          "internalType": "uint256",
          "name": "",
          "type": "uint256"
        }
      ],
      "stateMutability": "view",
      "type": "function"
    },
    {
      "inputs": [],
      "name": "totalStakers",
      "outputs": [
        {
          "internalType": "uint256",
          "name": "",
          "type": "uint256"
        }
      ],
      "stateMutability": "view",
      "type": "function"
    },
    {
      "inputs": [
        {
          "internalType": "address",
          "name": "newOwner",
          "type": "address"
        }
      ],
      "name": "transferOwnership",
      "outputs": [],
      "stateMutability": "nonpayable",
      "type": "function"
    },
    {
      "inputs": [],
      "name": "treasury",
      "outputs": [
        {
          "internalType": "address",
          "name": "",
          "type": "address"
        }
      ],
      "stateMutability": "view",
      "type": "function"
    },
    {
      "inputs": [
        {
          "internalType": "bool",
          "name": "useCUSD",
          "type": "bool"
        }
      ],
      "name": "unstake",
      "outputs": [],
      "stateMutability": "nonpayable",
      "type": "function"
    },
    {
      "inputs": [
        {
          "internalType": "uint256",
          "name": "newRate",
          "type": "uint256"
        }
      ],
      "name": "updateRewardRate",
      "outputs": [],
      "stateMutability": "nonpayable",
      "type": "function"
    },
    {
      "inputs": [
        {
          "internalType": "address",
          "name": "newTreasury",
          "type": "address"
        }
      ],
      "name": "updateTreasury",
      "outputs": [],
      "stateMutability": "nonpayable",
      "type": "function"
    }
  ],
  "bytecode": "0x60803461020b57601f6200136d38819003918201601f191683019291906001600160401b0384118385101761021057816060928492604096875283398101031261020b5761004c81610226565b906100648361005d60208401610226565b9201610226565b600160005533156101f35760018054336001600160a01b0319808316821790935586519592946001600160a01b0393909284929083167f8be0079c531659141344cd1fd0a4f28419497f9722a3daafe3b4186f6b6457e0600080a3610352600855169485156101a75750811691821561015957169283156101075782600454161760045581600554161760055560095416176009555161113290816200023b8239f35b845162461bcd60e51b815260206004820152602560248201527f5374616b696e67506f6f6c3a20496e76616c6964207472656173757279206164604482015264647265737360d81b6064820152608490fd5b855162461bcd60e51b815260206004820152602160248201527f5374616b696e67506f6f6c3a20496e76616c69642063555344206164647265736044820152607360f81b6064820152608490fd5b62461bcd60e51b815260206004820152602160248201527f5374616b696e67506f6f6c3a20496e76616c69642043454c4f206164647265736044820152607360f81b6064820152608490fd5b8351631e4fbdf760e01b815260006004820152602490fd5b600080fd5b634e487b7160e01b600052604160045260246000fd5b51906001600160a01b038216820361020b5756fe6040608081526004908136101561001557600080fd5b600091823560e01c8063088abb8d14610b9f57806316934fc414610472578063372500ab14610b5d578063385dc3df14610b3f57806361d027b314610b16578063715018a614610ab957806374958e3514610a9a5780637b0a47ee14610a7b5780637f51bb1f146109e6578063817b1cd2146109c757806385f4498b1461094357806386989038146109245780638bdf67f21461082d5780638da5cb5b146108045780639ef3a26114610793578063abe50f191461051c578063bbb85188146104e3578063c345315314610472578063c93c8f3414610434578063c98517c51461040f578063cae07843146103e6578063cb1c2b5c146103c3578063db2e21bc146102a3578063e22d551a1461027c578063e43074441461024c578063e6a69ab814610229578063f2fde38b146101925763f6ed20171461015557600080fd5b3461018e57602036600319011261018e5735916001600160a01b038316830361018b575061018460209261102f565b9051908152f35b80fd5b8280fd5b50903461018e57602036600319011261018e576001600160a01b03823581811693919290849003610225576101c5610d76565b831561020f575050600154826bffffffffffffffffffffffff60a01b821617600155167f8be0079c531659141344cd1fd0a4f28419497f9722a3daafe3b4186f6b6457e08380a380f35b51631e4fbdf760e01b8152908101849052602490fd5b8480fd5b505034610248578160031936011261024857602090516301e133808152f35b5080fd5b503461018e57602036600319011261018e5735916001600160a01b038316830361018b5750610184602092611098565b503461018e578260031936011261018e575490516001600160a01b03909116815260209150f35b503461018e578260031936011261018e576102bc610e66565b3383526020600281526102d660ff83858720015416610e89565b3384526002815261033e818486208481549582898894550160ff19815416905561030282600654610ed5565b6006558054875163a9059cbb60e01b8152339281019283526020830193909352919384926001600160a01b03169183918a918391604090910190565b03925af19081156103b9577f5fafa99d0643513820be26656b45130b01e1c03062e1266bf36f88cbd3bd969593949161037e91879161038c575b50610df7565b519283523392a26001815580f35b6103ac9150843d86116103b2575b6103a48183610da2565b810190610dda565b38610378565b503d61039a565b84513d87823e3d90fd5b5050346102485781600319360112610248576020905167016345785d8a00008152f35b50503461024857816003193601126102485760055490516001600160a01b039091168152602090f35b5050346102485781600319360112610248576020905169021e19e0c9bab24000008152f35b503461018e57602036600319011261018e57356001600160a01b0381169081900361018e57818360ff92602095526003855220541690519015158152f35b50913461018b57602036600319011261018b5782356001600160a01b0381169081900361024857815260026020818152918390208054600182015492820154600383015496909201549451908152928301919091526040820152606081019290925260ff161515608082015260a090f35b505034610248578160031936011261024857608090600654906007549060085490600a5492815194855260208501528301526060820152f35b50919034610248578060031936011261024857823590602435801515810361078f57610546610e66565b67016345785d8a000083106107425769021e19e0c9bab240000083116106f557156106e5576005546001600160a01b03165b3384526020906002825260ff868487200154166106d8575b82516323b872dd60e01b815233878201908152306020820152604081018690529091839183919082908990829060600103926001600160a01b03165af19081156106ce57906105e59186916106b75750610df7565b3384526003815260ff828520541615610676575b7f1449c6dd7851abc30abf37f57715f492010519147cc2652fbc38202c18a6ee909293946002825282862061062f868254610e43565b90553386526002825282862042600182015542600282015501600160ff1982541617905561065f84600654610e43565b600655815193845242908401523392a26001815580f35b60075460001981146106a457600190810160075533855260038252828520805460ff191690911790556105f9565b634e487b7160e01b855260118652602485fd5b6103ac9150833d85116103b2576103a48183610da2565b83513d87823e3d90fd5b6106e0610ee2565b610590565b83546001600160a01b0316610578565b815162461bcd60e51b8152602081870152602160248201527f5374616b696e67506f6f6c3a20416d6f756e742061626f7665206d6178696d756044820152606d60f81b6064820152608490fd5b815162461bcd60e51b8152602081870152602160248201527f5374616b696e67506f6f6c3a20416d6f756e742062656c6f77206d696e696d756044820152606d60f81b6064820152608490fd5b8380fd5b503461018e57602036600319011261018e578035916107b0610d76565b6107d083116107c157505060085580f35b906020606492519162461bcd60e51b8352820152601a60248201527f5374616b696e67506f6f6c3a205261746520746f6f20686967680000000000006044820152fd5b50503461024857816003193601126102485760015490516001600160a01b039091168152602090f35b503461018e57602036600319011261018e576001546001600160a01b0390811633148015610917575b156108d457815483516323b872dd60e01b81523381850190815230602082810191909152943560408201529093928492169082908790829060600103925af19081156108c8576108ad925083916108b05750610df7565b80f35b6103ac915060203d81116103b2576103a48183610da2565b505051903d90823e3d90fd5b506020606492519162461bcd60e51b8352820152601b60248201527f5374616b696e67506f6f6c3a204e6f7420617574686f72697a656400000000006044820152fd5b5080600954163314610856565b5050346102485781600319360112610248576020906007549051908152f35b509190346102485760203660031901126102485782356001600160a01b0381169081900361018e57825260026020528082209160ff84840154169283610990575b60208484519015158152f35b6001015491925062093a8082019182106109b4575060209250421015903880610984565b634e487b7160e01b815260118452602490fd5b5050346102485781600319360112610248576020906006549051908152f35b503461018e57602036600319011261018e5780356001600160a01b038116929083900361078f57610a15610d76565b8215610a385750506bffffffffffffffffffffffff60a01b600954161760095580f35b906020606492519162461bcd60e51b8352820152601c60248201527f5374616b696e67506f6f6c3a20496e76616c69642061646472657373000000006044820152fd5b5050346102485781600319360112610248576020906008549051908152f35b505034610248578160031936011261024857602090600a549051908152f35b833461018b578060031936011261018b57610ad2610d76565b600180546001600160a01b0319811690915581906001600160a01b03167f8be0079c531659141344cd1fd0a4f28419497f9722a3daafe3b4186f6b6457e08280a380f35b50503461024857816003193601126102485760095490516001600160a01b039091168152602090f35b5050346102485781600319360112610248576020905162093a808152f35b50903461018e578260031936011261018e57610b909160ff91610b7e610e66565b33855260026020528420015416610e89565b610b98610ee2565b6001815580f35b50903461018e5760208060031936011261078f57823590811515820361022557610bc7610e66565b33855260028152610bdf60ff85858820015416610e89565b3385526002815282852093600185015462093a808101809111610d63574210610d175781610c9a91865496610c133361102f565b9515610d03576005546001600160a01b0316906003905b8a815583810160ff19815416905501610c44878254610e43565b9055610c5288600654610ed5565b600655610c6186600a54610e43565b600a55610c6e8689610e43565b875163a9059cbb60e01b815233938101938452602084019190915293849283918b918391604090910190565b03926001600160a01b03165af1908115610cf95790610cbf9187916106b75750610df7565b825193845283015242908201527f204fccf0d92ed8d48f204adb39b2e81e92bad0dedb93f5716ca9478cfb57de0060603392a26001815580f35b84513d88823e3d90fd5b81546001600160a01b031690600390610c2a565b60849184519162461bcd60e51b8352820152602260248201527f5374616b696e67506f6f6c3a204c6f636b20706572696f64206e6f7420656e64604482015261195960f21b6064820152fd5b634e487b7160e01b875260118252602487fd5b6001546001600160a01b03163303610d8a57565b60405163118cdaa760e01b8152336004820152602490fd5b90601f8019910116810190811067ffffffffffffffff821117610dc457604052565b634e487b7160e01b600052604160045260246000fd5b90816020910312610df257518015158103610df25790565b600080fd5b15610dfe57565b60405162461bcd60e51b815260206004820152601c60248201527f5374616b696e67506f6f6c3a205472616e73666572206661696c6564000000006044820152606490fd5b91908201809211610e5057565b634e487b7160e01b600052601160045260246000fd5b600260005414610e77576002600055565b604051633ee5aeb560e01b8152600490fd5b15610e9057565b60405162461bcd60e51b815260206004820152601c60248201527f5374616b696e67506f6f6c3a204e6f20616374697665207374616b65000000006044820152606490fd5b91908203918211610e5057565b610eeb3361102f565b80610ef35750565b3360005260206002815260409060038260002042600282015501610f18848254610e43565b9055610f2683600a54610e43565b600a5560048054835163a9059cbb60e01b81523392810192909252602482018590528290829060449082906000906001600160a01b03165af190811561101157600091610ff4575b5015610fa657907fdacbdde355ba930696a362ea6738feb9f8bd52dfb3d81947558fd3217e23e32591815193845242908401523392a2565b608491519062461bcd60e51b82526004820152602360248201527f5374616b696e67506f6f6c3a20526577617264207472616e73666572206661696044820152621b195960ea1b6064820152fd5b61100b9150823d84116103b2576103a48183610da2565b38610f6e565b83513d6000823e3d90fd5b81810292918115918404141715610e5057565b6001600160a01b03166000908152600260205260409020600481015460ff1615801561108f575b6110895761108581611080611075600264496cebb80095015442610ed5565b91546008549061101c565b61101c565b0490565b50600090565b50805415611056565b6001600160a01b03166000908152600260205260408120600481015460ff16156110e4576001015462093a8081018091116110e857804210156110e4576110e191504290610ed5565b90565b5090565b634e487b7160e01b82526011600452602482fdfea2646970667358221220516bb6f314da32a6e223b5cb64df0228ef2e035b34575b158054ef3644a73adc64736f6c63430008140033",
  "linkReferences": {},
  "deployedLinkReferences": {}
}