{
  "_format": "hh-sol-artifact-1",
  "contractName": "SavingsGoal",
  "sourceName": "contracts/SavingsGoal.sol",
  "abi": [
    {
      "inputs": [
        {
          "internalType": "address",
          "name": "_celoToken",
          "type": "address"
        },
        {
          "internalType": "address",
          "name": "_cusdToken",
          "type": "address"
        },
        {
          "internalType": "address",
          "name": "_treasury",
          "type": "address"
        }
      ],
      "stateMutability": "nonpayable",
      "type": "constructor"
    },
    {
      "inputs": [
        {
          "internalType": "address",
          "name": "owner",
          "type": "address"
        }
      ],
      "name": "OwnableInvalidOwner",
      "type": "error"
    },
    {
      "inputs": [
        {
          "internalType": "address",
          "name": "account",
          "type": "address"
        }
      ],
      "name": "OwnableUnauthorizedAccount",
      "type": "error"
    },
    {
      "inputs": [],
      "name": "ReentrancyGuardReentrantCall",
      "type": "error"
    },
    {
      "anonymous": false,
      "inputs": [
        {
          "indexed": true,
          "internalType": "address",
          "name": "depositor",
          "type": "address"
        },
        {
          "indexed": false,
          "internalType": "uint256",
          "name": "amount",
          "type": "uint256"
        },
        {
          "indexed": false,
          "internalType": "uint256",
          "name": "totalDeposited",
          "type": "uint256"
        }
      ],
      "name": "DepositMade",
      "type": "event"
    },
    {
      "anonymous": false,
      "inputs": [
        {
          "indexed": true,
          "internalType": "address",
          "name": "withdrawer",
          "type": "address"
        },
        {
          "indexed": false,
          "internalType": "uint256",
          "name": "amount",
          "type": "uint256"
        }
      ],
      "name": "EmergencyWithdraw",
      "type": "event"
    },
    {
      "anonymous": false,
      "inputs": [
        {
          "indexed": true,
          "internalType": "address",
          "name": "withdrawer",
          "type": "address"
        },
        {
          "indexed": false,
          "internalType": "uint256",
          "name": "amount",
          "type": "uint256"
        }
      ],
      "name": "FundsWithdrawn",
      "type": "event"
    },
    {
      "anonymous": false,
      "inputs": [
        {
          "indexed": true,
          "internalType": "address",
          "name": "creator",
          "type": "address"
        },
        {
          "indexed": false,
          "internalType": "uint256",
          "name": "totalAmount",
          "type": "uint256"
        },
        {
          "indexed": false,
          "internalType": "uint256",
          "name": "yieldEarned",
          "type": "uint256"
        }
      ],
      "name": "GoalCompleted",
      "type": "event"
    },
    {
      "anonymous": false,
      "inputs": [
        {
          "indexed": true,
          "internalType": "address",
          "name": "creator",
          "type": "address"
        },
        {
          "indexed": false,
          "internalType": "uint256",
          "name": "targetAmount",
          "type": "uint256"
        },
        {
          "indexed": false,
          "internalType": "uint256",
          "name": "lockDuration",
          "type": "uint256"
        }
      ],
      "name": "GoalCreated",
      "type": "event"
    },
    {
      "anonymous": false,
      "inputs": [
        {
          "indexed": true,
          "internalType": "address",
          "name": "previousOwner",
          "type": "address"
        },
        {
          "indexed": true,
          "internalType": "address",
          "name": "newOwner",
          "type": "address"
        }
      ],
      "name": "OwnershipTransferred",
      "type": "event"
    },
    {
      "inputs": [],
      "name": "DEFAULT_APY",
      "outputs": [
        {
          "internalType": "uint256",
          "name": "",
          "type": "uint256"
        }
      ],
      "stateMutability": "view",
      "type": "function"
    },
    {
      "inputs": [],
      "name": "MAX_LOCK_DURATION",
      "outputs": [
        {
          "internalType": "uint256",
          "name": "",
          "type": "uint256"
        }
      ],
      "stateMutability": "view",
      "type": "function"
    },
    {
      "inputs": [],
      "name": "MAX_TARGET_AMOUNT",
      "outputs": [
        {
          "internalType": "uint256",
          "name": "",
          "type": "uint256"
        }
      ],
      "stateMutability": "view",
      "type": "function"
    },
    {
      "inputs": [],
      "name": "MIN_LOCK_DURATION",
      "outputs": [
        {
          "internalType": "uint256",
          "name": "",
          "type": "uint256"
        }
      ],
      "stateMutability": "view",
      "type": "function"
    },
    {
      "inputs": [],
      "name": "MIN_TARGET_AMOUNT",
      "outputs": [
        {
          "internalType": "uint256",
          "name": "",
          "type": "uint256"
        }
      ],
      "stateMutability": "view",
      "type": "function"
    },
    {
      "inputs": [],
      "name": "YIELD_FEE_PERCENTAGE",
      "outputs": [
        {
          "internalType": "uint256",
          "name": "",
          "type": "uint256"
        }
      ],
      "stateMutability": "view",
      "type": "function"
    },
    {
      "inputs": [],
      "name": "celoToken",
      "outputs": [
        {
          "internalType": "contract IERC20",
          "name": "",
          "type": "address"
        }
      ],
      "stateMutability": "view",
      "type": "function"
    },
    {
      "inputs": [
        {
          "internalType": "uint256",
          "name": "targetAmount",
          "type": "uint256"
        },
        {
          "internalType": "uint256",
          "name": "lockDuration",
          "type": "uint256"
        },
        {
          "internalType": "bool",
          "name": "useCUSD",
          "type": "bool"
        }
      ],
      "name": "createGoal",
      "outputs": [],
      "stateMutability": "nonpayable",
      "type": "function"
    },
    {
      "inputs": [],
      "name": "cusdToken",
      "outputs": [
        {
          "internalType": "contract IERC20",
          "name": "",
          "type": "address"
        }
      ],
      "stateMutability": "view",
      "type": "function"
    },
    {
      "inputs": [
        {
          "internalType": "uint256",
          "name": "amount",
          "type": "uint256"
        },
        {
          "internalType": "bool",
          "name": "useCUSD",
          "type": "bool"
        }
      ],
      "name": "deposit",
      "outputs": [],
      "stateMutability": "nonpayable",
      "type": "function"
    },
    {
      "inputs": [
        {
          "internalType": "bool",
          "name": "useCUSD",
          "type": "bool"
        }
      ],
      "name": "emergencyWithdraw",
      "outputs": [],
      "stateMutability": "nonpayable",
      "type": "function"
    },
    {
      "inputs": [
        {
          "internalType": "address",
          "name": "user",
          "type": "address"
        }
      ],
      "name": "getGoal",
      "outputs": [
        {
          "components": [
            {
              "internalType": "address",
              "name": "creator",
              "type": "address"
            },
            {
              "internalType": "uint256",
              "name": "targetAmount",
              "type": "uint256"
            },
            {
              "internalType": "uint256",
              "name": "currentAmount",
              "type": "uint256"
            },
            {
              "internalType": "uint256",
              "name": "lockDuration",
              "type": "uint256"
            },
            {
              "internalType": "uint256",
              "name": "startTime",
              "type": "uint256"
            },
            {
              "internalType": "uint256",
              "name": "endTime",
              "type": "uint256"
            },
            {
              "internalType": "bool",
              "name": "isCompleted",
              "type": "bool"
            },
            {
              "internalType": "bool",
              "name": "isActive",
              "type": "bool"
            },
            {
              "internalType": "uint256",
              "name": "yieldEarned",
              "type": "uint256"
            },
            {
              "internalType": "uint256",
              "name": "apy",
              "type": "uint256"
            }
          ],
          "internalType": "struct SavingsGoal.Goal",
          "name": "",
          "type": "tuple"
        }
      ],
      "stateMutability": "view",
      "type": "function"
    },
    {
      "inputs": [],
      "name": "getStats",
      "outputs": [
        {
          "internalType": "uint256",
          "name": "totalGoals",
          "type": "uint256"
        },
        {
          "internalType": "uint256",
          "name": "totalVolume",
          "type": "uint256"
        },
        {
          "internalType": "uint256",
          "name": "contractBalance",
          "type": "uint256"
        },
        {
          "internalType": "uint256",
          "name": "cusdBalance",
          "type": "uint256"
        }
      ],
      "stateMutability": "view",
      "type": "function"
    },
    {
      "inputs": [
        {
          "internalType": "address",
          "name": "",
          "type": "address"
        }
      ],
      "name": "goals",
      "outputs": [
        {
          "internalType": "address",
          "name": "creator",
          "type": "address"
        },
        {
          "internalType": "uint256",
          "name": "targetAmount",
          "type": "uint256"
        },
        {
          "internalType": "uint256",
          "name": "currentAmount",
          "type": "uint256"
        },
        {
          "internalType": "uint256",
          "name": "lockDuration",
          "type": "uint256"
        },
        {
          "internalType": "uint256",
          "name": "startTime",
          "type": "uint256"
        },
        {
          "internalType": "uint256",
          "name": "endTime",
          "type": "uint256"
        },
        {
          "internalType": "bool",
          "name": "isCompleted",
          "type": "bool"
        },
        {
          "internalType": "bool",
          "name": "isActive",
          "type": "bool"
        },
        {
          "internalType": "uint256",
          "name": "yieldEarned",
          "type": "uint256"
        },
        {
          "internalType": "uint256",
          "name": "apy",
          "type": "uint256"
        }
      ],
      "stateMutability": "view",
      "type": "function"
    },
    {
      "inputs": [
        {
          "internalType": "address",
          "name": "user",
          "type": "address"
        }
      ],
      "name": "hasActiveGoal",
      "outputs": [
        {
          "internalType": "bool",
          "name": "",
          "type": "bool"
        }
      ],
      "stateMutability": "view",
      "type": "function"
    },
    {
      "inputs": [
        {
          "internalType": "address",
          "name": "",
          "type": "address"
        }
      ],
      "name": "hasGoal",
      "outputs": [
        {
          "internalType": "bool",
          "name": "",
          "type": "bool"
        }
      ],
      "stateMutability": "view",
      "type": "function"
    },
    {
      "inputs": [],
      "name": "owner",
      "outputs": [
        {
          "internalType": "address",
          "name": "",
          "type": "address"
        }
      ],
      "stateMutability": "view",
      "type": "function"
    },
    {
      "inputs": [],
      "name": "renounceOwnership",
      "outputs": [],
      "stateMutability": "nonpayable",
      "type": "function"
    },
    {
      "inputs": [],
      "name": "totalGoalsCreated",
      "outputs": [
        {
          "internalType": "uint256",
          "name": "",
          "type": "uint256"
        }
      ],
      "stateMutability": "view",
      "type": "function"
    },
    {
      "inputs": [],
      "name": "totalVolumeLocked",
      "outputs": [
        {
          "internalType": "uint256",
          "name": "",
          "type": "uint256"
        }
      ],
      "stateMutability": "view",
      "type": "function"
    },
    {
      "inputs": [
        {
          "internalType": "address",
          "name": "newOwner",
          "type": "address"
        }
      ],
      "name": "transferOwnership",
      "outputs": [],
      "stateMutability": "nonpayable",
      "type": "function"
    },
    {
      "inputs": [],
      "name": "treasury",
      "outputs": [
        {
          "internalType": "address",
          "name": "",
          "type": "address"
        }
      ],
      "stateMutability": "view",
      "type": "function"
    },
    {
      "inputs": [
        {
          "internalType": "uint256",
          "name": "newAPY",
          "type": "uint256"
        }
      ],
      "name": "updateAPY",
      "outputs": [],
      "stateMutability": "nonpayable",
      "type": "function"
    },
    {
      "inputs": [
        {
          "internalType": "address",
          "name": "newTreasury",
          "type": "address"
        }
      ],
      "name": "updateTreasury",
      "outputs": [],
      "stateMutability": "nonpayable",
      "type": "function"
    },
    {
      "inputs": [
        {
          "internalType": "bool",
          "name": "useCUSD",
          "type": "bool"
        }
      ],
      "name": "withdraw",
      "outputs": [],
      "stateMutability": "nonpayable",
      "type": "function"
    }
  ],
  "bytecode": "0x6080346200011557601f6200180c38819003918201601f19168301916001600160401b038311848410176200011a5780849260609460405283398101031262000115576200004d8162000130565b620000696040620000616020850162000130565b930162000130565b9060016000553315620000fc57600180546001600160a01b0319808216339081179093556040519590946001600160a01b0394909385938492919083167f8be0079c531659141344cd1fd0a4f28419497f9722a3daafe3b4186f6b6457e0600080a36103526006551685600454161760045516836005541617600555169060075416176007556116c69081620001468239f35b604051631e4fbdf760e01b815260006004820152602490fd5b600080fd5b634e487b7160e01b600052604160045260246000fd5b51906001600160a01b0382168203620001155756fe6080604081815260048036101561001557600080fd5b600092833560e01c90816304553111146114c9575080630c5e72c0146114ad5780631a02859f146114055780631f6d28bc146113a457806336f472ca146113855780634f1bfc9e146113665780635c12f0401461104457806361d027b31461101b57806370a6031114610d6e578063715018a614610d1157806378b4330f14610cf35780637d29391614610cd15780637f51bb1f14610c2f5780637fea355b14610c105780638d017bb114610bd25780638da5cb5b14610ba95780639a408321146108515780639db48bbb14610707578063a810a54c146103ca578063b7323881146103a6578063c59d484714610290578063cae0784314610263578063e22d551a1461023c578063f2fde38b146101aa5763fae728cd1461013657600080fd5b346101a65760203660031901126101a6578035916101526114f9565b6107d0831161016357505060065580f35b906020606492519162461bcd60e51b8352820152601960248201527f536176696e6773476f616c3a2041505920746f6f2068696768000000000000006044820152fd5b8280fd5b5090346101a65760203660031901126101a6576001600160a01b03823581811693919290849003610238576101dd6114f9565b8315610222575050600154826001600160601b0360a01b821617600155167f8be0079c531659141344cd1fd0a4f28419497f9722a3daafe3b4186f6b6457e08380a380f35b51631e4fbdf760e01b8152908101849052602490fd5b8480fd5b50346101a657826003193601126101a6575490516001600160a01b03909116815260209150f35b50503461028c578160031936011261028c5760055490516001600160a01b039091168152602090f35b5080fd5b5090346101a657826003193601126101a657600854916009549160018060a01b0392838354169382519384916370a0823160e01b96878452308385015283602460209586935afa95861561039c578996610366575b509060248392600554169786519889938492835230908301525afa94851561035c578795610325575b506080965082519586528501528301526060820152f35b9080955081813d8311610355575b61033d8183611613565b81010312610351576080965051933861030e565b8680fd5b503d610333565b83513d89823e3d90fd5b919095508282813d8311610395575b61037f8183611613565b810103126103915790519460246102e5565b8880fd5b503d610375565b85513d8b823e3d90fd5b50503461028c578160031936011261028c5760209051683635c9adc5dea000008152f35b5091903461028c576020806003193601126101a6576103e76114e5565b91338452600382526103fe60ff8286205416611548565b338452600282526005818520015442106106b95761041a61164d565b3384526002825280842094600686019060ff8254161561067657600287019661044a600789549201548092611525565b9060c881029080820460c814901517156106635761271061046d91048092611670565b9515610653576005546001600160a01b03165b845163a9059cbb60e01b80825233858301908152602081018a90526001600160a01b039384169391929089908290819003604001818e885af1908115610649578b9161062c575b50156105e95783610522575b50505050506105087feaff4b37086828766ad3268786972c0cd24259d4c87a80f9d3963a3c3d999b0d94959654600954611670565b600955805461ff0019169055519283523392a26001815580f35b6007548751928352166001600160a01b03168482019081526020810193909352918691839182908b90829060400103925af19081156105df5787916105b2575b501561057157808080806104d3565b606490848085519262461bcd60e51b845283015260248201527f536176696e6773476f616c3a20466565207472616e73666572206661696c65646044820152fd5b6105d29150853d87116105d8575b6105ca8183611613565b810190611635565b38610562565b503d6105c0565b84513d89823e3d90fd5b865162461bcd60e51b8152808601899052601e60248201527f536176696e6773476f616c3a205769746864726177616c206661696c656400006044820152606490fd5b6106439150893d8b116105d8576105ca8183611613565b386104c7565b88513d8d823e3d90fd5b81546001600160a01b0316610480565b634e487b7160e01b885260118352602488fd5b825162461bcd60e51b8152908101849052601f60248201527f536176696e6773476f616c3a20476f616c206e6f7420636f6d706c65746564006044820152606490fd5b5162461bcd60e51b815280850191909152602260248201527f536176696e6773476f616c3a204c6f636b20706572696f64206e6f7420656e64604482015261195960f21b6064820152608490fd5b50823461084e57602036600319011261084e576001600160a01b03928235848116908190036101a6576101409482805194610741866115e0565b80865280602087015280828701528060608701528060808701528060a08701528060c08701528060e087015261010093818588015281610120809801528152600260205220928051938492610795846115e0565b815416968784526001820154926020850193845260028301549181860192835260038401549060608701918252840154916080870192835260058501549360a088019485526006860154968b600860c08b019860ff8b1615158a5260ff60e08d019b831c1615158b528c60078201549c019b8c5201549b019a8b5282519c8d525160208d015251908b01525160608a01525160808901525160a088015251151560c087015251151560e086015251908401525190820152f35b80fd5b50346101a657816003193601126101a6578035916024918235938415158503610ba5573386526020936003855261088d60ff8589205416611548565b33875260029586865260ff6006868a20015416610b57573388528686526108bf60ff6006878b20015460081c16611594565b6108c761164d565b8215610b0257338852868652848820918783019160016108e8868554611525565b940193845410610ab55715610aa157600554899088906001600160a01b03165b88516323b872dd60e01b8152338982015230858201526044810188905292839160649183916001600160a01b03165af1908115610a97578a91610a7a575b5015610a395750610958838254611525565b815561096683600954611525565b6009555491845190815282868201527f0b05f0d1cd0819f155b8a61f60baf7767c1ee49d04aeaab701df236140eb93f9853392a25411156109aa575b846001815580f35b7f5fdb120e2225930f6b50914ed30f8f8b37a0a6c7b6df7b1f0f7f235791bfc34192600791338752858252670de0b6b3a7640000610a1f64496cebb800610a13610a09888c209560068701600160ff1982541617905586015442611670565b600886015461167d565b0497830154978861167d565b04928391015582519485528401523392a2388080806109a2565b84601c6064928989519362461bcd60e51b85528401528201527f536176696e6773476f616c3a205472616e73666572206661696c6564000000006044820152fd5b610a919150883d8a116105d8576105ca8183611613565b38610946565b87513d8c823e3d90fd5b8454899088906001600160a01b0316610908565b865162461bcd60e51b81528087018990526022818401527f536176696e6773476f616c3a20457863656564732074617267657420616d6f756044820152611b9d60f21b6064820152608490fd5b845162461bcd60e51b8152808501879052602a818401527f536176696e6773476f616c3a20416d6f756e74206d75737420626520677265616044820152690746572207468616e20360b41b6064820152608490fd5b845162461bcd60e51b81528085018790526023818401527f536176696e6773476f616c3a20476f616c20616c726561647920636f6d706c656044820152621d195960ea1b6064820152608490fd5b8580fd5b50503461028c578160031936011261028c5760015490516001600160a01b039091168152602090f35b50346101a65760203660031901126101a657356001600160a01b038116908190036101a657818360ff92602095526003855220541690519015158152f35b50503461028c578160031936011261028c576020906009549051908152f35b50346101a65760203660031901126101a65780356001600160a01b0381169290839003610ccd57610c5e6114f9565b8215610c7c5750506001600160601b0360a01b600754161760075580f35b906020608492519162461bcd60e51b8352820152602560248201527f536176696e6773476f616c3a20496e76616c6964207472656173757279206164604482015264647265737360d81b6064820152fd5b8380fd5b50503461028c578160031936011261028c5760209051662386f26fc100008152f35b50503461028c578160031936011261028c576020905162093a808152f35b833461084e578060031936011261084e57610d2a6114f9565b600180546001600160a01b0319811690915581906001600160a01b03167f8be0079c531659141344cd1fd0a4f28419497f9722a3daafe3b4186f6b6457e08280a380f35b5091903461028c57606036600319011261028c578235906024803590604490813580151503610ba5573386526020916003835260ff8588205416610fdc57662386f26fc100008610610f9157683635c9adc5dea000008611610f455762093a808410610ef9576301e133808411610ead575033865260028252838620336001600160601b0360a01b8254161781558560018201558660028201558360038201554288820155610e1d8442611525565b60058201556006808201805461ffff1916610100179055600782018890555460089182015533875260038352848720805460ff1916600117905554966000198814610e9c57505060017f585021382a707927ff376ee2d95481c8ae02449a616bbff2c6d68fff56cfb15b9495960160085582519485528401523392a280f35b634e487b7160e01b87526011905285fd5b7f536176696e6773476f616c3a204c6f636b206475726174696f6e20746f6f206c906023899360849588519562461bcd60e51b8752860152840152820152626f6e6760e81b6064820152fd5b7f536176696e6773476f616c3a204c6f636b206475726174696f6e20746f6f207390889260849487519462461bcd60e51b865285015280840152820152631a1bdc9d60e21b6064820152fd5b7f536176696e6773476f616c3a2054617267657420616d6f756e7420746f6f2068906023899360849588519562461bcd60e51b8752860152840152820152620d2ced60eb1b6064820152fd5b7f536176696e6773476f616c3a2054617267657420616d6f756e7420746f6f206c906022899360849588519562461bcd60e51b8752860152840152820152616f7760f01b6064820152fd5b7f536176696e6773476f616c3a20476f616c20616c7265616479206578697374739083899360649588519562461bcd60e51b8752860152840152820152fd5b50503461028c578160031936011261028c5760075490516001600160a01b039091168152602090f35b5090346101a65760209081600319360112610ccd576110616114e5565b923385526003835261107860ff8387205416611548565b3385526002835261109460ff6006848820015460081c16611594565b61109c61164d565b3385526002835281852090600582015442101561130c57600282019081546101f48082029082820414821517156112f9576127106110dc91048092611670565b96156112e9576005546001600160a01b03165b855163a9059cbb60e01b80825233858301908152602081018b90526001600160a01b03938416939192908a908290819003604001818f885af19081156112df578c916112c2575b501561126e578a90846111a7575b50897f5fafa99d0643513820be26656b45130b01e1c03062e1266bf36f88cbd3bd96958a8a60068b6111798c54600954611670565b60095501805461ff00191690553380865260038352818620805460ff19169055905193845292a26001815580f35b60075489519384526001600160a01b039116168583019081526020810194909452909288928492918390036040019183915af1908115611264578891611247575b50156111f8578080808981611144565b835162461bcd60e51b81529081018590526024808201527f536176696e6773476f616c3a2050656e616c7479207472616e736665722066616044820152631a5b195960e21b6064820152608490fd5b61125e9150863d88116105d8576105ca8183611613565b386111e8565b85513d8a823e3d90fd5b875162461bcd60e51b81528086018a9052602860248201527f536176696e6773476f616c3a20456d657267656e6379207769746864726177616044820152671b0819985a5b195960c21b6064820152608490fd5b6112d991508a3d8c116105d8576105ca8183611613565b38611136565b89513d8e823e3d90fd5b81546001600160a01b03166110ef565b634e487b7160e01b895260118352602489fd5b825162461bcd60e51b8152908101849052602e60248201527f536176696e6773476f616c3a204c6f636b20706572696f6420656e6465642c2060448201526d757365207769746864726177282960901b6064820152608490fd5b50503461028c578160031936011261028c57602090516301e133808152f35b50503461028c578160031936011261028c576020906008549051908152f35b5082903461028c57602036600319011261028c57356001600160a01b038116929083900361028c5760209282526003835260ff818320541691826113ec575b50519015158152f35b600284528190206006015460081c60ff169150836113e3565b50346101a65760203660031901126101a6576001600160a01b0381358181169081900361023857838560ff926101409752600260205220918254169360018301549360028401549060038501549085015490600586015492600687015494600860078901549801549881519a8b5260208b01528901526060880152608087015260a0860152818116151560c086015260081c16151560e0840152610100830152610120820152f35b50503461028c578160031936011261028c576020905160c88152f35b84903461028c578160031936011261028c576020906006548152f35b6004359081151582036114f457565b600080fd5b6001546001600160a01b0316330361150d57565b60405163118cdaa760e01b8152336004820152602490fd5b9190820180921161153257565b634e487b7160e01b600052601160045260246000fd5b1561154f57565b60405162461bcd60e51b815260206004820152601b60248201527f536176696e6773476f616c3a204e6f2061637469766520676f616c00000000006044820152606490fd5b1561159b57565b60405162461bcd60e51b815260206004820152601c60248201527f536176696e6773476f616c3a20476f616c206e6f7420616374697665000000006044820152606490fd5b610140810190811067ffffffffffffffff8211176115fd57604052565b634e487b7160e01b600052604160045260246000fd5b90601f8019910116810190811067ffffffffffffffff8211176115fd57604052565b908160209103126114f4575180151581036114f45790565b60026000541461165e576002600055565b604051633ee5aeb560e01b8152600490fd5b9190820391821161153257565b818102929181159184041417156115325756fea2646970667358221220068c3244abbf90e61387a978f1055e67ce81461ab9909152cb9fe3ad36220cf664736f6c63430008140033",
  "linkReferences": {},
  "deployedLinkReferences": {}
}