{
  "_format": "hh-sol-artifact-1",
  "contractName": "MockYieldStrategy",
  "sourceName": "contracts/MockYieldStrategy.sol",
  "abi": [
    {
      "inputs": [],
      "stateMutability": "nonpayable",
      "type": "constructor"
    },
    {
      "inputs": [],
      "name": "apy",
      "outputs": [
        {
          "internalType": "uint256",
          "name": "",
          "type": "uint256"
        }
      ],
      "stateMutability": "view",
      "type": "function"
    },
    {
      "inputs": [],
      "name": "deposit",
      "outputs": [],
      "stateMutability": "payable",
      "type": "function"
    },
    {
      "inputs": [],
      "name": "isActive",
      "outputs": [
        {
          "internalType": "bool",
          "name": "",
          "type": "bool"
        }
      ],
      "stateMutability": "view",
      "type": "function"
    },
    {
      "inputs": [
        {
          "internalType": "uint256",
          "name": "newAPY",
          "type": "uint256"
        }
      ],
      "name": "setAPY",
      "outputs": [],
      "stateMutability": "nonpayable",
      "type": "function"
    },
    {
      "inputs": [
        {
          "internalType": "bool",
          "name": "active",
          "type": "bool"
        }
      ],
      "name": "setActive",
      "outputs": [],
      "stateMutability": "nonpayable",
      "type": "function"
    },
    {
      "inputs": [],
      "name": "totalDeposited",
      "outputs": [
        {
          "internalType": "uint256",
          "name": "",
          "type": "uint256"
        }
      ],
      "stateMutability": "view",
      "type": "function"
    },
    {
      "inputs": [
        {
          "internalType": "uint256",
          "name": "amount",
          "type": "uint256"
        }
      ],
      "name": "withdraw",
      "outputs": [],
      "stateMutability": "nonpayable",
      "type": "function"
    },
    {
      "stateMutability": "payable",
      "type": "receive"
    }
  ],
  "bytecode": "0x6080806040523461002e576103e86000556000600155600160ff19600254161760025561029190816100348239f35b600080fdfe60808060405260049081361015610028575b5050361561001e57600080fd5b6100266101ed565b005b600091823560e01c91826322f3e2d4146101cc5750816324f45e67146101b35781632e1a7d4d1461010c5781633bcfc4b8146100ef578163acec338a146100bc57508063d0e30db0146100a55763ff50abdc146100855780610011565b346100a257806003193601126100a2576020600154604051908152f35b80fd5b50806003193601126100a2576100b96101ed565b80f35b9050346100eb5760203660031901126100eb57358015158091036100eb5760ff80196002541691161760025580f35b5080fd5b82346100a257806003193601126100a25760209054604051908152f35b82346100a25760203660031901126100a25760015482359281841161017a57838203918211610167575081808094819360015581811561015e575b3390f1156101525780f35b604051903d90823e3d90fd5b506108fc610147565b634e487b7160e01b835260119052602482fd5b60649060206040519162461bcd60e51b83528201526012602482015271496e73756666696369656e742066756e647360701b6044820152fd5b9050346100eb5760203660031901126100eb5735815580f35b8390346100eb57816003193601126100eb5760209060ff6002541615158152f35b60ff60025416156102205760015434810180911161020a57600155565b634e487b7160e01b600052601160045260246000fd5b60405162461bcd60e51b81526020600482015260136024820152725374726174656779206e6f742061637469766560681b6044820152606490fdfea26469706673582212206d96abf91d3abad9019be16d2e09e734ed76a87ffdce313b0a3c97166b1fc13564736f6c63430008140033",
  "linkReferences": {},
  "deployedLinkReferences": {}
}